{
  "_format": "hh-sol-artifact-1",
  "contractName": "GemstoneSelecting",
  "sourceName": "contracts/GemstoneSelecting.sol",
  "abi": [
    {
      "inputs": [
        {
          "internalType": "address",
          "name": "_gemstoneExtractionAddress",
          "type": "address"
        }
      ],
      "payable": false,
      "stateMutability": "nonpayable",
      "type": "constructor"
    },
    {
      "anonymous": false,
      "inputs": [
        {
          "indexed": false,
          "internalType": "uint256",
          "name": "id",
          "type": "uint256"
        },
        {
          "indexed": false,
          "internalType": "uint256",
          "name": "minedGemId",
          "type": "uint256"
        },
        {
          "components": [
            {
              "internalType": "string",
              "name": "size",
              "type": "string"
            },
            {
              "internalType": "uint256",
              "name": "carat",
              "type": "uint256"
            },
            {
              "internalType": "string",
              "name": "gemType",
              "type": "string"
            },
            {
              "internalType": "string",
              "name": "color",
              "type": "string"
            }
          ],
          "indexed": false,
          "internalType": "struct GemstoneSelecting.GemDetails",
          "name": "details",
          "type": "tuple"
        },
        {
          "indexed": false,
          "internalType": "bool",
          "name": "forSale",
          "type": "bool"
        },
        {
          "indexed": false,
          "internalType": "string",
          "name": "fileURL",
          "type": "string"
        },
        {
          "indexed": false,
          "internalType": "uint256",
          "name": "price",
          "type": "uint256"
        },
        {
          "indexed": false,
          "internalType": "bool",
          "name": "used",
          "type": "bool"
        },
        {
          "indexed": false,
          "internalType": "bool",
          "name": "replaced",
          "type": "bool"
        },
        {
          "indexed": false,
          "internalType": "address payable",
          "name": "owner",
          "type": "address"
        },
        {
          "indexed": false,
          "internalType": "address payable",
          "name": "gemCutter",
          "type": "address"
        }
      ],
      "name": "GemSelecting",
      "type": "event"
    },
    {
      "anonymous": false,
      "inputs": [
        {
          "indexed": false,
          "internalType": "uint256",
          "name": "id",
          "type": "uint256"
        },
        {
          "indexed": false,
          "internalType": "uint256",
          "name": "minedGemId",
          "type": "uint256"
        },
        {
          "components": [
            {
              "internalType": "string",
              "name": "size",
              "type": "string"
            },
            {
              "internalType": "uint256",
              "name": "carat",
              "type": "uint256"
            },
            {
              "internalType": "string",
              "name": "gemType",
              "type": "string"
            },
            {
              "internalType": "string",
              "name": "color",
              "type": "string"
            }
          ],
          "indexed": false,
          "internalType": "struct GemstoneSelecting.GemDetails",
          "name": "details",
          "type": "tuple"
        },
        {
          "indexed": false,
          "internalType": "bool",
          "name": "forSale",
          "type": "bool"
        },
        {
          "indexed": false,
          "internalType": "string",
          "name": "fileURL",
          "type": "string"
        },
        {
          "indexed": false,
          "internalType": "uint256",
          "name": "price",
          "type": "uint256"
        },
        {
          "indexed": false,
          "internalType": "bool",
          "name": "used",
          "type": "bool"
        },
        {
          "indexed": false,
          "internalType": "bool",
          "name": "replaced",
          "type": "bool"
        },
        {
          "indexed": false,
          "internalType": "address payable",
          "name": "owner",
          "type": "address"
        },
        {
          "indexed": false,
          "internalType": "address payable",
          "name": "gemCutter",
          "type": "address"
        }
      ],
      "name": "MarkGemAsUsed",
      "type": "event"
    },
    {
      "anonymous": false,
      "inputs": [
        {
          "indexed": false,
          "internalType": "uint256",
          "name": "id",
          "type": "uint256"
        },
        {
          "indexed": false,
          "internalType": "uint256",
          "name": "minedGemId",
          "type": "uint256"
        },
        {
          "components": [
            {
              "internalType": "string",
              "name": "size",
              "type": "string"
            },
            {
              "internalType": "uint256",
              "name": "carat",
              "type": "uint256"
            },
            {
              "internalType": "string",
              "name": "gemType",
              "type": "string"
            },
            {
              "internalType": "string",
              "name": "color",
              "type": "string"
            }
          ],
          "indexed": false,
          "internalType": "struct GemstoneSelecting.GemDetails",
          "name": "details",
          "type": "tuple"
        },
        {
          "indexed": false,
          "internalType": "bool",
          "name": "forSale",
          "type": "bool"
        },
        {
          "indexed": false,
          "internalType": "string",
          "name": "fileURL",
          "type": "string"
        },
        {
          "indexed": false,
          "internalType": "uint256",
          "name": "price",
          "type": "uint256"
        },
        {
          "indexed": false,
          "internalType": "bool",
          "name": "used",
          "type": "bool"
        },
        {
          "indexed": false,
          "internalType": "bool",
          "name": "replaced",
          "type": "bool"
        },
        {
          "indexed": false,
          "internalType": "address payable",
          "name": "owner",
          "type": "address"
        },
        {
          "indexed": false,
          "internalType": "address payable",
          "name": "gemCutter",
          "type": "address"
        }
      ],
      "name": "PolishGem",
      "type": "event"
    },
    {
      "anonymous": false,
      "inputs": [
        {
          "indexed": false,
          "internalType": "uint256",
          "name": "id",
          "type": "uint256"
        },
        {
          "indexed": false,
          "internalType": "uint256",
          "name": "minedGemId",
          "type": "uint256"
        },
        {
          "components": [
            {
              "internalType": "string",
              "name": "size",
              "type": "string"
            },
            {
              "internalType": "uint256",
              "name": "carat",
              "type": "uint256"
            },
            {
              "internalType": "string",
              "name": "gemType",
              "type": "string"
            },
            {
              "internalType": "string",
              "name": "color",
              "type": "string"
            }
          ],
          "indexed": false,
          "internalType": "struct GemstoneSelecting.GemDetails",
          "name": "details",
          "type": "tuple"
        },
        {
          "indexed": false,
          "internalType": "bool",
          "name": "forSale",
          "type": "bool"
        },
        {
          "indexed": false,
          "internalType": "string",
          "name": "fileURL",
          "type": "string"
        },
        {
          "indexed": false,
          "internalType": "uint256",
          "name": "price",
          "type": "uint256"
        },
        {
          "indexed": false,
          "internalType": "bool",
          "name": "used",
          "type": "bool"
        },
        {
          "indexed": false,
          "internalType": "bool",
          "name": "replaced",
          "type": "bool"
        },
        {
          "indexed": false,
          "internalType": "address payable",
          "name": "owner",
          "type": "address"
        },
        {
          "indexed": false,
          "internalType": "address payable",
          "name": "gemCutter",
          "type": "address"
        }
      ],
      "name": "TransferGemOwnership",
      "type": "event"
    },
    {
      "constant": false,
      "inputs": [
        {
          "internalType": "uint256",
          "name": "_minedGemId",
          "type": "uint256"
        },
        {
          "components": [
            {
              "internalType": "string",
              "name": "size",
              "type": "string"
            },
            {
              "internalType": "uint256",
              "name": "carat",
              "type": "uint256"
            },
            {
              "internalType": "string",
              "name": "gemType",
              "type": "string"
            },
            {
              "internalType": "string",
              "name": "color",
              "type": "string"
            }
          ],
          "internalType": "struct GemstoneSelecting.GemDetails",
          "name": "_details",
          "type": "tuple"
        },
        {
          "internalType": "string",
          "name": "_fileURL",
          "type": "string"
        },
        {
          "internalType": "uint256",
          "name": "_price",
          "type": "uint256"
        }
      ],
      "name": "gemSelecting",
      "outputs": [],
      "payable": false,
      "stateMutability": "nonpayable",
      "type": "function"
    },
    {
      "constant": true,
      "inputs": [
        {
          "internalType": "uint256",
          "name": "_id",
          "type": "uint256"
        }
      ],
      "name": "getSelectedGem",
      "outputs": [
        {
          "internalType": "uint256",
          "name": "id",
          "type": "uint256"
        },
        {
          "internalType": "uint256",
          "name": "minedGemId",
          "type": "uint256"
        },
        {
          "internalType": "uint256",
          "name": "previousGemId",
          "type": "uint256"
        },
        {
          "components": [
            {
              "internalType": "string",
              "name": "size",
              "type": "string"
            },
            {
              "internalType": "uint256",
              "name": "carat",
              "type": "uint256"
            },
            {
              "internalType": "string",
              "name": "gemType",
              "type": "string"
            },
            {
              "internalType": "string",
              "name": "color",
              "type": "string"
            }
          ],
          "internalType": "struct GemstoneSelecting.GemDetails",
          "name": "details",
          "type": "tuple"
        },
        {
          "internalType": "bool",
          "name": "forSale",
          "type": "bool"
        },
        {
          "internalType": "string",
          "name": "fileURL",
          "type": "string"
        },
        {
          "internalType": "uint256",
          "name": "price",
          "type": "uint256"
        },
        {
          "internalType": "bool",
          "name": "used",
          "type": "bool"
        },
        {
          "internalType": "bool",
          "name": "replaced",
          "type": "bool"
        },
        {
          "internalType": "address",
          "name": "owner",
          "type": "address"
        },
        {
          "internalType": "address",
          "name": "gemCutter",
          "type": "address"
        }
      ],
      "payable": false,
      "stateMutability": "view",
      "type": "function"
    },
    {
      "constant": true,
      "inputs": [
        {
          "internalType": "address",
          "name": "_owner",
          "type": "address"
        }
      ],
      "name": "getSelectedGemsCountByOwner",
      "outputs": [
        {
          "internalType": "uint256",
          "name": "",
          "type": "uint256"
        }
      ],
      "payable": false,
      "stateMutability": "view",
      "type": "function"
    },
    {
      "constant": false,
      "inputs": [
        {
          "internalType": "uint256",
          "name": "_id",
          "type": "uint256"
        }
      ],
      "name": "markGemAsReplaced",
      "outputs": [],
      "payable": false,
      "stateMutability": "nonpayable",
      "type": "function"
    },
    {
      "constant": false,
      "inputs": [
        {
          "internalType": "uint256",
          "name": "_id",
          "type": "uint256"
        }
      ],
      "name": "markGemAsUsed",
      "outputs": [],
      "payable": false,
      "stateMutability": "nonpayable",
      "type": "function"
    },
    {
      "constant": false,
      "inputs": [
        {
          "internalType": "uint256",
          "name": "_id",
          "type": "uint256"
        }
      ],
      "name": "polishGem",
      "outputs": [],
      "payable": true,
      "stateMutability": "payable",
      "type": "function"
    },
    {
      "constant": true,
      "inputs": [],
      "name": "selectedGemCount",
      "outputs": [
        {
          "internalType": "uint256",
          "name": "",
          "type": "uint256"
        }
      ],
      "payable": false,
      "stateMutability": "view",
      "type": "function"
    },
    {
      "constant": true,
      "inputs": [
        {
          "internalType": "uint256",
          "name": "",
          "type": "uint256"
        }
      ],
      "name": "selectedMinedGems",
      "outputs": [
        {
          "internalType": "bool",
          "name": "",
          "type": "bool"
        }
      ],
      "payable": false,
      "stateMutability": "view",
      "type": "function"
    },
    {
      "constant": false,
      "inputs": [
        {
          "internalType": "uint256",
          "name": "gemId",
          "type": "uint256"
        },
        {
          "internalType": "uint256",
          "name": "previousGemId",
          "type": "uint256"
        }
      ],
      "name": "setPreviousGemId",
      "outputs": [],
      "payable": false,
      "stateMutability": "nonpayable",
      "type": "function"
    },
    {
      "constant": false,
      "inputs": [
        {
          "internalType": "uint256",
          "name": "_id",
          "type": "uint256"
        }
      ],
      "name": "transferGemOwnership",
      "outputs": [],
      "payable": true,
      "stateMutability": "payable",
      "type": "function"
    }
  ],
  "bytecode": "0x6080604052600080553480156200001557600080fd5b5060405162001f0638038062001f0683398181016040526200003b91908101906200009a565b80600260006101000a81548173ffffffffffffffffffffffffffffffffffffffff021916908373ffffffffffffffffffffffffffffffffffffffff1602179055505062000114565b6000815190506200009481620000fa565b92915050565b600060208284031215620000ad57600080fd5b6000620000bd8482850162000083565b91505092915050565b6000620000d382620000da565b9050919050565b600073ffffffffffffffffffffffffffffffffffffffff82169050919050565b6200010581620000c6565b81146200011157600080fd5b50565b611de280620001246000396000f3fe6080604052600436106100915760003560e01c8063b06e6f5811610059578063b06e6f581461018a578063da5eeba9146101a6578063e85f2238146101cf578063e8e9d045146101f8578063f4df75e51461023557610091565b8063478091d9146100965780635f801c7a146100bf5780636056fe7e146100ea578063608c1fb41461010657806361b32e6e14610143575b600080fd5b3480156100a257600080fd5b506100bd60048036036100b89190810190611429565b61025e565b005b3480156100cb57600080fd5b506100d4610419565b6040516100e19190611a43565b60405180910390f35b61010460048036036100ff9190810190611429565b61041f565b005b34801561011257600080fd5b5061012d60048036036101289190810190611400565b61053e565b60405161013a9190611a43565b60405180910390f35b34801561014f57600080fd5b5061016a60048036036101659190810190611429565b6105df565b6040516101819b9a99989796959493929190611b08565b60405180910390f35b6101a4600480360361019f9190810190611429565b610970565b005b3480156101b257600080fd5b506101cd60048036036101c891908101906114e5565b610c5f565b005b3480156101db57600080fd5b506101f660048036036101f19190810190611429565b610ccb565b005b34801561020457600080fd5b5061021f600480360361021a9190810190611429565b610e86565b60405161022c9190611968565b60405180910390f35b34801561024157600080fd5b5061025c60048036036102579190810190611452565b610ea6565b005b60006001600083815260200190815260200160002090506000816000015411801561028f5750600054816000015411155b6102ce576040517f08c379a00000000000000000000000000000000000000000000000000000000081526004016102c5906119a3565b60405180910390fd5b6000151581600a0160019054906101000a900460ff16151514610326576040517f08c379a000000000000000000000000000000000000000000000000000000000815260040161031d906119c3565b60405180910390fd5b600181600a0160016101000a81548160ff0219169083151502179055507f47e996330552fd48115c37b9f17fd038b1d6e41e37ae6500780204af59f2a3cf828260010154836003018460070160009054906101000a900460ff1685600801866009015487600a0160009054906101000a900460ff1688600a0160019054906101000a900460ff1689600a0160029054906101000a900473ffffffffffffffffffffffffffffffffffffffff168a600b0160009054906101000a900473ffffffffffffffffffffffffffffffffffffffff1660405161040d9a99989796959493929190611a5e565b60405180910390a15050565b60005481565b60006001600083815260200190815260200160002090508060070160009054906101000a900460ff16158160070160006101000a81548160ff0219169083151502179055507fa532eb978d4b38a5a6f8a14c5bdf9f39a6f6da5763e7f112f173bb8613405e2e81600001548260010154836003018460070160009054906101000a900460ff1685600801866009015487600a0160009054906101000a900460ff1688600a0160019054906101000a900460ff1689600a0160029054906101000a900473ffffffffffffffffffffffffffffffffffffffff168a600b0160009054906101000a900473ffffffffffffffffffffffffffffffffffffffff166040516105329a99989796959493929190611a5e565b60405180910390a15050565b600080600090506000600190505b60005481116105d5578373ffffffffffffffffffffffffffffffffffffffff1660016000838152602001908152602001600020600a0160029054906101000a900473ffffffffffffffffffffffffffffffffffffffff1673ffffffffffffffffffffffffffffffffffffffff1614156105c85781806001019250505b808060010191505061054c565b5080915050919050565b60008060006105ec611125565b60006060600080600080600080600160008e81526020019081526020016000209050806000015481600101548260020154836003018460070160009054906101000a900460ff1685600801866009015487600a0160009054906101000a900460ff1688600a0160019054906101000a900460ff1689600a0160029054906101000a900473ffffffffffffffffffffffffffffffffffffffff168a600b0160009054906101000a900473ffffffffffffffffffffffffffffffffffffffff1687604051806080016040529081600082018054600181600116156101000203166002900480601f01602080910402602001604051908101604052809291908181526020018280546001816001161561010002031660029004801561074f5780601f106107245761010080835404028352916020019161074f565b820191906000526020600020905b81548152906001019060200180831161073257829003601f168201915b5050505050815260200160018201548152602001600282018054600181600116156101000203166002900480601f0160208091040260200160405190810160405280929190818152602001828054600181600116156101000203166002900480156107fb5780601f106107d0576101008083540402835291602001916107fb565b820191906000526020600020905b8154815290600101906020018083116107de57829003601f168201915b50505050508152602001600382018054600181600116156101000203166002900480601f01602080910402602001604051908101604052809291908181526020018280546001816001161561010002031660029004801561089d5780601f106108725761010080835404028352916020019161089d565b820191906000526020600020905b81548152906001019060200180831161088057829003601f168201915b5050505050815250509750858054600181600116156101000203166002900480601f01602080910402602001604051908101604052809291908181526020018280546001816001161561010002031660029004801561093d5780601f106109125761010080835404028352916020019161093d565b820191906000526020600020905b81548152906001019060200180831161092057829003601f168201915b505050505095508191508090509b509b509b509b509b509b509b509b509b509b509b505091939597999b90929496989a50565b6000600160008381526020019081526020016000209050600081600001541180156109a15750600054816000015411155b6109e0576040517f08c379a00000000000000000000000000000000000000000000000000000000081526004016109d7906119a3565b60405180910390fd5b3373ffffffffffffffffffffffffffffffffffffffff1681600a0160029054906101000a900473ffffffffffffffffffffffffffffffffffffffff1673ffffffffffffffffffffffffffffffffffffffff161415610a73576040517f08c379a0000000000000000000000000000000000000000000000000000000008152600401610a6a90611983565b60405180910390fd5b8060090154341015610aba576040517f08c379a0000000000000000000000000000000000000000000000000000000008152600401610ab1906119e3565b60405180910390fd5b80600a0160029054906101000a900473ffffffffffffffffffffffffffffffffffffffff1673ffffffffffffffffffffffffffffffffffffffff166108fc349081150290604051600060405180830381858888f19350505050158015610b24573d6000803e3d6000fd5b503381600a0160026101000a81548173ffffffffffffffffffffffffffffffffffffffff021916908373ffffffffffffffffffffffffffffffffffffffff16021790555060008160070160006101000a81548160ff0219169083151502179055507f5da99fd67ede25fe80e4d7cd209a10dc8e76634b178db107e61c81d9fd3eae1281600001548260010154836003018460070160009054906101000a900460ff1685600801866009015487600a0160009054906101000a900460ff1688600a0160019054906101000a900460ff1689600a0160029054906101000a900473ffffffffffffffffffffffffffffffffffffffff168a600b0160009054906101000a900473ffffffffffffffffffffffffffffffffffffffff16604051610c539a99989796959493929190611a5e565b60405180910390a15050565b60006001600084815260200190815260200160002090506000816000015411610cbd576040517f08c379a0000000000000000000000000000000000000000000000000000000008152600401610cb490611a03565b60405180910390fd5b818160020181905550505050565b600060016000838152602001908152602001600020905060008160000154118015610cfc5750600054816000015411155b610d3b576040517f08c379a0000000000000000000000000000000000000000000000000000000008152600401610d32906119a3565b60405180910390fd5b6000151581600a0160009054906101000a900460ff16151514610d93576040517f08c379a0000000000000000000000000000000000000000000000000000000008152600401610d8a90611a23565b60405180910390fd5b600181600a0160006101000a81548160ff0219169083151502179055507f47e996330552fd48115c37b9f17fd038b1d6e41e37ae6500780204af59f2a3cf828260010154836003018460070160009054906101000a900460ff1685600801866009015487600a0160009054906101000a900460ff1688600a0160019054906101000a900460ff1689600a0160029054906101000a900473ffffffffffffffffffffffffffffffffffffffff168a600b0160009054906101000a900473ffffffffffffffffffffffffffffffffffffffff16604051610e7a9a99989796959493929190611a5e565b60405180910390a15050565b60036020528060005260406000206000915054906101000a900460ff1681565b6000808154809291906001019190505550600060016000868152602001908152602001600020905084816000018190555084816001018190555083816003016000820151816000019080519060200190610f0192919061114d565b50602082015181600101556040820151816002019080519060200190610f2892919061114d565b506060820151816003019080519060200190610f4592919061114d565b5090505060008160070160006101000a81548160ff02191690831515021790555082816008019080519060200190610f7e9291906111cd565b50818160090181905550600081600a0160006101000a81548160ff021916908315150217905550600081600a0160016101000a81548160ff0219169083151502179055503381600a0160026101000a81548173ffffffffffffffffffffffffffffffffffffffff021916908373ffffffffffffffffffffffffffffffffffffffff1602179055503381600b0160006101000a81548173ffffffffffffffffffffffffffffffffffffffff021916908373ffffffffffffffffffffffffffffffffffffffff1602179055507f3ad65d9518c085627dbca61fd4a2e636f4534a985148d2c7d7b7f119aee3f7e281600001548260010154836003018460070160009054906101000a900460ff1685600801866009015487600a0160009054906101000a900460ff1688600a0160019054906101000a900460ff1689600a0160029054906101000a900473ffffffffffffffffffffffffffffffffffffffff168a600b0160009054906101000a900473ffffffffffffffffffffffffffffffffffffffff166040516111169a99989796959493929190611a5e565b60405180910390a15050505050565b6040518060800160405280606081526020016000815260200160608152602001606081525090565b828054600181600116156101000203166002900490600052602060002090601f016020900481019282601f1061118e57805160ff19168380011785556111bc565b828001600101855582156111bc579182015b828111156111bb5782518255916020019190600101906111a0565b5b5090506111c9919061124d565b5090565b828054600181600116156101000203166002900490600052602060002090601f016020900481019282601f1061120e57805160ff191683800117855561123c565b8280016001018555821561123c579182015b8281111561123b578251825591602001919060010190611220565b5b509050611249919061124d565b5090565b61126f91905b8082111561126b576000816000905550600101611253565b5090565b90565b60008135905061128181611d71565b92915050565b600082601f83011261129857600080fd5b81356112ab6112a682611bee565b611bc1565b915080825260208301602083018583830111156112c757600080fd5b6112d2838284611cf7565b50505092915050565b600082601f8301126112ec57600080fd5b81356112ff6112fa82611c1a565b611bc1565b9150808252602083016020830185838301111561131b57600080fd5b611326838284611cf7565b50505092915050565b60006080828403121561134157600080fd5b61134b6080611bc1565b9050600082013567ffffffffffffffff81111561136757600080fd5b61137384828501611287565b6000830152506020611387848285016113eb565b602083015250604082013567ffffffffffffffff8111156113a757600080fd5b6113b384828501611287565b604083015250606082013567ffffffffffffffff8111156113d357600080fd5b6113df84828501611287565b60608301525092915050565b6000813590506113fa81611d88565b92915050565b60006020828403121561141257600080fd5b600061142084828501611272565b91505092915050565b60006020828403121561143b57600080fd5b6000611449848285016113eb565b91505092915050565b6000806000806080858703121561146857600080fd5b6000611476878288016113eb565b945050602085013567ffffffffffffffff81111561149357600080fd5b61149f8782880161132f565b935050604085013567ffffffffffffffff8111156114bc57600080fd5b6114c8878288016112db565b92505060606114d9878288016113eb565b91505092959194509250565b600080604083850312156114f857600080fd5b6000611506858286016113eb565b9250506020611517858286016113eb565b9150509250929050565b61152a81611caf565b82525050565b61153981611c9d565b82525050565b61154881611cc1565b82525050565b600061155982611c66565b6115638185611c82565b9350611573818560208601611d06565b61157c81611d53565b840191505092915050565b600061159282611c5b565b61159c8185611c71565b93506115ac818560208601611d06565b6115b581611d53565b840191505092915050565b6000815460018116600081146115dd576001811461160357611647565b607f60028304166115ee8187611c71565b955060ff198316865260208601935050611647565b600282046116118187611c71565b955061161c85611c46565b60005b8281101561163e5781548189015260018201915060208101905061161f565b80880195505050505b505092915050565b60008154600181166000811461166c5760018114611692576116d6565b607f600283041661167d8187611c82565b955060ff1983168652602086019350506116d6565b600282046116a08187611c82565b95506116ab85611c46565b60005b828110156116cd578154818901526001820191506020810190506116ae565b80880195505050505b505092915050565b60006116eb601883611c82565b91507f596f7520616c7265616479206f776e20746869732067656d00000000000000006000830152602082019050919050565b600061172b600e83611c82565b91507f496e76616c69642067656d2049440000000000000000000000000000000000006000830152602082019050919050565b600061176b601483611c82565b91507f47656d20616c7265616479207265706c616365640000000000000000000000006000830152602082019050919050565b60006117ab601283611c82565b91507f496e73756666696369656e742066756e647300000000000000000000000000006000830152602082019050919050565b60006117eb601383611c82565b91507f47656d20646f6573206e6f742065786973742e000000000000000000000000006000830152602082019050919050565b600061182b601083611c82565b91507f47656d20616c72656164792075736564000000000000000000000000000000006000830152602082019050919050565b6000608083016000830151848203600086015261187b8282611587565b9150506020830151611890602086018261194a565b50604083015184820360408601526118a88282611587565b915050606083015184820360608601526118c28282611587565b9150508091505092915050565b600060808301600080840185830360008701526118ec83826115c0565b925050600184015490506118ff81611d39565b61190c602087018261194a565b5060028401858303604087015261192383826115c0565b92505060038401858303606087015261193c83826115c0565b925050819250505092915050565b61195381611ced565b82525050565b61196281611ced565b82525050565b600060208201905061197d600083018461153f565b92915050565b6000602082019050818103600083015261199c816116de565b9050919050565b600060208201905081810360008301526119bc8161171e565b9050919050565b600060208201905081810360008301526119dc8161175e565b9050919050565b600060208201905081810360008301526119fc8161179e565b9050919050565b60006020820190508181036000830152611a1c816117de565b9050919050565b60006020820190508181036000830152611a3c8161181e565b9050919050565b6000602082019050611a586000830184611959565b92915050565b600061014082019050611a74600083018d611959565b611a81602083018c611959565b8181036040830152611a93818b6118cf565b9050611aa2606083018a61153f565b8181036080830152611ab4818961164f565b9050611ac360a0830188611959565b611ad060c083018761153f565b611add60e083018661153f565b611aeb610100830185611521565b611af9610120830184611521565b9b9a5050505050505050505050565b600061016082019050611b1e600083018e611959565b611b2b602083018d611959565b611b38604083018c611959565b8181036060830152611b4a818b61185e565b9050611b59608083018a61153f565b81810360a0830152611b6b818961154e565b9050611b7a60c0830188611959565b611b8760e083018761153f565b611b9561010083018661153f565b611ba3610120830185611530565b611bb1610140830184611530565b9c9b505050505050505050505050565b6000604051905081810181811067ffffffffffffffff82111715611be457600080fd5b8060405250919050565b600067ffffffffffffffff821115611c0557600080fd5b601f19601f8301169050602081019050919050565b600067ffffffffffffffff821115611c3157600080fd5b601f19601f8301169050602081019050919050565b60008190508160005260206000209050919050565b600081519050919050565b600081519050919050565b600082825260208201905092915050565b600082825260208201905092915050565b6000819050919050565b6000611ca882611ccd565b9050919050565b6000611cba82611ccd565b9050919050565b60008115159050919050565b600073ffffffffffffffffffffffffffffffffffffffff82169050919050565b6000819050919050565b82818337600083830152505050565b60005b83811015611d24578082015181840152602081019050611d09565b83811115611d33576000848401525b50505050565b6000611d4c611d4783611d64565b611c93565b9050919050565b6000601f19601f8301169050919050565b60008160001c9050919050565b611d7a81611c9d565b8114611d8557600080fd5b50565b611d9181611ced565b8114611d9c57600080fd5b5056fea365627a7a72315820ac73e9ebcb46893bd66d1a1812c06ac198de447808f3edf87a5bdb4d111cc7436c6578706572696d656e74616cf564736f6c63430005100040",
  "linkReferences": {},
  "deployedLinkReferences": {}
}