{"contracts/GemstoneSelecting.sol":{"GemstoneSelecting":{"abi":[{"inputs":[{"internalType":"address","name":"_gemstoneExtractionAddress","type":"address"}],"payable":false,"stateMutability":"nonpayable","type":"constructor"},{"anonymous":false,"inputs":[{"indexed":false,"internalType":"uint256","name":"id","type":"uint256"},{"indexed":false,"internalType":"uint256","name":"minedGemId","type":"uint256"},{"components":[{"internalType":"string","name":"size","type":"string"},{"internalType":"uint256","name":"carat","type":"uint256"},{"internalType":"string","name":"gemType","type":"string"},{"internalType":"string","name":"color","type":"string"}],"indexed":false,"internalType":"struct GemstoneSelecting.GemDetails","name":"details","type":"tuple"},{"indexed":false,"internalType":"bool","name":"forSale","type":"bool"},{"indexed":false,"internalType":"string","name":"fileURL","type":"string"},{"indexed":false,"internalType":"uint256","name":"price","type":"uint256"},{"indexed":false,"internalType":"bool","name":"used","type":"bool"},{"indexed":false,"internalType":"bool","name":"replaced","type":"bool"},{"indexed":false,"internalType":"address payable","name":"owner","type":"address"},{"indexed":false,"internalType":"address payable","name":"gemCutter","type":"address"}],"name":"GemSelecting","type":"event"},{"anonymous":false,"inputs":[{"indexed":false,"internalType":"uint256","name":"id","type":"uint256"},{"indexed":false,"internalType":"uint256","name":"minedGemId","type":"uint256"},{"components":[{"internalType":"string","name":"size","type":"string"},{"internalType":"uint256","name":"carat","type":"uint256"},{"internalType":"string","name":"gemType","type":"string"},{"internalType":"string","name":"color","type":"string"}],"indexed":false,"internalType":"struct GemstoneSelecting.GemDetails","name":"details","type":"tuple"},{"indexed":false,"internalType":"bool","name":"forSale","type":"bool"},{"indexed":false,"internalType":"string","name":"fileURL","type":"string"},{"indexed":false,"internalType":"uint256","name":"price","type":"uint256"},{"indexed":false,"internalType":"bool","name":"used","type":"bool"},{"indexed":false,"internalType":"bool","name":"replaced","type":"bool"},{"indexed":false,"internalType":"address payable","name":"owner","type":"address"},{"indexed":false,"internalType":"address payable","name":"gemCutter","type":"address"}],"name":"MarkGemAsUsed","type":"event"},{"anonymous":false,"inputs":[{"indexed":false,"internalType":"uint256","name":"id","type":"uint256"},{"indexed":false,"internalType":"uint256","name":"minedGemId","type":"uint256"},{"components":[{"internalType":"string","name":"size","type":"string"},{"internalType":"uint256","name":"carat","type":"uint256"},{"internalType":"string","name":"gemType","type":"string"},{"internalType":"string","name":"color","type":"string"}],"indexed":false,"internalType":"struct GemstoneSelecting.GemDetails","name":"details","type":"tuple"},{"indexed":false,"internalType":"bool","name":"forSale","type":"bool"},{"indexed":false,"internalType":"string","name":"fileURL","type":"string"},{"indexed":false,"internalType":"uint256","name":"price","type":"uint256"},{"indexed":false,"internalType":"bool","name":"used","type":"bool"},{"indexed":false,"internalType":"bool","name":"replaced","type":"bool"},{"indexed":false,"internalType":"address payable","name":"owner","type":"address"},{"indexed":false,"internalType":"address payable","name":"gemCutter","type":"address"}],"name":"PolishGem","type":"event"},{"anonymous":false,"inputs":[{"indexed":false,"internalType":"uint256","name":"id","type":"uint256"},{"indexed":false,"internalType":"uint256","name":"minedGemId","type":"uint256"},{"components":[{"internalType":"string","name":"size","type":"string"},{"internalType":"uint256","name":"carat","type":"uint256"},{"internalType":"string","name":"gemType","type":"string"},{"internalType":"string","name":"color","type":"string"}],"indexed":false,"internalType":"struct GemstoneSelecting.GemDetails","name":"details","type":"tuple"},{"indexed":false,"internalType":"bool","name":"forSale","type":"bool"},{"indexed":false,"internalType":"string","name":"fileURL","type":"string"},{"indexed":false,"internalType":"uint256","name":"price","type":"uint256"},{"indexed":false,"internalType":"bool","name":"used","type":"bool"},{"indexed":false,"internalType":"bool","name":"replaced","type":"bool"},{"indexed":false,"internalType":"address payable","name":"owner","type":"address"},{"indexed":false,"internalType":"address payable","name":"gemCutter","type":"address"}],"name":"TransferGemOwnership","type":"event"},{"constant":false,"inputs":[{"internalType":"uint256","name":"_minedGemId","type":"uint256"},{"components":[{"internalType":"string","name":"size","type":"string"},{"internalType":"uint256","name":"carat","type":"uint256"},{"internalType":"string","name":"gemType","type":"string"},{"internalType":"string","name":"color","type":"string"}],"internalType":"struct GemstoneSelecting.GemDetails","name":"_details","type":"tuple"},{"internalType":"string","name":"_fileURL","type":"string"},{"internalType":"uint256","name":"_price","type":"uint256"}],"name":"gemSelecting","outputs":[],"payable":false,"stateMutability":"nonpayable","type":"function"},{"constant":true,"inputs":[{"internalType":"uint256","name":"_id","type":"uint256"}],"name":"getSelectedGem","outputs":[{"internalType":"uint256","name":"id","type":"uint256"},{"internalType":"uint256","name":"minedGemId","type":"uint256"},{"internalType":"uint256","name":"previousGemId","type":"uint256"},{"components":[{"internalType":"string","name":"size","type":"string"},{"internalType":"uint256","name":"carat","type":"uint256"},{"internalType":"string","name":"gemType","type":"string"},{"internalType":"string","name":"color","type":"string"}],"internalType":"struct GemstoneSelecting.GemDetails","name":"details","type":"tuple"},{"internalType":"bool","name":"forSale","type":"bool"},{"internalType":"string","name":"fileURL","type":"string"},{"internalType":"uint256","name":"price","type":"uint256"},{"internalType":"bool","name":"used","type":"bool"},{"internalType":"bool","name":"replaced","type":"bool"},{"internalType":"address","name":"owner","type":"address"},{"internalType":"address","name":"gemCutter","type":"address"}],"payable":false,"stateMutability":"view","type":"function"},{"constant":true,"inputs":[{"internalType":"address","name":"_owner","type":"address"}],"name":"getSelectedGemsCountByOwner","outputs":[{"internalType":"uint256","name":"","type":"uint256"}],"payable":false,"stateMutability":"view","type":"function"},{"constant":false,"inputs":[{"internalType":"uint256","name":"_id","type":"uint256"}],"name":"markGemAsReplaced","outputs":[],"payable":false,"stateMutability":"nonpayable","type":"function"},{"constant":false,"inputs":[{"internalType":"uint256","name":"_id","type":"uint256"}],"name":"markGemAsUsed","outputs":[],"payable":false,"stateMutability":"nonpayable","type":"function"},{"constant":false,"inputs":[{"internalType":"uint256","name":"_id","type":"uint256"}],"name":"polishGem","outputs":[],"payable":true,"stateMutability":"payable","type":"function"},{"constant":true,"inputs":[],"name":"selectedGemCount","outputs":[{"internalType":"uint256","name":"","type":"uint256"}],"payable":false,"stateMutability":"view","type":"function"},{"constant":true,"inputs":[{"internalType":"uint256","name":"","type":"uint256"}],"name":"selectedMinedGems","outputs":[{"internalType":"bool","name":"","type":"bool"}],"payable":false,"stateMutability":"view","type":"function"},{"constant":false,"inputs":[{"internalType":"uint256","name":"gemId","type":"uint256"},{"internalType":"uint256","name":"previousGemId","type":"uint256"}],"name":"setPreviousGemId","outputs":[],"payable":false,"stateMutability":"nonpayable","type":"function"},{"constant":false,"inputs":[{"internalType":"uint256","name":"_id","type":"uint256"}],"name":"transferGemOwnership","outputs":[],"payable":true,"stateMutability":"payable","type":"function"}],"evm":{"bytecode":{"linkReferences":{},"object":"6080604052600080553480156200001557600080fd5b5060405162001f0638038062001f0683398181016040526200003b91908101906200009a565b80600260006101000a81548173ffffffffffffffffffffffffffffffffffffffff021916908373ffffffffffffffffffffffffffffffffffffffff1602179055505062000114565b6000815190506200009481620000fa565b92915050565b600060208284031215620000ad57600080fd5b6000620000bd8482850162000083565b91505092915050565b6000620000d382620000da565b9050919050565b600073ffffffffffffffffffffffffffffffffffffffff82169050919050565b6200010581620000c6565b81146200011157600080fd5b50565b611de280620001246000396000f3fe6080604052600436106100915760003560e01c8063b06e6f5811610059578063b06e6f581461018a578063da5eeba9146101a6578063e85f2238146101cf578063e8e9d045146101f8578063f4df75e51461023557610091565b8063478091d9146100965780635f801c7a146100bf5780636056fe7e146100ea578063608c1fb41461010657806361b32e6e14610143575b600080fd5b3480156100a257600080fd5b506100bd60048036036100b89190810190611429565b61025e565b005b3480156100cb57600080fd5b506100d4610419565b6040516100e19190611a43565b60405180910390f35b61010460048036036100ff9190810190611429565b61041f565b005b34801561011257600080fd5b5061012d60048036036101289190810190611400565b61053e565b60405161013a9190611a43565b60405180910390f35b34801561014f57600080fd5b5061016a60048036036101659190810190611429565b6105df565b6040516101819b9a99989796959493929190611b08565b60405180910390f35b6101a4600480360361019f9190810190611429565b610970565b005b3480156101b257600080fd5b506101cd60048036036101c891908101906114e5565b610c5f565b005b3480156101db57600080fd5b506101f660048036036101f19190810190611429565b610ccb565b005b34801561020457600080fd5b5061021f600480360361021a9190810190611429565b610e86565b60405161022c9190611968565b60405180910390f35b34801561024157600080fd5b5061025c60048036036102579190810190611452565b610ea6565b005b60006001600083815260200190815260200160002090506000816000015411801561028f5750600054816000015411155b6102ce576040517f08c379a00000000000000000000000000000000000000000000000000000000081526004016102c5906119a3565b60405180910390fd5b6000151581600a0160019054906101000a900460ff16151514610326576040517f08c379a000000000000000000000000000000000000000000000000000000000815260040161031d906119c3565b60405180910390fd5b600181600a0160016101000a81548160ff0219169083151502179055507f47e996330552fd48115c37b9f17fd038b1d6e41e37ae6500780204af59f2a3cf828260010154836003018460070160009054906101000a900460ff1685600801866009015487600a0160009054906101000a900460ff1688600a0160019054906101000a900460ff1689600a0160029054906101000a900473ffffffffffffffffffffffffffffffffffffffff168a600b0160009054906101000a900473ffffffffffffffffffffffffffffffffffffffff1660405161040d9a99989796959493929190611a5e565b60405180910390a15050565b60005481565b60006001600083815260200190815260200160002090508060070160009054906101000a900460ff16158160070160006101000a81548160ff0219169083151502179055507fa532eb978d4b38a5a6f8a14c5bdf9f39a6f6da5763e7f112f173bb8613405e2e81600001548260010154836003018460070160009054906101000a900460ff1685600801866009015487600a0160009054906101000a900460ff1688600a0160019054906101000a900460ff1689600a0160029054906101000a900473ffffffffffffffffffffffffffffffffffffffff168a600b0160009054906101000a900473ffffffffffffffffffffffffffffffffffffffff166040516105329a99989796959493929190611a5e565b60405180910390a15050565b600080600090506000600190505b60005481116105d5578373ffffffffffffffffffffffffffffffffffffffff1660016000838152602001908152602001600020600a0160029054906101000a900473ffffffffffffffffffffffffffffffffffffffff1673ffffffffffffffffffffffffffffffffffffffff1614156105c85781806001019250505b808060010191505061054c565b5080915050919050565b60008060006105ec611125565b60006060600080600080600080600160008e81526020019081526020016000209050806000015481600101548260020154836003018460070160009054906101000a900460ff1685600801866009015487600a0160009054906101000a900460ff1688600a0160019054906101000a900460ff1689600a0160029054906101000a900473ffffffffffffffffffffffffffffffffffffffff168a600b0160009054906101000a900473ffffffffffffffffffffffffffffffffffffffff1687604051806080016040529081600082018054600181600116156101000203166002900480601f01602080910402602001604051908101604052809291908181526020018280546001816001161561010002031660029004801561074f5780601f106107245761010080835404028352916020019161074f565b820191906000526020600020905b81548152906001019060200180831161073257829003601f168201915b5050505050815260200160018201548152602001600282018054600181600116156101000203166002900480601f0160208091040260200160405190810160405280929190818152602001828054600181600116156101000203166002900480156107fb5780601f106107d0576101008083540402835291602001916107fb565b820191906000526020600020905b8154815290600101906020018083116107de57829003601f168201915b50505050508152602001600382018054600181600116156101000203166002900480601f01602080910402602001604051908101604052809291908181526020018280546001816001161561010002031660029004801561089d5780601f106108725761010080835404028352916020019161089d565b820191906000526020600020905b81548152906001019060200180831161088057829003601f168201915b5050505050815250509750858054600181600116156101000203166002900480601f01602080910402602001604051908101604052809291908181526020018280546001816001161561010002031660029004801561093d5780601f106109125761010080835404028352916020019161093d565b820191906000526020600020905b81548152906001019060200180831161092057829003601f168201915b505050505095508191508090509b509b509b509b509b509b509b509b509b509b509b505091939597999b90929496989a50565b6000600160008381526020019081526020016000209050600081600001541180156109a15750600054816000015411155b6109e0576040517f08c379a00000000000000000000000000000000000000000000000000000000081526004016109d7906119a3565b60405180910390fd5b3373ffffffffffffffffffffffffffffffffffffffff1681600a0160029054906101000a900473ffffffffffffffffffffffffffffffffffffffff1673ffffffffffffffffffffffffffffffffffffffff161415610a73576040517f08c379a0000000000000000000000000000000000000000000000000000000008152600401610a6a90611983565b60405180910390fd5b8060090154341015610aba576040517f08c379a0000000000000000000000000000000000000000000000000000000008152600401610ab1906119e3565b60405180910390fd5b80600a0160029054906101000a900473ffffffffffffffffffffffffffffffffffffffff1673ffffffffffffffffffffffffffffffffffffffff166108fc349081150290604051600060405180830381858888f19350505050158015610b24573d6000803e3d6000fd5b503381600a0160026101000a81548173ffffffffffffffffffffffffffffffffffffffff021916908373ffffffffffffffffffffffffffffffffffffffff16021790555060008160070160006101000a81548160ff0219169083151502179055507f5da99fd67ede25fe80e4d7cd209a10dc8e76634b178db107e61c81d9fd3eae1281600001548260010154836003018460070160009054906101000a900460ff1685600801866009015487600a0160009054906101000a900460ff1688600a0160019054906101000a900460ff1689600a0160029054906101000a900473ffffffffffffffffffffffffffffffffffffffff168a600b0160009054906101000a900473ffffffffffffffffffffffffffffffffffffffff16604051610c539a99989796959493929190611a5e565b60405180910390a15050565b60006001600084815260200190815260200160002090506000816000015411610cbd576040517f08c379a0000000000000000000000000000000000000000000000000000000008152600401610cb490611a03565b60405180910390fd5b818160020181905550505050565b600060016000838152602001908152602001600020905060008160000154118015610cfc5750600054816000015411155b610d3b576040517f08c379a0000000000000000000000000000000000000000000000000000000008152600401610d32906119a3565b60405180910390fd5b6000151581600a0160009054906101000a900460ff16151514610d93576040517f08c379a0000000000000000000000000000000000000000000000000000000008152600401610d8a90611a23565b60405180910390fd5b600181600a0160006101000a81548160ff0219169083151502179055507f47e996330552fd48115c37b9f17fd038b1d6e41e37ae6500780204af59f2a3cf828260010154836003018460070160009054906101000a900460ff1685600801866009015487600a0160009054906101000a900460ff1688600a0160019054906101000a900460ff1689600a0160029054906101000a900473ffffffffffffffffffffffffffffffffffffffff168a600b0160009054906101000a900473ffffffffffffffffffffffffffffffffffffffff16604051610e7a9a99989796959493929190611a5e565b60405180910390a15050565b60036020528060005260406000206000915054906101000a900460ff1681565b6000808154809291906001019190505550600060016000868152602001908152602001600020905084816000018190555084816001018190555083816003016000820151816000019080519060200190610f0192919061114d565b50602082015181600101556040820151816002019080519060200190610f2892919061114d565b506060820151816003019080519060200190610f4592919061114d565b5090505060008160070160006101000a81548160ff02191690831515021790555082816008019080519060200190610f7e9291906111cd565b50818160090181905550600081600a0160006101000a81548160ff021916908315150217905550600081600a0160016101000a81548160ff0219169083151502179055503381600a0160026101000a81548173ffffffffffffffffffffffffffffffffffffffff021916908373ffffffffffffffffffffffffffffffffffffffff1602179055503381600b0160006101000a81548173ffffffffffffffffffffffffffffffffffffffff021916908373ffffffffffffffffffffffffffffffffffffffff1602179055507f3ad65d9518c085627dbca61fd4a2e636f4534a985148d2c7d7b7f119aee3f7e281600001548260010154836003018460070160009054906101000a900460ff1685600801866009015487600a0160009054906101000a900460ff1688600a0160019054906101000a900460ff1689600a0160029054906101000a900473ffffffffffffffffffffffffffffffffffffffff168a600b0160009054906101000a900473ffffffffffffffffffffffffffffffffffffffff166040516111169a99989796959493929190611a5e565b60405180910390a15050505050565b6040518060800160405280606081526020016000815260200160608152602001606081525090565b828054600181600116156101000203166002900490600052602060002090601f016020900481019282601f1061118e57805160ff19168380011785556111bc565b828001600101855582156111bc579182015b828111156111bb5782518255916020019190600101906111a0565b5b5090506111c9919061124d565b5090565b828054600181600116156101000203166002900490600052602060002090601f016020900481019282601f1061120e57805160ff191683800117855561123c565b8280016001018555821561123c579182015b8281111561123b578251825591602001919060010190611220565b5b509050611249919061124d565b5090565b61126f91905b8082111561126b576000816000905550600101611253565b5090565b90565b60008135905061128181611d71565b92915050565b600082601f83011261129857600080fd5b81356112ab6112a682611bee565b611bc1565b915080825260208301602083018583830111156112c757600080fd5b6112d2838284611cf7565b50505092915050565b600082601f8301126112ec57600080fd5b81356112ff6112fa82611c1a565b611bc1565b9150808252602083016020830185838301111561131b57600080fd5b611326838284611cf7565b50505092915050565b60006080828403121561134157600080fd5b61134b6080611bc1565b9050600082013567ffffffffffffffff81111561136757600080fd5b61137384828501611287565b6000830152506020611387848285016113eb565b602083015250604082013567ffffffffffffffff8111156113a757600080fd5b6113b384828501611287565b604083015250606082013567ffffffffffffffff8111156113d357600080fd5b6113df84828501611287565b60608301525092915050565b6000813590506113fa81611d88565b92915050565b60006020828403121561141257600080fd5b600061142084828501611272565b91505092915050565b60006020828403121561143b57600080fd5b6000611449848285016113eb565b91505092915050565b6000806000806080858703121561146857600080fd5b6000611476878288016113eb565b945050602085013567ffffffffffffffff81111561149357600080fd5b61149f8782880161132f565b935050604085013567ffffffffffffffff8111156114bc57600080fd5b6114c8878288016112db565b92505060606114d9878288016113eb565b91505092959194509250565b600080604083850312156114f857600080fd5b6000611506858286016113eb565b9250506020611517858286016113eb565b9150509250929050565b61152a81611caf565b82525050565b61153981611c9d565b82525050565b61154881611cc1565b82525050565b600061155982611c66565b6115638185611c82565b9350611573818560208601611d06565b61157c81611d53565b840191505092915050565b600061159282611c5b565b61159c8185611c71565b93506115ac818560208601611d06565b6115b581611d53565b840191505092915050565b6000815460018116600081146115dd576001811461160357611647565b607f60028304166115ee8187611c71565b955060ff198316865260208601935050611647565b600282046116118187611c71565b955061161c85611c46565b60005b8281101561163e5781548189015260018201915060208101905061161f565b80880195505050505b505092915050565b60008154600181166000811461166c5760018114611692576116d6565b607f600283041661167d8187611c82565b955060ff1983168652602086019350506116d6565b600282046116a08187611c82565b95506116ab85611c46565b60005b828110156116cd578154818901526001820191506020810190506116ae565b80880195505050505b505092915050565b60006116eb601883611c82565b91507f596f7520616c7265616479206f776e20746869732067656d00000000000000006000830152602082019050919050565b600061172b600e83611c82565b91507f496e76616c69642067656d2049440000000000000000000000000000000000006000830152602082019050919050565b600061176b601483611c82565b91507f47656d20616c7265616479207265706c616365640000000000000000000000006000830152602082019050919050565b60006117ab601283611c82565b91507f496e73756666696369656e742066756e647300000000000000000000000000006000830152602082019050919050565b60006117eb601383611c82565b91507f47656d20646f6573206e6f742065786973742e000000000000000000000000006000830152602082019050919050565b600061182b601083611c82565b91507f47656d20616c72656164792075736564000000000000000000000000000000006000830152602082019050919050565b6000608083016000830151848203600086015261187b8282611587565b9150506020830151611890602086018261194a565b50604083015184820360408601526118a88282611587565b915050606083015184820360608601526118c28282611587565b9150508091505092915050565b600060808301600080840185830360008701526118ec83826115c0565b925050600184015490506118ff81611d39565b61190c602087018261194a565b5060028401858303604087015261192383826115c0565b92505060038401858303606087015261193c83826115c0565b925050819250505092915050565b61195381611ced565b82525050565b61196281611ced565b82525050565b600060208201905061197d600083018461153f565b92915050565b6000602082019050818103600083015261199c816116de565b9050919050565b600060208201905081810360008301526119bc8161171e565b9050919050565b600060208201905081810360008301526119dc8161175e565b9050919050565b600060208201905081810360008301526119fc8161179e565b9050919050565b60006020820190508181036000830152611a1c816117de565b9050919050565b60006020820190508181036000830152611a3c8161181e565b9050919050565b6000602082019050611a586000830184611959565b92915050565b600061014082019050611a74600083018d611959565b611a81602083018c611959565b8181036040830152611a93818b6118cf565b9050611aa2606083018a61153f565b8181036080830152611ab4818961164f565b9050611ac360a0830188611959565b611ad060c083018761153f565b611add60e083018661153f565b611aeb610100830185611521565b611af9610120830184611521565b9b9a5050505050505050505050565b600061016082019050611b1e600083018e611959565b611b2b602083018d611959565b611b38604083018c611959565b8181036060830152611b4a818b61185e565b9050611b59608083018a61153f565b81810360a0830152611b6b818961154e565b9050611b7a60c0830188611959565b611b8760e083018761153f565b611b9561010083018661153f565b611ba3610120830185611530565b611bb1610140830184611530565b9c9b505050505050505050505050565b6000604051905081810181811067ffffffffffffffff82111715611be457600080fd5b8060405250919050565b600067ffffffffffffffff821115611c0557600080fd5b601f19601f8301169050602081019050919050565b600067ffffffffffffffff821115611c3157600080fd5b601f19601f8301169050602081019050919050565b60008190508160005260206000209050919050565b600081519050919050565b600081519050919050565b600082825260208201905092915050565b600082825260208201905092915050565b6000819050919050565b6000611ca882611ccd565b9050919050565b6000611cba82611ccd565b9050919050565b60008115159050919050565b600073ffffffffffffffffffffffffffffffffffffffff82169050919050565b6000819050919050565b82818337600083830152505050565b60005b83811015611d24578082015181840152602081019050611d09565b83811115611d33576000848401525b50505050565b6000611d4c611d4783611d64565b611c93565b9050919050565b6000601f19601f8301169050919050565b60008160001c9050919050565b611d7a81611c9d565b8114611d8557600080fd5b50565b611d9181611ced565b8114611d9c57600080fd5b5056fea365627a7a72315820cafa7f261366393fc56afeb72a090a30cf3c867cfabf75c66309b0f2ddc8b0536c6578706572696d656e74616cf564736f6c63430005100040","opcodes":"PUSH1 0x80 PUSH1 0x40 MSTORE PUSH1 0x0 DUP1 SSTORE CALLVALUE DUP1 ISZERO PUSH3 0x15 JUMPI PUSH1 0x0 DUP1 REVERT JUMPDEST POP PUSH1 0x40 MLOAD PUSH3 0x1F06 CODESIZE SUB DUP1 PUSH3 0x1F06 DUP4 CODECOPY DUP2 DUP2 ADD PUSH1 0x40 MSTORE PUSH3 0x3B SWAP2 SWAP1 DUP2 ADD SWAP1 PUSH3 0x9A JUMP JUMPDEST DUP1 PUSH1 0x2 PUSH1 0x0 PUSH2 0x100 EXP DUP2 SLOAD DUP2 PUSH20 0xFFFFFFFFFFFFFFFFFFFFFFFFFFFFFFFFFFFFFFFF MUL NOT AND SWAP1 DUP4 PUSH20 0xFFFFFFFFFFFFFFFFFFFFFFFFFFFFFFFFFFFFFFFF AND MUL OR SWAP1 SSTORE POP POP PUSH3 0x114 JUMP JUMPDEST PUSH1 0x0 DUP2 MLOAD SWAP1 POP PUSH3 0x94 DUP2 PUSH3 0xFA JUMP JUMPDEST SWAP3 SWAP2 POP POP JUMP JUMPDEST PUSH1 0x0 PUSH1 0x20 DUP3 DUP5 SUB SLT ISZERO PUSH3 0xAD JUMPI PUSH1 0x0 DUP1 REVERT JUMPDEST PUSH1 0x0 PUSH3 0xBD DUP5 DUP3 DUP6 ADD PUSH3 0x83 JUMP JUMPDEST SWAP2 POP POP SWAP3 SWAP2 POP POP JUMP JUMPDEST PUSH1 0x0 PUSH3 0xD3 DUP3 PUSH3 0xDA JUMP JUMPDEST SWAP1 POP SWAP2 SWAP1 POP JUMP JUMPDEST PUSH1 0x0 PUSH20 0xFFFFFFFFFFFFFFFFFFFFFFFFFFFFFFFFFFFFFFFF DUP3 AND SWAP1 POP SWAP2 SWAP1 POP JUMP JUMPDEST PUSH3 0x105 DUP2 PUSH3 0xC6 JUMP JUMPDEST DUP2 EQ PUSH3 0x111 JUMPI PUSH1 0x0 DUP1 REVERT JUMPDEST POP JUMP JUMPDEST PUSH2 0x1DE2 DUP1 PUSH3 0x124 PUSH1 0x0 CODECOPY PUSH1 0x0 RETURN INVALID PUSH1 0x80 PUSH1 0x40 MSTORE PUSH1 0x4 CALLDATASIZE LT PUSH2 0x91 JUMPI PUSH1 0x0 CALLDATALOAD PUSH1 0xE0 SHR DUP1 PUSH4 0xB06E6F58 GT PUSH2 0x59 JUMPI DUP1 PUSH4 0xB06E6F58 EQ PUSH2 0x18A JUMPI DUP1 PUSH4 0xDA5EEBA9 EQ PUSH2 0x1A6 JUMPI DUP1 PUSH4 0xE85F2238 EQ PUSH2 0x1CF JUMPI DUP1 PUSH4 0xE8E9D045 EQ PUSH2 0x1F8 JUMPI DUP1 PUSH4 0xF4DF75E5 EQ PUSH2 0x235 JUMPI PUSH2 0x91 JUMP JUMPDEST DUP1 PUSH4 0x478091D9 EQ PUSH2 0x96 JUMPI DUP1 PUSH4 0x5F801C7A EQ PUSH2 0xBF JUMPI DUP1 PUSH4 0x6056FE7E EQ PUSH2 0xEA JUMPI DUP1 PUSH4 0x608C1FB4 EQ PUSH2 0x106 JUMPI DUP1 PUSH4 0x61B32E6E EQ PUSH2 0x143 JUMPI JUMPDEST PUSH1 0x0 DUP1 REVERT JUMPDEST CALLVALUE DUP1 ISZERO PUSH2 0xA2 JUMPI PUSH1 0x0 DUP1 REVERT JUMPDEST POP PUSH2 0xBD PUSH1 0x4 DUP1 CALLDATASIZE SUB PUSH2 0xB8 SWAP2 SWAP1 DUP2 ADD SWAP1 PUSH2 0x1429 JUMP JUMPDEST PUSH2 0x25E JUMP JUMPDEST STOP JUMPDEST CALLVALUE DUP1 ISZERO PUSH2 0xCB JUMPI PUSH1 0x0 DUP1 REVERT JUMPDEST POP PUSH2 0xD4 PUSH2 0x419 JUMP JUMPDEST PUSH1 0x40 MLOAD PUSH2 0xE1 SWAP2 SWAP1 PUSH2 0x1A43 JUMP JUMPDEST PUSH1 0x40 MLOAD DUP1 SWAP2 SUB SWAP1 RETURN JUMPDEST PUSH2 0x104 PUSH1 0x4 DUP1 CALLDATASIZE SUB PUSH2 0xFF SWAP2 SWAP1 DUP2 ADD SWAP1 PUSH2 0x1429 JUMP JUMPDEST PUSH2 0x41F JUMP JUMPDEST STOP JUMPDEST CALLVALUE DUP1 ISZERO PUSH2 0x112 JUMPI PUSH1 0x0 DUP1 REVERT JUMPDEST POP PUSH2 0x12D PUSH1 0x4 DUP1 CALLDATASIZE SUB PUSH2 0x128 SWAP2 SWAP1 DUP2 ADD SWAP1 PUSH2 0x1400 JUMP JUMPDEST PUSH2 0x53E JUMP JUMPDEST PUSH1 0x40 MLOAD PUSH2 0x13A SWAP2 SWAP1 PUSH2 0x1A43 JUMP JUMPDEST PUSH1 0x40 MLOAD DUP1 SWAP2 SUB SWAP1 RETURN JUMPDEST CALLVALUE DUP1 ISZERO PUSH2 0x14F JUMPI PUSH1 0x0 DUP1 REVERT JUMPDEST POP PUSH2 0x16A PUSH1 0x4 DUP1 CALLDATASIZE SUB PUSH2 0x165 SWAP2 SWAP1 DUP2 ADD SWAP1 PUSH2 0x1429 JUMP JUMPDEST PUSH2 0x5DF JUMP JUMPDEST PUSH1 0x40 MLOAD PUSH2 0x181 SWAP12 SWAP11 SWAP10 SWAP9 SWAP8 SWAP7 SWAP6 SWAP5 SWAP4 SWAP3 SWAP2 SWAP1 PUSH2 0x1B08 JUMP JUMPDEST PUSH1 0x40 MLOAD DUP1 SWAP2 SUB SWAP1 RETURN JUMPDEST PUSH2 0x1A4 PUSH1 0x4 DUP1 CALLDATASIZE SUB PUSH2 0x19F SWAP2 SWAP1 DUP2 ADD SWAP1 PUSH2 0x1429 JUMP JUMPDEST PUSH2 0x970 JUMP JUMPDEST STOP JUMPDEST CALLVALUE DUP1 ISZERO PUSH2 0x1B2 JUMPI PUSH1 0x0 DUP1 REVERT JUMPDEST POP PUSH2 0x1CD PUSH1 0x4 DUP1 CALLDATASIZE SUB PUSH2 0x1C8 SWAP2 SWAP1 DUP2 ADD SWAP1 PUSH2 0x14E5 JUMP JUMPDEST PUSH2 0xC5F JUMP JUMPDEST STOP JUMPDEST CALLVALUE DUP1 ISZERO PUSH2 0x1DB JUMPI PUSH1 0x0 DUP1 REVERT JUMPDEST POP PUSH2 0x1F6 PUSH1 0x4 DUP1 CALLDATASIZE SUB PUSH2 0x1F1 SWAP2 SWAP1 DUP2 ADD SWAP1 PUSH2 0x1429 JUMP JUMPDEST PUSH2 0xCCB JUMP JUMPDEST STOP JUMPDEST CALLVALUE DUP1 ISZERO PUSH2 0x204 JUMPI PUSH1 0x0 DUP1 REVERT JUMPDEST POP PUSH2 0x21F PUSH1 0x4 DUP1 CALLDATASIZE SUB PUSH2 0x21A SWAP2 SWAP1 DUP2 ADD SWAP1 PUSH2 0x1429 JUMP JUMPDEST PUSH2 0xE86 JUMP JUMPDEST PUSH1 0x40 MLOAD PUSH2 0x22C SWAP2 SWAP1 PUSH2 0x1968 JUMP JUMPDEST PUSH1 0x40 MLOAD DUP1 SWAP2 SUB SWAP1 RETURN JUMPDEST CALLVALUE DUP1 ISZERO PUSH2 0x241 JUMPI PUSH1 0x0 DUP1 REVERT JUMPDEST POP PUSH2 0x25C PUSH1 0x4 DUP1 CALLDATASIZE SUB PUSH2 0x257 SWAP2 SWAP1 DUP2 ADD SWAP1 PUSH2 0x1452 JUMP JUMPDEST PUSH2 0xEA6 JUMP JUMPDEST STOP JUMPDEST PUSH1 0x0 PUSH1 0x1 PUSH1 0x0 DUP4 DUP2 MSTORE PUSH1 0x20 ADD SWAP1 DUP2 MSTORE PUSH1 0x20 ADD PUSH1 0x0 KECCAK256 SWAP1 POP PUSH1 0x0 DUP2 PUSH1 0x0 ADD SLOAD GT DUP1 ISZERO PUSH2 0x28F JUMPI POP PUSH1 0x0 SLOAD DUP2 PUSH1 0x0 ADD SLOAD GT ISZERO JUMPDEST PUSH2 0x2CE JUMPI PUSH1 0x40 MLOAD PUSH32 0x8C379A000000000000000000000000000000000000000000000000000000000 DUP2 MSTORE PUSH1 0x4 ADD PUSH2 0x2C5 SWAP1 PUSH2 0x19A3 JUMP JUMPDEST PUSH1 0x40 MLOAD DUP1 SWAP2 SUB SWAP1 REVERT JUMPDEST PUSH1 0x0 ISZERO ISZERO DUP2 PUSH1 0xA ADD PUSH1 0x1 SWAP1 SLOAD SWAP1 PUSH2 0x100 EXP SWAP1 DIV PUSH1 0xFF AND ISZERO ISZERO EQ PUSH2 0x326 JUMPI PUSH1 0x40 MLOAD PUSH32 0x8C379A000000000000000000000000000000000000000000000000000000000 DUP2 MSTORE PUSH1 0x4 ADD PUSH2 0x31D SWAP1 PUSH2 0x19C3 JUMP JUMPDEST PUSH1 0x40 MLOAD DUP1 SWAP2 SUB SWAP1 REVERT JUMPDEST PUSH1 0x1 DUP2 PUSH1 0xA ADD PUSH1 0x1 PUSH2 0x100 EXP DUP2 SLOAD DUP2 PUSH1 0xFF MUL NOT AND SWAP1 DUP4 ISZERO ISZERO MUL OR SWAP1 SSTORE POP PUSH32 0x47E996330552FD48115C37B9F17FD038B1D6E41E37AE6500780204AF59F2A3CF DUP3 DUP3 PUSH1 0x1 ADD SLOAD DUP4 PUSH1 0x3 ADD DUP5 PUSH1 0x7 ADD PUSH1 0x0 SWAP1 SLOAD SWAP1 PUSH2 0x100 EXP SWAP1 DIV PUSH1 0xFF AND DUP6 PUSH1 0x8 ADD DUP7 PUSH1 0x9 ADD SLOAD DUP8 PUSH1 0xA ADD PUSH1 0x0 SWAP1 SLOAD SWAP1 PUSH2 0x100 EXP SWAP1 DIV PUSH1 0xFF AND DUP9 PUSH1 0xA ADD PUSH1 0x1 SWAP1 SLOAD SWAP1 PUSH2 0x100 EXP SWAP1 DIV PUSH1 0xFF AND DUP10 PUSH1 0xA ADD PUSH1 0x2 SWAP1 SLOAD SWAP1 PUSH2 0x100 EXP SWAP1 DIV PUSH20 0xFFFFFFFFFFFFFFFFFFFFFFFFFFFFFFFFFFFFFFFF AND DUP11 PUSH1 0xB ADD PUSH1 0x0 SWAP1 SLOAD SWAP1 PUSH2 0x100 EXP SWAP1 DIV PUSH20 0xFFFFFFFFFFFFFFFFFFFFFFFFFFFFFFFFFFFFFFFF AND PUSH1 0x40 MLOAD PUSH2 0x40D SWAP11 SWAP10 SWAP9 SWAP8 SWAP7 SWAP6 SWAP5 SWAP4 SWAP3 SWAP2 SWAP1 PUSH2 0x1A5E JUMP JUMPDEST PUSH1 0x40 MLOAD DUP1 SWAP2 SUB SWAP1 LOG1 POP POP JUMP JUMPDEST PUSH1 0x0 SLOAD DUP2 JUMP JUMPDEST PUSH1 0x0 PUSH1 0x1 PUSH1 0x0 DUP4 DUP2 MSTORE PUSH1 0x20 ADD SWAP1 DUP2 MSTORE PUSH1 0x20 ADD PUSH1 0x0 KECCAK256 SWAP1 POP DUP1 PUSH1 0x7 ADD PUSH1 0x0 SWAP1 SLOAD SWAP1 PUSH2 0x100 EXP SWAP1 DIV PUSH1 0xFF AND ISZERO DUP2 PUSH1 0x7 ADD PUSH1 0x0 PUSH2 0x100 EXP DUP2 SLOAD DUP2 PUSH1 0xFF MUL NOT AND SWAP1 DUP4 ISZERO ISZERO MUL OR SWAP1 SSTORE POP PUSH32 0xA532EB978D4B38A5A6F8A14C5BDF9F39A6F6DA5763E7F112F173BB8613405E2E DUP2 PUSH1 0x0 ADD SLOAD DUP3 PUSH1 0x1 ADD SLOAD DUP4 PUSH1 0x3 ADD DUP5 PUSH1 0x7 ADD PUSH1 0x0 SWAP1 SLOAD SWAP1 PUSH2 0x100 EXP SWAP1 DIV PUSH1 0xFF AND DUP6 PUSH1 0x8 ADD DUP7 PUSH1 0x9 ADD SLOAD DUP8 PUSH1 0xA ADD PUSH1 0x0 SWAP1 SLOAD SWAP1 PUSH2 0x100 EXP SWAP1 DIV PUSH1 0xFF AND DUP9 PUSH1 0xA ADD PUSH1 0x1 SWAP1 SLOAD SWAP1 PUSH2 0x100 EXP SWAP1 DIV PUSH1 0xFF AND DUP10 PUSH1 0xA ADD PUSH1 0x2 SWAP1 SLOAD SWAP1 PUSH2 0x100 EXP SWAP1 DIV PUSH20 0xFFFFFFFFFFFFFFFFFFFFFFFFFFFFFFFFFFFFFFFF AND DUP11 PUSH1 0xB ADD PUSH1 0x0 SWAP1 SLOAD SWAP1 PUSH2 0x100 EXP SWAP1 DIV PUSH20 0xFFFFFFFFFFFFFFFFFFFFFFFFFFFFFFFFFFFFFFFF AND PUSH1 0x40 MLOAD PUSH2 0x532 SWAP11 SWAP10 SWAP9 SWAP8 SWAP7 SWAP6 SWAP5 SWAP4 SWAP3 SWAP2 SWAP1 PUSH2 0x1A5E JUMP JUMPDEST PUSH1 0x40 MLOAD DUP1 SWAP2 SUB SWAP1 LOG1 POP POP JUMP JUMPDEST PUSH1 0x0 DUP1 PUSH1 0x0 SWAP1 POP PUSH1 0x0 PUSH1 0x1 SWAP1 POP JUMPDEST PUSH1 0x0 SLOAD DUP2 GT PUSH2 0x5D5 JUMPI DUP4 PUSH20 0xFFFFFFFFFFFFFFFFFFFFFFFFFFFFFFFFFFFFFFFF AND PUSH1 0x1 PUSH1 0x0 DUP4 DUP2 MSTORE PUSH1 0x20 ADD SWAP1 DUP2 MSTORE PUSH1 0x20 ADD PUSH1 0x0 KECCAK256 PUSH1 0xA ADD PUSH1 0x2 SWAP1 SLOAD SWAP1 PUSH2 0x100 EXP SWAP1 DIV PUSH20 0xFFFFFFFFFFFFFFFFFFFFFFFFFFFFFFFFFFFFFFFF AND PUSH20 0xFFFFFFFFFFFFFFFFFFFFFFFFFFFFFFFFFFFFFFFF AND EQ ISZERO PUSH2 0x5C8 JUMPI DUP2 DUP1 PUSH1 0x1 ADD SWAP3 POP POP JUMPDEST DUP1 DUP1 PUSH1 0x1 ADD SWAP2 POP POP PUSH2 0x54C JUMP JUMPDEST POP DUP1 SWAP2 POP POP SWAP2 SWAP1 POP JUMP JUMPDEST PUSH1 0x0 DUP1 PUSH1 0x0 PUSH2 0x5EC PUSH2 0x1125 JUMP JUMPDEST PUSH1 0x0 PUSH1 0x60 PUSH1 0x0 DUP1 PUSH1 0x0 DUP1 PUSH1 0x0 DUP1 PUSH1 0x1 PUSH1 0x0 DUP15 DUP2 MSTORE PUSH1 0x20 ADD SWAP1 DUP2 MSTORE PUSH1 0x20 ADD PUSH1 0x0 KECCAK256 SWAP1 POP DUP1 PUSH1 0x0 ADD SLOAD DUP2 PUSH1 0x1 ADD SLOAD DUP3 PUSH1 0x2 ADD SLOAD DUP4 PUSH1 0x3 ADD DUP5 PUSH1 0x7 ADD PUSH1 0x0 SWAP1 SLOAD SWAP1 PUSH2 0x100 EXP SWAP1 DIV PUSH1 0xFF AND DUP6 PUSH1 0x8 ADD DUP7 PUSH1 0x9 ADD SLOAD DUP8 PUSH1 0xA ADD PUSH1 0x0 SWAP1 SLOAD SWAP1 PUSH2 0x100 EXP SWAP1 DIV PUSH1 0xFF AND DUP9 PUSH1 0xA ADD PUSH1 0x1 SWAP1 SLOAD SWAP1 PUSH2 0x100 EXP SWAP1 DIV PUSH1 0xFF AND DUP10 PUSH1 0xA ADD PUSH1 0x2 SWAP1 SLOAD SWAP1 PUSH2 0x100 EXP SWAP1 DIV PUSH20 0xFFFFFFFFFFFFFFFFFFFFFFFFFFFFFFFFFFFFFFFF AND DUP11 PUSH1 0xB ADD PUSH1 0x0 SWAP1 SLOAD SWAP1 PUSH2 0x100 EXP SWAP1 DIV PUSH20 0xFFFFFFFFFFFFFFFFFFFFFFFFFFFFFFFFFFFFFFFF AND DUP8 PUSH1 0x40 MLOAD DUP1 PUSH1 0x80 ADD PUSH1 0x40 MSTORE SWAP1 DUP2 PUSH1 0x0 DUP3 ADD DUP1 SLOAD PUSH1 0x1 DUP2 PUSH1 0x1 AND ISZERO PUSH2 0x100 MUL SUB AND PUSH1 0x2 SWAP1 DIV DUP1 PUSH1 0x1F ADD PUSH1 0x20 DUP1 SWAP2 DIV MUL PUSH1 0x20 ADD PUSH1 0x40 MLOAD SWAP1 DUP2 ADD PUSH1 0x40 MSTORE DUP1 SWAP3 SWAP2 SWAP1 DUP2 DUP2 MSTORE PUSH1 0x20 ADD DUP3 DUP1 SLOAD PUSH1 0x1 DUP2 PUSH1 0x1 AND ISZERO PUSH2 0x100 MUL SUB AND PUSH1 0x2 SWAP1 DIV DUP1 ISZERO PUSH2 0x74F JUMPI DUP1 PUSH1 0x1F LT PUSH2 0x724 JUMPI PUSH2 0x100 DUP1 DUP4 SLOAD DIV MUL DUP4 MSTORE SWAP2 PUSH1 0x20 ADD SWAP2 PUSH2 0x74F JUMP JUMPDEST DUP3 ADD SWAP2 SWAP1 PUSH1 0x0 MSTORE PUSH1 0x20 PUSH1 0x0 KECCAK256 SWAP1 JUMPDEST DUP2 SLOAD DUP2 MSTORE SWAP1 PUSH1 0x1 ADD SWAP1 PUSH1 0x20 ADD DUP1 DUP4 GT PUSH2 0x732 JUMPI DUP3 SWAP1 SUB PUSH1 0x1F AND DUP3 ADD SWAP2 JUMPDEST POP POP POP POP POP DUP2 MSTORE PUSH1 0x20 ADD PUSH1 0x1 DUP3 ADD SLOAD DUP2 MSTORE PUSH1 0x20 ADD PUSH1 0x2 DUP3 ADD DUP1 SLOAD PUSH1 0x1 DUP2 PUSH1 0x1 AND ISZERO PUSH2 0x100 MUL SUB AND PUSH1 0x2 SWAP1 DIV DUP1 PUSH1 0x1F ADD PUSH1 0x20 DUP1 SWAP2 DIV MUL PUSH1 0x20 ADD PUSH1 0x40 MLOAD SWAP1 DUP2 ADD PUSH1 0x40 MSTORE DUP1 SWAP3 SWAP2 SWAP1 DUP2 DUP2 MSTORE PUSH1 0x20 ADD DUP3 DUP1 SLOAD PUSH1 0x1 DUP2 PUSH1 0x1 AND ISZERO PUSH2 0x100 MUL SUB AND PUSH1 0x2 SWAP1 DIV DUP1 ISZERO PUSH2 0x7FB JUMPI DUP1 PUSH1 0x1F LT PUSH2 0x7D0 JUMPI PUSH2 0x100 DUP1 DUP4 SLOAD DIV MUL DUP4 MSTORE SWAP2 PUSH1 0x20 ADD SWAP2 PUSH2 0x7FB JUMP JUMPDEST DUP3 ADD SWAP2 SWAP1 PUSH1 0x0 MSTORE PUSH1 0x20 PUSH1 0x0 KECCAK256 SWAP1 JUMPDEST DUP2 SLOAD DUP2 MSTORE SWAP1 PUSH1 0x1 ADD SWAP1 PUSH1 0x20 ADD DUP1 DUP4 GT PUSH2 0x7DE JUMPI DUP3 SWAP1 SUB PUSH1 0x1F AND DUP3 ADD SWAP2 JUMPDEST POP POP POP POP POP DUP2 MSTORE PUSH1 0x20 ADD PUSH1 0x3 DUP3 ADD DUP1 SLOAD PUSH1 0x1 DUP2 PUSH1 0x1 AND ISZERO PUSH2 0x100 MUL SUB AND PUSH1 0x2 SWAP1 DIV DUP1 PUSH1 0x1F ADD PUSH1 0x20 DUP1 SWAP2 DIV MUL PUSH1 0x20 ADD PUSH1 0x40 MLOAD SWAP1 DUP2 ADD PUSH1 0x40 MSTORE DUP1 SWAP3 SWAP2 SWAP1 DUP2 DUP2 MSTORE PUSH1 0x20 ADD DUP3 DUP1 SLOAD PUSH1 0x1 DUP2 PUSH1 0x1 AND ISZERO PUSH2 0x100 MUL SUB AND PUSH1 0x2 SWAP1 DIV DUP1 ISZERO PUSH2 0x89D JUMPI DUP1 PUSH1 0x1F LT PUSH2 0x872 JUMPI PUSH2 0x100 DUP1 DUP4 SLOAD DIV MUL DUP4 MSTORE SWAP2 PUSH1 0x20 ADD SWAP2 PUSH2 0x89D JUMP JUMPDEST DUP3 ADD SWAP2 SWAP1 PUSH1 0x0 MSTORE PUSH1 0x20 PUSH1 0x0 KECCAK256 SWAP1 JUMPDEST DUP2 SLOAD DUP2 MSTORE SWAP1 PUSH1 0x1 ADD SWAP1 PUSH1 0x20 ADD DUP1 DUP4 GT PUSH2 0x880 JUMPI DUP3 SWAP1 SUB PUSH1 0x1F AND DUP3 ADD SWAP2 JUMPDEST POP POP POP POP POP DUP2 MSTORE POP POP SWAP8 POP DUP6 DUP1 SLOAD PUSH1 0x1 DUP2 PUSH1 0x1 AND ISZERO PUSH2 0x100 MUL SUB AND PUSH1 0x2 SWAP1 DIV DUP1 PUSH1 0x1F ADD PUSH1 0x20 DUP1 SWAP2 DIV MUL PUSH1 0x20 ADD PUSH1 0x40 MLOAD SWAP1 DUP2 ADD PUSH1 0x40 MSTORE DUP1 SWAP3 SWAP2 SWAP1 DUP2 DUP2 MSTORE PUSH1 0x20 ADD DUP3 DUP1 SLOAD PUSH1 0x1 DUP2 PUSH1 0x1 AND ISZERO PUSH2 0x100 MUL SUB AND PUSH1 0x2 SWAP1 DIV DUP1 ISZERO PUSH2 0x93D JUMPI DUP1 PUSH1 0x1F LT PUSH2 0x912 JUMPI PUSH2 0x100 DUP1 DUP4 SLOAD DIV MUL DUP4 MSTORE SWAP2 PUSH1 0x20 ADD SWAP2 PUSH2 0x93D JUMP JUMPDEST DUP3 ADD SWAP2 SWAP1 PUSH1 0x0 MSTORE PUSH1 0x20 PUSH1 0x0 KECCAK256 SWAP1 JUMPDEST DUP2 SLOAD DUP2 MSTORE SWAP1 PUSH1 0x1 ADD SWAP1 PUSH1 0x20 ADD DUP1 DUP4 GT PUSH2 0x920 JUMPI DUP3 SWAP1 SUB PUSH1 0x1F AND DUP3 ADD SWAP2 JUMPDEST POP POP POP POP POP SWAP6 POP DUP2 SWAP2 POP DUP1 SWAP1 POP SWAP12 POP SWAP12 POP SWAP12 POP SWAP12 POP SWAP12 POP SWAP12 POP SWAP12 POP SWAP12 POP SWAP12 POP SWAP12 POP SWAP12 POP POP SWAP2 SWAP4 SWAP6 SWAP8 SWAP10 SWAP12 SWAP1 SWAP3 SWAP5 SWAP7 SWAP9 SWAP11 POP JUMP JUMPDEST PUSH1 0x0 PUSH1 0x1 PUSH1 0x0 DUP4 DUP2 MSTORE PUSH1 0x20 ADD SWAP1 DUP2 MSTORE PUSH1 0x20 ADD PUSH1 0x0 KECCAK256 SWAP1 POP PUSH1 0x0 DUP2 PUSH1 0x0 ADD SLOAD GT DUP1 ISZERO PUSH2 0x9A1 JUMPI POP PUSH1 0x0 SLOAD DUP2 PUSH1 0x0 ADD SLOAD GT ISZERO JUMPDEST PUSH2 0x9E0 JUMPI PUSH1 0x40 MLOAD PUSH32 0x8C379A000000000000000000000000000000000000000000000000000000000 DUP2 MSTORE PUSH1 0x4 ADD PUSH2 0x9D7 SWAP1 PUSH2 0x19A3 JUMP JUMPDEST PUSH1 0x40 MLOAD DUP1 SWAP2 SUB SWAP1 REVERT JUMPDEST CALLER PUSH20 0xFFFFFFFFFFFFFFFFFFFFFFFFFFFFFFFFFFFFFFFF AND DUP2 PUSH1 0xA ADD PUSH1 0x2 SWAP1 SLOAD SWAP1 PUSH2 0x100 EXP SWAP1 DIV PUSH20 0xFFFFFFFFFFFFFFFFFFFFFFFFFFFFFFFFFFFFFFFF AND PUSH20 0xFFFFFFFFFFFFFFFFFFFFFFFFFFFFFFFFFFFFFFFF AND EQ ISZERO PUSH2 0xA73 JUMPI PUSH1 0x40 MLOAD PUSH32 0x8C379A000000000000000000000000000000000000000000000000000000000 DUP2 MSTORE PUSH1 0x4 ADD PUSH2 0xA6A SWAP1 PUSH2 0x1983 JUMP JUMPDEST PUSH1 0x40 MLOAD DUP1 SWAP2 SUB SWAP1 REVERT JUMPDEST DUP1 PUSH1 0x9 ADD SLOAD CALLVALUE LT ISZERO PUSH2 0xABA JUMPI PUSH1 0x40 MLOAD PUSH32 0x8C379A000000000000000000000000000000000000000000000000000000000 DUP2 MSTORE PUSH1 0x4 ADD PUSH2 0xAB1 SWAP1 PUSH2 0x19E3 JUMP JUMPDEST PUSH1 0x40 MLOAD DUP1 SWAP2 SUB SWAP1 REVERT JUMPDEST DUP1 PUSH1 0xA ADD PUSH1 0x2 SWAP1 SLOAD SWAP1 PUSH2 0x100 EXP SWAP1 DIV PUSH20 0xFFFFFFFFFFFFFFFFFFFFFFFFFFFFFFFFFFFFFFFF AND PUSH20 0xFFFFFFFFFFFFFFFFFFFFFFFFFFFFFFFFFFFFFFFF AND PUSH2 0x8FC CALLVALUE SWAP1 DUP2 ISZERO MUL SWAP1 PUSH1 0x40 MLOAD PUSH1 0x0 PUSH1 0x40 MLOAD DUP1 DUP4 SUB DUP2 DUP6 DUP9 DUP9 CALL SWAP4 POP POP POP POP ISZERO DUP1 ISZERO PUSH2 0xB24 JUMPI RETURNDATASIZE PUSH1 0x0 DUP1 RETURNDATACOPY RETURNDATASIZE PUSH1 0x0 REVERT JUMPDEST POP CALLER DUP2 PUSH1 0xA ADD PUSH1 0x2 PUSH2 0x100 EXP DUP2 SLOAD DUP2 PUSH20 0xFFFFFFFFFFFFFFFFFFFFFFFFFFFFFFFFFFFFFFFF MUL NOT AND SWAP1 DUP4 PUSH20 0xFFFFFFFFFFFFFFFFFFFFFFFFFFFFFFFFFFFFFFFF AND MUL OR SWAP1 SSTORE POP PUSH1 0x0 DUP2 PUSH1 0x7 ADD PUSH1 0x0 PUSH2 0x100 EXP DUP2 SLOAD DUP2 PUSH1 0xFF MUL NOT AND SWAP1 DUP4 ISZERO ISZERO MUL OR SWAP1 SSTORE POP PUSH32 0x5DA99FD67EDE25FE80E4D7CD209A10DC8E76634B178DB107E61C81D9FD3EAE12 DUP2 PUSH1 0x0 ADD SLOAD DUP3 PUSH1 0x1 ADD SLOAD DUP4 PUSH1 0x3 ADD DUP5 PUSH1 0x7 ADD PUSH1 0x0 SWAP1 SLOAD SWAP1 PUSH2 0x100 EXP SWAP1 DIV PUSH1 0xFF AND DUP6 PUSH1 0x8 ADD DUP7 PUSH1 0x9 ADD SLOAD DUP8 PUSH1 0xA ADD PUSH1 0x0 SWAP1 SLOAD SWAP1 PUSH2 0x100 EXP SWAP1 DIV PUSH1 0xFF AND DUP9 PUSH1 0xA ADD PUSH1 0x1 SWAP1 SLOAD SWAP1 PUSH2 0x100 EXP SWAP1 DIV PUSH1 0xFF AND DUP10 PUSH1 0xA ADD PUSH1 0x2 SWAP1 SLOAD SWAP1 PUSH2 0x100 EXP SWAP1 DIV PUSH20 0xFFFFFFFFFFFFFFFFFFFFFFFFFFFFFFFFFFFFFFFF AND DUP11 PUSH1 0xB ADD PUSH1 0x0 SWAP1 SLOAD SWAP1 PUSH2 0x100 EXP SWAP1 DIV PUSH20 0xFFFFFFFFFFFFFFFFFFFFFFFFFFFFFFFFFFFFFFFF AND PUSH1 0x40 MLOAD PUSH2 0xC53 SWAP11 SWAP10 SWAP9 SWAP8 SWAP7 SWAP6 SWAP5 SWAP4 SWAP3 SWAP2 SWAP1 PUSH2 0x1A5E JUMP JUMPDEST PUSH1 0x40 MLOAD DUP1 SWAP2 SUB SWAP1 LOG1 POP POP JUMP JUMPDEST PUSH1 0x0 PUSH1 0x1 PUSH1 0x0 DUP5 DUP2 MSTORE PUSH1 0x20 ADD SWAP1 DUP2 MSTORE PUSH1 0x20 ADD PUSH1 0x0 KECCAK256 SWAP1 POP PUSH1 0x0 DUP2 PUSH1 0x0 ADD SLOAD GT PUSH2 0xCBD JUMPI PUSH1 0x40 MLOAD PUSH32 0x8C379A000000000000000000000000000000000000000000000000000000000 DUP2 MSTORE PUSH1 0x4 ADD PUSH2 0xCB4 SWAP1 PUSH2 0x1A03 JUMP JUMPDEST PUSH1 0x40 MLOAD DUP1 SWAP2 SUB SWAP1 REVERT JUMPDEST DUP2 DUP2 PUSH1 0x2 ADD DUP2 SWAP1 SSTORE POP POP POP POP JUMP JUMPDEST PUSH1 0x0 PUSH1 0x1 PUSH1 0x0 DUP4 DUP2 MSTORE PUSH1 0x20 ADD SWAP1 DUP2 MSTORE PUSH1 0x20 ADD PUSH1 0x0 KECCAK256 SWAP1 POP PUSH1 0x0 DUP2 PUSH1 0x0 ADD SLOAD GT DUP1 ISZERO PUSH2 0xCFC JUMPI POP PUSH1 0x0 SLOAD DUP2 PUSH1 0x0 ADD SLOAD GT ISZERO JUMPDEST PUSH2 0xD3B JUMPI PUSH1 0x40 MLOAD PUSH32 0x8C379A000000000000000000000000000000000000000000000000000000000 DUP2 MSTORE PUSH1 0x4 ADD PUSH2 0xD32 SWAP1 PUSH2 0x19A3 JUMP JUMPDEST PUSH1 0x40 MLOAD DUP1 SWAP2 SUB SWAP1 REVERT JUMPDEST PUSH1 0x0 ISZERO ISZERO DUP2 PUSH1 0xA ADD PUSH1 0x0 SWAP1 SLOAD SWAP1 PUSH2 0x100 EXP SWAP1 DIV PUSH1 0xFF AND ISZERO ISZERO EQ PUSH2 0xD93 JUMPI PUSH1 0x40 MLOAD PUSH32 0x8C379A000000000000000000000000000000000000000000000000000000000 DUP2 MSTORE PUSH1 0x4 ADD PUSH2 0xD8A SWAP1 PUSH2 0x1A23 JUMP JUMPDEST PUSH1 0x40 MLOAD DUP1 SWAP2 SUB SWAP1 REVERT JUMPDEST PUSH1 0x1 DUP2 PUSH1 0xA ADD PUSH1 0x0 PUSH2 0x100 EXP DUP2 SLOAD DUP2 PUSH1 0xFF MUL NOT AND SWAP1 DUP4 ISZERO ISZERO MUL OR SWAP1 SSTORE POP PUSH32 0x47E996330552FD48115C37B9F17FD038B1D6E41E37AE6500780204AF59F2A3CF DUP3 DUP3 PUSH1 0x1 ADD SLOAD DUP4 PUSH1 0x3 ADD DUP5 PUSH1 0x7 ADD PUSH1 0x0 SWAP1 SLOAD SWAP1 PUSH2 0x100 EXP SWAP1 DIV PUSH1 0xFF AND DUP6 PUSH1 0x8 ADD DUP7 PUSH1 0x9 ADD SLOAD DUP8 PUSH1 0xA ADD PUSH1 0x0 SWAP1 SLOAD SWAP1 PUSH2 0x100 EXP SWAP1 DIV PUSH1 0xFF AND DUP9 PUSH1 0xA ADD PUSH1 0x1 SWAP1 SLOAD SWAP1 PUSH2 0x100 EXP SWAP1 DIV PUSH1 0xFF AND DUP10 PUSH1 0xA ADD PUSH1 0x2 SWAP1 SLOAD SWAP1 PUSH2 0x100 EXP SWAP1 DIV PUSH20 0xFFFFFFFFFFFFFFFFFFFFFFFFFFFFFFFFFFFFFFFF AND DUP11 PUSH1 0xB ADD PUSH1 0x0 SWAP1 SLOAD SWAP1 PUSH2 0x100 EXP SWAP1 DIV PUSH20 0xFFFFFFFFFFFFFFFFFFFFFFFFFFFFFFFFFFFFFFFF AND PUSH1 0x40 MLOAD PUSH2 0xE7A SWAP11 SWAP10 SWAP9 SWAP8 SWAP7 SWAP6 SWAP5 SWAP4 SWAP3 SWAP2 SWAP1 PUSH2 0x1A5E JUMP JUMPDEST PUSH1 0x40 MLOAD DUP1 SWAP2 SUB SWAP1 LOG1 POP POP JUMP JUMPDEST PUSH1 0x3 PUSH1 0x20 MSTORE DUP1 PUSH1 0x0 MSTORE PUSH1 0x40 PUSH1 0x0 KECCAK256 PUSH1 0x0 SWAP2 POP SLOAD SWAP1 PUSH2 0x100 EXP SWAP1 DIV PUSH1 0xFF AND DUP2 JUMP JUMPDEST PUSH1 0x0 DUP1 DUP2 SLOAD DUP1 SWAP3 SWAP2 SWAP1 PUSH1 0x1 ADD SWAP2 SWAP1 POP SSTORE POP PUSH1 0x0 PUSH1 0x1 PUSH1 0x0 DUP7 DUP2 MSTORE PUSH1 0x20 ADD SWAP1 DUP2 MSTORE PUSH1 0x20 ADD PUSH1 0x0 KECCAK256 SWAP1 POP DUP5 DUP2 PUSH1 0x0 ADD DUP2 SWAP1 SSTORE POP DUP5 DUP2 PUSH1 0x1 ADD DUP2 SWAP1 SSTORE POP DUP4 DUP2 PUSH1 0x3 ADD PUSH1 0x0 DUP3 ADD MLOAD DUP2 PUSH1 0x0 ADD SWAP1 DUP1 MLOAD SWAP1 PUSH1 0x20 ADD SWAP1 PUSH2 0xF01 SWAP3 SWAP2 SWAP1 PUSH2 0x114D JUMP JUMPDEST POP PUSH1 0x20 DUP3 ADD MLOAD DUP2 PUSH1 0x1 ADD SSTORE PUSH1 0x40 DUP3 ADD MLOAD DUP2 PUSH1 0x2 ADD SWAP1 DUP1 MLOAD SWAP1 PUSH1 0x20 ADD SWAP1 PUSH2 0xF28 SWAP3 SWAP2 SWAP1 PUSH2 0x114D JUMP JUMPDEST POP PUSH1 0x60 DUP3 ADD MLOAD DUP2 PUSH1 0x3 ADD SWAP1 DUP1 MLOAD SWAP1 PUSH1 0x20 ADD SWAP1 PUSH2 0xF45 SWAP3 SWAP2 SWAP1 PUSH2 0x114D JUMP JUMPDEST POP SWAP1 POP POP PUSH1 0x0 DUP2 PUSH1 0x7 ADD PUSH1 0x0 PUSH2 0x100 EXP DUP2 SLOAD DUP2 PUSH1 0xFF MUL NOT AND SWAP1 DUP4 ISZERO ISZERO MUL OR SWAP1 SSTORE POP DUP3 DUP2 PUSH1 0x8 ADD SWAP1 DUP1 MLOAD SWAP1 PUSH1 0x20 ADD SWAP1 PUSH2 0xF7E SWAP3 SWAP2 SWAP1 PUSH2 0x11CD JUMP JUMPDEST POP DUP2 DUP2 PUSH1 0x9 ADD DUP2 SWAP1 SSTORE POP PUSH1 0x0 DUP2 PUSH1 0xA ADD PUSH1 0x0 PUSH2 0x100 EXP DUP2 SLOAD DUP2 PUSH1 0xFF MUL NOT AND SWAP1 DUP4 ISZERO ISZERO MUL OR SWAP1 SSTORE POP PUSH1 0x0 DUP2 PUSH1 0xA ADD PUSH1 0x1 PUSH2 0x100 EXP DUP2 SLOAD DUP2 PUSH1 0xFF MUL NOT AND SWAP1 DUP4 ISZERO ISZERO MUL OR SWAP1 SSTORE POP CALLER DUP2 PUSH1 0xA ADD PUSH1 0x2 PUSH2 0x100 EXP DUP2 SLOAD DUP2 PUSH20 0xFFFFFFFFFFFFFFFFFFFFFFFFFFFFFFFFFFFFFFFF MUL NOT AND SWAP1 DUP4 PUSH20 0xFFFFFFFFFFFFFFFFFFFFFFFFFFFFFFFFFFFFFFFF AND MUL OR SWAP1 SSTORE POP CALLER DUP2 PUSH1 0xB ADD PUSH1 0x0 PUSH2 0x100 EXP DUP2 SLOAD DUP2 PUSH20 0xFFFFFFFFFFFFFFFFFFFFFFFFFFFFFFFFFFFFFFFF MUL NOT AND SWAP1 DUP4 PUSH20 0xFFFFFFFFFFFFFFFFFFFFFFFFFFFFFFFFFFFFFFFF AND MUL OR SWAP1 SSTORE POP PUSH32 0x3AD65D9518C085627DBCA61FD4A2E636F4534A985148D2C7D7B7F119AEE3F7E2 DUP2 PUSH1 0x0 ADD SLOAD DUP3 PUSH1 0x1 ADD SLOAD DUP4 PUSH1 0x3 ADD DUP5 PUSH1 0x7 ADD PUSH1 0x0 SWAP1 SLOAD SWAP1 PUSH2 0x100 EXP SWAP1 DIV PUSH1 0xFF AND DUP6 PUSH1 0x8 ADD DUP7 PUSH1 0x9 ADD SLOAD DUP8 PUSH1 0xA ADD PUSH1 0x0 SWAP1 SLOAD SWAP1 PUSH2 0x100 EXP SWAP1 DIV PUSH1 0xFF AND DUP9 PUSH1 0xA ADD PUSH1 0x1 SWAP1 SLOAD SWAP1 PUSH2 0x100 EXP SWAP1 DIV PUSH1 0xFF AND DUP10 PUSH1 0xA ADD PUSH1 0x2 SWAP1 SLOAD SWAP1 PUSH2 0x100 EXP SWAP1 DIV PUSH20 0xFFFFFFFFFFFFFFFFFFFFFFFFFFFFFFFFFFFFFFFF AND DUP11 PUSH1 0xB ADD PUSH1 0x0 SWAP1 SLOAD SWAP1 PUSH2 0x100 EXP SWAP1 DIV PUSH20 0xFFFFFFFFFFFFFFFFFFFFFFFFFFFFFFFFFFFFFFFF AND PUSH1 0x40 MLOAD PUSH2 0x1116 SWAP11 SWAP10 SWAP9 SWAP8 SWAP7 SWAP6 SWAP5 SWAP4 SWAP3 SWAP2 SWAP1 PUSH2 0x1A5E JUMP JUMPDEST PUSH1 0x40 MLOAD DUP1 SWAP2 SUB SWAP1 LOG1 POP POP POP POP POP JUMP JUMPDEST PUSH1 0x40 MLOAD DUP1 PUSH1 0x80 ADD PUSH1 0x40 MSTORE DUP1 PUSH1 0x60 DUP2 MSTORE PUSH1 0x20 ADD PUSH1 0x0 DUP2 MSTORE PUSH1 0x20 ADD PUSH1 0x60 DUP2 MSTORE PUSH1 0x20 ADD PUSH1 0x60 DUP2 MSTORE POP SWAP1 JUMP JUMPDEST DUP3 DUP1 SLOAD PUSH1 0x1 DUP2 PUSH1 0x1 AND ISZERO PUSH2 0x100 MUL SUB AND PUSH1 0x2 SWAP1 DIV SWAP1 PUSH1 0x0 MSTORE PUSH1 0x20 PUSH1 0x0 KECCAK256 SWAP1 PUSH1 0x1F ADD PUSH1 0x20 SWAP1 DIV DUP2 ADD SWAP3 DUP3 PUSH1 0x1F LT PUSH2 0x118E JUMPI DUP1 MLOAD PUSH1 0xFF NOT AND DUP4 DUP1 ADD OR DUP6 SSTORE PUSH2 0x11BC JUMP JUMPDEST DUP3 DUP1 ADD PUSH1 0x1 ADD DUP6 SSTORE DUP3 ISZERO PUSH2 0x11BC JUMPI SWAP2 DUP3 ADD JUMPDEST DUP3 DUP2 GT ISZERO PUSH2 0x11BB JUMPI DUP3 MLOAD DUP3 SSTORE SWAP2 PUSH1 0x20 ADD SWAP2 SWAP1 PUSH1 0x1 ADD SWAP1 PUSH2 0x11A0 JUMP JUMPDEST JUMPDEST POP SWAP1 POP PUSH2 0x11C9 SWAP2 SWAP1 PUSH2 0x124D JUMP JUMPDEST POP SWAP1 JUMP JUMPDEST DUP3 DUP1 SLOAD PUSH1 0x1 DUP2 PUSH1 0x1 AND ISZERO PUSH2 0x100 MUL SUB AND PUSH1 0x2 SWAP1 DIV SWAP1 PUSH1 0x0 MSTORE PUSH1 0x20 PUSH1 0x0 KECCAK256 SWAP1 PUSH1 0x1F ADD PUSH1 0x20 SWAP1 DIV DUP2 ADD SWAP3 DUP3 PUSH1 0x1F LT PUSH2 0x120E JUMPI DUP1 MLOAD PUSH1 0xFF NOT AND DUP4 DUP1 ADD OR DUP6 SSTORE PUSH2 0x123C JUMP JUMPDEST DUP3 DUP1 ADD PUSH1 0x1 ADD DUP6 SSTORE DUP3 ISZERO PUSH2 0x123C JUMPI SWAP2 DUP3 ADD JUMPDEST DUP3 DUP2 GT ISZERO PUSH2 0x123B JUMPI DUP3 MLOAD DUP3 SSTORE SWAP2 PUSH1 0x20 ADD SWAP2 SWAP1 PUSH1 0x1 ADD SWAP1 PUSH2 0x1220 JUMP JUMPDEST JUMPDEST POP SWAP1 POP PUSH2 0x1249 SWAP2 SWAP1 PUSH2 0x124D JUMP JUMPDEST POP SWAP1 JUMP JUMPDEST PUSH2 0x126F SWAP2 SWAP1 JUMPDEST DUP1 DUP3 GT ISZERO PUSH2 0x126B JUMPI PUSH1 0x0 DUP2 PUSH1 0x0 SWAP1 SSTORE POP PUSH1 0x1 ADD PUSH2 0x1253 JUMP JUMPDEST POP SWAP1 JUMP JUMPDEST SWAP1 JUMP JUMPDEST PUSH1 0x0 DUP2 CALLDATALOAD SWAP1 POP PUSH2 0x1281 DUP2 PUSH2 0x1D71 JUMP JUMPDEST SWAP3 SWAP2 POP POP JUMP JUMPDEST PUSH1 0x0 DUP3 PUSH1 0x1F DUP4 ADD SLT PUSH2 0x1298 JUMPI PUSH1 0x0 DUP1 REVERT JUMPDEST DUP2 CALLDATALOAD PUSH2 0x12AB PUSH2 0x12A6 DUP3 PUSH2 0x1BEE JUMP JUMPDEST PUSH2 0x1BC1 JUMP JUMPDEST SWAP2 POP DUP1 DUP3 MSTORE PUSH1 0x20 DUP4 ADD PUSH1 0x20 DUP4 ADD DUP6 DUP4 DUP4 ADD GT ISZERO PUSH2 0x12C7 JUMPI PUSH1 0x0 DUP1 REVERT JUMPDEST PUSH2 0x12D2 DUP4 DUP3 DUP5 PUSH2 0x1CF7 JUMP JUMPDEST POP POP POP SWAP3 SWAP2 POP POP JUMP JUMPDEST PUSH1 0x0 DUP3 PUSH1 0x1F DUP4 ADD SLT PUSH2 0x12EC JUMPI PUSH1 0x0 DUP1 REVERT JUMPDEST DUP2 CALLDATALOAD PUSH2 0x12FF PUSH2 0x12FA DUP3 PUSH2 0x1C1A JUMP JUMPDEST PUSH2 0x1BC1 JUMP JUMPDEST SWAP2 POP DUP1 DUP3 MSTORE PUSH1 0x20 DUP4 ADD PUSH1 0x20 DUP4 ADD DUP6 DUP4 DUP4 ADD GT ISZERO PUSH2 0x131B JUMPI PUSH1 0x0 DUP1 REVERT JUMPDEST PUSH2 0x1326 DUP4 DUP3 DUP5 PUSH2 0x1CF7 JUMP JUMPDEST POP POP POP SWAP3 SWAP2 POP POP JUMP JUMPDEST PUSH1 0x0 PUSH1 0x80 DUP3 DUP5 SUB SLT ISZERO PUSH2 0x1341 JUMPI PUSH1 0x0 DUP1 REVERT JUMPDEST PUSH2 0x134B PUSH1 0x80 PUSH2 0x1BC1 JUMP JUMPDEST SWAP1 POP PUSH1 0x0 DUP3 ADD CALLDATALOAD PUSH8 0xFFFFFFFFFFFFFFFF DUP2 GT ISZERO PUSH2 0x1367 JUMPI PUSH1 0x0 DUP1 REVERT JUMPDEST PUSH2 0x1373 DUP5 DUP3 DUP6 ADD PUSH2 0x1287 JUMP JUMPDEST PUSH1 0x0 DUP4 ADD MSTORE POP PUSH1 0x20 PUSH2 0x1387 DUP5 DUP3 DUP6 ADD PUSH2 0x13EB JUMP JUMPDEST PUSH1 0x20 DUP4 ADD MSTORE POP PUSH1 0x40 DUP3 ADD CALLDATALOAD PUSH8 0xFFFFFFFFFFFFFFFF DUP2 GT ISZERO PUSH2 0x13A7 JUMPI PUSH1 0x0 DUP1 REVERT JUMPDEST PUSH2 0x13B3 DUP5 DUP3 DUP6 ADD PUSH2 0x1287 JUMP JUMPDEST PUSH1 0x40 DUP4 ADD MSTORE POP PUSH1 0x60 DUP3 ADD CALLDATALOAD PUSH8 0xFFFFFFFFFFFFFFFF DUP2 GT ISZERO PUSH2 0x13D3 JUMPI PUSH1 0x0 DUP1 REVERT JUMPDEST PUSH2 0x13DF DUP5 DUP3 DUP6 ADD PUSH2 0x1287 JUMP JUMPDEST PUSH1 0x60 DUP4 ADD MSTORE POP SWAP3 SWAP2 POP POP JUMP JUMPDEST PUSH1 0x0 DUP2 CALLDATALOAD SWAP1 POP PUSH2 0x13FA DUP2 PUSH2 0x1D88 JUMP JUMPDEST SWAP3 SWAP2 POP POP JUMP JUMPDEST PUSH1 0x0 PUSH1 0x20 DUP3 DUP5 SUB SLT ISZERO PUSH2 0x1412 JUMPI PUSH1 0x0 DUP1 REVERT JUMPDEST PUSH1 0x0 PUSH2 0x1420 DUP5 DUP3 DUP6 ADD PUSH2 0x1272 JUMP JUMPDEST SWAP2 POP POP SWAP3 SWAP2 POP POP JUMP JUMPDEST PUSH1 0x0 PUSH1 0x20 DUP3 DUP5 SUB SLT ISZERO PUSH2 0x143B JUMPI PUSH1 0x0 DUP1 REVERT JUMPDEST PUSH1 0x0 PUSH2 0x1449 DUP5 DUP3 DUP6 ADD PUSH2 0x13EB JUMP JUMPDEST SWAP2 POP POP SWAP3 SWAP2 POP POP JUMP JUMPDEST PUSH1 0x0 DUP1 PUSH1 0x0 DUP1 PUSH1 0x80 DUP6 DUP8 SUB SLT ISZERO PUSH2 0x1468 JUMPI PUSH1 0x0 DUP1 REVERT JUMPDEST PUSH1 0x0 PUSH2 0x1476 DUP8 DUP3 DUP9 ADD PUSH2 0x13EB JUMP JUMPDEST SWAP5 POP POP PUSH1 0x20 DUP6 ADD CALLDATALOAD PUSH8 0xFFFFFFFFFFFFFFFF DUP2 GT ISZERO PUSH2 0x1493 JUMPI PUSH1 0x0 DUP1 REVERT JUMPDEST PUSH2 0x149F DUP8 DUP3 DUP9 ADD PUSH2 0x132F JUMP JUMPDEST SWAP4 POP POP PUSH1 0x40 DUP6 ADD CALLDATALOAD PUSH8 0xFFFFFFFFFFFFFFFF DUP2 GT ISZERO PUSH2 0x14BC JUMPI PUSH1 0x0 DUP1 REVERT JUMPDEST PUSH2 0x14C8 DUP8 DUP3 DUP9 ADD PUSH2 0x12DB JUMP JUMPDEST SWAP3 POP POP PUSH1 0x60 PUSH2 0x14D9 DUP8 DUP3 DUP9 ADD PUSH2 0x13EB JUMP JUMPDEST SWAP2 POP POP SWAP3 SWAP6 SWAP2 SWAP5 POP SWAP3 POP JUMP JUMPDEST PUSH1 0x0 DUP1 PUSH1 0x40 DUP4 DUP6 SUB SLT ISZERO PUSH2 0x14F8 JUMPI PUSH1 0x0 DUP1 REVERT JUMPDEST PUSH1 0x0 PUSH2 0x1506 DUP6 DUP3 DUP7 ADD PUSH2 0x13EB JUMP JUMPDEST SWAP3 POP POP PUSH1 0x20 PUSH2 0x1517 DUP6 DUP3 DUP7 ADD PUSH2 0x13EB JUMP JUMPDEST SWAP2 POP POP SWAP3 POP SWAP3 SWAP1 POP JUMP JUMPDEST PUSH2 0x152A DUP2 PUSH2 0x1CAF JUMP JUMPDEST DUP3 MSTORE POP POP JUMP JUMPDEST PUSH2 0x1539 DUP2 PUSH2 0x1C9D JUMP JUMPDEST DUP3 MSTORE POP POP JUMP JUMPDEST PUSH2 0x1548 DUP2 PUSH2 0x1CC1 JUMP JUMPDEST DUP3 MSTORE POP POP JUMP JUMPDEST PUSH1 0x0 PUSH2 0x1559 DUP3 PUSH2 0x1C66 JUMP JUMPDEST PUSH2 0x1563 DUP2 DUP6 PUSH2 0x1C82 JUMP JUMPDEST SWAP4 POP PUSH2 0x1573 DUP2 DUP6 PUSH1 0x20 DUP7 ADD PUSH2 0x1D06 JUMP JUMPDEST PUSH2 0x157C DUP2 PUSH2 0x1D53 JUMP JUMPDEST DUP5 ADD SWAP2 POP POP SWAP3 SWAP2 POP POP JUMP JUMPDEST PUSH1 0x0 PUSH2 0x1592 DUP3 PUSH2 0x1C5B JUMP JUMPDEST PUSH2 0x159C DUP2 DUP6 PUSH2 0x1C71 JUMP JUMPDEST SWAP4 POP PUSH2 0x15AC DUP2 DUP6 PUSH1 0x20 DUP7 ADD PUSH2 0x1D06 JUMP JUMPDEST PUSH2 0x15B5 DUP2 PUSH2 0x1D53 JUMP JUMPDEST DUP5 ADD SWAP2 POP POP SWAP3 SWAP2 POP POP JUMP JUMPDEST PUSH1 0x0 DUP2 SLOAD PUSH1 0x1 DUP2 AND PUSH1 0x0 DUP2 EQ PUSH2 0x15DD JUMPI PUSH1 0x1 DUP2 EQ PUSH2 0x1603 JUMPI PUSH2 0x1647 JUMP JUMPDEST PUSH1 0x7F PUSH1 0x2 DUP4 DIV AND PUSH2 0x15EE DUP2 DUP8 PUSH2 0x1C71 JUMP JUMPDEST SWAP6 POP PUSH1 0xFF NOT DUP4 AND DUP7 MSTORE PUSH1 0x20 DUP7 ADD SWAP4 POP POP PUSH2 0x1647 JUMP JUMPDEST PUSH1 0x2 DUP3 DIV PUSH2 0x1611 DUP2 DUP8 PUSH2 0x1C71 JUMP JUMPDEST SWAP6 POP PUSH2 0x161C DUP6 PUSH2 0x1C46 JUMP JUMPDEST PUSH1 0x0 JUMPDEST DUP3 DUP2 LT ISZERO PUSH2 0x163E JUMPI DUP2 SLOAD DUP2 DUP10 ADD MSTORE PUSH1 0x1 DUP3 ADD SWAP2 POP PUSH1 0x20 DUP2 ADD SWAP1 POP PUSH2 0x161F JUMP JUMPDEST DUP1 DUP9 ADD SWAP6 POP POP POP POP JUMPDEST POP POP SWAP3 SWAP2 POP POP JUMP JUMPDEST PUSH1 0x0 DUP2 SLOAD PUSH1 0x1 DUP2 AND PUSH1 0x0 DUP2 EQ PUSH2 0x166C JUMPI PUSH1 0x1 DUP2 EQ PUSH2 0x1692 JUMPI PUSH2 0x16D6 JUMP JUMPDEST PUSH1 0x7F PUSH1 0x2 DUP4 DIV AND PUSH2 0x167D DUP2 DUP8 PUSH2 0x1C82 JUMP JUMPDEST SWAP6 POP PUSH1 0xFF NOT DUP4 AND DUP7 MSTORE PUSH1 0x20 DUP7 ADD SWAP4 POP POP PUSH2 0x16D6 JUMP JUMPDEST PUSH1 0x2 DUP3 DIV PUSH2 0x16A0 DUP2 DUP8 PUSH2 0x1C82 JUMP JUMPDEST SWAP6 POP PUSH2 0x16AB DUP6 PUSH2 0x1C46 JUMP JUMPDEST PUSH1 0x0 JUMPDEST DUP3 DUP2 LT ISZERO PUSH2 0x16CD JUMPI DUP2 SLOAD DUP2 DUP10 ADD MSTORE PUSH1 0x1 DUP3 ADD SWAP2 POP PUSH1 0x20 DUP2 ADD SWAP1 POP PUSH2 0x16AE JUMP JUMPDEST DUP1 DUP9 ADD SWAP6 POP POP POP POP JUMPDEST POP POP SWAP3 SWAP2 POP POP JUMP JUMPDEST PUSH1 0x0 PUSH2 0x16EB PUSH1 0x18 DUP4 PUSH2 0x1C82 JUMP JUMPDEST SWAP2 POP PUSH32 0x596F7520616C7265616479206F776E20746869732067656D0000000000000000 PUSH1 0x0 DUP4 ADD MSTORE PUSH1 0x20 DUP3 ADD SWAP1 POP SWAP2 SWAP1 POP JUMP JUMPDEST PUSH1 0x0 PUSH2 0x172B PUSH1 0xE DUP4 PUSH2 0x1C82 JUMP JUMPDEST SWAP2 POP PUSH32 0x496E76616C69642067656D204944000000000000000000000000000000000000 PUSH1 0x0 DUP4 ADD MSTORE PUSH1 0x20 DUP3 ADD SWAP1 POP SWAP2 SWAP1 POP JUMP JUMPDEST PUSH1 0x0 PUSH2 0x176B PUSH1 0x14 DUP4 PUSH2 0x1C82 JUMP JUMPDEST SWAP2 POP PUSH32 0x47656D20616C7265616479207265706C61636564000000000000000000000000 PUSH1 0x0 DUP4 ADD MSTORE PUSH1 0x20 DUP3 ADD SWAP1 POP SWAP2 SWAP1 POP JUMP JUMPDEST PUSH1 0x0 PUSH2 0x17AB PUSH1 0x12 DUP4 PUSH2 0x1C82 JUMP JUMPDEST SWAP2 POP PUSH32 0x496E73756666696369656E742066756E64730000000000000000000000000000 PUSH1 0x0 DUP4 ADD MSTORE PUSH1 0x20 DUP3 ADD SWAP1 POP SWAP2 SWAP1 POP JUMP JUMPDEST PUSH1 0x0 PUSH2 0x17EB PUSH1 0x13 DUP4 PUSH2 0x1C82 JUMP JUMPDEST SWAP2 POP PUSH32 0x47656D20646F6573206E6F742065786973742E00000000000000000000000000 PUSH1 0x0 DUP4 ADD MSTORE PUSH1 0x20 DUP3 ADD SWAP1 POP SWAP2 SWAP1 POP JUMP JUMPDEST PUSH1 0x0 PUSH2 0x182B PUSH1 0x10 DUP4 PUSH2 0x1C82 JUMP JUMPDEST SWAP2 POP PUSH32 0x47656D20616C7265616479207573656400000000000000000000000000000000 PUSH1 0x0 DUP4 ADD MSTORE PUSH1 0x20 DUP3 ADD SWAP1 POP SWAP2 SWAP1 POP JUMP JUMPDEST PUSH1 0x0 PUSH1 0x80 DUP4 ADD PUSH1 0x0 DUP4 ADD MLOAD DUP5 DUP3 SUB PUSH1 0x0 DUP7 ADD MSTORE PUSH2 0x187B DUP3 DUP3 PUSH2 0x1587 JUMP JUMPDEST SWAP2 POP POP PUSH1 0x20 DUP4 ADD MLOAD PUSH2 0x1890 PUSH1 0x20 DUP7 ADD DUP3 PUSH2 0x194A JUMP JUMPDEST POP PUSH1 0x40 DUP4 ADD MLOAD DUP5 DUP3 SUB PUSH1 0x40 DUP7 ADD MSTORE PUSH2 0x18A8 DUP3 DUP3 PUSH2 0x1587 JUMP JUMPDEST SWAP2 POP POP PUSH1 0x60 DUP4 ADD MLOAD DUP5 DUP3 SUB PUSH1 0x60 DUP7 ADD MSTORE PUSH2 0x18C2 DUP3 DUP3 PUSH2 0x1587 JUMP JUMPDEST SWAP2 POP POP DUP1 SWAP2 POP POP SWAP3 SWAP2 POP POP JUMP JUMPDEST PUSH1 0x0 PUSH1 0x80 DUP4 ADD PUSH1 0x0 DUP1 DUP5 ADD DUP6 DUP4 SUB PUSH1 0x0 DUP8 ADD MSTORE PUSH2 0x18EC DUP4 DUP3 PUSH2 0x15C0 JUMP JUMPDEST SWAP3 POP POP PUSH1 0x1 DUP5 ADD SLOAD SWAP1 POP PUSH2 0x18FF DUP2 PUSH2 0x1D39 JUMP JUMPDEST PUSH2 0x190C PUSH1 0x20 DUP8 ADD DUP3 PUSH2 0x194A JUMP JUMPDEST POP PUSH1 0x2 DUP5 ADD DUP6 DUP4 SUB PUSH1 0x40 DUP8 ADD MSTORE PUSH2 0x1923 DUP4 DUP3 PUSH2 0x15C0 JUMP JUMPDEST SWAP3 POP POP PUSH1 0x3 DUP5 ADD DUP6 DUP4 SUB PUSH1 0x60 DUP8 ADD MSTORE PUSH2 0x193C DUP4 DUP3 PUSH2 0x15C0 JUMP JUMPDEST SWAP3 POP POP DUP2 SWAP3 POP POP POP SWAP3 SWAP2 POP POP JUMP JUMPDEST PUSH2 0x1953 DUP2 PUSH2 0x1CED JUMP JUMPDEST DUP3 MSTORE POP POP JUMP JUMPDEST PUSH2 0x1962 DUP2 PUSH2 0x1CED JUMP JUMPDEST DUP3 MSTORE POP POP JUMP JUMPDEST PUSH1 0x0 PUSH1 0x20 DUP3 ADD SWAP1 POP PUSH2 0x197D PUSH1 0x0 DUP4 ADD DUP5 PUSH2 0x153F JUMP JUMPDEST SWAP3 SWAP2 POP POP JUMP JUMPDEST PUSH1 0x0 PUSH1 0x20 DUP3 ADD SWAP1 POP DUP2 DUP2 SUB PUSH1 0x0 DUP4 ADD MSTORE PUSH2 0x199C DUP2 PUSH2 0x16DE JUMP JUMPDEST SWAP1 POP SWAP2 SWAP1 POP JUMP JUMPDEST PUSH1 0x0 PUSH1 0x20 DUP3 ADD SWAP1 POP DUP2 DUP2 SUB PUSH1 0x0 DUP4 ADD MSTORE PUSH2 0x19BC DUP2 PUSH2 0x171E JUMP JUMPDEST SWAP1 POP SWAP2 SWAP1 POP JUMP JUMPDEST PUSH1 0x0 PUSH1 0x20 DUP3 ADD SWAP1 POP DUP2 DUP2 SUB PUSH1 0x0 DUP4 ADD MSTORE PUSH2 0x19DC DUP2 PUSH2 0x175E JUMP JUMPDEST SWAP1 POP SWAP2 SWAP1 POP JUMP JUMPDEST PUSH1 0x0 PUSH1 0x20 DUP3 ADD SWAP1 POP DUP2 DUP2 SUB PUSH1 0x0 DUP4 ADD MSTORE PUSH2 0x19FC DUP2 PUSH2 0x179E JUMP JUMPDEST SWAP1 POP SWAP2 SWAP1 POP JUMP JUMPDEST PUSH1 0x0 PUSH1 0x20 DUP3 ADD SWAP1 POP DUP2 DUP2 SUB PUSH1 0x0 DUP4 ADD MSTORE PUSH2 0x1A1C DUP2 PUSH2 0x17DE JUMP JUMPDEST SWAP1 POP SWAP2 SWAP1 POP JUMP JUMPDEST PUSH1 0x0 PUSH1 0x20 DUP3 ADD SWAP1 POP DUP2 DUP2 SUB PUSH1 0x0 DUP4 ADD MSTORE PUSH2 0x1A3C DUP2 PUSH2 0x181E JUMP JUMPDEST SWAP1 POP SWAP2 SWAP1 POP JUMP JUMPDEST PUSH1 0x0 PUSH1 0x20 DUP3 ADD SWAP1 POP PUSH2 0x1A58 PUSH1 0x0 DUP4 ADD DUP5 PUSH2 0x1959 JUMP JUMPDEST SWAP3 SWAP2 POP POP JUMP JUMPDEST PUSH1 0x0 PUSH2 0x140 DUP3 ADD SWAP1 POP PUSH2 0x1A74 PUSH1 0x0 DUP4 ADD DUP14 PUSH2 0x1959 JUMP JUMPDEST PUSH2 0x1A81 PUSH1 0x20 DUP4 ADD DUP13 PUSH2 0x1959 JUMP JUMPDEST DUP2 DUP2 SUB PUSH1 0x40 DUP4 ADD MSTORE PUSH2 0x1A93 DUP2 DUP12 PUSH2 0x18CF JUMP JUMPDEST SWAP1 POP PUSH2 0x1AA2 PUSH1 0x60 DUP4 ADD DUP11 PUSH2 0x153F JUMP JUMPDEST DUP2 DUP2 SUB PUSH1 0x80 DUP4 ADD MSTORE PUSH2 0x1AB4 DUP2 DUP10 PUSH2 0x164F JUMP JUMPDEST SWAP1 POP PUSH2 0x1AC3 PUSH1 0xA0 DUP4 ADD DUP9 PUSH2 0x1959 JUMP JUMPDEST PUSH2 0x1AD0 PUSH1 0xC0 DUP4 ADD DUP8 PUSH2 0x153F JUMP JUMPDEST PUSH2 0x1ADD PUSH1 0xE0 DUP4 ADD DUP7 PUSH2 0x153F JUMP JUMPDEST PUSH2 0x1AEB PUSH2 0x100 DUP4 ADD DUP6 PUSH2 0x1521 JUMP JUMPDEST PUSH2 0x1AF9 PUSH2 0x120 DUP4 ADD DUP5 PUSH2 0x1521 JUMP JUMPDEST SWAP12 SWAP11 POP POP POP POP POP POP POP POP POP POP POP JUMP JUMPDEST PUSH1 0x0 PUSH2 0x160 DUP3 ADD SWAP1 POP PUSH2 0x1B1E PUSH1 0x0 DUP4 ADD DUP15 PUSH2 0x1959 JUMP JUMPDEST PUSH2 0x1B2B PUSH1 0x20 DUP4 ADD DUP14 PUSH2 0x1959 JUMP JUMPDEST PUSH2 0x1B38 PUSH1 0x40 DUP4 ADD DUP13 PUSH2 0x1959 JUMP JUMPDEST DUP2 DUP2 SUB PUSH1 0x60 DUP4 ADD MSTORE PUSH2 0x1B4A DUP2 DUP12 PUSH2 0x185E JUMP JUMPDEST SWAP1 POP PUSH2 0x1B59 PUSH1 0x80 DUP4 ADD DUP11 PUSH2 0x153F JUMP JUMPDEST DUP2 DUP2 SUB PUSH1 0xA0 DUP4 ADD MSTORE PUSH2 0x1B6B DUP2 DUP10 PUSH2 0x154E JUMP JUMPDEST SWAP1 POP PUSH2 0x1B7A PUSH1 0xC0 DUP4 ADD DUP9 PUSH2 0x1959 JUMP JUMPDEST PUSH2 0x1B87 PUSH1 0xE0 DUP4 ADD DUP8 PUSH2 0x153F JUMP JUMPDEST PUSH2 0x1B95 PUSH2 0x100 DUP4 ADD DUP7 PUSH2 0x153F JUMP JUMPDEST PUSH2 0x1BA3 PUSH2 0x120 DUP4 ADD DUP6 PUSH2 0x1530 JUMP JUMPDEST PUSH2 0x1BB1 PUSH2 0x140 DUP4 ADD DUP5 PUSH2 0x1530 JUMP JUMPDEST SWAP13 SWAP12 POP POP POP POP POP POP POP POP POP POP POP POP JUMP JUMPDEST PUSH1 0x0 PUSH1 0x40 MLOAD SWAP1 POP DUP2 DUP2 ADD DUP2 DUP2 LT PUSH8 0xFFFFFFFFFFFFFFFF DUP3 GT OR ISZERO PUSH2 0x1BE4 JUMPI PUSH1 0x0 DUP1 REVERT JUMPDEST DUP1 PUSH1 0x40 MSTORE POP SWAP2 SWAP1 POP JUMP JUMPDEST PUSH1 0x0 PUSH8 0xFFFFFFFFFFFFFFFF DUP3 GT ISZERO PUSH2 0x1C05 JUMPI PUSH1 0x0 DUP1 REVERT JUMPDEST PUSH1 0x1F NOT PUSH1 0x1F DUP4 ADD AND SWAP1 POP PUSH1 0x20 DUP2 ADD SWAP1 POP SWAP2 SWAP1 POP JUMP JUMPDEST PUSH1 0x0 PUSH8 0xFFFFFFFFFFFFFFFF DUP3 GT ISZERO PUSH2 0x1C31 JUMPI PUSH1 0x0 DUP1 REVERT JUMPDEST PUSH1 0x1F NOT PUSH1 0x1F DUP4 ADD AND SWAP1 POP PUSH1 0x20 DUP2 ADD SWAP1 POP SWAP2 SWAP1 POP JUMP JUMPDEST PUSH1 0x0 DUP2 SWAP1 POP DUP2 PUSH1 0x0 MSTORE PUSH1 0x20 PUSH1 0x0 KECCAK256 SWAP1 POP SWAP2 SWAP1 POP JUMP JUMPDEST PUSH1 0x0 DUP2 MLOAD SWAP1 POP SWAP2 SWAP1 POP JUMP JUMPDEST PUSH1 0x0 DUP2 MLOAD SWAP1 POP SWAP2 SWAP1 POP JUMP JUMPDEST PUSH1 0x0 DUP3 DUP3 MSTORE PUSH1 0x20 DUP3 ADD SWAP1 POP SWAP3 SWAP2 POP POP JUMP JUMPDEST PUSH1 0x0 DUP3 DUP3 MSTORE PUSH1 0x20 DUP3 ADD SWAP1 POP SWAP3 SWAP2 POP POP JUMP JUMPDEST PUSH1 0x0 DUP2 SWAP1 POP SWAP2 SWAP1 POP JUMP JUMPDEST PUSH1 0x0 PUSH2 0x1CA8 DUP3 PUSH2 0x1CCD JUMP JUMPDEST SWAP1 POP SWAP2 SWAP1 POP JUMP JUMPDEST PUSH1 0x0 PUSH2 0x1CBA DUP3 PUSH2 0x1CCD JUMP JUMPDEST SWAP1 POP SWAP2 SWAP1 POP JUMP JUMPDEST PUSH1 0x0 DUP2 ISZERO ISZERO SWAP1 POP SWAP2 SWAP1 POP JUMP JUMPDEST PUSH1 0x0 PUSH20 0xFFFFFFFFFFFFFFFFFFFFFFFFFFFFFFFFFFFFFFFF DUP3 AND SWAP1 POP SWAP2 SWAP1 POP JUMP JUMPDEST PUSH1 0x0 DUP2 SWAP1 POP SWAP2 SWAP1 POP JUMP JUMPDEST DUP3 DUP2 DUP4 CALLDATACOPY PUSH1 0x0 DUP4 DUP4 ADD MSTORE POP POP POP JUMP JUMPDEST PUSH1 0x0 JUMPDEST DUP4 DUP2 LT ISZERO PUSH2 0x1D24 JUMPI DUP1 DUP3 ADD MLOAD DUP2 DUP5 ADD MSTORE PUSH1 0x20 DUP2 ADD SWAP1 POP PUSH2 0x1D09 JUMP JUMPDEST DUP4 DUP2 GT ISZERO PUSH2 0x1D33 JUMPI PUSH1 0x0 DUP5 DUP5 ADD MSTORE JUMPDEST POP POP POP POP JUMP JUMPDEST PUSH1 0x0 PUSH2 0x1D4C PUSH2 0x1D47 DUP4 PUSH2 0x1D64 JUMP JUMPDEST PUSH2 0x1C93 JUMP JUMPDEST SWAP1 POP SWAP2 SWAP1 POP JUMP JUMPDEST PUSH1 0x0 PUSH1 0x1F NOT PUSH1 0x1F DUP4 ADD AND SWAP1 POP SWAP2 SWAP1 POP JUMP JUMPDEST PUSH1 0x0 DUP2 PUSH1 0x0 SHR SWAP1 POP SWAP2 SWAP1 POP JUMP JUMPDEST PUSH2 0x1D7A DUP2 PUSH2 0x1C9D JUMP JUMPDEST DUP2 EQ PUSH2 0x1D85 JUMPI PUSH1 0x0 DUP1 REVERT JUMPDEST POP JUMP JUMPDEST PUSH2 0x1D91 DUP2 PUSH2 0x1CED JUMP JUMPDEST DUP2 EQ PUSH2 0x1D9C JUMPI PUSH1 0x0 DUP1 REVERT JUMPDEST POP JUMP INVALID LOG3 PUSH6 0x627A7A723158 KECCAK256 0xCA STATICCALL PUSH32 0x261366393FC56AFEB72A090A30CF3C867CFABF75C66309B0F2DDC8B0536C6578 PUSH17 0x6572696D656E74616CF564736F6C634300 SDIV LT STOP BLOCKHASH "},"methodIdentifiers":{"gemSelecting(uint256,(string,uint256,string,string),string,uint256)":"f4df75e5","getSelectedGem(uint256)":"61b32e6e","getSelectedGemsCountByOwner(address)":"608c1fb4","markGemAsReplaced(uint256)":"478091d9","markGemAsUsed(uint256)":"e85f2238","polishGem(uint256)":"6056fe7e","selectedGemCount()":"5f801c7a","selectedMinedGems(uint256)":"e8e9d045","setPreviousGemId(uint256,uint256)":"da5eeba9","transferGemOwnership(uint256)":"b06e6f58"}}}}}