{
  "contractName": "GemstoneSelecting",
  "abi": [
    {
      "constant": true,
      "inputs": [],
      "name": "selectedGemCount",
      "outputs": [
        {
          "name": "",
          "type": "uint256"
        }
      ],
      "payable": false,
      "stateMutability": "view",
      "type": "function",
      "signature": "0x5f801c7a"
    },
    {
      "constant": true,
      "inputs": [
        {
          "name": "",
          "type": "uint256"
        }
      ],
      "name": "selectedMinedGems",
      "outputs": [
        {
          "name": "",
          "type": "bool"
        }
      ],
      "payable": false,
      "stateMutability": "view",
      "type": "function",
      "signature": "0xe8e9d045"
    },
    {
      "inputs": [
        {
          "name": "_gemstoneExtractionAddress",
          "type": "address"
        }
      ],
      "payable": false,
      "stateMutability": "nonpayable",
      "type": "constructor",
      "signature": "constructor"
    },
    {
      "anonymous": false,
      "inputs": [
        {
          "indexed": false,
          "name": "id",
          "type": "uint256"
        },
        {
          "indexed": false,
          "name": "minedGemId",
          "type": "uint256"
        },
        {
          "indexed": false,
          "name": "size",
          "type": "string"
        },
        {
          "indexed": false,
          "name": "carat",
          "type": "uint256"
        },
        {
          "indexed": false,
          "name": "colorGemType",
          "type": "string"
        },
        {
          "indexed": false,
          "name": "forSale",
          "type": "bool"
        },
        {
          "indexed": false,
          "name": "fileURL",
          "type": "string"
        },
        {
          "indexed": false,
          "name": "price",
          "type": "uint256"
        },
        {
          "indexed": false,
          "name": "used",
          "type": "bool"
        },
        {
          "indexed": false,
          "name": "owner",
          "type": "address"
        },
        {
          "indexed": false,
          "name": "gemCutter",
          "type": "address"
        }
      ],
      "name": "GemSelecting",
      "type": "event",
      "signature": "0x445a237480101801c7279126ab9a90d44d27d2a82c99ed070c7fc4ec45a64546"
    },
    {
      "anonymous": false,
      "inputs": [
        {
          "indexed": false,
          "name": "id",
          "type": "uint256"
        },
        {
          "indexed": false,
          "name": "minedGemId",
          "type": "uint256"
        },
        {
          "indexed": false,
          "name": "size",
          "type": "string"
        },
        {
          "indexed": false,
          "name": "carat",
          "type": "uint256"
        },
        {
          "indexed": false,
          "name": "colorGemType",
          "type": "string"
        },
        {
          "indexed": false,
          "name": "forSale",
          "type": "bool"
        },
        {
          "indexed": false,
          "name": "fileURL",
          "type": "string"
        },
        {
          "indexed": false,
          "name": "price",
          "type": "uint256"
        },
        {
          "indexed": false,
          "name": "used",
          "type": "bool"
        },
        {
          "indexed": false,
          "name": "owner",
          "type": "address"
        },
        {
          "indexed": false,
          "name": "gemCutter",
          "type": "address"
        }
      ],
      "name": "PolishGem",
      "type": "event",
      "signature": "0x79d55b20953fb634189d4e3078d5198d10134223dd12f3e735a6aaa901b41fb1"
    },
    {
      "anonymous": false,
      "inputs": [
        {
          "indexed": false,
          "name": "id",
          "type": "uint256"
        },
        {
          "indexed": false,
          "name": "minedGemId",
          "type": "uint256"
        },
        {
          "indexed": false,
          "name": "size",
          "type": "string"
        },
        {
          "indexed": false,
          "name": "carat",
          "type": "uint256"
        },
        {
          "indexed": false,
          "name": "colorGemType",
          "type": "string"
        },
        {
          "indexed": false,
          "name": "forSale",
          "type": "bool"
        },
        {
          "indexed": false,
          "name": "fileURL",
          "type": "string"
        },
        {
          "indexed": false,
          "name": "price",
          "type": "uint256"
        },
        {
          "indexed": false,
          "name": "used",
          "type": "bool"
        },
        {
          "indexed": false,
          "name": "owner",
          "type": "address"
        },
        {
          "indexed": false,
          "name": "gemCutter",
          "type": "address"
        }
      ],
      "name": "MarkGemAsUsed",
      "type": "event",
      "signature": "0xf1de1ab82c98c327ab725830bc926c05de1c2d267bfddf867e9e437690ad8f4e"
    },
    {
      "anonymous": false,
      "inputs": [
        {
          "indexed": false,
          "name": "id",
          "type": "uint256"
        },
        {
          "indexed": false,
          "name": "minedGemId",
          "type": "uint256"
        },
        {
          "indexed": false,
          "name": "size",
          "type": "string"
        },
        {
          "indexed": false,
          "name": "carat",
          "type": "uint256"
        },
        {
          "indexed": false,
          "name": "colorGemType",
          "type": "string"
        },
        {
          "indexed": false,
          "name": "forSale",
          "type": "bool"
        },
        {
          "indexed": false,
          "name": "fileURL",
          "type": "string"
        },
        {
          "indexed": false,
          "name": "price",
          "type": "uint256"
        },
        {
          "indexed": false,
          "name": "used",
          "type": "bool"
        },
        {
          "indexed": false,
          "name": "owner",
          "type": "address"
        },
        {
          "indexed": false,
          "name": "gemCutter",
          "type": "address"
        }
      ],
      "name": "TransferGemOwnership",
      "type": "event",
      "signature": "0x8076106cac5f36db86be6805a7605dbb127d47126ab3f3c0142bde010a06d4a4"
    },
    {
      "constant": false,
      "inputs": [
        {
          "name": "gemId",
          "type": "uint256"
        },
        {
          "name": "previousGemId",
          "type": "uint256"
        }
      ],
      "name": "setPreviousGemId",
      "outputs": [],
      "payable": false,
      "stateMutability": "nonpayable",
      "type": "function",
      "signature": "0xda5eeba9"
    },
    {
      "constant": false,
      "inputs": [
        {
          "name": "_minedGemId",
          "type": "uint256"
        },
        {
          "name": "_size",
          "type": "string"
        },
        {
          "name": "_carat",
          "type": "uint256"
        },
        {
          "name": "_colorGemType",
          "type": "string"
        },
        {
          "name": "_fileURL",
          "type": "string"
        },
        {
          "name": "_price",
          "type": "uint256"
        }
      ],
      "name": "gemSelecting",
      "outputs": [],
      "payable": false,
      "stateMutability": "nonpayable",
      "type": "function",
      "signature": "0x94d8386d"
    },
    {
      "constant": false,
      "inputs": [
        {
          "name": "_id",
          "type": "uint256"
        }
      ],
      "name": "polishGem",
      "outputs": [],
      "payable": true,
      "stateMutability": "payable",
      "type": "function",
      "signature": "0x6056fe7e"
    },
    {
      "constant": false,
      "inputs": [
        {
          "name": "_id",
          "type": "uint256"
        }
      ],
      "name": "markGemAsUsed",
      "outputs": [],
      "payable": false,
      "stateMutability": "nonpayable",
      "type": "function",
      "signature": "0xe85f2238"
    },
    {
      "constant": true,
      "inputs": [
        {
          "name": "_owner",
          "type": "address"
        }
      ],
      "name": "getSelectedGemsCountByOwner",
      "outputs": [
        {
          "name": "",
          "type": "uint256"
        }
      ],
      "payable": false,
      "stateMutability": "view",
      "type": "function",
      "signature": "0x608c1fb4"
    },
    {
      "constant": false,
      "inputs": [
        {
          "name": "_id",
          "type": "uint256"
        }
      ],
      "name": "transferGemOwnership",
      "outputs": [],
      "payable": false,
      "stateMutability": "nonpayable",
      "type": "function",
      "signature": "0xb06e6f58"
    },
    {
      "constant": true,
      "inputs": [
        {
          "name": "_id",
          "type": "uint256"
        }
      ],
      "name": "getSelectedGem",
      "outputs": [
        {
          "name": "id",
          "type": "uint256"
        },
        {
          "name": "minedGemId",
          "type": "uint256"
        },
        {
          "name": "previousGemId",
          "type": "uint256"
        },
        {
          "name": "size",
          "type": "string"
        },
        {
          "name": "carat",
          "type": "uint256"
        },
        {
          "name": "colorGemType",
          "type": "string"
        },
        {
          "name": "forSale",
          "type": "bool"
        },
        {
          "name": "fileURL",
          "type": "string"
        },
        {
          "name": "price",
          "type": "uint256"
        },
        {
          "name": "used",
          "type": "bool"
        },
        {
          "name": "owner",
          "type": "address"
        },
        {
          "name": "gemCutter",
          "type": "address"
        }
      ],
      "payable": false,
      "stateMutability": "view",
      "type": "function",
      "signature": "0x61b32e6e"
    },
    {
      "constant": true,
      "inputs": [
        {
          "name": "_id",
          "type": "uint256"
        }
      ],
      "name": "getGemDetails",
      "outputs": [
        {
          "name": "id",
          "type": "uint256"
        },
        {
          "name": "minedGemId",
          "type": "uint256"
        },
        {
          "name": "previousGemId",
          "type": "uint256"
        },
        {
          "name": "size",
          "type": "string"
        },
        {
          "name": "carat",
          "type": "uint256"
        },
        {
          "name": "colorGemType",
          "type": "string"
        },
        {
          "name": "forSale",
          "type": "bool"
        },
        {
          "name": "fileURL",
          "type": "string"
        },
        {
          "name": "price",
          "type": "uint256"
        },
        {
          "name": "used",
          "type": "bool"
        },
        {
          "name": "owner",
          "type": "address"
        },
        {
          "name": "gemCutter",
          "type": "address"
        }
      ],
      "payable": false,
      "stateMutability": "view",
      "type": "function",
      "signature": "0x8c632e64"
    }
  ],
  "bytecode": "0x60806040526000805534801561001457600080fd5b506040516020806120128339810180604052602081101561003457600080fd5b810190808051906020019092919050505080600260006101000a81548173ffffffffffffffffffffffffffffffffffffffff021916908373ffffffffffffffffffffffffffffffffffffffff16021790555050611f7c806100966000396000f3fe6080604052600436106100a4576000357c0100000000000000000000000000000000000000000000000000000000900463ffffffff1680635f801c7a146100a95780636056fe7e146100d4578063608c1fb41461010257806361b32e6e146101675780638c632e641461039257806394d8386d146105bd578063b06e6f58146107d1578063da5eeba91461080c578063e85f223814610851578063e8e9d0451461088c575b600080fd5b3480156100b557600080fd5b506100be6108df565b6040518082815260200191505060405180910390f35b610100600480360360208110156100ea57600080fd5b81019080803590602001909291905050506108e5565b005b34801561010e57600080fd5b506101516004803603602081101561012557600080fd5b81019080803573ffffffffffffffffffffffffffffffffffffffff169060200190929190505050610c27565b6040518082815260200191505060405180910390f35b34801561017357600080fd5b506101a06004803603602081101561018a57600080fd5b8101908080359060200190929190505050610cca565b604051808d81526020018c81526020018b8152602001806020018a8152602001806020018915151515815260200180602001888152602001871515151581526020018673ffffffffffffffffffffffffffffffffffffffff1673ffffffffffffffffffffffffffffffffffffffff1681526020018573ffffffffffffffffffffffffffffffffffffffff1673ffffffffffffffffffffffffffffffffffffffff16815260200184810384528d818151815260200191508051906020019080838360005b8381101561027e578082015181840152602081019050610263565b50505050905090810190601f1680156102ab5780820380516001836020036101000a031916815260200191505b5084810383528b818151815260200191508051906020019080838360005b838110156102e45780820151818401526020810190506102c9565b50505050905090810190601f1680156103115780820380516001836020036101000a031916815260200191505b50848103825289818151815260200191508051906020019080838360005b8381101561034a57808201518184015260208101905061032f565b50505050905090810190601f1680156103775780820380516001836020036101000a031916815260200191505b509f5050505050505050505050505050505060405180910390f35b34801561039e57600080fd5b506103cb600480360360208110156103b557600080fd5b8101908080359060200190929190505050610f8e565b604051808d81526020018c81526020018b8152602001806020018a8152602001806020018915151515815260200180602001888152602001871515151581526020018673ffffffffffffffffffffffffffffffffffffffff1673ffffffffffffffffffffffffffffffffffffffff1681526020018573ffffffffffffffffffffffffffffffffffffffff1673ffffffffffffffffffffffffffffffffffffffff16815260200184810384528d818151815260200191508051906020019080838360005b838110156104a957808201518184015260208101905061048e565b50505050905090810190601f1680156104d65780820380516001836020036101000a031916815260200191505b5084810383528b818151815260200191508051906020019080838360005b8381101561050f5780820151818401526020810190506104f4565b50505050905090810190601f16801561053c5780820380516001836020036101000a031916815260200191505b50848103825289818151815260200191508051906020019080838360005b8381101561057557808201518184015260208101905061055a565b50505050905090810190601f1680156105a25780820380516001836020036101000a031916815260200191505b509f5050505050505050505050505050505060405180910390f35b3480156105c957600080fd5b506107cf600480360360c08110156105e057600080fd5b81019080803590602001909291908035906020019064010000000081111561060757600080fd5b82018360208201111561061957600080fd5b8035906020019184600183028401116401000000008311171561063b57600080fd5b91908080601f016020809104026020016040519081016040528093929190818152602001838380828437600081840152601f19601f82011690508083019250505050505050919291929080359060200190929190803590602001906401000000008111156106a857600080fd5b8201836020820111156106ba57600080fd5b803590602001918460018302840111640100000000831117156106dc57600080fd5b91908080601f016020809104026020016040519081016040528093929190818152602001838380828437600081840152601f19601f8201169050808301925050505050505091929192908035906020019064010000000081111561073f57600080fd5b82018360208201111561075157600080fd5b8035906020019184600183028401116401000000008311171561077357600080fd5b91908080601f016020809104026020016040519081016040528093929190818152602001838380828437600081840152601f19601f82011690508083019250505050505050919291929080359060200190929190505050610fd3565b005b3480156107dd57600080fd5b5061080a600480360360208110156107f457600080fd5b8101908080359060200190929190505050611458565b005b34801561081857600080fd5b5061084f6004803603604081101561082f57600080fd5b810190808035906020019092919080359060200190929190505050611922565b005b34801561085d57600080fd5b5061088a6004803603602081101561087457600080fd5b81019080803590602001909291905050506119c3565b005b34801561089857600080fd5b506108c5600480360360208110156108af57600080fd5b8101908080359060200190929190505050611e0b565b604051808215151515815260200191505060405180910390f35b60005481565b60006001600083815260200190815260200160002090508060060160009054906101000a900460ff16158160060160006101000a81548160ff0219169083151502179055507f79d55b20953fb634189d4e3078d5198d10134223dd12f3e735a6aaa901b41fb181600001548260010154836003016000018460030160010154856003016002018660060160009054906101000a900460ff168760070188600801548960090160009054906101000a900460ff168a60090160019054906101000a900473ffffffffffffffffffffffffffffffffffffffff168b600a0160009054906101000a900473ffffffffffffffffffffffffffffffffffffffff16604051808c81526020018b8152602001806020018a8152602001806020018915151515815260200180602001888152602001871515151581526020018673ffffffffffffffffffffffffffffffffffffffff1673ffffffffffffffffffffffffffffffffffffffff1681526020018573ffffffffffffffffffffffffffffffffffffffff1673ffffffffffffffffffffffffffffffffffffffff16815260200184810384528d818154600181600116156101000203166002900481526020019150805460018160011615610100020316600290048015610b035780601f10610ad857610100808354040283529160200191610b03565b820191906000526020600020905b815481529060010190602001808311610ae657829003601f168201915b505084810383528b818154600181600116156101000203166002900481526020019150805460018160011615610100020316600290048015610b865780601f10610b5b57610100808354040283529160200191610b86565b820191906000526020600020905b815481529060010190602001808311610b6957829003601f168201915b5050848103825289818154600181600116156101000203166002900481526020019150805460018160011615610100020316600290048015610c095780601f10610bde57610100808354040283529160200191610c09565b820191906000526020600020905b815481529060010190602001808311610bec57829003601f168201915b50509e50505050505050505050505050505060405180910390a15050565b600080600090506000600190505b60005481111515610cc0578373ffffffffffffffffffffffffffffffffffffffff166001600083815260200190815260200160002060090160019054906101000a900473ffffffffffffffffffffffffffffffffffffffff1673ffffffffffffffffffffffffffffffffffffffff161415610cb35781806001019250505b8080600101915050610c35565b5080915050919050565b6000806000606060006060600060606000806000806000600160008f81526020019081526020016000209050806000015481600101548260020154836003016000018460030160010154856003016002018660060160009054906101000a900460ff168760070188600801548960090160009054906101000a900460ff168a60090160019054906101000a900473ffffffffffffffffffffffffffffffffffffffff168b600a0160009054906101000a900473ffffffffffffffffffffffffffffffffffffffff16888054600181600116156101000203166002900480601f016020809104026020016040519081016040528092919081815260200182805460018160011615610100020316600290048015610e275780601f10610dfc57610100808354040283529160200191610e27565b820191906000526020600020905b815481529060010190602001808311610e0a57829003601f168201915b50505050509850868054600181600116156101000203166002900480601f016020809104026020016040519081016040528092919081815260200182805460018160011615610100020316600290048015610ec35780601f10610e9857610100808354040283529160200191610ec3565b820191906000526020600020905b815481529060010190602001808311610ea657829003601f168201915b50505050509650848054600181600116156101000203166002900480601f016020809104026020016040519081016040528092919081815260200182805460018160011615610100020316600290048015610f5f5780601f10610f3457610100808354040283529160200191610f5f565b820191906000526020600020905b815481529060010190602001808311610f4257829003601f168201915b505050505094509c509c509c509c509c509c509c509c509c509c509c509c505091939597999b5091939597999b565b600080600060606000606060006060600080600080610fac8d610cca565b9b509b509b509b509b509b509b509b509b509b509b509b5091939597999b5091939597999b565b6000808154809291906001019190505550600060016000888152602001908152602001600020905086816000018190555086816001018190555060606040519081016040528087815260200186815260200185815250816003016000820151816000019080519060200190611049929190611e2b565b50602082015181600101556040820151816002019080519060200190611070929190611e2b565b5090505060008160060160006101000a81548160ff021916908315150217905550828160070190805190602001906110a9929190611eab565b5081816008018190555060008160090160006101000a81548160ff021916908315150217905550338160090160016101000a81548173ffffffffffffffffffffffffffffffffffffffff021916908373ffffffffffffffffffffffffffffffffffffffff1602179055503381600a0160006101000a81548173ffffffffffffffffffffffffffffffffffffffff021916908373ffffffffffffffffffffffffffffffffffffffff1602179055507f445a237480101801c7279126ab9a90d44d27d2a82c99ed070c7fc4ec45a6454681600001548260010154836003016000018460030160010154856003016002018660060160009054906101000a900460ff168760070188600801548960090160009054906101000a900460ff168a60090160019054906101000a900473ffffffffffffffffffffffffffffffffffffffff168b600a0160009054906101000a900473ffffffffffffffffffffffffffffffffffffffff16604051808c81526020018b8152602001806020018a8152602001806020018915151515815260200180602001888152602001871515151581526020018673ffffffffffffffffffffffffffffffffffffffff1673ffffffffffffffffffffffffffffffffffffffff1681526020018573ffffffffffffffffffffffffffffffffffffffff1673ffffffffffffffffffffffffffffffffffffffff16815260200184810384528d81815460018160011615610100020316600290048152602001915080546001816001161561010002031660029004801561132f5780601f106113045761010080835404028352916020019161132f565b820191906000526020600020905b81548152906001019060200180831161131257829003601f168201915b505084810383528b8181546001816001161561010002031660029004815260200191508054600181600116156101000203166002900480156113b25780601f10611387576101008083540402835291602001916113b2565b820191906000526020600020905b81548152906001019060200180831161139557829003601f168201915b50508481038252898181546001816001161561010002031660029004815260200191508054600181600116156101000203166002900480156114355780601f1061140a57610100808354040283529160200191611435565b820191906000526020600020905b81548152906001019060200180831161141857829003601f168201915b50509e50505050505050505050505050505060405180910390a150505050505050565b6000600160008381526020019081526020016000209050600081600001541180156114895750600054816000015411155b15156114fd576040517f08c379a000000000000000000000000000000000000000000000000000000000815260040180806020018281038252600e8152602001807f496e76616c69642067656d20494400000000000000000000000000000000000081525060200191505060405180910390fd5b3373ffffffffffffffffffffffffffffffffffffffff168160090160019054906101000a900473ffffffffffffffffffffffffffffffffffffffff1673ffffffffffffffffffffffffffffffffffffffff16141515156115c5576040517f08c379a00000000000000000000000000000000000000000000000000000000081526004018080602001828103825260188152602001807f596f7520616c7265616479206f776e20746869732067656d000000000000000081525060200191505060405180910390fd5b338160090160016101000a81548173ffffffffffffffffffffffffffffffffffffffff021916908373ffffffffffffffffffffffffffffffffffffffff16021790555060008160060160006101000a81548160ff0219169083151502179055507f8076106cac5f36db86be6805a7605dbb127d47126ab3f3c0142bde010a06d4a481600001548260010154836003016000018460030160010154856003016002018660060160009054906101000a900460ff168760070188600801548960090160009054906101000a900460ff168a60090160019054906101000a900473ffffffffffffffffffffffffffffffffffffffff168b600a0160009054906101000a900473ffffffffffffffffffffffffffffffffffffffff16604051808c81526020018b8152602001806020018a8152602001806020018915151515815260200180602001888152602001871515151581526020018673ffffffffffffffffffffffffffffffffffffffff1673ffffffffffffffffffffffffffffffffffffffff1681526020018573ffffffffffffffffffffffffffffffffffffffff1673ffffffffffffffffffffffffffffffffffffffff16815260200184810384528d8181546001816001161561010002031660029004815260200191508054600181600116156101000203166002900480156117fe5780601f106117d3576101008083540402835291602001916117fe565b820191906000526020600020905b8154815290600101906020018083116117e157829003601f168201915b505084810383528b8181546001816001161561010002031660029004815260200191508054600181600116156101000203166002900480156118815780601f1061185657610100808354040283529160200191611881565b820191906000526020600020905b81548152906001019060200180831161186457829003601f168201915b50508481038252898181546001816001161561010002031660029004815260200191508054600181600116156101000203166002900480156119045780601f106118d957610100808354040283529160200191611904565b820191906000526020600020905b8154815290600101906020018083116118e757829003601f168201915b50509e50505050505050505050505050505060405180910390a15050565b6000600160008481526020019081526020016000209050600081600001541115156119b5576040517f08c379a00000000000000000000000000000000000000000000000000000000081526004018080602001828103825260138152602001807f47656d20646f6573206e6f742065786973742e0000000000000000000000000081525060200191505060405180910390fd5b818160020181905550505050565b6000600160008381526020019081526020016000209050600081600001541180156119f45750600054816000015411155b1515611a68576040517f08c379a000000000000000000000000000000000000000000000000000000000815260040180806020018281038252600e8152602001807f496e76616c69642067656d20494400000000000000000000000000000000000081525060200191505060405180910390fd5b600015158160090160009054906101000a900460ff161515141515611af5576040517f08c379a00000000000000000000000000000000000000000000000000000000081526004018080602001828103825260108152602001807f47656d20616c726561647920757365640000000000000000000000000000000081525060200191505060405180910390fd5b60018160090160006101000a81548160ff0219169083151502179055507ff1de1ab82c98c327ab725830bc926c05de1c2d267bfddf867e9e437690ad8f4e828260010154836003016000018460030160010154856003016002018660060160009054906101000a900460ff168760070188600801548960090160009054906101000a900460ff168a60090160019054906101000a900473ffffffffffffffffffffffffffffffffffffffff168b600a0160009054906101000a900473ffffffffffffffffffffffffffffffffffffffff16604051808c81526020018b8152602001806020018a8152602001806020018915151515815260200180602001888152602001871515151581526020018673ffffffffffffffffffffffffffffffffffffffff1673ffffffffffffffffffffffffffffffffffffffff1681526020018573ffffffffffffffffffffffffffffffffffffffff1673ffffffffffffffffffffffffffffffffffffffff16815260200184810384528d818154600181600116156101000203166002900481526020019150805460018160011615610100020316600290048015611ce75780601f10611cbc57610100808354040283529160200191611ce7565b820191906000526020600020905b815481529060010190602001808311611cca57829003601f168201915b505084810383528b818154600181600116156101000203166002900481526020019150805460018160011615610100020316600290048015611d6a5780601f10611d3f57610100808354040283529160200191611d6a565b820191906000526020600020905b815481529060010190602001808311611d4d57829003601f168201915b5050848103825289818154600181600116156101000203166002900481526020019150805460018160011615610100020316600290048015611ded5780601f10611dc257610100808354040283529160200191611ded565b820191906000526020600020905b815481529060010190602001808311611dd057829003601f168201915b50509e50505050505050505050505050505060405180910390a15050565b60036020528060005260406000206000915054906101000a900460ff1681565b828054600181600116156101000203166002900490600052602060002090601f016020900481019282601f10611e6c57805160ff1916838001178555611e9a565b82800160010185558215611e9a579182015b82811115611e99578251825591602001919060010190611e7e565b5b509050611ea79190611f2b565b5090565b828054600181600116156101000203166002900490600052602060002090601f016020900481019282601f10611eec57805160ff1916838001178555611f1a565b82800160010185558215611f1a579182015b82811115611f19578251825591602001919060010190611efe565b5b509050611f279190611f2b565b5090565b611f4d91905b80821115611f49576000816000905550600101611f31565b5090565b9056fea165627a7a72305820a23983b55119c84a9f2fa7a207ab610b3c248db1a6dc2038d50cd000ee0f22fc0029",
  "source": "pragma solidity >=0.4.21 <0.6.0;\r\n\r\ninterface IGemstoneExtraction {\r\n    function minedGems(uint) external view returns (uint id, string memory gemType, uint weight, uint height, uint width, uint price, string memory miningLocation, uint miningYear, bool selected, string memory extractionMethod, address payable owner, bool purchased);\r\n}\r\n\r\ncontract GemstoneSelecting {\r\n    uint public selectedGemCount = 0;\r\n    mapping (uint => SelectedGem) private selectedGems;\r\n    IGemstoneExtraction gemstoneExtraction;\r\n    mapping(uint => bool) public selectedMinedGems;\r\n\r\n    struct GemDetails {\r\n        string size;\r\n        uint carat;\r\n        string colorGemType; // Combined color and gem type\r\n    }\r\n\r\n    struct SelectedGem {\r\n        uint id;\r\n        uint minedGemId;\r\n        uint previousGemId;\r\n        GemDetails details;\r\n        bool forSale;\r\n        string fileURL;\r\n        uint price;\r\n        bool used;\r\n        address owner;\r\n        address gemCutter;\r\n    }\r\n\r\n    event GemSelecting(\r\n        uint id,\r\n        uint minedGemId,\r\n        string size,\r\n        uint carat,\r\n        string colorGemType, // Combined color and gem type\r\n        bool forSale,\r\n        string fileURL,\r\n        uint price,\r\n        bool used,\r\n        address owner,\r\n        address gemCutter\r\n    );\r\n\r\n    event PolishGem(\r\n        uint id,\r\n        uint minedGemId,\r\n        string size,\r\n        uint carat,\r\n        string colorGemType, // Combined color and gem type\r\n        bool forSale,\r\n        string fileURL,\r\n        uint price,\r\n        bool used,\r\n        address owner,\r\n        address gemCutter\r\n    );\r\n    event MarkGemAsUsed(\r\n        uint id,\r\n        uint minedGemId,\r\n        string size,\r\n        uint carat,\r\n        string colorGemType, // Combined color and gem type\r\n        bool forSale,\r\n        string fileURL,\r\n        uint price,\r\n        bool used,\r\n        address owner,\r\n        address gemCutter\r\n    );\r\n    event TransferGemOwnership(\r\n        uint id,\r\n        uint minedGemId,\r\n        string size,\r\n        uint carat,\r\n        string colorGemType, // Combined color and gem type\r\n        bool forSale,\r\n        string fileURL,\r\n        uint price,\r\n        bool used,\r\n        address owner,\r\n        address gemCutter\r\n    );\r\n    constructor(address _gemstoneExtractionAddress) public {\r\n        gemstoneExtraction = IGemstoneExtraction(_gemstoneExtractionAddress);\r\n    }\r\n\r\n    function setPreviousGemId(uint gemId, uint previousGemId) public {\r\n        SelectedGem storage gem = selectedGems[gemId];\r\n        require(gem.id > 0, \"Gem does not exist.\");\r\n        gem.previousGemId = previousGemId;\r\n    }\r\n\r\n    function gemSelecting(\r\n        uint _minedGemId,\r\n        string memory _size,\r\n        uint _carat,\r\n        string memory _colorGemType, // Combined color and gem type\r\n        string memory _fileURL,\r\n        uint _price\r\n    ) public {\r\n        selectedGemCount++;\r\n        SelectedGem storage gem = selectedGems[_minedGemId];\r\n        gem.id = _minedGemId;\r\n        gem.minedGemId = _minedGemId;\r\n        gem.details = GemDetails({\r\n            size: _size,\r\n            carat: _carat,\r\n            colorGemType: _colorGemType // Combined color and gem type\r\n        });\r\n        gem.forSale = false;\r\n        gem.fileURL = _fileURL;\r\n        gem.price = _price;\r\n        gem.used = false;\r\n        gem.owner = msg.sender;\r\n        gem.gemCutter = msg.sender;\r\n\r\n        emit GemSelecting(\r\n            gem.id,\r\n            gem.minedGemId,\r\n            gem.details.size,\r\n            gem.details.carat,\r\n            gem.details.colorGemType, // Combined color and gem type\r\n            gem.forSale,\r\n            gem.fileURL,\r\n            gem.price,\r\n            gem.used,\r\n            gem.owner,\r\n            gem.gemCutter\r\n        );\r\n    }\r\n\r\n    function polishGem(uint _id) public payable {\r\n        SelectedGem storage _selectedGem = selectedGems[_id];\r\n        _selectedGem.forSale = !_selectedGem.forSale;\r\n\r\n        emit PolishGem(\r\n            _selectedGem.id,\r\n            _selectedGem.minedGemId,\r\n            _selectedGem.details.size,\r\n            _selectedGem.details.carat,\r\n            _selectedGem.details.colorGemType, // Combined color and gem type\r\n            _selectedGem.forSale,\r\n            _selectedGem.fileURL,\r\n            _selectedGem.price,\r\n            _selectedGem.used,\r\n            _selectedGem.owner,\r\n            _selectedGem.gemCutter\r\n        );\r\n    }\r\n\r\n    function markGemAsUsed(uint _id) public {\r\n        SelectedGem storage _selectedGem = selectedGems[_id];\r\n        require(_selectedGem.id > 0 && _selectedGem.id <= selectedGemCount, \"Invalid gem ID\");\r\n        require(_selectedGem.used == false, \"Gem already used\");\r\n        _selectedGem.used = true;\r\n\r\n        emit MarkGemAsUsed(\r\n            _id,\r\n            _selectedGem.minedGemId,\r\n            _selectedGem.details.size,\r\n            _selectedGem.details.carat,\r\n            _selectedGem.details.colorGemType, // Combined color and gem type\r\n            _selectedGem.forSale,\r\n            _selectedGem.fileURL,\r\n            _selectedGem.price,\r\n            _selectedGem.used,\r\n            _selectedGem.owner,\r\n            _selectedGem.gemCutter\r\n        );\r\n    }\r\n\r\n    function getSelectedGemsCountByOwner(address _owner) public view returns (uint) {\r\n        uint count = 0;\r\n        for (uint i = 1; i <= selectedGemCount; i++) {\r\n            if (selectedGems[i].owner == _owner) {\r\n                count++;\r\n            }\r\n        }\r\n        return count;\r\n    }\r\n\r\n    function transferGemOwnership(uint _id) public {\r\n        SelectedGem storage _selectedGem = selectedGems[_id];\r\n        require(_selectedGem.id > 0 && _selectedGem.id <= selectedGemCount, \"Invalid gem ID\");\r\n        require(_selectedGem.owner != msg.sender, \"You already own this gem\");\r\n\r\n        _selectedGem.owner = msg.sender;\r\n        _selectedGem.forSale = false;\r\n\r\n        emit TransferGemOwnership(\r\n            _selectedGem.id,\r\n            _selectedGem.minedGemId,\r\n            _selectedGem.details.size,\r\n            _selectedGem.details.carat,\r\n            _selectedGem.details.colorGemType, // Combined color and gem type\r\n            _selectedGem.forSale,\r\n            _selectedGem.fileURL,\r\n            _selectedGem.price,\r\n            _selectedGem.used,\r\n            _selectedGem.owner,\r\n            _selectedGem.gemCutter\r\n        );\r\n    }\r\n\r\n    // Public getter for selectedGems\r\n    function getSelectedGem(uint _id) public view returns (\r\n        uint id,\r\n        uint minedGemId,\r\n        uint previousGemId,\r\n        string memory size,\r\n        uint carat,\r\n        string memory colorGemType, // Combined color and gem type\r\n        bool forSale,\r\n        string memory fileURL,\r\n        uint price,\r\n        bool used,\r\n        address owner,\r\n        address gemCutter\r\n    ) {\r\n        SelectedGem storage gem = selectedGems[_id];\r\n        return (\r\n            gem.id,\r\n            gem.minedGemId,\r\n            gem.previousGemId,\r\n            gem.details.size,\r\n            gem.details.carat,\r\n            gem.details.colorGemType, // Combined color and gem type\r\n            gem.forSale,\r\n            gem.fileURL,\r\n            gem.price,\r\n            gem.used,\r\n            gem.owner,\r\n            gem.gemCutter\r\n        );\r\n    }\r\n\r\n    function getGemDetails(uint _id) public view returns (\r\n        uint id,\r\n        uint minedGemId,\r\n        uint previousGemId,\r\n        string memory size,\r\n        uint carat,\r\n        string memory colorGemType,\r\n        bool forSale,\r\n        string memory fileURL,\r\n        uint price,\r\n        bool used,\r\n        address owner,\r\n        address gemCutter\r\n    ) {\r\n        return getSelectedGem(_id);\r\n    }\r\n}\r\n",
  "sourcePath": "C:/Users/berke/jewRoundx/src/contracts/GemstoneSelecting.sol",
  "compiler": {
    "name": "solc",
    "version": "0.5.0+commit.1d4f565a.Emscripten.clang"
  },
  "schemaVersion": "3.0.1",
  "updatedAt": "2024-09-10T14:39:47.686Z",
  "devdoc": {
    "methods": {}
  },
  "userdoc": {
    "methods": {}
  }
}