{
  "contractName": "GemstoneSelecting",
  "abi": [
    {
      "constant": true,
      "inputs": [],
      "name": "selectedGemCount",
      "outputs": [
        {
          "name": "",
          "type": "uint256"
        }
      ],
      "payable": false,
      "stateMutability": "view",
      "type": "function",
      "signature": "0x5f801c7a"
    },
    {
      "constant": true,
      "inputs": [
        {
          "name": "",
          "type": "uint256"
        }
      ],
      "name": "selectedGems",
      "outputs": [
        {
          "name": "id",
          "type": "uint256"
        },
        {
          "name": "minedGemId",
          "type": "uint256"
        },
        {
          "name": "weight",
          "type": "uint256"
        },
        {
          "name": "height",
          "type": "uint256"
        },
        {
          "name": "width",
          "type": "uint256"
        },
        {
          "name": "diameter",
          "type": "uint256"
        },
        {
          "name": "carat",
          "type": "uint256"
        },
        {
          "name": "color",
          "type": "string"
        },
        {
          "name": "gemType",
          "type": "string"
        },
        {
          "name": "grinding",
          "type": "string"
        },
        {
          "name": "price",
          "type": "uint256"
        },
        {
          "name": "owner",
          "type": "address"
        }
      ],
      "payable": false,
      "stateMutability": "view",
      "type": "function",
      "signature": "0xcee07c4b"
    },
    {
      "anonymous": false,
      "inputs": [
        {
          "indexed": false,
          "name": "id",
          "type": "uint256"
        },
        {
          "indexed": false,
          "name": "minedGemId",
          "type": "uint256"
        },
        {
          "indexed": false,
          "name": "weight",
          "type": "uint256"
        },
        {
          "indexed": false,
          "name": "height",
          "type": "uint256"
        },
        {
          "indexed": false,
          "name": "width",
          "type": "uint256"
        },
        {
          "indexed": false,
          "name": "diameter",
          "type": "uint256"
        },
        {
          "indexed": false,
          "name": "carat",
          "type": "uint256"
        },
        {
          "indexed": false,
          "name": "color",
          "type": "string"
        },
        {
          "indexed": false,
          "name": "gemType",
          "type": "string"
        },
        {
          "indexed": false,
          "name": "grinding",
          "type": "string"
        },
        {
          "indexed": false,
          "name": "price",
          "type": "uint256"
        },
        {
          "indexed": false,
          "name": "owner",
          "type": "address"
        }
      ],
      "name": "GemSelecting",
      "type": "event",
      "signature": "0xcc2203c4e201e828b9b3910c14e03d7d77d0c36467ffccb507d53292beeca0e6"
    },
    {
      "constant": false,
      "inputs": [
        {
          "name": "_minedGemId",
          "type": "uint256"
        },
        {
          "name": "_weight",
          "type": "uint256"
        },
        {
          "name": "_height",
          "type": "uint256"
        },
        {
          "name": "_width",
          "type": "uint256"
        },
        {
          "name": "_diameter",
          "type": "uint256"
        },
        {
          "name": "_carat",
          "type": "uint256"
        },
        {
          "name": "_color",
          "type": "string"
        },
        {
          "name": "_gemtype",
          "type": "string"
        },
        {
          "name": "_grinding",
          "type": "string"
        },
        {
          "name": "_price",
          "type": "uint256"
        }
      ],
      "name": "gemSelecting",
      "outputs": [],
      "payable": false,
      "stateMutability": "nonpayable",
      "type": "function",
      "signature": "0x0618f1b4"
    }
  ],
  "bytecode": "0x60806040526000805534801561001457600080fd5b50610b57806100246000396000f3fe608060405260043610610057576000357c0100000000000000000000000000000000000000000000000000000000900463ffffffff1680630618f1b41461005c5780635f801c7a14610299578063cee07c4b146102c4575b600080fd5b34801561006857600080fd5b50610297600480360361014081101561008057600080fd5b81019080803590602001909291908035906020019092919080359060200190929190803590602001909291908035906020019092919080359060200190929190803590602001906401000000008111156100d957600080fd5b8201836020820111156100eb57600080fd5b8035906020019184600183028401116401000000008311171561010d57600080fd5b91908080601f016020809104026020016040519081016040528093929190818152602001838380828437600081840152601f19601f8201169050808301925050505050505091929192908035906020019064010000000081111561017057600080fd5b82018360208201111561018257600080fd5b803590602001918460018302840111640100000000831117156101a457600080fd5b91908080601f016020809104026020016040519081016040528093929190818152602001838380828437600081840152601f19601f8201169050808301925050505050505091929192908035906020019064010000000081111561020757600080fd5b82018360208201111561021957600080fd5b8035906020019184600183028401116401000000008311171561023b57600080fd5b91908080601f016020809104026020016040519081016040528093929190818152602001838380828437600081840152601f19601f820116905080830192505050505050509192919290803590602001909291905050506104bb565b005b3480156102a557600080fd5b506102ae610838565b6040518082815260200191505060405180910390f35b3480156102d057600080fd5b506102fd600480360360208110156102e757600080fd5b810190808035906020019092919050505061083e565b604051808d81526020018c81526020018b81526020018a81526020018981526020018881526020018781526020018060200180602001806020018681526020018573ffffffffffffffffffffffffffffffffffffffff1673ffffffffffffffffffffffffffffffffffffffff168152602001848103845289818151815260200191508051906020019080838360005b838110156103a757808201518184015260208101905061038c565b50505050905090810190601f1680156103d45780820380516001836020036101000a031916815260200191505b50848103835288818151815260200191508051906020019080838360005b8381101561040d5780820151818401526020810190506103f2565b50505050905090810190601f16801561043a5780820380516001836020036101000a031916815260200191505b50848103825287818151815260200191508051906020019080838360005b83811015610473578082015181840152602081019050610458565b50505050905090810190601f1680156104a05780820380516001836020036101000a031916815260200191505b509f5050505050505050505050505050505060405180910390f35b60008081548092919060010191905055506101806040519081016040528060005481526020018b81526020018a81526020018981526020018881526020018781526020018681526020018581526020018481526020018381526020018281526020013373ffffffffffffffffffffffffffffffffffffffff168152506001600080548152602001908152602001600020600082015181600001556020820151816001015560408201518160020155606082015181600301556080820151816004015560a0820151816005015560c0820151816006015560e08201518160070190805190602001906105ad929190610a86565b506101008201518160080190805190602001906105cb929190610a86565b506101208201518160090190805190602001906105e9929190610a86565b5061014082015181600a015561016082015181600b0160006101000a81548173ffffffffffffffffffffffffffffffffffffffff021916908373ffffffffffffffffffffffffffffffffffffffff1602179055509050507fcc2203c4e201e828b9b3910c14e03d7d77d0c36467ffccb507d53292beeca0e66000548b8b8b8b8b8b8b8b8b8b33604051808d81526020018c81526020018b81526020018a81526020018981526020018881526020018781526020018060200180602001806020018681526020018573ffffffffffffffffffffffffffffffffffffffff1673ffffffffffffffffffffffffffffffffffffffff168152602001848103845289818151815260200191508051906020019080838360005b838110156107195780820151818401526020810190506106fe565b50505050905090810190601f1680156107465780820380516001836020036101000a031916815260200191505b50848103835288818151815260200191508051906020019080838360005b8381101561077f578082015181840152602081019050610764565b50505050905090810190601f1680156107ac5780820380516001836020036101000a031916815260200191505b50848103825287818151815260200191508051906020019080838360005b838110156107e55780820151818401526020810190506107ca565b50505050905090810190601f1680156108125780820380516001836020036101000a031916815260200191505b509f5050505050505050505050505050505060405180910390a150505050505050505050565b60005481565b6001602052806000526040600020600091509050806000015490806001015490806002015490806003015490806004015490806005015490806006015490806007018054600181600116156101000203166002900480601f0160208091040260200160405190810160405280929190818152602001828054600181600116156101000203166002900480156109145780601f106108e957610100808354040283529160200191610914565b820191906000526020600020905b8154815290600101906020018083116108f757829003601f168201915b505050505090806008018054600181600116156101000203166002900480601f0160208091040260200160405190810160405280929190818152602001828054600181600116156101000203166002900480156109b25780601f10610987576101008083540402835291602001916109b2565b820191906000526020600020905b81548152906001019060200180831161099557829003601f168201915b505050505090806009018054600181600116156101000203166002900480601f016020809104026020016040519081016040528092919081815260200182805460018160011615610100020316600290048015610a505780601f10610a2557610100808354040283529160200191610a50565b820191906000526020600020905b815481529060010190602001808311610a3357829003601f168201915b50505050509080600a01549080600b0160009054906101000a900473ffffffffffffffffffffffffffffffffffffffff1690508c565b828054600181600116156101000203166002900490600052602060002090601f016020900481019282601f10610ac757805160ff1916838001178555610af5565b82800160010185558215610af5579182015b82811115610af4578251825591602001919060010190610ad9565b5b509050610b029190610b06565b5090565b610b2891905b80821115610b24576000816000905550600101610b0c565b5090565b9056fea165627a7a723058206e14f593698ffc18eff6ebfc946042d8784664c29e470400ea1ae30e95128e850029",
  "source": "pragma solidity >=0.4.21 <0.6.0;\n\ncontract GemstoneSelecting {\n    \n    uint public selectedGemCount = 0;\n    mapping (uint => SelectedGem) public selectedGems;\n\n    struct SelectedGem{\n        uint id;\n        uint minedGemId;\n        uint weight;\n        uint height;\n        uint width;\n        uint diameter; //vastagsag\n        uint carat; //==weight A karát a drágakövek tömegének mérésére szolgáló mértékegység. Jele: Kt, angolszász területen ct.\n        string color;\n        string gemType; //etc gyémánt, rubint, gránit\n        string grinding;\n        uint price;\n        address owner;\n    }\n\n     event GemSelecting(\n        uint id,\n        uint minedGemId,\n        uint weight,\n        uint height,\n        uint width,\n        uint diameter,\n        uint carat,\n        string color,\n        string gemType,\n        string grinding,\n        uint price,\n        address owner\n     );\n\n        // a minedGemId majd a js-sel kerül át. Kattintás után\n      function gemSelecting(uint _minedGemId, uint _weight, uint _height, uint _width, uint _diameter, uint _carat, string memory _color, string memory _gemtype, string memory _grinding, uint _price) public {\n       selectedGemCount++;\n\n       selectedGems[selectedGemCount] = SelectedGem(selectedGemCount, _minedGemId, _weight,_height, _width, _diameter, _carat, _color, _gemtype, _grinding, _price, msg.sender);\n\n       emit GemSelecting(selectedGemCount, _minedGemId, _weight, _height, _width, _diameter, _carat, _color, _gemtype, _grinding, _price, msg.sender);\n    }\n\n//innen úgy kellene tovább menni, hogy kiválogatva ki lesz.\n// az itt felvitt adatokkal látszik, hogy feldolgozatlan gyémánt/ rubint/etc\n//utána két külön .sol-ban kezelni a gyémántot és a többi drágakövet. (könyvjelzőből drágakőpiac, gyéméntpiac) adataival\n//a vágást azokkal a .sol-okkal menti el\n//utána a csiszolás, utána a polirozas\n//tanusitvány kiadása???\n//ékszerész veszi meg -> ékszertervezés\n//befejezés , felületkezelés\n//minőségellenőrzés \n}",
  "sourcePath": "/home/berkeanna/folder/jewRoundx/src/contracts/GemstoneSelecting.sol",
  "compiler": {
    "name": "solc",
    "version": "0.5.0+commit.1d4f565a.Emscripten.clang"
  },
  "schemaVersion": "3.0.1",
  "updatedAt": "2023-11-30T06:31:54.142Z",
  "devdoc": {
    "methods": {}
  },
  "userdoc": {
    "methods": {}
  }
}