{
  "contractName": "GemstoneSelecting",
  "abi": [
    {
      "constant": true,
      "inputs": [],
      "name": "selectedGemCount",
      "outputs": [
        {
          "name": "",
          "type": "uint256"
        }
      ],
      "payable": false,
      "stateMutability": "view",
      "type": "function",
      "signature": "0x5f801c7a"
    },
    {
      "constant": true,
      "inputs": [
        {
          "name": "",
          "type": "uint256"
        }
      ],
      "name": "selectedMinedGems",
      "outputs": [
        {
          "name": "",
          "type": "bool"
        }
      ],
      "payable": false,
      "stateMutability": "view",
      "type": "function",
      "signature": "0xe8e9d045"
    },
    {
      "inputs": [
        {
          "name": "_gemstoneExtractionAddress",
          "type": "address"
        }
      ],
      "payable": false,
      "stateMutability": "nonpayable",
      "type": "constructor",
      "signature": "constructor"
    },
    {
      "anonymous": false,
      "inputs": [
        {
          "indexed": false,
          "name": "id",
          "type": "uint256"
        },
        {
          "indexed": false,
          "name": "minedGemId",
          "type": "uint256"
        },
        {
          "indexed": false,
          "name": "size",
          "type": "string"
        },
        {
          "indexed": false,
          "name": "carat",
          "type": "uint256"
        },
        {
          "indexed": false,
          "name": "colorGemType",
          "type": "string"
        },
        {
          "indexed": false,
          "name": "forSale",
          "type": "bool"
        },
        {
          "indexed": false,
          "name": "fileURL",
          "type": "string"
        },
        {
          "indexed": false,
          "name": "price",
          "type": "uint256"
        },
        {
          "indexed": false,
          "name": "used",
          "type": "bool"
        },
        {
          "indexed": false,
          "name": "owner",
          "type": "address"
        },
        {
          "indexed": false,
          "name": "gemCutter",
          "type": "address"
        }
      ],
      "name": "GemSelecting",
      "type": "event",
      "signature": "0x445a237480101801c7279126ab9a90d44d27d2a82c99ed070c7fc4ec45a64546"
    },
    {
      "constant": false,
      "inputs": [
        {
          "name": "_minedGemId",
          "type": "uint256"
        },
        {
          "name": "_size",
          "type": "string"
        },
        {
          "name": "_carat",
          "type": "uint256"
        },
        {
          "name": "_colorGemType",
          "type": "string"
        },
        {
          "name": "_fileURL",
          "type": "string"
        },
        {
          "name": "_price",
          "type": "uint256"
        }
      ],
      "name": "gemSelecting",
      "outputs": [],
      "payable": false,
      "stateMutability": "nonpayable",
      "type": "function",
      "signature": "0x94d8386d"
    },
    {
      "constant": false,
      "inputs": [
        {
          "name": "_id",
          "type": "uint256"
        }
      ],
      "name": "polishGem",
      "outputs": [],
      "payable": true,
      "stateMutability": "payable",
      "type": "function",
      "signature": "0x6056fe7e"
    },
    {
      "constant": false,
      "inputs": [
        {
          "name": "_id",
          "type": "uint256"
        }
      ],
      "name": "markGemAsUsed",
      "outputs": [],
      "payable": false,
      "stateMutability": "nonpayable",
      "type": "function",
      "signature": "0xe85f2238"
    },
    {
      "constant": true,
      "inputs": [
        {
          "name": "_owner",
          "type": "address"
        }
      ],
      "name": "getSelectedGemsCountByOwner",
      "outputs": [
        {
          "name": "",
          "type": "uint256"
        }
      ],
      "payable": false,
      "stateMutability": "view",
      "type": "function",
      "signature": "0x608c1fb4"
    },
    {
      "constant": false,
      "inputs": [
        {
          "name": "_id",
          "type": "uint256"
        }
      ],
      "name": "transferGemOwnership",
      "outputs": [],
      "payable": false,
      "stateMutability": "nonpayable",
      "type": "function",
      "signature": "0xb06e6f58"
    },
    {
      "constant": true,
      "inputs": [
        {
          "name": "_id",
          "type": "uint256"
        }
      ],
      "name": "getSelectedGem",
      "outputs": [
        {
          "name": "id",
          "type": "uint256"
        },
        {
          "name": "minedGemId",
          "type": "uint256"
        },
        {
          "name": "size",
          "type": "string"
        },
        {
          "name": "carat",
          "type": "uint256"
        },
        {
          "name": "colorGemType",
          "type": "string"
        },
        {
          "name": "forSale",
          "type": "bool"
        },
        {
          "name": "fileURL",
          "type": "string"
        },
        {
          "name": "price",
          "type": "uint256"
        },
        {
          "name": "used",
          "type": "bool"
        },
        {
          "name": "owner",
          "type": "address"
        },
        {
          "name": "gemCutter",
          "type": "address"
        }
      ],
      "payable": false,
      "stateMutability": "view",
      "type": "function",
      "signature": "0x61b32e6e"
    }
  ],
  "bytecode": "0x60806040526000805534801561001457600080fd5b50604051602080611c968339810180604052602081101561003457600080fd5b810190808051906020019092919050505080600260006101000a81548173ffffffffffffffffffffffffffffffffffffffff021916908373ffffffffffffffffffffffffffffffffffffffff16021790555050611c00806100966000396000f3fe60806040526004361061008e576000357c0100000000000000000000000000000000000000000000000000000000900463ffffffff1680635f801c7a146100935780636056fe7e146100be578063608c1fb4146100ec57806361b32e6e1461015157806394d8386d14610375578063b06e6f5814610589578063e85f2238146105c4578063e8e9d045146105ff575b600080fd5b34801561009f57600080fd5b506100a8610652565b6040518082815260200191505060405180910390f35b6100ea600480360360208110156100d457600080fd5b8101908080359060200190929190505050610658565b005b3480156100f857600080fd5b5061013b6004803603602081101561010f57600080fd5b81019080803573ffffffffffffffffffffffffffffffffffffffff16906020019092919050505061099a565b6040518082815260200191505060405180910390f35b34801561015d57600080fd5b5061018a6004803603602081101561017457600080fd5b8101908080359060200190929190505050610a3d565b604051808c81526020018b8152602001806020018a8152602001806020018915151515815260200180602001888152602001871515151581526020018673ffffffffffffffffffffffffffffffffffffffff1673ffffffffffffffffffffffffffffffffffffffff1681526020018573ffffffffffffffffffffffffffffffffffffffff1673ffffffffffffffffffffffffffffffffffffffff16815260200184810384528d818151815260200191508051906020019080838360005b83811015610262578082015181840152602081019050610247565b50505050905090810190601f16801561028f5780820380516001836020036101000a031916815260200191505b5084810383528b818151815260200191508051906020019080838360005b838110156102c85780820151818401526020810190506102ad565b50505050905090810190601f1680156102f55780820380516001836020036101000a031916815260200191505b50848103825289818151815260200191508051906020019080838360005b8381101561032e578082015181840152602081019050610313565b50505050905090810190601f16801561035b5780820380516001836020036101000a031916815260200191505b509e50505050505050505050505050505060405180910390f35b34801561038157600080fd5b50610587600480360360c081101561039857600080fd5b8101908080359060200190929190803590602001906401000000008111156103bf57600080fd5b8201836020820111156103d157600080fd5b803590602001918460018302840111640100000000831117156103f357600080fd5b91908080601f016020809104026020016040519081016040528093929190818152602001838380828437600081840152601f19601f820116905080830192505050505050509192919290803590602001909291908035906020019064010000000081111561046057600080fd5b82018360208201111561047257600080fd5b8035906020019184600183028401116401000000008311171561049457600080fd5b91908080601f016020809104026020016040519081016040528093929190818152602001838380828437600081840152601f19601f820116905080830192505050505050509192919290803590602001906401000000008111156104f757600080fd5b82018360208201111561050957600080fd5b8035906020019184600183028401116401000000008311171561052b57600080fd5b91908080601f016020809104026020016040519081016040528093929190818152602001838380828437600081840152601f19601f82011690508083019250505050505050919291929080359060200190929190505050610cf8565b005b34801561059557600080fd5b506105c2600480360360208110156105ac57600080fd5b810190808035906020019092919050505061117d565b005b3480156105d057600080fd5b506105fd600480360360208110156105e757600080fd5b8101908080359060200190929190505050611647565b005b34801561060b57600080fd5b506106386004803603602081101561062257600080fd5b8101908080359060200190929190505050611a8f565b604051808215151515815260200191505060405180910390f35b60005481565b60006001600083815260200190815260200160002090508060050160009054906101000a900460ff16158160050160006101000a81548160ff0219169083151502179055507f445a237480101801c7279126ab9a90d44d27d2a82c99ed070c7fc4ec45a6454681600001548260010154836002016000018460020160010154856002016002018660050160009054906101000a900460ff168760060188600701548960080160009054906101000a900460ff168a60080160019054906101000a900473ffffffffffffffffffffffffffffffffffffffff168b60090160009054906101000a900473ffffffffffffffffffffffffffffffffffffffff16604051808c81526020018b8152602001806020018a8152602001806020018915151515815260200180602001888152602001871515151581526020018673ffffffffffffffffffffffffffffffffffffffff1673ffffffffffffffffffffffffffffffffffffffff1681526020018573ffffffffffffffffffffffffffffffffffffffff1673ffffffffffffffffffffffffffffffffffffffff16815260200184810384528d8181546001816001161561010002031660029004815260200191508054600181600116156101000203166002900480156108765780601f1061084b57610100808354040283529160200191610876565b820191906000526020600020905b81548152906001019060200180831161085957829003601f168201915b505084810383528b8181546001816001161561010002031660029004815260200191508054600181600116156101000203166002900480156108f95780601f106108ce576101008083540402835291602001916108f9565b820191906000526020600020905b8154815290600101906020018083116108dc57829003601f168201915b505084810382528981815460018160011615610100020316600290048152602001915080546001816001161561010002031660029004801561097c5780601f106109515761010080835404028352916020019161097c565b820191906000526020600020905b81548152906001019060200180831161095f57829003601f168201915b50509e50505050505050505050505050505060405180910390a15050565b600080600090506000600190505b60005481111515610a33578373ffffffffffffffffffffffffffffffffffffffff166001600083815260200190815260200160002060080160019054906101000a900473ffffffffffffffffffffffffffffffffffffffff1673ffffffffffffffffffffffffffffffffffffffff161415610a265781806001019250505b80806001019150506109a8565b5080915050919050565b600080606060006060600060606000806000806000600160008e8152602001908152602001600020905080600001548160010154826002016000018360020160010154846002016002018560050160009054906101000a900460ff168660060187600701548860080160009054906101000a900460ff168960080160019054906101000a900473ffffffffffffffffffffffffffffffffffffffff168a60090160009054906101000a900473ffffffffffffffffffffffffffffffffffffffff16888054600181600116156101000203166002900480601f016020809104026020016040519081016040528092919081815260200182805460018160011615610100020316600290048015610b935780601f10610b6857610100808354040283529160200191610b93565b820191906000526020600020905b815481529060010190602001808311610b7657829003601f168201915b50505050509850868054600181600116156101000203166002900480601f016020809104026020016040519081016040528092919081815260200182805460018160011615610100020316600290048015610c2f5780601f10610c0457610100808354040283529160200191610c2f565b820191906000526020600020905b815481529060010190602001808311610c1257829003601f168201915b50505050509650848054600181600116156101000203166002900480601f016020809104026020016040519081016040528092919081815260200182805460018160011615610100020316600290048015610ccb5780601f10610ca057610100808354040283529160200191610ccb565b820191906000526020600020905b815481529060010190602001808311610cae57829003601f168201915b505050505094509b509b509b509b509b509b509b509b509b509b509b505091939597999b90929496989a50565b6000808154809291906001019190505550600060016000888152602001908152602001600020905086816000018190555086816001018190555060606040519081016040528087815260200186815260200185815250816002016000820151816000019080519060200190610d6e929190611aaf565b50602082015181600101556040820151816002019080519060200190610d95929190611aaf565b5090505060008160050160006101000a81548160ff02191690831515021790555082816006019080519060200190610dce929190611b2f565b5081816007018190555060008160080160006101000a81548160ff021916908315150217905550338160080160016101000a81548173ffffffffffffffffffffffffffffffffffffffff021916908373ffffffffffffffffffffffffffffffffffffffff160217905550338160090160006101000a81548173ffffffffffffffffffffffffffffffffffffffff021916908373ffffffffffffffffffffffffffffffffffffffff1602179055507f445a237480101801c7279126ab9a90d44d27d2a82c99ed070c7fc4ec45a6454681600001548260010154836002016000018460020160010154856002016002018660050160009054906101000a900460ff168760060188600701548960080160009054906101000a900460ff168a60080160019054906101000a900473ffffffffffffffffffffffffffffffffffffffff168b60090160009054906101000a900473ffffffffffffffffffffffffffffffffffffffff16604051808c81526020018b8152602001806020018a8152602001806020018915151515815260200180602001888152602001871515151581526020018673ffffffffffffffffffffffffffffffffffffffff1673ffffffffffffffffffffffffffffffffffffffff1681526020018573ffffffffffffffffffffffffffffffffffffffff1673ffffffffffffffffffffffffffffffffffffffff16815260200184810384528d8181546001816001161561010002031660029004815260200191508054600181600116156101000203166002900480156110545780601f1061102957610100808354040283529160200191611054565b820191906000526020600020905b81548152906001019060200180831161103757829003601f168201915b505084810383528b8181546001816001161561010002031660029004815260200191508054600181600116156101000203166002900480156110d75780601f106110ac576101008083540402835291602001916110d7565b820191906000526020600020905b8154815290600101906020018083116110ba57829003601f168201915b505084810382528981815460018160011615610100020316600290048152602001915080546001816001161561010002031660029004801561115a5780601f1061112f5761010080835404028352916020019161115a565b820191906000526020600020905b81548152906001019060200180831161113d57829003601f168201915b50509e50505050505050505050505050505060405180910390a150505050505050565b6000600160008381526020019081526020016000209050600081600001541180156111ae5750600054816000015411155b1515611222576040517f08c379a000000000000000000000000000000000000000000000000000000000815260040180806020018281038252600e8152602001807f496e76616c69642067656d20494400000000000000000000000000000000000081525060200191505060405180910390fd5b3373ffffffffffffffffffffffffffffffffffffffff168160080160019054906101000a900473ffffffffffffffffffffffffffffffffffffffff1673ffffffffffffffffffffffffffffffffffffffff16141515156112ea576040517f08c379a00000000000000000000000000000000000000000000000000000000081526004018080602001828103825260188152602001807f596f7520616c7265616479206f776e20746869732067656d000000000000000081525060200191505060405180910390fd5b338160080160016101000a81548173ffffffffffffffffffffffffffffffffffffffff021916908373ffffffffffffffffffffffffffffffffffffffff16021790555060008160050160006101000a81548160ff0219169083151502179055507f445a237480101801c7279126ab9a90d44d27d2a82c99ed070c7fc4ec45a6454681600001548260010154836002016000018460020160010154856002016002018660050160009054906101000a900460ff168760060188600701548960080160009054906101000a900460ff168a60080160019054906101000a900473ffffffffffffffffffffffffffffffffffffffff168b60090160009054906101000a900473ffffffffffffffffffffffffffffffffffffffff16604051808c81526020018b8152602001806020018a8152602001806020018915151515815260200180602001888152602001871515151581526020018673ffffffffffffffffffffffffffffffffffffffff1673ffffffffffffffffffffffffffffffffffffffff1681526020018573ffffffffffffffffffffffffffffffffffffffff1673ffffffffffffffffffffffffffffffffffffffff16815260200184810384528d8181546001816001161561010002031660029004815260200191508054600181600116156101000203166002900480156115235780601f106114f857610100808354040283529160200191611523565b820191906000526020600020905b81548152906001019060200180831161150657829003601f168201915b505084810383528b8181546001816001161561010002031660029004815260200191508054600181600116156101000203166002900480156115a65780601f1061157b576101008083540402835291602001916115a6565b820191906000526020600020905b81548152906001019060200180831161158957829003601f168201915b50508481038252898181546001816001161561010002031660029004815260200191508054600181600116156101000203166002900480156116295780601f106115fe57610100808354040283529160200191611629565b820191906000526020600020905b81548152906001019060200180831161160c57829003601f168201915b50509e50505050505050505050505050505060405180910390a15050565b6000600160008381526020019081526020016000209050600081600001541180156116785750600054816000015411155b15156116ec576040517f08c379a000000000000000000000000000000000000000000000000000000000815260040180806020018281038252600e8152602001807f496e76616c69642067656d20494400000000000000000000000000000000000081525060200191505060405180910390fd5b600015158160080160009054906101000a900460ff161515141515611779576040517f08c379a00000000000000000000000000000000000000000000000000000000081526004018080602001828103825260108152602001807f47656d20616c726561647920757365640000000000000000000000000000000081525060200191505060405180910390fd5b60018160080160006101000a81548160ff0219169083151502179055507f445a237480101801c7279126ab9a90d44d27d2a82c99ed070c7fc4ec45a64546828260010154836002016000018460020160010154856002016002018660050160009054906101000a900460ff168760060188600701548960080160009054906101000a900460ff168a60080160019054906101000a900473ffffffffffffffffffffffffffffffffffffffff168b60090160009054906101000a900473ffffffffffffffffffffffffffffffffffffffff16604051808c81526020018b8152602001806020018a8152602001806020018915151515815260200180602001888152602001871515151581526020018673ffffffffffffffffffffffffffffffffffffffff1673ffffffffffffffffffffffffffffffffffffffff1681526020018573ffffffffffffffffffffffffffffffffffffffff1673ffffffffffffffffffffffffffffffffffffffff16815260200184810384528d81815460018160011615610100020316600290048152602001915080546001816001161561010002031660029004801561196b5780601f106119405761010080835404028352916020019161196b565b820191906000526020600020905b81548152906001019060200180831161194e57829003601f168201915b505084810383528b8181546001816001161561010002031660029004815260200191508054600181600116156101000203166002900480156119ee5780601f106119c3576101008083540402835291602001916119ee565b820191906000526020600020905b8154815290600101906020018083116119d157829003601f168201915b5050848103825289818154600181600116156101000203166002900481526020019150805460018160011615610100020316600290048015611a715780601f10611a4657610100808354040283529160200191611a71565b820191906000526020600020905b815481529060010190602001808311611a5457829003601f168201915b50509e50505050505050505050505050505060405180910390a15050565b60036020528060005260406000206000915054906101000a900460ff1681565b828054600181600116156101000203166002900490600052602060002090601f016020900481019282601f10611af057805160ff1916838001178555611b1e565b82800160010185558215611b1e579182015b82811115611b1d578251825591602001919060010190611b02565b5b509050611b2b9190611baf565b5090565b828054600181600116156101000203166002900490600052602060002090601f016020900481019282601f10611b7057805160ff1916838001178555611b9e565b82800160010185558215611b9e579182015b82811115611b9d578251825591602001919060010190611b82565b5b509050611bab9190611baf565b5090565b611bd191905b80821115611bcd576000816000905550600101611bb5565b5090565b9056fea165627a7a7230582080170b9031ab45465dc63dfb024a6dd4fb72e056f4a8e541436798fdd938a5c10029",
  "source": "pragma solidity >=0.4.21 <0.6.0;\n\nimport \"./GemstoneExtraction.sol\";\n\ninterface IGemstoneExtraction {\n    function minedGems(uint) external view returns (uint id, string memory gemType, uint weight, uint height, uint width, uint price, string memory miningLocation, uint miningYear, bool selected, string memory extractionMethod, address payable owner, bool purchased);\n}\n\ncontract GemstoneSelecting {\n    uint public selectedGemCount = 0;\n    mapping (uint => SelectedGem) private selectedGems;\n    IGemstoneExtraction gemstoneExtraction;\n    mapping(uint => bool) public selectedMinedGems;\n\n    struct GemDetails {\n        string size;\n        uint carat;\n        string colorGemType; // Combined color and gem type\n    }\n\n    struct SelectedGem {\n        uint id;\n        uint minedGemId;\n        GemDetails details;\n        bool forSale;\n        string fileURL;\n        uint price;\n        bool used;\n        address owner;\n        address gemCutter;\n    }\n\n    event GemSelecting(\n        uint id,\n        uint minedGemId,\n        string size,\n        uint carat,\n        string colorGemType, // Combined color and gem type\n        bool forSale,\n        string fileURL,\n        uint price,\n        bool used,\n        address owner,\n        address gemCutter\n    );\n\n    constructor(address _gemstoneExtractionAddress) public {\n        gemstoneExtraction = IGemstoneExtraction(_gemstoneExtractionAddress);\n    }\n\n    function gemSelecting(\n        uint _minedGemId,\n        string memory _size,\n        uint _carat,\n        string memory _colorGemType, // Combined color and gem type\n        string memory _fileURL,\n        uint _price\n    ) public {\n        selectedGemCount++;\n        SelectedGem storage gem = selectedGems[_minedGemId];\n        gem.id = _minedGemId;\n        gem.minedGemId = _minedGemId;\n        gem.details = GemDetails({\n            size: _size,\n            carat: _carat,\n            colorGemType: _colorGemType // Combined color and gem type\n        });\n        gem.forSale = false;\n        gem.fileURL = _fileURL;\n        gem.price = _price;\n        gem.used = false;\n        gem.owner = msg.sender;\n        gem.gemCutter = msg.sender;\n\n        emit GemSelecting(\n            gem.id,\n            gem.minedGemId,\n            gem.details.size,\n            gem.details.carat,\n            gem.details.colorGemType, // Combined color and gem type\n            gem.forSale,\n            gem.fileURL,\n            gem.price,\n            gem.used,\n            gem.owner,\n            gem.gemCutter\n        );\n    }\n\n    function polishGem(uint _id) public payable {\n        SelectedGem storage _selectedGem = selectedGems[_id];\n        _selectedGem.forSale = !_selectedGem.forSale;\n\n        emit GemSelecting(\n            _selectedGem.id,\n            _selectedGem.minedGemId,\n            _selectedGem.details.size,\n            _selectedGem.details.carat,\n            _selectedGem.details.colorGemType, // Combined color and gem type\n            _selectedGem.forSale,\n            _selectedGem.fileURL,\n            _selectedGem.price,\n            _selectedGem.used,\n            _selectedGem.owner,\n            _selectedGem.gemCutter\n        );\n    }\n\n    function markGemAsUsed(uint _id) public {\n        SelectedGem storage _selectedGem = selectedGems[_id];\n        require(_selectedGem.id > 0 && _selectedGem.id <= selectedGemCount, \"Invalid gem ID\");\n        require(_selectedGem.used == false, \"Gem already used\");\n        _selectedGem.used = true;\n\n        emit GemSelecting(\n            _id,\n            _selectedGem.minedGemId,\n            _selectedGem.details.size,\n            _selectedGem.details.carat,\n            _selectedGem.details.colorGemType, // Combined color and gem type\n            _selectedGem.forSale,\n            _selectedGem.fileURL,\n            _selectedGem.price,\n            _selectedGem.used,\n            _selectedGem.owner,\n            _selectedGem.gemCutter\n        );\n    }\n\n    function getSelectedGemsCountByOwner(address _owner) public view returns (uint) {\n        uint count = 0;\n        for (uint i = 1; i <= selectedGemCount; i++) {\n            if (selectedGems[i].owner == _owner) {\n                count++;\n            }\n        }\n        return count;\n    }\n\n    function transferGemOwnership(uint _id) public {\n        SelectedGem storage _selectedGem = selectedGems[_id];\n        require(_selectedGem.id > 0 && _selectedGem.id <= selectedGemCount, \"Invalid gem ID\");\n        require(_selectedGem.owner != msg.sender, \"You already own this gem\");\n\n        _selectedGem.owner = msg.sender;\n        _selectedGem.forSale = false;\n\n        emit GemSelecting(\n            _selectedGem.id,\n            _selectedGem.minedGemId,\n            _selectedGem.details.size,\n            _selectedGem.details.carat,\n            _selectedGem.details.colorGemType, // Combined color and gem type\n            _selectedGem.forSale,\n            _selectedGem.fileURL,\n            _selectedGem.price,\n            _selectedGem.used,\n            _selectedGem.owner,\n            _selectedGem.gemCutter\n        );\n    }\n\n    // Public getter for selectedGems\n    function getSelectedGem(uint _id) public view returns (\n        uint id,\n        uint minedGemId,\n        string memory size,\n        uint carat,\n        string memory colorGemType, // Combined color and gem type\n        bool forSale,\n        string memory fileURL,\n        uint price,\n        bool used,\n        address owner,\n        address gemCutter\n    ) {\n        SelectedGem storage gem = selectedGems[_id];\n        return (\n            gem.id,\n            gem.minedGemId,\n            gem.details.size,\n            gem.details.carat,\n            gem.details.colorGemType, // Combined color and gem type\n            gem.forSale,\n            gem.fileURL,\n            gem.price,\n            gem.used,\n            gem.owner,\n            gem.gemCutter\n        );\n    }\n}\n",
  "sourcePath": "/home/berkeanna/folder/jewRoundx/src/contracts/GemstoneSelecting.sol",
  "compiler": {
    "name": "solc",
    "version": "0.5.0+commit.1d4f565a.Emscripten.clang"
  },
  "schemaVersion": "3.0.1",
  "updatedAt": "2024-08-11T10:02:47.372Z",
  "devdoc": {
    "methods": {}
  },
  "userdoc": {
    "methods": {}
  }
}