{
  "contractName": "GemstoneSelecting",
  "abi": [
    {
      "constant": true,
      "inputs": [],
      "name": "selectedGemCount",
      "outputs": [
        {
          "name": "",
          "type": "uint256"
        }
      ],
      "payable": false,
      "stateMutability": "view",
      "type": "function",
      "signature": "0x5f801c7a"
    },
    {
      "constant": true,
      "inputs": [
        {
          "name": "",
          "type": "uint256"
        }
      ],
      "name": "selectedMinedGems",
      "outputs": [
        {
          "name": "",
          "type": "bool"
        }
      ],
      "payable": false,
      "stateMutability": "view",
      "type": "function",
      "signature": "0xe8e9d045"
    },
    {
      "inputs": [
        {
          "name": "_gemstoneExtractionAddress",
          "type": "address"
        }
      ],
      "payable": false,
      "stateMutability": "nonpayable",
      "type": "constructor",
      "signature": "constructor"
    },
    {
      "anonymous": false,
      "inputs": [
        {
          "indexed": false,
          "name": "id",
          "type": "uint256"
        },
        {
          "indexed": false,
          "name": "minedGemId",
          "type": "uint256"
        },
        {
          "components": [
            {
              "name": "size",
              "type": "string"
            },
            {
              "name": "carat",
              "type": "uint256"
            },
            {
              "name": "gemType",
              "type": "string"
            },
            {
              "name": "color",
              "type": "string"
            }
          ],
          "indexed": false,
          "name": "details",
          "type": "tuple"
        },
        {
          "indexed": false,
          "name": "forSale",
          "type": "bool"
        },
        {
          "indexed": false,
          "name": "fileURL",
          "type": "string"
        },
        {
          "indexed": false,
          "name": "price",
          "type": "uint256"
        },
        {
          "indexed": false,
          "name": "used",
          "type": "bool"
        },
        {
          "indexed": false,
          "name": "replaced",
          "type": "bool"
        },
        {
          "indexed": false,
          "name": "owner",
          "type": "address"
        },
        {
          "indexed": false,
          "name": "gemCutter",
          "type": "address"
        }
      ],
      "name": "GemSelecting",
      "type": "event",
      "signature": "0x3ad65d9518c085627dbca61fd4a2e636f4534a985148d2c7d7b7f119aee3f7e2"
    },
    {
      "anonymous": false,
      "inputs": [
        {
          "indexed": false,
          "name": "id",
          "type": "uint256"
        },
        {
          "indexed": false,
          "name": "owner",
          "type": "address"
        },
        {
          "indexed": false,
          "name": "gemCutter",
          "type": "address"
        }
      ],
      "name": "PolishGem",
      "type": "event",
      "signature": "0xa6babdd1fa656bf606065250a64e094cba8030a47736bbd97325a1e9ae0c1019"
    },
    {
      "anonymous": false,
      "inputs": [
        {
          "indexed": false,
          "name": "id",
          "type": "uint256"
        },
        {
          "indexed": false,
          "name": "owner",
          "type": "address"
        },
        {
          "indexed": false,
          "name": "gemCutter",
          "type": "address"
        }
      ],
      "name": "MarkGemAsUsed",
      "type": "event",
      "signature": "0x5713def16fc0f29cecaca692e41bab2f9319d8263aec6af05e6847c7d06c91a4"
    },
    {
      "anonymous": false,
      "inputs": [
        {
          "indexed": false,
          "name": "id",
          "type": "uint256"
        },
        {
          "indexed": false,
          "name": "owner",
          "type": "address"
        },
        {
          "indexed": false,
          "name": "gemCutter",
          "type": "address"
        }
      ],
      "name": "MarkGemAsReplaced",
      "type": "event",
      "signature": "0xbcc1d56483ed920bf7a26911c6f33623b43026231496114d05b84208ab3c9329"
    },
    {
      "anonymous": false,
      "inputs": [
        {
          "indexed": false,
          "name": "id",
          "type": "uint256"
        },
        {
          "indexed": false,
          "name": "owner",
          "type": "address"
        },
        {
          "indexed": false,
          "name": "gemCutter",
          "type": "address"
        }
      ],
      "name": "TransferGemOwnership",
      "type": "event",
      "signature": "0xfd8feede703ba888121683a699ff7bb2d92a89451cded3c812f723d3be5a93e3"
    },
    {
      "constant": false,
      "inputs": [
        {
          "name": "gemId",
          "type": "uint256"
        },
        {
          "name": "previousGemId",
          "type": "uint256"
        }
      ],
      "name": "setPreviousGemId",
      "outputs": [],
      "payable": false,
      "stateMutability": "nonpayable",
      "type": "function",
      "signature": "0xda5eeba9"
    },
    {
      "constant": false,
      "inputs": [
        {
          "name": "_minedGemId",
          "type": "uint256"
        },
        {
          "components": [
            {
              "name": "size",
              "type": "string"
            },
            {
              "name": "carat",
              "type": "uint256"
            },
            {
              "name": "gemType",
              "type": "string"
            },
            {
              "name": "color",
              "type": "string"
            }
          ],
          "name": "_details",
          "type": "tuple"
        },
        {
          "name": "_fileURL",
          "type": "string"
        },
        {
          "name": "_price",
          "type": "uint256"
        }
      ],
      "name": "gemSelecting",
      "outputs": [],
      "payable": false,
      "stateMutability": "nonpayable",
      "type": "function",
      "signature": "0xf4df75e5"
    },
    {
      "constant": false,
      "inputs": [
        {
          "name": "_id",
          "type": "uint256"
        }
      ],
      "name": "polishGem",
      "outputs": [],
      "payable": true,
      "stateMutability": "payable",
      "type": "function",
      "signature": "0x6056fe7e"
    },
    {
      "constant": false,
      "inputs": [
        {
          "name": "_id",
          "type": "uint256"
        }
      ],
      "name": "markGemAsUsed",
      "outputs": [],
      "payable": false,
      "stateMutability": "nonpayable",
      "type": "function",
      "signature": "0xe85f2238"
    },
    {
      "constant": false,
      "inputs": [
        {
          "name": "_id",
          "type": "uint256"
        }
      ],
      "name": "markGemAsReplaced",
      "outputs": [],
      "payable": false,
      "stateMutability": "nonpayable",
      "type": "function",
      "signature": "0x478091d9"
    },
    {
      "constant": true,
      "inputs": [
        {
          "name": "_owner",
          "type": "address"
        }
      ],
      "name": "getSelectedGemsCountByOwner",
      "outputs": [
        {
          "name": "",
          "type": "uint256"
        }
      ],
      "payable": false,
      "stateMutability": "view",
      "type": "function",
      "signature": "0x608c1fb4"
    },
    {
      "constant": false,
      "inputs": [
        {
          "name": "_id",
          "type": "uint256"
        }
      ],
      "name": "transferGemOwnership",
      "outputs": [],
      "payable": true,
      "stateMutability": "payable",
      "type": "function",
      "signature": "0xb06e6f58"
    },
    {
      "constant": true,
      "inputs": [
        {
          "name": "_id",
          "type": "uint256"
        }
      ],
      "name": "getSelectedGem",
      "outputs": [
        {
          "name": "id",
          "type": "uint256"
        },
        {
          "name": "minedGemId",
          "type": "uint256"
        },
        {
          "name": "previousGemId",
          "type": "uint256"
        },
        {
          "components": [
            {
              "name": "size",
              "type": "string"
            },
            {
              "name": "carat",
              "type": "uint256"
            },
            {
              "name": "gemType",
              "type": "string"
            },
            {
              "name": "color",
              "type": "string"
            }
          ],
          "name": "details",
          "type": "tuple"
        },
        {
          "name": "forSale",
          "type": "bool"
        },
        {
          "name": "fileURL",
          "type": "string"
        },
        {
          "name": "price",
          "type": "uint256"
        },
        {
          "name": "used",
          "type": "bool"
        },
        {
          "name": "replaced",
          "type": "bool"
        },
        {
          "name": "owner",
          "type": "address"
        },
        {
          "name": "gemCutter",
          "type": "address"
        }
      ],
      "payable": false,
      "stateMutability": "view",
      "type": "function",
      "signature": "0x61b32e6e"
    }
  ],
  "bytecode": "0x6080604052600080553480156200001557600080fd5b5060405160208062001cc4833981018060405262000037919081019062000095565b80600260006101000a81548173ffffffffffffffffffffffffffffffffffffffff021916908373ffffffffffffffffffffffffffffffffffffffff16021790555050620000f5565b60006200008d8251620000e1565b905092915050565b600060208284031215620000a857600080fd5b6000620000b8848285016200007f565b91505092915050565b600073ffffffffffffffffffffffffffffffffffffffff82169050919050565b6000620000ee82620000c1565b9050919050565b611bbf80620001056000396000f3fe6080604052600436106100a4576000357c0100000000000000000000000000000000000000000000000000000000900463ffffffff168063478091d9146100a95780635f801c7a146100d25780636056fe7e146100fd578063608c1fb41461011957806361b32e6e14610156578063b06e6f581461019d578063da5eeba9146101b9578063e85f2238146101e2578063e8e9d0451461020b578063f4df75e514610248575b600080fd5b3480156100b557600080fd5b506100d060048036036100cb9190810190611316565b610271565b005b3480156100de57600080fd5b506100e76103e1565b6040516100f4919061184d565b60405180910390f35b61011760048036036101129190810190611316565b6103e7565b005b34801561012557600080fd5b50610140600480360361013b91908101906112ed565b6104b7565b60405161014d919061184d565b60405180910390f35b34801561016257600080fd5b5061017d60048036036101789190810190611316565b61055a565b6040516101949b9a99989796959493929190611949565b60405180910390f35b6101b760048036036101b29190810190611316565b6108ec565b005b3480156101c557600080fd5b506101e060048036036101db91908101906113d2565b610b92565b005b3480156101ee57600080fd5b5061020960048036036102049190810190611316565b610c00565b005b34801561021757600080fd5b50610232600480360361022d9190810190611316565b610d70565b60405161023f9190611772565b60405180910390f35b34801561025457600080fd5b5061026f600480360361026a919081019061133f565b610d90565b005b6000600160008381526020019081526020016000209050600081600001541180156102a25750600054816000015411155b15156102e3576040517f08c379a00000000000000000000000000000000000000000000000000000000081526004016102da906117ad565b60405180910390fd5b6000151581600a0160019054906101000a900460ff16151514151561033d576040517f08c379a0000000000000000000000000000000000000000000000000000000008152600401610334906117cd565b60405180910390fd5b600181600a0160016101000a81548160ff0219169083151502179055507fbcc1d56483ed920bf7a26911c6f33623b43026231496114d05b84208ab3c93298282600a0160029054906101000a900473ffffffffffffffffffffffffffffffffffffffff1683600b0160009054906101000a900473ffffffffffffffffffffffffffffffffffffffff166040516103d593929190611868565b60405180910390a15050565b60005481565b60006001600083815260200190815260200160002090508060070160009054906101000a900460ff16158160070160006101000a81548160ff0219169083151502179055507fa6babdd1fa656bf606065250a64e094cba8030a47736bbd97325a1e9ae0c1019816000015482600a0160029054906101000a900473ffffffffffffffffffffffffffffffffffffffff1683600b0160009054906101000a900473ffffffffffffffffffffffffffffffffffffffff166040516104ab93929190611868565b60405180910390a15050565b600080600090506000600190505b60005481111515610550578373ffffffffffffffffffffffffffffffffffffffff1660016000838152602001908152602001600020600a0160029054906101000a900473ffffffffffffffffffffffffffffffffffffffff1673ffffffffffffffffffffffffffffffffffffffff1614156105435781806001019250505b80806001019150506104c5565b5080915050919050565b600080600061056761100f565b60006060600080600080600080600160008e81526020019081526020016000209050806000015481600101548260020154836003018460070160009054906101000a900460ff1685600801866009015487600a0160009054906101000a900460ff1688600a0160019054906101000a900460ff1689600a0160029054906101000a900473ffffffffffffffffffffffffffffffffffffffff168a600b0160009054906101000a900473ffffffffffffffffffffffffffffffffffffffff168760806040519081016040529081600082018054600181600116156101000203166002900480601f0160208091040260200160405190810160405280929190818152602001828054600181600116156101000203166002900480156106cb5780601f106106a0576101008083540402835291602001916106cb565b820191906000526020600020905b8154815290600101906020018083116106ae57829003601f168201915b5050505050815260200160018201548152602001600282018054600181600116156101000203166002900480601f0160208091040260200160405190810160405280929190818152602001828054600181600116156101000203166002900480156107775780601f1061074c57610100808354040283529160200191610777565b820191906000526020600020905b81548152906001019060200180831161075a57829003601f168201915b50505050508152602001600382018054600181600116156101000203166002900480601f0160208091040260200160405190810160405280929190818152602001828054600181600116156101000203166002900480156108195780601f106107ee57610100808354040283529160200191610819565b820191906000526020600020905b8154815290600101906020018083116107fc57829003601f168201915b5050505050815250509750858054600181600116156101000203166002900480601f0160208091040260200160405190810160405280929190818152602001828054600181600116156101000203166002900480156108b95780601f1061088e576101008083540402835291602001916108b9565b820191906000526020600020905b81548152906001019060200180831161089c57829003601f168201915b505050505095508191508090509b509b509b509b509b509b509b509b509b509b509b505091939597999b90929496989a50565b60006001600083815260200190815260200160002090506000816000015411801561091d5750600054816000015411155b151561095e576040517f08c379a0000000000000000000000000000000000000000000000000000000008152600401610955906117ad565b60405180910390fd5b3373ffffffffffffffffffffffffffffffffffffffff1681600a0160029054906101000a900473ffffffffffffffffffffffffffffffffffffffff1673ffffffffffffffffffffffffffffffffffffffff16141515156109f3576040517f08c379a00000000000000000000000000000000000000000000000000000000081526004016109ea9061178d565b60405180910390fd5b80600901543410151515610a3c576040517f08c379a0000000000000000000000000000000000000000000000000000000008152600401610a33906117ed565b60405180910390fd5b80600a0160029054906101000a900473ffffffffffffffffffffffffffffffffffffffff1673ffffffffffffffffffffffffffffffffffffffff166108fc349081150290604051600060405180830381858888f19350505050158015610aa6573d6000803e3d6000fd5b503381600a0160026101000a81548173ffffffffffffffffffffffffffffffffffffffff021916908373ffffffffffffffffffffffffffffffffffffffff16021790555060008160070160006101000a81548160ff0219169083151502179055507ffd8feede703ba888121683a699ff7bb2d92a89451cded3c812f723d3be5a93e3816000015482600a0160029054906101000a900473ffffffffffffffffffffffffffffffffffffffff1683600b0160009054906101000a900473ffffffffffffffffffffffffffffffffffffffff16604051610b8693929190611868565b60405180910390a15050565b600060016000848152602001908152602001600020905060008160000154111515610bf2576040517f08c379a0000000000000000000000000000000000000000000000000000000008152600401610be99061180d565b60405180910390fd5b818160020181905550505050565b600060016000838152602001908152602001600020905060008160000154118015610c315750600054816000015411155b1515610c72576040517f08c379a0000000000000000000000000000000000000000000000000000000008152600401610c69906117ad565b60405180910390fd5b6000151581600a0160009054906101000a900460ff161515141515610ccc576040517f08c379a0000000000000000000000000000000000000000000000000000000008152600401610cc39061182d565b60405180910390fd5b600181600a0160006101000a81548160ff0219169083151502179055507f5713def16fc0f29cecaca692e41bab2f9319d8263aec6af05e6847c7d06c91a48282600a0160029054906101000a900473ffffffffffffffffffffffffffffffffffffffff1683600b0160009054906101000a900473ffffffffffffffffffffffffffffffffffffffff16604051610d6493929190611868565b60405180910390a15050565b60036020528060005260406000206000915054906101000a900460ff1681565b6000808154809291906001019190505550600060016000868152602001908152602001600020905084816000018190555084816001018190555083816003016000820151816000019080519060200190610deb929190611038565b50602082015181600101556040820151816002019080519060200190610e12929190611038565b506060820151816003019080519060200190610e2f929190611038565b5090505060008160070160006101000a81548160ff02191690831515021790555082816008019080519060200190610e689291906110b8565b50818160090181905550600081600a0160006101000a81548160ff021916908315150217905550600081600a0160016101000a81548160ff0219169083151502179055503381600a0160026101000a81548173ffffffffffffffffffffffffffffffffffffffff021916908373ffffffffffffffffffffffffffffffffffffffff1602179055503381600b0160006101000a81548173ffffffffffffffffffffffffffffffffffffffff021916908373ffffffffffffffffffffffffffffffffffffffff1602179055507f3ad65d9518c085627dbca61fd4a2e636f4534a985148d2c7d7b7f119aee3f7e281600001548260010154836003018460070160009054906101000a900460ff1685600801866009015487600a0160009054906101000a900460ff1688600a0160019054906101000a900460ff1689600a0160029054906101000a900473ffffffffffffffffffffffffffffffffffffffff168a600b0160009054906101000a900473ffffffffffffffffffffffffffffffffffffffff166040516110009a9998979695949392919061189f565b60405180910390a15050505050565b608060405190810160405280606081526020016000815260200160608152602001606081525090565b828054600181600116156101000203166002900490600052602060002090601f016020900481019282601f1061107957805160ff19168380011785556110a7565b828001600101855582156110a7579182015b828111156110a657825182559160200191906001019061108b565b5b5090506110b49190611138565b5090565b828054600181600116156101000203166002900490600052602060002090601f016020900481019282601f106110f957805160ff1916838001178555611127565b82800160010185558215611127579182015b8281111561112657825182559160200191906001019061110b565b5b5090506111349190611138565b5090565b61115a91905b8082111561115657600081600090555060010161113e565b5090565b90565b60006111698235611b09565b905092915050565b600082601f830112151561118457600080fd5b813561119761119282611a2f565b611a02565b915080825260208301602083018583830111156111b357600080fd5b6111be838284611b25565b50505092915050565b600082601f83011215156111da57600080fd5b81356111ed6111e882611a5b565b611a02565b9150808252602083016020830185838301111561120957600080fd5b611214838284611b25565b50505092915050565b60006080828403121561122f57600080fd5b6112396080611a02565b9050600082013567ffffffffffffffff81111561125557600080fd5b61126184828501611171565b6000830152506020611275848285016112d9565b602083015250604082013567ffffffffffffffff81111561129557600080fd5b6112a184828501611171565b604083015250606082013567ffffffffffffffff8111156112c157600080fd5b6112cd84828501611171565b60608301525092915050565b60006112e58235611b1b565b905092915050565b6000602082840312156112ff57600080fd5b600061130d8482850161115d565b91505092915050565b60006020828403121561132857600080fd5b6000611336848285016112d9565b91505092915050565b6000806000806080858703121561135557600080fd5b6000611363878288016112d9565b945050602085013567ffffffffffffffff81111561138057600080fd5b61138c8782880161121d565b935050604085013567ffffffffffffffff8111156113a957600080fd5b6113b5878288016111c7565b92505060606113c6878288016112d9565b91505092959194509250565b600080604083850312156113e557600080fd5b60006113f3858286016112d9565b9250506020611404858286016112d9565b9150509250929050565b61141781611ac1565b82525050565b61142681611aaf565b82525050565b61143581611ad3565b82525050565b600061144682611aa4565b80845261145a816020860160208601611b34565b61146381611b67565b602085010191505092915050565b600061147c82611a99565b808452611490816020860160208601611b34565b61149981611b67565b602085010191505092915050565b6000815460018116600081146114c457600181146114e457611525565b607f600283041680865260ff198316602087015260408601935050611525565b600282048086526020860195506114fa85611a87565b60005b8281101561151c578154818901526001820191506020810190506114fd565b80880195505050505b505092915050565b6000601882527f596f7520616c7265616479206f776e20746869732067656d00000000000000006020830152604082019050919050565b6000600e82527f496e76616c69642067656d2049440000000000000000000000000000000000006020830152604082019050919050565b6000601482527f47656d20616c7265616479207265706c616365640000000000000000000000006020830152604082019050919050565b6000601282527f496e73756666696369656e742066756e647300000000000000000000000000006020830152604082019050919050565b6000601382527f47656d20646f6573206e6f742065786973742e000000000000000000000000006020830152604082019050919050565b6000601082527f47656d20616c72656164792075736564000000000000000000000000000000006020830152604082019050919050565b600060808301600083015184820360008601526116948282611471565b91505060208301516116a96020860182611763565b50604083015184820360408601526116c18282611471565b915050606083015184820360608601526116db8282611471565b9150508091505092915050565b6000608083016000808401858303600087015261170583826114a7565b9250506001840154905061171881611b78565b6117256020870182611763565b5060028401858303604087015261173c83826114a7565b92505060038401858303606087015261175583826114a7565b925050819250505092915050565b61176c81611aff565b82525050565b6000602082019050611787600083018461142c565b92915050565b600060208201905081810360008301526117a68161152d565b9050919050565b600060208201905081810360008301526117c681611564565b9050919050565b600060208201905081810360008301526117e68161159b565b9050919050565b60006020820190508181036000830152611806816115d2565b9050919050565b6000602082019050818103600083015261182681611609565b9050919050565b6000602082019050818103600083015261184681611640565b9050919050565b60006020820190506118626000830184611763565b92915050565b600060608201905061187d6000830186611763565b61188a602083018561140e565b611897604083018461140e565b949350505050565b6000610140820190506118b5600083018d611763565b6118c2602083018c611763565b81810360408301526118d4818b6116e8565b90506118e3606083018a61142c565b81810360808301526118f581896114a7565b905061190460a0830188611763565b61191160c083018761142c565b61191e60e083018661142c565b61192c61010083018561140e565b61193a61012083018461140e565b9b9a5050505050505050505050565b60006101608201905061195f600083018e611763565b61196c602083018d611763565b611979604083018c611763565b818103606083015261198b818b611677565b905061199a608083018a61142c565b81810360a08301526119ac818961143b565b90506119bb60c0830188611763565b6119c860e083018761142c565b6119d661010083018661142c565b6119e461012083018561141d565b6119f261014083018461141d565b9c9b505050505050505050505050565b6000604051905081810181811067ffffffffffffffff82111715611a2557600080fd5b8060405250919050565b600067ffffffffffffffff821115611a4657600080fd5b601f19601f8301169050602081019050919050565b600067ffffffffffffffff821115611a7257600080fd5b601f19601f8301169050602081019050919050565b60008160005260206000209050919050565b600081519050919050565b600081519050919050565b6000611aba82611adf565b9050919050565b6000611acc82611adf565b9050919050565b60008115159050919050565b600073ffffffffffffffffffffffffffffffffffffffff82169050919050565b6000819050919050565b6000611b1482611adf565b9050919050565b6000819050919050565b82818337600083830152505050565b60005b83811015611b52578082015181840152602081019050611b37565b83811115611b61576000848401525b50505050565b6000601f19601f8301169050919050565b600060018204905091905056fea265627a7a7230582075b698838597a8c2ab81b0ab2258ff8f202a94dc75e78051557ec44a0c76932c6c6578706572696d656e74616cf50037",
  "source": "pragma solidity >=0.4.21 <0.6.0;\r\npragma experimental ABIEncoderV2;  // j ABI kdol engedlyezse\r\n\r\ninterface IGemstoneExtraction {\r\n    function minedGems(uint) external view returns (uint id, string memory gemType, uint weight, uint height, uint width, uint price, string memory miningLocation, uint miningYear, bool selected, string memory extractionMethod, address payable owner, bool purchased);\r\n}\r\n\r\ncontract GemstoneSelecting {\r\n    uint public selectedGemCount = 0;\r\n    mapping (uint => SelectedGem) private selectedGems;\r\n    IGemstoneExtraction gemstoneExtraction;\r\n    mapping(uint => bool) public selectedMinedGems;\r\n\r\n    struct GemDetails {\r\n        string size;\r\n        uint carat;\r\n        string gemType; \r\n        string color;  \r\n    }\r\n\r\n    struct SelectedGem {\r\n        uint id;\r\n        uint minedGemId;\r\n        uint previousGemId;\r\n        GemDetails details;\r\n        bool forSale;\r\n        string fileURL;\r\n        uint price;\r\n        bool used;\r\n        bool replaced;\r\n        address payable owner;\r\n        address payable gemCutter;\r\n    }\r\n\r\n    event GemSelecting(\r\n        uint id,\r\n        uint minedGemId,\r\n        GemDetails details,\r\n        bool forSale,\r\n        string fileURL,\r\n        uint price,\r\n        bool used,\r\n        bool replaced,\r\n        address payable owner,\r\n        address payable gemCutter\r\n    );\r\n\r\n    event PolishGem(\r\n        uint id,\r\n        address payable owner,\r\n        address payable gemCutter\r\n    );\r\n\r\n    event MarkGemAsUsed(\r\n        uint id,\r\n        address payable owner,\r\n        address payable gemCutter\r\n    );\r\n\r\n    event MarkGemAsReplaced(\r\n        uint id,\r\n        address payable owner,\r\n        address payable gemCutter\r\n    );\r\n\r\n    event TransferGemOwnership(\r\n        uint id,\r\n        address payable owner,\r\n        address payable gemCutter\r\n    );\r\n\r\n    constructor(address _gemstoneExtractionAddress) public {\r\n        gemstoneExtraction = IGemstoneExtraction(_gemstoneExtractionAddress);\r\n    }\r\n\r\n    function setPreviousGemId(uint gemId, uint previousGemId) public {\r\n        SelectedGem storage gem = selectedGems[gemId];\r\n        require(gem.id > 0, \"Gem does not exist.\");\r\n        gem.previousGemId = previousGemId;\r\n    }\r\n\r\n    function gemSelecting(\r\n        uint _minedGemId,\r\n        GemDetails memory _details,\r\n        string memory _fileURL,\r\n        uint _price\r\n    ) public {\r\n        selectedGemCount++;\r\n        SelectedGem storage gem = selectedGems[_minedGemId];\r\n        gem.id = _minedGemId;\r\n        gem.minedGemId = _minedGemId;\r\n        gem.details = _details;\r\n        gem.forSale = false;\r\n        gem.fileURL = _fileURL;\r\n        gem.price = _price;\r\n        gem.used = false;\r\n        gem.replaced = false;\r\n        gem.owner = msg.sender;\r\n        gem.gemCutter = msg.sender;\r\n\r\n        emit GemSelecting(\r\n            gem.id,\r\n            gem.minedGemId,\r\n            gem.details,\r\n            gem.forSale,\r\n            gem.fileURL,\r\n            gem.price,\r\n            gem.used,\r\n            gem.replaced,\r\n            gem.owner,\r\n            gem.gemCutter\r\n        );\r\n    }\r\n\r\n    function polishGem(uint _id) public payable {\r\n        SelectedGem storage _selectedGem = selectedGems[_id];\r\n        _selectedGem.forSale = !_selectedGem.forSale;\r\n\r\n        emit PolishGem(\r\n            _selectedGem.id,\r\n            _selectedGem.owner,\r\n            _selectedGem.gemCutter\r\n        );\r\n    }\r\n\r\n    function markGemAsUsed(uint _id) public {\r\n        SelectedGem storage _selectedGem = selectedGems[_id];\r\n        require(_selectedGem.id > 0 && _selectedGem.id <= selectedGemCount, \"Invalid gem ID\");\r\n        require(_selectedGem.used == false, \"Gem already used\");\r\n        _selectedGem.used = true;\r\n\r\n        emit MarkGemAsUsed(\r\n            _id,\r\n            _selectedGem.owner,\r\n            _selectedGem.gemCutter\r\n        );\r\n    }\r\n\r\n    function markGemAsReplaced(uint _id) public {\r\n        SelectedGem storage _selectedGem = selectedGems[_id];\r\n        require(_selectedGem.id > 0 && _selectedGem.id <= selectedGemCount, \"Invalid gem ID\");\r\n        require(_selectedGem.replaced == false, \"Gem already replaced\");\r\n        _selectedGem.replaced = true;\r\n\r\n        emit MarkGemAsReplaced(\r\n            _id,\r\n            _selectedGem.owner,\r\n            _selectedGem.gemCutter\r\n        );\r\n    }\r\n\r\n    function getSelectedGemsCountByOwner(address _owner) public view returns (uint) {\r\n        uint count = 0;\r\n        for (uint i = 1; i <= selectedGemCount; i++) {\r\n            if (selectedGems[i].owner == _owner) {\r\n                count++;\r\n            }\r\n        }\r\n        return count;\r\n    }\r\n\r\n    function transferGemOwnership(uint _id) public payable {\r\n        SelectedGem storage _selectedGem = selectedGems[_id];\r\n        require(_selectedGem.id > 0 && _selectedGem.id <= selectedGemCount, \"Invalid gem ID\");\r\n        require(_selectedGem.owner != msg.sender, \"You already own this gem\");\r\n        require(msg.value >= _selectedGem.price, \"Insufficient funds\");\r\n\r\n        _selectedGem.owner.transfer(msg.value);\r\n        _selectedGem.owner = msg.sender;\r\n        _selectedGem.forSale = false;\r\n\r\n        emit TransferGemOwnership(\r\n            _selectedGem.id,\r\n            _selectedGem.owner,\r\n            _selectedGem.gemCutter\r\n        );\r\n    }\r\n\r\n    function getSelectedGem(uint _id) public view returns (\r\n        uint id,\r\n        uint minedGemId,\r\n        uint previousGemId,\r\n        GemDetails memory details,\r\n        bool forSale,\r\n        string memory fileURL,\r\n        uint price,\r\n        bool used,\r\n        bool replaced,\r\n        address owner,\r\n        address gemCutter\r\n    ) {\r\n        SelectedGem storage gem = selectedGems[_id];\r\n        return (\r\n            gem.id,\r\n            gem.minedGemId,\r\n            gem.previousGemId,\r\n            gem.details,\r\n            gem.forSale,\r\n            gem.fileURL,\r\n            gem.price,\r\n            gem.used,\r\n            gem.replaced,\r\n            gem.owner,\r\n            gem.gemCutter\r\n        );\r\n    }\r\n}\r\n",
  "sourcePath": "C:/Users/berke/asd/jewRoundx/src/contracts/GemstoneSelecting.sol",
  "compiler": {
    "name": "solc",
    "version": "0.5.0+commit.1d4f565a.Emscripten.clang"
  },
  "schemaVersion": "3.0.1",
  "updatedAt": "2024-11-21T13:57:56.017Z",
  "devdoc": {
    "methods": {}
  },
  "userdoc": {
    "methods": {}
  }
}