{
  "contractName": "GemstoneSelecting",
  "abi": [
    {
      "constant": true,
      "inputs": [],
      "name": "selectedGemCount",
      "outputs": [
        {
          "name": "",
          "type": "uint256"
        }
      ],
      "payable": false,
      "stateMutability": "view",
      "type": "function",
      "signature": "0x5f801c7a"
    },
    {
      "constant": true,
      "inputs": [
        {
          "name": "",
          "type": "uint256"
        }
      ],
      "name": "selectedGems",
      "outputs": [
        {
          "name": "id",
          "type": "uint256"
        },
        {
          "name": "minedGemId",
          "type": "uint256"
        },
        {
          "name": "size",
          "type": "string"
        },
        {
          "name": "carat",
          "type": "uint256"
        },
        {
          "name": "color",
          "type": "string"
        },
        {
          "name": "gemType",
          "type": "string"
        },
        {
          "name": "polishing",
          "type": "bool"
        },
        {
          "name": "fileURL",
          "type": "string"
        },
        {
          "name": "price",
          "type": "uint256"
        },
        {
          "name": "used",
          "type": "bool"
        },
        {
          "name": "owner",
          "type": "address"
        }
      ],
      "payable": false,
      "stateMutability": "view",
      "type": "function",
      "signature": "0xcee07c4b"
    },
    {
      "constant": true,
      "inputs": [
        {
          "name": "",
          "type": "uint256"
        }
      ],
      "name": "selectedMinedGems",
      "outputs": [
        {
          "name": "",
          "type": "bool"
        }
      ],
      "payable": false,
      "stateMutability": "view",
      "type": "function",
      "signature": "0xe8e9d045"
    },
    {
      "inputs": [
        {
          "name": "_gemstoneExtractionAddress",
          "type": "address"
        }
      ],
      "payable": false,
      "stateMutability": "nonpayable",
      "type": "constructor",
      "signature": "constructor"
    },
    {
      "anonymous": false,
      "inputs": [
        {
          "indexed": false,
          "name": "id",
          "type": "uint256"
        },
        {
          "indexed": false,
          "name": "minedGemId",
          "type": "uint256"
        },
        {
          "indexed": false,
          "name": "size",
          "type": "string"
        },
        {
          "indexed": false,
          "name": "carat",
          "type": "uint256"
        },
        {
          "indexed": false,
          "name": "color",
          "type": "string"
        },
        {
          "indexed": false,
          "name": "gemType",
          "type": "string"
        },
        {
          "indexed": false,
          "name": "polishing",
          "type": "bool"
        },
        {
          "indexed": false,
          "name": "fileURL",
          "type": "string"
        },
        {
          "indexed": false,
          "name": "price",
          "type": "uint256"
        },
        {
          "indexed": false,
          "name": "used",
          "type": "bool"
        },
        {
          "indexed": false,
          "name": "owner",
          "type": "address"
        }
      ],
      "name": "GemSelecting",
      "type": "event",
      "signature": "0xa44ca712d78e654b4e34e8f0c3d1cb6fe1698be98047fe3b0526f991db9b3805"
    },
    {
      "constant": false,
      "inputs": [
        {
          "name": "_minedGemId",
          "type": "uint256"
        },
        {
          "name": "_size",
          "type": "string"
        },
        {
          "name": "_carat",
          "type": "uint256"
        },
        {
          "name": "_color",
          "type": "string"
        },
        {
          "name": "_gemtype",
          "type": "string"
        },
        {
          "name": "_polishing",
          "type": "bool"
        },
        {
          "name": "_fileURL",
          "type": "string"
        },
        {
          "name": "_price",
          "type": "uint256"
        }
      ],
      "name": "gemSelecting",
      "outputs": [],
      "payable": false,
      "stateMutability": "nonpayable",
      "type": "function",
      "signature": "0x4b104b9e"
    },
    {
      "constant": false,
      "inputs": [
        {
          "name": "_id",
          "type": "uint256"
        }
      ],
      "name": "polishGem",
      "outputs": [],
      "payable": true,
      "stateMutability": "payable",
      "type": "function",
      "signature": "0x6056fe7e"
    },
    {
      "constant": false,
      "inputs": [
        {
          "name": "_id",
          "type": "uint256"
        }
      ],
      "name": "markGemAsUsed",
      "outputs": [],
      "payable": false,
      "stateMutability": "nonpayable",
      "type": "function",
      "signature": "0xe85f2238"
    },
    {
      "constant": true,
      "inputs": [
        {
          "name": "_owner",
          "type": "address"
        }
      ],
      "name": "getSelectedGemsCountByOwner",
      "outputs": [
        {
          "name": "",
          "type": "uint256"
        }
      ],
      "payable": false,
      "stateMutability": "view",
      "type": "function",
      "signature": "0x608c1fb4"
    }
  ],
  "bytecode": "0x60806040526000805534801561001457600080fd5b506040516020806118608339810180604052602081101561003457600080fd5b810190808051906020019092919050505080600260006101000a81548173ffffffffffffffffffffffffffffffffffffffff021916908373ffffffffffffffffffffffffffffffffffffffff160217905550506117ca806100966000396000f3fe608060405260043610610083576000357c0100000000000000000000000000000000000000000000000000000000900463ffffffff1680634b104b9e146100885780635f801c7a146103405780636056fe7e1461036b578063608c1fb414610399578063cee07c4b146103fe578063e85f22381461065b578063e8e9d04514610696575b600080fd5b34801561009457600080fd5b5061033e60048036036101008110156100ac57600080fd5b8101908080359060200190929190803590602001906401000000008111156100d357600080fd5b8201836020820111156100e557600080fd5b8035906020019184600183028401116401000000008311171561010757600080fd5b91908080601f016020809104026020016040519081016040528093929190818152602001838380828437600081840152601f19601f820116905080830192505050505050509192919290803590602001909291908035906020019064010000000081111561017457600080fd5b82018360208201111561018657600080fd5b803590602001918460018302840111640100000000831117156101a857600080fd5b91908080601f016020809104026020016040519081016040528093929190818152602001838380828437600081840152601f19601f8201169050808301925050505050505091929192908035906020019064010000000081111561020b57600080fd5b82018360208201111561021d57600080fd5b8035906020019184600183028401116401000000008311171561023f57600080fd5b91908080601f016020809104026020016040519081016040528093929190818152602001838380828437600081840152601f19601f820116905080830192505050505050509192919290803515159060200190929190803590602001906401000000008111156102ae57600080fd5b8201836020820111156102c057600080fd5b803590602001918460018302840111640100000000831117156102e257600080fd5b91908080601f016020809104026020016040519081016040528093929190818152602001838380828437600081840152601f19601f820116905080830192505050505050509192919290803590602001909291905050506106e9565b005b34801561034c57600080fd5b50610355610af8565b6040518082815260200191505060405180910390f35b6103976004803603602081101561038157600080fd5b8101908080359060200190929190505050610afe565b005b3480156103a557600080fd5b506103e8600480360360208110156103bc57600080fd5b81019080803573ffffffffffffffffffffffffffffffffffffffff169060200190929190505050610f02565b6040518082815260200191505060405180910390f35b34801561040a57600080fd5b506104376004803603602081101561042157600080fd5b8101908080359060200190929190505050610fa5565b604051808c81526020018b8152602001806020018a815260200180602001806020018915151515815260200180602001888152602001871515151581526020018673ffffffffffffffffffffffffffffffffffffffff1673ffffffffffffffffffffffffffffffffffffffff16815260200185810385528e818151815260200191508051906020019080838360005b838110156104e15780820151818401526020810190506104c6565b50505050905090810190601f16801561050e5780820380516001836020036101000a031916815260200191505b5085810384528c818151815260200191508051906020019080838360005b8381101561054757808201518184015260208101905061052c565b50505050905090810190601f1680156105745780820380516001836020036101000a031916815260200191505b5085810383528b818151815260200191508051906020019080838360005b838110156105ad578082015181840152602081019050610592565b50505050905090810190601f1680156105da5780820380516001836020036101000a031916815260200191505b50858103825289818151815260200191508051906020019080838360005b838110156106135780820151818401526020810190506105f8565b50505050905090810190601f1680156106405780820380516001836020036101000a031916815260200191505b509f5050505050505050505050505050505060405180910390f35b34801561066757600080fd5b506106946004803603602081101561067e57600080fd5b8101908080359060200190929190505050611299565b005b3480156106a257600080fd5b506106cf600480360360208110156106b957600080fd5b81019080803590602001909291905050506116d9565b604051808215151515815260200191505060405180910390f35b60008081548092919060010191905055506101606040519081016040528089815260200189815260200188815260200187815260200186815260200185815260200184151581526020018381526020018281526020016000151581526020013373ffffffffffffffffffffffffffffffffffffffff16815250600160008a8152602001908152602001600020600082015181600001556020820151816001015560408201518160020190805190602001906107a59291906116f9565b506060820151816003015560808201518160040190805190602001906107cc9291906116f9565b5060a08201518160050190805190602001906107e99291906116f9565b5060c08201518160060160006101000a81548160ff02191690831515021790555060e08201518160070190805190602001906108269291906116f9565b5061010082015181600801556101208201518160090160006101000a81548160ff0219169083151502179055506101408201518160090160016101000a81548173ffffffffffffffffffffffffffffffffffffffff021916908373ffffffffffffffffffffffffffffffffffffffff1602179055509050507fa44ca712d78e654b4e34e8f0c3d1cb6fe1698be98047fe3b0526f991db9b3805888989898989898989600033604051808c81526020018b8152602001806020018a815260200180602001806020018915151515815260200180602001888152602001871515151581526020018673ffffffffffffffffffffffffffffffffffffffff1673ffffffffffffffffffffffffffffffffffffffff16815260200185810385528e818151815260200191508051906020019080838360005b8381101561097557808201518184015260208101905061095a565b50505050905090810190601f1680156109a25780820380516001836020036101000a031916815260200191505b5085810384528c818151815260200191508051906020019080838360005b838110156109db5780820151818401526020810190506109c0565b50505050905090810190601f168015610a085780820380516001836020036101000a031916815260200191505b5085810383528b818151815260200191508051906020019080838360005b83811015610a41578082015181840152602081019050610a26565b50505050905090810190601f168015610a6e5780820380516001836020036101000a031916815260200191505b50858103825289818151815260200191508051906020019080838360005b83811015610aa7578082015181840152602081019050610a8c565b50505050905090810190601f168015610ad45780820380516001836020036101000a031916815260200191505b509f5050505050505050505050505050505060405180910390a15050505050505050565b60005481565b60006001600083815260200190815260200160002090503373ffffffffffffffffffffffffffffffffffffffff168160090160019054906101000a900473ffffffffffffffffffffffffffffffffffffffff1673ffffffffffffffffffffffffffffffffffffffff16141515610bdc576040517f08c379a00000000000000000000000000000000000000000000000000000000081526004018080602001828103825260178152602001807f43616c6c6572206973206e6f7420746865206f776e657200000000000000000081525060200191505060405180910390fd5b60018160060160006101000a81548160ff0219169083151502179055507fa44ca712d78e654b4e34e8f0c3d1cb6fe1698be98047fe3b0526f991db9b3805816000015482600101548360020184600301548560040186600501600188600701896008015460008b60090160019054906101000a900473ffffffffffffffffffffffffffffffffffffffff16604051808c81526020018b8152602001806020018a815260200180602001806020018915151515815260200180602001888152602001871515151581526020018673ffffffffffffffffffffffffffffffffffffffff1673ffffffffffffffffffffffffffffffffffffffff16815260200185810385528e818154600181600116156101000203166002900481526020019150805460018160011615610100020316600290048015610d5a5780601f10610d2f57610100808354040283529160200191610d5a565b820191906000526020600020905b815481529060010190602001808311610d3d57829003601f168201915b505085810384528c818154600181600116156101000203166002900481526020019150805460018160011615610100020316600290048015610ddd5780601f10610db257610100808354040283529160200191610ddd565b820191906000526020600020905b815481529060010190602001808311610dc057829003601f168201915b505085810383528b818154600181600116156101000203166002900481526020019150805460018160011615610100020316600290048015610e605780601f10610e3557610100808354040283529160200191610e60565b820191906000526020600020905b815481529060010190602001808311610e4357829003601f168201915b5050858103825289818154600181600116156101000203166002900481526020019150805460018160011615610100020316600290048015610ee35780601f10610eb857610100808354040283529160200191610ee3565b820191906000526020600020905b815481529060010190602001808311610ec657829003601f168201915b50509f5050505050505050505050505050505060405180910390a15050565b600080600090506000600190505b60005481111515610f9b578373ffffffffffffffffffffffffffffffffffffffff166001600083815260200190815260200160002060090160019054906101000a900473ffffffffffffffffffffffffffffffffffffffff1673ffffffffffffffffffffffffffffffffffffffff161415610f8e5781806001019250505b8080600101915050610f10565b5080915050919050565b6001602052806000526040600020600091509050806000015490806001015490806002018054600181600116156101000203166002900480601f01602080910402602001604051908101604052809291908181526020018280546001816001161561010002031660029004801561105d5780601f106110325761010080835404028352916020019161105d565b820191906000526020600020905b81548152906001019060200180831161104057829003601f168201915b505050505090806003015490806004018054600181600116156101000203166002900480601f0160208091040260200160405190810160405280929190818152602001828054600181600116156101000203166002900480156111015780601f106110d657610100808354040283529160200191611101565b820191906000526020600020905b8154815290600101906020018083116110e457829003601f168201915b505050505090806005018054600181600116156101000203166002900480601f01602080910402602001604051908101604052809291908181526020018280546001816001161561010002031660029004801561119f5780601f106111745761010080835404028352916020019161119f565b820191906000526020600020905b81548152906001019060200180831161118257829003601f168201915b5050505050908060060160009054906101000a900460ff1690806007018054600181600116156101000203166002900480601f0160208091040260200160405190810160405280929190818152602001828054600181600116156101000203166002900480156112505780601f1061122557610100808354040283529160200191611250565b820191906000526020600020905b81548152906001019060200180831161123357829003601f168201915b5050505050908060080154908060090160009054906101000a900460ff16908060090160019054906101000a900473ffffffffffffffffffffffffffffffffffffffff1690508b565b6000600160008381526020019081526020016000209050600081600001541180156112ca5750600054816000015411155b151561133e576040517f08c379a000000000000000000000000000000000000000000000000000000000815260040180806020018281038252600e8152602001807f496e76616c69642067656d20494400000000000000000000000000000000000081525060200191505060405180910390fd5b600015158160090160009054906101000a900460ff1615151415156113cb576040517f08c379a00000000000000000000000000000000000000000000000000000000081526004018080602001828103825260108152602001807f47656d20616c726561647920757365640000000000000000000000000000000081525060200191505060405180910390fd5b60018160090160006101000a81548160ff0219169083151502179055507fa44ca712d78e654b4e34e8f0c3d1cb6fe1698be98047fe3b0526f991db9b3805828260010154836002018460030154856004018660050160018860070189600801548a60090160009054906101000a900460ff1633604051808c81526020018b8152602001806020018a815260200180602001806020018915151515815260200180602001888152602001871515151581526020018673ffffffffffffffffffffffffffffffffffffffff1673ffffffffffffffffffffffffffffffffffffffff16815260200185810385528e8181546001816001161561010002031660029004815260200191508054600181600116156101000203166002900480156115315780601f1061150657610100808354040283529160200191611531565b820191906000526020600020905b81548152906001019060200180831161151457829003601f168201915b505085810384528c8181546001816001161561010002031660029004815260200191508054600181600116156101000203166002900480156115b45780601f10611589576101008083540402835291602001916115b4565b820191906000526020600020905b81548152906001019060200180831161159757829003601f168201915b505085810383528b8181546001816001161561010002031660029004815260200191508054600181600116156101000203166002900480156116375780601f1061160c57610100808354040283529160200191611637565b820191906000526020600020905b81548152906001019060200180831161161a57829003601f168201915b50508581038252898181546001816001161561010002031660029004815260200191508054600181600116156101000203166002900480156116ba5780601f1061168f576101008083540402835291602001916116ba565b820191906000526020600020905b81548152906001019060200180831161169d57829003601f168201915b50509f5050505050505050505050505050505060405180910390a15050565b60036020528060005260406000206000915054906101000a900460ff1681565b828054600181600116156101000203166002900490600052602060002090601f016020900481019282601f1061173a57805160ff1916838001178555611768565b82800160010185558215611768579182015b8281111561176757825182559160200191906001019061174c565b5b5090506117759190611779565b5090565b61179b91905b8082111561179757600081600090555060010161177f565b5090565b9056fea165627a7a723058201e5b24085c55c24685c6086f4c9ff7654ec01188bc8e37c3927912c8fb2802380029",
  "source": "pragma solidity >=0.4.21 <0.6.0;\nimport \"./GemstoneExtraction.sol\";\n\ninterface IGemstoneExtraction {\n    function minedGems(uint) external view returns (uint id, string memory gemType, uint weight, uint height, uint width, uint price, string memory miningLocation, uint miningYear, bool selected, string memory extractionMethod, address payable owner, bool purchased);\n}\n\ncontract GemstoneSelecting {\n    uint public selectedGemCount = 0;\n    mapping (uint => SelectedGem) public selectedGems;\n    IGemstoneExtraction gemstoneExtraction;\n    mapping(uint => bool) public selectedMinedGems;\n\n    struct SelectedGem {\n        uint id;\n        uint minedGemId;\n        string size;\n        uint carat;\n        string color;\n        string gemType;\n        bool polishing;\n        string fileURL;\n        uint price;\n        bool used;\n        address owner;\n    }\n\n    event GemSelecting(\n        uint id,\n        uint minedGemId,\n        string size,\n        uint carat,\n        string color,\n        string gemType,\n        bool polishing,\n        string fileURL,\n        uint price,\n        bool used,\n        address owner\n    );\n\n    constructor(address _gemstoneExtractionAddress) public {\n        gemstoneExtraction = IGemstoneExtraction(_gemstoneExtractionAddress);\n    }\n\n    function gemSelecting(\n        uint _minedGemId,\n        string memory _size,\n        uint _carat,\n        string memory _color,\n        string memory _gemtype,\n        bool _polishing,\n        string memory _fileURL,\n        uint _price\n    ) public {\n        selectedGemCount++;\n        selectedGems[_minedGemId] = SelectedGem(\n            _minedGemId,\n            _minedGemId,\n            _size,\n            _carat,\n            _color,\n            _gemtype,\n            _polishing,\n            _fileURL,\n            _price,\n            false,\n            msg.sender\n        );\n\n        emit GemSelecting(\n            _minedGemId,\n            _minedGemId,\n            _size,\n            _carat,\n            _color,\n            _gemtype,\n            _polishing,\n            _fileURL,\n            _price,\n            false,\n            msg.sender\n        );\n    }\n\n    function polishGem(uint _id) public payable {\n        SelectedGem storage _selectedGem = selectedGems[_id];\n        require(_selectedGem.owner == msg.sender, \"Caller is not the owner\");\n        _selectedGem.polishing = true;\n\n        emit GemSelecting(\n            _selectedGem.id, \n            _selectedGem.minedGemId, \n            _selectedGem.size,\n            _selectedGem.carat, \n            _selectedGem.color, \n            _selectedGem.gemType, \n            true, \n            _selectedGem.fileURL,\n            _selectedGem.price, \n            false,\n            _selectedGem.owner\n        );\n    }\n\n    function markGemAsUsed(uint _id) public {\n        SelectedGem storage _selectedGem = selectedGems[_id];\n        require(_selectedGem.id > 0 && _selectedGem.id <= selectedGemCount, \"Invalid gem ID\");\n        require(_selectedGem.used == false, \"Gem already used\");\n        _selectedGem.used = true;\n\n        emit GemSelecting(_id, _selectedGem.minedGemId, _selectedGem.size, _selectedGem.carat,  _selectedGem.color, _selectedGem.gemType, true,_selectedGem.fileURL, _selectedGem.price, _selectedGem.used, msg.sender);\n    }\n\n    function getSelectedGemsCountByOwner(address _owner) public view returns (uint) {\n        uint count = 0;\n        for (uint i = 1; i <= selectedGemCount; i++) {\n            if (selectedGems[i].owner == _owner) {\n                count++;\n            }\n        }\n        return count;\n    }\n}\n",
  "sourcePath": "/home/berkeanna/folder/jewRoundx/src/contracts/GemstoneSelecting.sol",
  "compiler": {
    "name": "solc",
    "version": "0.5.0+commit.1d4f565a.Emscripten.clang"
  },
  "schemaVersion": "3.0.1",
  "updatedAt": "2024-07-15T08:35:46.392Z",
  "devdoc": {
    "methods": {}
  },
  "userdoc": {
    "methods": {}
  }
}