{
  "contractName": "GemstoneExtraction",
  "abi": [
    {
      "constant": true,
      "inputs": [],
      "name": "name",
      "outputs": [
        {
          "name": "",
          "type": "string"
        }
      ],
      "payable": false,
      "stateMutability": "view",
      "type": "function",
      "signature": "0x06fdde03"
    },
    {
      "constant": true,
      "inputs": [
        {
          "name": "",
          "type": "uint256"
        }
      ],
      "name": "minedGems",
      "outputs": [
        {
          "name": "id",
          "type": "uint256"
        },
        {
          "name": "gemType",
          "type": "string"
        },
        {
          "name": "weight",
          "type": "uint256"
        },
        {
          "name": "height",
          "type": "uint256"
        },
        {
          "name": "width",
          "type": "uint256"
        },
        {
          "name": "price",
          "type": "uint256"
        },
        {
          "name": "miningLocation",
          "type": "string"
        },
        {
          "name": "miningYear",
          "type": "uint256"
        },
        {
          "name": "selected",
          "type": "bool"
        },
        {
          "name": "extractionMethod",
          "type": "string"
        },
        {
          "name": "owner",
          "type": "address"
        },
        {
          "name": "purchased",
          "type": "bool"
        }
      ],
      "payable": false,
      "stateMutability": "view",
      "type": "function",
      "signature": "0x1e166c4e"
    },
    {
      "constant": true,
      "inputs": [],
      "name": "minedGemCount",
      "outputs": [
        {
          "name": "",
          "type": "uint256"
        }
      ],
      "payable": false,
      "stateMutability": "view",
      "type": "function",
      "signature": "0xd0cfe11e"
    },
    {
      "inputs": [],
      "payable": false,
      "stateMutability": "nonpayable",
      "type": "constructor",
      "signature": "constructor"
    },
    {
      "anonymous": false,
      "inputs": [
        {
          "indexed": false,
          "name": "id",
          "type": "uint256"
        },
        {
          "indexed": false,
          "name": "gemType",
          "type": "string"
        },
        {
          "indexed": false,
          "name": "weight",
          "type": "uint256"
        },
        {
          "indexed": false,
          "name": "height",
          "type": "uint256"
        },
        {
          "indexed": false,
          "name": "width",
          "type": "uint256"
        },
        {
          "indexed": false,
          "name": "price",
          "type": "uint256"
        },
        {
          "indexed": false,
          "name": "miningLocation",
          "type": "string"
        },
        {
          "indexed": false,
          "name": "miningYear",
          "type": "uint256"
        },
        {
          "indexed": false,
          "name": "selected",
          "type": "bool"
        },
        {
          "indexed": false,
          "name": "extractionMethod",
          "type": "string"
        },
        {
          "indexed": false,
          "name": "owner",
          "type": "address"
        },
        {
          "indexed": false,
          "name": "purchasedvv",
          "type": "bool"
        }
      ],
      "name": "GemMining",
      "type": "event",
      "signature": "0x7cf3fc69064d544082216159ffd21fd0584e758a1b639891d69fea8f0097895a"
    },
    {
      "anonymous": false,
      "inputs": [
        {
          "indexed": false,
          "name": "id",
          "type": "uint256"
        },
        {
          "indexed": false,
          "name": "gemType",
          "type": "string"
        },
        {
          "indexed": false,
          "name": "weight",
          "type": "uint256"
        },
        {
          "indexed": false,
          "name": "height",
          "type": "uint256"
        },
        {
          "indexed": false,
          "name": "width",
          "type": "uint256"
        },
        {
          "indexed": false,
          "name": "price",
          "type": "uint256"
        },
        {
          "indexed": false,
          "name": "miningLocation",
          "type": "string"
        },
        {
          "indexed": false,
          "name": "miningYear",
          "type": "uint256"
        },
        {
          "indexed": false,
          "name": "selected",
          "type": "bool"
        },
        {
          "indexed": false,
          "name": "extractionMethod",
          "type": "string"
        },
        {
          "indexed": false,
          "name": "owner",
          "type": "address"
        },
        {
          "indexed": false,
          "name": "purchased",
          "type": "bool"
        }
      ],
      "name": "GemPurchasing",
      "type": "event",
      "signature": "0x6d874cf5de301a97f4b68eea5e7e9f2f430d1c78a5ec035c83fb7d0f3b2ab179"
    },
    {
      "anonymous": false,
      "inputs": [
        {
          "indexed": false,
          "name": "id",
          "type": "uint256"
        },
        {
          "indexed": false,
          "name": "gemType",
          "type": "string"
        },
        {
          "indexed": false,
          "name": "weight",
          "type": "uint256"
        },
        {
          "indexed": false,
          "name": "height",
          "type": "uint256"
        },
        {
          "indexed": false,
          "name": "width",
          "type": "uint256"
        },
        {
          "indexed": false,
          "name": "price",
          "type": "uint256"
        },
        {
          "indexed": false,
          "name": "miningLocation",
          "type": "string"
        },
        {
          "indexed": false,
          "name": "miningYear",
          "type": "uint256"
        },
        {
          "indexed": false,
          "name": "selected",
          "type": "bool"
        },
        {
          "indexed": false,
          "name": "extractionMethod",
          "type": "string"
        },
        {
          "indexed": false,
          "name": "owner",
          "type": "address"
        },
        {
          "indexed": false,
          "name": "purchased",
          "type": "bool"
        }
      ],
      "name": "GemPurchased",
      "type": "event",
      "signature": "0x54ef659a275706d4c94ad881de3a03713bd8bd0d3a263b2b42f28a45ad279879"
    },
    {
      "constant": false,
      "inputs": [
        {
          "name": "_gemType",
          "type": "string"
        },
        {
          "name": "_weight",
          "type": "uint256"
        },
        {
          "name": "_height",
          "type": "uint256"
        },
        {
          "name": "_width",
          "type": "uint256"
        },
        {
          "name": "_price",
          "type": "uint256"
        },
        {
          "name": "_miningLocation",
          "type": "string"
        },
        {
          "name": "_miningYear",
          "type": "uint256"
        },
        {
          "name": "_extractionMethod",
          "type": "string"
        },
        {
          "name": "_purchased",
          "type": "bool"
        }
      ],
      "name": "gemMining",
      "outputs": [],
      "payable": false,
      "stateMutability": "nonpayable",
      "type": "function",
      "signature": "0x7df594cb"
    },
    {
      "constant": false,
      "inputs": [
        {
          "name": "_id",
          "type": "uint256"
        }
      ],
      "name": "purchaseGem",
      "outputs": [],
      "payable": true,
      "stateMutability": "payable",
      "type": "function",
      "signature": "0x9b8efcd9"
    },
    {
      "constant": false,
      "inputs": [
        {
          "name": "_id",
          "type": "uint256"
        }
      ],
      "name": "markGemAsSelected",
      "outputs": [],
      "payable": false,
      "stateMutability": "nonpayable",
      "type": "function",
      "signature": "0x53cdc244"
    }
  ],
  "bytecode": "0x608060405260006001553480156200001657600080fd5b506040805190810160405280600181526020017f780000000000000000000000000000000000000000000000000000000000000081525060009080519060200190620000649291906200006b565b506200011a565b828054600181600116156101000203166002900490600052602060002090601f016020900481019282601f10620000ae57805160ff1916838001178555620000df565b82800160010185558215620000df579182015b82811115620000de578251825591602001919060010190620000c1565b5b509050620000ee9190620000f2565b5090565b6200011791905b8082111562000113576000816000905550600101620000f9565b5090565b90565b6113e4806200012a6000396000f3fe608060405260043610610078576000357c0100000000000000000000000000000000000000000000000000000000900463ffffffff16806306fdde031461007d5780631e166c4e1461010d57806353cdc2441461030c5780637df594cb146103475780639b8efcd91461057c578063d0cfe11e146105aa575b600080fd5b34801561008957600080fd5b506100926105d5565b6040518080602001828103825283818151815260200191508051906020019080838360005b838110156100d25780820151818401526020810190506100b7565b50505050905090810190601f1680156100ff5780820380516001836020036101000a031916815260200191505b509250505060405180910390f35b34801561011957600080fd5b506101466004803603602081101561013057600080fd5b8101908080359060200190929190505050610673565b604051808d8152602001806020018c81526020018b81526020018a81526020018981526020018060200188815260200187151515158152602001806020018673ffffffffffffffffffffffffffffffffffffffff1673ffffffffffffffffffffffffffffffffffffffff1681526020018515151515815260200184810384528f818151815260200191508051906020019080838360005b838110156101f85780820151818401526020810190506101dd565b50505050905090810190601f1680156102255780820380516001836020036101000a031916815260200191505b5084810383528a818151815260200191508051906020019080838360005b8381101561025e578082015181840152602081019050610243565b50505050905090810190601f16801561028b5780820380516001836020036101000a031916815260200191505b50848103825287818151815260200191508051906020019080838360005b838110156102c45780820151818401526020810190506102a9565b50505050905090810190601f1680156102f15780820380516001836020036101000a031916815260200191505b509f5050505050505050505050505050505060405180910390f35b34801561031857600080fd5b506103456004803603602081101561032f57600080fd5b81019080803590602001909291905050506108d5565b005b34801561035357600080fd5b5061057a600480360361012081101561036b57600080fd5b810190808035906020019064010000000081111561038857600080fd5b82018360208201111561039a57600080fd5b803590602001918460018302840111640100000000831117156103bc57600080fd5b91908080601f016020809104026020016040519081016040528093929190818152602001838380828437600081840152601f19601f820116905080830192505050505050509192919290803590602001909291908035906020019092919080359060200190929190803590602001909291908035906020019064010000000081111561044757600080fd5b82018360208201111561045957600080fd5b8035906020019184600183028401116401000000008311171561047b57600080fd5b91908080601f016020809104026020016040519081016040528093929190818152602001838380828437600081840152601f19601f82011690508083019250505050505050919291929080359060200190929190803590602001906401000000008111156104e857600080fd5b8201836020820111156104fa57600080fd5b8035906020019184600183028401116401000000008311171561051c57600080fd5b91908080601f016020809104026020016040519081016040528093929190818152602001838380828437600081840152601f19601f820116905080830192505050505050509192919290803515159060200190929190505050610907565b005b6105a86004803603602081101561059257600080fd5b8101908080359060200190929190505050610dfc565b005b3480156105b657600080fd5b506105bf61130d565b6040518082815260200191505060405180910390f35b60008054600181600116156101000203166002900480601f01602080910402602001604051908101604052809291908181526020018280546001816001161561010002031660029004801561066b5780601f106106405761010080835404028352916020019161066b565b820191906000526020600020905b81548152906001019060200180831161064e57829003601f168201915b505050505081565b6002602052806000526040600020600091509050806000015490806001018054600181600116156101000203166002900480601f0160208091040260200160405190810160405280929190818152602001828054600181600116156101000203166002900480156107255780601f106106fa57610100808354040283529160200191610725565b820191906000526020600020905b81548152906001019060200180831161070857829003601f168201915b505050505090806002015490806003015490806004015490806005015490806006018054600181600116156101000203166002900480601f0160208091040260200160405190810160405280929190818152602001828054600181600116156101000203166002900480156107db5780601f106107b0576101008083540402835291602001916107db565b820191906000526020600020905b8154815290600101906020018083116107be57829003601f168201915b5050505050908060070154908060080160009054906101000a900460ff1690806009018054600181600116156101000203166002900480601f0160208091040260200160405190810160405280929190818152602001828054600181600116156101000203166002900480156108925780601f1061086757610100808354040283529160200191610892565b820191906000526020600020905b81548152906001019060200180831161087557829003601f168201915b50505050509080600a0160009054906101000a900473ffffffffffffffffffffffffffffffffffffffff169080600a0160149054906101000a900460ff1690508c565b60016002600083815260200190815260200160002060080160006101000a81548160ff02191690831515021790555050565b60008951111515610980576040517f08c379a00000000000000000000000000000000000000000000000000000000081526004018080602001828103825260188152602001807f47656d20747970652063616e6e6f7420626520656d707479000000000000000081525060200191505060405180910390fd5b60008811151561098f57600080fd5b60008711151561099e57600080fd5b6000861115156109ad57600080fd5b6000851115156109bc57600080fd5b6000831115156109cb57600080fd5b60008451111515610a44576040517f08c379a000000000000000000000000000000000000000000000000000000000815260040180806020018281038252601f8152602001807f4d696e696e67206c6f636174696f6e2063616e6e6f7420626520656d7074790081525060200191505060405180910390fd5b6001600081548092919060010191905055506101806040519081016040528060015481526020018a81526020018981526020018881526020018781526020018681526020018581526020018481526020016000151581526020018381526020013373ffffffffffffffffffffffffffffffffffffffff168152602001821515815250600260006001548152602001908152602001600020600082015181600001556020820151816001019080519060200190610b01929190611313565b5060408201518160020155606082015181600301556080820151816004015560a0820151816005015560c0820151816006019080519060200190610b46929190611313565b5060e082015181600701556101008201518160080160006101000a81548160ff021916908315150217905550610120820151816009019080519060200190610b8f929190611313565b5061014082015181600a0160006101000a81548173ffffffffffffffffffffffffffffffffffffffff021916908373ffffffffffffffffffffffffffffffffffffffff16021790555061016082015181600a0160146101000a81548160ff0219169083151502179055509050507f7cf3fc69064d544082216159ffd21fd0584e758a1b639891d69fea8f0097895a6001548a8a8a8a8a8a8a60008b338c604051808d8152602001806020018c81526020018b81526020018a81526020018981526020018060200188815260200187151515158152602001806020018673ffffffffffffffffffffffffffffffffffffffff1673ffffffffffffffffffffffffffffffffffffffff1681526020018515151515815260200184810384528f818151815260200191508051906020019080838360005b83811015610cde578082015181840152602081019050610cc3565b50505050905090810190601f168015610d0b5780820380516001836020036101000a031916815260200191505b5084810383528a818151815260200191508051906020019080838360005b83811015610d44578082015181840152602081019050610d29565b50505050905090810190601f168015610d715780820380516001836020036101000a031916815260200191505b50848103825287818151815260200191508051906020019080838360005b83811015610daa578082015181840152602081019050610d8f565b50505050905090810190601f168015610dd75780820380516001836020036101000a031916815260200191505b509f5050505050505050505050505050505060405180910390a1505050505050505050565b600081118015610e0e57506001548111155b1515610e82576040517f08c379a000000000000000000000000000000000000000000000000000000000815260040180806020018281038252600e8152602001807f496e76616c69642067656d20494400000000000000000000000000000000000081525060200191505060405180910390fd5b600060026000838152602001908152602001600020905080600a0160149054906101000a900460ff16151515610f20576040517f08c379a00000000000000000000000000000000000000000000000000000000081526004018080602001828103825260158152602001807f47656d20616c726561647920707572636861736564000000000000000000000081525060200191505060405180910390fd5b80600501543410151515610f9c576040517f08c379a00000000000000000000000000000000000000000000000000000000081526004018080602001828103825260178152602001807f496e73756666696369656e742045746865722073656e7400000000000000000081525060200191505060405180910390fd5b600081600a0160009054906101000a900473ffffffffffffffffffffffffffffffffffffffff169050600182600a0160146101000a81548160ff0219169083151502179055503382600a0160006101000a81548173ffffffffffffffffffffffffffffffffffffffff021916908373ffffffffffffffffffffffffffffffffffffffff1602179055508073ffffffffffffffffffffffffffffffffffffffff166108fc349081150290604051600060405180830381858888f1935050505015801561106b573d6000803e3d6000fd5b507f54ef659a275706d4c94ad881de3a03713bd8bd0d3a263b2b42f28a45ad279879838360010184600201548560030154866004015487600501548860060189600701548a60080160009054906101000a900460ff168b6009018c600a0160009054906101000a900473ffffffffffffffffffffffffffffffffffffffff166001604051808d8152602001806020018c81526020018b81526020018a81526020018981526020018060200188815260200187151515158152602001806020018673ffffffffffffffffffffffffffffffffffffffff1673ffffffffffffffffffffffffffffffffffffffff1681526020018515151515815260200184810384528f8181546001816001161561010002031660029004815260200191508054600181600116156101000203166002900480156111e75780601f106111bc576101008083540402835291602001916111e7565b820191906000526020600020905b8154815290600101906020018083116111ca57829003601f168201915b505084810383528a81815460018160011615610100020316600290048152602001915080546001816001161561010002031660029004801561126a5780601f1061123f5761010080835404028352916020019161126a565b820191906000526020600020905b81548152906001019060200180831161124d57829003601f168201915b50508481038252878181546001816001161561010002031660029004815260200191508054600181600116156101000203166002900480156112ed5780601f106112c2576101008083540402835291602001916112ed565b820191906000526020600020905b8154815290600101906020018083116112d057829003601f168201915b50509f5050505050505050505050505050505060405180910390a1505050565b60015481565b828054600181600116156101000203166002900490600052602060002090601f016020900481019282601f1061135457805160ff1916838001178555611382565b82800160010185558215611382579182015b82811115611381578251825591602001919060010190611366565b5b50905061138f9190611393565b5090565b6113b591905b808211156113b1576000816000905550600101611399565b5090565b9056fea165627a7a723058209275aa6bc9b19bb0e093f9c5de142f5800d11a19a17b04550308c03fd2d38e920029",
  "source": "pragma solidity >=0.4.21 <0.6.0;\n\ncontract GemstoneExtraction {\n// https://www.youtube.com/watch?v=VH9Q2lf2mNo&t=1990s 1:11:54\n    string public name;\n    uint public minedGemCount = 0;\n\n    mapping( uint => MinedGem) public minedGems;\n\n    enum PointOfProcessing {MINED, SALEOFMINEDPRODUCT,  PREPARATION, PROCESSING }\n\n    struct MinedGem {\n        uint id;\n        string gemType;\n        uint weight;\n        uint height; //y\n       // uint length; //x\n        uint width; //z\n        uint price; \n        string miningLocation;\n        uint miningYear;\n       // uint miningMonth;\n        bool selected;\n        string extractionMethod; //enum?\n        address payable owner;\n        bool purchased;\n    \n    }\n\n    event GemMining(\n       uint id,\n        string gemType,\n        uint weight,\n        uint height, \n        uint width,\n        uint price, \n        string miningLocation,\n        uint miningYear,\n         bool selected,\n        string extractionMethod,\n        address payable owner,\n        bool purchasedvv\n    );\n\n     event GemPurchasing(\n       uint id,\n        string gemType,\n        uint weight,\n        uint height, \n        uint width,\n        uint price, \n        string miningLocation,\n        uint miningYear,\n         bool selected,\n        string extractionMethod,\n        address payable owner,\n        bool purchased\n     );\n\n       event GemPurchased(\n        uint id,\n        string gemType,\n        uint weight,\n        uint height, \n        uint width,\n        uint price, \n        string miningLocation,\n        uint miningYear,\n         bool selected,\n        string extractionMethod,\n        address payable owner,\n        bool purchased\n    );\n    \n    constructor() public  {\n        name = \"x\";\n    }\n    function gemMining(string memory _gemType, uint _weight, uint _height, uint _width,  uint _price, string memory _miningLocation, uint _miningYear, string memory _extractionMethod,  bool _purchased) public {\n        require(bytes(_gemType).length > 0, \"Gem type cannot be empty\");\n        require( _weight > 0);\n        require( _height > 0);\n        require( _width > 0);\n        require( _price > 0);\n        require( _miningYear > 0);\n        require(bytes(_miningLocation).length > 0, \"Mining location cannot be empty\");\n\n        \n        minedGemCount++;\n       minedGems[minedGemCount] = MinedGem(minedGemCount, _gemType, _weight, _height, _width, _price, _miningLocation, _miningYear, false, _extractionMethod, msg.sender, _purchased);\n\n       emit GemMining(minedGemCount, _gemType, _weight, _height, _width, _price, _miningLocation, _miningYear, false, _extractionMethod, msg.sender, _purchased);\n\n    }\n\n    function purchaseGem(uint _id) public payable {\n    require(_id > 0 && _id <= minedGemCount, \"Invalid gem ID\");\n    MinedGem storage _minedGem = minedGems[_id];\n    require(!_minedGem.purchased, \"Gem already purchased\");\n    require(msg.value >= _minedGem.price, \"Insufficient Ether sent\");\n\n    address payable _miner = address(uint160(_minedGem.owner));\n    //require(_miner != msg.sender, \"Buyer cannot be the owner\");\n\n    _minedGem.purchased = true;\n    // Update owner to the new buyer\n    _minedGem.owner = address(uint160(msg.sender));\n\n    _miner.transfer(msg.value); // Transfer Ether to the original owner\n\n    emit GemPurchased(\n        _id,\n        _minedGem.gemType,\n        _minedGem.weight,\n        _minedGem.height,\n        _minedGem.width,\n        _minedGem.price,\n        _minedGem.miningLocation,\n        _minedGem.miningYear,\n        _minedGem.selected,\n        _minedGem.extractionMethod,\n        _minedGem.owner,\n        true\n    );\n}\n\n/*\n     function processingGem(uint _id) public payable{\n        MinedGem memory _minedGem = minedGems[_id];\n        address payable _miner = _minedGem.owner;\n    require(_minedGem.id > 0 && _minedGem.id <= minedGemCount);\n    require(msg.value >= _minedGem.price); //???????? todo????\n    require(_minedGem.purchased == false);\n       // require(_miner != msg.sender);\n        _minedGem.owner = msg.sender;\n        _minedGem.purchased = true;\n        minedGems[_id] = _minedGem;\n        address(_miner).transfer(msg.value);\n         emit GemPurchased(minedGemCount, _minedGem.gemType, _minedGem.weight,  _minedGem.height,  _minedGem.width, _minedGem.price, _minedGem.miningLocation,  _minedGem.miningYear, true, _minedGem.extractionMethod, msg.sender,  _minedGem.purchased);\n    }\n    \n*/\n    function markGemAsSelected(uint _id) public {\n    // Itt ellenőrizd, hogy a hívó személy jogosult-e az állapot frissítésére\n    minedGems[_id].selected = true;\n}\n\n\n\n\n}",
  "sourcePath": "/home/berkeanna/folder/jewRoundx/src/contracts/GemstoneExtraction.sol",
  "compiler": {
    "name": "solc",
    "version": "0.5.0+commit.1d4f565a.Emscripten.clang"
  },
  "schemaVersion": "3.0.1",
  "updatedAt": "2024-01-07T18:04:49.895Z",
  "devdoc": {
    "methods": {}
  },
  "userdoc": {
    "methods": {}
  }
}