{
  "contractName": "GemstoneExtraction",
  "abi": [
    {
      "constant": true,
      "inputs": [],
      "name": "name",
      "outputs": [
        {
          "name": "",
          "type": "string"
        }
      ],
      "payable": false,
      "stateMutability": "view",
      "type": "function",
      "signature": "0x06fdde03"
    },
    {
      "constant": true,
      "inputs": [
        {
          "name": "",
          "type": "uint256"
        }
      ],
      "name": "minedGems",
      "outputs": [
        {
          "name": "id",
          "type": "uint256"
        },
        {
          "name": "gemType",
          "type": "string"
        },
        {
          "name": "weight",
          "type": "uint256"
        },
        {
          "name": "height",
          "type": "uint256"
        },
        {
          "name": "width",
          "type": "uint256"
        },
        {
          "name": "price",
          "type": "uint256"
        },
        {
          "name": "miningLocation",
          "type": "string"
        },
        {
          "name": "miningYear",
          "type": "uint256"
        },
        {
          "name": "selected",
          "type": "bool"
        },
        {
          "name": "extractionMethod",
          "type": "string"
        },
        {
          "name": "owner",
          "type": "address"
        },
        {
          "name": "purchased",
          "type": "bool"
        }
      ],
      "payable": false,
      "stateMutability": "view",
      "type": "function",
      "signature": "0x1e166c4e"
    },
    {
      "constant": true,
      "inputs": [],
      "name": "minedGemCount",
      "outputs": [
        {
          "name": "",
          "type": "uint256"
        }
      ],
      "payable": false,
      "stateMutability": "view",
      "type": "function",
      "signature": "0xd0cfe11e"
    },
    {
      "inputs": [],
      "payable": false,
      "stateMutability": "nonpayable",
      "type": "constructor",
      "signature": "constructor"
    },
    {
      "anonymous": false,
      "inputs": [
        {
          "indexed": false,
          "name": "id",
          "type": "uint256"
        },
        {
          "indexed": false,
          "name": "gemType",
          "type": "string"
        },
        {
          "indexed": false,
          "name": "weight",
          "type": "uint256"
        },
        {
          "indexed": false,
          "name": "height",
          "type": "uint256"
        },
        {
          "indexed": false,
          "name": "width",
          "type": "uint256"
        },
        {
          "indexed": false,
          "name": "price",
          "type": "uint256"
        },
        {
          "indexed": false,
          "name": "miningLocation",
          "type": "string"
        },
        {
          "indexed": false,
          "name": "miningYear",
          "type": "uint256"
        },
        {
          "indexed": false,
          "name": "selected",
          "type": "bool"
        },
        {
          "indexed": false,
          "name": "extractionMethod",
          "type": "string"
        },
        {
          "indexed": false,
          "name": "owner",
          "type": "address"
        },
        {
          "indexed": false,
          "name": "purchasedvv",
          "type": "bool"
        }
      ],
      "name": "GemMining",
      "type": "event",
      "signature": "0x7cf3fc69064d544082216159ffd21fd0584e758a1b639891d69fea8f0097895a"
    },
    {
      "anonymous": false,
      "inputs": [
        {
          "indexed": false,
          "name": "id",
          "type": "uint256"
        },
        {
          "indexed": false,
          "name": "gemType",
          "type": "string"
        },
        {
          "indexed": false,
          "name": "weight",
          "type": "uint256"
        },
        {
          "indexed": false,
          "name": "height",
          "type": "uint256"
        },
        {
          "indexed": false,
          "name": "width",
          "type": "uint256"
        },
        {
          "indexed": false,
          "name": "price",
          "type": "uint256"
        },
        {
          "indexed": false,
          "name": "miningLocation",
          "type": "string"
        },
        {
          "indexed": false,
          "name": "miningYear",
          "type": "uint256"
        },
        {
          "indexed": false,
          "name": "selected",
          "type": "bool"
        },
        {
          "indexed": false,
          "name": "extractionMethod",
          "type": "string"
        },
        {
          "indexed": false,
          "name": "owner",
          "type": "address"
        },
        {
          "indexed": false,
          "name": "purchased",
          "type": "bool"
        }
      ],
      "name": "GemPurchasing",
      "type": "event",
      "signature": "0x6d874cf5de301a97f4b68eea5e7e9f2f430d1c78a5ec035c83fb7d0f3b2ab179"
    },
    {
      "anonymous": false,
      "inputs": [
        {
          "indexed": false,
          "name": "id",
          "type": "uint256"
        },
        {
          "indexed": false,
          "name": "gemType",
          "type": "string"
        },
        {
          "indexed": false,
          "name": "weight",
          "type": "uint256"
        },
        {
          "indexed": false,
          "name": "height",
          "type": "uint256"
        },
        {
          "indexed": false,
          "name": "width",
          "type": "uint256"
        },
        {
          "indexed": false,
          "name": "price",
          "type": "uint256"
        },
        {
          "indexed": false,
          "name": "miningLocation",
          "type": "string"
        },
        {
          "indexed": false,
          "name": "miningYear",
          "type": "uint256"
        },
        {
          "indexed": false,
          "name": "selected",
          "type": "bool"
        },
        {
          "indexed": false,
          "name": "extractionMethod",
          "type": "string"
        },
        {
          "indexed": false,
          "name": "owner",
          "type": "address"
        },
        {
          "indexed": false,
          "name": "purchased",
          "type": "bool"
        }
      ],
      "name": "GemPurchased",
      "type": "event",
      "signature": "0x54ef659a275706d4c94ad881de3a03713bd8bd0d3a263b2b42f28a45ad279879"
    },
    {
      "constant": false,
      "inputs": [
        {
          "name": "_gemType",
          "type": "string"
        },
        {
          "name": "_weight",
          "type": "uint256"
        },
        {
          "name": "_height",
          "type": "uint256"
        },
        {
          "name": "_width",
          "type": "uint256"
        },
        {
          "name": "_price",
          "type": "uint256"
        },
        {
          "name": "_miningLocation",
          "type": "string"
        },
        {
          "name": "_miningYear",
          "type": "uint256"
        },
        {
          "name": "_extractionMethod",
          "type": "string"
        },
        {
          "name": "_purchased",
          "type": "bool"
        }
      ],
      "name": "gemMining",
      "outputs": [],
      "payable": false,
      "stateMutability": "nonpayable",
      "type": "function",
      "signature": "0x7df594cb"
    },
    {
      "constant": false,
      "inputs": [
        {
          "name": "_id",
          "type": "uint256"
        }
      ],
      "name": "purchaseGem",
      "outputs": [],
      "payable": true,
      "stateMutability": "payable",
      "type": "function",
      "signature": "0x9b8efcd9"
    },
    {
      "constant": false,
      "inputs": [
        {
          "name": "_id",
          "type": "uint256"
        }
      ],
      "name": "processingGem",
      "outputs": [],
      "payable": true,
      "stateMutability": "payable",
      "type": "function",
      "signature": "0xbf38b7a2"
    },
    {
      "constant": false,
      "inputs": [
        {
          "name": "_id",
          "type": "uint256"
        }
      ],
      "name": "markGemAsSelected",
      "outputs": [],
      "payable": false,
      "stateMutability": "nonpayable",
      "type": "function",
      "signature": "0x53cdc244"
    }
  ],
  "bytecode": "0x608060405260006001553480156200001657600080fd5b506040805190810160405280600181526020017f780000000000000000000000000000000000000000000000000000000000000081525060009080519060200190620000649291906200006b565b506200011a565b828054600181600116156101000203166002900490600052602060002090601f016020900481019282601f10620000ae57805160ff1916838001178555620000df565b82800160010185558215620000df579182015b82811115620000de578251825591602001919060010190620000c1565b5b509050620000ee9190620000f2565b5090565b6200011791905b8082111562000113576000816000905550600101620000f9565b5090565b90565b611dba806200012a6000396000f3fe608060405260043610610083576000357c0100000000000000000000000000000000000000000000000000000000900463ffffffff16806306fdde03146100885780631e166c4e1461011857806353cdc244146103175780637df594cb146103525780639b8efcd914610587578063bf38b7a2146105b5578063d0cfe11e146105e3575b600080fd5b34801561009457600080fd5b5061009d61060e565b6040518080602001828103825283818151815260200191508051906020019080838360005b838110156100dd5780820151818401526020810190506100c2565b50505050905090810190601f16801561010a5780820380516001836020036101000a031916815260200191505b509250505060405180910390f35b34801561012457600080fd5b506101516004803603602081101561013b57600080fd5b81019080803590602001909291905050506106ac565b604051808d8152602001806020018c81526020018b81526020018a81526020018981526020018060200188815260200187151515158152602001806020018673ffffffffffffffffffffffffffffffffffffffff1673ffffffffffffffffffffffffffffffffffffffff1681526020018515151515815260200184810384528f818151815260200191508051906020019080838360005b838110156102035780820151818401526020810190506101e8565b50505050905090810190601f1680156102305780820380516001836020036101000a031916815260200191505b5084810383528a818151815260200191508051906020019080838360005b8381101561026957808201518184015260208101905061024e565b50505050905090810190601f1680156102965780820380516001836020036101000a031916815260200191505b50848103825287818151815260200191508051906020019080838360005b838110156102cf5780820151818401526020810190506102b4565b50505050905090810190601f1680156102fc5780820380516001836020036101000a031916815260200191505b509f5050505050505050505050505050505060405180910390f35b34801561032357600080fd5b506103506004803603602081101561033a57600080fd5b810190808035906020019092919050505061090e565b005b34801561035e57600080fd5b50610585600480360361012081101561037657600080fd5b810190808035906020019064010000000081111561039357600080fd5b8201836020820111156103a557600080fd5b803590602001918460018302840111640100000000831117156103c757600080fd5b91908080601f016020809104026020016040519081016040528093929190818152602001838380828437600081840152601f19601f820116905080830192505050505050509192919290803590602001909291908035906020019092919080359060200190929190803590602001909291908035906020019064010000000081111561045257600080fd5b82018360208201111561046457600080fd5b8035906020019184600183028401116401000000008311171561048657600080fd5b91908080601f016020809104026020016040519081016040528093929190818152602001838380828437600081840152601f19601f82011690508083019250505050505050919291929080359060200190929190803590602001906401000000008111156104f357600080fd5b82018360208201111561050557600080fd5b8035906020019184600183028401116401000000008311171561052757600080fd5b91908080601f016020809104026020016040519081016040528093929190818152602001838380828437600081840152601f19601f820116905080830192505050505050509192919290803515159060200190929190505050610940565b005b6105b36004803603602081101561059d57600080fd5b8101908080359060200190929190505050610e35565b005b6105e1600480360360208110156105cb57600080fd5b810190808035906020019092919050505061154e565b005b3480156105ef57600080fd5b506105f8611c67565b6040518082815260200191505060405180910390f35b60008054600181600116156101000203166002900480601f0160208091040260200160405190810160405280929190818152602001828054600181600116156101000203166002900480156106a45780601f10610679576101008083540402835291602001916106a4565b820191906000526020600020905b81548152906001019060200180831161068757829003601f168201915b505050505081565b6002602052806000526040600020600091509050806000015490806001018054600181600116156101000203166002900480601f01602080910402602001604051908101604052809291908181526020018280546001816001161561010002031660029004801561075e5780601f106107335761010080835404028352916020019161075e565b820191906000526020600020905b81548152906001019060200180831161074157829003601f168201915b505050505090806002015490806003015490806004015490806005015490806006018054600181600116156101000203166002900480601f0160208091040260200160405190810160405280929190818152602001828054600181600116156101000203166002900480156108145780601f106107e957610100808354040283529160200191610814565b820191906000526020600020905b8154815290600101906020018083116107f757829003601f168201915b5050505050908060070154908060080160009054906101000a900460ff1690806009018054600181600116156101000203166002900480601f0160208091040260200160405190810160405280929190818152602001828054600181600116156101000203166002900480156108cb5780601f106108a0576101008083540402835291602001916108cb565b820191906000526020600020905b8154815290600101906020018083116108ae57829003601f168201915b50505050509080600a0160009054906101000a900473ffffffffffffffffffffffffffffffffffffffff169080600a0160149054906101000a900460ff1690508c565b60016002600083815260200190815260200160002060080160006101000a81548160ff02191690831515021790555050565b600089511115156109b9576040517f08c379a00000000000000000000000000000000000000000000000000000000081526004018080602001828103825260188152602001807f47656d20747970652063616e6e6f7420626520656d707479000000000000000081525060200191505060405180910390fd5b6000881115156109c857600080fd5b6000871115156109d757600080fd5b6000861115156109e657600080fd5b6000851115156109f557600080fd5b600083111515610a0457600080fd5b60008451111515610a7d576040517f08c379a000000000000000000000000000000000000000000000000000000000815260040180806020018281038252601f8152602001807f4d696e696e67206c6f636174696f6e2063616e6e6f7420626520656d7074790081525060200191505060405180910390fd5b6001600081548092919060010191905055506101806040519081016040528060015481526020018a81526020018981526020018881526020018781526020018681526020018581526020018481526020016000151581526020018381526020013373ffffffffffffffffffffffffffffffffffffffff168152602001821515815250600260006001548152602001908152602001600020600082015181600001556020820151816001019080519060200190610b3a929190611c6d565b5060408201518160020155606082015181600301556080820151816004015560a0820151816005015560c0820151816006019080519060200190610b7f929190611c6d565b5060e082015181600701556101008201518160080160006101000a81548160ff021916908315150217905550610120820151816009019080519060200190610bc8929190611c6d565b5061014082015181600a0160006101000a81548173ffffffffffffffffffffffffffffffffffffffff021916908373ffffffffffffffffffffffffffffffffffffffff16021790555061016082015181600a0160146101000a81548160ff0219169083151502179055509050507f7cf3fc69064d544082216159ffd21fd0584e758a1b639891d69fea8f0097895a6001548a8a8a8a8a8a8a60008b338c604051808d8152602001806020018c81526020018b81526020018a81526020018981526020018060200188815260200187151515158152602001806020018673ffffffffffffffffffffffffffffffffffffffff1673ffffffffffffffffffffffffffffffffffffffff1681526020018515151515815260200184810384528f818151815260200191508051906020019080838360005b83811015610d17578082015181840152602081019050610cfc565b50505050905090810190601f168015610d445780820380516001836020036101000a031916815260200191505b5084810383528a818151815260200191508051906020019080838360005b83811015610d7d578082015181840152602081019050610d62565b50505050905090810190601f168015610daa5780820380516001836020036101000a031916815260200191505b50848103825287818151815260200191508051906020019080838360005b83811015610de3578082015181840152602081019050610dc8565b50505050905090810190601f168015610e105780820380516001836020036101000a031916815260200191505b509f5050505050505050505050505050505060405180910390a1505050505050505050565b610e3d611ced565b60026000838152602001908152602001600020610180604051908101604052908160008201548152602001600182018054600181600116156101000203166002900480601f016020809104026020016040519081016040528092919081815260200182805460018160011615610100020316600290048015610f005780601f10610ed557610100808354040283529160200191610f00565b820191906000526020600020905b815481529060010190602001808311610ee357829003601f168201915b5050505050815260200160028201548152602001600382015481526020016004820154815260200160058201548152602001600682018054600181600116156101000203166002900480601f016020809104026020016040519081016040528092919081815260200182805460018160011615610100020316600290048015610fca5780601f10610f9f57610100808354040283529160200191610fca565b820191906000526020600020905b815481529060010190602001808311610fad57829003601f168201915b50505050508152602001600782015481526020016008820160009054906101000a900460ff16151515158152602001600982018054600181600116156101000203166002900480601f0160208091040260200160405190810160405280929190818152602001828054600181600116156101000203166002900480156110915780601f1061106657610100808354040283529160200191611091565b820191906000526020600020905b81548152906001019060200180831161107457829003601f168201915b50505050508152602001600a820160009054906101000a900473ffffffffffffffffffffffffffffffffffffffff1673ffffffffffffffffffffffffffffffffffffffff1673ffffffffffffffffffffffffffffffffffffffff168152602001600a820160149054906101000a900460ff161515151581525050905060008161014001519050600082600001511180156111315750600154826000015111155b151561113c57600080fd5b8160a00151341015151561114f57600080fd5b60001515826101600151151514151561116757600080fd5b3382610140019073ffffffffffffffffffffffffffffffffffffffff16908173ffffffffffffffffffffffffffffffffffffffff168152505060018261016001901515908115158152505081600260008581526020019081526020016000206000820151816000015560208201518160010190805190602001906111ec929190611c6d565b5060408201518160020155606082015181600301556080820151816004015560a0820151816005015560c0820151816006019080519060200190611231929190611c6d565b5060e082015181600701556101008201518160080160006101000a81548160ff02191690831515021790555061012082015181600901908051906020019061127a929190611c6d565b5061014082015181600a0160006101000a81548173ffffffffffffffffffffffffffffffffffffffff021916908373ffffffffffffffffffffffffffffffffffffffff16021790555061016082015181600a0160146101000a81548160ff0219169083151502179055509050508073ffffffffffffffffffffffffffffffffffffffff166108fc349081150290604051600060405180830381858888f1935050505015801561132d573d6000803e3d6000fd5b507f54ef659a275706d4c94ad881de3a03713bd8bd0d3a263b2b42f28a45ad27987960015483602001518460400151856060015186608001518760a001518860c001518960e0015160008b6101200151338d6101600151604051808d8152602001806020018c81526020018b81526020018a81526020018981526020018060200188815260200187151515158152602001806020018673ffffffffffffffffffffffffffffffffffffffff1673ffffffffffffffffffffffffffffffffffffffff1681526020018515151515815260200184810384528f818151815260200191508051906020019080838360005b8381101561143657808201518184015260208101905061141b565b50505050905090810190601f1680156114635780820380516001836020036101000a031916815260200191505b5084810383528a818151815260200191508051906020019080838360005b8381101561149c578082015181840152602081019050611481565b50505050905090810190601f1680156114c95780820380516001836020036101000a031916815260200191505b50848103825287818151815260200191508051906020019080838360005b838110156115025780820151818401526020810190506114e7565b50505050905090810190601f16801561152f5780820380516001836020036101000a031916815260200191505b509f5050505050505050505050505050505060405180910390a1505050565b611556611ced565b60026000838152602001908152602001600020610180604051908101604052908160008201548152602001600182018054600181600116156101000203166002900480601f0160208091040260200160405190810160405280929190818152602001828054600181600116156101000203166002900480156116195780601f106115ee57610100808354040283529160200191611619565b820191906000526020600020905b8154815290600101906020018083116115fc57829003601f168201915b5050505050815260200160028201548152602001600382015481526020016004820154815260200160058201548152602001600682018054600181600116156101000203166002900480601f0160208091040260200160405190810160405280929190818152602001828054600181600116156101000203166002900480156116e35780601f106116b8576101008083540402835291602001916116e3565b820191906000526020600020905b8154815290600101906020018083116116c657829003601f168201915b50505050508152602001600782015481526020016008820160009054906101000a900460ff16151515158152602001600982018054600181600116156101000203166002900480601f0160208091040260200160405190810160405280929190818152602001828054600181600116156101000203166002900480156117aa5780601f1061177f576101008083540402835291602001916117aa565b820191906000526020600020905b81548152906001019060200180831161178d57829003601f168201915b50505050508152602001600a820160009054906101000a900473ffffffffffffffffffffffffffffffffffffffff1673ffffffffffffffffffffffffffffffffffffffff1673ffffffffffffffffffffffffffffffffffffffff168152602001600a820160149054906101000a900460ff1615151515815250509050600081610140015190506000826000015111801561184a5750600154826000015111155b151561185557600080fd5b8160a00151341015151561186857600080fd5b60001515826101600151151514151561188057600080fd5b3382610140019073ffffffffffffffffffffffffffffffffffffffff16908173ffffffffffffffffffffffffffffffffffffffff16815250506001826101600190151590811515815250508160026000858152602001908152602001600020600082015181600001556020820151816001019080519060200190611905929190611c6d565b5060408201518160020155606082015181600301556080820151816004015560a0820151816005015560c082015181600601908051906020019061194a929190611c6d565b5060e082015181600701556101008201518160080160006101000a81548160ff021916908315150217905550610120820151816009019080519060200190611993929190611c6d565b5061014082015181600a0160006101000a81548173ffffffffffffffffffffffffffffffffffffffff021916908373ffffffffffffffffffffffffffffffffffffffff16021790555061016082015181600a0160146101000a81548160ff0219169083151502179055509050508073ffffffffffffffffffffffffffffffffffffffff166108fc349081150290604051600060405180830381858888f19350505050158015611a46573d6000803e3d6000fd5b507f54ef659a275706d4c94ad881de3a03713bd8bd0d3a263b2b42f28a45ad27987960015483602001518460400151856060015186608001518760a001518860c001518960e0015160018b6101200151338d6101600151604051808d8152602001806020018c81526020018b81526020018a81526020018981526020018060200188815260200187151515158152602001806020018673ffffffffffffffffffffffffffffffffffffffff1673ffffffffffffffffffffffffffffffffffffffff1681526020018515151515815260200184810384528f818151815260200191508051906020019080838360005b83811015611b4f578082015181840152602081019050611b34565b50505050905090810190601f168015611b7c5780820380516001836020036101000a031916815260200191505b5084810383528a818151815260200191508051906020019080838360005b83811015611bb5578082015181840152602081019050611b9a565b50505050905090810190601f168015611be25780820380516001836020036101000a031916815260200191505b50848103825287818151815260200191508051906020019080838360005b83811015611c1b578082015181840152602081019050611c00565b50505050905090810190601f168015611c485780820380516001836020036101000a031916815260200191505b509f5050505050505050505050505050505060405180910390a1505050565b60015481565b828054600181600116156101000203166002900490600052602060002090601f016020900481019282601f10611cae57805160ff1916838001178555611cdc565b82800160010185558215611cdc579182015b82811115611cdb578251825591602001919060010190611cc0565b5b509050611ce99190611d69565b5090565b61018060405190810160405280600081526020016060815260200160008152602001600081526020016000815260200160008152602001606081526020016000815260200160001515815260200160608152602001600073ffffffffffffffffffffffffffffffffffffffff1681526020016000151581525090565b611d8b91905b80821115611d87576000816000905550600101611d6f565b5090565b9056fea165627a7a723058205b0a838117376c79dc045623deece656b1da5ef65409f8919be1788412d31c620029",
  "source": "pragma solidity >=0.4.21 <0.6.0;\n\ncontract GemstoneExtraction {\n// https://www.youtube.com/watch?v=VH9Q2lf2mNo&t=1990s 1:11:54\n    string public name;\n    uint public minedGemCount = 0;\n\n    mapping( uint => MinedGem) public minedGems;\n\n    enum PointOfProcessing {MINED, SALEOFMINEDPRODUCT,  PREPARATION, PROCESSING }\n\n    struct MinedGem {\n        uint id;\n        string gemType;\n        uint weight;\n        uint height; //y\n       // uint length; //x\n        uint width; //z\n        uint price; \n        string miningLocation;\n        uint miningYear;\n       // uint miningMonth;\n        bool selected;\n        string extractionMethod; //enum?\n        address payable owner;\n        bool purchased;\n    \n    }\n\n    event GemMining(\n       uint id,\n        string gemType,\n        uint weight,\n        uint height, \n        uint width,\n        uint price, \n        string miningLocation,\n        uint miningYear,\n         bool selected,\n        string extractionMethod,\n        address payable owner,\n        bool purchasedvv\n    );\n\n     event GemPurchasing(\n       uint id,\n        string gemType,\n        uint weight,\n        uint height, \n        uint width,\n        uint price, \n        string miningLocation,\n        uint miningYear,\n         bool selected,\n        string extractionMethod,\n        address payable owner,\n        bool purchased\n     );\n\n       event GemPurchased(\n        uint id,\n        string gemType,\n        uint weight,\n        uint height, \n        uint width,\n        uint price, \n        string miningLocation,\n        uint miningYear,\n         bool selected,\n        string extractionMethod,\n        address payable owner,\n        bool purchased\n    );\n    \n    constructor() public  {\n        name = \"x\";\n    }\n    function gemMining(string memory _gemType, uint _weight, uint _height, uint _width,  uint _price, string memory _miningLocation, uint _miningYear, string memory _extractionMethod,  bool _purchased) public {\n        require(bytes(_gemType).length > 0, \"Gem type cannot be empty\");\n        require( _weight > 0);\n        require( _height > 0);\n        require( _width > 0);\n        require( _price > 0);\n        require( _miningYear > 0);\n        require(bytes(_miningLocation).length > 0, \"Mining location cannot be empty\");\n\n        \n        minedGemCount++;\n       minedGems[minedGemCount] = MinedGem(minedGemCount, _gemType, _weight, _height, _width, _price, _miningLocation, _miningYear, false, _extractionMethod, msg.sender, _purchased);\n\n       emit GemMining(minedGemCount, _gemType, _weight, _height, _width, _price, _miningLocation, _miningYear, false, _extractionMethod, msg.sender, _purchased);\n\n    }\n\n    function purchaseGem(uint _id) public payable{\n        MinedGem memory _minedGem = minedGems[_id];\n        address payable _miner = _minedGem.owner;\n        require(_minedGem.id > 0 && _minedGem.id <= minedGemCount);\n        require(msg.value >= _minedGem.price);\n        require(_minedGem.purchased == false);\n       // require(_miner != msg.sender);\n        _minedGem.owner = msg.sender;\n        _minedGem.purchased = true;\n        minedGems[_id] = _minedGem;\n        address(_miner).transfer(msg.value);\n       emit GemPurchased(minedGemCount, _minedGem.gemType, _minedGem.weight,  _minedGem.height,  _minedGem.width, _minedGem.price, _minedGem.miningLocation,  _minedGem.miningYear,  false, _minedGem.extractionMethod, msg.sender,  _minedGem.purchased);\n    }\n\n     function processingGem(uint _id) public payable{\n        MinedGem memory _minedGem = minedGems[_id];\n        address payable _miner = _minedGem.owner;\n        require(_minedGem.id > 0 && _minedGem.id <= minedGemCount);\n        require(msg.value >= _minedGem.price);\n        require(_minedGem.purchased == false);\n       // require(_miner != msg.sender);\n        _minedGem.owner = msg.sender;\n        _minedGem.purchased = true;\n        minedGems[_id] = _minedGem;\n        address(_miner).transfer(msg.value);\n         emit GemPurchased(minedGemCount, _minedGem.gemType, _minedGem.weight,  _minedGem.height,  _minedGem.width, _minedGem.price, _minedGem.miningLocation,  _minedGem.miningYear, true, _minedGem.extractionMethod, msg.sender,  _minedGem.purchased);\n    }\n\n    function markGemAsSelected(uint _id) public {\n    // Itt ellenrizd, hogy a hv szemly jogosult-e az llapot frisstsre\n    minedGems[_id].selected = true;\n}\n}",
  "sourcePath": "/home/berkeanna/folder/jewRoundx/src/contracts/GemstoneExtraction.sol",
  "compiler": {
    "name": "solc",
    "version": "0.5.0+commit.1d4f565a.Emscripten.clang"
  },
  "schemaVersion": "3.0.1",
  "updatedAt": "2023-12-31T11:16:25.166Z",
  "devdoc": {
    "methods": {}
  },
  "userdoc": {
    "methods": {}
  }
}