{
  "contractName": "GemstoneSelecting",
  "abi": [
    {
      "constant": true,
      "inputs": [],
      "name": "selectedGemCount",
      "outputs": [
        {
          "name": "",
          "type": "uint256"
        }
      ],
      "payable": false,
      "stateMutability": "view",
      "type": "function",
      "signature": "0x5f801c7a"
    },
    {
      "constant": true,
      "inputs": [
        {
          "name": "",
          "type": "uint256"
        }
      ],
      "name": "selectedGems",
      "outputs": [
        {
          "name": "id",
          "type": "uint256"
        },
        {
          "name": "minedGemId",
          "type": "uint256"
        },
        {
          "name": "size",
          "type": "string"
        },
        {
          "name": "carat",
          "type": "uint256"
        },
        {
          "name": "color",
          "type": "string"
        },
        {
          "name": "gemType",
          "type": "string"
        },
        {
          "name": "polishing",
          "type": "bool"
        },
        {
          "name": "fileURL",
          "type": "string"
        },
        {
          "name": "price",
          "type": "uint256"
        },
        {
          "name": "used",
          "type": "bool"
        },
        {
          "name": "owner",
          "type": "address"
        }
      ],
      "payable": false,
      "stateMutability": "view",
      "type": "function",
      "signature": "0xcee07c4b"
    },
    {
      "inputs": [
        {
          "name": "_gemstoneExtractionAddress",
          "type": "address"
        }
      ],
      "payable": false,
      "stateMutability": "nonpayable",
      "type": "constructor",
      "signature": "constructor"
    },
    {
      "anonymous": false,
      "inputs": [
        {
          "indexed": false,
          "name": "id",
          "type": "uint256"
        },
        {
          "indexed": false,
          "name": "minedGemId",
          "type": "uint256"
        },
        {
          "indexed": false,
          "name": "size",
          "type": "string"
        },
        {
          "indexed": false,
          "name": "carat",
          "type": "uint256"
        },
        {
          "indexed": false,
          "name": "color",
          "type": "string"
        },
        {
          "indexed": false,
          "name": "gemType",
          "type": "string"
        },
        {
          "indexed": false,
          "name": "polishing",
          "type": "bool"
        },
        {
          "indexed": false,
          "name": "fileURL",
          "type": "string"
        },
        {
          "indexed": false,
          "name": "price",
          "type": "uint256"
        },
        {
          "indexed": false,
          "name": "used",
          "type": "bool"
        },
        {
          "indexed": false,
          "name": "owner",
          "type": "address"
        }
      ],
      "name": "GemSelecting",
      "type": "event",
      "signature": "0xa44ca712d78e654b4e34e8f0c3d1cb6fe1698be98047fe3b0526f991db9b3805"
    },
    {
      "constant": false,
      "inputs": [
        {
          "name": "_minedGemId",
          "type": "uint256"
        },
        {
          "name": "_size",
          "type": "string"
        },
        {
          "name": "_carat",
          "type": "uint256"
        },
        {
          "name": "_color",
          "type": "string"
        },
        {
          "name": "_gemtype",
          "type": "string"
        },
        {
          "name": "_polishing",
          "type": "bool"
        },
        {
          "name": "_fileURL",
          "type": "string"
        },
        {
          "name": "_price",
          "type": "uint256"
        }
      ],
      "name": "gemSelecting",
      "outputs": [],
      "payable": false,
      "stateMutability": "nonpayable",
      "type": "function",
      "signature": "0x4b104b9e"
    },
    {
      "constant": false,
      "inputs": [
        {
          "name": "_id",
          "type": "uint256"
        }
      ],
      "name": "polishGem",
      "outputs": [],
      "payable": true,
      "stateMutability": "payable",
      "type": "function",
      "signature": "0x6056fe7e"
    },
    {
      "constant": false,
      "inputs": [
        {
          "name": "_id",
          "type": "uint256"
        }
      ],
      "name": "markGemAsUsed",
      "outputs": [],
      "payable": false,
      "stateMutability": "nonpayable",
      "type": "function",
      "signature": "0xe85f2238"
    }
  ],
  "bytecode": "0x60806040526000805534801561001457600080fd5b506040516020806116d48339810180604052602081101561003457600080fd5b810190808051906020019092919050505080600260006101000a81548173ffffffffffffffffffffffffffffffffffffffff021916908373ffffffffffffffffffffffffffffffffffffffff1602179055505061163e806100966000396000f3fe60806040526004361061006d576000357c0100000000000000000000000000000000000000000000000000000000900463ffffffff1680634b104b9e146100725780635f801c7a1461032a5780636056fe7e14610355578063cee07c4b14610383578063e85f2238146105e0575b600080fd5b34801561007e57600080fd5b50610328600480360361010081101561009657600080fd5b8101908080359060200190929190803590602001906401000000008111156100bd57600080fd5b8201836020820111156100cf57600080fd5b803590602001918460018302840111640100000000831117156100f157600080fd5b91908080601f016020809104026020016040519081016040528093929190818152602001838380828437600081840152601f19601f820116905080830192505050505050509192919290803590602001909291908035906020019064010000000081111561015e57600080fd5b82018360208201111561017057600080fd5b8035906020019184600183028401116401000000008311171561019257600080fd5b91908080601f016020809104026020016040519081016040528093929190818152602001838380828437600081840152601f19601f820116905080830192505050505050509192919290803590602001906401000000008111156101f557600080fd5b82018360208201111561020757600080fd5b8035906020019184600183028401116401000000008311171561022957600080fd5b91908080601f016020809104026020016040519081016040528093929190818152602001838380828437600081840152601f19601f8201169050808301925050505050505091929192908035151590602001909291908035906020019064010000000081111561029857600080fd5b8201836020820111156102aa57600080fd5b803590602001918460018302840111640100000000831117156102cc57600080fd5b91908080601f016020809104026020016040519081016040528093929190818152602001838380828437600081840152601f19601f8201169050808301925050505050505091929192908035906020019092919050505061061b565b005b34801561033657600080fd5b5061033f610a2f565b6040518082815260200191505060405180910390f35b6103816004803603602081101561036b57600080fd5b8101908080359060200190929190505050610a35565b005b34801561038f57600080fd5b506103bc600480360360208110156103a657600080fd5b8101908080359060200190929190505050610e39565b604051808c81526020018b8152602001806020018a815260200180602001806020018915151515815260200180602001888152602001871515151581526020018673ffffffffffffffffffffffffffffffffffffffff1673ffffffffffffffffffffffffffffffffffffffff16815260200185810385528e818151815260200191508051906020019080838360005b8381101561046657808201518184015260208101905061044b565b50505050905090810190601f1680156104935780820380516001836020036101000a031916815260200191505b5085810384528c818151815260200191508051906020019080838360005b838110156104cc5780820151818401526020810190506104b1565b50505050905090810190601f1680156104f95780820380516001836020036101000a031916815260200191505b5085810383528b818151815260200191508051906020019080838360005b83811015610532578082015181840152602081019050610517565b50505050905090810190601f16801561055f5780820380516001836020036101000a031916815260200191505b50858103825289818151815260200191508051906020019080838360005b8381101561059857808201518184015260208101905061057d565b50505050905090810190601f1680156105c55780820380516001836020036101000a031916815260200191505b509f5050505050505050505050505050505060405180910390f35b3480156105ec57600080fd5b506106196004803603602081101561060357600080fd5b810190808035906020019092919050505061112d565b005b600080815480929190600101919050555061016060405190810160405280600054815260200189815260200188815260200187815260200186815260200185815260200184151581526020018381526020018281526020016000151581526020013373ffffffffffffffffffffffffffffffffffffffff168152506001600080548152602001908152602001600020600082015181600001556020820151816001015560408201518160020190805190602001906106da92919061156d565b5060608201518160030155608082015181600401908051906020019061070192919061156d565b5060a082015181600501908051906020019061071e92919061156d565b5060c08201518160060160006101000a81548160ff02191690831515021790555060e082015181600701908051906020019061075b92919061156d565b5061010082015181600801556101208201518160090160006101000a81548160ff0219169083151502179055506101408201518160090160016101000a81548173ffffffffffffffffffffffffffffffffffffffff021916908373ffffffffffffffffffffffffffffffffffffffff1602179055509050507fa44ca712d78e654b4e34e8f0c3d1cb6fe1698be98047fe3b0526f991db9b38056000548989898989898989600033604051808c81526020018b8152602001806020018a815260200180602001806020018915151515815260200180602001888152602001871515151581526020018673ffffffffffffffffffffffffffffffffffffffff1673ffffffffffffffffffffffffffffffffffffffff16815260200185810385528e818151815260200191508051906020019080838360005b838110156108ac578082015181840152602081019050610891565b50505050905090810190601f1680156108d95780820380516001836020036101000a031916815260200191505b5085810384528c818151815260200191508051906020019080838360005b838110156109125780820151818401526020810190506108f7565b50505050905090810190601f16801561093f5780820380516001836020036101000a031916815260200191505b5085810383528b818151815260200191508051906020019080838360005b8381101561097857808201518184015260208101905061095d565b50505050905090810190601f1680156109a55780820380516001836020036101000a031916815260200191505b50858103825289818151815260200191508051906020019080838360005b838110156109de5780820151818401526020810190506109c3565b50505050905090810190601f168015610a0b5780820380516001836020036101000a031916815260200191505b509f5050505050505050505050505050505060405180910390a15050505050505050565b60005481565b60006001600083815260200190815260200160002090503373ffffffffffffffffffffffffffffffffffffffff168160090160019054906101000a900473ffffffffffffffffffffffffffffffffffffffff1673ffffffffffffffffffffffffffffffffffffffff16141515610b13576040517f08c379a00000000000000000000000000000000000000000000000000000000081526004018080602001828103825260178152602001807f43616c6c6572206973206e6f7420746865206f776e657200000000000000000081525060200191505060405180910390fd5b60018160060160006101000a81548160ff0219169083151502179055507fa44ca712d78e654b4e34e8f0c3d1cb6fe1698be98047fe3b0526f991db9b3805816000015482600101548360020184600301548560040186600501600188600701896008015460008b60090160019054906101000a900473ffffffffffffffffffffffffffffffffffffffff16604051808c81526020018b8152602001806020018a815260200180602001806020018915151515815260200180602001888152602001871515151581526020018673ffffffffffffffffffffffffffffffffffffffff1673ffffffffffffffffffffffffffffffffffffffff16815260200185810385528e818154600181600116156101000203166002900481526020019150805460018160011615610100020316600290048015610c915780601f10610c6657610100808354040283529160200191610c91565b820191906000526020600020905b815481529060010190602001808311610c7457829003601f168201915b505085810384528c818154600181600116156101000203166002900481526020019150805460018160011615610100020316600290048015610d145780601f10610ce957610100808354040283529160200191610d14565b820191906000526020600020905b815481529060010190602001808311610cf757829003601f168201915b505085810383528b818154600181600116156101000203166002900481526020019150805460018160011615610100020316600290048015610d975780601f10610d6c57610100808354040283529160200191610d97565b820191906000526020600020905b815481529060010190602001808311610d7a57829003601f168201915b5050858103825289818154600181600116156101000203166002900481526020019150805460018160011615610100020316600290048015610e1a5780601f10610def57610100808354040283529160200191610e1a565b820191906000526020600020905b815481529060010190602001808311610dfd57829003601f168201915b50509f5050505050505050505050505050505060405180910390a15050565b6001602052806000526040600020600091509050806000015490806001015490806002018054600181600116156101000203166002900480601f016020809104026020016040519081016040528092919081815260200182805460018160011615610100020316600290048015610ef15780601f10610ec657610100808354040283529160200191610ef1565b820191906000526020600020905b815481529060010190602001808311610ed457829003601f168201915b505050505090806003015490806004018054600181600116156101000203166002900480601f016020809104026020016040519081016040528092919081815260200182805460018160011615610100020316600290048015610f955780601f10610f6a57610100808354040283529160200191610f95565b820191906000526020600020905b815481529060010190602001808311610f7857829003601f168201915b505050505090806005018054600181600116156101000203166002900480601f0160208091040260200160405190810160405280929190818152602001828054600181600116156101000203166002900480156110335780601f1061100857610100808354040283529160200191611033565b820191906000526020600020905b81548152906001019060200180831161101657829003601f168201915b5050505050908060060160009054906101000a900460ff1690806007018054600181600116156101000203166002900480601f0160208091040260200160405190810160405280929190818152602001828054600181600116156101000203166002900480156110e45780601f106110b9576101008083540402835291602001916110e4565b820191906000526020600020905b8154815290600101906020018083116110c757829003601f168201915b5050505050908060080154908060090160009054906101000a900460ff16908060090160019054906101000a900473ffffffffffffffffffffffffffffffffffffffff1690508b565b60006001600083815260200190815260200160002090506000816000015411801561115e5750600054816000015411155b15156111d2576040517f08c379a000000000000000000000000000000000000000000000000000000000815260040180806020018281038252600e8152602001807f496e76616c69642067656d20494400000000000000000000000000000000000081525060200191505060405180910390fd5b600015158160090160009054906101000a900460ff16151514151561125f576040517f08c379a00000000000000000000000000000000000000000000000000000000081526004018080602001828103825260108152602001807f47656d20616c726561647920757365640000000000000000000000000000000081525060200191505060405180910390fd5b60018160090160006101000a81548160ff0219169083151502179055507fa44ca712d78e654b4e34e8f0c3d1cb6fe1698be98047fe3b0526f991db9b3805828260010154836002018460030154856004018660050160018860070189600801548a60090160009054906101000a900460ff1633604051808c81526020018b8152602001806020018a815260200180602001806020018915151515815260200180602001888152602001871515151581526020018673ffffffffffffffffffffffffffffffffffffffff1673ffffffffffffffffffffffffffffffffffffffff16815260200185810385528e8181546001816001161561010002031660029004815260200191508054600181600116156101000203166002900480156113c55780601f1061139a576101008083540402835291602001916113c5565b820191906000526020600020905b8154815290600101906020018083116113a857829003601f168201915b505085810384528c8181546001816001161561010002031660029004815260200191508054600181600116156101000203166002900480156114485780601f1061141d57610100808354040283529160200191611448565b820191906000526020600020905b81548152906001019060200180831161142b57829003601f168201915b505085810383528b8181546001816001161561010002031660029004815260200191508054600181600116156101000203166002900480156114cb5780601f106114a0576101008083540402835291602001916114cb565b820191906000526020600020905b8154815290600101906020018083116114ae57829003601f168201915b505085810382528981815460018160011615610100020316600290048152602001915080546001816001161561010002031660029004801561154e5780601f106115235761010080835404028352916020019161154e565b820191906000526020600020905b81548152906001019060200180831161153157829003601f168201915b50509f5050505050505050505050505050505060405180910390a15050565b828054600181600116156101000203166002900490600052602060002090601f016020900481019282601f106115ae57805160ff19168380011785556115dc565b828001600101855582156115dc579182015b828111156115db5782518255916020019190600101906115c0565b5b5090506115e991906115ed565b5090565b61160f91905b8082111561160b5760008160009055506001016115f3565b5090565b9056fea165627a7a7230582091fbce41735cce540b9a381b2c6368610fcaee3cdd886975fb01c1157bbad5a30029",
  "source": "pragma solidity >=0.4.21 <0.6.0;\nimport \"./GemstoneExtraction.sol\";\n\ninterface IGemstoneExtraction {\n    function minedGems(uint) external view returns (uint id, string memory gemType, uint weight, uint height, uint width, uint price, string memory miningLocation, uint miningYear, bool selected, string memory extractionMethod, address payable owner, bool purchased);\n}\n\n\n\ncontract GemstoneSelecting {\n    \n    uint public selectedGemCount = 0;\n    mapping (uint => SelectedGem) public selectedGems;\n      IGemstoneExtraction gemstoneExtraction;\n\n    struct SelectedGem{\n        uint id;\n        uint minedGemId;\n        string size;\n        uint carat; //==weight A karát a drágakövek tömegének mérésére szolgáló mértékegység. Jele: Kt, angolszász területen ct.\n        string color;\n        string gemType; //etc gyémánt, rubint, gránit\n        bool polishing;\n        string fileURL;\n        uint price;\n        bool used;\n        address owner;\n    }\n\n     event GemSelecting(\n        uint id,\n        uint minedGemId,\n        string size,\n        uint carat,\n        string color,\n        string gemType,\n        bool polishing,\n        string fileURL,\n        uint price,\n        bool used,\n        address owner\n     );\n\n constructor(address _gemstoneExtractionAddress) public {\n        gemstoneExtraction = IGemstoneExtraction(_gemstoneExtractionAddress);\n    }\n        // a minedGemId majd a js-sel kerül át. Kattintás után\n   // A gemSelecting függvény módosítása a GemstoneSelecting szerződésben\nfunction gemSelecting(\n    uint _minedGemId,\n    string memory _size,\n    uint _carat,\n    string memory _color,\n    string memory _gemtype,\n    bool _polishing,\n    string memory _fileURL,\n    uint _price\n) public {\n    // Lekérdezzük a bányászott gyémánt adatait a GemstoneExtraction szerződésből\n    //(, ,, , , , , , , , , ) = gemstoneExtraction.minedGems(_minedGemId);\n\n    // Ellenőrizzük, hogy a paraméterként átadott súly kisebb-e, mint a bányászott drágakő súlya\n    \n   // require(_weight <= minedWeight, \"Selected gem width must be less than mined gem weight\");\n    \n   // require(_price >= minedPrice, \"Selected gem price must be less than mined gem weight\");\n\n    \n\n   \n    // Ellenőrizzük, hogy a gyémánt még nincs kiválasztva\n   // require(!selected, \"The gem is already selected\");\n\n    // Folytatjuk a gyémánt hozzáadását, ha minden ellenőrzés sikeres\n    selectedGemCount++;\n    selectedGems[selectedGemCount] = SelectedGem(\n        selectedGemCount,\n        _minedGemId,\n        _size,\n        _carat,\n        _color,\n        _gemtype,\n        _polishing,\n        _fileURL,\n        _price,\n        false,\n        msg.sender\n    );\n\n    emit GemSelecting(\n        selectedGemCount,\n        _minedGemId,\n        _size,\n        _carat,\n        _color,\n        _gemtype,\n        _polishing,\n        _fileURL,\n        _price,\n        false,\n        msg.sender\n    );\n\n    // Itt kellene hozzáadni egy új függvényhívást a GemstoneExtraction szerződéshez, hogy beállítsuk a 'selected' állapotot 'true'-ra\n}\n\n\n\n     function polishGem(uint _id) public payable {\n    SelectedGem storage _selectedGem = selectedGems[_id];\n    require(_selectedGem.owner == msg.sender, \"Caller is not the owner\");\n\n    // További logika a fizetés és a polírozási folyamat kezelésére\n\n    _selectedGem.polishing = true;\n\n    emit GemSelecting(\n        _selectedGem.id, \n        _selectedGem.minedGemId, \n        _selectedGem.size,\n        _selectedGem.carat, \n        _selectedGem.color, \n        _selectedGem.gemType, \n        true, \n        _selectedGem.fileURL,\n        _selectedGem.price, \n        false,\n        _selectedGem.owner\n    );\n     }\n\n    function markGemAsUsed(uint _id) public {\n        SelectedGem storage _selectedGem = selectedGems[_id];\n        require(_selectedGem.id > 0 && _selectedGem.id <= selectedGemCount, \"Invalid gem ID\");\n        require(_selectedGem.used == false, \"Gem already used\");\n        //require(_selectedGem.owner == msg.sender, \"Only the owner can select the gem\");\n\n        _selectedGem.used = true;\n\n        emit GemSelecting(_id, _selectedGem.minedGemId, _selectedGem.size, _selectedGem.carat,  _selectedGem.color, _selectedGem.gemType, true,_selectedGem.fileURL, _selectedGem.price, _selectedGem.used, msg.sender);\n    }\n\n//innen úgy kellene tovább menni, hogy kiválogatva ki lesz.\n// az itt felvitt adatokkal látszik, hogy feldolgozatlan gyémánt/ rubint/etc\n//utána két külön .sol-ban kezelni a gyémántot és a többi drágakövet. (könyvjelzőből drágakőpiac, gyéméntpiac) adataival\n//a vágást azokkal a .sol-okkal menti el\n//utána a csiszolás, utána a polirozas\n//tanusitvány kiadása???\n//ékszerész veszi meg -> ékszertervezés\n//befejezés , felületkezelés\n//minőségellenőrzés \n}",
  "sourcePath": "/home/berkeanna/folder/2/jewRoundx/src/contracts/GemstoneSelecting.sol",
  "compiler": {
    "name": "solc",
    "version": "0.5.0+commit.1d4f565a.Emscripten.clang"
  },
  "schemaVersion": "3.0.1",
  "updatedAt": "2024-03-06T19:13:05.844Z",
  "devdoc": {
    "methods": {}
  },
  "userdoc": {
    "methods": {}
  }
}