{
  "contractName": "GemstoneExtraction",
  "abi": [
    {
      "constant": true,
      "inputs": [],
      "name": "name",
      "outputs": [
        {
          "name": "",
          "type": "string"
        }
      ],
      "payable": false,
      "stateMutability": "view",
      "type": "function",
      "signature": "0x06fdde03"
    },
    {
      "constant": true,
      "inputs": [
        {
          "name": "",
          "type": "uint256"
        }
      ],
      "name": "minedGems",
      "outputs": [
        {
          "name": "id",
          "type": "uint256"
        },
        {
          "name": "gemType",
          "type": "string"
        },
        {
          "name": "weight",
          "type": "uint256"
        },
        {
          "name": "height",
          "type": "uint256"
        },
        {
          "name": "width",
          "type": "uint256"
        },
        {
          "name": "price",
          "type": "uint256"
        },
        {
          "name": "miningLocation",
          "type": "string"
        },
        {
          "name": "miningYear",
          "type": "uint256"
        },
        {
          "name": "pointOfProcessing",
          "type": "uint8"
        },
        {
          "name": "extractionMethod",
          "type": "string"
        },
        {
          "name": "owner",
          "type": "address"
        },
        {
          "name": "purchased",
          "type": "bool"
        }
      ],
      "payable": false,
      "stateMutability": "view",
      "type": "function",
      "signature": "0x1e166c4e"
    },
    {
      "constant": true,
      "inputs": [],
      "name": "minedGemCount",
      "outputs": [
        {
          "name": "",
          "type": "uint256"
        }
      ],
      "payable": false,
      "stateMutability": "view",
      "type": "function",
      "signature": "0xd0cfe11e"
    },
    {
      "inputs": [],
      "payable": false,
      "stateMutability": "nonpayable",
      "type": "constructor",
      "signature": "constructor"
    },
    {
      "anonymous": false,
      "inputs": [
        {
          "indexed": false,
          "name": "id",
          "type": "uint256"
        },
        {
          "indexed": false,
          "name": "gemType",
          "type": "string"
        },
        {
          "indexed": false,
          "name": "weight",
          "type": "uint256"
        },
        {
          "indexed": false,
          "name": "height",
          "type": "uint256"
        },
        {
          "indexed": false,
          "name": "width",
          "type": "uint256"
        },
        {
          "indexed": false,
          "name": "price",
          "type": "uint256"
        },
        {
          "indexed": false,
          "name": "miningLocation",
          "type": "string"
        },
        {
          "indexed": false,
          "name": "miningYear",
          "type": "uint256"
        },
        {
          "indexed": false,
          "name": "pointOfProcessing",
          "type": "uint8"
        },
        {
          "indexed": false,
          "name": "extractionMethod",
          "type": "string"
        },
        {
          "indexed": false,
          "name": "owner",
          "type": "address"
        },
        {
          "indexed": false,
          "name": "purchased",
          "type": "bool"
        }
      ],
      "name": "GemMining",
      "type": "event",
      "signature": "0x35a67dfbcc94242e51dc2ca9a1d7373b6459bbcc8a83708496ce17a82ea2c8c0"
    },
    {
      "anonymous": false,
      "inputs": [
        {
          "indexed": false,
          "name": "id",
          "type": "uint256"
        },
        {
          "indexed": false,
          "name": "gemType",
          "type": "string"
        },
        {
          "indexed": false,
          "name": "weight",
          "type": "uint256"
        },
        {
          "indexed": false,
          "name": "height",
          "type": "uint256"
        },
        {
          "indexed": false,
          "name": "width",
          "type": "uint256"
        },
        {
          "indexed": false,
          "name": "price",
          "type": "uint256"
        },
        {
          "indexed": false,
          "name": "miningLocation",
          "type": "string"
        },
        {
          "indexed": false,
          "name": "miningYear",
          "type": "uint256"
        },
        {
          "indexed": false,
          "name": "pointOfProcessing",
          "type": "uint8"
        },
        {
          "indexed": false,
          "name": "extractionMethod",
          "type": "string"
        },
        {
          "indexed": false,
          "name": "owner",
          "type": "address"
        },
        {
          "indexed": false,
          "name": "purchased",
          "type": "bool"
        }
      ],
      "name": "GemPurchasing",
      "type": "event",
      "signature": "0xcd73f0e3e47a05662cb7b785e9afab11c81953329e60a582835dadbff88fde5d"
    },
    {
      "constant": false,
      "inputs": [
        {
          "name": "_gemType",
          "type": "string"
        },
        {
          "name": "_weight",
          "type": "uint256"
        },
        {
          "name": "_height",
          "type": "uint256"
        },
        {
          "name": "_width",
          "type": "uint256"
        },
        {
          "name": "_price",
          "type": "uint256"
        },
        {
          "name": "_miningLocation",
          "type": "string"
        },
        {
          "name": "_miningYear",
          "type": "uint256"
        },
        {
          "name": "_pointOfProcessing",
          "type": "uint8"
        },
        {
          "name": "_extractionMethod",
          "type": "string"
        },
        {
          "name": "_purchased",
          "type": "bool"
        }
      ],
      "name": "gemMining",
      "outputs": [],
      "payable": false,
      "stateMutability": "nonpayable",
      "type": "function",
      "signature": "0x3eecdfd9"
    },
    {
      "constant": false,
      "inputs": [
        {
          "name": "_id",
          "type": "uint256"
        }
      ],
      "name": "purchaseGem",
      "outputs": [],
      "payable": true,
      "stateMutability": "payable",
      "type": "function",
      "signature": "0x9b8efcd9"
    }
  ],
  "bytecode": "0x608060405260006001553480156200001657600080fd5b506040805190810160405280600181526020017f780000000000000000000000000000000000000000000000000000000000000081525060009080519060200190620000649291906200006b565b506200011a565b828054600181600116156101000203166002900490600052602060002090601f016020900481019282601f10620000ae57805160ff1916838001178555620000df565b82800160010185558215620000df579182015b82811115620000de578251825591602001919060010190620000c1565b5b509050620000ee9190620000f2565b5090565b6200011791905b8082111562000113576000816000905550600101620000f9565b5090565b90565b611622806200012a6000396000f3fe60806040526004361061006d576000357c0100000000000000000000000000000000000000000000000000000000900463ffffffff16806306fdde03146100725780631e166c4e146101025780633eecdfd91461030b5780639b8efcd91461054d578063d0cfe11e1461057b575b600080fd5b34801561007e57600080fd5b506100876105a6565b6040518080602001828103825283818151815260200191508051906020019080838360005b838110156100c75780820151818401526020810190506100ac565b50505050905090810190601f1680156100f45780820380516001836020036101000a031916815260200191505b509250505060405180910390f35b34801561010e57600080fd5b5061013b6004803603602081101561012557600080fd5b8101908080359060200190929190505050610644565b604051808d8152602001806020018c81526020018b81526020018a81526020018981526020018060200188815260200187600281111561017757fe5b60ff168152602001806020018673ffffffffffffffffffffffffffffffffffffffff1673ffffffffffffffffffffffffffffffffffffffff1681526020018515151515815260200184810384528f818151815260200191508051906020019080838360005b838110156101f75780820151818401526020810190506101dc565b50505050905090810190601f1680156102245780820380516001836020036101000a031916815260200191505b5084810383528a818151815260200191508051906020019080838360005b8381101561025d578082015181840152602081019050610242565b50505050905090810190601f16801561028a5780820380516001836020036101000a031916815260200191505b50848103825287818151815260200191508051906020019080838360005b838110156102c35780820151818401526020810190506102a8565b50505050905090810190601f1680156102f05780820380516001836020036101000a031916815260200191505b509f5050505050505050505050505050505060405180910390f35b34801561031757600080fd5b5061054b600480360361014081101561032f57600080fd5b810190808035906020019064010000000081111561034c57600080fd5b82018360208201111561035e57600080fd5b8035906020019184600183028401116401000000008311171561038057600080fd5b91908080601f016020809104026020016040519081016040528093929190818152602001838380828437600081840152601f19601f820116905080830192505050505050509192919290803590602001909291908035906020019092919080359060200190929190803590602001909291908035906020019064010000000081111561040b57600080fd5b82018360208201111561041d57600080fd5b8035906020019184600183028401116401000000008311171561043f57600080fd5b91908080601f016020809104026020016040519081016040528093929190818152602001838380828437600081840152601f19601f82011690508083019250505050505050919291929080359060200190929190803560ff169060200190929190803590602001906401000000008111156104b957600080fd5b8201836020820111156104cb57600080fd5b803590602001918460018302840111640100000000831117156104ed57600080fd5b91908080601f016020809104026020016040519081016040528093929190818152602001838380828437600081840152601f19601f8201169050808301925050505050505091929192908035151590602001909291905050506108a6565b005b6105796004803603602081101561056357600080fd5b8101908080359060200190929190505050610db6565b005b34801561058757600080fd5b506105906114c6565b6040518082815260200191505060405180910390f35b60008054600181600116156101000203166002900480601f01602080910402602001604051908101604052809291908181526020018280546001816001161561010002031660029004801561063c5780601f106106115761010080835404028352916020019161063c565b820191906000526020600020905b81548152906001019060200180831161061f57829003601f168201915b505050505081565b6002602052806000526040600020600091509050806000015490806001018054600181600116156101000203166002900480601f0160208091040260200160405190810160405280929190818152602001828054600181600116156101000203166002900480156106f65780601f106106cb576101008083540402835291602001916106f6565b820191906000526020600020905b8154815290600101906020018083116106d957829003601f168201915b505050505090806002015490806003015490806004015490806005015490806006018054600181600116156101000203166002900480601f0160208091040260200160405190810160405280929190818152602001828054600181600116156101000203166002900480156107ac5780601f10610781576101008083540402835291602001916107ac565b820191906000526020600020905b81548152906001019060200180831161078f57829003601f168201915b5050505050908060070154908060080160009054906101000a900460ff1690806009018054600181600116156101000203166002900480601f0160208091040260200160405190810160405280929190818152602001828054600181600116156101000203166002900480156108635780601f1061083857610100808354040283529160200191610863565b820191906000526020600020905b81548152906001019060200180831161084657829003601f168201915b50505050509080600a0160009054906101000a900473ffffffffffffffffffffffffffffffffffffffff169080600a0160149054906101000a900460ff1690508c565b60008a5111151561091f576040517f08c379a00000000000000000000000000000000000000000000000000000000081526004018080602001828103825260188152602001807f47656d20747970652063616e6e6f7420626520656d707479000000000000000081525060200191505060405180910390fd5b60008911151561092e57600080fd5b60008811151561093d57600080fd5b60008711151561094c57600080fd5b60008611151561095b57600080fd5b60008411151561096a57600080fd5b600085511115156109e3576040517f08c379a000000000000000000000000000000000000000000000000000000000815260040180806020018281038252601f8152602001807f4d696e696e67206c6f636174696f6e2063616e6e6f7420626520656d7074790081525060200191505060405180910390fd5b6001600081548092919060010191905055506101806040519081016040528060015481526020018b81526020018a8152602001898152602001888152602001878152602001868152602001858152602001846002811115610a4057fe5b81526020018381526020013373ffffffffffffffffffffffffffffffffffffffff168152602001821515815250600260006001548152602001908152602001600020600082015181600001556020820151816001019080519060200190610aa89291906114cc565b5060408201518160020155606082015181600301556080820151816004015560a0820151816005015560c0820151816006019080519060200190610aed9291906114cc565b5060e082015181600701556101008201518160080160006101000a81548160ff02191690836002811115610b1d57fe5b0217905550610120820151816009019080519060200190610b3f9291906114cc565b5061014082015181600a0160006101000a81548173ffffffffffffffffffffffffffffffffffffffff021916908373ffffffffffffffffffffffffffffffffffffffff16021790555061016082015181600a0160146101000a81548160ff0219169083151502179055509050507f35a67dfbcc94242e51dc2ca9a1d7373b6459bbcc8a83708496ce17a82ea2c8c06001548b8b8b8b8b8b8b8b8b338c604051808d8152602001806020018c81526020018b81526020018a815260200189815260200180602001888152602001876002811115610c1757fe5b60ff168152602001806020018673ffffffffffffffffffffffffffffffffffffffff1673ffffffffffffffffffffffffffffffffffffffff1681526020018515151515815260200184810384528f818151815260200191508051906020019080838360005b83811015610c97578082015181840152602081019050610c7c565b50505050905090810190601f168015610cc45780820380516001836020036101000a031916815260200191505b5084810383528a818151815260200191508051906020019080838360005b83811015610cfd578082015181840152602081019050610ce2565b50505050905090810190601f168015610d2a5780820380516001836020036101000a031916815260200191505b50848103825287818151815260200191508051906020019080838360005b83811015610d63578082015181840152602081019050610d48565b50505050905090810190601f168015610d905780820380516001836020036101000a031916815260200191505b509f5050505050505050505050505050505060405180910390a150505050505050505050565b610dbe61154c565b60026000838152602001908152602001600020610180604051908101604052908160008201548152602001600182018054600181600116156101000203166002900480601f016020809104026020016040519081016040528092919081815260200182805460018160011615610100020316600290048015610e815780601f10610e5657610100808354040283529160200191610e81565b820191906000526020600020905b815481529060010190602001808311610e6457829003601f168201915b5050505050815260200160028201548152602001600382015481526020016004820154815260200160058201548152602001600682018054600181600116156101000203166002900480601f016020809104026020016040519081016040528092919081815260200182805460018160011615610100020316600290048015610f4b5780601f10610f2057610100808354040283529160200191610f4b565b820191906000526020600020905b815481529060010190602001808311610f2e57829003601f168201915b50505050508152602001600782015481526020016008820160009054906101000a900460ff166002811115610f7c57fe5b6002811115610f8757fe5b8152602001600982018054600181600116156101000203166002900480601f0160208091040260200160405190810160405280929190818152602001828054600181600116156101000203166002900480156110245780601f10610ff957610100808354040283529160200191611024565b820191906000526020600020905b81548152906001019060200180831161100757829003601f168201915b50505050508152602001600a820160009054906101000a900473ffffffffffffffffffffffffffffffffffffffff1673ffffffffffffffffffffffffffffffffffffffff1673ffffffffffffffffffffffffffffffffffffffff168152602001600a820160149054906101000a900460ff1615151515815250509050600081610140015190503382610140019073ffffffffffffffffffffffffffffffffffffffff16908173ffffffffffffffffffffffffffffffffffffffff16815250506001826101600190151590811515815250506001826101000190600281111561110857fe5b9081600281111561111557fe5b8152505081600260008581526020019081526020016000206000820151816000015560208201518160010190805190602001906111539291906114cc565b5060408201518160020155606082015181600301556080820151816004015560a0820151816005015560c08201518160060190805190602001906111989291906114cc565b5060e082015181600701556101008201518160080160006101000a81548160ff021916908360028111156111c857fe5b02179055506101208201518160090190805190602001906111ea9291906114cc565b5061014082015181600a0160006101000a81548173ffffffffffffffffffffffffffffffffffffffff021916908373ffffffffffffffffffffffffffffffffffffffff16021790555061016082015181600a0160146101000a81548160ff0219169083151502179055509050508073ffffffffffffffffffffffffffffffffffffffff166108fc349081150290604051600060405180830381858888f1935050505015801561129d573d6000803e3d6000fd5b507fcd73f0e3e47a05662cb7b785e9afab11c81953329e60a582835dadbff88fde5d8383602001518460400151856060015186608001518760a001518860c001518960e001518a61010001518b6101200151336001604051808d8152602001806020018c81526020018b81526020018a81526020018981526020018060200188815260200187600281111561132e57fe5b60ff168152602001806020018673ffffffffffffffffffffffffffffffffffffffff1673ffffffffffffffffffffffffffffffffffffffff1681526020018515151515815260200184810384528f818151815260200191508051906020019080838360005b838110156113ae578082015181840152602081019050611393565b50505050905090810190601f1680156113db5780820380516001836020036101000a031916815260200191505b5084810383528a818151815260200191508051906020019080838360005b838110156114145780820151818401526020810190506113f9565b50505050905090810190601f1680156114415780820380516001836020036101000a031916815260200191505b50848103825287818151815260200191508051906020019080838360005b8381101561147a57808201518184015260208101905061145f565b50505050905090810190601f1680156114a75780820380516001836020036101000a031916815260200191505b509f5050505050505050505050505050505060405180910390a1505050565b60015481565b828054600181600116156101000203166002900490600052602060002090601f016020900481019282601f1061150d57805160ff191683800117855561153b565b8280016001018555821561153b579182015b8281111561153a57825182559160200191906001019061151f565b5b50905061154891906115d1565b5090565b6101806040519081016040528060008152602001606081526020016000815260200160008152602001600081526020016000815260200160608152602001600081526020016000600281111561159e57fe5b815260200160608152602001600073ffffffffffffffffffffffffffffffffffffffff1681526020016000151581525090565b6115f391905b808211156115ef5760008160009055506001016115d7565b5090565b9056fea165627a7a72305820bb91cbf7da3944dc1b0e124f40e24d4cca22aa8253ed241295c54409a85c05090029",
  "source": "pragma solidity >=0.4.21 <0.6.0;\n\ncontract GemstoneExtraction {\n// https://www.youtube.com/watch?v=VH9Q2lf2mNo&t=1990s 1:11:54\n    string public name;\n    uint public minedGemCount = 0;\n\n    mapping( uint => MinedGem) public minedGems;\n\n    enum PointOfProcessing {MINED, SALEOFMINEDPRODUCT, SELECTED }\n\n    struct MinedGem {\n        uint id;\n        string gemType;\n        uint weight;\n        uint height; //y\n       // uint length; //x\n        uint width; //z\n        uint price; \n        string miningLocation;\n        uint miningYear;\n       // uint miningMonth;\n        PointOfProcessing pointOfProcessing;\n        string extractionMethod; //enum?\n        address payable owner;\n        bool purchased;\n    \n    }\n\n    event GemMining(\n        uint id,\n        string gemType,\n        uint weight,\n        uint height, \n        uint width,\n        uint price, \n        string miningLocation,\n        uint miningYear,\n        PointOfProcessing pointOfProcessing,\n        string extractionMethod,\n        address payable owner,\n        bool purchased\n    );\n\n     event GemPurchasing(\n        uint id,\n        string gemType,\n        uint weight,\n        uint height, \n        uint width,\n        uint price, \n        string miningLocation,\n        uint miningYear,\n        PointOfProcessing pointOfProcessing,\n        string extractionMethod,\n        address payable owner,\n        bool purchased\n     );\n    \n    constructor() public  {\n        name = \"x\";\n    }\n\n    function gemMining(string memory _gemType, uint _weight, uint _height, uint _width,  uint _price, string memory _miningLocation, uint _miningYear, PointOfProcessing _pointOfProcessing, string memory _extractionMethod,  bool _purchased) public {\n        require(bytes(_gemType).length > 0, \"Gem type cannot be empty\");\n        require( _weight > 0);\n        require( _height > 0);\n        require( _width > 0);\n        require( _price > 0);\n        require( _miningYear > 0);\n        require(bytes(_miningLocation).length > 0, \"Mining location cannot be empty\");\n\n        \n        minedGemCount++;\n       minedGems[minedGemCount] = MinedGem(minedGemCount, _gemType, _weight, _height, _width, _price, _miningLocation, _miningYear, _pointOfProcessing, _extractionMethod, msg.sender, _purchased);\n\n       emit GemMining(minedGemCount, _gemType, _weight, _height, _width, _price, _miningLocation, _miningYear, _pointOfProcessing, _extractionMethod, msg.sender, _purchased);\n\n    }\n\n    function purchaseGem(uint _id) public payable{\n        MinedGem memory _gem = minedGems[_id];\n        address payable _seller = _gem.owner;\n        _gem.owner = msg.sender;\n        _gem.purchased = true;\n        _gem.pointOfProcessing = PointOfProcessing.SALEOFMINEDPRODUCT;\n        minedGems[_id] = _gem;\n        address(_seller).transfer(msg.value);\n       emit GemPurchasing(_id, _gem.gemType, _gem.weight, _gem.height, _gem.width, _gem.price, _gem.miningLocation, _gem.miningYear, _gem.pointOfProcessing, _gem.extractionMethod, msg.sender, true);\n\n    }\n}",
  "sourcePath": "/home/berkeanna/folder/jewRoundx/src/contracts/GemstoneExtraction.sol",
  "compiler": {
    "name": "solc",
    "version": "0.5.0+commit.1d4f565a.Emscripten.clang"
  },
  "schemaVersion": "3.0.1",
  "updatedAt": "2023-11-28T11:11:58.167Z",
  "devdoc": {
    "methods": {}
  },
  "userdoc": {
    "methods": {}
  }
}