{
  "contractName": "GemstoneExtraction",
  "abi": [
    {
      "constant": true,
      "inputs": [],
      "name": "name",
      "outputs": [
        {
          "name": "",
          "type": "string"
        }
      ],
      "payable": false,
      "stateMutability": "view",
      "type": "function",
      "signature": "0x06fdde03"
    },
    {
      "constant": true,
      "inputs": [
        {
          "name": "",
          "type": "uint256"
        }
      ],
      "name": "minedGems",
      "outputs": [
        {
          "name": "id",
          "type": "uint256"
        },
        {
          "name": "gemType",
          "type": "string"
        },
        {
          "name": "weight",
          "type": "uint256"
        },
        {
          "name": "size",
          "type": "string"
        },
        {
          "name": "price",
          "type": "uint256"
        },
        {
          "name": "miningLocation",
          "type": "string"
        },
        {
          "name": "miningYear",
          "type": "uint256"
        },
        {
          "name": "selected",
          "type": "bool"
        },
        {
          "name": "owner",
          "type": "address"
        },
        {
          "name": "fileURL",
          "type": "string"
        },
        {
          "name": "purchased",
          "type": "bool"
        }
      ],
      "payable": false,
      "stateMutability": "view",
      "type": "function",
      "signature": "0x1e166c4e"
    },
    {
      "constant": true,
      "inputs": [],
      "name": "minedGemCount",
      "outputs": [
        {
          "name": "",
          "type": "uint256"
        }
      ],
      "payable": false,
      "stateMutability": "view",
      "type": "function",
      "signature": "0xd0cfe11e"
    },
    {
      "inputs": [],
      "payable": false,
      "stateMutability": "nonpayable",
      "type": "constructor",
      "signature": "constructor"
    },
    {
      "anonymous": false,
      "inputs": [
        {
          "indexed": false,
          "name": "id",
          "type": "uint256"
        },
        {
          "indexed": false,
          "name": "gemType",
          "type": "string"
        },
        {
          "indexed": false,
          "name": "weight",
          "type": "uint256"
        },
        {
          "indexed": false,
          "name": "size",
          "type": "string"
        },
        {
          "indexed": false,
          "name": "price",
          "type": "uint256"
        },
        {
          "indexed": false,
          "name": "miningLocation",
          "type": "string"
        },
        {
          "indexed": false,
          "name": "miningYear",
          "type": "uint256"
        },
        {
          "indexed": false,
          "name": "selected",
          "type": "bool"
        },
        {
          "indexed": false,
          "name": "owner",
          "type": "address"
        },
        {
          "indexed": false,
          "name": "fileURL",
          "type": "string"
        },
        {
          "indexed": false,
          "name": "purchased",
          "type": "bool"
        }
      ],
      "name": "GemMining",
      "type": "event",
      "signature": "0x574072ba1cd772ab05486577a0350e9b55f67d10f31b6c1ae87829bd9bd2a408"
    },
    {
      "anonymous": false,
      "inputs": [
        {
          "indexed": false,
          "name": "id",
          "type": "uint256"
        },
        {
          "indexed": false,
          "name": "gemType",
          "type": "string"
        },
        {
          "indexed": false,
          "name": "weight",
          "type": "uint256"
        },
        {
          "indexed": false,
          "name": "size",
          "type": "string"
        },
        {
          "indexed": false,
          "name": "price",
          "type": "uint256"
        },
        {
          "indexed": false,
          "name": "miningLocation",
          "type": "string"
        },
        {
          "indexed": false,
          "name": "miningYear",
          "type": "uint256"
        },
        {
          "indexed": false,
          "name": "selected",
          "type": "bool"
        },
        {
          "indexed": false,
          "name": "owner",
          "type": "address"
        },
        {
          "indexed": false,
          "name": "fileURL",
          "type": "string"
        },
        {
          "indexed": false,
          "name": "purchased",
          "type": "bool"
        }
      ],
      "name": "GemPurchasing",
      "type": "event",
      "signature": "0x4027562b7e9ca66368023228323d9d051b1ee1b9f2d4dfa7b54a939deecea4c3"
    },
    {
      "anonymous": false,
      "inputs": [
        {
          "indexed": false,
          "name": "id",
          "type": "uint256"
        },
        {
          "indexed": false,
          "name": "gemType",
          "type": "string"
        },
        {
          "indexed": false,
          "name": "weight",
          "type": "uint256"
        },
        {
          "indexed": false,
          "name": "size",
          "type": "string"
        },
        {
          "indexed": false,
          "name": "price",
          "type": "uint256"
        },
        {
          "indexed": false,
          "name": "miningLocation",
          "type": "string"
        },
        {
          "indexed": false,
          "name": "miningYear",
          "type": "uint256"
        },
        {
          "indexed": false,
          "name": "selected",
          "type": "bool"
        },
        {
          "indexed": false,
          "name": "owner",
          "type": "address"
        },
        {
          "indexed": false,
          "name": "fileURL",
          "type": "string"
        },
        {
          "indexed": false,
          "name": "purchased",
          "type": "bool"
        }
      ],
      "name": "GemPurchased",
      "type": "event",
      "signature": "0x572747e64e76e5b97065ec0d85461ba6a3df9c0722ffcb47e4c6f0082c6e59d7"
    },
    {
      "anonymous": false,
      "inputs": [
        {
          "indexed": false,
          "name": "id",
          "type": "uint256"
        },
        {
          "indexed": false,
          "name": "gemType",
          "type": "string"
        },
        {
          "indexed": false,
          "name": "weight",
          "type": "uint256"
        },
        {
          "indexed": false,
          "name": "size",
          "type": "string"
        },
        {
          "indexed": false,
          "name": "price",
          "type": "uint256"
        },
        {
          "indexed": false,
          "name": "miningLocation",
          "type": "string"
        },
        {
          "indexed": false,
          "name": "miningYear",
          "type": "uint256"
        },
        {
          "indexed": false,
          "name": "selected",
          "type": "bool"
        },
        {
          "indexed": false,
          "name": "owner",
          "type": "address"
        },
        {
          "indexed": false,
          "name": "fileURL",
          "type": "string"
        },
        {
          "indexed": false,
          "name": "purchased",
          "type": "bool"
        }
      ],
      "name": "GemSelected",
      "type": "event",
      "signature": "0x23ada6298d21428dfd03c45be238cb967d3b5985a4a79c5c1b0b447aea2ab441"
    },
    {
      "constant": false,
      "inputs": [
        {
          "name": "_gemType",
          "type": "string"
        },
        {
          "name": "_weight",
          "type": "uint256"
        },
        {
          "name": "_size",
          "type": "string"
        },
        {
          "name": "_price",
          "type": "uint256"
        },
        {
          "name": "_miningLocation",
          "type": "string"
        },
        {
          "name": "_miningYear",
          "type": "uint256"
        },
        {
          "name": "_fileURL",
          "type": "string"
        },
        {
          "name": "_purchased",
          "type": "bool"
        }
      ],
      "name": "gemMining",
      "outputs": [],
      "payable": false,
      "stateMutability": "nonpayable",
      "type": "function",
      "signature": "0xfd22ce78"
    },
    {
      "constant": false,
      "inputs": [
        {
          "name": "_id",
          "type": "uint256"
        }
      ],
      "name": "purchaseGem",
      "outputs": [],
      "payable": true,
      "stateMutability": "payable",
      "type": "function",
      "signature": "0x9b8efcd9"
    },
    {
      "constant": false,
      "inputs": [
        {
          "name": "_id",
          "type": "uint256"
        }
      ],
      "name": "processingGem",
      "outputs": [],
      "payable": false,
      "stateMutability": "nonpayable",
      "type": "function",
      "signature": "0xbf38b7a2"
    },
    {
      "constant": false,
      "inputs": [
        {
          "name": "_id",
          "type": "uint256"
        }
      ],
      "name": "markGemAsSelected",
      "outputs": [],
      "payable": false,
      "stateMutability": "nonpayable",
      "type": "function",
      "signature": "0x53cdc244"
    }
  ],
  "bytecode": "0x608060405260006001553480156200001657600080fd5b506040805190810160405280600181526020017f780000000000000000000000000000000000000000000000000000000000000081525060009080519060200190620000649291906200006b565b506200011a565b828054600181600116156101000203166002900490600052602060002090601f016020900481019282601f10620000ae57805160ff1916838001178555620000df565b82800160010185558215620000df579182015b82811115620000de578251825591602001919060010190620000c1565b5b509050620000ee9190620000f2565b5090565b6200011791905b8082111562000113576000816000905550600101620000f9565b5090565b90565b6124e3806200012a6000396000f3fe608060405260043610610083576000357c0100000000000000000000000000000000000000000000000000000000900463ffffffff16806306fdde03146100885780631e166c4e1461011857806353cdc244146103755780639b8efcd9146103b0578063bf38b7a2146103de578063d0cfe11e14610419578063fd22ce7814610444575b600080fd5b34801561009457600080fd5b5061009d6106fc565b6040518080602001828103825283818151815260200191508051906020019080838360005b838110156100dd5780820151818401526020810190506100c2565b50505050905090810190601f16801561010a5780820380516001836020036101000a031916815260200191505b509250505060405180910390f35b34801561012457600080fd5b506101516004803603602081101561013b57600080fd5b810190808035906020019092919050505061079a565b604051808c8152602001806020018b8152602001806020018a815260200180602001898152602001881515151581526020018773ffffffffffffffffffffffffffffffffffffffff1673ffffffffffffffffffffffffffffffffffffffff168152602001806020018615151515815260200185810385528f818151815260200191508051906020019080838360005b838110156101fb5780820151818401526020810190506101e0565b50505050905090810190601f1680156102285780820380516001836020036101000a031916815260200191505b5085810384528d818151815260200191508051906020019080838360005b83811015610261578082015181840152602081019050610246565b50505050905090810190601f16801561028e5780820380516001836020036101000a031916815260200191505b5085810383528b818151815260200191508051906020019080838360005b838110156102c75780820151818401526020810190506102ac565b50505050905090810190601f1680156102f45780820380516001836020036101000a031916815260200191505b50858103825287818151815260200191508051906020019080838360005b8381101561032d578082015181840152602081019050610312565b50505050905090810190601f16801561035a5780820380516001836020036101000a031916815260200191505b509f5050505050505050505050505050505060405180910390f35b34801561038157600080fd5b506103ae6004803603602081101561039857600080fd5b8101908080359060200190929190505050610a8e565b005b6103dc600480360360208110156103c657600080fd5b8101908080359060200190929190505050610fbb565b005b3480156103ea57600080fd5b506104176004803603602081101561040157600080fd5b81019080803590602001909291905050506117c3565b005b34801561042557600080fd5b5061042e611d00565b6040518082815260200191505060405180910390f35b34801561045057600080fd5b506106fa600480360361010081101561046857600080fd5b810190808035906020019064010000000081111561048557600080fd5b82018360208201111561049757600080fd5b803590602001918460018302840111640100000000831117156104b957600080fd5b91908080601f016020809104026020016040519081016040528093929190818152602001838380828437600081840152601f19601f820116905080830192505050505050509192919290803590602001909291908035906020019064010000000081111561052657600080fd5b82018360208201111561053857600080fd5b8035906020019184600183028401116401000000008311171561055a57600080fd5b91908080601f016020809104026020016040519081016040528093929190818152602001838380828437600081840152601f19601f82011690508083019250505050505050919291929080359060200190929190803590602001906401000000008111156105c757600080fd5b8201836020820111156105d957600080fd5b803590602001918460018302840111640100000000831117156105fb57600080fd5b91908080601f016020809104026020016040519081016040528093929190818152602001838380828437600081840152601f19601f820116905080830192505050505050509192919290803590602001909291908035906020019064010000000081111561066857600080fd5b82018360208201111561067a57600080fd5b8035906020019184600183028401116401000000008311171561069c57600080fd5b91908080601f016020809104026020016040519081016040528093929190818152602001838380828437600081840152601f19601f820116905080830192505050505050509192919290803515159060200190929190505050611d06565b005b60008054600181600116156101000203166002900480601f0160208091040260200160405190810160405280929190818152602001828054600181600116156101000203166002900480156107925780601f1061076757610100808354040283529160200191610792565b820191906000526020600020905b81548152906001019060200180831161077557829003601f168201915b505050505081565b6002602052806000526040600020600091509050806000015490806001018054600181600116156101000203166002900480601f01602080910402602001604051908101604052809291908181526020018280546001816001161561010002031660029004801561084c5780601f106108215761010080835404028352916020019161084c565b820191906000526020600020905b81548152906001019060200180831161082f57829003601f168201915b505050505090806002015490806003018054600181600116156101000203166002900480601f0160208091040260200160405190810160405280929190818152602001828054600181600116156101000203166002900480156108f05780601f106108c5576101008083540402835291602001916108f0565b820191906000526020600020905b8154815290600101906020018083116108d357829003601f168201915b505050505090806004015490806005018054600181600116156101000203166002900480601f0160208091040260200160405190810160405280929190818152602001828054600181600116156101000203166002900480156109945780601f1061096957610100808354040283529160200191610994565b820191906000526020600020905b81548152906001019060200180831161097757829003601f168201915b5050505050908060060154908060070160009054906101000a900460ff16908060070160019054906101000a900473ffffffffffffffffffffffffffffffffffffffff1690806008018054600181600116156101000203166002900480601f016020809104026020016040519081016040528092919081815260200182805460018160011615610100020316600290048015610a715780601f10610a4657610100808354040283529160200191610a71565b820191906000526020600020905b815481529060010190602001808311610a5457829003601f168201915b5050505050908060090160009054906101000a900460ff1690508b565b600060026000838152602001908152602001600020905060008160000154118015610abf5750600154816000015411155b1515610b33576040517f08c379a000000000000000000000000000000000000000000000000000000000815260040180806020018281038252600e8152602001807f496e76616c69642067656d20494400000000000000000000000000000000000081525060200191505060405180910390fd5b600015158160070160009054906101000a900460ff161515141515610bc0576040517f08c379a00000000000000000000000000000000000000000000000000000000081526004018080602001828103825260148152602001807f47656d20616c72656164792073656c656374656400000000000000000000000081525060200191505060405180910390fd5b3373ffffffffffffffffffffffffffffffffffffffff168160070160019054906101000a900473ffffffffffffffffffffffffffffffffffffffff1673ffffffffffffffffffffffffffffffffffffffff16141515610cad576040517f08c379a00000000000000000000000000000000000000000000000000000000081526004018080602001828103825260218152602001807f4f6e6c7920746865206f776e65722063616e2073656c6563742074686520676581526020017f6d0000000000000000000000000000000000000000000000000000000000000081525060400191505060405180910390fd5b60018160070160006101000a81548160ff0219169083151502179055507f23ada6298d21428dfd03c45be238cb967d3b5985a4a79c5c1b0b447aea2ab441828260010183600201548460030185600401548660050187600601546001338a6008018b60090160009054906101000a900460ff16604051808c8152602001806020018b8152602001806020018a815260200180602001898152602001881515151581526020018773ffffffffffffffffffffffffffffffffffffffff1673ffffffffffffffffffffffffffffffffffffffff168152602001806020018615151515815260200185810385528f818154600181600116156101000203166002900481526020019150805460018160011615610100020316600290048015610e135780601f10610de857610100808354040283529160200191610e13565b820191906000526020600020905b815481529060010190602001808311610df657829003601f168201915b505085810384528d818154600181600116156101000203166002900481526020019150805460018160011615610100020316600290048015610e965780601f10610e6b57610100808354040283529160200191610e96565b820191906000526020600020905b815481529060010190602001808311610e7957829003601f168201915b505085810383528b818154600181600116156101000203166002900481526020019150805460018160011615610100020316600290048015610f195780601f10610eee57610100808354040283529160200191610f19565b820191906000526020600020905b815481529060010190602001808311610efc57829003601f168201915b5050858103825287818154600181600116156101000203166002900481526020019150805460018160011615610100020316600290048015610f9c5780601f10610f7157610100808354040283529160200191610f9c565b820191906000526020600020905b815481529060010190602001808311610f7f57829003601f168201915b50509f5050505050505050505050505050505060405180910390a15050565b610fc361239d565b60026000838152602001908152602001600020610160604051908101604052908160008201548152602001600182018054600181600116156101000203166002900480601f0160208091040260200160405190810160405280929190818152602001828054600181600116156101000203166002900480156110865780601f1061105b57610100808354040283529160200191611086565b820191906000526020600020905b81548152906001019060200180831161106957829003601f168201915b5050505050815260200160028201548152602001600382018054600181600116156101000203166002900480601f0160208091040260200160405190810160405280929190818152602001828054600181600116156101000203166002900480156111325780601f1061110757610100808354040283529160200191611132565b820191906000526020600020905b81548152906001019060200180831161111557829003601f168201915b5050505050815260200160048201548152602001600582018054600181600116156101000203166002900480601f0160208091040260200160405190810160405280929190818152602001828054600181600116156101000203166002900480156111de5780601f106111b3576101008083540402835291602001916111de565b820191906000526020600020905b8154815290600101906020018083116111c157829003601f168201915b50505050508152602001600682015481526020016007820160009054906101000a900460ff161515151581526020016007820160019054906101000a900473ffffffffffffffffffffffffffffffffffffffff1673ffffffffffffffffffffffffffffffffffffffff1673ffffffffffffffffffffffffffffffffffffffff168152602001600882018054600181600116156101000203166002900480601f0160208091040260200160405190810160405280929190818152602001828054600181600116156101000203166002900480156112fb5780601f106112d0576101008083540402835291602001916112fb565b820191906000526020600020905b8154815290600101906020018083116112de57829003601f168201915b505050505081526020016009820160009054906101000a900460ff161515151581525050905060008161010001519050600082600001511180156113455750600154826000015111155b151561135057600080fd5b8160800151341015151561136357600080fd5b60001515826101400151151514151561137b57600080fd5b3382610100019073ffffffffffffffffffffffffffffffffffffffff16908173ffffffffffffffffffffffffffffffffffffffff16815250506001826101400190151590811515815250508160026000858152602001908152602001600020600082015181600001556020820151816001019080519060200190611400929190612412565b50604082015181600201556060820151816003019080519060200190611427929190612412565b506080820151816004015560a082015181600501908051906020019061144e929190612412565b5060c0820151816006015560e08201518160070160006101000a81548160ff0219169083151502179055506101008201518160070160016101000a81548173ffffffffffffffffffffffffffffffffffffffff021916908373ffffffffffffffffffffffffffffffffffffffff1602179055506101208201518160080190805190602001906114de929190612412565b506101408201518160090160006101000a81548160ff0219169083151502179055509050508073ffffffffffffffffffffffffffffffffffffffff166108fc349081150290604051600060405180830381858888f19350505050158015611549573d6000803e3d6000fd5b507f572747e64e76e5b97065ec0d85461ba6a3df9c0722ffcb47e4c6f0082c6e59d760015483602001518460400151856060015186608001518760a001518860c001516000338b61012001518c6101400151604051808c8152602001806020018b8152602001806020018a815260200180602001898152602001881515151581526020018773ffffffffffffffffffffffffffffffffffffffff1673ffffffffffffffffffffffffffffffffffffffff168152602001806020018615151515815260200185810385528f818151815260200191508051906020019080838360005b8381101561164557808201518184015260208101905061162a565b50505050905090810190601f1680156116725780820380516001836020036101000a031916815260200191505b5085810384528d818151815260200191508051906020019080838360005b838110156116ab578082015181840152602081019050611690565b50505050905090810190601f1680156116d85780820380516001836020036101000a031916815260200191505b5085810383528b818151815260200191508051906020019080838360005b838110156117115780820151818401526020810190506116f6565b50505050905090810190601f16801561173e5780820380516001836020036101000a031916815260200191505b50858103825287818151815260200191508051906020019080838360005b8381101561177757808201518184015260208101905061175c565b50505050905090810190601f1680156117a45780820380516001836020036101000a031916815260200191505b509f5050505050505050505050505050505060405180910390a1505050565b6000600260008381526020019081526020016000209050600081600001541180156117f45750600154816000015411155b1515611868576040517f08c379a000000000000000000000000000000000000000000000000000000000815260040180806020018281038252600e8152602001807f496e76616c69642067656d20494400000000000000000000000000000000000081525060200191505060405180910390fd5b600115158160090160009054906101000a900460ff16151514151561191b576040517f08c379a00000000000000000000000000000000000000000000000000000000081526004018080602001828103825260278152602001807f47656d206d75737420626520707572636861736564206265666f72652070726f81526020017f63657373696e670000000000000000000000000000000000000000000000000081525060400191505060405180910390fd5b600015158160070160009054906101000a900460ff1615151415156119ce576040517f08c379a00000000000000000000000000000000000000000000000000000000081526004018080602001828103825260248152602001807f47656d20697320616c72656164792070726f636573736564206f722073656c6581526020017f637465640000000000000000000000000000000000000000000000000000000081525060400191505060405180910390fd5b60018160070160006101000a81548160ff0219169083151502179055507f572747e64e76e5b97065ec0d85461ba6a3df9c0722ffcb47e4c6f0082c6e59d78282600101836002015484600301856004015486600501876006015460018960070160019054906101000a900473ffffffffffffffffffffffffffffffffffffffff168a6008018b60090160009054906101000a900460ff16604051808c8152602001806020018b8152602001806020018a815260200180602001898152602001881515151581526020018773ffffffffffffffffffffffffffffffffffffffff1673ffffffffffffffffffffffffffffffffffffffff168152602001806020018615151515815260200185810385528f818154600181600116156101000203166002900481526020019150805460018160011615610100020316600290048015611b585780601f10611b2d57610100808354040283529160200191611b58565b820191906000526020600020905b815481529060010190602001808311611b3b57829003601f168201915b505085810384528d818154600181600116156101000203166002900481526020019150805460018160011615610100020316600290048015611bdb5780601f10611bb057610100808354040283529160200191611bdb565b820191906000526020600020905b815481529060010190602001808311611bbe57829003601f168201915b505085810383528b818154600181600116156101000203166002900481526020019150805460018160011615610100020316600290048015611c5e5780601f10611c3357610100808354040283529160200191611c5e565b820191906000526020600020905b815481529060010190602001808311611c4157829003601f168201915b5050858103825287818154600181600116156101000203166002900481526020019150805460018160011615610100020316600290048015611ce15780601f10611cb657610100808354040283529160200191611ce1565b820191906000526020600020905b815481529060010190602001808311611cc457829003601f168201915b50509f5050505050505050505050505050505060405180910390a15050565b60015481565b60008851111515611d7f576040517f08c379a00000000000000000000000000000000000000000000000000000000081526004018080602001828103825260188152602001807f47656d20747970652063616e6e6f7420626520656d707479000000000000000081525060200191505060405180910390fd5b60008651111515611df8576040517f08c379a00000000000000000000000000000000000000000000000000000000081526004018080602001828103825260148152602001807f53697a652063616e6e6f7420626520656d70747900000000000000000000000081525060200191505060405180910390fd5b600085111515611e70576040517f08c379a000000000000000000000000000000000000000000000000000000000815260040180806020018281038252601c8152602001807f5072696365206d7573742062652067726561746572207468616e20300000000081525060200191505060405180910390fd5b600083111515611f0e576040517f08c379a00000000000000000000000000000000000000000000000000000000081526004018080602001828103825260228152602001807f4d696e696e672079656172206d7573742062652067726561746572207468616e81526020017f203000000000000000000000000000000000000000000000000000000000000081525060400191505060405180910390fd5b60008451111515611f87576040517f08c379a000000000000000000000000000000000000000000000000000000000815260040180806020018281038252601f8152602001807f4d696e696e67206c6f636174696f6e2063616e6e6f7420626520656d7074790081525060200191505060405180910390fd5b6001600081548092919060010191905055506101606040519081016040528060015481526020018981526020018881526020018781526020018681526020018581526020018481526020016000151581526020013373ffffffffffffffffffffffffffffffffffffffff16815260200183815260200182151581525060026000600154815260200190815260200160002060008201518160000155602082015181600101908051906020019061203e929190612412565b50604082015181600201556060820151816003019080519060200190612065929190612412565b506080820151816004015560a082015181600501908051906020019061208c929190612412565b5060c0820151816006015560e08201518160070160006101000a81548160ff0219169083151502179055506101008201518160070160016101000a81548173ffffffffffffffffffffffffffffffffffffffff021916908373ffffffffffffffffffffffffffffffffffffffff16021790555061012082015181600801908051906020019061211c929190612412565b506101408201518160090160006101000a81548160ff0219169083151502179055509050507f574072ba1cd772ab05486577a0350e9b55f67d10f31b6c1ae87829bd9bd2a4086001548989898989896000338b8b604051808c8152602001806020018b8152602001806020018a815260200180602001898152602001881515151581526020018773ffffffffffffffffffffffffffffffffffffffff1673ffffffffffffffffffffffffffffffffffffffff168152602001806020018615151515815260200185810385528f818151815260200191508051906020019080838360005b8381101561221a5780820151818401526020810190506121ff565b50505050905090810190601f1680156122475780820380516001836020036101000a031916815260200191505b5085810384528d818151815260200191508051906020019080838360005b83811015612280578082015181840152602081019050612265565b50505050905090810190601f1680156122ad5780820380516001836020036101000a031916815260200191505b5085810383528b818151815260200191508051906020019080838360005b838110156122e65780820151818401526020810190506122cb565b50505050905090810190601f1680156123135780820380516001836020036101000a031916815260200191505b50858103825287818151815260200191508051906020019080838360005b8381101561234c578082015181840152602081019050612331565b50505050905090810190601f1680156123795780820380516001836020036101000a031916815260200191505b509f5050505050505050505050505050505060405180910390a15050505050505050565b6101606040519081016040528060008152602001606081526020016000815260200160608152602001600081526020016060815260200160008152602001600015158152602001600073ffffffffffffffffffffffffffffffffffffffff168152602001606081526020016000151581525090565b828054600181600116156101000203166002900490600052602060002090601f016020900481019282601f1061245357805160ff1916838001178555612481565b82800160010185558215612481579182015b82811115612480578251825591602001919060010190612465565b5b50905061248e9190612492565b5090565b6124b491905b808211156124b0576000816000905550600101612498565b5090565b9056fea165627a7a7230582070a29f1130aef32b1ecd313b12b8c1049d7ed9fde351c480c6e5accfd47abace0029",
  "source": "pragma solidity >=0.4.21 <0.6.0;\n\ncontract GemstoneExtraction {\n// https://www.youtube.com/watch?v=VH9Q2lf2mNo&t=1990s 1:11:54\n    string public name;\n    uint public minedGemCount = 0;\n\n    mapping( uint => MinedGem) public minedGems;\n\n    enum PointOfProcessing {MINED, SALEOFMINEDPRODUCT,  PREPARATION, PROCESSING }\n\n    struct MinedGem {\n        uint id;\n        string gemType;\n        uint weight;\n        string size; // x x y xz\n        uint price; \n        string miningLocation;\n        uint miningYear;\n       // uint miningMonth;\n        bool selected;\n        address payable owner;\n        string fileURL;\n        bool purchased;\n    \n    }\n\n    event GemMining(\n       uint id,\n        string gemType,\n        uint weight,\n        string size,\n        uint price, \n        string miningLocation,\n        uint miningYear,\n         bool selected,\n        address payable owner,\n        string fileURL,\n        bool purchased\n    );\n\n     event GemPurchasing(\n       uint id,\n        string gemType,\n        uint weight,\n        string size,\n        uint price, \n        string miningLocation,\n        uint miningYear,\n         bool selected,\n        address payable owner,\n        string fileURL,\n        bool purchased\n     );\n\n       event GemPurchased(\n        uint id,\n        string gemType,\n        uint weight,\n        string size,\n        uint price, \n        string miningLocation,\n        uint miningYear,\n         bool selected,\n        address payable owner,\n        string fileURL,\n        bool purchased\n    );\n    \n     event GemSelected(\n        uint id,\n        string gemType,\n        uint weight,\n        string size,\n        uint price, \n        string miningLocation,\n        uint miningYear,\n         bool selected,\n        address payable owner,\n        string fileURL,\n        bool purchased\n    );\n    \n\n    constructor() public  {\n        name = \"x\";\n    }\n  function gemMining(\n    string memory _gemType, \n    uint _weight, \n    string memory _size,  \n    uint _price, \n    string memory _miningLocation, \n    uint _miningYear, \n    string memory _fileURL,  \n    bool _purchased\n) public {\n    require(bytes(_gemType).length > 0, \"Gem type cannot be empty\");\n    require(bytes(_size).length > 0, \"Size cannot be empty\");\n    require(_price > 0, \"Price must be greater than 0\");\n    require(_miningYear > 0, \"Mining year must be greater than 0\");\n    require(bytes(_miningLocation).length > 0, \"Mining location cannot be empty\");\n\n    minedGemCount++;\n    minedGems[minedGemCount] = MinedGem(minedGemCount, _gemType, _weight, _size, _price, _miningLocation, _miningYear, false, msg.sender, _fileURL, _purchased);\n\n    emit GemMining(minedGemCount, _gemType, _weight, _size, _price, _miningLocation, _miningYear, false, msg.sender, _fileURL, _purchased);\n}\n\n\n    function purchaseGem(uint _id) public payable{\n        MinedGem memory _minedGem = minedGems[_id];\n        address payable _miner = _minedGem.owner;\n        require(_minedGem.id > 0 && _minedGem.id <= minedGemCount);\n        require(msg.value >= _minedGem.price);\n        require(_minedGem.purchased == false);\n       // require(_miner != msg.sender);\n        _minedGem.owner = msg.sender;\n        _minedGem.purchased = true;\n        minedGems[_id] = _minedGem;\n        address(_miner).transfer(msg.value);\n      emit GemPurchased(minedGemCount, _minedGem.gemType, _minedGem.weight,  _minedGem.size, _minedGem.price, _minedGem.miningLocation,  _minedGem.miningYear,  false, msg.sender, _minedGem.fileURL,  _minedGem.purchased);\n    }\n\n    function processingGem(uint _id) public {\n    MinedGem storage _minedGem = minedGems[_id];\n    require(_minedGem.id > 0 && _minedGem.id <= minedGemCount, \"Invalid gem ID\");\n    require(_minedGem.purchased == true, \"Gem must be purchased before processing\");\n    require(_minedGem.selected == false, \"Gem is already processed or selected\");\n\n    _minedGem.selected = true; // Esetlegesen msik llapotot kellene itt bevezetni, ha a 'selected' nem felel meg.\n\n    emit GemPurchased(_id, _minedGem.gemType, _minedGem.weight, _minedGem.size, _minedGem.price, _minedGem.miningLocation, _minedGem.miningYear, true, _minedGem.owner, _minedGem.fileURL, _minedGem.purchased);\n}\n\n    \nfunction markGemAsSelected(uint _id) public {\n    MinedGem storage _minedGem = minedGems[_id];\n    require(_minedGem.id > 0 && _minedGem.id <= minedGemCount, \"Invalid gem ID\");\n    require(_minedGem.selected == false, \"Gem already selected\");\n    require(_minedGem.owner == msg.sender, \"Only the owner can select the gem\");\n\n    _minedGem.selected = true;\n\n    emit GemSelected(_id, _minedGem.gemType, _minedGem.weight,  _minedGem.size, _minedGem.price, _minedGem.miningLocation,  _minedGem.miningYear, true, msg.sender, _minedGem.fileURL, _minedGem.purchased);\n    }\n\n}\n",
  "sourcePath": "/home/berkeanna/folder/2/jewRoundx/src/contracts/GemstoneExtraction.sol",
  "compiler": {
    "name": "solc",
    "version": "0.5.0+commit.1d4f565a.Emscripten.clang"
  },
  "schemaVersion": "3.0.1",
  "updatedAt": "2024-03-17T12:35:19.255Z",
  "devdoc": {
    "methods": {}
  },
  "userdoc": {
    "methods": {}
  }
}