{
  "contractName": "GemstoneExtraction",
  "abi": [
    {
      "constant": true,
      "inputs": [],
      "name": "name",
      "outputs": [
        {
          "name": "",
          "type": "string"
        }
      ],
      "payable": false,
      "stateMutability": "view",
      "type": "function",
      "signature": "0x06fdde03"
    },
    {
      "constant": true,
      "inputs": [
        {
          "name": "",
          "type": "uint256"
        }
      ],
      "name": "minedGems",
      "outputs": [
        {
          "name": "id",
          "type": "uint256"
        },
        {
          "name": "gemType",
          "type": "string"
        },
        {
          "name": "weight",
          "type": "uint256"
        },
        {
          "name": "height",
          "type": "uint256"
        },
        {
          "name": "width",
          "type": "uint256"
        },
        {
          "name": "price",
          "type": "uint256"
        },
        {
          "name": "miningLocation",
          "type": "string"
        },
        {
          "name": "miningYear",
          "type": "uint256"
        },
        {
          "name": "pointOfProcessing",
          "type": "uint256"
        },
        {
          "name": "extractionMethod",
          "type": "string"
        },
        {
          "name": "owner",
          "type": "address"
        },
        {
          "name": "purchased",
          "type": "bool"
        }
      ],
      "payable": false,
      "stateMutability": "view",
      "type": "function",
      "signature": "0x1e166c4e"
    },
    {
      "constant": true,
      "inputs": [],
      "name": "minedGemCount",
      "outputs": [
        {
          "name": "",
          "type": "uint256"
        }
      ],
      "payable": false,
      "stateMutability": "view",
      "type": "function",
      "signature": "0xd0cfe11e"
    },
    {
      "inputs": [],
      "payable": false,
      "stateMutability": "nonpayable",
      "type": "constructor",
      "signature": "constructor"
    },
    {
      "anonymous": false,
      "inputs": [
        {
          "indexed": false,
          "name": "id",
          "type": "uint256"
        },
        {
          "indexed": false,
          "name": "gemType",
          "type": "string"
        },
        {
          "indexed": false,
          "name": "weight",
          "type": "uint256"
        },
        {
          "indexed": false,
          "name": "height",
          "type": "uint256"
        },
        {
          "indexed": false,
          "name": "width",
          "type": "uint256"
        },
        {
          "indexed": false,
          "name": "price",
          "type": "uint256"
        },
        {
          "indexed": false,
          "name": "miningLocation",
          "type": "string"
        },
        {
          "indexed": false,
          "name": "miningYear",
          "type": "uint256"
        },
        {
          "indexed": false,
          "name": "pointOfProcessing",
          "type": "uint256"
        },
        {
          "indexed": false,
          "name": "extractionMethod",
          "type": "string"
        },
        {
          "indexed": false,
          "name": "owner",
          "type": "address"
        },
        {
          "indexed": false,
          "name": "purchased",
          "type": "bool"
        }
      ],
      "name": "GemMining",
      "type": "event",
      "signature": "0x47d6b4c9e19b19855e25e7dfa493c2847530b7da79d962d0eb95cb1d3c46ce92"
    },
    {
      "anonymous": false,
      "inputs": [
        {
          "indexed": false,
          "name": "id",
          "type": "uint256"
        },
        {
          "indexed": false,
          "name": "gemType",
          "type": "string"
        },
        {
          "indexed": false,
          "name": "weight",
          "type": "uint256"
        },
        {
          "indexed": false,
          "name": "height",
          "type": "uint256"
        },
        {
          "indexed": false,
          "name": "width",
          "type": "uint256"
        },
        {
          "indexed": false,
          "name": "price",
          "type": "uint256"
        },
        {
          "indexed": false,
          "name": "miningLocation",
          "type": "string"
        },
        {
          "indexed": false,
          "name": "miningYear",
          "type": "uint256"
        },
        {
          "indexed": false,
          "name": "pointOfProcessing",
          "type": "uint256"
        },
        {
          "indexed": false,
          "name": "extractionMethod",
          "type": "string"
        },
        {
          "indexed": false,
          "name": "owner",
          "type": "address"
        },
        {
          "indexed": false,
          "name": "purchased",
          "type": "bool"
        }
      ],
      "name": "GemPurchasing",
      "type": "event",
      "signature": "0x9154fe557e87608bb6de30557f98cbeb0a8787fa16cf2bb7ff8c54fe598e4326"
    },
    {
      "anonymous": false,
      "inputs": [
        {
          "indexed": false,
          "name": "id",
          "type": "uint256"
        },
        {
          "indexed": false,
          "name": "gemType",
          "type": "string"
        },
        {
          "indexed": false,
          "name": "weight",
          "type": "uint256"
        },
        {
          "indexed": false,
          "name": "height",
          "type": "uint256"
        },
        {
          "indexed": false,
          "name": "width",
          "type": "uint256"
        },
        {
          "indexed": false,
          "name": "price",
          "type": "uint256"
        },
        {
          "indexed": false,
          "name": "miningLocation",
          "type": "string"
        },
        {
          "indexed": false,
          "name": "miningYear",
          "type": "uint256"
        },
        {
          "indexed": false,
          "name": "pointOfProcessing",
          "type": "uint256"
        },
        {
          "indexed": false,
          "name": "extractionMethod",
          "type": "string"
        },
        {
          "indexed": false,
          "name": "owner",
          "type": "address"
        },
        {
          "indexed": false,
          "name": "purchased",
          "type": "bool"
        }
      ],
      "name": "GemPurchased",
      "type": "event",
      "signature": "0x7db1022267d02eda5f1a7058c1289b8ef0ce1517884c7013c28a040a833e490c"
    },
    {
      "constant": false,
      "inputs": [
        {
          "name": "_gemType",
          "type": "string"
        },
        {
          "name": "_weight",
          "type": "uint256"
        },
        {
          "name": "_height",
          "type": "uint256"
        },
        {
          "name": "_width",
          "type": "uint256"
        },
        {
          "name": "_price",
          "type": "uint256"
        },
        {
          "name": "_miningLocation",
          "type": "string"
        },
        {
          "name": "_miningYear",
          "type": "uint256"
        },
        {
          "name": "_extractionMethod",
          "type": "string"
        },
        {
          "name": "_purchased",
          "type": "bool"
        }
      ],
      "name": "gemMining",
      "outputs": [],
      "payable": false,
      "stateMutability": "nonpayable",
      "type": "function",
      "signature": "0x7df594cb"
    },
    {
      "constant": false,
      "inputs": [
        {
          "name": "_id",
          "type": "uint256"
        }
      ],
      "name": "purchaseGem",
      "outputs": [],
      "payable": true,
      "stateMutability": "payable",
      "type": "function",
      "signature": "0x9b8efcd9"
    },
    {
      "constant": false,
      "inputs": [
        {
          "name": "_id",
          "type": "uint256"
        }
      ],
      "name": "processingGem",
      "outputs": [],
      "payable": true,
      "stateMutability": "payable",
      "type": "function",
      "signature": "0xbf38b7a2"
    }
  ],
  "bytecode": "0x608060405260006001553480156200001657600080fd5b506040805190810160405280600181526020017f780000000000000000000000000000000000000000000000000000000000000081525060009080519060200190620000649291906200006b565b506200011a565b828054600181600116156101000203166002900490600052602060002090601f016020900481019282601f10620000ae57805160ff1916838001178555620000df565b82800160010185558215620000df579182015b82811115620000de578251825591602001919060010190620000c1565b5b509050620000ee9190620000f2565b5090565b6200011791905b8082111562000113576000816000905550600101620000f9565b5090565b90565b611cbd806200012a6000396000f3fe608060405260043610610078576000357c0100000000000000000000000000000000000000000000000000000000900463ffffffff16806306fdde031461007d5780631e166c4e1461010d5780637df594cb146103085780639b8efcd91461053d578063bf38b7a21461056b578063d0cfe11e14610599575b600080fd5b34801561008957600080fd5b506100926105c4565b6040518080602001828103825283818151815260200191508051906020019080838360005b838110156100d25780820151818401526020810190506100b7565b50505050905090810190601f1680156100ff5780820380516001836020036101000a031916815260200191505b509250505060405180910390f35b34801561011957600080fd5b506101466004803603602081101561013057600080fd5b8101908080359060200190929190505050610662565b604051808d8152602001806020018c81526020018b81526020018a815260200189815260200180602001888152602001878152602001806020018673ffffffffffffffffffffffffffffffffffffffff1673ffffffffffffffffffffffffffffffffffffffff1681526020018515151515815260200184810384528f818151815260200191508051906020019080838360005b838110156101f45780820151818401526020810190506101d9565b50505050905090810190601f1680156102215780820380516001836020036101000a031916815260200191505b5084810383528a818151815260200191508051906020019080838360005b8381101561025a57808201518184015260208101905061023f565b50505050905090810190601f1680156102875780820380516001836020036101000a031916815260200191505b50848103825287818151815260200191508051906020019080838360005b838110156102c05780820151818401526020810190506102a5565b50505050905090810190601f1680156102ed5780820380516001836020036101000a031916815260200191505b509f5050505050505050505050505050505060405180910390f35b34801561031457600080fd5b5061053b600480360361012081101561032c57600080fd5b810190808035906020019064010000000081111561034957600080fd5b82018360208201111561035b57600080fd5b8035906020019184600183028401116401000000008311171561037d57600080fd5b91908080601f016020809104026020016040519081016040528093929190818152602001838380828437600081840152601f19601f820116905080830192505050505050509192919290803590602001909291908035906020019092919080359060200190929190803590602001909291908035906020019064010000000081111561040857600080fd5b82018360208201111561041a57600080fd5b8035906020019184600183028401116401000000008311171561043c57600080fd5b91908080601f016020809104026020016040519081016040528093929190818152602001838380828437600081840152601f19601f82011690508083019250505050505050919291929080359060200190929190803590602001906401000000008111156104a957600080fd5b8201836020820111156104bb57600080fd5b803590602001918460018302840111640100000000831117156104dd57600080fd5b91908080601f016020809104026020016040519081016040528093929190818152602001838380828437600081840152601f19601f8201169050808301925050505050505091929192908035151590602001909291905050506108b7565b005b6105696004803603602081101561055357600080fd5b8101908080359060200190929190505050610d90565b005b6105976004803603602081101561058157600080fd5b810190808035906020019092919050505061147e565b005b3480156105a557600080fd5b506105ae611b6c565b6040518082815260200191505060405180910390f35b60008054600181600116156101000203166002900480601f01602080910402602001604051908101604052809291908181526020018280546001816001161561010002031660029004801561065a5780601f1061062f5761010080835404028352916020019161065a565b820191906000526020600020905b81548152906001019060200180831161063d57829003601f168201915b505050505081565b6002602052806000526040600020600091509050806000015490806001018054600181600116156101000203166002900480601f0160208091040260200160405190810160405280929190818152602001828054600181600116156101000203166002900480156107145780601f106106e957610100808354040283529160200191610714565b820191906000526020600020905b8154815290600101906020018083116106f757829003601f168201915b505050505090806002015490806003015490806004015490806005015490806006018054600181600116156101000203166002900480601f0160208091040260200160405190810160405280929190818152602001828054600181600116156101000203166002900480156107ca5780601f1061079f576101008083540402835291602001916107ca565b820191906000526020600020905b8154815290600101906020018083116107ad57829003601f168201915b505050505090806007015490806008015490806009018054600181600116156101000203166002900480601f0160208091040260200160405190810160405280929190818152602001828054600181600116156101000203166002900480156108745780601f1061084957610100808354040283529160200191610874565b820191906000526020600020905b81548152906001019060200180831161085757829003601f168201915b50505050509080600a0160009054906101000a900473ffffffffffffffffffffffffffffffffffffffff169080600a0160149054906101000a900460ff1690508c565b60008951111515610930576040517f08c379a00000000000000000000000000000000000000000000000000000000081526004018080602001828103825260188152602001807f47656d20747970652063616e6e6f7420626520656d707479000000000000000081525060200191505060405180910390fd5b60008811151561093f57600080fd5b60008711151561094e57600080fd5b60008611151561095d57600080fd5b60008511151561096c57600080fd5b60008311151561097b57600080fd5b600084511115156109f4576040517f08c379a000000000000000000000000000000000000000000000000000000000815260040180806020018281038252601f8152602001807f4d696e696e67206c6f636174696f6e2063616e6e6f7420626520656d7074790081525060200191505060405180910390fd5b6001600081548092919060010191905055506101806040519081016040528060015481526020018a8152602001898152602001888152602001878152602001868152602001858152602001848152602001600081526020018381526020013373ffffffffffffffffffffffffffffffffffffffff168152602001821515815250600260006001548152602001908152602001600020600082015181600001556020820151816001019080519060200190610aaf929190611b72565b5060408201518160020155606082015181600301556080820151816004015560a0820151816005015560c0820151816006019080519060200190610af4929190611b72565b5060e082015181600701556101008201518160080155610120820151816009019080519060200190610b27929190611b72565b5061014082015181600a0160006101000a81548173ffffffffffffffffffffffffffffffffffffffff021916908373ffffffffffffffffffffffffffffffffffffffff16021790555061016082015181600a0160146101000a81548160ff0219169083151502179055509050507f47d6b4c9e19b19855e25e7dfa493c2847530b7da79d962d0eb95cb1d3c46ce926001548a8a8a8a8a8a8a60008b338c604051808d8152602001806020018c81526020018b81526020018a815260200189815260200180602001888152602001878152602001806020018673ffffffffffffffffffffffffffffffffffffffff1673ffffffffffffffffffffffffffffffffffffffff1681526020018515151515815260200184810384528f818151815260200191508051906020019080838360005b83811015610c72578082015181840152602081019050610c57565b50505050905090810190601f168015610c9f5780820380516001836020036101000a031916815260200191505b5084810383528a818151815260200191508051906020019080838360005b83811015610cd8578082015181840152602081019050610cbd565b50505050905090810190601f168015610d055780820380516001836020036101000a031916815260200191505b50848103825287818151815260200191508051906020019080838360005b83811015610d3e578082015181840152602081019050610d23565b50505050905090810190601f168015610d6b5780820380516001836020036101000a031916815260200191505b509f5050505050505050505050505050505060405180910390a1505050505050505050565b610d98611bf2565b60026000838152602001908152602001600020610180604051908101604052908160008201548152602001600182018054600181600116156101000203166002900480601f016020809104026020016040519081016040528092919081815260200182805460018160011615610100020316600290048015610e5b5780601f10610e3057610100808354040283529160200191610e5b565b820191906000526020600020905b815481529060010190602001808311610e3e57829003601f168201915b5050505050815260200160028201548152602001600382015481526020016004820154815260200160058201548152602001600682018054600181600116156101000203166002900480601f016020809104026020016040519081016040528092919081815260200182805460018160011615610100020316600290048015610f255780601f10610efa57610100808354040283529160200191610f25565b820191906000526020600020905b815481529060010190602001808311610f0857829003601f168201915b505050505081526020016007820154815260200160088201548152602001600982018054600181600116156101000203166002900480601f016020809104026020016040519081016040528092919081815260200182805460018160011615610100020316600290048015610fdb5780601f10610fb057610100808354040283529160200191610fdb565b820191906000526020600020905b815481529060010190602001808311610fbe57829003601f168201915b50505050508152602001600a820160009054906101000a900473ffffffffffffffffffffffffffffffffffffffff1673ffffffffffffffffffffffffffffffffffffffff1673ffffffffffffffffffffffffffffffffffffffff168152602001600a820160149054906101000a900460ff1615151515815250509050600081610140015190506000826000015111801561107b5750600154826000015111155b151561108657600080fd5b8160a00151341015151561109957600080fd5b6000151582610160015115151415156110b157600080fd5b3382610140019073ffffffffffffffffffffffffffffffffffffffff16908173ffffffffffffffffffffffffffffffffffffffff16815250506001826101600190151590811515815250508160026000858152602001908152602001600020600082015181600001556020820151816001019080519060200190611136929190611b72565b5060408201518160020155606082015181600301556080820151816004015560a0820151816005015560c082015181600601908051906020019061117b929190611b72565b5060e0820151816007015561010082015181600801556101208201518160090190805190602001906111ae929190611b72565b5061014082015181600a0160006101000a81548173ffffffffffffffffffffffffffffffffffffffff021916908373ffffffffffffffffffffffffffffffffffffffff16021790555061016082015181600a0160146101000a81548160ff0219169083151502179055509050508073ffffffffffffffffffffffffffffffffffffffff166108fc349081150290604051600060405180830381858888f19350505050158015611261573d6000803e3d6000fd5b507f7db1022267d02eda5f1a7058c1289b8ef0ce1517884c7013c28a040a833e490c60015483602001518460400151856060015186608001518760a001518860c001518960e0015160028b6101200151338d6101600151604051808d8152602001806020018c81526020018b81526020018a815260200189815260200180602001888152602001878152602001806020018673ffffffffffffffffffffffffffffffffffffffff1673ffffffffffffffffffffffffffffffffffffffff1681526020018515151515815260200184810384528f818151815260200191508051906020019080838360005b8381101561136657808201518184015260208101905061134b565b50505050905090810190601f1680156113935780820380516001836020036101000a031916815260200191505b5084810383528a818151815260200191508051906020019080838360005b838110156113cc5780820151818401526020810190506113b1565b50505050905090810190601f1680156113f95780820380516001836020036101000a031916815260200191505b50848103825287818151815260200191508051906020019080838360005b83811015611432578082015181840152602081019050611417565b50505050905090810190601f16801561145f5780820380516001836020036101000a031916815260200191505b509f5050505050505050505050505050505060405180910390a1505050565b611486611bf2565b60026000838152602001908152602001600020610180604051908101604052908160008201548152602001600182018054600181600116156101000203166002900480601f0160208091040260200160405190810160405280929190818152602001828054600181600116156101000203166002900480156115495780601f1061151e57610100808354040283529160200191611549565b820191906000526020600020905b81548152906001019060200180831161152c57829003601f168201915b5050505050815260200160028201548152602001600382015481526020016004820154815260200160058201548152602001600682018054600181600116156101000203166002900480601f0160208091040260200160405190810160405280929190818152602001828054600181600116156101000203166002900480156116135780601f106115e857610100808354040283529160200191611613565b820191906000526020600020905b8154815290600101906020018083116115f657829003601f168201915b505050505081526020016007820154815260200160088201548152602001600982018054600181600116156101000203166002900480601f0160208091040260200160405190810160405280929190818152602001828054600181600116156101000203166002900480156116c95780601f1061169e576101008083540402835291602001916116c9565b820191906000526020600020905b8154815290600101906020018083116116ac57829003601f168201915b50505050508152602001600a820160009054906101000a900473ffffffffffffffffffffffffffffffffffffffff1673ffffffffffffffffffffffffffffffffffffffff1673ffffffffffffffffffffffffffffffffffffffff168152602001600a820160149054906101000a900460ff161515151581525050905060008161014001519050600082600001511180156117695750600154826000015111155b151561177457600080fd5b8160a00151341015151561178757600080fd5b60001515826101600151151514151561179f57600080fd5b3382610140019073ffffffffffffffffffffffffffffffffffffffff16908173ffffffffffffffffffffffffffffffffffffffff16815250506001826101600190151590811515815250508160026000858152602001908152602001600020600082015181600001556020820151816001019080519060200190611824929190611b72565b5060408201518160020155606082015181600301556080820151816004015560a0820151816005015560c0820151816006019080519060200190611869929190611b72565b5060e08201518160070155610100820151816008015561012082015181600901908051906020019061189c929190611b72565b5061014082015181600a0160006101000a81548173ffffffffffffffffffffffffffffffffffffffff021916908373ffffffffffffffffffffffffffffffffffffffff16021790555061016082015181600a0160146101000a81548160ff0219169083151502179055509050508073ffffffffffffffffffffffffffffffffffffffff166108fc349081150290604051600060405180830381858888f1935050505015801561194f573d6000803e3d6000fd5b507f7db1022267d02eda5f1a7058c1289b8ef0ce1517884c7013c28a040a833e490c60015483602001518460400151856060015186608001518760a001518860c001518960e0015160038b6101200151338d6101600151604051808d8152602001806020018c81526020018b81526020018a815260200189815260200180602001888152602001878152602001806020018673ffffffffffffffffffffffffffffffffffffffff1673ffffffffffffffffffffffffffffffffffffffff1681526020018515151515815260200184810384528f818151815260200191508051906020019080838360005b83811015611a54578082015181840152602081019050611a39565b50505050905090810190601f168015611a815780820380516001836020036101000a031916815260200191505b5084810383528a818151815260200191508051906020019080838360005b83811015611aba578082015181840152602081019050611a9f565b50505050905090810190601f168015611ae75780820380516001836020036101000a031916815260200191505b50848103825287818151815260200191508051906020019080838360005b83811015611b20578082015181840152602081019050611b05565b50505050905090810190601f168015611b4d5780820380516001836020036101000a031916815260200191505b509f5050505050505050505050505050505060405180910390a1505050565b60015481565b828054600181600116156101000203166002900490600052602060002090601f016020900481019282601f10611bb357805160ff1916838001178555611be1565b82800160010185558215611be1579182015b82811115611be0578251825591602001919060010190611bc5565b5b509050611bee9190611c6c565b5090565b6101806040519081016040528060008152602001606081526020016000815260200160008152602001600081526020016000815260200160608152602001600081526020016000815260200160608152602001600073ffffffffffffffffffffffffffffffffffffffff1681526020016000151581525090565b611c8e91905b80821115611c8a576000816000905550600101611c72565b5090565b9056fea165627a7a7230582054346c1800fcb72783f890a19317dcaca7897842b3b283ce824b20bd7e3db97d0029",
  "source": "pragma solidity >=0.4.21 <0.6.0;\n\ncontract GemstoneExtraction {\n// https://www.youtube.com/watch?v=VH9Q2lf2mNo&t=1990s 1:11:54\n    string public name;\n    uint public minedGemCount = 0;\n\n    mapping( uint => MinedGem) public minedGems;\n\n    enum PointOfProcessing {MINED, SALEOFMINEDPRODUCT,  PREPARATION, PROCESSING }\n\n    struct MinedGem {\n        uint id;\n        string gemType;\n        uint weight;\n        uint height; //y\n       // uint length; //x\n        uint width; //z\n        uint price; \n        string miningLocation;\n        uint miningYear;\n       // uint miningMonth;\n        uint pointOfProcessing;\n        string extractionMethod; //enum?\n        address payable owner;\n        bool purchased;\n    \n    }\n\n    event GemMining(\n        uint id,\n        string gemType,\n        uint weight,\n        uint height, \n        uint width,\n        uint price, \n        string miningLocation,\n        uint miningYear,\n        uint pointOfProcessing,\n        string extractionMethod,\n        address payable owner,\n        bool purchased\n    );\n\n     event GemPurchasing(\n        uint id,\n        string gemType,\n        uint weight,\n        uint height, \n        uint width,\n        uint price, \n        string miningLocation,\n        uint miningYear,\n        uint pointOfProcessing,\n        string extractionMethod,\n        address payable owner,\n        bool purchased\n     );\n\n       event GemPurchased(\n       uint id,\n        string gemType,\n        uint weight,\n        uint height, \n        uint width,\n        uint price, \n        string miningLocation,\n        uint miningYear,\n        uint pointOfProcessing,\n        string extractionMethod,\n        address payable owner,\n        bool purchased\n    );\n    \n    constructor() public  {\n        name = \"x\";\n    }\n\n    function gemMining(string memory _gemType, uint _weight, uint _height, uint _width,  uint _price, string memory _miningLocation, uint _miningYear, string memory _extractionMethod,  bool _purchased) public {\n        require(bytes(_gemType).length > 0, \"Gem type cannot be empty\");\n        require( _weight > 0);\n        require( _height > 0);\n        require( _width > 0);\n        require( _price > 0);\n        require( _miningYear > 0);\n        require(bytes(_miningLocation).length > 0, \"Mining location cannot be empty\");\n\n        \n        minedGemCount++;\n       minedGems[minedGemCount] = MinedGem(minedGemCount, _gemType, _weight, _height, _width, _price, _miningLocation, _miningYear, 0, _extractionMethod, msg.sender, _purchased);\n\n       emit GemMining(minedGemCount, _gemType, _weight, _height, _width, _price, _miningLocation, _miningYear, 0, _extractionMethod, msg.sender, _purchased);\n\n    }\n\n    function purchaseGem(uint _id) public payable{\n        MinedGem memory _minedGem = minedGems[_id];\n        address payable _miner = _minedGem.owner;\n        require(_minedGem.id > 0 && _minedGem.id <= minedGemCount);\n        require(msg.value >= _minedGem.price);\n        require(_minedGem.purchased == false);\n       // require(_miner != msg.sender);\n        _minedGem.owner = msg.sender;\n        _minedGem.purchased = true;\n        minedGems[_id] = _minedGem;\n        address(_miner).transfer(msg.value);\n        emit GemPurchased(minedGemCount, _minedGem.gemType, _minedGem.weight,  _minedGem.height,  _minedGem.width, _minedGem.price, _minedGem.miningLocation,  _minedGem.miningYear,  2, _minedGem.extractionMethod, msg.sender,  _minedGem.purchased);\n    }\n\n     function processingGem(uint _id) public payable{\n        MinedGem memory _minedGem = minedGems[_id];\n        address payable _miner = _minedGem.owner;\n        require(_minedGem.id > 0 && _minedGem.id <= minedGemCount);\n        require(msg.value >= _minedGem.price);\n        require(_minedGem.purchased == false);\n       // require(_miner != msg.sender);\n        _minedGem.owner = msg.sender;\n        _minedGem.purchased = true;\n        minedGems[_id] = _minedGem;\n        address(_miner).transfer(msg.value);\n        emit GemPurchased(minedGemCount, _minedGem.gemType, _minedGem.weight,  _minedGem.height,  _minedGem.width, _minedGem.price, _minedGem.miningLocation,  _minedGem.miningYear, 3, _minedGem.extractionMethod, msg.sender,  _minedGem.purchased);\n    }\n}",
  "sourcePath": "/home/berkeanna/folder/jewRoundx/src/contracts/GemstoneExtraction.sol",
  "compiler": {
    "name": "solc",
    "version": "0.5.0+commit.1d4f565a.Emscripten.clang"
  },
  "schemaVersion": "3.0.1",
  "updatedAt": "2023-12-13T18:15:25.501Z",
  "devdoc": {
    "methods": {}
  },
  "userdoc": {
    "methods": {}
  }
}