{
  "contractName": "GemstoneExtraction",
  "abi": [
    {
      "constant": true,
      "inputs": [],
      "name": "name",
      "outputs": [
        {
          "name": "",
          "type": "string"
        }
      ],
      "payable": false,
      "stateMutability": "view",
      "type": "function",
      "signature": "0x06fdde03"
    },
    {
      "constant": true,
      "inputs": [
        {
          "name": "",
          "type": "uint256"
        }
      ],
      "name": "minedGems",
      "outputs": [
        {
          "name": "id",
          "type": "uint256"
        },
        {
          "name": "gemType",
          "type": "string"
        },
        {
          "name": "weight",
          "type": "uint256"
        },
        {
          "name": "height",
          "type": "uint256"
        },
        {
          "name": "width",
          "type": "uint256"
        },
        {
          "name": "price",
          "type": "uint256"
        },
        {
          "name": "miningLocation",
          "type": "string"
        },
        {
          "name": "miningYear",
          "type": "uint256"
        },
        {
          "name": "selected",
          "type": "bool"
        },
        {
          "name": "extractionMethod",
          "type": "string"
        },
        {
          "name": "owner",
          "type": "address"
        },
        {
          "name": "purchased",
          "type": "bool"
        }
      ],
      "payable": false,
      "stateMutability": "view",
      "type": "function",
      "signature": "0x1e166c4e"
    },
    {
      "constant": true,
      "inputs": [],
      "name": "minedGemCount",
      "outputs": [
        {
          "name": "",
          "type": "uint256"
        }
      ],
      "payable": false,
      "stateMutability": "view",
      "type": "function",
      "signature": "0xd0cfe11e"
    },
    {
      "inputs": [],
      "payable": false,
      "stateMutability": "nonpayable",
      "type": "constructor",
      "signature": "constructor"
    },
    {
      "anonymous": false,
      "inputs": [
        {
          "indexed": false,
          "name": "id",
          "type": "uint256"
        },
        {
          "indexed": false,
          "name": "gemType",
          "type": "string"
        },
        {
          "indexed": false,
          "name": "weight",
          "type": "uint256"
        },
        {
          "indexed": false,
          "name": "height",
          "type": "uint256"
        },
        {
          "indexed": false,
          "name": "width",
          "type": "uint256"
        },
        {
          "indexed": false,
          "name": "price",
          "type": "uint256"
        },
        {
          "indexed": false,
          "name": "miningLocation",
          "type": "string"
        },
        {
          "indexed": false,
          "name": "miningYear",
          "type": "uint256"
        },
        {
          "indexed": false,
          "name": "selected",
          "type": "bool"
        },
        {
          "indexed": false,
          "name": "extractionMethod",
          "type": "string"
        },
        {
          "indexed": false,
          "name": "owner",
          "type": "address"
        },
        {
          "indexed": false,
          "name": "purchased",
          "type": "bool"
        }
      ],
      "name": "GemMining",
      "type": "event",
      "signature": "0x7cf3fc69064d544082216159ffd21fd0584e758a1b639891d69fea8f0097895a"
    },
    {
      "anonymous": false,
      "inputs": [
        {
          "indexed": false,
          "name": "id",
          "type": "uint256"
        },
        {
          "indexed": false,
          "name": "gemType",
          "type": "string"
        },
        {
          "indexed": false,
          "name": "weight",
          "type": "uint256"
        },
        {
          "indexed": false,
          "name": "height",
          "type": "uint256"
        },
        {
          "indexed": false,
          "name": "width",
          "type": "uint256"
        },
        {
          "indexed": false,
          "name": "price",
          "type": "uint256"
        },
        {
          "indexed": false,
          "name": "miningLocation",
          "type": "string"
        },
        {
          "indexed": false,
          "name": "miningYear",
          "type": "uint256"
        },
        {
          "indexed": false,
          "name": "selected",
          "type": "bool"
        },
        {
          "indexed": false,
          "name": "extractionMethod",
          "type": "string"
        },
        {
          "indexed": false,
          "name": "owner",
          "type": "address"
        },
        {
          "indexed": false,
          "name": "purchased",
          "type": "bool"
        }
      ],
      "name": "GemPurchasing",
      "type": "event",
      "signature": "0x6d874cf5de301a97f4b68eea5e7e9f2f430d1c78a5ec035c83fb7d0f3b2ab179"
    },
    {
      "anonymous": false,
      "inputs": [
        {
          "indexed": false,
          "name": "id",
          "type": "uint256"
        },
        {
          "indexed": false,
          "name": "gemType",
          "type": "string"
        },
        {
          "indexed": false,
          "name": "weight",
          "type": "uint256"
        },
        {
          "indexed": false,
          "name": "height",
          "type": "uint256"
        },
        {
          "indexed": false,
          "name": "width",
          "type": "uint256"
        },
        {
          "indexed": false,
          "name": "price",
          "type": "uint256"
        },
        {
          "indexed": false,
          "name": "miningLocation",
          "type": "string"
        },
        {
          "indexed": false,
          "name": "miningYear",
          "type": "uint256"
        },
        {
          "indexed": false,
          "name": "selected",
          "type": "bool"
        },
        {
          "indexed": false,
          "name": "extractionMethod",
          "type": "string"
        },
        {
          "indexed": false,
          "name": "owner",
          "type": "address"
        },
        {
          "indexed": false,
          "name": "purchased",
          "type": "bool"
        }
      ],
      "name": "GemPurchased",
      "type": "event",
      "signature": "0x54ef659a275706d4c94ad881de3a03713bd8bd0d3a263b2b42f28a45ad279879"
    },
    {
      "anonymous": false,
      "inputs": [
        {
          "indexed": false,
          "name": "id",
          "type": "uint256"
        },
        {
          "indexed": false,
          "name": "gemType",
          "type": "string"
        },
        {
          "indexed": false,
          "name": "weight",
          "type": "uint256"
        },
        {
          "indexed": false,
          "name": "height",
          "type": "uint256"
        },
        {
          "indexed": false,
          "name": "width",
          "type": "uint256"
        },
        {
          "indexed": false,
          "name": "price",
          "type": "uint256"
        },
        {
          "indexed": false,
          "name": "miningLocation",
          "type": "string"
        },
        {
          "indexed": false,
          "name": "miningYear",
          "type": "uint256"
        },
        {
          "indexed": false,
          "name": "selected",
          "type": "bool"
        },
        {
          "indexed": false,
          "name": "extractionMethod",
          "type": "string"
        },
        {
          "indexed": false,
          "name": "owner",
          "type": "address"
        },
        {
          "indexed": false,
          "name": "purchased",
          "type": "bool"
        }
      ],
      "name": "GemSelected",
      "type": "event",
      "signature": "0xf51570393355adb3b34dfc8f3fd6573a6e5a4604821d981f7cedb4011c4803d9"
    },
    {
      "constant": false,
      "inputs": [
        {
          "name": "x",
          "type": "string"
        }
      ],
      "name": "set",
      "outputs": [],
      "payable": false,
      "stateMutability": "nonpayable",
      "type": "function",
      "signature": "0x4ed3885e"
    },
    {
      "constant": true,
      "inputs": [],
      "name": "get",
      "outputs": [
        {
          "name": "",
          "type": "string"
        }
      ],
      "payable": false,
      "stateMutability": "view",
      "type": "function",
      "signature": "0x6d4ce63c"
    },
    {
      "constant": false,
      "inputs": [
        {
          "name": "_gemType",
          "type": "string"
        },
        {
          "name": "_weight",
          "type": "uint256"
        },
        {
          "name": "_height",
          "type": "uint256"
        },
        {
          "name": "_width",
          "type": "uint256"
        },
        {
          "name": "_price",
          "type": "uint256"
        },
        {
          "name": "_miningLocation",
          "type": "string"
        },
        {
          "name": "_miningYear",
          "type": "uint256"
        },
        {
          "name": "_extractionMethod",
          "type": "string"
        },
        {
          "name": "_purchased",
          "type": "bool"
        }
      ],
      "name": "gemMining",
      "outputs": [],
      "payable": false,
      "stateMutability": "nonpayable",
      "type": "function",
      "signature": "0x7df594cb"
    },
    {
      "constant": false,
      "inputs": [
        {
          "name": "_id",
          "type": "uint256"
        }
      ],
      "name": "purchaseGem",
      "outputs": [],
      "payable": true,
      "stateMutability": "payable",
      "type": "function",
      "signature": "0x9b8efcd9"
    },
    {
      "constant": false,
      "inputs": [
        {
          "name": "_id",
          "type": "uint256"
        }
      ],
      "name": "processingGem",
      "outputs": [],
      "payable": true,
      "stateMutability": "payable",
      "type": "function",
      "signature": "0xbf38b7a2"
    },
    {
      "constant": false,
      "inputs": [
        {
          "name": "_id",
          "type": "uint256"
        }
      ],
      "name": "markGemAsSelected",
      "outputs": [],
      "payable": false,
      "stateMutability": "nonpayable",
      "type": "function",
      "signature": "0x53cdc244"
    }
  ],
  "bytecode": "0x608060405260006001553480156200001657600080fd5b506040805190810160405280600181526020017f780000000000000000000000000000000000000000000000000000000000000081525060009080519060200190620000649291906200006b565b506200011a565b828054600181600116156101000203166002900490600052602060002090601f016020900481019282601f10620000ae57805160ff1916838001178555620000df565b82800160010185558215620000df579182015b82811115620000de578251825591602001919060010190620000c1565b5b509050620000ee9190620000f2565b5090565b6200011791905b8082111562000113576000816000905550600101620000f9565b5090565b90565b6124ea806200012a6000396000f3fe608060405260043610610099576000357c0100000000000000000000000000000000000000000000000000000000900463ffffffff16806306fdde031461009e5780631e166c4e1461012e5780634ed3885e1461032d57806353cdc244146103f55780636d4ce63c146104305780637df594cb146104c05780639b8efcd9146106f5578063bf38b7a214610723578063d0cfe11e14610751575b600080fd5b3480156100aa57600080fd5b506100b361077c565b6040518080602001828103825283818151815260200191508051906020019080838360005b838110156100f35780820151818401526020810190506100d8565b50505050905090810190601f1680156101205780820380516001836020036101000a031916815260200191505b509250505060405180910390f35b34801561013a57600080fd5b506101676004803603602081101561015157600080fd5b810190808035906020019092919050505061081a565b604051808d8152602001806020018c81526020018b81526020018a81526020018981526020018060200188815260200187151515158152602001806020018673ffffffffffffffffffffffffffffffffffffffff1673ffffffffffffffffffffffffffffffffffffffff1681526020018515151515815260200184810384528f818151815260200191508051906020019080838360005b838110156102195780820151818401526020810190506101fe565b50505050905090810190601f1680156102465780820380516001836020036101000a031916815260200191505b5084810383528a818151815260200191508051906020019080838360005b8381101561027f578082015181840152602081019050610264565b50505050905090810190601f1680156102ac5780820380516001836020036101000a031916815260200191505b50848103825287818151815260200191508051906020019080838360005b838110156102e55780820151818401526020810190506102ca565b50505050905090810190601f1680156103125780820380516001836020036101000a031916815260200191505b509f5050505050505050505050505050505060405180910390f35b34801561033957600080fd5b506103f36004803603602081101561035057600080fd5b810190808035906020019064010000000081111561036d57600080fd5b82018360208201111561037f57600080fd5b803590602001918460018302840111640100000000831117156103a157600080fd5b91908080601f016020809104026020016040519081016040528093929190818152602001838380828437600081840152601f19601f820116905080830192505050505050509192919290505050610a7c565b005b34801561040157600080fd5b5061042e6004803603602081101561041857600080fd5b8101908080359060200190929190505050610a96565b005b34801561043c57600080fd5b50610445610f4e565b6040518080602001828103825283818151815260200191508051906020019080838360005b8381101561048557808201518184015260208101905061046a565b50505050905090810190601f1680156104b25780820380516001836020036101000a031916815260200191505b509250505060405180910390f35b3480156104cc57600080fd5b506106f360048036036101208110156104e457600080fd5b810190808035906020019064010000000081111561050157600080fd5b82018360208201111561051357600080fd5b8035906020019184600183028401116401000000008311171561053557600080fd5b91908080601f016020809104026020016040519081016040528093929190818152602001838380828437600081840152601f19601f82011690508083019250505050505050919291929080359060200190929190803590602001909291908035906020019092919080359060200190929190803590602001906401000000008111156105c057600080fd5b8201836020820111156105d257600080fd5b803590602001918460018302840111640100000000831117156105f457600080fd5b91908080601f016020809104026020016040519081016040528093929190818152602001838380828437600081840152601f19601f820116905080830192505050505050509192919290803590602001909291908035906020019064010000000081111561066157600080fd5b82018360208201111561067357600080fd5b8035906020019184600183028401116401000000008311171561069557600080fd5b91908080601f016020809104026020016040519081016040528093929190818152602001838380828437600081840152601f19601f820116905080830192505050505050509192919290803515159060200190929190505050610ff0565b005b6107216004803603602081101561070b57600080fd5b81019080803590602001909291905050506114e5565b005b61074f6004803603602081101561073957600080fd5b8101908080359060200190929190505050611bfe565b005b34801561075d57600080fd5b50610766612317565b6040518082815260200191505060405180910390f35b60008054600181600116156101000203166002900480601f0160208091040260200160405190810160405280929190818152602001828054600181600116156101000203166002900480156108125780601f106107e757610100808354040283529160200191610812565b820191906000526020600020905b8154815290600101906020018083116107f557829003601f168201915b505050505081565b6003602052806000526040600020600091509050806000015490806001018054600181600116156101000203166002900480601f0160208091040260200160405190810160405280929190818152602001828054600181600116156101000203166002900480156108cc5780601f106108a1576101008083540402835291602001916108cc565b820191906000526020600020905b8154815290600101906020018083116108af57829003601f168201915b505050505090806002015490806003015490806004015490806005015490806006018054600181600116156101000203166002900480601f0160208091040260200160405190810160405280929190818152602001828054600181600116156101000203166002900480156109825780601f1061095757610100808354040283529160200191610982565b820191906000526020600020905b81548152906001019060200180831161096557829003601f168201915b5050505050908060070154908060080160009054906101000a900460ff1690806009018054600181600116156101000203166002900480601f016020809104026020016040519081016040528092919081815260200182805460018160011615610100020316600290048015610a395780601f10610a0e57610100808354040283529160200191610a39565b820191906000526020600020905b815481529060010190602001808311610a1c57829003601f168201915b50505050509080600a0160009054906101000a900473ffffffffffffffffffffffffffffffffffffffff169080600a0160149054906101000a900460ff1690508c565b8060029080519060200190610a9292919061231d565b5050565b600060036000838152602001908152602001600020905060008160000154118015610ac75750600154816000015411155b1515610b3b576040517f08c379a000000000000000000000000000000000000000000000000000000000815260040180806020018281038252600e8152602001807f496e76616c69642067656d20494400000000000000000000000000000000000081525060200191505060405180910390fd5b600015158160080160009054906101000a900460ff161515141515610bc8576040517f08c379a00000000000000000000000000000000000000000000000000000000081526004018080602001828103825260148152602001807f47656d20616c72656164792073656c656374656400000000000000000000000081525060200191505060405180910390fd5b3373ffffffffffffffffffffffffffffffffffffffff1681600a0160009054906101000a900473ffffffffffffffffffffffffffffffffffffffff1673ffffffffffffffffffffffffffffffffffffffff16141515610cb5576040517f08c379a00000000000000000000000000000000000000000000000000000000081526004018080602001828103825260218152602001807f4f6e6c7920746865206f776e65722063616e2073656c6563742074686520676581526020017f6d0000000000000000000000000000000000000000000000000000000000000081525060400191505060405180910390fd5b60018160080160006101000a81548160ff0219169083151502179055507ff51570393355adb3b34dfc8f3fd6573a6e5a4604821d981f7cedb4011c4803d98282600101836002015484600301548560040154866005015487600601886007015460018a600901338c600a0160149054906101000a900460ff16604051808d8152602001806020018c81526020018b81526020018a81526020018981526020018060200188815260200187151515158152602001806020018673ffffffffffffffffffffffffffffffffffffffff1673ffffffffffffffffffffffffffffffffffffffff1681526020018515151515815260200184810384528f818154600181600116156101000203166002900481526020019150805460018160011615610100020316600290048015610e295780601f10610dfe57610100808354040283529160200191610e29565b820191906000526020600020905b815481529060010190602001808311610e0c57829003601f168201915b505084810383528a818154600181600116156101000203166002900481526020019150805460018160011615610100020316600290048015610eac5780601f10610e8157610100808354040283529160200191610eac565b820191906000526020600020905b815481529060010190602001808311610e8f57829003601f168201915b5050848103825287818154600181600116156101000203166002900481526020019150805460018160011615610100020316600290048015610f2f5780601f10610f0457610100808354040283529160200191610f2f565b820191906000526020600020905b815481529060010190602001808311610f1257829003601f168201915b50509f5050505050505050505050505050505060405180910390a15050565b606060028054600181600116156101000203166002900480601f016020809104026020016040519081016040528092919081815260200182805460018160011615610100020316600290048015610fe65780601f10610fbb57610100808354040283529160200191610fe6565b820191906000526020600020905b815481529060010190602001808311610fc957829003601f168201915b5050505050905090565b60008951111515611069576040517f08c379a00000000000000000000000000000000000000000000000000000000081526004018080602001828103825260188152602001807f47656d20747970652063616e6e6f7420626520656d707479000000000000000081525060200191505060405180910390fd5b60008811151561107857600080fd5b60008711151561108757600080fd5b60008611151561109657600080fd5b6000851115156110a557600080fd5b6000831115156110b457600080fd5b6000845111151561112d576040517f08c379a000000000000000000000000000000000000000000000000000000000815260040180806020018281038252601f8152602001807f4d696e696e67206c6f636174696f6e2063616e6e6f7420626520656d7074790081525060200191505060405180910390fd5b6001600081548092919060010191905055506101806040519081016040528060015481526020018a81526020018981526020018881526020018781526020018681526020018581526020018481526020016000151581526020018381526020013373ffffffffffffffffffffffffffffffffffffffff1681526020018215158152506003600060015481526020019081526020016000206000820151816000015560208201518160010190805190602001906111ea92919061239d565b5060408201518160020155606082015181600301556080820151816004015560a0820151816005015560c082015181600601908051906020019061122f92919061239d565b5060e082015181600701556101008201518160080160006101000a81548160ff02191690831515021790555061012082015181600901908051906020019061127892919061239d565b5061014082015181600a0160006101000a81548173ffffffffffffffffffffffffffffffffffffffff021916908373ffffffffffffffffffffffffffffffffffffffff16021790555061016082015181600a0160146101000a81548160ff0219169083151502179055509050507f7cf3fc69064d544082216159ffd21fd0584e758a1b639891d69fea8f0097895a6001548a8a8a8a8a8a8a60008b338c604051808d8152602001806020018c81526020018b81526020018a81526020018981526020018060200188815260200187151515158152602001806020018673ffffffffffffffffffffffffffffffffffffffff1673ffffffffffffffffffffffffffffffffffffffff1681526020018515151515815260200184810384528f818151815260200191508051906020019080838360005b838110156113c75780820151818401526020810190506113ac565b50505050905090810190601f1680156113f45780820380516001836020036101000a031916815260200191505b5084810383528a818151815260200191508051906020019080838360005b8381101561142d578082015181840152602081019050611412565b50505050905090810190601f16801561145a5780820380516001836020036101000a031916815260200191505b50848103825287818151815260200191508051906020019080838360005b83811015611493578082015181840152602081019050611478565b50505050905090810190601f1680156114c05780820380516001836020036101000a031916815260200191505b509f5050505050505050505050505050505060405180910390a1505050505050505050565b6114ed61241d565b60036000838152602001908152602001600020610180604051908101604052908160008201548152602001600182018054600181600116156101000203166002900480601f0160208091040260200160405190810160405280929190818152602001828054600181600116156101000203166002900480156115b05780601f10611585576101008083540402835291602001916115b0565b820191906000526020600020905b81548152906001019060200180831161159357829003601f168201915b5050505050815260200160028201548152602001600382015481526020016004820154815260200160058201548152602001600682018054600181600116156101000203166002900480601f01602080910402602001604051908101604052809291908181526020018280546001816001161561010002031660029004801561167a5780601f1061164f5761010080835404028352916020019161167a565b820191906000526020600020905b81548152906001019060200180831161165d57829003601f168201915b50505050508152602001600782015481526020016008820160009054906101000a900460ff16151515158152602001600982018054600181600116156101000203166002900480601f0160208091040260200160405190810160405280929190818152602001828054600181600116156101000203166002900480156117415780601f1061171657610100808354040283529160200191611741565b820191906000526020600020905b81548152906001019060200180831161172457829003601f168201915b50505050508152602001600a820160009054906101000a900473ffffffffffffffffffffffffffffffffffffffff1673ffffffffffffffffffffffffffffffffffffffff1673ffffffffffffffffffffffffffffffffffffffff168152602001600a820160149054906101000a900460ff161515151581525050905060008161014001519050600082600001511180156117e15750600154826000015111155b15156117ec57600080fd5b8160a0015134101515156117ff57600080fd5b60001515826101600151151514151561181757600080fd5b3382610140019073ffffffffffffffffffffffffffffffffffffffff16908173ffffffffffffffffffffffffffffffffffffffff1681525050600182610160019015159081151581525050816003600085815260200190815260200160002060008201518160000155602082015181600101908051906020019061189c92919061239d565b5060408201518160020155606082015181600301556080820151816004015560a0820151816005015560c08201518160060190805190602001906118e192919061239d565b5060e082015181600701556101008201518160080160006101000a81548160ff02191690831515021790555061012082015181600901908051906020019061192a92919061239d565b5061014082015181600a0160006101000a81548173ffffffffffffffffffffffffffffffffffffffff021916908373ffffffffffffffffffffffffffffffffffffffff16021790555061016082015181600a0160146101000a81548160ff0219169083151502179055509050508073ffffffffffffffffffffffffffffffffffffffff166108fc349081150290604051600060405180830381858888f193505050501580156119dd573d6000803e3d6000fd5b507f54ef659a275706d4c94ad881de3a03713bd8bd0d3a263b2b42f28a45ad27987960015483602001518460400151856060015186608001518760a001518860c001518960e0015160008b6101200151338d6101600151604051808d8152602001806020018c81526020018b81526020018a81526020018981526020018060200188815260200187151515158152602001806020018673ffffffffffffffffffffffffffffffffffffffff1673ffffffffffffffffffffffffffffffffffffffff1681526020018515151515815260200184810384528f818151815260200191508051906020019080838360005b83811015611ae6578082015181840152602081019050611acb565b50505050905090810190601f168015611b135780820380516001836020036101000a031916815260200191505b5084810383528a818151815260200191508051906020019080838360005b83811015611b4c578082015181840152602081019050611b31565b50505050905090810190601f168015611b795780820380516001836020036101000a031916815260200191505b50848103825287818151815260200191508051906020019080838360005b83811015611bb2578082015181840152602081019050611b97565b50505050905090810190601f168015611bdf5780820380516001836020036101000a031916815260200191505b509f5050505050505050505050505050505060405180910390a1505050565b611c0661241d565b60036000838152602001908152602001600020610180604051908101604052908160008201548152602001600182018054600181600116156101000203166002900480601f016020809104026020016040519081016040528092919081815260200182805460018160011615610100020316600290048015611cc95780601f10611c9e57610100808354040283529160200191611cc9565b820191906000526020600020905b815481529060010190602001808311611cac57829003601f168201915b5050505050815260200160028201548152602001600382015481526020016004820154815260200160058201548152602001600682018054600181600116156101000203166002900480601f016020809104026020016040519081016040528092919081815260200182805460018160011615610100020316600290048015611d935780601f10611d6857610100808354040283529160200191611d93565b820191906000526020600020905b815481529060010190602001808311611d7657829003601f168201915b50505050508152602001600782015481526020016008820160009054906101000a900460ff16151515158152602001600982018054600181600116156101000203166002900480601f016020809104026020016040519081016040528092919081815260200182805460018160011615610100020316600290048015611e5a5780601f10611e2f57610100808354040283529160200191611e5a565b820191906000526020600020905b815481529060010190602001808311611e3d57829003601f168201915b50505050508152602001600a820160009054906101000a900473ffffffffffffffffffffffffffffffffffffffff1673ffffffffffffffffffffffffffffffffffffffff1673ffffffffffffffffffffffffffffffffffffffff168152602001600a820160149054906101000a900460ff16151515158152505090506000816101400151905060008260000151118015611efa5750600154826000015111155b1515611f0557600080fd5b8160a001513410151515611f1857600080fd5b600015158261016001511515141515611f3057600080fd5b3382610140019073ffffffffffffffffffffffffffffffffffffffff16908173ffffffffffffffffffffffffffffffffffffffff16815250506001826101600190151590811515815250508160036000858152602001908152602001600020600082015181600001556020820151816001019080519060200190611fb592919061239d565b5060408201518160020155606082015181600301556080820151816004015560a0820151816005015560c0820151816006019080519060200190611ffa92919061239d565b5060e082015181600701556101008201518160080160006101000a81548160ff02191690831515021790555061012082015181600901908051906020019061204392919061239d565b5061014082015181600a0160006101000a81548173ffffffffffffffffffffffffffffffffffffffff021916908373ffffffffffffffffffffffffffffffffffffffff16021790555061016082015181600a0160146101000a81548160ff0219169083151502179055509050508073ffffffffffffffffffffffffffffffffffffffff166108fc349081150290604051600060405180830381858888f193505050501580156120f6573d6000803e3d6000fd5b507f54ef659a275706d4c94ad881de3a03713bd8bd0d3a263b2b42f28a45ad27987960015483602001518460400151856060015186608001518760a001518860c001518960e0015160018b6101200151338d6101600151604051808d8152602001806020018c81526020018b81526020018a81526020018981526020018060200188815260200187151515158152602001806020018673ffffffffffffffffffffffffffffffffffffffff1673ffffffffffffffffffffffffffffffffffffffff1681526020018515151515815260200184810384528f818151815260200191508051906020019080838360005b838110156121ff5780820151818401526020810190506121e4565b50505050905090810190601f16801561222c5780820380516001836020036101000a031916815260200191505b5084810383528a818151815260200191508051906020019080838360005b8381101561226557808201518184015260208101905061224a565b50505050905090810190601f1680156122925780820380516001836020036101000a031916815260200191505b50848103825287818151815260200191508051906020019080838360005b838110156122cb5780820151818401526020810190506122b0565b50505050905090810190601f1680156122f85780820380516001836020036101000a031916815260200191505b509f5050505050505050505050505050505060405180910390a1505050565b60015481565b828054600181600116156101000203166002900490600052602060002090601f016020900481019282601f1061235e57805160ff191683800117855561238c565b8280016001018555821561238c579182015b8281111561238b578251825591602001919060010190612370565b5b5090506123999190612499565b5090565b828054600181600116156101000203166002900490600052602060002090601f016020900481019282601f106123de57805160ff191683800117855561240c565b8280016001018555821561240c579182015b8281111561240b5782518255916020019190600101906123f0565b5b5090506124199190612499565b5090565b61018060405190810160405280600081526020016060815260200160008152602001600081526020016000815260200160008152602001606081526020016000815260200160001515815260200160608152602001600073ffffffffffffffffffffffffffffffffffffffff1681526020016000151581525090565b6124bb91905b808211156124b757600081600090555060010161249f565b5090565b9056fea165627a7a72305820cd68860f7d6275c195122424ae5a9f3ffd6d92308211b1832b473cb4e32760280029",
  "source": "pragma solidity >=0.4.21 <0.6.0;\n\ncontract GemstoneExtraction {\n// https://www.youtube.com/watch?v=VH9Q2lf2mNo&t=1990s 1:11:54\n    string public name;\n    uint public minedGemCount = 0;\n    string ipfsHash;\n\n    mapping( uint => MinedGem) public minedGems;\n\n    enum PointOfProcessing {MINED, SALEOFMINEDPRODUCT,  PREPARATION, PROCESSING }\n\n    function set(string memory x) public {\n        ipfsHash = x;\n    }\n\n    function get() public view returns(string memory) {\n        return ipfsHash;\n    }\n\n    struct MinedGem {\n        uint id;\n        string gemType;\n        uint weight;\n        uint height; //y\n       // uint length; //x\n        uint width; //z\n        uint price; \n        string miningLocation;\n        uint miningYear;\n       // uint miningMonth;\n        bool selected;\n        string extractionMethod; //enum?\n        address payable owner;\n        bool purchased;\n    \n    }\n\n    event GemMining(\n       uint id,\n        string gemType,\n        uint weight,\n        uint height, \n        uint width,\n        uint price, \n        string miningLocation,\n        uint miningYear,\n         bool selected,\n        string extractionMethod,\n        address payable owner,\n        bool purchased\n    );\n\n     event GemPurchasing(\n       uint id,\n        string gemType,\n        uint weight,\n        uint height, \n        uint width,\n        uint price, \n        string miningLocation,\n        uint miningYear,\n         bool selected,\n        string extractionMethod,\n        address payable owner,\n        bool purchased\n     );\n\n       event GemPurchased(\n        uint id,\n        string gemType,\n        uint weight,\n        uint height, \n        uint width,\n        uint price, \n        string miningLocation,\n        uint miningYear,\n         bool selected,\n        string extractionMethod,\n        address payable owner,\n        bool purchased\n    );\n    \n     event GemSelected(\n        uint id,\n        string gemType,\n        uint weight,\n        uint height, \n        uint width,\n        uint price, \n        string miningLocation,\n        uint miningYear,\n         bool selected,\n        string extractionMethod,\n        address payable owner,\n        bool purchased\n    );\n    \n\n    constructor() public  {\n        name = \"x\";\n    }\n    function gemMining(string memory _gemType, uint _weight, uint _height, uint _width,  uint _price, string memory _miningLocation, uint _miningYear, string memory _extractionMethod,  bool _purchased) public {\n        require(bytes(_gemType).length > 0, \"Gem type cannot be empty\");\n        require( _weight > 0);\n        require( _height > 0);\n        require( _width > 0);\n        require( _price > 0);\n        require( _miningYear > 0);\n        require(bytes(_miningLocation).length > 0, \"Mining location cannot be empty\");\n\n        \n        minedGemCount++;\n       minedGems[minedGemCount] = MinedGem(minedGemCount, _gemType, _weight, _height, _width, _price, _miningLocation, _miningYear, false, _extractionMethod, msg.sender, _purchased);\n\n       emit GemMining(minedGemCount, _gemType, _weight, _height, _width, _price, _miningLocation, _miningYear, false, _extractionMethod, msg.sender, _purchased);\n    }\n\n    function purchaseGem(uint _id) public payable{\n        MinedGem memory _minedGem = minedGems[_id];\n        address payable _miner = _minedGem.owner;\n        require(_minedGem.id > 0 && _minedGem.id <= minedGemCount);\n        require(msg.value >= _minedGem.price);\n        require(_minedGem.purchased == false);\n       // require(_miner != msg.sender);\n        _minedGem.owner = msg.sender;\n        _minedGem.purchased = true;\n        minedGems[_id] = _minedGem;\n        address(_miner).transfer(msg.value);\n       emit GemPurchased(minedGemCount, _minedGem.gemType, _minedGem.weight,  _minedGem.height,  _minedGem.width, _minedGem.price, _minedGem.miningLocation,  _minedGem.miningYear,  false, _minedGem.extractionMethod, msg.sender,  _minedGem.purchased);\n    }\n\n     function processingGem(uint _id) public payable{\n        MinedGem memory _minedGem = minedGems[_id];\n        address payable _miner = _minedGem.owner;\n        require(_minedGem.id > 0 && _minedGem.id <= minedGemCount);\n        require(msg.value >= _minedGem.price);\n        require(_minedGem.purchased == false);\n       // require(_miner != msg.sender);\n        _minedGem.owner = msg.sender;\n        _minedGem.purchased = true;\n        minedGems[_id] = _minedGem;\n        address(_miner).transfer(msg.value);\n         emit GemPurchased(minedGemCount, _minedGem.gemType, _minedGem.weight,  _minedGem.height,  _minedGem.width, _minedGem.price, _minedGem.miningLocation,  _minedGem.miningYear, true, _minedGem.extractionMethod, msg.sender,  _minedGem.purchased);\n    }\n    \nfunction markGemAsSelected(uint _id) public {\n    MinedGem storage _minedGem = minedGems[_id];\n    require(_minedGem.id > 0 && _minedGem.id <= minedGemCount, \"Invalid gem ID\");\n    require(_minedGem.selected == false, \"Gem already selected\");\n    require(_minedGem.owner == msg.sender, \"Only the owner can select the gem\");\n\n    _minedGem.selected = true;\n\n    emit GemSelected(_id, _minedGem.gemType, _minedGem.weight,  _minedGem.height,  _minedGem.width, _minedGem.price, _minedGem.miningLocation,  _minedGem.miningYear, true, _minedGem.extractionMethod, msg.sender,  _minedGem.purchased);\n    }\n\n}\n",
  "sourcePath": "/home/berkeanna/folder/2/jewRoundx/src/contracts/GemstoneExtraction.sol",
  "compiler": {
    "name": "solc",
    "version": "0.5.0+commit.1d4f565a.Emscripten.clang"
  },
  "schemaVersion": "3.0.1",
  "updatedAt": "2024-02-13T11:37:17.322Z",
  "devdoc": {
    "methods": {}
  },
  "userdoc": {
    "methods": {}
  }
}