{
  "contractName": "GemstoneSelecting",
  "abi": [
    {
      "constant": true,
      "inputs": [],
      "name": "selectedGemCount",
      "outputs": [
        {
          "name": "",
          "type": "uint256"
        }
      ],
      "payable": false,
      "stateMutability": "view",
      "type": "function",
      "signature": "0x5f801c7a"
    },
    {
      "constant": true,
      "inputs": [
        {
          "name": "",
          "type": "uint256"
        }
      ],
      "name": "selectedGems",
      "outputs": [
        {
          "name": "id",
          "type": "uint256"
        },
        {
          "name": "minedGemId",
          "type": "uint256"
        },
        {
          "name": "size",
          "type": "string"
        },
        {
          "name": "carat",
          "type": "uint256"
        },
        {
          "name": "color",
          "type": "string"
        },
        {
          "name": "gemType",
          "type": "string"
        },
        {
          "name": "polishing",
          "type": "bool"
        },
        {
          "name": "fileURL",
          "type": "string"
        },
        {
          "name": "price",
          "type": "uint256"
        },
        {
          "name": "used",
          "type": "bool"
        },
        {
          "name": "owner",
          "type": "address"
        }
      ],
      "payable": false,
      "stateMutability": "view",
      "type": "function",
      "signature": "0xcee07c4b"
    },
    {
      "constant": true,
      "inputs": [
        {
          "name": "",
          "type": "uint256"
        }
      ],
      "name": "selectedMinedGems",
      "outputs": [
        {
          "name": "",
          "type": "bool"
        }
      ],
      "payable": false,
      "stateMutability": "view",
      "type": "function",
      "signature": "0xe8e9d045"
    },
    {
      "inputs": [
        {
          "name": "_gemstoneExtractionAddress",
          "type": "address"
        }
      ],
      "payable": false,
      "stateMutability": "nonpayable",
      "type": "constructor",
      "signature": "constructor"
    },
    {
      "anonymous": false,
      "inputs": [
        {
          "indexed": false,
          "name": "id",
          "type": "uint256"
        },
        {
          "indexed": false,
          "name": "minedGemId",
          "type": "uint256"
        },
        {
          "indexed": false,
          "name": "size",
          "type": "string"
        },
        {
          "indexed": false,
          "name": "carat",
          "type": "uint256"
        },
        {
          "indexed": false,
          "name": "color",
          "type": "string"
        },
        {
          "indexed": false,
          "name": "gemType",
          "type": "string"
        },
        {
          "indexed": false,
          "name": "polishing",
          "type": "bool"
        },
        {
          "indexed": false,
          "name": "fileURL",
          "type": "string"
        },
        {
          "indexed": false,
          "name": "price",
          "type": "uint256"
        },
        {
          "indexed": false,
          "name": "used",
          "type": "bool"
        },
        {
          "indexed": false,
          "name": "owner",
          "type": "address"
        }
      ],
      "name": "GemSelecting",
      "type": "event",
      "signature": "0xa44ca712d78e654b4e34e8f0c3d1cb6fe1698be98047fe3b0526f991db9b3805"
    },
    {
      "constant": false,
      "inputs": [
        {
          "name": "_minedGemId",
          "type": "uint256"
        },
        {
          "name": "_size",
          "type": "string"
        },
        {
          "name": "_carat",
          "type": "uint256"
        },
        {
          "name": "_color",
          "type": "string"
        },
        {
          "name": "_gemtype",
          "type": "string"
        },
        {
          "name": "_polishing",
          "type": "bool"
        },
        {
          "name": "_fileURL",
          "type": "string"
        },
        {
          "name": "_price",
          "type": "uint256"
        }
      ],
      "name": "gemSelecting",
      "outputs": [],
      "payable": false,
      "stateMutability": "nonpayable",
      "type": "function",
      "signature": "0x4b104b9e"
    },
    {
      "constant": false,
      "inputs": [
        {
          "name": "_id",
          "type": "uint256"
        }
      ],
      "name": "polishGem",
      "outputs": [],
      "payable": true,
      "stateMutability": "payable",
      "type": "function",
      "signature": "0x6056fe7e"
    },
    {
      "constant": false,
      "inputs": [
        {
          "name": "_id",
          "type": "uint256"
        }
      ],
      "name": "markGemAsUsed",
      "outputs": [],
      "payable": false,
      "stateMutability": "nonpayable",
      "type": "function",
      "signature": "0xe85f2238"
    }
  ],
  "bytecode": "0x60806040526000805534801561001457600080fd5b5060405160208061174d8339810180604052602081101561003457600080fd5b810190808051906020019092919050505080600260006101000a81548173ffffffffffffffffffffffffffffffffffffffff021916908373ffffffffffffffffffffffffffffffffffffffff160217905550506116b7806100966000396000f3fe608060405260043610610078576000357c0100000000000000000000000000000000000000000000000000000000900463ffffffff1680634b104b9e1461007d5780635f801c7a146103355780636056fe7e14610360578063cee07c4b1461038e578063e85f2238146105eb578063e8e9d04514610626575b600080fd5b34801561008957600080fd5b5061033360048036036101008110156100a157600080fd5b8101908080359060200190929190803590602001906401000000008111156100c857600080fd5b8201836020820111156100da57600080fd5b803590602001918460018302840111640100000000831117156100fc57600080fd5b91908080601f016020809104026020016040519081016040528093929190818152602001838380828437600081840152601f19601f820116905080830192505050505050509192919290803590602001909291908035906020019064010000000081111561016957600080fd5b82018360208201111561017b57600080fd5b8035906020019184600183028401116401000000008311171561019d57600080fd5b91908080601f016020809104026020016040519081016040528093929190818152602001838380828437600081840152601f19601f8201169050808301925050505050505091929192908035906020019064010000000081111561020057600080fd5b82018360208201111561021257600080fd5b8035906020019184600183028401116401000000008311171561023457600080fd5b91908080601f016020809104026020016040519081016040528093929190818152602001838380828437600081840152601f19601f820116905080830192505050505050509192919290803515159060200190929190803590602001906401000000008111156102a357600080fd5b8201836020820111156102b557600080fd5b803590602001918460018302840111640100000000831117156102d757600080fd5b91908080601f016020809104026020016040519081016040528093929190818152602001838380828437600081840152601f19601f82011690508083019250505050505050919291929080359060200190929190505050610679565b005b34801561034157600080fd5b5061034a610a88565b6040518082815260200191505060405180910390f35b61038c6004803603602081101561037657600080fd5b8101908080359060200190929190505050610a8e565b005b34801561039a57600080fd5b506103c7600480360360208110156103b157600080fd5b8101908080359060200190929190505050610e92565b604051808c81526020018b8152602001806020018a815260200180602001806020018915151515815260200180602001888152602001871515151581526020018673ffffffffffffffffffffffffffffffffffffffff1673ffffffffffffffffffffffffffffffffffffffff16815260200185810385528e818151815260200191508051906020019080838360005b83811015610471578082015181840152602081019050610456565b50505050905090810190601f16801561049e5780820380516001836020036101000a031916815260200191505b5085810384528c818151815260200191508051906020019080838360005b838110156104d75780820151818401526020810190506104bc565b50505050905090810190601f1680156105045780820380516001836020036101000a031916815260200191505b5085810383528b818151815260200191508051906020019080838360005b8381101561053d578082015181840152602081019050610522565b50505050905090810190601f16801561056a5780820380516001836020036101000a031916815260200191505b50858103825289818151815260200191508051906020019080838360005b838110156105a3578082015181840152602081019050610588565b50505050905090810190601f1680156105d05780820380516001836020036101000a031916815260200191505b509f5050505050505050505050505050505060405180910390f35b3480156105f757600080fd5b506106246004803603602081101561060e57600080fd5b8101908080359060200190929190505050611186565b005b34801561063257600080fd5b5061065f6004803603602081101561064957600080fd5b81019080803590602001909291905050506115c6565b604051808215151515815260200191505060405180910390f35b60008081548092919060010191905055506101606040519081016040528089815260200189815260200188815260200187815260200186815260200185815260200184151581526020018381526020018281526020016000151581526020013373ffffffffffffffffffffffffffffffffffffffff16815250600160008a8152602001908152602001600020600082015181600001556020820151816001015560408201518160020190805190602001906107359291906115e6565b5060608201518160030155608082015181600401908051906020019061075c9291906115e6565b5060a08201518160050190805190602001906107799291906115e6565b5060c08201518160060160006101000a81548160ff02191690831515021790555060e08201518160070190805190602001906107b69291906115e6565b5061010082015181600801556101208201518160090160006101000a81548160ff0219169083151502179055506101408201518160090160016101000a81548173ffffffffffffffffffffffffffffffffffffffff021916908373ffffffffffffffffffffffffffffffffffffffff1602179055509050507fa44ca712d78e654b4e34e8f0c3d1cb6fe1698be98047fe3b0526f991db9b3805888989898989898989600033604051808c81526020018b8152602001806020018a815260200180602001806020018915151515815260200180602001888152602001871515151581526020018673ffffffffffffffffffffffffffffffffffffffff1673ffffffffffffffffffffffffffffffffffffffff16815260200185810385528e818151815260200191508051906020019080838360005b838110156109055780820151818401526020810190506108ea565b50505050905090810190601f1680156109325780820380516001836020036101000a031916815260200191505b5085810384528c818151815260200191508051906020019080838360005b8381101561096b578082015181840152602081019050610950565b50505050905090810190601f1680156109985780820380516001836020036101000a031916815260200191505b5085810383528b818151815260200191508051906020019080838360005b838110156109d15780820151818401526020810190506109b6565b50505050905090810190601f1680156109fe5780820380516001836020036101000a031916815260200191505b50858103825289818151815260200191508051906020019080838360005b83811015610a37578082015181840152602081019050610a1c565b50505050905090810190601f168015610a645780820380516001836020036101000a031916815260200191505b509f5050505050505050505050505050505060405180910390a15050505050505050565b60005481565b60006001600083815260200190815260200160002090503373ffffffffffffffffffffffffffffffffffffffff168160090160019054906101000a900473ffffffffffffffffffffffffffffffffffffffff1673ffffffffffffffffffffffffffffffffffffffff16141515610b6c576040517f08c379a00000000000000000000000000000000000000000000000000000000081526004018080602001828103825260178152602001807f43616c6c6572206973206e6f7420746865206f776e657200000000000000000081525060200191505060405180910390fd5b60018160060160006101000a81548160ff0219169083151502179055507fa44ca712d78e654b4e34e8f0c3d1cb6fe1698be98047fe3b0526f991db9b3805816000015482600101548360020184600301548560040186600501600188600701896008015460008b60090160019054906101000a900473ffffffffffffffffffffffffffffffffffffffff16604051808c81526020018b8152602001806020018a815260200180602001806020018915151515815260200180602001888152602001871515151581526020018673ffffffffffffffffffffffffffffffffffffffff1673ffffffffffffffffffffffffffffffffffffffff16815260200185810385528e818154600181600116156101000203166002900481526020019150805460018160011615610100020316600290048015610cea5780601f10610cbf57610100808354040283529160200191610cea565b820191906000526020600020905b815481529060010190602001808311610ccd57829003601f168201915b505085810384528c818154600181600116156101000203166002900481526020019150805460018160011615610100020316600290048015610d6d5780601f10610d4257610100808354040283529160200191610d6d565b820191906000526020600020905b815481529060010190602001808311610d5057829003601f168201915b505085810383528b818154600181600116156101000203166002900481526020019150805460018160011615610100020316600290048015610df05780601f10610dc557610100808354040283529160200191610df0565b820191906000526020600020905b815481529060010190602001808311610dd357829003601f168201915b5050858103825289818154600181600116156101000203166002900481526020019150805460018160011615610100020316600290048015610e735780601f10610e4857610100808354040283529160200191610e73565b820191906000526020600020905b815481529060010190602001808311610e5657829003601f168201915b50509f5050505050505050505050505050505060405180910390a15050565b6001602052806000526040600020600091509050806000015490806001015490806002018054600181600116156101000203166002900480601f016020809104026020016040519081016040528092919081815260200182805460018160011615610100020316600290048015610f4a5780601f10610f1f57610100808354040283529160200191610f4a565b820191906000526020600020905b815481529060010190602001808311610f2d57829003601f168201915b505050505090806003015490806004018054600181600116156101000203166002900480601f016020809104026020016040519081016040528092919081815260200182805460018160011615610100020316600290048015610fee5780601f10610fc357610100808354040283529160200191610fee565b820191906000526020600020905b815481529060010190602001808311610fd157829003601f168201915b505050505090806005018054600181600116156101000203166002900480601f01602080910402602001604051908101604052809291908181526020018280546001816001161561010002031660029004801561108c5780601f106110615761010080835404028352916020019161108c565b820191906000526020600020905b81548152906001019060200180831161106f57829003601f168201915b5050505050908060060160009054906101000a900460ff1690806007018054600181600116156101000203166002900480601f01602080910402602001604051908101604052809291908181526020018280546001816001161561010002031660029004801561113d5780601f106111125761010080835404028352916020019161113d565b820191906000526020600020905b81548152906001019060200180831161112057829003601f168201915b5050505050908060080154908060090160009054906101000a900460ff16908060090160019054906101000a900473ffffffffffffffffffffffffffffffffffffffff1690508b565b6000600160008381526020019081526020016000209050600081600001541180156111b75750600054816000015411155b151561122b576040517f08c379a000000000000000000000000000000000000000000000000000000000815260040180806020018281038252600e8152602001807f496e76616c69642067656d20494400000000000000000000000000000000000081525060200191505060405180910390fd5b600015158160090160009054906101000a900460ff1615151415156112b8576040517f08c379a00000000000000000000000000000000000000000000000000000000081526004018080602001828103825260108152602001807f47656d20616c726561647920757365640000000000000000000000000000000081525060200191505060405180910390fd5b60018160090160006101000a81548160ff0219169083151502179055507fa44ca712d78e654b4e34e8f0c3d1cb6fe1698be98047fe3b0526f991db9b3805828260010154836002018460030154856004018660050160018860070189600801548a60090160009054906101000a900460ff1633604051808c81526020018b8152602001806020018a815260200180602001806020018915151515815260200180602001888152602001871515151581526020018673ffffffffffffffffffffffffffffffffffffffff1673ffffffffffffffffffffffffffffffffffffffff16815260200185810385528e81815460018160011615610100020316600290048152602001915080546001816001161561010002031660029004801561141e5780601f106113f35761010080835404028352916020019161141e565b820191906000526020600020905b81548152906001019060200180831161140157829003601f168201915b505085810384528c8181546001816001161561010002031660029004815260200191508054600181600116156101000203166002900480156114a15780601f10611476576101008083540402835291602001916114a1565b820191906000526020600020905b81548152906001019060200180831161148457829003601f168201915b505085810383528b8181546001816001161561010002031660029004815260200191508054600181600116156101000203166002900480156115245780601f106114f957610100808354040283529160200191611524565b820191906000526020600020905b81548152906001019060200180831161150757829003601f168201915b50508581038252898181546001816001161561010002031660029004815260200191508054600181600116156101000203166002900480156115a75780601f1061157c576101008083540402835291602001916115a7565b820191906000526020600020905b81548152906001019060200180831161158a57829003601f168201915b50509f5050505050505050505050505050505060405180910390a15050565b60036020528060005260406000206000915054906101000a900460ff1681565b828054600181600116156101000203166002900490600052602060002090601f016020900481019282601f1061162757805160ff1916838001178555611655565b82800160010185558215611655579182015b82811115611654578251825591602001919060010190611639565b5b5090506116629190611666565b5090565b61168891905b8082111561168457600081600090555060010161166c565b5090565b9056fea165627a7a72305820341e3d328a9adeb0f4bafeb149729cf4f95e368d058a0d3a153dea7e020946710029",
  "source": "pragma solidity >=0.4.21 <0.6.0;\nimport \"./GemstoneExtraction.sol\";\n\ninterface IGemstoneExtraction {\n    function minedGems(uint) external view returns (uint id, string memory gemType, uint weight, uint height, uint width, uint price, string memory miningLocation, uint miningYear, bool selected, string memory extractionMethod, address payable owner, bool purchased);\n}\n\n\n\ncontract GemstoneSelecting {\n    \n    uint public selectedGemCount = 0;\n    mapping (uint => SelectedGem) public selectedGems;\n      IGemstoneExtraction gemstoneExtraction;\nmapping(uint => bool) public selectedMinedGems;\n\n    struct SelectedGem{\n        uint id;\n        uint minedGemId;\n        string size;\n        uint carat; //==weight A karát a drágakövek tömegének mérésére szolgáló mértékegység. Jele: Kt, angolszász területen ct.\n        string color;\n        string gemType; //etc gyémánt, rubint, gránit\n        bool polishing;\n        string fileURL;\n        uint price;\n        bool used;\n        address owner;\n    }\n\n     event GemSelecting(\n        uint id,\n        uint minedGemId,\n        string size,\n        uint carat,\n        string color,\n        string gemType,\n        bool polishing,\n        string fileURL,\n        uint price,\n        bool used,\n        address owner\n     );\n\n constructor(address _gemstoneExtractionAddress) public {\n        gemstoneExtraction = IGemstoneExtraction(_gemstoneExtractionAddress);\n    }\n        // a minedGemId majd a js-sel kerül át. Kattintás után\n   // A gemSelecting függvény módosítása a GemstoneSelecting szerződésben\nfunction gemSelecting(\n    uint _minedGemId,\n    string memory _size,\n    uint _carat,\n    string memory _color,\n    string memory _gemtype,\n    bool _polishing,\n    string memory _fileURL,\n    uint _price\n) public {\n    // Lekérdezzük a bányászott gyémánt adatait a GemstoneExtraction szerződésből\n    //(, ,, , , , , , , , , ) = gemstoneExtraction.minedGems(_minedGemId);\n\n    // Ellenőrizzük, hogy a paraméterként átadott súly kisebb-e, mint a bányászott drágakő súlya\n    \n   // require(_weight <= minedWeight, \"Selected gem width must be less than mined gem weight\");\n    \n   // require(_price >= minedPrice, \"Selected gem price must be less than mined gem weight\");\n\n    \n\n   \n    // Ellenőrizzük, hogy a gyémánt még nincs kiválasztva\n   // require(!selected, \"The gem is already selected\");\n\n    // Folytatjuk a gyémánt hozzáadását, ha minden ellenőrzés sikeres\n    selectedGemCount++;\n    selectedGems[_minedGemId] = SelectedGem(\n        _minedGemId,\n        _minedGemId,\n        _size,\n        _carat,\n        _color,\n        _gemtype,\n        _polishing,\n        _fileURL,\n        _price,\n        false,\n        msg.sender\n    );\n\n    emit GemSelecting(\n        _minedGemId,\n        _minedGemId,\n        _size,\n        _carat,\n        _color,\n        _gemtype,\n        _polishing,\n        _fileURL,\n        _price,\n        false,\n        msg.sender\n    );\n\n    // Itt kellene hozzáadni egy új függvényhívást a GemstoneExtraction szerződéshez, hogy beállítsuk a 'selected' állapotot 'true'-ra\n}\n\n\n\n     function polishGem(uint _id) public payable {\n    SelectedGem storage _selectedGem = selectedGems[_id];\n    require(_selectedGem.owner == msg.sender, \"Caller is not the owner\");\n\n    // További logika a fizetés és a polírozási folyamat kezelésére\n\n    _selectedGem.polishing = true;\n\n    emit GemSelecting(\n        _selectedGem.id, \n        _selectedGem.minedGemId, \n        _selectedGem.size,\n        _selectedGem.carat, \n        _selectedGem.color, \n        _selectedGem.gemType, \n        true, \n        _selectedGem.fileURL,\n        _selectedGem.price, \n        false,\n        _selectedGem.owner\n    );\n     }\n\n    function markGemAsUsed(uint _id) public {\n        SelectedGem storage _selectedGem = selectedGems[_id];\n        require(_selectedGem.id > 0 && _selectedGem.id <= selectedGemCount, \"Invalid gem ID\");\n        require(_selectedGem.used == false, \"Gem already used\");\n        //require(_selectedGem.owner == msg.sender, \"Only the owner can select the gem\");\n\n        _selectedGem.used = true;\n\n        emit GemSelecting(_id, _selectedGem.minedGemId, _selectedGem.size, _selectedGem.carat,  _selectedGem.color, _selectedGem.gemType, true,_selectedGem.fileURL, _selectedGem.price, _selectedGem.used, msg.sender);\n    }\n\n//innen úgy kellene tovább menni, hogy kiválogatva ki lesz.\n// az itt felvitt adatokkal látszik, hogy feldolgozatlan gyémánt/ rubint/etc\n//utána két külön .sol-ban kezelni a gyémántot és a többi drágakövet. (könyvjelzőből drágakőpiac, gyéméntpiac) adataival\n//a vágást azokkal a .sol-okkal menti el\n//utána a csiszolás, utána a polirozas\n//tanusitvány kiadása???\n//ékszerész veszi meg -> ékszertervezés\n//befejezés , felületkezelés\n//minőségellenőrzés \n}",
  "sourcePath": "/home/berkeanna/folder/jewRoundx/src/contracts/GemstoneSelecting.sol",
  "compiler": {
    "name": "solc",
    "version": "0.5.0+commit.1d4f565a.Emscripten.clang"
  },
  "schemaVersion": "3.0.1",
  "updatedAt": "2024-06-12T09:16:44.378Z",
  "devdoc": {
    "methods": {}
  },
  "userdoc": {
    "methods": {}
  }
}