{
  "contractName": "GemstoneExtraction",
  "abi": [
    {
      "constant": true,
      "inputs": [],
      "name": "name",
      "outputs": [
        {
          "name": "",
          "type": "string"
        }
      ],
      "payable": false,
      "stateMutability": "view",
      "type": "function",
      "signature": "0x06fdde03"
    },
    {
      "constant": true,
      "inputs": [
        {
          "name": "",
          "type": "uint256"
        }
      ],
      "name": "minedGems",
      "outputs": [
        {
          "name": "id",
          "type": "uint256"
        },
        {
          "name": "gemType",
          "type": "string"
        },
        {
          "name": "price",
          "type": "uint256"
        },
        {
          "name": "miner",
          "type": "address"
        },
        {
          "name": "owner",
          "type": "address"
        },
        {
          "name": "metadataHash",
          "type": "string"
        },
        {
          "name": "purchased",
          "type": "bool"
        },
        {
          "name": "selected",
          "type": "bool"
        },
        {
          "name": "fileURL",
          "type": "string"
        }
      ],
      "payable": false,
      "stateMutability": "view",
      "type": "function",
      "signature": "0x1e166c4e"
    },
    {
      "constant": true,
      "inputs": [],
      "name": "minedGemCount",
      "outputs": [
        {
          "name": "",
          "type": "uint256"
        }
      ],
      "payable": false,
      "stateMutability": "view",
      "type": "function",
      "signature": "0xd0cfe11e"
    },
    {
      "inputs": [],
      "payable": false,
      "stateMutability": "nonpayable",
      "type": "constructor",
      "signature": "constructor"
    },
    {
      "anonymous": false,
      "inputs": [
        {
          "indexed": false,
          "name": "id",
          "type": "uint256"
        },
        {
          "indexed": false,
          "name": "gemType",
          "type": "string"
        },
        {
          "indexed": false,
          "name": "price",
          "type": "uint256"
        },
        {
          "indexed": false,
          "name": "miner",
          "type": "address"
        },
        {
          "indexed": false,
          "name": "owner",
          "type": "address"
        },
        {
          "indexed": false,
          "name": "metadataHash",
          "type": "string"
        },
        {
          "indexed": false,
          "name": "purchased",
          "type": "bool"
        },
        {
          "indexed": false,
          "name": "fileURL",
          "type": "string"
        }
      ],
      "name": "GemMining",
      "type": "event",
      "signature": "0x43151d2170606fb0e52893bcf67b7fec84efd1026f3eb6ff63b13d5f7995bcf1"
    },
    {
      "anonymous": false,
      "inputs": [
        {
          "indexed": false,
          "name": "id",
          "type": "uint256"
        },
        {
          "indexed": false,
          "name": "miner",
          "type": "address"
        },
        {
          "indexed": false,
          "name": "owner",
          "type": "address"
        }
      ],
      "name": "GemProcessing",
      "type": "event",
      "signature": "0xd833e1973d5a0476f00f607a78899a7213d5d9398d0b10e1474ed2d22a87a282"
    },
    {
      "anonymous": false,
      "inputs": [
        {
          "indexed": false,
          "name": "id",
          "type": "uint256"
        },
        {
          "indexed": false,
          "name": "miner",
          "type": "address"
        },
        {
          "indexed": false,
          "name": "owner",
          "type": "address"
        }
      ],
      "name": "GemPurchased",
      "type": "event",
      "signature": "0x01f4f803df6328c84a7178a6c6519a65cab410181de242226751ef2c4dc7bcce"
    },
    {
      "anonymous": false,
      "inputs": [
        {
          "indexed": false,
          "name": "id",
          "type": "uint256"
        },
        {
          "indexed": false,
          "name": "miner",
          "type": "address"
        },
        {
          "indexed": false,
          "name": "owner",
          "type": "address"
        }
      ],
      "name": "GemSelected",
      "type": "event",
      "signature": "0xe24523de5014d9c2a662a5ef65b11ec09a5e1453f8ea1c287d20e4c45843cd86"
    },
    {
      "anonymous": false,
      "inputs": [
        {
          "indexed": false,
          "name": "id",
          "type": "uint256"
        },
        {
          "indexed": false,
          "name": "miner",
          "type": "address"
        },
        {
          "indexed": false,
          "name": "owner",
          "type": "address"
        }
      ],
      "name": "MarkNewOwner",
      "type": "event",
      "signature": "0xd451b6153c94c30d03e9c4fde50048a3c869f25cdbaf49641971fcfb1a765344"
    },
    {
      "anonymous": false,
      "inputs": [
        {
          "indexed": false,
          "name": "id",
          "type": "uint256"
        },
        {
          "indexed": false,
          "name": "miner",
          "type": "address"
        },
        {
          "indexed": false,
          "name": "owner",
          "type": "address"
        }
      ],
      "name": "MarkGemAsSelected",
      "type": "event",
      "signature": "0xa0aadb452359789154957ee9488b0efd9e4beba2eb8a4a3a585a2daa6fe006c7"
    },
    {
      "anonymous": false,
      "inputs": [
        {
          "indexed": false,
          "name": "id",
          "type": "uint256"
        },
        {
          "indexed": false,
          "name": "miner",
          "type": "address"
        },
        {
          "indexed": false,
          "name": "owner",
          "type": "address"
        }
      ],
      "name": "TransferGemOwnership",
      "type": "event",
      "signature": "0xfd8feede703ba888121683a699ff7bb2d92a89451cded3c812f723d3be5a93e3"
    },
    {
      "constant": false,
      "inputs": [
        {
          "name": "_gemType",
          "type": "string"
        },
        {
          "name": "_price",
          "type": "uint256"
        },
        {
          "name": "_metadataHash",
          "type": "string"
        },
        {
          "name": "_purchased",
          "type": "bool"
        },
        {
          "name": "_fileURL",
          "type": "string"
        }
      ],
      "name": "gemMining",
      "outputs": [],
      "payable": false,
      "stateMutability": "nonpayable",
      "type": "function",
      "signature": "0x791ec19b"
    },
    {
      "constant": false,
      "inputs": [
        {
          "name": "_id",
          "type": "uint256"
        }
      ],
      "name": "purchaseGem",
      "outputs": [],
      "payable": true,
      "stateMutability": "payable",
      "type": "function",
      "signature": "0x9b8efcd9"
    },
    {
      "constant": false,
      "inputs": [
        {
          "name": "_id",
          "type": "uint256"
        }
      ],
      "name": "processingGem",
      "outputs": [],
      "payable": false,
      "stateMutability": "nonpayable",
      "type": "function",
      "signature": "0xbf38b7a2"
    },
    {
      "constant": false,
      "inputs": [
        {
          "name": "_id",
          "type": "uint256"
        }
      ],
      "name": "markNewOwner",
      "outputs": [],
      "payable": true,
      "stateMutability": "payable",
      "type": "function",
      "signature": "0x30d559fa"
    },
    {
      "constant": false,
      "inputs": [
        {
          "name": "_id",
          "type": "uint256"
        }
      ],
      "name": "markGemAsSelected",
      "outputs": [],
      "payable": false,
      "stateMutability": "nonpayable",
      "type": "function",
      "signature": "0x53cdc244"
    },
    {
      "constant": true,
      "inputs": [
        {
          "name": "_owner",
          "type": "address"
        }
      ],
      "name": "getGemstoneCountByOwner",
      "outputs": [
        {
          "name": "",
          "type": "uint256"
        }
      ],
      "payable": false,
      "stateMutability": "view",
      "type": "function",
      "signature": "0xb03c3930"
    }
  ],
  "bytecode": "0x608060405260006001553480156200001657600080fd5b506040805190810160405280601c81526020017f47656d73746f6e652045787472616374696f6e20506c6174666f726d0000000081525060009080519060200190620000649291906200006b565b506200011a565b828054600181600116156101000203166002900490600052602060002090601f016020900481019282601f10620000ae57805160ff1916838001178555620000df565b82800160010185558215620000df579182015b82811115620000de578251825591602001919060010190620000c1565b5b509050620000ee9190620000f2565b5090565b6200011791905b8082111562000113576000816000905550600101620000f9565b5090565b90565b611c02806200012a6000396000f3fe608060405260043610610099576000357c0100000000000000000000000000000000000000000000000000000000900463ffffffff16806306fdde031461009e5780631e166c4e1461012e57806330d559fa1461034457806353cdc24414610372578063791ec19b146103ad5780639b8efcd9146105b9578063b03c3930146105e7578063bf38b7a21461064c578063d0cfe11e14610687575b600080fd5b3480156100aa57600080fd5b506100b36106b2565b6040518080602001828103825283818151815260200191508051906020019080838360005b838110156100f35780820151818401526020810190506100d8565b50505050905090810190601f1680156101205780820380516001836020036101000a031916815260200191505b509250505060405180910390f35b34801561013a57600080fd5b506101676004803603602081101561015157600080fd5b8101908080359060200190929190505050610750565b604051808a8152602001806020018981526020018873ffffffffffffffffffffffffffffffffffffffff1673ffffffffffffffffffffffffffffffffffffffff1681526020018773ffffffffffffffffffffffffffffffffffffffff1673ffffffffffffffffffffffffffffffffffffffff1681526020018060200186151515158152602001851515151581526020018060200184810384528c818151815260200191508051906020019080838360005b83811015610233578082015181840152602081019050610218565b50505050905090810190601f1680156102605780820380516001836020036101000a031916815260200191505b50848103835288818151815260200191508051906020019080838360005b8381101561029957808201518184015260208101905061027e565b50505050905090810190601f1680156102c65780820380516001836020036101000a031916815260200191505b50848103825285818151815260200191508051906020019080838360005b838110156102ff5780820151818401526020810190506102e4565b50505050905090810190601f16801561032c5780820380516001836020036101000a031916815260200191505b509c5050505050505050505050505060405180910390f35b6103706004803603602081101561035a57600080fd5b81019080803590602001909291905050506109c0565b005b34801561037e57600080fd5b506103ab6004803603602081101561039557600080fd5b8101908080359060200190929190505050610dba565b005b3480156103b957600080fd5b506105b7600480360360a08110156103d057600080fd5b81019080803590602001906401000000008111156103ed57600080fd5b8201836020820111156103ff57600080fd5b8035906020019184600183028401116401000000008311171561042157600080fd5b91908080601f016020809104026020016040519081016040528093929190818152602001838380828437600081840152601f19601f820116905080830192505050505050509192919290803590602001909291908035906020019064010000000081111561048e57600080fd5b8201836020820111156104a057600080fd5b803590602001918460018302840111640100000000831117156104c257600080fd5b91908080601f016020809104026020016040519081016040528093929190818152602001838380828437600081840152601f19601f8201169050808301925050505050505091929192908035151590602001909291908035906020019064010000000081111561053157600080fd5b82018360208201111561054357600080fd5b8035906020019184600183028401116401000000008311171561056557600080fd5b91908080601f016020809104026020016040519081016040528093929190818152602001838380828437600081840152601f19601f8201169050808301925050505050505091929192905050506110a7565b005b6105e5600480360360208110156105cf57600080fd5b81019080803590602001909291905050506115ec565b005b3480156105f357600080fd5b506106366004803603602081101561060a57600080fd5b81019080803573ffffffffffffffffffffffffffffffffffffffff169060200190929190505050611845565b6040518082815260200191505060405180910390f35b34801561065857600080fd5b506106856004803603602081101561066f57600080fd5b81019080803590602001909291905050506118e8565b005b34801561069357600080fd5b5061069c611b2b565b6040518082815260200191505060405180910390f35b60008054600181600116156101000203166002900480601f0160208091040260200160405190810160405280929190818152602001828054600181600116156101000203166002900480156107485780601f1061071d57610100808354040283529160200191610748565b820191906000526020600020905b81548152906001019060200180831161072b57829003601f168201915b505050505081565b6002602052806000526040600020600091509050806000015490806001018054600181600116156101000203166002900480601f0160208091040260200160405190810160405280929190818152602001828054600181600116156101000203166002900480156108025780601f106107d757610100808354040283529160200191610802565b820191906000526020600020905b8154815290600101906020018083116107e557829003601f168201915b5050505050908060020154908060030160009054906101000a900473ffffffffffffffffffffffffffffffffffffffff16908060040160009054906101000a900473ffffffffffffffffffffffffffffffffffffffff1690806005018054600181600116156101000203166002900480601f0160208091040260200160405190810160405280929190818152602001828054600181600116156101000203166002900480156108f25780601f106108c7576101008083540402835291602001916108f2565b820191906000526020600020905b8154815290600101906020018083116108d557829003601f168201915b5050505050908060060160009054906101000a900460ff16908060060160019054906101000a900460ff1690806007018054600181600116156101000203166002900480601f0160208091040260200160405190810160405280929190818152602001828054600181600116156101000203166002900480156109b65780601f1061098b576101008083540402835291602001916109b6565b820191906000526020600020905b81548152906001019060200180831161099957829003601f168201915b5050505050905089565b6000600260008381526020019081526020016000209050600081600001541180156109f15750600154816000015411155b1515610a65576040517f08c379a000000000000000000000000000000000000000000000000000000000815260040180806020018281038252600e8152602001807f496e76616c69642067656d20494400000000000000000000000000000000000081525060200191505060405180910390fd5b600015158160060160019054906101000a900460ff161515141515610af2576040517f08c379a00000000000000000000000000000000000000000000000000000000081526004018080602001828103825260148152602001807f47656d20616c72656164792073656c656374656400000000000000000000000081525060200191505060405180910390fd5b600115158160060160009054906101000a900460ff161515141515610ba5576040517f08c379a00000000000000000000000000000000000000000000000000000000081526004018080602001828103825260268152602001807f47656d206d75737420626520707572636861736564206265666f72652073656c81526020017f656374696f6e000000000000000000000000000000000000000000000000000081525060400191505060405180910390fd5b80600201543410151515610c21576040517f08c379a00000000000000000000000000000000000000000000000000000000081526004018080602001828103825260128152602001807f496e73756666696369656e742066756e6473000000000000000000000000000081525060200191505060405180910390fd5b8060030160009054906101000a900473ffffffffffffffffffffffffffffffffffffffff1673ffffffffffffffffffffffffffffffffffffffff166108fc349081150290604051600060405180830381858888f19350505050158015610c8b573d6000803e3d6000fd5b50338160040160006101000a81548173ffffffffffffffffffffffffffffffffffffffff021916908373ffffffffffffffffffffffffffffffffffffffff1602179055507fd451b6153c94c30d03e9c4fde50048a3c869f25cdbaf49641971fcfb1a765344828260030160009054906101000a900473ffffffffffffffffffffffffffffffffffffffff168360040160009054906101000a900473ffffffffffffffffffffffffffffffffffffffff16604051808481526020018373ffffffffffffffffffffffffffffffffffffffff1673ffffffffffffffffffffffffffffffffffffffff1681526020018273ffffffffffffffffffffffffffffffffffffffff1673ffffffffffffffffffffffffffffffffffffffff168152602001935050505060405180910390a15050565b600060026000838152602001908152602001600020905060008160000154118015610deb5750600154816000015411155b1515610e5f576040517f08c379a000000000000000000000000000000000000000000000000000000000815260040180806020018281038252600e8152602001807f496e76616c69642067656d20494400000000000000000000000000000000000081525060200191505060405180910390fd5b600015158160060160019054906101000a900460ff161515141515610eec576040517f08c379a00000000000000000000000000000000000000000000000000000000081526004018080602001828103825260148152602001807f47656d20616c72656164792073656c656374656400000000000000000000000081525060200191505060405180910390fd5b600115158160060160009054906101000a900460ff161515141515610f9f576040517f08c379a00000000000000000000000000000000000000000000000000000000081526004018080602001828103825260268152602001807f47656d206d75737420626520707572636861736564206265666f72652073656c81526020017f656374696f6e000000000000000000000000000000000000000000000000000081525060400191505060405180910390fd5b60018160060160016101000a81548160ff0219169083151502179055507fa0aadb452359789154957ee9488b0efd9e4beba2eb8a4a3a585a2daa6fe006c7828260030160009054906101000a900473ffffffffffffffffffffffffffffffffffffffff168360040160009054906101000a900473ffffffffffffffffffffffffffffffffffffffff16604051808481526020018373ffffffffffffffffffffffffffffffffffffffff1673ffffffffffffffffffffffffffffffffffffffff1681526020018273ffffffffffffffffffffffffffffffffffffffff1673ffffffffffffffffffffffffffffffffffffffff168152602001935050505060405180910390a15050565b60008551111515611120576040517f08c379a00000000000000000000000000000000000000000000000000000000081526004018080602001828103825260188152602001807f47656d20747970652063616e6e6f7420626520656d707479000000000000000081525060200191505060405180910390fd5b600084111515611198576040517f08c379a000000000000000000000000000000000000000000000000000000000815260040180806020018281038252601c8152602001807f5072696365206d7573742062652067726561746572207468616e20300000000081525060200191505060405180910390fd5b60008351111515611211576040517f08c379a000000000000000000000000000000000000000000000000000000000815260040180806020018281038252601d8152602001807f4d6574616461746120686173682063616e6e6f7420626520656d70747900000081525060200191505060405180910390fd5b6001600081548092919060010191905055506101206040519081016040528060015481526020018681526020018581526020013373ffffffffffffffffffffffffffffffffffffffff1681526020013373ffffffffffffffffffffffffffffffffffffffff1681526020018481526020018315158152602001600015158152602001828152506002600060015481526020019081526020016000206000820151816000015560208201518160010190805190602001906112d2929190611b31565b506040820151816002015560608201518160030160006101000a81548173ffffffffffffffffffffffffffffffffffffffff021916908373ffffffffffffffffffffffffffffffffffffffff16021790555060808201518160040160006101000a81548173ffffffffffffffffffffffffffffffffffffffff021916908373ffffffffffffffffffffffffffffffffffffffff16021790555060a0820151816005019080519060200190611387929190611b31565b5060c08201518160060160006101000a81548160ff02191690831515021790555060e08201518160060160016101000a81548160ff0219169083151502179055506101008201518160070190805190602001906113e5929190611b31565b509050507f43151d2170606fb0e52893bcf67b7fec84efd1026f3eb6ff63b13d5f7995bcf16001548686333388888860405180898152602001806020018881526020018773ffffffffffffffffffffffffffffffffffffffff1673ffffffffffffffffffffffffffffffffffffffff1681526020018673ffffffffffffffffffffffffffffffffffffffff1673ffffffffffffffffffffffffffffffffffffffff16815260200180602001851515151581526020018060200184810384528b818151815260200191508051906020019080838360005b838110156114d65780820151818401526020810190506114bb565b50505050905090810190601f1680156115035780820380516001836020036101000a031916815260200191505b50848103835287818151815260200191508051906020019080838360005b8381101561153c578082015181840152602081019050611521565b50505050905090810190601f1680156115695780820380516001836020036101000a031916815260200191505b50848103825285818151815260200191508051906020019080838360005b838110156115a2578082015181840152602081019050611587565b50505050905090810190601f1680156115cf5780820380516001836020036101000a031916815260200191505b509b50505050505050505050505060405180910390a15050505050565b60006002600083815260200190815260200160002090506000816000015411801561161d5750600154816000015411155b1515611691576040517f08c379a000000000000000000000000000000000000000000000000000000000815260040180806020018281038252600e8152602001807f496e76616c69642067656d20494400000000000000000000000000000000000081525060200191505060405180910390fd5b600015158160060160009054906101000a900460ff16151514151561171e576040517f08c379a00000000000000000000000000000000000000000000000000000000081526004018080602001828103825260158152602001807f47656d20616c726561647920707572636861736564000000000000000000000081525060200191505060405180910390fd5b338160040160006101000a81548173ffffffffffffffffffffffffffffffffffffffff021916908373ffffffffffffffffffffffffffffffffffffffff16021790555060018160060160006101000a81548160ff0219169083151502179055507f01f4f803df6328c84a7178a6c6519a65cab410181de242226751ef2c4dc7bcce828260030160009054906101000a900473ffffffffffffffffffffffffffffffffffffffff1633604051808481526020018373ffffffffffffffffffffffffffffffffffffffff1673ffffffffffffffffffffffffffffffffffffffff1681526020018273ffffffffffffffffffffffffffffffffffffffff1673ffffffffffffffffffffffffffffffffffffffff168152602001935050505060405180910390a15050565b600080600090506000600190505b600154811115156118de578373ffffffffffffffffffffffffffffffffffffffff166002600083815260200190815260200160002060040160009054906101000a900473ffffffffffffffffffffffffffffffffffffffff1673ffffffffffffffffffffffffffffffffffffffff1614156118d15781806001019250505b8080600101915050611853565b5080915050919050565b6000600260008381526020019081526020016000209050600081600001541180156119195750600154816000015411155b151561198d576040517f08c379a000000000000000000000000000000000000000000000000000000000815260040180806020018281038252600e8152602001807f496e76616c69642067656d20494400000000000000000000000000000000000081525060200191505060405180910390fd5b600115158160060160009054906101000a900460ff161515141515611a40576040517f08c379a00000000000000000000000000000000000000000000000000000000081526004018080602001828103825260278152602001807f47656d206d75737420626520707572636861736564206265666f72652070726f81526020017f63657373696e670000000000000000000000000000000000000000000000000081525060400191505060405180910390fd5b7fd833e1973d5a0476f00f607a78899a7213d5d9398d0b10e1474ed2d22a87a282828260030160009054906101000a900473ffffffffffffffffffffffffffffffffffffffff168360040160009054906101000a900473ffffffffffffffffffffffffffffffffffffffff16604051808481526020018373ffffffffffffffffffffffffffffffffffffffff1673ffffffffffffffffffffffffffffffffffffffff1681526020018273ffffffffffffffffffffffffffffffffffffffff1673ffffffffffffffffffffffffffffffffffffffff168152602001935050505060405180910390a15050565b60015481565b828054600181600116156101000203166002900490600052602060002090601f016020900481019282601f10611b7257805160ff1916838001178555611ba0565b82800160010185558215611ba0579182015b82811115611b9f578251825591602001919060010190611b84565b5b509050611bad9190611bb1565b5090565b611bd391905b80821115611bcf576000816000905550600101611bb7565b5090565b9056fea165627a7a7230582039671f182f9cd8545590a05cdbcfbf7688a7b1fad2676fceb5af5865308e34340029",
  "source": "pragma solidity >=0.4.21 <0.6.0;\r\n\r\ncontract GemstoneExtraction {\r\n    string public name;\r\n    uint public minedGemCount = 0;\r\n\r\n    mapping(uint => MinedGem) public minedGems;\r\n\r\n    enum PointOfProcessing {MINED, SALEOFMINEDPRODUCT, PREPARATION, PROCESSING}\r\n\r\n    struct MinedGem {\r\n        uint id;\r\n        string gemType;\r\n        uint price;\r\n        address payable miner;\r\n        address payable owner;\r\n        string metadataHash; \r\n        bool purchased; \r\n        bool selected;\r\n        string fileURL;\r\n    }\r\n\r\n    event GemMining(\r\n        uint id,\r\n        string gemType,\r\n        uint price,\r\n        address payable miner,\r\n        address payable owner,\r\n        string metadataHash,\r\n        bool purchased,\r\n        string fileURL\r\n    );\r\n\r\n    event GemProcessing(\r\n        uint id,\r\n        address payable miner,\r\n        address payable owner\r\n    );\r\n\r\n    event GemPurchased(\r\n        uint id,\r\n        address payable miner,\r\n        address payable owner\r\n    );\r\n\r\n    event GemSelected(\r\n        uint id,\r\n        address payable miner,\r\n        address payable owner\r\n    );\r\n\r\n    event MarkNewOwner(\r\n        uint id,\r\n        address payable miner,\r\n        address payable owner\r\n    );\r\n\r\n    event MarkGemAsSelected(\r\n        uint id,\r\n        address payable miner,\r\n        address payable owner\r\n    );\r\n\r\n    event TransferGemOwnership(\r\n        uint id,\r\n        address payable miner,\r\n        address payable owner\r\n    );\r\n\r\n    constructor() public {\r\n        name = \"Gemstone Extraction Platform\";\r\n    }\r\n\r\n    function gemMining(\r\n        string memory _gemType,\r\n        uint _price,\r\n        string memory _metadataHash, \r\n        bool _purchased,\r\n        string memory _fileURL\r\n    ) public {\r\n        require(bytes(_gemType).length > 0, \"Gem type cannot be empty\");\r\n        require(_price > 0, \"Price must be greater than 0\");\r\n        require(bytes(_metadataHash).length > 0, \"Metadata hash cannot be empty\");\r\n\r\n        minedGemCount++;\r\n        minedGems[minedGemCount] = MinedGem(\r\n            minedGemCount,\r\n            _gemType,\r\n            _price,\r\n            msg.sender, \r\n            msg.sender, \r\n            _metadataHash, \r\n            _purchased,\r\n            false, // kezdetben nem választották ki\r\n            _fileURL\r\n        );\r\n\r\n        emit GemMining(minedGemCount, _gemType, _price, msg.sender, msg.sender, _metadataHash, _purchased, _fileURL);\r\n    }\r\n\r\n    function purchaseGem(uint _id) public payable {\r\n        MinedGem storage _minedGem = minedGems[_id];\r\n        require(_minedGem.id > 0 && _minedGem.id <= minedGemCount, \"Invalid gem ID\");\r\n        require(_minedGem.purchased == false, \"Gem already purchased\");\r\n\r\n        _minedGem.owner = msg.sender; \r\n        _minedGem.purchased = true;\r\n\r\n        emit GemPurchased(_id, _minedGem.miner, msg.sender);\r\n    }\r\n\r\n    function processingGem(uint _id) public {\r\n        MinedGem storage _minedGem = minedGems[_id];\r\n        require(_minedGem.id > 0 && _minedGem.id <= minedGemCount, \"Invalid gem ID\");\r\n        require(_minedGem.purchased == true, \"Gem must be purchased before processing\");\r\n\r\n        emit GemProcessing(_id, _minedGem.miner, _minedGem.owner);\r\n    }\r\n\r\n    function markNewOwner(uint _id) public payable {\r\n        MinedGem storage _minedGem = minedGems[_id];\r\n\r\n        require(_minedGem.id > 0 && _minedGem.id <= minedGemCount, \"Invalid gem ID\");\r\n        require(_minedGem.selected == false, \"Gem already selected\");\r\n        require(_minedGem.purchased == true, \"Gem must be purchased before selection\");\r\n        require(msg.value >= _minedGem.price, \"Insufficient funds\");\r\n\r\n        _minedGem.miner.transfer(msg.value);\r\n\r\n        _minedGem.owner = msg.sender;\r\n\r\n        emit MarkNewOwner(\r\n            _id, \r\n            _minedGem.miner, \r\n            _minedGem.owner\r\n        );\r\n    }\r\n\r\n    function markGemAsSelected(uint _id) public {\r\n        MinedGem storage _minedGem = minedGems[_id];\r\n\r\n        require(_minedGem.id > 0 && _minedGem.id <= minedGemCount, \"Invalid gem ID\");\r\n        require(_minedGem.selected == false, \"Gem already selected\");\r\n        require(_minedGem.purchased == true, \"Gem must be purchased before selection\");\r\n\r\n        _minedGem.selected = true;\r\n\r\n        emit MarkGemAsSelected(\r\n            _id, \r\n            _minedGem.miner, \r\n            _minedGem.owner\r\n        );\r\n    }\r\n\r\n    function getGemstoneCountByOwner(address _owner) public view returns (uint) {\r\n        uint count = 0;\r\n        for (uint i = 1; i <= minedGemCount; i++) {\r\n            if (minedGems[i].owner == _owner) {\r\n                count++;\r\n            }\r\n        }\r\n        return count;\r\n    }\r\n}\r\n",
  "sourcePath": "C:/Users/berke/asd/jewRoundx/src/contracts/GemstoneExtraction.sol",
  "compiler": {
    "name": "solc",
    "version": "0.5.0+commit.1d4f565a.Emscripten.clang"
  },
  "schemaVersion": "3.0.1",
  "updatedAt": "2024-11-21T19:15:30.822Z",
  "devdoc": {
    "methods": {}
  },
  "userdoc": {
    "methods": {}
  }
}