{
  "contractName": "GemstoneSelecting",
  "abi": [
    {
      "constant": true,
      "inputs": [],
      "name": "selectedGemCount",
      "outputs": [
        {
          "name": "",
          "type": "uint256"
        }
      ],
      "payable": false,
      "stateMutability": "view",
      "type": "function",
      "signature": "0x5f801c7a"
    },
    {
      "constant": true,
      "inputs": [
        {
          "name": "",
          "type": "uint256"
        }
      ],
      "name": "selectedMinedGems",
      "outputs": [
        {
          "name": "",
          "type": "bool"
        }
      ],
      "payable": false,
      "stateMutability": "view",
      "type": "function",
      "signature": "0xe8e9d045"
    },
    {
      "inputs": [
        {
          "name": "_gemstoneExtractionAddress",
          "type": "address"
        }
      ],
      "payable": false,
      "stateMutability": "nonpayable",
      "type": "constructor",
      "signature": "constructor"
    },
    {
      "anonymous": false,
      "inputs": [
        {
          "indexed": false,
          "name": "id",
          "type": "uint256"
        },
        {
          "indexed": false,
          "name": "minedGemId",
          "type": "uint256"
        },
        {
          "indexed": false,
          "name": "metadataHash",
          "type": "string"
        },
        {
          "indexed": false,
          "name": "forSale",
          "type": "bool"
        },
        {
          "indexed": false,
          "name": "price",
          "type": "uint256"
        },
        {
          "indexed": false,
          "name": "used",
          "type": "bool"
        },
        {
          "indexed": false,
          "name": "replaced",
          "type": "bool"
        },
        {
          "indexed": false,
          "name": "owner",
          "type": "address"
        },
        {
          "indexed": false,
          "name": "gemCutter",
          "type": "address"
        }
      ],
      "name": "GemSelecting",
      "type": "event",
      "signature": "0x4e4136c5d03b6077eb4cfc8c6ffb0ef9c0b63f96fa34ee1f9e50214a85e4fa56"
    },
    {
      "anonymous": false,
      "inputs": [
        {
          "indexed": false,
          "name": "id",
          "type": "uint256"
        },
        {
          "indexed": false,
          "name": "minedGemId",
          "type": "uint256"
        },
        {
          "indexed": false,
          "name": "metadataHash",
          "type": "string"
        },
        {
          "indexed": false,
          "name": "forSale",
          "type": "bool"
        },
        {
          "indexed": false,
          "name": "price",
          "type": "uint256"
        },
        {
          "indexed": false,
          "name": "used",
          "type": "bool"
        },
        {
          "indexed": false,
          "name": "replaced",
          "type": "bool"
        },
        {
          "indexed": false,
          "name": "owner",
          "type": "address"
        },
        {
          "indexed": false,
          "name": "gemCutter",
          "type": "address"
        }
      ],
      "name": "PolishGem",
      "type": "event",
      "signature": "0x613117c40fdec4d6046edefc097dafe5924c517a712063a4b8915e1f1c7c34dd"
    },
    {
      "anonymous": false,
      "inputs": [
        {
          "indexed": false,
          "name": "id",
          "type": "uint256"
        },
        {
          "indexed": false,
          "name": "minedGemId",
          "type": "uint256"
        },
        {
          "indexed": false,
          "name": "metadataHash",
          "type": "string"
        },
        {
          "indexed": false,
          "name": "forSale",
          "type": "bool"
        },
        {
          "indexed": false,
          "name": "price",
          "type": "uint256"
        },
        {
          "indexed": false,
          "name": "used",
          "type": "bool"
        },
        {
          "indexed": false,
          "name": "replaced",
          "type": "bool"
        },
        {
          "indexed": false,
          "name": "owner",
          "type": "address"
        },
        {
          "indexed": false,
          "name": "gemCutter",
          "type": "address"
        }
      ],
      "name": "MarkGemAsUsed",
      "type": "event",
      "signature": "0xfec2d2a2d1150910346742bac4c672209f6fa5de9bf989d59d57f658dbea47c1"
    },
    {
      "anonymous": false,
      "inputs": [
        {
          "indexed": false,
          "name": "id",
          "type": "uint256"
        },
        {
          "indexed": false,
          "name": "minedGemId",
          "type": "uint256"
        },
        {
          "indexed": false,
          "name": "metadataHash",
          "type": "string"
        },
        {
          "indexed": false,
          "name": "forSale",
          "type": "bool"
        },
        {
          "indexed": false,
          "name": "price",
          "type": "uint256"
        },
        {
          "indexed": false,
          "name": "used",
          "type": "bool"
        },
        {
          "indexed": false,
          "name": "replaced",
          "type": "bool"
        },
        {
          "indexed": false,
          "name": "owner",
          "type": "address"
        },
        {
          "indexed": false,
          "name": "gemCutter",
          "type": "address"
        }
      ],
      "name": "MarkGemAsReplaced",
      "type": "event",
      "signature": "0x5b0d18956e16668e244b6dba32fe1f84ba80f456abcbcf6256f0b3ed45b25503"
    },
    {
      "anonymous": false,
      "inputs": [
        {
          "indexed": false,
          "name": "id",
          "type": "uint256"
        },
        {
          "indexed": false,
          "name": "minedGemId",
          "type": "uint256"
        },
        {
          "indexed": false,
          "name": "metadataHash",
          "type": "string"
        },
        {
          "indexed": false,
          "name": "forSale",
          "type": "bool"
        },
        {
          "indexed": false,
          "name": "price",
          "type": "uint256"
        },
        {
          "indexed": false,
          "name": "used",
          "type": "bool"
        },
        {
          "indexed": false,
          "name": "replaced",
          "type": "bool"
        },
        {
          "indexed": false,
          "name": "owner",
          "type": "address"
        },
        {
          "indexed": false,
          "name": "gemCutter",
          "type": "address"
        }
      ],
      "name": "TransferGemOwnership",
      "type": "event",
      "signature": "0x64a4f13c5c08fac0be0c4f1fb9e7df70abea00b34870eb397ac4d8d7703ac63c"
    },
    {
      "constant": false,
      "inputs": [
        {
          "name": "gemId",
          "type": "uint256"
        },
        {
          "name": "previousGemId",
          "type": "uint256"
        }
      ],
      "name": "setPreviousGemId",
      "outputs": [],
      "payable": false,
      "stateMutability": "nonpayable",
      "type": "function",
      "signature": "0xda5eeba9"
    },
    {
      "constant": false,
      "inputs": [
        {
          "name": "_minedGemId",
          "type": "uint256"
        },
        {
          "name": "_metadataHash",
          "type": "string"
        },
        {
          "name": "_price",
          "type": "uint256"
        }
      ],
      "name": "gemSelecting",
      "outputs": [],
      "payable": false,
      "stateMutability": "nonpayable",
      "type": "function",
      "signature": "0xbd785fa0"
    },
    {
      "constant": false,
      "inputs": [
        {
          "name": "_id",
          "type": "uint256"
        }
      ],
      "name": "polishGem",
      "outputs": [],
      "payable": false,
      "stateMutability": "nonpayable",
      "type": "function",
      "signature": "0x6056fe7e"
    },
    {
      "constant": false,
      "inputs": [
        {
          "name": "_id",
          "type": "uint256"
        }
      ],
      "name": "markGemAsUsed",
      "outputs": [],
      "payable": false,
      "stateMutability": "nonpayable",
      "type": "function",
      "signature": "0xe85f2238"
    },
    {
      "constant": true,
      "inputs": [
        {
          "name": "_owner",
          "type": "address"
        }
      ],
      "name": "getSelectedGemsCountByOwner",
      "outputs": [
        {
          "name": "",
          "type": "uint256"
        }
      ],
      "payable": false,
      "stateMutability": "view",
      "type": "function",
      "signature": "0x608c1fb4"
    },
    {
      "constant": false,
      "inputs": [
        {
          "name": "_id",
          "type": "uint256"
        }
      ],
      "name": "transferGemOwnership",
      "outputs": [],
      "payable": true,
      "stateMutability": "payable",
      "type": "function",
      "signature": "0xb06e6f58"
    },
    {
      "constant": true,
      "inputs": [
        {
          "name": "_id",
          "type": "uint256"
        }
      ],
      "name": "getSelectedGem",
      "outputs": [
        {
          "name": "id",
          "type": "uint256"
        },
        {
          "name": "minedGemId",
          "type": "uint256"
        },
        {
          "name": "previousGemId",
          "type": "uint256"
        },
        {
          "name": "metadataHash",
          "type": "string"
        },
        {
          "name": "forSale",
          "type": "bool"
        },
        {
          "name": "price",
          "type": "uint256"
        },
        {
          "name": "used",
          "type": "bool"
        },
        {
          "name": "replaced",
          "type": "bool"
        },
        {
          "name": "owner",
          "type": "address"
        },
        {
          "name": "gemCutter",
          "type": "address"
        }
      ],
      "payable": false,
      "stateMutability": "view",
      "type": "function",
      "signature": "0x61b32e6e"
    },
    {
      "constant": true,
      "inputs": [
        {
          "name": "_id",
          "type": "uint256"
        }
      ],
      "name": "getGemDetails",
      "outputs": [
        {
          "name": "id",
          "type": "uint256"
        },
        {
          "name": "minedGemId",
          "type": "uint256"
        },
        {
          "name": "previousGemId",
          "type": "uint256"
        },
        {
          "name": "metadataHash",
          "type": "string"
        },
        {
          "name": "forSale",
          "type": "bool"
        },
        {
          "name": "price",
          "type": "uint256"
        },
        {
          "name": "used",
          "type": "bool"
        },
        {
          "name": "replaced",
          "type": "bool"
        },
        {
          "name": "owner",
          "type": "address"
        },
        {
          "name": "gemCutter",
          "type": "address"
        }
      ],
      "payable": false,
      "stateMutability": "view",
      "type": "function",
      "signature": "0x8c632e64"
    },
    {
      "constant": false,
      "inputs": [
        {
          "name": "_id",
          "type": "uint256"
        }
      ],
      "name": "markGemAsReplaced",
      "outputs": [],
      "payable": false,
      "stateMutability": "nonpayable",
      "type": "function",
      "signature": "0x478091d9"
    }
  ],
  "bytecode": "0x60806040526000805534801561001457600080fd5b50604051602080611b738339810180604052602081101561003457600080fd5b810190808051906020019092919050505080600260006101000a81548173ffffffffffffffffffffffffffffffffffffffff021916908373ffffffffffffffffffffffffffffffffffffffff16021790555050611add806100966000396000f3fe6080604052600436106100af576000357c0100000000000000000000000000000000000000000000000000000000900463ffffffff168063478091d9146100b45780635f801c7a146100ef5780636056fe7e1461011a578063608c1fb41461015557806361b32e6e146101ba5780638c632e6414610311578063b06e6f5814610468578063bd785fa014610496578063da5eeba914610572578063e85f2238146105b7578063e8e9d045146105f2575b600080fd5b3480156100c057600080fd5b506100ed600480360360208110156100d757600080fd5b8101908080359060200190929190505050610645565b005b3480156100fb57600080fd5b5061010461097b565b6040518082815260200191505060405180910390f35b34801561012657600080fd5b506101536004803603602081101561013d57600080fd5b8101908080359060200190929190505050610981565b005b34801561016157600080fd5b506101a46004803603602081101561017857600080fd5b81019080803573ffffffffffffffffffffffffffffffffffffffff169060200190929190505050610bb1565b6040518082815260200191505060405180910390f35b3480156101c657600080fd5b506101f3600480360360208110156101dd57600080fd5b8101908080359060200190929190505050610c54565b604051808b81526020018a8152602001898152602001806020018815151515815260200187815260200186151515158152602001851515151581526020018473ffffffffffffffffffffffffffffffffffffffff1673ffffffffffffffffffffffffffffffffffffffff1681526020018373ffffffffffffffffffffffffffffffffffffffff1673ffffffffffffffffffffffffffffffffffffffff168152602001828103825289818151815260200191508051906020019080838360005b838110156102cd5780820151818401526020810190506102b2565b50505050905090810190601f1680156102fa5780820380516001836020036101000a031916815260200191505b509b50505050505050505050505060405180910390f35b34801561031d57600080fd5b5061034a6004803603602081101561033457600080fd5b8101908080359060200190929190505050610dd7565b604051808b81526020018a8152602001898152602001806020018815151515815260200187815260200186151515158152602001851515151581526020018473ffffffffffffffffffffffffffffffffffffffff1673ffffffffffffffffffffffffffffffffffffffff1681526020018373ffffffffffffffffffffffffffffffffffffffff1673ffffffffffffffffffffffffffffffffffffffff168152602001828103825289818151815260200191508051906020019080838360005b83811015610424578082015181840152602081019050610409565b50505050905090810190601f1680156104515780820380516001836020036101000a031916815260200191505b509b50505050505050505050505060405180910390f35b6104946004803603602081101561047e57600080fd5b8101908080359060200190929190505050610e11565b005b3480156104a257600080fd5b50610570600480360360608110156104b957600080fd5b8101908080359060200190929190803590602001906401000000008111156104e057600080fd5b8201836020820111156104f257600080fd5b8035906020019184600183028401116401000000008311171561051457600080fd5b91908080601f016020809104026020016040519081016040528093929190818152602001838380828437600081840152601f19601f820116905080830192505050505050509192919290803590602001909291905050506112b0565b005b34801561057e57600080fd5b506105b56004803603604081101561059557600080fd5b8101908080359060200190929190803590602001909291905050506115d6565b005b3480156105c357600080fd5b506105f0600480360360208110156105da57600080fd5b81019080803590602001909291905050506116b6565b005b3480156105fe57600080fd5b5061062b6004803603602081101561061557600080fd5b81019080803590602001909291905050506119ec565b604051808215151515815260200191505060405180910390f35b6000600160008381526020019081526020016000209050600081600001541180156106765750600054816000015411155b15156106ea576040517f08c379a000000000000000000000000000000000000000000000000000000000815260040180806020018281038252600e8152602001807f496e76616c69642067656d20494400000000000000000000000000000000000081525060200191505060405180910390fd5b600015158160060160019054906101000a900460ff161515141515610777576040517f08c379a00000000000000000000000000000000000000000000000000000000081526004018080602001828103825260108152602001807f47656d20616c726561647920757365640000000000000000000000000000000081525060200191505060405180910390fd5b60018160060160016101000a81548160ff0219169083151502179055507f5b0d18956e16668e244b6dba32fe1f84ba80f456abcbcf6256f0b3ed45b25503828260010154836004018460030160009054906101000a900460ff1685600501548660060160009054906101000a900460ff168760060160019054906101000a900460ff168860060160029054906101000a900473ffffffffffffffffffffffffffffffffffffffff168960070160009054906101000a900473ffffffffffffffffffffffffffffffffffffffff16604051808a8152602001898152602001806020018815151515815260200187815260200186151515158152602001851515151581526020018473ffffffffffffffffffffffffffffffffffffffff1673ffffffffffffffffffffffffffffffffffffffff1681526020018373ffffffffffffffffffffffffffffffffffffffff1673ffffffffffffffffffffffffffffffffffffffff1681526020018281038252898181546001816001161561010002031660029004815260200191508054600181600116156101000203166002900480156109615780601f1061093657610100808354040283529160200191610961565b820191906000526020600020905b81548152906001019060200180831161094457829003601f168201915b50509a505050505050505050505060405180910390a15050565b60005481565b60006001600083815260200190815260200160002090508060030160009054906101000a900460ff16158160030160006101000a81548160ff0219169083151502179055507f613117c40fdec4d6046edefc097dafe5924c517a712063a4b8915e1f1c7c34dd81600001548260010154836004018460030160009054906101000a900460ff1685600501548660060160009054906101000a900460ff168760060160019054906101000a900460ff168860060160029054906101000a900473ffffffffffffffffffffffffffffffffffffffff168960070160009054906101000a900473ffffffffffffffffffffffffffffffffffffffff16604051808a8152602001898152602001806020018815151515815260200187815260200186151515158152602001851515151581526020018473ffffffffffffffffffffffffffffffffffffffff1673ffffffffffffffffffffffffffffffffffffffff1681526020018373ffffffffffffffffffffffffffffffffffffffff1673ffffffffffffffffffffffffffffffffffffffff168152602001828103825289818154600181600116156101000203166002900481526020019150805460018160011615610100020316600290048015610b975780601f10610b6c57610100808354040283529160200191610b97565b820191906000526020600020905b815481529060010190602001808311610b7a57829003601f168201915b50509a505050505050505050505060405180910390a15050565b600080600090506000600190505b60005481111515610c4a578373ffffffffffffffffffffffffffffffffffffffff166001600083815260200190815260200160002060060160029054906101000a900473ffffffffffffffffffffffffffffffffffffffff1673ffffffffffffffffffffffffffffffffffffffff161415610c3d5781806001019250505b8080600101915050610bbf565b5080915050919050565b600080600060606000806000806000806000600160008d81526020019081526020016000209050806000015481600101548260020154836004018460030160009054906101000a900460ff1685600501548660060160009054906101000a900460ff168760060160019054906101000a900460ff168860060160029054906101000a900473ffffffffffffffffffffffffffffffffffffffff168960070160009054906101000a900473ffffffffffffffffffffffffffffffffffffffff16868054600181600116156101000203166002900480601f016020809104026020016040519081016040528092919081815260200182805460018160011615610100020316600290048015610da85780601f10610d7d57610100808354040283529160200191610da8565b820191906000526020600020905b815481529060010190602001808311610d8b57829003601f168201915b505050505096508191508090509a509a509a509a509a509a509a509a509a509a50509193959799509193959799565b60008060006060600080600080600080610df08b610c54565b99509950995099509950995099509950995099509193959799509193959799565b600060016000838152602001908152602001600020905060008160000154118015610e425750600054816000015411155b1515610eb6576040517f08c379a000000000000000000000000000000000000000000000000000000000815260040180806020018281038252600e8152602001807f496e76616c69642067656d20494400000000000000000000000000000000000081525060200191505060405180910390fd5b3373ffffffffffffffffffffffffffffffffffffffff168160060160029054906101000a900473ffffffffffffffffffffffffffffffffffffffff1673ffffffffffffffffffffffffffffffffffffffff1614151515610f7e576040517f08c379a00000000000000000000000000000000000000000000000000000000081526004018080602001828103825260188152602001807f596f7520616c7265616479206f776e20746869732067656d000000000000000081525060200191505060405180910390fd5b80600501543410151515610ffa576040517f08c379a00000000000000000000000000000000000000000000000000000000081526004018080602001828103825260128152602001807f496e73756666696369656e742066756e6473000000000000000000000000000081525060200191505060405180910390fd5b8060060160029054906101000a900473ffffffffffffffffffffffffffffffffffffffff1673ffffffffffffffffffffffffffffffffffffffff166108fc349081150290604051600060405180830381858888f19350505050158015611064573d6000803e3d6000fd5b50338160060160026101000a81548173ffffffffffffffffffffffffffffffffffffffff021916908373ffffffffffffffffffffffffffffffffffffffff16021790555060008160030160006101000a81548160ff0219169083151502179055507f64a4f13c5c08fac0be0c4f1fb9e7df70abea00b34870eb397ac4d8d7703ac63c81600001548260010154836004018460030160009054906101000a900460ff1685600501548660060160009054906101000a900460ff168760060160019054906101000a900460ff168860060160029054906101000a900473ffffffffffffffffffffffffffffffffffffffff168960070160009054906101000a900473ffffffffffffffffffffffffffffffffffffffff16604051808a8152602001898152602001806020018815151515815260200187815260200186151515158152602001851515151581526020018473ffffffffffffffffffffffffffffffffffffffff1673ffffffffffffffffffffffffffffffffffffffff1681526020018373ffffffffffffffffffffffffffffffffffffffff1673ffffffffffffffffffffffffffffffffffffffff1681526020018281038252898181546001816001161561010002031660029004815260200191508054600181600116156101000203166002900480156112965780601f1061126b57610100808354040283529160200191611296565b820191906000526020600020905b81548152906001019060200180831161127957829003601f168201915b50509a505050505050505050505060405180910390a15050565b6000808154809291906001019190505550600060016000858152602001908152602001600020905083816000018190555083816001018190555082816004019080519060200190611302929190611a0c565b5060008160030160006101000a81548160ff02191690831515021790555081816005018190555060008160060160006101000a81548160ff02191690831515021790555060008160060160016101000a81548160ff021916908315150217905550338160060160026101000a81548173ffffffffffffffffffffffffffffffffffffffff021916908373ffffffffffffffffffffffffffffffffffffffff160217905550338160070160006101000a81548173ffffffffffffffffffffffffffffffffffffffff021916908373ffffffffffffffffffffffffffffffffffffffff1602179055507f4e4136c5d03b6077eb4cfc8c6ffb0ef9c0b63f96fa34ee1f9e50214a85e4fa5681600001548260010154836004018460030160009054906101000a900460ff1685600501548660060160009054906101000a900460ff168760060160019054906101000a900460ff168860060160029054906101000a900473ffffffffffffffffffffffffffffffffffffffff168960070160009054906101000a900473ffffffffffffffffffffffffffffffffffffffff16604051808a8152602001898152602001806020018815151515815260200187815260200186151515158152602001851515151581526020018473ffffffffffffffffffffffffffffffffffffffff1673ffffffffffffffffffffffffffffffffffffffff1681526020018373ffffffffffffffffffffffffffffffffffffffff1673ffffffffffffffffffffffffffffffffffffffff1681526020018281038252898181546001816001161561010002031660029004815260200191508054600181600116156101000203166002900480156115ba5780601f1061158f576101008083540402835291602001916115ba565b820191906000526020600020905b81548152906001019060200180831161159d57829003601f168201915b50509a505050505050505050505060405180910390a150505050565b600060016000848152602001908152602001600020905060008160000154111515611669576040517f08c379a00000000000000000000000000000000000000000000000000000000081526004018080602001828103825260138152602001807f47656d20646f6573206e6f742065786973742e0000000000000000000000000081525060200191505060405180910390fd5b81816002018190555060008211156116b157600060016000848152602001908152602001600020905060018160060160016101000a81548160ff021916908315150217905550505b505050565b6000600160008381526020019081526020016000209050600081600001541180156116e75750600054816000015411155b151561175b576040517f08c379a000000000000000000000000000000000000000000000000000000000815260040180806020018281038252600e8152602001807f496e76616c69642067656d20494400000000000000000000000000000000000081525060200191505060405180910390fd5b600015158160060160009054906101000a900460ff1615151415156117e8576040517f08c379a00000000000000000000000000000000000000000000000000000000081526004018080602001828103825260108152602001807f47656d20616c726561647920757365640000000000000000000000000000000081525060200191505060405180910390fd5b60018160060160006101000a81548160ff0219169083151502179055507ffec2d2a2d1150910346742bac4c672209f6fa5de9bf989d59d57f658dbea47c1828260010154836004018460030160009054906101000a900460ff1685600501548660060160009054906101000a900460ff168760060160019054906101000a900460ff168860060160029054906101000a900473ffffffffffffffffffffffffffffffffffffffff168960070160009054906101000a900473ffffffffffffffffffffffffffffffffffffffff16604051808a8152602001898152602001806020018815151515815260200187815260200186151515158152602001851515151581526020018473ffffffffffffffffffffffffffffffffffffffff1673ffffffffffffffffffffffffffffffffffffffff1681526020018373ffffffffffffffffffffffffffffffffffffffff1673ffffffffffffffffffffffffffffffffffffffff1681526020018281038252898181546001816001161561010002031660029004815260200191508054600181600116156101000203166002900480156119d25780601f106119a7576101008083540402835291602001916119d2565b820191906000526020600020905b8154815290600101906020018083116119b557829003601f168201915b50509a505050505050505050505060405180910390a15050565b60036020528060005260406000206000915054906101000a900460ff1681565b828054600181600116156101000203166002900490600052602060002090601f016020900481019282601f10611a4d57805160ff1916838001178555611a7b565b82800160010185558215611a7b579182015b82811115611a7a578251825591602001919060010190611a5f565b5b509050611a889190611a8c565b5090565b611aae91905b80821115611aaa576000816000905550600101611a92565b5090565b9056fea165627a7a72305820fc3e7485487cc5ec534994cd8032aa4ed4d15a1b124fb1423490c8be4e3b4da30029",
  "source": "pragma solidity >=0.4.21 <0.6.0;\r\n\r\ninterface IGemstoneExtraction {\r\n    function minedGems(uint) external view returns (uint id, string memory gemType, uint weight, uint height, uint width, uint price, string memory miningLocation, uint miningYear, bool selected, string memory extractionMethod, address payable owner, bool purchased);\r\n}\r\n\r\ncontract GemstoneSelecting {\r\n    uint public selectedGemCount = 0;\r\n    mapping(uint => SelectedGem) private selectedGems;\r\n    IGemstoneExtraction gemstoneExtraction;\r\n    mapping(uint => bool) public selectedMinedGems;\r\n\r\n    struct SelectedGem {\r\n        uint id;\r\n        uint minedGemId;\r\n        uint previousGemId;\r\n        bool forSale;\r\n        string metadataHash; \r\n        uint price;\r\n        bool used;\r\n        bool replaced; \r\n        address payable owner;\r\n        address payable gemCutter;\r\n    }\r\n\r\n    event GemSelecting(\r\n        uint id,\r\n        uint minedGemId,\r\n        string metadataHash,\r\n        bool forSale,\r\n        uint price,\r\n        bool used,\r\n        bool replaced,\r\n        address payable owner,\r\n        address payable gemCutter\r\n    );\r\n\r\n    event PolishGem(\r\n        uint id,\r\n        uint minedGemId,\r\n        string metadataHash, \r\n        bool forSale,\r\n        uint price,\r\n        bool used,\r\n        bool replaced, \r\n        address payable owner,\r\n        address payable gemCutter\r\n    );\r\n\r\n    event MarkGemAsUsed(\r\n        uint id,\r\n        uint minedGemId,\r\n        string metadataHash, \r\n        bool forSale,\r\n        uint price,\r\n        bool used,\r\n        bool replaced, \r\n        address payable owner,\r\n        address payable gemCutter\r\n    );\r\n\r\n     event MarkGemAsReplaced(\r\n        uint id,\r\n        uint minedGemId,\r\n        string metadataHash, \r\n        bool forSale,\r\n        uint price,\r\n        bool used,\r\n        bool replaced, \r\n        address payable owner,\r\n        address payable gemCutter\r\n    );\r\n\r\n    event TransferGemOwnership(\r\n        uint id,\r\n        uint minedGemId,\r\n        string metadataHash, \r\n        bool forSale,\r\n        uint price,\r\n        bool used,\r\n        bool replaced, \r\n        address payable owner,\r\n        address payable gemCutter\r\n    );\r\n\r\n    constructor(address _gemstoneExtractionAddress) public {\r\n        gemstoneExtraction = IGemstoneExtraction(_gemstoneExtractionAddress);\r\n    }\r\n\r\n    function setPreviousGemId(uint gemId, uint previousGemId) public {\r\n        SelectedGem storage gem = selectedGems[gemId];\r\n        require(gem.id > 0, \"Gem does not exist.\");\r\n        gem.previousGemId = previousGemId;\r\n\r\n        if (previousGemId > 0) {\r\n            SelectedGem storage previousGem = selectedGems[previousGemId];\r\n            previousGem.replaced = true;\r\n        }\r\n    }\r\n\r\n    function gemSelecting(\r\n        uint _minedGemId,\r\n        string memory _metadataHash, \r\n        uint _price\r\n    ) public {\r\n        selectedGemCount++;\r\n        SelectedGem storage gem = selectedGems[_minedGemId];\r\n        gem.id = _minedGemId;\r\n        gem.minedGemId = _minedGemId;\r\n        gem.metadataHash = _metadataHash; \r\n        gem.forSale = false;\r\n        gem.price = _price;\r\n        gem.used = false;\r\n        gem.replaced = false; \r\n        gem.owner = msg.sender;\r\n        gem.gemCutter = msg.sender;\r\n\r\n        emit GemSelecting(\r\n            gem.id,\r\n            gem.minedGemId,\r\n            gem.metadataHash, \r\n            gem.forSale,\r\n            gem.price,\r\n            gem.used,\r\n            gem.replaced,\r\n            gem.owner,\r\n            gem.gemCutter\r\n        );\r\n    }\r\n\r\n    function polishGem(uint _id) public {\r\n        SelectedGem storage _selectedGem = selectedGems[_id];\r\n        _selectedGem.forSale = !_selectedGem.forSale;\r\n\r\n        emit PolishGem(\r\n            _selectedGem.id,\r\n            _selectedGem.minedGemId,\r\n            _selectedGem.metadataHash, \r\n            _selectedGem.forSale,\r\n            _selectedGem.price,\r\n            _selectedGem.used,\r\n            _selectedGem.replaced, \r\n            _selectedGem.owner,\r\n            _selectedGem.gemCutter\r\n        );\r\n    }\r\n\r\n    function markGemAsUsed(uint _id) public {\r\n        SelectedGem storage _selectedGem = selectedGems[_id];\r\n        require(_selectedGem.id > 0 && _selectedGem.id <= selectedGemCount, \"Invalid gem ID\");\r\n        require(_selectedGem.used == false, \"Gem already used\");\r\n        _selectedGem.used = true;\r\n\r\n        emit MarkGemAsUsed(\r\n            _id,\r\n            _selectedGem.minedGemId,\r\n            _selectedGem.metadataHash, \r\n            _selectedGem.forSale,\r\n            _selectedGem.price,\r\n            _selectedGem.used,\r\n            _selectedGem.replaced, \r\n            _selectedGem.owner,\r\n            _selectedGem.gemCutter\r\n        );\r\n    }\r\n\r\n    function getSelectedGemsCountByOwner(address _owner) public view returns (uint) {\r\n        uint count = 0;\r\n        for (uint i = 1; i <= selectedGemCount; i++) {\r\n            if (selectedGems[i].owner == _owner) {\r\n                count++;\r\n            }\r\n        }\r\n        return count;\r\n    }\r\n\r\n    function transferGemOwnership(uint _id) public payable {\r\n        SelectedGem storage _selectedGem = selectedGems[_id];\r\n        require(_selectedGem.id > 0 && _selectedGem.id <= selectedGemCount, \"Invalid gem ID\");\r\n        require(_selectedGem.owner != msg.sender, \"You already own this gem\");\r\n        require(msg.value >= _selectedGem.price, \"Insufficient funds\");\r\n\r\n        _selectedGem.owner.transfer(msg.value);\r\n        _selectedGem.owner = msg.sender;\r\n        _selectedGem.forSale = false;\r\n\r\n        emit TransferGemOwnership(\r\n            _selectedGem.id,\r\n            _selectedGem.minedGemId,\r\n            _selectedGem.metadataHash,\r\n            _selectedGem.forSale,\r\n            _selectedGem.price,\r\n            _selectedGem.used,\r\n            _selectedGem.replaced, \r\n            _selectedGem.owner,\r\n            _selectedGem.gemCutter\r\n        );\r\n    }\r\n\r\n    // Public getter for selectedGems\r\n    function getSelectedGem(uint _id) public view returns (\r\n        uint id,\r\n        uint minedGemId,\r\n        uint previousGemId,\r\n        string memory metadataHash,\r\n        bool forSale,\r\n        uint price,\r\n        bool used,\r\n        bool replaced, \r\n        address owner,\r\n        address gemCutter\r\n    ) {\r\n        SelectedGem storage gem = selectedGems[_id];\r\n        return (\r\n            gem.id,\r\n            gem.minedGemId,\r\n            gem.previousGemId,\r\n            gem.metadataHash, \r\n            gem.forSale,\r\n            gem.price,\r\n            gem.used,\r\n            gem.replaced, \r\n            gem.owner,\r\n            gem.gemCutter\r\n        );\r\n    }\r\n\r\n    function getGemDetails(uint _id) public view returns (\r\n        uint id,\r\n        uint minedGemId,\r\n        uint previousGemId,\r\n        string memory metadataHash, \r\n        bool forSale,\r\n        uint price,\r\n        bool used,\r\n        bool replaced, \r\n        address owner,\r\n        address gemCutter\r\n    ) {\r\n        return getSelectedGem(_id);\r\n    }\r\n\r\n      function markGemAsReplaced(uint _id) public {\r\n        SelectedGem storage _selectedGem = selectedGems[_id];\r\n        require(_selectedGem.id > 0 && _selectedGem.id <= selectedGemCount, \"Invalid gem ID\");\r\n        require(_selectedGem.replaced == false, \"Gem already used\");\r\n        _selectedGem.replaced = true;\r\n\r\n        emit MarkGemAsReplaced(\r\n            _id,\r\n            _selectedGem.minedGemId,\r\n            _selectedGem.metadataHash, \r\n            _selectedGem.forSale,\r\n            _selectedGem.price,\r\n            _selectedGem.used,\r\n            _selectedGem.replaced, \r\n            _selectedGem.owner,\r\n            _selectedGem.gemCutter\r\n        );\r\n    }\r\n}\r\n",
  "sourcePath": "C:/Users/berke/jewRoundx/src/contracts/GemstoneSelecting.sol",
  "compiler": {
    "name": "solc",
    "version": "0.5.0+commit.1d4f565a.Emscripten.clang"
  },
  "schemaVersion": "3.0.1",
  "updatedAt": "2024-10-06T19:17:52.804Z",
  "devdoc": {
    "methods": {}
  },
  "userdoc": {
    "methods": {}
  }
}