{
  "contractName": "GemstoneExtraction",
  "abi": [
    {
      "constant": true,
      "inputs": [],
      "name": "name",
      "outputs": [
        {
          "name": "",
          "type": "string"
        }
      ],
      "payable": false,
      "stateMutability": "view",
      "type": "function",
      "signature": "0x06fdde03"
    },
    {
      "constant": true,
      "inputs": [
        {
          "name": "",
          "type": "uint256"
        }
      ],
      "name": "minedGems",
      "outputs": [
        {
          "name": "id",
          "type": "uint256"
        },
        {
          "name": "gemType",
          "type": "string"
        },
        {
          "name": "price",
          "type": "uint256"
        },
        {
          "name": "miner",
          "type": "address"
        },
        {
          "name": "owner",
          "type": "address"
        },
        {
          "name": "metadataHash",
          "type": "string"
        },
        {
          "name": "purchased",
          "type": "bool"
        },
        {
          "name": "selected",
          "type": "bool"
        }
      ],
      "payable": false,
      "stateMutability": "view",
      "type": "function",
      "signature": "0x1e166c4e"
    },
    {
      "constant": true,
      "inputs": [],
      "name": "minedGemCount",
      "outputs": [
        {
          "name": "",
          "type": "uint256"
        }
      ],
      "payable": false,
      "stateMutability": "view",
      "type": "function",
      "signature": "0xd0cfe11e"
    },
    {
      "inputs": [],
      "payable": false,
      "stateMutability": "nonpayable",
      "type": "constructor",
      "signature": "constructor"
    },
    {
      "anonymous": false,
      "inputs": [
        {
          "indexed": false,
          "name": "id",
          "type": "uint256"
        },
        {
          "indexed": false,
          "name": "gemType",
          "type": "string"
        },
        {
          "indexed": false,
          "name": "price",
          "type": "uint256"
        },
        {
          "indexed": false,
          "name": "miner",
          "type": "address"
        },
        {
          "indexed": false,
          "name": "owner",
          "type": "address"
        },
        {
          "indexed": false,
          "name": "metadataHash",
          "type": "string"
        },
        {
          "indexed": false,
          "name": "purchased",
          "type": "bool"
        }
      ],
      "name": "GemMining",
      "type": "event",
      "signature": "0x1e8e23a2b85fcadb58901ea0343894e662814b6ad40dd000e79090664758296e"
    },
    {
      "anonymous": false,
      "inputs": [
        {
          "indexed": false,
          "name": "id",
          "type": "uint256"
        },
        {
          "indexed": false,
          "name": "gemType",
          "type": "string"
        },
        {
          "indexed": false,
          "name": "price",
          "type": "uint256"
        },
        {
          "indexed": false,
          "name": "miner",
          "type": "address"
        },
        {
          "indexed": false,
          "name": "owner",
          "type": "address"
        },
        {
          "indexed": false,
          "name": "metadataHash",
          "type": "string"
        },
        {
          "indexed": false,
          "name": "purchased",
          "type": "bool"
        }
      ],
      "name": "GemProcessing",
      "type": "event",
      "signature": "0x84a1a4a2f88e172df45361a9606d65fa59042007605c1336a182db5eef74d492"
    },
    {
      "anonymous": false,
      "inputs": [
        {
          "indexed": false,
          "name": "id",
          "type": "uint256"
        },
        {
          "indexed": false,
          "name": "gemType",
          "type": "string"
        },
        {
          "indexed": false,
          "name": "price",
          "type": "uint256"
        },
        {
          "indexed": false,
          "name": "miner",
          "type": "address"
        },
        {
          "indexed": false,
          "name": "owner",
          "type": "address"
        },
        {
          "indexed": false,
          "name": "metadataHash",
          "type": "string"
        },
        {
          "indexed": false,
          "name": "purchased",
          "type": "bool"
        }
      ],
      "name": "GemPurchased",
      "type": "event",
      "signature": "0xdc9635fcb068325e1fb8753350c6143c6d06c76628bb8580bf2b4d96173c004f"
    },
    {
      "anonymous": false,
      "inputs": [
        {
          "indexed": false,
          "name": "id",
          "type": "uint256"
        },
        {
          "indexed": false,
          "name": "gemType",
          "type": "string"
        },
        {
          "indexed": false,
          "name": "price",
          "type": "uint256"
        },
        {
          "indexed": false,
          "name": "miner",
          "type": "address"
        },
        {
          "indexed": false,
          "name": "owner",
          "type": "address"
        },
        {
          "indexed": false,
          "name": "metadataHash",
          "type": "string"
        },
        {
          "indexed": false,
          "name": "purchased",
          "type": "bool"
        }
      ],
      "name": "GemSelected",
      "type": "event",
      "signature": "0xab7469281fee3c5497258b6a2420626cb9a336bcea7ccd55a9e39d82c0ffc7e0"
    },
    {
      "anonymous": false,
      "inputs": [
        {
          "indexed": false,
          "name": "id",
          "type": "uint256"
        },
        {
          "indexed": false,
          "name": "gemType",
          "type": "string"
        },
        {
          "indexed": false,
          "name": "price",
          "type": "uint256"
        },
        {
          "indexed": false,
          "name": "miner",
          "type": "address"
        },
        {
          "indexed": false,
          "name": "owner",
          "type": "address"
        },
        {
          "indexed": false,
          "name": "metadataHash",
          "type": "string"
        },
        {
          "indexed": false,
          "name": "purchased",
          "type": "bool"
        }
      ],
      "name": "MarkNewOwner",
      "type": "event",
      "signature": "0x843fbc0ee314379b70a443e62011be0891def2628efb9ae2291e54c61253c515"
    },
    {
      "anonymous": false,
      "inputs": [
        {
          "indexed": false,
          "name": "id",
          "type": "uint256"
        },
        {
          "indexed": false,
          "name": "gemType",
          "type": "string"
        },
        {
          "indexed": false,
          "name": "price",
          "type": "uint256"
        },
        {
          "indexed": false,
          "name": "miner",
          "type": "address"
        },
        {
          "indexed": false,
          "name": "owner",
          "type": "address"
        },
        {
          "indexed": false,
          "name": "metadataHash",
          "type": "string"
        },
        {
          "indexed": false,
          "name": "purchased",
          "type": "bool"
        }
      ],
      "name": "MarkGemAsSelected",
      "type": "event",
      "signature": "0xe9718da8dd3fa289a3b6436354cedf5101eb9f4a0997bf51294a1a5da32b8a9d"
    },
    {
      "anonymous": false,
      "inputs": [
        {
          "indexed": false,
          "name": "id",
          "type": "uint256"
        },
        {
          "indexed": false,
          "name": "gemType",
          "type": "string"
        },
        {
          "indexed": false,
          "name": "price",
          "type": "uint256"
        },
        {
          "indexed": false,
          "name": "miner",
          "type": "address"
        },
        {
          "indexed": false,
          "name": "owner",
          "type": "address"
        },
        {
          "indexed": false,
          "name": "metadataHash",
          "type": "string"
        },
        {
          "indexed": false,
          "name": "purchased",
          "type": "bool"
        }
      ],
      "name": "TransferGemOwnership",
      "type": "event",
      "signature": "0xb8bd9ab94cef6bf9e8c6d406598ca28b8dce10bbcead4a4a63589aad325487e9"
    },
    {
      "constant": false,
      "inputs": [
        {
          "name": "_gemType",
          "type": "string"
        },
        {
          "name": "_price",
          "type": "uint256"
        },
        {
          "name": "_metadataHash",
          "type": "string"
        },
        {
          "name": "_purchased",
          "type": "bool"
        }
      ],
      "name": "gemMining",
      "outputs": [],
      "payable": false,
      "stateMutability": "nonpayable",
      "type": "function",
      "signature": "0x182e0ed5"
    },
    {
      "constant": false,
      "inputs": [
        {
          "name": "_id",
          "type": "uint256"
        }
      ],
      "name": "purchaseGem",
      "outputs": [],
      "payable": true,
      "stateMutability": "payable",
      "type": "function",
      "signature": "0x9b8efcd9"
    },
    {
      "constant": false,
      "inputs": [
        {
          "name": "_id",
          "type": "uint256"
        }
      ],
      "name": "processingGem",
      "outputs": [],
      "payable": false,
      "stateMutability": "nonpayable",
      "type": "function",
      "signature": "0xbf38b7a2"
    },
    {
      "constant": false,
      "inputs": [
        {
          "name": "_id",
          "type": "uint256"
        }
      ],
      "name": "markNewOwner",
      "outputs": [],
      "payable": true,
      "stateMutability": "payable",
      "type": "function",
      "signature": "0x30d559fa"
    },
    {
      "constant": false,
      "inputs": [
        {
          "name": "_id",
          "type": "uint256"
        }
      ],
      "name": "markGemAsSelected",
      "outputs": [],
      "payable": false,
      "stateMutability": "nonpayable",
      "type": "function",
      "signature": "0x53cdc244"
    },
    {
      "constant": true,
      "inputs": [
        {
          "name": "_owner",
          "type": "address"
        }
      ],
      "name": "getGemstoneCountByOwner",
      "outputs": [
        {
          "name": "",
          "type": "uint256"
        }
      ],
      "payable": false,
      "stateMutability": "view",
      "type": "function",
      "signature": "0xb03c3930"
    }
  ],
  "bytecode": "0x608060405260006001553480156200001657600080fd5b506040805190810160405280601c81526020017f47656d73746f6e652045787472616374696f6e20506c6174666f726d0000000081525060009080519060200190620000649291906200006b565b506200011a565b828054600181600116156101000203166002900490600052602060002090601f016020900481019282601f10620000ae57805160ff1916838001178555620000df565b82800160010185558215620000df579182015b82811115620000de578251825591602001919060010190620000c1565b5b509050620000ee9190620000f2565b5090565b6200011791905b8082111562000113576000816000905550600101620000f9565b5090565b90565b611edb806200012a6000396000f3fe608060405260043610610099576000357c0100000000000000000000000000000000000000000000000000000000900463ffffffff16806306fdde031461009e578063182e0ed51461012e5780631e166c4e146102a357806330d559fa1461044d57806353cdc2441461047b5780639b8efcd9146104b6578063b03c3930146104e4578063bf38b7a214610549578063d0cfe11e14610584575b600080fd5b3480156100aa57600080fd5b506100b36105af565b6040518080602001828103825283818151815260200191508051906020019080838360005b838110156100f35780820151818401526020810190506100d8565b50505050905090810190601f1680156101205780820380516001836020036101000a031916815260200191505b509250505060405180910390f35b34801561013a57600080fd5b506102a16004803603608081101561015157600080fd5b810190808035906020019064010000000081111561016e57600080fd5b82018360208201111561018057600080fd5b803590602001918460018302840111640100000000831117156101a257600080fd5b91908080601f016020809104026020016040519081016040528093929190818152602001838380828437600081840152601f19601f820116905080830192505050505050509192919290803590602001909291908035906020019064010000000081111561020f57600080fd5b82018360208201111561022157600080fd5b8035906020019184600183028401116401000000008311171561024357600080fd5b91908080601f016020809104026020016040519081016040528093929190818152602001838380828437600081840152601f19601f82011690508083019250505050505050919291929080351515906020019092919050505061064d565b005b3480156102af57600080fd5b506102dc600480360360208110156102c657600080fd5b8101908080359060200190929190505050610b00565b60405180898152602001806020018881526020018773ffffffffffffffffffffffffffffffffffffffff1673ffffffffffffffffffffffffffffffffffffffff1681526020018673ffffffffffffffffffffffffffffffffffffffff1673ffffffffffffffffffffffffffffffffffffffff16815260200180602001851515151581526020018415151515815260200183810383528a818151815260200191508051906020019080838360005b838110156103a4578082015181840152602081019050610389565b50505050905090810190601f1680156103d15780820380516001836020036101000a031916815260200191505b50838103825286818151815260200191508051906020019080838360005b8381101561040a5780820151818401526020810190506103ef565b50505050905090810190601f1680156104375780820380516001836020036101000a031916815260200191505b509a505050505050505050505060405180910390f35b6104796004803603602081101561046357600080fd5b8101908080359060200190929190505050610cd2565b005b34801561048757600080fd5b506104b46004803603602081101561049e57600080fd5b810190808035906020019092919050505061120f565b005b6104e2600480360360208110156104cc57600080fd5b810190808035906020019092919050505061163f565b005b3480156104f057600080fd5b506105336004803603602081101561050757600080fd5b81019080803573ffffffffffffffffffffffffffffffffffffffff1690602001909291905050506119db565b6040518082815260200191505060405180910390f35b34801561055557600080fd5b506105826004803603602081101561056c57600080fd5b8101908080359060200190929190505050611a7e565b005b34801561059057600080fd5b50610599611e04565b6040518082815260200191505060405180910390f35b60008054600181600116156101000203166002900480601f0160208091040260200160405190810160405280929190818152602001828054600181600116156101000203166002900480156106455780601f1061061a57610100808354040283529160200191610645565b820191906000526020600020905b81548152906001019060200180831161062857829003601f168201915b505050505081565b600084511115156106c6576040517f08c379a00000000000000000000000000000000000000000000000000000000081526004018080602001828103825260188152602001807f47656d20747970652063616e6e6f7420626520656d707479000000000000000081525060200191505060405180910390fd5b60008311151561073e576040517f08c379a000000000000000000000000000000000000000000000000000000000815260040180806020018281038252601c8152602001807f5072696365206d7573742062652067726561746572207468616e20300000000081525060200191505060405180910390fd5b600082511115156107b7576040517f08c379a000000000000000000000000000000000000000000000000000000000815260040180806020018281038252601d8152602001807f4d6574616461746120686173682063616e6e6f7420626520656d70747900000081525060200191505060405180910390fd5b6001600081548092919060010191905055506101006040519081016040528060015481526020018581526020018481526020013373ffffffffffffffffffffffffffffffffffffffff1681526020013373ffffffffffffffffffffffffffffffffffffffff168152602001838152602001821515815260200160001515815250600260006001548152602001908152602001600020600082015181600001556020820151816001019080519060200190610872929190611e0a565b506040820151816002015560608201518160030160006101000a81548173ffffffffffffffffffffffffffffffffffffffff021916908373ffffffffffffffffffffffffffffffffffffffff16021790555060808201518160040160006101000a81548173ffffffffffffffffffffffffffffffffffffffff021916908373ffffffffffffffffffffffffffffffffffffffff16021790555060a0820151816005019080519060200190610927929190611e0a565b5060c08201518160060160006101000a81548160ff02191690831515021790555060e08201518160060160016101000a81548160ff0219169083151502179055509050507f1e8e23a2b85fcadb58901ea0343894e662814b6ad40dd000e79090664758296e60015485853333878760405180888152602001806020018781526020018673ffffffffffffffffffffffffffffffffffffffff1673ffffffffffffffffffffffffffffffffffffffff1681526020018573ffffffffffffffffffffffffffffffffffffffff1673ffffffffffffffffffffffffffffffffffffffff1681526020018060200184151515158152602001838103835289818151815260200191508051906020019080838360005b83811015610a53578082015181840152602081019050610a38565b50505050905090810190601f168015610a805780820380516001836020036101000a031916815260200191505b50838103825285818151815260200191508051906020019080838360005b83811015610ab9578082015181840152602081019050610a9e565b50505050905090810190601f168015610ae65780820380516001836020036101000a031916815260200191505b50995050505050505050505060405180910390a150505050565b6002602052806000526040600020600091509050806000015490806001018054600181600116156101000203166002900480601f016020809104026020016040519081016040528092919081815260200182805460018160011615610100020316600290048015610bb25780601f10610b8757610100808354040283529160200191610bb2565b820191906000526020600020905b815481529060010190602001808311610b9557829003601f168201915b5050505050908060020154908060030160009054906101000a900473ffffffffffffffffffffffffffffffffffffffff16908060040160009054906101000a900473ffffffffffffffffffffffffffffffffffffffff1690806005018054600181600116156101000203166002900480601f016020809104026020016040519081016040528092919081815260200182805460018160011615610100020316600290048015610ca25780601f10610c7757610100808354040283529160200191610ca2565b820191906000526020600020905b815481529060010190602001808311610c8557829003601f168201915b5050505050908060060160009054906101000a900460ff16908060060160019054906101000a900460ff16905088565b600060026000838152602001908152602001600020905060008160000154118015610d035750600154816000015411155b1515610d77576040517f08c379a000000000000000000000000000000000000000000000000000000000815260040180806020018281038252600e8152602001807f496e76616c69642067656d20494400000000000000000000000000000000000081525060200191505060405180910390fd5b600015158160060160019054906101000a900460ff161515141515610e04576040517f08c379a00000000000000000000000000000000000000000000000000000000081526004018080602001828103825260148152602001807f47656d20616c72656164792073656c656374656400000000000000000000000081525060200191505060405180910390fd5b600115158160060160009054906101000a900460ff161515141515610eb7576040517f08c379a00000000000000000000000000000000000000000000000000000000081526004018080602001828103825260268152602001807f47656d206d75737420626520707572636861736564206265666f72652073656c81526020017f656374696f6e000000000000000000000000000000000000000000000000000081525060400191505060405180910390fd5b80600201543410151515610f33576040517f08c379a00000000000000000000000000000000000000000000000000000000081526004018080602001828103825260128152602001807f496e73756666696369656e742066756e6473000000000000000000000000000081525060200191505060405180910390fd5b8060030160009054906101000a900473ffffffffffffffffffffffffffffffffffffffff1673ffffffffffffffffffffffffffffffffffffffff166108fc349081150290604051600060405180830381858888f19350505050158015610f9d573d6000803e3d6000fd5b50338160040160006101000a81548173ffffffffffffffffffffffffffffffffffffffff021916908373ffffffffffffffffffffffffffffffffffffffff1602179055507f843fbc0ee314379b70a443e62011be0891def2628efb9ae2291e54c61253c515828260010183600201548460030160009054906101000a900473ffffffffffffffffffffffffffffffffffffffff168560040160009054906101000a900473ffffffffffffffffffffffffffffffffffffffff16866005018760060160009054906101000a900460ff1660405180888152602001806020018781526020018673ffffffffffffffffffffffffffffffffffffffff1673ffffffffffffffffffffffffffffffffffffffff1681526020018573ffffffffffffffffffffffffffffffffffffffff1673ffffffffffffffffffffffffffffffffffffffff16815260200180602001841515151581526020018381038352898181546001816001161561010002031660029004815260200191508054600181600116156101000203166002900480156111735780601f1061114857610100808354040283529160200191611173565b820191906000526020600020905b81548152906001019060200180831161115657829003601f168201915b50508381038252858181546001816001161561010002031660029004815260200191508054600181600116156101000203166002900480156111f65780601f106111cb576101008083540402835291602001916111f6565b820191906000526020600020905b8154815290600101906020018083116111d957829003601f168201915b5050995050505050505050505060405180910390a15050565b6000600260008381526020019081526020016000209050600081600001541180156112405750600154816000015411155b15156112b4576040517f08c379a000000000000000000000000000000000000000000000000000000000815260040180806020018281038252600e8152602001807f496e76616c69642067656d20494400000000000000000000000000000000000081525060200191505060405180910390fd5b600015158160060160019054906101000a900460ff161515141515611341576040517f08c379a00000000000000000000000000000000000000000000000000000000081526004018080602001828103825260148152602001807f47656d20616c72656164792073656c656374656400000000000000000000000081525060200191505060405180910390fd5b600115158160060160009054906101000a900460ff1615151415156113f4576040517f08c379a00000000000000000000000000000000000000000000000000000000081526004018080602001828103825260268152602001807f47656d206d75737420626520707572636861736564206265666f72652073656c81526020017f656374696f6e000000000000000000000000000000000000000000000000000081525060400191505060405180910390fd5b60018160060160016101000a81548160ff0219169083151502179055507fe9718da8dd3fa289a3b6436354cedf5101eb9f4a0997bf51294a1a5da32b8a9d828260010183600201548460030160009054906101000a900473ffffffffffffffffffffffffffffffffffffffff168560040160009054906101000a900473ffffffffffffffffffffffffffffffffffffffff16866005018760060160009054906101000a900460ff1660405180888152602001806020018781526020018673ffffffffffffffffffffffffffffffffffffffff1673ffffffffffffffffffffffffffffffffffffffff1681526020018573ffffffffffffffffffffffffffffffffffffffff1673ffffffffffffffffffffffffffffffffffffffff16815260200180602001841515151581526020018381038352898181546001816001161561010002031660029004815260200191508054600181600116156101000203166002900480156115a35780601f10611578576101008083540402835291602001916115a3565b820191906000526020600020905b81548152906001019060200180831161158657829003601f168201915b50508381038252858181546001816001161561010002031660029004815260200191508054600181600116156101000203166002900480156116265780601f106115fb57610100808354040283529160200191611626565b820191906000526020600020905b81548152906001019060200180831161160957829003601f168201915b5050995050505050505050505060405180910390a15050565b6000600260008381526020019081526020016000209050600081600001541180156116705750600154816000015411155b15156116e4576040517f08c379a000000000000000000000000000000000000000000000000000000000815260040180806020018281038252600e8152602001807f496e76616c69642067656d20494400000000000000000000000000000000000081525060200191505060405180910390fd5b600015158160060160009054906101000a900460ff161515141515611771576040517f08c379a00000000000000000000000000000000000000000000000000000000081526004018080602001828103825260158152602001807f47656d20616c726561647920707572636861736564000000000000000000000081525060200191505060405180910390fd5b338160040160006101000a81548173ffffffffffffffffffffffffffffffffffffffff021916908373ffffffffffffffffffffffffffffffffffffffff16021790555060018160060160006101000a81548160ff0219169083151502179055507fdc9635fcb068325e1fb8753350c6143c6d06c76628bb8580bf2b4d96173c004f828260010183600201548460030160009054906101000a900473ffffffffffffffffffffffffffffffffffffffff1633866005018760060160009054906101000a900460ff1660405180888152602001806020018781526020018673ffffffffffffffffffffffffffffffffffffffff1673ffffffffffffffffffffffffffffffffffffffff1681526020018573ffffffffffffffffffffffffffffffffffffffff1673ffffffffffffffffffffffffffffffffffffffff168152602001806020018415151515815260200183810383528981815460018160011615610100020316600290048152602001915080546001816001161561010002031660029004801561193f5780601f106119145761010080835404028352916020019161193f565b820191906000526020600020905b81548152906001019060200180831161192257829003601f168201915b50508381038252858181546001816001161561010002031660029004815260200191508054600181600116156101000203166002900480156119c25780601f10611997576101008083540402835291602001916119c2565b820191906000526020600020905b8154815290600101906020018083116119a557829003601f168201915b5050995050505050505050505060405180910390a15050565b600080600090506000600190505b60015481111515611a74578373ffffffffffffffffffffffffffffffffffffffff166002600083815260200190815260200160002060040160009054906101000a900473ffffffffffffffffffffffffffffffffffffffff1673ffffffffffffffffffffffffffffffffffffffff161415611a675781806001019250505b80806001019150506119e9565b5080915050919050565b600060026000838152602001908152602001600020905060008160000154118015611aaf5750600154816000015411155b1515611b23576040517f08c379a000000000000000000000000000000000000000000000000000000000815260040180806020018281038252600e8152602001807f496e76616c69642067656d20494400000000000000000000000000000000000081525060200191505060405180910390fd5b600115158160060160009054906101000a900460ff161515141515611bd6576040517f08c379a00000000000000000000000000000000000000000000000000000000081526004018080602001828103825260278152602001807f47656d206d75737420626520707572636861736564206265666f72652070726f81526020017f63657373696e670000000000000000000000000000000000000000000000000081525060400191505060405180910390fd5b7f84a1a4a2f88e172df45361a9606d65fa59042007605c1336a182db5eef74d492828260010183600201548460030160009054906101000a900473ffffffffffffffffffffffffffffffffffffffff168560040160009054906101000a900473ffffffffffffffffffffffffffffffffffffffff16866005018760060160009054906101000a900460ff1660405180888152602001806020018781526020018673ffffffffffffffffffffffffffffffffffffffff1673ffffffffffffffffffffffffffffffffffffffff1681526020018573ffffffffffffffffffffffffffffffffffffffff1673ffffffffffffffffffffffffffffffffffffffff1681526020018060200184151515158152602001838103835289818154600181600116156101000203166002900481526020019150805460018160011615610100020316600290048015611d685780601f10611d3d57610100808354040283529160200191611d68565b820191906000526020600020905b815481529060010190602001808311611d4b57829003601f168201915b5050838103825285818154600181600116156101000203166002900481526020019150805460018160011615610100020316600290048015611deb5780601f10611dc057610100808354040283529160200191611deb565b820191906000526020600020905b815481529060010190602001808311611dce57829003601f168201915b5050995050505050505050505060405180910390a15050565b60015481565b828054600181600116156101000203166002900490600052602060002090601f016020900481019282601f10611e4b57805160ff1916838001178555611e79565b82800160010185558215611e79579182015b82811115611e78578251825591602001919060010190611e5d565b5b509050611e869190611e8a565b5090565b611eac91905b80821115611ea8576000816000905550600101611e90565b5090565b9056fea165627a7a72305820122c9a09ab394d846f2b83afbb10a384de9801d900f535bbe7e0259965de90b50029",
  "source": "pragma solidity >=0.4.21 <0.6.0;\r\n\r\ncontract GemstoneExtraction {\r\n    string public name;\r\n    uint public minedGemCount = 0;\r\n\r\n    mapping(uint => MinedGem) public minedGems;\r\n\r\n    enum PointOfProcessing {MINED, SALEOFMINEDPRODUCT, PREPARATION, PROCESSING}\r\n\r\n    struct MinedGem {\r\n        uint id;\r\n        string gemType;\r\n        uint price;\r\n        address payable miner;\r\n        address payable owner;\r\n        string metadataHash; \r\n        bool purchased; \r\n        bool selected; \r\n    }\r\n\r\n    event GemMining(\r\n        uint id,\r\n        string gemType,\r\n        uint price,\r\n        address payable miner,\r\n        address payable owner,\r\n        string metadataHash,\r\n        bool purchased\r\n    );\r\n\r\n    event GemProcessing(\r\n        uint id,\r\n        string gemType,\r\n        uint price,\r\n        address payable miner,\r\n        address payable owner,\r\n        string metadataHash,\r\n        bool purchased\r\n    );\r\n\r\n    event GemPurchased(\r\n        uint id,\r\n        string gemType,\r\n        uint price,\r\n        address payable miner,\r\n        address payable owner,\r\n        string metadataHash,\r\n        bool purchased\r\n    );\r\n\r\n    event GemSelected(\r\n        uint id,\r\n        string gemType,\r\n        uint price,\r\n        address payable miner,\r\n        address payable owner,\r\n        string metadataHash,\r\n        bool purchased\r\n    );\r\n\r\n    event MarkNewOwner(\r\n        uint id,\r\n        string gemType,\r\n        uint price,\r\n        address payable miner,\r\n        address payable owner,\r\n        string metadataHash,\r\n        bool purchased\r\n    );\r\n\r\n    event MarkGemAsSelected(\r\n        uint id,\r\n        string gemType,\r\n        uint price,\r\n        address payable miner,\r\n        address payable owner,\r\n        string metadataHash,\r\n        bool purchased\r\n    );\r\n\r\n    event TransferGemOwnership(\r\n        uint id,\r\n        string gemType,\r\n        uint price,\r\n        address payable miner,\r\n        address payable owner,\r\n        string metadataHash,\r\n        bool purchased\r\n    );\r\n\r\n    constructor() public {\r\n        name = \"Gemstone Extraction Platform\";\r\n    }\r\n\r\n    function gemMining(\r\n        string memory _gemType,\r\n        uint _price,\r\n        string memory _metadataHash, \r\n        bool _purchased\r\n    ) public {\r\n        require(bytes(_gemType).length > 0, \"Gem type cannot be empty\");\r\n        require(_price > 0, \"Price must be greater than 0\");\r\n        require(bytes(_metadataHash).length > 0, \"Metadata hash cannot be empty\");\r\n\r\n        minedGemCount++;\r\n        minedGems[minedGemCount] = MinedGem(\r\n            minedGemCount,\r\n            _gemType,\r\n            _price,\r\n            msg.sender, \r\n            msg.sender, \r\n            _metadataHash, \r\n            _purchased,\r\n            false // kezdetben nem vlasztottk ki\r\n        );\r\n\r\n        emit GemMining(minedGemCount, _gemType, _price, msg.sender, msg.sender, _metadataHash, _purchased);\r\n    }\r\n\r\n    function purchaseGem(uint _id) public payable {\r\n        MinedGem storage _minedGem = minedGems[_id];\r\n        require(_minedGem.id > 0 && _minedGem.id <= minedGemCount, \"Invalid gem ID\");\r\n        require(_minedGem.purchased == false, \"Gem already purchased\");\r\n\r\n        _minedGem.owner = msg.sender; \r\n        _minedGem.purchased = true;\r\n\r\n        emit GemPurchased(_id, _minedGem.gemType, _minedGem.price, _minedGem.miner, msg.sender, _minedGem.metadataHash, _minedGem.purchased);\r\n    }\r\n\r\n    function processingGem(uint _id) public {\r\n        MinedGem storage _minedGem = minedGems[_id];\r\n        require(_minedGem.id > 0 && _minedGem.id <= minedGemCount, \"Invalid gem ID\");\r\n        require(_minedGem.purchased == true, \"Gem must be purchased before processing\");\r\n\r\n        emit GemProcessing(_id, _minedGem.gemType, _minedGem.price, _minedGem.miner, _minedGem.owner, _minedGem.metadataHash, _minedGem.purchased);\r\n    }\r\n\r\n    function markNewOwner(uint _id) public payable {\r\n        MinedGem storage _minedGem = minedGems[_id];\r\n\r\n        require(_minedGem.id > 0 && _minedGem.id <= minedGemCount, \"Invalid gem ID\");\r\n        require(_minedGem.selected == false, \"Gem already selected\");\r\n        require(_minedGem.purchased == true, \"Gem must be purchased before selection\");\r\n        require(msg.value >= _minedGem.price, \"Insufficient funds\");\r\n\r\n        _minedGem.miner.transfer(msg.value);\r\n\r\n        _minedGem.owner = msg.sender;\r\n\r\n        emit MarkNewOwner(\r\n            _id, \r\n            _minedGem.gemType, \r\n            _minedGem.price, \r\n            _minedGem.miner, \r\n            _minedGem.owner, \r\n            _minedGem.metadataHash, \r\n            _minedGem.purchased\r\n        );\r\n    }\r\n\r\n    function markGemAsSelected(uint _id) public {\r\n        MinedGem storage _minedGem = minedGems[_id];\r\n\r\n        require(_minedGem.id > 0 && _minedGem.id <= minedGemCount, \"Invalid gem ID\");\r\n        require(_minedGem.selected == false, \"Gem already selected\");\r\n        require(_minedGem.purchased == true, \"Gem must be purchased before selection\");\r\n\r\n        _minedGem.selected = true;\r\n\r\n        emit MarkGemAsSelected(\r\n            _id, \r\n            _minedGem.gemType, \r\n            _minedGem.price, \r\n            _minedGem.miner, \r\n            _minedGem.owner, \r\n            _minedGem.metadataHash, \r\n            _minedGem.purchased\r\n        );\r\n    }\r\n\r\n    function getGemstoneCountByOwner(address _owner) public view returns (uint) {\r\n        uint count = 0;\r\n        for (uint i = 1; i <= minedGemCount; i++) {\r\n            if (minedGems[i].owner == _owner) {\r\n                count++;\r\n            }\r\n        }\r\n        return count;\r\n    }\r\n}\r\n",
  "sourcePath": "C:/Users/berke/jewRoundx/src/contracts/GemstoneExtraction.sol",
  "compiler": {
    "name": "solc",
    "version": "0.5.0+commit.1d4f565a.Emscripten.clang"
  },
  "schemaVersion": "3.0.1",
  "updatedAt": "2024-10-21T20:14:19.632Z",
  "devdoc": {
    "methods": {}
  },
  "userdoc": {
    "methods": {}
  }
}