{
  "contractName": "GemstoneSelecting",
  "abi": [
    {
      "constant": true,
      "inputs": [],
      "name": "selectedGemCount",
      "outputs": [
        {
          "name": "",
          "type": "uint256"
        }
      ],
      "payable": false,
      "stateMutability": "view",
      "type": "function",
      "signature": "0x5f801c7a"
    },
    {
      "constant": true,
      "inputs": [
        {
          "name": "",
          "type": "uint256"
        }
      ],
      "name": "selectedGems",
      "outputs": [
        {
          "name": "id",
          "type": "uint256"
        },
        {
          "name": "minedGemId",
          "type": "uint256"
        },
        {
          "name": "height",
          "type": "uint256"
        },
        {
          "name": "width",
          "type": "uint256"
        },
        {
          "name": "thickness",
          "type": "uint256"
        },
        {
          "name": "carat",
          "type": "uint256"
        },
        {
          "name": "color",
          "type": "string"
        },
        {
          "name": "gemType",
          "type": "string"
        },
        {
          "name": "price",
          "type": "uint256"
        },
        {
          "name": "owner",
          "type": "address"
        }
      ],
      "payable": false,
      "stateMutability": "view",
      "type": "function",
      "signature": "0xcee07c4b"
    },
    {
      "anonymous": false,
      "inputs": [
        {
          "indexed": false,
          "name": "id",
          "type": "uint256"
        },
        {
          "indexed": false,
          "name": "minedGemId",
          "type": "uint256"
        },
        {
          "indexed": false,
          "name": "height",
          "type": "uint256"
        },
        {
          "indexed": false,
          "name": "width",
          "type": "uint256"
        },
        {
          "indexed": false,
          "name": "thickness",
          "type": "uint256"
        },
        {
          "indexed": false,
          "name": "carat",
          "type": "uint256"
        },
        {
          "indexed": false,
          "name": "color",
          "type": "string"
        },
        {
          "indexed": false,
          "name": "gemType",
          "type": "string"
        },
        {
          "indexed": false,
          "name": "price",
          "type": "uint256"
        },
        {
          "indexed": false,
          "name": "owner",
          "type": "address"
        }
      ],
      "name": "GemSelecting",
      "type": "event",
      "signature": "0x0c325357d5d077ccb450cf088a2bf3f6692a5844f2187cf65280316564b40365"
    },
    {
      "constant": false,
      "inputs": [
        {
          "name": "_minedGemId",
          "type": "uint256"
        },
        {
          "name": "_height",
          "type": "uint256"
        },
        {
          "name": "_width",
          "type": "uint256"
        },
        {
          "name": "_thickness",
          "type": "uint256"
        },
        {
          "name": "_carat",
          "type": "uint256"
        },
        {
          "name": "_color",
          "type": "string"
        },
        {
          "name": "_gemtype",
          "type": "string"
        },
        {
          "name": "_price",
          "type": "uint256"
        }
      ],
      "name": "gemSelecting",
      "outputs": [],
      "payable": false,
      "stateMutability": "nonpayable",
      "type": "function",
      "signature": "0x3f640880"
    }
  ],
  "bytecode": "0x60806040526000805534801561001457600080fd5b506108f3806100246000396000f3fe608060405260043610610057576000357c0100000000000000000000000000000000000000000000000000000000900463ffffffff1680633f6408801461005c5780635f801c7a146101f8578063cee07c4b14610223575b600080fd5b34801561006857600080fd5b506101f6600480360361010081101561008057600080fd5b810190808035906020019092919080359060200190929190803590602001909291908035906020019092919080359060200190929190803590602001906401000000008111156100cf57600080fd5b8201836020820111156100e157600080fd5b8035906020019184600183028401116401000000008311171561010357600080fd5b91908080601f016020809104026020016040519081016040528093929190818152602001838380828437600081840152601f19601f8201169050808301925050505050505091929192908035906020019064010000000081111561016657600080fd5b82018360208201111561017857600080fd5b8035906020019184600183028401116401000000008311171561019a57600080fd5b91908080601f016020809104026020016040519081016040528093929190818152602001838380828437600081840152601f19601f820116905080830192505050505050509192919290803590602001909291905050506103a7565b005b34801561020457600080fd5b5061020d610678565b6040518082815260200191505060405180910390f35b34801561022f57600080fd5b5061025c6004803603602081101561024657600080fd5b810190808035906020019092919050505061067e565b604051808b81526020018a815260200189815260200188815260200187815260200186815260200180602001806020018581526020018473ffffffffffffffffffffffffffffffffffffffff1673ffffffffffffffffffffffffffffffffffffffff168152602001838103835287818151815260200191508051906020019080838360005b838110156102fc5780820151818401526020810190506102e1565b50505050905090810190601f1680156103295780820380516001836020036101000a031916815260200191505b50838103825286818151815260200191508051906020019080838360005b83811015610362578082015181840152602081019050610347565b50505050905090810190601f16801561038f5780820380516001836020036101000a031916815260200191505b509c5050505050505050505050505060405180910390f35b60008081548092919060010191905055506101406040519081016040528060005481526020018981526020018881526020018781526020018681526020018581526020018481526020018381526020018281526020013373ffffffffffffffffffffffffffffffffffffffff168152506001600080548152602001908152602001600020600082015181600001556020820151816001015560408201518160020155606082015181600301556080820151816004015560a0820151816005015560c0820151816006019080519060200190610483929190610822565b5060e08201518160070190805190602001906104a0929190610822565b5061010082015181600801556101208201518160090160006101000a81548173ffffffffffffffffffffffffffffffffffffffff021916908373ffffffffffffffffffffffffffffffffffffffff1602179055509050507f0c325357d5d077ccb450cf088a2bf3f6692a5844f2187cf65280316564b40365600054898989898989898933604051808b81526020018a815260200189815260200188815260200187815260200186815260200180602001806020018581526020018473ffffffffffffffffffffffffffffffffffffffff1673ffffffffffffffffffffffffffffffffffffffff168152602001838103835287818151815260200191508051906020019080838360005b838110156105c45780820151818401526020810190506105a9565b50505050905090810190601f1680156105f15780820380516001836020036101000a031916815260200191505b50838103825286818151815260200191508051906020019080838360005b8381101561062a57808201518184015260208101905061060f565b50505050905090810190601f1680156106575780820380516001836020036101000a031916815260200191505b509c5050505050505050505050505060405180910390a15050505050505050565b60005481565b6001602052806000526040600020600091509050806000015490806001015490806002015490806003015490806004015490806005015490806006018054600181600116156101000203166002900480601f01602080910402602001604051908101604052809291908181526020018280546001816001161561010002031660029004801561074e5780601f106107235761010080835404028352916020019161074e565b820191906000526020600020905b81548152906001019060200180831161073157829003601f168201915b505050505090806007018054600181600116156101000203166002900480601f0160208091040260200160405190810160405280929190818152602001828054600181600116156101000203166002900480156107ec5780601f106107c1576101008083540402835291602001916107ec565b820191906000526020600020905b8154815290600101906020018083116107cf57829003601f168201915b5050505050908060080154908060090160009054906101000a900473ffffffffffffffffffffffffffffffffffffffff1690508a565b828054600181600116156101000203166002900490600052602060002090601f016020900481019282601f1061086357805160ff1916838001178555610891565b82800160010185558215610891579182015b82811115610890578251825591602001919060010190610875565b5b50905061089e91906108a2565b5090565b6108c491905b808211156108c05760008160009055506001016108a8565b5090565b9056fea165627a7a72305820aa9b50827f26ee092cba5a8a5522c274b0fc5a24bc0a863ee27fb783f0f5f5340029",
  "source": "pragma solidity >=0.4.21 <0.6.0;\n\ncontract GemstoneSelecting {\n    \n    uint public selectedGemCount = 0;\n    mapping (uint => SelectedGem) public selectedGems;\n\n    struct SelectedGem{\n        uint id;\n        uint minedGemId;\n        uint height;\n        uint width;\n        uint thickness; //vastagsag\n        uint carat; //==weight A karát a drágakövek tömegének mérésére szolgáló mértékegység. Jele: Kt, angolszász területen ct.\n        string color;\n        string gemType; //etc gyémánt, rubint, gránit\n        uint price;\n        address owner;\n    }\n\n     event GemSelecting(\n        uint id,\n        uint minedGemId,\n        uint height,\n        uint width,\n        uint thickness,\n        uint carat,\n        string color,\n        string gemType,\n        uint price,\n        address owner\n     );\n\n        // a minedGemId majd a js-sel kerül át. Kattintás után\n      function gemSelecting(uint _minedGemId, uint _height, uint _width, uint _thickness, uint _carat, string memory _color, string memory _gemtype, uint _price) public {\n       selectedGemCount++;\n\n       selectedGems[selectedGemCount] = SelectedGem(selectedGemCount, _minedGemId, _height, _width, _thickness, _carat, _color, _gemtype, _price, msg.sender);\n\n       emit GemSelecting(selectedGemCount, _minedGemId, _height, _width, _thickness, _carat, _color, _gemtype, _price, msg.sender);\n    }\n\n//innen úgy kellene tovább menni, hogy kiválogatva ki lesz.\n// az itt felvitt adatokkal látszik, hogy feldolgozatlan gyémánt/ rubint/etc\n//utána két külön .sol-ban kezelni a gyémántot és a többi drágakövet. (könyvjelzőből drágakőpiac, gyéméntpiac) adataival\n//a vágást azokkal a .sol-okkal menti el\n//utána a csiszolás, utána a polirozas\n//tanusitvány kiadása???\n//ékszerész veszi meg -> ékszertervezés\n//befejezés , felületkezelés\n//minőségellenőrzés \n}",
  "sourcePath": "/home/berkeanna/folder/jewRoundx/src/contracts/GemstoneSelecting.sol",
  "compiler": {
    "name": "solc",
    "version": "0.5.0+commit.1d4f565a.Emscripten.clang"
  },
  "schemaVersion": "3.0.1",
  "updatedAt": "2023-11-28T11:11:58.156Z",
  "devdoc": {
    "methods": {}
  },
  "userdoc": {
    "methods": {}
  }
}