{
  "contractName": "GemstoneExtraction",
  "abi": [
    {
      "constant": true,
      "inputs": [],
      "name": "name",
      "outputs": [
        {
          "name": "",
          "type": "string"
        }
      ],
      "payable": false,
      "stateMutability": "view",
      "type": "function",
      "signature": "0x06fdde03"
    },
    {
      "constant": true,
      "inputs": [
        {
          "name": "",
          "type": "uint256"
        }
      ],
      "name": "minedGems",
      "outputs": [
        {
          "name": "id",
          "type": "uint256"
        },
        {
          "name": "gemType",
          "type": "string"
        },
        {
          "name": "weight",
          "type": "uint256"
        },
        {
          "name": "size",
          "type": "string"
        },
        {
          "name": "price",
          "type": "uint256"
        },
        {
          "name": "miningLocation",
          "type": "string"
        },
        {
          "name": "miningYear",
          "type": "uint256"
        },
        {
          "name": "selected",
          "type": "bool"
        },
        {
          "name": "owner",
          "type": "address"
        },
        {
          "name": "fileURL",
          "type": "string"
        },
        {
          "name": "purchased",
          "type": "bool"
        }
      ],
      "payable": false,
      "stateMutability": "view",
      "type": "function",
      "signature": "0x1e166c4e"
    },
    {
      "constant": true,
      "inputs": [],
      "name": "minedGemCount",
      "outputs": [
        {
          "name": "",
          "type": "uint256"
        }
      ],
      "payable": false,
      "stateMutability": "view",
      "type": "function",
      "signature": "0xd0cfe11e"
    },
    {
      "inputs": [],
      "payable": false,
      "stateMutability": "nonpayable",
      "type": "constructor",
      "signature": "constructor"
    },
    {
      "anonymous": false,
      "inputs": [
        {
          "indexed": false,
          "name": "id",
          "type": "uint256"
        },
        {
          "indexed": false,
          "name": "gemType",
          "type": "string"
        },
        {
          "indexed": false,
          "name": "weight",
          "type": "uint256"
        },
        {
          "indexed": false,
          "name": "size",
          "type": "string"
        },
        {
          "indexed": false,
          "name": "price",
          "type": "uint256"
        },
        {
          "indexed": false,
          "name": "miningLocation",
          "type": "string"
        },
        {
          "indexed": false,
          "name": "miningYear",
          "type": "uint256"
        },
        {
          "indexed": false,
          "name": "selected",
          "type": "bool"
        },
        {
          "indexed": false,
          "name": "owner",
          "type": "address"
        },
        {
          "indexed": false,
          "name": "fileURL",
          "type": "string"
        },
        {
          "indexed": false,
          "name": "purchased",
          "type": "bool"
        }
      ],
      "name": "GemMining",
      "type": "event",
      "signature": "0x574072ba1cd772ab05486577a0350e9b55f67d10f31b6c1ae87829bd9bd2a408"
    },
    {
      "anonymous": false,
      "inputs": [
        {
          "indexed": false,
          "name": "id",
          "type": "uint256"
        },
        {
          "indexed": false,
          "name": "gemType",
          "type": "string"
        },
        {
          "indexed": false,
          "name": "weight",
          "type": "uint256"
        },
        {
          "indexed": false,
          "name": "size",
          "type": "string"
        },
        {
          "indexed": false,
          "name": "price",
          "type": "uint256"
        },
        {
          "indexed": false,
          "name": "miningLocation",
          "type": "string"
        },
        {
          "indexed": false,
          "name": "miningYear",
          "type": "uint256"
        },
        {
          "indexed": false,
          "name": "selected",
          "type": "bool"
        },
        {
          "indexed": false,
          "name": "owner",
          "type": "address"
        },
        {
          "indexed": false,
          "name": "fileURL",
          "type": "string"
        },
        {
          "indexed": false,
          "name": "purchased",
          "type": "bool"
        }
      ],
      "name": "GemProcessing",
      "type": "event",
      "signature": "0x2927137496820c26bb652de730663dc0e847d2d1bdf09c9f426b0ec7f90ad1f3"
    },
    {
      "anonymous": false,
      "inputs": [
        {
          "indexed": false,
          "name": "id",
          "type": "uint256"
        },
        {
          "indexed": false,
          "name": "gemType",
          "type": "string"
        },
        {
          "indexed": false,
          "name": "weight",
          "type": "uint256"
        },
        {
          "indexed": false,
          "name": "size",
          "type": "string"
        },
        {
          "indexed": false,
          "name": "price",
          "type": "uint256"
        },
        {
          "indexed": false,
          "name": "miningLocation",
          "type": "string"
        },
        {
          "indexed": false,
          "name": "miningYear",
          "type": "uint256"
        },
        {
          "indexed": false,
          "name": "selected",
          "type": "bool"
        },
        {
          "indexed": false,
          "name": "owner",
          "type": "address"
        },
        {
          "indexed": false,
          "name": "fileURL",
          "type": "string"
        },
        {
          "indexed": false,
          "name": "purchased",
          "type": "bool"
        }
      ],
      "name": "GemPurchased",
      "type": "event",
      "signature": "0x572747e64e76e5b97065ec0d85461ba6a3df9c0722ffcb47e4c6f0082c6e59d7"
    },
    {
      "anonymous": false,
      "inputs": [
        {
          "indexed": false,
          "name": "id",
          "type": "uint256"
        },
        {
          "indexed": false,
          "name": "gemType",
          "type": "string"
        },
        {
          "indexed": false,
          "name": "weight",
          "type": "uint256"
        },
        {
          "indexed": false,
          "name": "size",
          "type": "string"
        },
        {
          "indexed": false,
          "name": "price",
          "type": "uint256"
        },
        {
          "indexed": false,
          "name": "miningLocation",
          "type": "string"
        },
        {
          "indexed": false,
          "name": "miningYear",
          "type": "uint256"
        },
        {
          "indexed": false,
          "name": "selected",
          "type": "bool"
        },
        {
          "indexed": false,
          "name": "owner",
          "type": "address"
        },
        {
          "indexed": false,
          "name": "fileURL",
          "type": "string"
        },
        {
          "indexed": false,
          "name": "purchased",
          "type": "bool"
        }
      ],
      "name": "GemSelected",
      "type": "event",
      "signature": "0x23ada6298d21428dfd03c45be238cb967d3b5985a4a79c5c1b0b447aea2ab441"
    },
    {
      "anonymous": false,
      "inputs": [
        {
          "indexed": false,
          "name": "id",
          "type": "uint256"
        },
        {
          "indexed": false,
          "name": "gemType",
          "type": "string"
        },
        {
          "indexed": false,
          "name": "weight",
          "type": "uint256"
        },
        {
          "indexed": false,
          "name": "size",
          "type": "string"
        },
        {
          "indexed": false,
          "name": "price",
          "type": "uint256"
        },
        {
          "indexed": false,
          "name": "miningLocation",
          "type": "string"
        },
        {
          "indexed": false,
          "name": "miningYear",
          "type": "uint256"
        },
        {
          "indexed": false,
          "name": "selected",
          "type": "bool"
        },
        {
          "indexed": false,
          "name": "owner",
          "type": "address"
        },
        {
          "indexed": false,
          "name": "fileURL",
          "type": "string"
        },
        {
          "indexed": false,
          "name": "purchased",
          "type": "bool"
        }
      ],
      "name": "TransferGemOwnership",
      "type": "event",
      "signature": "0x64dece61014ffe7369ab122751c6d24f5bde9b47357071ac827371f9f5a3f954"
    },
    {
      "constant": false,
      "inputs": [
        {
          "name": "_gemType",
          "type": "string"
        },
        {
          "name": "_weight",
          "type": "uint256"
        },
        {
          "name": "_size",
          "type": "string"
        },
        {
          "name": "_price",
          "type": "uint256"
        },
        {
          "name": "_miningLocation",
          "type": "string"
        },
        {
          "name": "_miningYear",
          "type": "uint256"
        },
        {
          "name": "_fileURL",
          "type": "string"
        },
        {
          "name": "_purchased",
          "type": "bool"
        }
      ],
      "name": "gemMining",
      "outputs": [],
      "payable": false,
      "stateMutability": "nonpayable",
      "type": "function",
      "signature": "0xfd22ce78"
    },
    {
      "constant": false,
      "inputs": [
        {
          "name": "_id",
          "type": "uint256"
        }
      ],
      "name": "purchaseGem",
      "outputs": [],
      "payable": true,
      "stateMutability": "payable",
      "type": "function",
      "signature": "0x9b8efcd9"
    },
    {
      "constant": false,
      "inputs": [
        {
          "name": "_id",
          "type": "uint256"
        }
      ],
      "name": "processingGem",
      "outputs": [],
      "payable": false,
      "stateMutability": "nonpayable",
      "type": "function",
      "signature": "0xbf38b7a2"
    },
    {
      "constant": false,
      "inputs": [
        {
          "name": "_id",
          "type": "uint256"
        }
      ],
      "name": "markGemAsSelected",
      "outputs": [],
      "payable": true,
      "stateMutability": "payable",
      "type": "function",
      "signature": "0x53cdc244"
    },
    {
      "constant": true,
      "inputs": [
        {
          "name": "_owner",
          "type": "address"
        }
      ],
      "name": "getGemstoneCountByOrder",
      "outputs": [
        {
          "name": "",
          "type": "uint256"
        }
      ],
      "payable": false,
      "stateMutability": "view",
      "type": "function",
      "signature": "0x477b18b3"
    }
  ],
  "bytecode": "0x608060405260006001553480156200001657600080fd5b506040805190810160405280600181526020017f780000000000000000000000000000000000000000000000000000000000000081525060009080519060200190620000649291906200006b565b506200011a565b828054600181600116156101000203166002900490600052602060002090601f016020900481019282601f10620000ae57805160ff1916838001178555620000df565b82800160010185558215620000df579182015b82811115620000de578251825591602001919060010190620000c1565b5b509050620000ee9190620000f2565b5090565b6200011791905b8082111562000113576000816000905550600101620000f9565b5090565b90565b61264f806200012a6000396000f3fe60806040526004361061008e576000357c0100000000000000000000000000000000000000000000000000000000900463ffffffff16806306fdde03146100935780631e166c4e14610123578063477b18b31461038057806353cdc244146103e55780639b8efcd914610413578063bf38b7a214610441578063d0cfe11e1461047c578063fd22ce78146104a7575b600080fd5b34801561009f57600080fd5b506100a861075f565b6040518080602001828103825283818151815260200191508051906020019080838360005b838110156100e85780820151818401526020810190506100cd565b50505050905090810190601f1680156101155780820380516001836020036101000a031916815260200191505b509250505060405180910390f35b34801561012f57600080fd5b5061015c6004803603602081101561014657600080fd5b81019080803590602001909291905050506107fd565b604051808c8152602001806020018b8152602001806020018a815260200180602001898152602001881515151581526020018773ffffffffffffffffffffffffffffffffffffffff1673ffffffffffffffffffffffffffffffffffffffff168152602001806020018615151515815260200185810385528f818151815260200191508051906020019080838360005b838110156102065780820151818401526020810190506101eb565b50505050905090810190601f1680156102335780820380516001836020036101000a031916815260200191505b5085810384528d818151815260200191508051906020019080838360005b8381101561026c578082015181840152602081019050610251565b50505050905090810190601f1680156102995780820380516001836020036101000a031916815260200191505b5085810383528b818151815260200191508051906020019080838360005b838110156102d25780820151818401526020810190506102b7565b50505050905090810190601f1680156102ff5780820380516001836020036101000a031916815260200191505b50858103825287818151815260200191508051906020019080838360005b8381101561033857808201518184015260208101905061031d565b50505050905090810190601f1680156103655780820380516001836020036101000a031916815260200191505b509f5050505050505050505050505050505060405180910390f35b34801561038c57600080fd5b506103cf600480360360208110156103a357600080fd5b81019080803573ffffffffffffffffffffffffffffffffffffffff169060200190929190505050610af1565b6040518082815260200191505060405180910390f35b610411600480360360208110156103fb57600080fd5b8101908080359060200190929190505050610b94565b005b61043f6004803603602081101561042957600080fd5b810190808035906020019092919050505061116e565b005b34801561044d57600080fd5b5061047a6004803603602081101561046457600080fd5b810190808035906020019092919050505061192f565b005b34801561048857600080fd5b50610491611e6c565b6040518082815260200191505060405180910390f35b3480156104b357600080fd5b5061075d60048036036101008110156104cb57600080fd5b81019080803590602001906401000000008111156104e857600080fd5b8201836020820111156104fa57600080fd5b8035906020019184600183028401116401000000008311171561051c57600080fd5b91908080601f016020809104026020016040519081016040528093929190818152602001838380828437600081840152601f19601f820116905080830192505050505050509192919290803590602001909291908035906020019064010000000081111561058957600080fd5b82018360208201111561059b57600080fd5b803590602001918460018302840111640100000000831117156105bd57600080fd5b91908080601f016020809104026020016040519081016040528093929190818152602001838380828437600081840152601f19601f820116905080830192505050505050509192919290803590602001909291908035906020019064010000000081111561062a57600080fd5b82018360208201111561063c57600080fd5b8035906020019184600183028401116401000000008311171561065e57600080fd5b91908080601f016020809104026020016040519081016040528093929190818152602001838380828437600081840152601f19601f82011690508083019250505050505050919291929080359060200190929190803590602001906401000000008111156106cb57600080fd5b8201836020820111156106dd57600080fd5b803590602001918460018302840111640100000000831117156106ff57600080fd5b91908080601f016020809104026020016040519081016040528093929190818152602001838380828437600081840152601f19601f820116905080830192505050505050509192919290803515159060200190929190505050611e72565b005b60008054600181600116156101000203166002900480601f0160208091040260200160405190810160405280929190818152602001828054600181600116156101000203166002900480156107f55780601f106107ca576101008083540402835291602001916107f5565b820191906000526020600020905b8154815290600101906020018083116107d857829003601f168201915b505050505081565b6002602052806000526040600020600091509050806000015490806001018054600181600116156101000203166002900480601f0160208091040260200160405190810160405280929190818152602001828054600181600116156101000203166002900480156108af5780601f10610884576101008083540402835291602001916108af565b820191906000526020600020905b81548152906001019060200180831161089257829003601f168201915b505050505090806002015490806003018054600181600116156101000203166002900480601f0160208091040260200160405190810160405280929190818152602001828054600181600116156101000203166002900480156109535780601f1061092857610100808354040283529160200191610953565b820191906000526020600020905b81548152906001019060200180831161093657829003601f168201915b505050505090806004015490806005018054600181600116156101000203166002900480601f0160208091040260200160405190810160405280929190818152602001828054600181600116156101000203166002900480156109f75780601f106109cc576101008083540402835291602001916109f7565b820191906000526020600020905b8154815290600101906020018083116109da57829003601f168201915b5050505050908060060154908060070160009054906101000a900460ff16908060070160019054906101000a900473ffffffffffffffffffffffffffffffffffffffff1690806008018054600181600116156101000203166002900480601f016020809104026020016040519081016040528092919081815260200182805460018160011615610100020316600290048015610ad45780601f10610aa957610100808354040283529160200191610ad4565b820191906000526020600020905b815481529060010190602001808311610ab757829003601f168201915b5050505050908060090160009054906101000a900460ff1690508b565b600080600090506000600190505b60015481111515610b8a578373ffffffffffffffffffffffffffffffffffffffff166002600083815260200190815260200160002060070160019054906101000a900473ffffffffffffffffffffffffffffffffffffffff1673ffffffffffffffffffffffffffffffffffffffff161415610b7d5781806001019250505b8080600101915050610aff565b5080915050919050565b600060026000838152602001908152602001600020905060008160000154118015610bc55750600154816000015411155b1515610c39576040517f08c379a000000000000000000000000000000000000000000000000000000000815260040180806020018281038252600e8152602001807f496e76616c69642067656d20494400000000000000000000000000000000000081525060200191505060405180910390fd5b600015158160070160009054906101000a900460ff161515141515610cc6576040517f08c379a00000000000000000000000000000000000000000000000000000000081526004018080602001828103825260148152602001807f47656d20616c72656164792073656c656374656400000000000000000000000081525060200191505060405180910390fd5b600115158160090160009054906101000a900460ff161515141515610d79576040517f08c379a00000000000000000000000000000000000000000000000000000000081526004018080602001828103825260268152602001807f47656d206d75737420626520707572636861736564206265666f72652073656c81526020017f656374696f6e000000000000000000000000000000000000000000000000000081525060400191505060405180910390fd5b80600401543410151515610df5576040517f08c379a00000000000000000000000000000000000000000000000000000000081526004018080602001828103825260128152602001807f496e73756666696369656e742066756e6473000000000000000000000000000081525060200191505060405180910390fd5b8060070160019054906101000a900473ffffffffffffffffffffffffffffffffffffffff1673ffffffffffffffffffffffffffffffffffffffff166108fc349081150290604051600060405180830381858888f19350505050158015610e5f573d6000803e3d6000fd5b5060018160070160006101000a81548160ff0219169083151502179055507f23ada6298d21428dfd03c45be238cb967d3b5985a4a79c5c1b0b447aea2ab441828260010183600201548460030185600401548660050187600601546001338a6008018b60090160009054906101000a900460ff16604051808c8152602001806020018b8152602001806020018a815260200180602001898152602001881515151581526020018773ffffffffffffffffffffffffffffffffffffffff1673ffffffffffffffffffffffffffffffffffffffff168152602001806020018615151515815260200185810385528f818154600181600116156101000203166002900481526020019150805460018160011615610100020316600290048015610fc65780601f10610f9b57610100808354040283529160200191610fc6565b820191906000526020600020905b815481529060010190602001808311610fa957829003601f168201915b505085810384528d8181546001816001161561010002031660029004815260200191508054600181600116156101000203166002900480156110495780601f1061101e57610100808354040283529160200191611049565b820191906000526020600020905b81548152906001019060200180831161102c57829003601f168201915b505085810383528b8181546001816001161561010002031660029004815260200191508054600181600116156101000203166002900480156110cc5780601f106110a1576101008083540402835291602001916110cc565b820191906000526020600020905b8154815290600101906020018083116110af57829003601f168201915b505085810382528781815460018160011615610100020316600290048152602001915080546001816001161561010002031660029004801561114f5780601f106111245761010080835404028352916020019161114f565b820191906000526020600020905b81548152906001019060200180831161113257829003601f168201915b50509f5050505050505050505050505050505060405180910390a15050565b611176612509565b60026000838152602001908152602001600020610160604051908101604052908160008201548152602001600182018054600181600116156101000203166002900480601f0160208091040260200160405190810160405280929190818152602001828054600181600116156101000203166002900480156112395780601f1061120e57610100808354040283529160200191611239565b820191906000526020600020905b81548152906001019060200180831161121c57829003601f168201915b5050505050815260200160028201548152602001600382018054600181600116156101000203166002900480601f0160208091040260200160405190810160405280929190818152602001828054600181600116156101000203166002900480156112e55780601f106112ba576101008083540402835291602001916112e5565b820191906000526020600020905b8154815290600101906020018083116112c857829003601f168201915b5050505050815260200160048201548152602001600582018054600181600116156101000203166002900480601f0160208091040260200160405190810160405280929190818152602001828054600181600116156101000203166002900480156113915780601f1061136657610100808354040283529160200191611391565b820191906000526020600020905b81548152906001019060200180831161137457829003601f168201915b50505050508152602001600682015481526020016007820160009054906101000a900460ff161515151581526020016007820160019054906101000a900473ffffffffffffffffffffffffffffffffffffffff1673ffffffffffffffffffffffffffffffffffffffff1673ffffffffffffffffffffffffffffffffffffffff168152602001600882018054600181600116156101000203166002900480601f0160208091040260200160405190810160405280929190818152602001828054600181600116156101000203166002900480156114ae5780601f10611483576101008083540402835291602001916114ae565b820191906000526020600020905b81548152906001019060200180831161149157829003601f168201915b505050505081526020016009820160009054906101000a900460ff161515151581525050905060008161010001519050600082600001511180156114f85750600154826000015111155b151561150357600080fd5b8160800151341015151561151657600080fd5b60001515826101400151151514151561152e57600080fd5b3382610100019073ffffffffffffffffffffffffffffffffffffffff16908173ffffffffffffffffffffffffffffffffffffffff168152505060018261014001901515908115158152505081600260008581526020019081526020016000206000820151816000015560208201518160010190805190602001906115b392919061257e565b506040820151816002015560608201518160030190805190602001906115da92919061257e565b506080820151816004015560a082015181600501908051906020019061160192919061257e565b5060c0820151816006015560e08201518160070160006101000a81548160ff0219169083151502179055506101008201518160070160016101000a81548173ffffffffffffffffffffffffffffffffffffffff021916908373ffffffffffffffffffffffffffffffffffffffff16021790555061012082015181600801908051906020019061169192919061257e565b506101408201518160090160006101000a81548160ff0219169083151502179055509050507f572747e64e76e5b97065ec0d85461ba6a3df9c0722ffcb47e4c6f0082c6e59d760015483602001518460400151856060015186608001518760a001518860c001516000338b61012001518c6101400151604051808c8152602001806020018b8152602001806020018a815260200180602001898152602001881515151581526020018773ffffffffffffffffffffffffffffffffffffffff1673ffffffffffffffffffffffffffffffffffffffff168152602001806020018615151515815260200185810385528f818151815260200191508051906020019080838360005b838110156117b1578082015181840152602081019050611796565b50505050905090810190601f1680156117de5780820380516001836020036101000a031916815260200191505b5085810384528d818151815260200191508051906020019080838360005b838110156118175780820151818401526020810190506117fc565b50505050905090810190601f1680156118445780820380516001836020036101000a031916815260200191505b5085810383528b818151815260200191508051906020019080838360005b8381101561187d578082015181840152602081019050611862565b50505050905090810190601f1680156118aa5780820380516001836020036101000a031916815260200191505b50858103825287818151815260200191508051906020019080838360005b838110156118e35780820151818401526020810190506118c8565b50505050905090810190601f1680156119105780820380516001836020036101000a031916815260200191505b509f5050505050505050505050505050505060405180910390a1505050565b6000600260008381526020019081526020016000209050600081600001541180156119605750600154816000015411155b15156119d4576040517f08c379a000000000000000000000000000000000000000000000000000000000815260040180806020018281038252600e8152602001807f496e76616c69642067656d20494400000000000000000000000000000000000081525060200191505060405180910390fd5b600115158160090160009054906101000a900460ff161515141515611a87576040517f08c379a00000000000000000000000000000000000000000000000000000000081526004018080602001828103825260278152602001807f47656d206d75737420626520707572636861736564206265666f72652070726f81526020017f63657373696e670000000000000000000000000000000000000000000000000081525060400191505060405180910390fd5b600015158160070160009054906101000a900460ff161515141515611b3a576040517f08c379a00000000000000000000000000000000000000000000000000000000081526004018080602001828103825260248152602001807f47656d20697320616c72656164792070726f636573736564206f722073656c6581526020017f637465640000000000000000000000000000000000000000000000000000000081525060400191505060405180910390fd5b60018160070160006101000a81548160ff0219169083151502179055507f2927137496820c26bb652de730663dc0e847d2d1bdf09c9f426b0ec7f90ad1f38282600101836002015484600301856004015486600501876006015460018960070160019054906101000a900473ffffffffffffffffffffffffffffffffffffffff168a6008018b60090160009054906101000a900460ff16604051808c8152602001806020018b8152602001806020018a815260200180602001898152602001881515151581526020018773ffffffffffffffffffffffffffffffffffffffff1673ffffffffffffffffffffffffffffffffffffffff168152602001806020018615151515815260200185810385528f818154600181600116156101000203166002900481526020019150805460018160011615610100020316600290048015611cc45780601f10611c9957610100808354040283529160200191611cc4565b820191906000526020600020905b815481529060010190602001808311611ca757829003601f168201915b505085810384528d818154600181600116156101000203166002900481526020019150805460018160011615610100020316600290048015611d475780601f10611d1c57610100808354040283529160200191611d47565b820191906000526020600020905b815481529060010190602001808311611d2a57829003601f168201915b505085810383528b818154600181600116156101000203166002900481526020019150805460018160011615610100020316600290048015611dca5780601f10611d9f57610100808354040283529160200191611dca565b820191906000526020600020905b815481529060010190602001808311611dad57829003601f168201915b5050858103825287818154600181600116156101000203166002900481526020019150805460018160011615610100020316600290048015611e4d5780601f10611e2257610100808354040283529160200191611e4d565b820191906000526020600020905b815481529060010190602001808311611e3057829003601f168201915b50509f5050505050505050505050505050505060405180910390a15050565b60015481565b60008851111515611eeb576040517f08c379a00000000000000000000000000000000000000000000000000000000081526004018080602001828103825260188152602001807f47656d20747970652063616e6e6f7420626520656d707479000000000000000081525060200191505060405180910390fd5b60008651111515611f64576040517f08c379a00000000000000000000000000000000000000000000000000000000081526004018080602001828103825260148152602001807f53697a652063616e6e6f7420626520656d70747900000000000000000000000081525060200191505060405180910390fd5b600085111515611fdc576040517f08c379a000000000000000000000000000000000000000000000000000000000815260040180806020018281038252601c8152602001807f5072696365206d7573742062652067726561746572207468616e20300000000081525060200191505060405180910390fd5b60008311151561207a576040517f08c379a00000000000000000000000000000000000000000000000000000000081526004018080602001828103825260228152602001807f4d696e696e672079656172206d7573742062652067726561746572207468616e81526020017f203000000000000000000000000000000000000000000000000000000000000081525060400191505060405180910390fd5b600084511115156120f3576040517f08c379a000000000000000000000000000000000000000000000000000000000815260040180806020018281038252601f8152602001807f4d696e696e67206c6f636174696f6e2063616e6e6f7420626520656d7074790081525060200191505060405180910390fd5b6001600081548092919060010191905055506101606040519081016040528060015481526020018981526020018881526020018781526020018681526020018581526020018481526020016000151581526020013373ffffffffffffffffffffffffffffffffffffffff1681526020018381526020018215158152506002600060015481526020019081526020016000206000820151816000015560208201518160010190805190602001906121aa92919061257e565b506040820151816002015560608201518160030190805190602001906121d192919061257e565b506080820151816004015560a08201518160050190805190602001906121f892919061257e565b5060c0820151816006015560e08201518160070160006101000a81548160ff0219169083151502179055506101008201518160070160016101000a81548173ffffffffffffffffffffffffffffffffffffffff021916908373ffffffffffffffffffffffffffffffffffffffff16021790555061012082015181600801908051906020019061228892919061257e565b506101408201518160090160006101000a81548160ff0219169083151502179055509050507f574072ba1cd772ab05486577a0350e9b55f67d10f31b6c1ae87829bd9bd2a4086001548989898989896000338b8b604051808c8152602001806020018b8152602001806020018a815260200180602001898152602001881515151581526020018773ffffffffffffffffffffffffffffffffffffffff1673ffffffffffffffffffffffffffffffffffffffff168152602001806020018615151515815260200185810385528f818151815260200191508051906020019080838360005b8381101561238657808201518184015260208101905061236b565b50505050905090810190601f1680156123b35780820380516001836020036101000a031916815260200191505b5085810384528d818151815260200191508051906020019080838360005b838110156123ec5780820151818401526020810190506123d1565b50505050905090810190601f1680156124195780820380516001836020036101000a031916815260200191505b5085810383528b818151815260200191508051906020019080838360005b83811015612452578082015181840152602081019050612437565b50505050905090810190601f16801561247f5780820380516001836020036101000a031916815260200191505b50858103825287818151815260200191508051906020019080838360005b838110156124b857808201518184015260208101905061249d565b50505050905090810190601f1680156124e55780820380516001836020036101000a031916815260200191505b509f5050505050505050505050505050505060405180910390a15050505050505050565b6101606040519081016040528060008152602001606081526020016000815260200160608152602001600081526020016060815260200160008152602001600015158152602001600073ffffffffffffffffffffffffffffffffffffffff168152602001606081526020016000151581525090565b828054600181600116156101000203166002900490600052602060002090601f016020900481019282601f106125bf57805160ff19168380011785556125ed565b828001600101855582156125ed579182015b828111156125ec5782518255916020019190600101906125d1565b5b5090506125fa91906125fe565b5090565b61262091905b8082111561261c576000816000905550600101612604565b5090565b9056fea165627a7a723058205792e86b097786efc5ebf16877d0b03eac665476424e8c6533457e4faf5c46c10029",
  "source": "pragma solidity >=0.4.21 <0.6.0;\r\n\r\ncontract GemstoneExtraction {\r\n// https://www.youtube.com/watch?v=VH9Q2lf2mNo&t=1990s 1:11:54\r\n    string public name;\r\n    uint public minedGemCount = 0;\r\n\r\n    mapping( uint => MinedGem) public minedGems;\r\n\r\n    enum PointOfProcessing {MINED, SALEOFMINEDPRODUCT,  PREPARATION, PROCESSING }\r\n\r\n    struct MinedGem {\r\n        uint id;\r\n        string gemType;\r\n        uint weight;\r\n        string size; // x x y xz\r\n        uint price; \r\n        string miningLocation;\r\n        uint miningYear;\r\n       // uint miningMonth;\r\n        bool selected;\r\n        address payable owner;\r\n        string fileURL;\r\n        bool purchased;\r\n    \r\n    }\r\n\r\n    event GemMining(\r\n       uint id,\r\n        string gemType,\r\n        uint weight,\r\n        string size,\r\n        uint price, \r\n        string miningLocation,\r\n        uint miningYear,\r\n         bool selected,\r\n        address payable owner,\r\n        string fileURL,\r\n        bool purchased\r\n    );\r\n\r\n     event GemProcessing(\r\n       uint id,\r\n        string gemType,\r\n        uint weight,\r\n        string size,\r\n        uint price, \r\n        string miningLocation,\r\n        uint miningYear,\r\n         bool selected,\r\n        address payable owner,\r\n        string fileURL,\r\n        bool purchased\r\n     );\r\n\r\n       event GemPurchased(\r\n        uint id,\r\n        string gemType,\r\n        uint weight,\r\n        string size,\r\n        uint price, \r\n        string miningLocation,\r\n        uint miningYear,\r\n         bool selected,\r\n        address payable owner,\r\n        string fileURL,\r\n        bool purchased\r\n    );\r\n    \r\n     event GemSelected(\r\n        uint id,\r\n        string gemType,\r\n        uint weight,\r\n        string size,\r\n        uint price, \r\n        string miningLocation,\r\n        uint miningYear,\r\n         bool selected,\r\n        address payable owner,\r\n        string fileURL,\r\n        bool purchased\r\n    );\r\n\r\n     event TransferGemOwnership(\r\n        uint id,\r\n        string gemType,\r\n        uint weight,\r\n        string size,\r\n        uint price, \r\n        string miningLocation,\r\n        uint miningYear,\r\n         bool selected,\r\n        address payable owner,\r\n        string fileURL,\r\n        bool purchased\r\n    );\r\n    \r\n    \r\n\r\n    constructor() public  {\r\n        name = \"x\";\r\n    }\r\n  function gemMining(\r\n    string memory _gemType, \r\n    uint _weight, \r\n    string memory _size,  \r\n    uint _price, \r\n    string memory _miningLocation, \r\n    uint _miningYear, \r\n    string memory _fileURL,  \r\n    bool _purchased\r\n) public {\r\n    require(bytes(_gemType).length > 0, \"Gem type cannot be empty\");\r\n    require(bytes(_size).length > 0, \"Size cannot be empty\");\r\n    require(_price > 0, \"Price must be greater than 0\");\r\n    require(_miningYear > 0, \"Mining year must be greater than 0\");\r\n    require(bytes(_miningLocation).length > 0, \"Mining location cannot be empty\");\r\n\r\n    minedGemCount++;\r\n    minedGems[minedGemCount] = MinedGem(minedGemCount, _gemType, _weight, _size, _price, _miningLocation, _miningYear, false, msg.sender, _fileURL, _purchased);\r\n\r\n    emit GemMining(minedGemCount, _gemType, _weight, _size, _price, _miningLocation, _miningYear, false, msg.sender, _fileURL, _purchased);\r\n}\r\n\r\n\r\n    function purchaseGem(uint _id) public payable{\r\n        MinedGem memory _minedGem = minedGems[_id];\r\n        address payable _miner = _minedGem.owner;\r\n        require(_minedGem.id > 0 && _minedGem.id <= minedGemCount);\r\n        require(msg.value >= _minedGem.price);\r\n        require(_minedGem.purchased == false);\r\n       // require(_miner != msg.sender);\r\n        _minedGem.owner = msg.sender;\r\n        _minedGem.purchased = true;\r\n        minedGems[_id] = _minedGem;\r\n       // address(_miner).transfer(msg.value);\r\n      emit GemPurchased(minedGemCount, _minedGem.gemType, _minedGem.weight,  _minedGem.size, _minedGem.price, _minedGem.miningLocation,  _minedGem.miningYear,  false, msg.sender, _minedGem.fileURL,  _minedGem.purchased);\r\n    }\r\n\r\n    function processingGem(uint _id) public {\r\n    MinedGem storage _minedGem = minedGems[_id];\r\n    require(_minedGem.id > 0 && _minedGem.id <= minedGemCount, \"Invalid gem ID\");\r\n    require(_minedGem.purchased == true, \"Gem must be purchased before processing\");\r\n    require(_minedGem.selected == false, \"Gem is already processed or selected\");\r\n\r\n    _minedGem.selected = true; // Esetlegesen msik llapotot kellene itt bevezetni, ha a 'selected' nem felel meg.\r\n\r\n    emit GemProcessing(_id, _minedGem.gemType, _minedGem.weight, _minedGem.size, _minedGem.price, _minedGem.miningLocation, _minedGem.miningYear, true, _minedGem.owner, _minedGem.fileURL, _minedGem.purchased);\r\n}\r\n\r\n    function markGemAsSelected(uint _id) public payable {\r\n    MinedGem storage _minedGem = minedGems[_id];\r\n    require(_minedGem.id > 0 && _minedGem.id <= minedGemCount, \"Invalid gem ID\");\r\n    require(_minedGem.selected == false, \"Gem already selected\");\r\n    require(_minedGem.purchased == true, \"Gem must be purchased before selection\");\r\n    require(msg.value >= _minedGem.price, \"Insufficient funds\");\r\n\r\n    //address payable _seller = _minedGem.owner;\r\n    _minedGem.owner.transfer(msg.value);\r\n\r\n    _minedGem.selected = true;\r\n\r\n    emit GemSelected(_id, _minedGem.gemType, _minedGem.weight, _minedGem.size, _minedGem.price, _minedGem.miningLocation, _minedGem.miningYear, true, msg.sender, _minedGem.fileURL, _minedGem.purchased);\r\n}\r\n\r\n    function getGemstoneCountByOrder(address _owner) public view returns (uint) {\r\n        uint count = 0;\r\n        for(uint i=1; i <= minedGemCount; i++){\r\n            if(minedGems[i].owner == _owner){\r\n                count++;\r\n            }\r\n        }\r\n        return count;\r\n  }\r\n\r\n\r\n}\r\n",
  "sourcePath": "C:/Users/berke/GitHub/jewRoundx/src/contracts/GemstoneExtraction.sol",
  "compiler": {
    "name": "solc",
    "version": "0.5.0+commit.1d4f565a.Emscripten.clang"
  },
  "schemaVersion": "3.0.1",
  "updatedAt": "2024-09-02T11:43:32.734Z",
  "devdoc": {
    "methods": {}
  },
  "userdoc": {
    "methods": {}
  }
}