{
  "contractName": "GemstoneSelecting",
  "abi": [
    {
      "constant": true,
      "inputs": [],
      "name": "selectedGemCount",
      "outputs": [
        {
          "name": "",
          "type": "uint256"
        }
      ],
      "payable": false,
      "stateMutability": "view",
      "type": "function",
      "signature": "0x5f801c7a"
    },
    {
      "constant": true,
      "inputs": [
        {
          "name": "",
          "type": "uint256"
        }
      ],
      "name": "selectedGems",
      "outputs": [
        {
          "name": "id",
          "type": "uint256"
        },
        {
          "name": "minedGemId",
          "type": "uint256"
        },
        {
          "name": "size",
          "type": "string"
        },
        {
          "name": "carat",
          "type": "uint256"
        },
        {
          "name": "color",
          "type": "string"
        },
        {
          "name": "gemType",
          "type": "string"
        },
        {
          "name": "forSale",
          "type": "bool"
        },
        {
          "name": "fileURL",
          "type": "string"
        },
        {
          "name": "price",
          "type": "uint256"
        },
        {
          "name": "used",
          "type": "bool"
        },
        {
          "name": "owner",
          "type": "address"
        }
      ],
      "payable": false,
      "stateMutability": "view",
      "type": "function",
      "signature": "0xcee07c4b"
    },
    {
      "constant": true,
      "inputs": [
        {
          "name": "",
          "type": "uint256"
        }
      ],
      "name": "selectedMinedGems",
      "outputs": [
        {
          "name": "",
          "type": "bool"
        }
      ],
      "payable": false,
      "stateMutability": "view",
      "type": "function",
      "signature": "0xe8e9d045"
    },
    {
      "inputs": [
        {
          "name": "_gemstoneExtractionAddress",
          "type": "address"
        }
      ],
      "payable": false,
      "stateMutability": "nonpayable",
      "type": "constructor",
      "signature": "constructor"
    },
    {
      "anonymous": false,
      "inputs": [
        {
          "indexed": false,
          "name": "id",
          "type": "uint256"
        },
        {
          "indexed": false,
          "name": "minedGemId",
          "type": "uint256"
        },
        {
          "indexed": false,
          "name": "size",
          "type": "string"
        },
        {
          "indexed": false,
          "name": "carat",
          "type": "uint256"
        },
        {
          "indexed": false,
          "name": "color",
          "type": "string"
        },
        {
          "indexed": false,
          "name": "gemType",
          "type": "string"
        },
        {
          "indexed": false,
          "name": "forSale",
          "type": "bool"
        },
        {
          "indexed": false,
          "name": "fileURL",
          "type": "string"
        },
        {
          "indexed": false,
          "name": "price",
          "type": "uint256"
        },
        {
          "indexed": false,
          "name": "used",
          "type": "bool"
        },
        {
          "indexed": false,
          "name": "owner",
          "type": "address"
        }
      ],
      "name": "GemSelecting",
      "type": "event",
      "signature": "0xa44ca712d78e654b4e34e8f0c3d1cb6fe1698be98047fe3b0526f991db9b3805"
    },
    {
      "constant": false,
      "inputs": [
        {
          "name": "_minedGemId",
          "type": "uint256"
        },
        {
          "name": "_size",
          "type": "string"
        },
        {
          "name": "_carat",
          "type": "uint256"
        },
        {
          "name": "_color",
          "type": "string"
        },
        {
          "name": "_gemtype",
          "type": "string"
        },
        {
          "name": "_forSale",
          "type": "bool"
        },
        {
          "name": "_fileURL",
          "type": "string"
        },
        {
          "name": "_price",
          "type": "uint256"
        }
      ],
      "name": "gemSelecting",
      "outputs": [],
      "payable": false,
      "stateMutability": "nonpayable",
      "type": "function",
      "signature": "0x4b104b9e"
    },
    {
      "constant": false,
      "inputs": [
        {
          "name": "_id",
          "type": "uint256"
        }
      ],
      "name": "polishGem",
      "outputs": [],
      "payable": true,
      "stateMutability": "payable",
      "type": "function",
      "signature": "0x6056fe7e"
    },
    {
      "constant": false,
      "inputs": [
        {
          "name": "_id",
          "type": "uint256"
        }
      ],
      "name": "markGemAsUsed",
      "outputs": [],
      "payable": false,
      "stateMutability": "nonpayable",
      "type": "function",
      "signature": "0xe85f2238"
    },
    {
      "constant": true,
      "inputs": [
        {
          "name": "_owner",
          "type": "address"
        }
      ],
      "name": "getSelectedGemsCountByOwner",
      "outputs": [
        {
          "name": "",
          "type": "uint256"
        }
      ],
      "payable": false,
      "stateMutability": "view",
      "type": "function",
      "signature": "0x608c1fb4"
    },
    {
      "constant": false,
      "inputs": [
        {
          "name": "_id",
          "type": "uint256"
        }
      ],
      "name": "transferGemOwnership",
      "outputs": [],
      "payable": false,
      "stateMutability": "nonpayable",
      "type": "function",
      "signature": "0xb06e6f58"
    }
  ],
  "bytecode": "0x60806040526000805534801561001457600080fd5b50604051602080611ce88339810180604052602081101561003457600080fd5b810190808051906020019092919050505080600260006101000a81548173ffffffffffffffffffffffffffffffffffffffff021916908373ffffffffffffffffffffffffffffffffffffffff16021790555050611c52806100966000396000f3fe60806040526004361061008e576000357c0100000000000000000000000000000000000000000000000000000000900463ffffffff1680634b104b9e146100935780635f801c7a1461034b5780636056fe7e14610376578063608c1fb4146103a4578063b06e6f5814610409578063cee07c4b14610444578063e85f2238146106a1578063e8e9d045146106dc575b600080fd5b34801561009f57600080fd5b5061034960048036036101008110156100b757600080fd5b8101908080359060200190929190803590602001906401000000008111156100de57600080fd5b8201836020820111156100f057600080fd5b8035906020019184600183028401116401000000008311171561011257600080fd5b91908080601f016020809104026020016040519081016040528093929190818152602001838380828437600081840152601f19601f820116905080830192505050505050509192919290803590602001909291908035906020019064010000000081111561017f57600080fd5b82018360208201111561019157600080fd5b803590602001918460018302840111640100000000831117156101b357600080fd5b91908080601f016020809104026020016040519081016040528093929190818152602001838380828437600081840152601f19601f8201169050808301925050505050505091929192908035906020019064010000000081111561021657600080fd5b82018360208201111561022857600080fd5b8035906020019184600183028401116401000000008311171561024a57600080fd5b91908080601f016020809104026020016040519081016040528093929190818152602001838380828437600081840152601f19601f820116905080830192505050505050509192919290803515159060200190929190803590602001906401000000008111156102b957600080fd5b8201836020820111156102cb57600080fd5b803590602001918460018302840111640100000000831117156102ed57600080fd5b91908080601f016020809104026020016040519081016040528093929190818152602001838380828437600081840152601f19601f8201169050808301925050505050505091929192908035906020019092919050505061072f565b005b34801561035757600080fd5b50610360610b40565b6040518082815260200191505060405180910390f35b6103a26004803603602081101561038c57600080fd5b8101908080359060200190929190505050610b46565b005b3480156103b057600080fd5b506103f3600480360360208110156103c757600080fd5b81019080803573ffffffffffffffffffffffffffffffffffffffff169060200190929190505050610e94565b6040518082815260200191505060405180910390f35b34801561041557600080fd5b506104426004803603602081101561042c57600080fd5b8101908080359060200190929190505050610f37565b005b34801561045057600080fd5b5061047d6004803603602081101561046757600080fd5b810190808035906020019092919050505061142d565b604051808c81526020018b8152602001806020018a815260200180602001806020018915151515815260200180602001888152602001871515151581526020018673ffffffffffffffffffffffffffffffffffffffff1673ffffffffffffffffffffffffffffffffffffffff16815260200185810385528e818151815260200191508051906020019080838360005b8381101561052757808201518184015260208101905061050c565b50505050905090810190601f1680156105545780820380516001836020036101000a031916815260200191505b5085810384528c818151815260200191508051906020019080838360005b8381101561058d578082015181840152602081019050610572565b50505050905090810190601f1680156105ba5780820380516001836020036101000a031916815260200191505b5085810383528b818151815260200191508051906020019080838360005b838110156105f35780820151818401526020810190506105d8565b50505050905090810190601f1680156106205780820380516001836020036101000a031916815260200191505b50858103825289818151815260200191508051906020019080838360005b8381101561065957808201518184015260208101905061063e565b50505050905090810190601f1680156106865780820380516001836020036101000a031916815260200191505b509f5050505050505050505050505050505060405180910390f35b3480156106ad57600080fd5b506106da600480360360208110156106c457600080fd5b8101908080359060200190929190505050611721565b005b3480156106e857600080fd5b50610715600480360360208110156106ff57600080fd5b8101908080359060200190929190505050611b61565b604051808215151515815260200191505060405180910390f35b6000808154809291906001019190505550610160604051908101604052808981526020018981526020018881526020018781526020018681526020018581526020016000151581526020018381526020018281526020016000151581526020013373ffffffffffffffffffffffffffffffffffffffff16815250600160008a8152602001908152602001600020600082015181600001556020820151816001015560408201518160020190805190602001906107ec929190611b81565b50606082015181600301556080820151816004019080519060200190610813929190611b81565b5060a0820151816005019080519060200190610830929190611b81565b5060c08201518160060160006101000a81548160ff02191690831515021790555060e082015181600701908051906020019061086d929190611b81565b5061010082015181600801556101208201518160090160006101000a81548160ff0219169083151502179055506101408201518160090160016101000a81548173ffffffffffffffffffffffffffffffffffffffff021916908373ffffffffffffffffffffffffffffffffffffffff1602179055509050507fa44ca712d78e654b4e34e8f0c3d1cb6fe1698be98047fe3b0526f991db9b380588898989898960008989600033604051808c81526020018b8152602001806020018a815260200180602001806020018915151515815260200180602001888152602001871515151581526020018673ffffffffffffffffffffffffffffffffffffffff1673ffffffffffffffffffffffffffffffffffffffff16815260200185810385528e818151815260200191508051906020019080838360005b838110156109bd5780820151818401526020810190506109a2565b50505050905090810190601f1680156109ea5780820380516001836020036101000a031916815260200191505b5085810384528c818151815260200191508051906020019080838360005b83811015610a23578082015181840152602081019050610a08565b50505050905090810190601f168015610a505780820380516001836020036101000a031916815260200191505b5085810383528b818151815260200191508051906020019080838360005b83811015610a89578082015181840152602081019050610a6e565b50505050905090810190601f168015610ab65780820380516001836020036101000a031916815260200191505b50858103825289818151815260200191508051906020019080838360005b83811015610aef578082015181840152602081019050610ad4565b50505050905090810190601f168015610b1c5780820380516001836020036101000a031916815260200191505b509f5050505050505050505050505050505060405180910390a15050505050505050565b60005481565b60006001600083815260200190815260200160002090508060060160009054906101000a900460ff16158160060160006101000a81548160ff0219169083151502179055507fa44ca712d78e654b4e34e8f0c3d1cb6fe1698be98047fe3b0526f991db9b3805816000015482600101548360020184600301548560040186600501600188600701896008015460008b60090160019054906101000a900473ffffffffffffffffffffffffffffffffffffffff16604051808c81526020018b8152602001806020018a815260200180602001806020018915151515815260200180602001888152602001871515151581526020018673ffffffffffffffffffffffffffffffffffffffff1673ffffffffffffffffffffffffffffffffffffffff16815260200185810385528e818154600181600116156101000203166002900481526020019150805460018160011615610100020316600290048015610cec5780601f10610cc157610100808354040283529160200191610cec565b820191906000526020600020905b815481529060010190602001808311610ccf57829003601f168201915b505085810384528c818154600181600116156101000203166002900481526020019150805460018160011615610100020316600290048015610d6f5780601f10610d4457610100808354040283529160200191610d6f565b820191906000526020600020905b815481529060010190602001808311610d5257829003601f168201915b505085810383528b818154600181600116156101000203166002900481526020019150805460018160011615610100020316600290048015610df25780601f10610dc757610100808354040283529160200191610df2565b820191906000526020600020905b815481529060010190602001808311610dd557829003601f168201915b5050858103825289818154600181600116156101000203166002900481526020019150805460018160011615610100020316600290048015610e755780601f10610e4a57610100808354040283529160200191610e75565b820191906000526020600020905b815481529060010190602001808311610e5857829003601f168201915b50509f5050505050505050505050505050505060405180910390a15050565b600080600090506000600190505b60005481111515610f2d578373ffffffffffffffffffffffffffffffffffffffff166001600083815260200190815260200160002060090160019054906101000a900473ffffffffffffffffffffffffffffffffffffffff1673ffffffffffffffffffffffffffffffffffffffff161415610f205781806001019250505b8080600101915050610ea2565b5080915050919050565b600060016000838152602001908152602001600020905060008160000154118015610f685750600054816000015411155b1515610fdc576040517f08c379a000000000000000000000000000000000000000000000000000000000815260040180806020018281038252600e8152602001807f496e76616c69642067656d20494400000000000000000000000000000000000081525060200191505060405180910390fd5b3373ffffffffffffffffffffffffffffffffffffffff168160090160019054906101000a900473ffffffffffffffffffffffffffffffffffffffff1673ffffffffffffffffffffffffffffffffffffffff16141515156110a4576040517f08c379a00000000000000000000000000000000000000000000000000000000081526004018080602001828103825260188152602001807f596f7520616c7265616479206f776e20746869732067656d000000000000000081525060200191505060405180910390fd5b338160090160016101000a81548173ffffffffffffffffffffffffffffffffffffffff021916908373ffffffffffffffffffffffffffffffffffffffff16021790555060008160060160006101000a81548160ff0219169083151502179055507fa44ca712d78e654b4e34e8f0c3d1cb6fe1698be98047fe3b0526f991db9b38058160000154826001015483600201846003015485600401866005018760060160009054906101000a900460ff168860070189600801548a60090160009054906101000a900460ff168b60090160019054906101000a900473ffffffffffffffffffffffffffffffffffffffff16604051808c81526020018b8152602001806020018a815260200180602001806020018915151515815260200180602001888152602001871515151581526020018673ffffffffffffffffffffffffffffffffffffffff1673ffffffffffffffffffffffffffffffffffffffff16815260200185810385528e8181546001816001161561010002031660029004815260200191508054600181600116156101000203166002900480156112855780601f1061125a57610100808354040283529160200191611285565b820191906000526020600020905b81548152906001019060200180831161126857829003601f168201915b505085810384528c8181546001816001161561010002031660029004815260200191508054600181600116156101000203166002900480156113085780601f106112dd57610100808354040283529160200191611308565b820191906000526020600020905b8154815290600101906020018083116112eb57829003601f168201915b505085810383528b81815460018160011615610100020316600290048152602001915080546001816001161561010002031660029004801561138b5780601f106113605761010080835404028352916020019161138b565b820191906000526020600020905b81548152906001019060200180831161136e57829003601f168201915b505085810382528981815460018160011615610100020316600290048152602001915080546001816001161561010002031660029004801561140e5780601f106113e35761010080835404028352916020019161140e565b820191906000526020600020905b8154815290600101906020018083116113f157829003601f168201915b50509f5050505050505050505050505050505060405180910390a15050565b6001602052806000526040600020600091509050806000015490806001015490806002018054600181600116156101000203166002900480601f0160208091040260200160405190810160405280929190818152602001828054600181600116156101000203166002900480156114e55780601f106114ba576101008083540402835291602001916114e5565b820191906000526020600020905b8154815290600101906020018083116114c857829003601f168201915b505050505090806003015490806004018054600181600116156101000203166002900480601f0160208091040260200160405190810160405280929190818152602001828054600181600116156101000203166002900480156115895780601f1061155e57610100808354040283529160200191611589565b820191906000526020600020905b81548152906001019060200180831161156c57829003601f168201915b505050505090806005018054600181600116156101000203166002900480601f0160208091040260200160405190810160405280929190818152602001828054600181600116156101000203166002900480156116275780601f106115fc57610100808354040283529160200191611627565b820191906000526020600020905b81548152906001019060200180831161160a57829003601f168201915b5050505050908060060160009054906101000a900460ff1690806007018054600181600116156101000203166002900480601f0160208091040260200160405190810160405280929190818152602001828054600181600116156101000203166002900480156116d85780601f106116ad576101008083540402835291602001916116d8565b820191906000526020600020905b8154815290600101906020018083116116bb57829003601f168201915b5050505050908060080154908060090160009054906101000a900460ff16908060090160019054906101000a900473ffffffffffffffffffffffffffffffffffffffff1690508b565b6000600160008381526020019081526020016000209050600081600001541180156117525750600054816000015411155b15156117c6576040517f08c379a000000000000000000000000000000000000000000000000000000000815260040180806020018281038252600e8152602001807f496e76616c69642067656d20494400000000000000000000000000000000000081525060200191505060405180910390fd5b600015158160090160009054906101000a900460ff161515141515611853576040517f08c379a00000000000000000000000000000000000000000000000000000000081526004018080602001828103825260108152602001807f47656d20616c726561647920757365640000000000000000000000000000000081525060200191505060405180910390fd5b60018160090160006101000a81548160ff0219169083151502179055507fa44ca712d78e654b4e34e8f0c3d1cb6fe1698be98047fe3b0526f991db9b3805828260010154836002018460030154856004018660050160018860070189600801548a60090160009054906101000a900460ff1633604051808c81526020018b8152602001806020018a815260200180602001806020018915151515815260200180602001888152602001871515151581526020018673ffffffffffffffffffffffffffffffffffffffff1673ffffffffffffffffffffffffffffffffffffffff16815260200185810385528e8181546001816001161561010002031660029004815260200191508054600181600116156101000203166002900480156119b95780601f1061198e576101008083540402835291602001916119b9565b820191906000526020600020905b81548152906001019060200180831161199c57829003601f168201915b505085810384528c818154600181600116156101000203166002900481526020019150805460018160011615610100020316600290048015611a3c5780601f10611a1157610100808354040283529160200191611a3c565b820191906000526020600020905b815481529060010190602001808311611a1f57829003601f168201915b505085810383528b818154600181600116156101000203166002900481526020019150805460018160011615610100020316600290048015611abf5780601f10611a9457610100808354040283529160200191611abf565b820191906000526020600020905b815481529060010190602001808311611aa257829003601f168201915b5050858103825289818154600181600116156101000203166002900481526020019150805460018160011615610100020316600290048015611b425780601f10611b1757610100808354040283529160200191611b42565b820191906000526020600020905b815481529060010190602001808311611b2557829003601f168201915b50509f5050505050505050505050505050505060405180910390a15050565b60036020528060005260406000206000915054906101000a900460ff1681565b828054600181600116156101000203166002900490600052602060002090601f016020900481019282601f10611bc257805160ff1916838001178555611bf0565b82800160010185558215611bf0579182015b82811115611bef578251825591602001919060010190611bd4565b5b509050611bfd9190611c01565b5090565b611c2391905b80821115611c1f576000816000905550600101611c07565b5090565b9056fea165627a7a7230582054bff728ce751af2640c8b1a05a213d444fb82133d3bda18eefe7cf4ef675f750029",
  "source": "pragma solidity >=0.4.21 <0.6.0;\nimport \"./GemstoneExtraction.sol\";\n\ninterface IGemstoneExtraction {\n    function minedGems(uint) external view returns (uint id, string memory gemType, uint weight, uint height, uint width, uint price, string memory miningLocation, uint miningYear, bool selected, string memory extractionMethod, address payable owner, bool purchased);\n}\n\ncontract GemstoneSelecting {\n    uint public selectedGemCount = 0;\n    mapping (uint => SelectedGem) public selectedGems;\n    IGemstoneExtraction gemstoneExtraction;\n    mapping(uint => bool) public selectedMinedGems;\n\n    struct SelectedGem {\n        uint id;\n        uint minedGemId;\n        string size;\n        uint carat;\n        string color;\n        string gemType;\n        bool forSale;\n        string fileURL;\n        uint price;\n        bool used;\n        address owner;\n    }\n\n    event GemSelecting(\n        uint id,\n        uint minedGemId,\n        string size,\n        uint carat,\n        string color,\n        string gemType,\n        bool forSale,\n        string fileURL,\n        uint price,\n        bool used,\n        address owner\n    );\n\n    constructor(address _gemstoneExtractionAddress) public {\n        gemstoneExtraction = IGemstoneExtraction(_gemstoneExtractionAddress);\n    }\n\n    function gemSelecting(\n        uint _minedGemId,\n        string memory _size,\n        uint _carat,\n        string memory _color,\n        string memory _gemtype,\n        bool _forSale,\n        string memory _fileURL,\n        uint _price\n    ) public {\n        selectedGemCount++;\n        selectedGems[_minedGemId] = SelectedGem(\n            _minedGemId,\n            _minedGemId,\n            _size,\n            _carat,\n            _color,\n            _gemtype,\n            false,\n            _fileURL,\n            _price,\n            false,\n            msg.sender\n        );\n\n        emit GemSelecting(\n            _minedGemId,\n            _minedGemId,\n            _size,\n            _carat,\n            _color,\n            _gemtype,\n            false,\n            _fileURL,\n            _price,\n            false,\n            msg.sender\n        );\n    }\n\n    function polishGem(uint _id) public payable {\n        SelectedGem storage _selectedGem = selectedGems[_id];\n       // require(_selectedGem.owner == msg.sender, \"Caller is not the owner\");\n        _selectedGem.forSale = !(_selectedGem.forSale);\n\n        emit GemSelecting(\n            _selectedGem.id, \n            _selectedGem.minedGemId, \n            _selectedGem.size,\n            _selectedGem.carat, \n            _selectedGem.color, \n            _selectedGem.gemType, \n            true, \n            _selectedGem.fileURL,\n            _selectedGem.price, \n            false,\n            _selectedGem.owner\n        );\n    }\n\n    function markGemAsUsed(uint _id) public {\n        SelectedGem storage _selectedGem = selectedGems[_id];\n        require(_selectedGem.id > 0 && _selectedGem.id <= selectedGemCount, \"Invalid gem ID\");\n        require(_selectedGem.used == false, \"Gem already used\");\n        _selectedGem.used = true;\n\n        emit GemSelecting(_id, _selectedGem.minedGemId, _selectedGem.size, _selectedGem.carat,  _selectedGem.color, _selectedGem.gemType, true,_selectedGem.fileURL, _selectedGem.price, _selectedGem.used, msg.sender);\n    }\n    \n    function getSelectedGemsCountByOwner(address _owner) public view returns (uint) {\n        uint count = 0;\n        for (uint i = 1; i <= selectedGemCount; i++) {\n            if (selectedGems[i].owner == _owner) {\n                count++;\n            }\n        }\n        return count;\n    }\n\n   function transferGemOwnership(uint _id) public {\n    SelectedGem storage _selectedGem = selectedGems[_id];\n    require(_selectedGem.id > 0 && _selectedGem.id <= selectedGemCount, \"Invalid gem ID\");\n    require(_selectedGem.owner != msg.sender, \"You already own this gem\");\n\n    _selectedGem.owner = msg.sender;\n    _selectedGem.forSale = false;\n\n    emit GemSelecting(\n        _selectedGem.id,\n        _selectedGem.minedGemId,\n        _selectedGem.size,\n        _selectedGem.carat,\n        _selectedGem.color,\n        _selectedGem.gemType,\n        _selectedGem.forSale,\n        _selectedGem.fileURL,\n        _selectedGem.price,\n        _selectedGem.used,\n        _selectedGem.owner\n    );\n}\n\n}\n",
  "sourcePath": "/home/berkeanna/folder/jewRoundx/src/contracts/GemstoneSelecting.sol",
  "compiler": {
    "name": "solc",
    "version": "0.5.0+commit.1d4f565a.Emscripten.clang"
  },
  "schemaVersion": "3.0.1",
  "updatedAt": "2024-07-15T13:28:32.574Z",
  "devdoc": {
    "methods": {}
  },
  "userdoc": {
    "methods": {}
  }
}