{
  "contractName": "GemstoneSelecting",
  "abi": [
    {
      "constant": true,
      "inputs": [],
      "name": "selectedGemCount",
      "outputs": [
        {
          "name": "",
          "type": "uint256"
        }
      ],
      "payable": false,
      "stateMutability": "view",
      "type": "function",
      "signature": "0x5f801c7a"
    },
    {
      "constant": true,
      "inputs": [
        {
          "name": "",
          "type": "uint256"
        }
      ],
      "name": "selectedMinedGems",
      "outputs": [
        {
          "name": "",
          "type": "bool"
        }
      ],
      "payable": false,
      "stateMutability": "view",
      "type": "function",
      "signature": "0xe8e9d045"
    },
    {
      "inputs": [
        {
          "name": "_gemstoneExtractionAddress",
          "type": "address"
        }
      ],
      "payable": false,
      "stateMutability": "nonpayable",
      "type": "constructor",
      "signature": "constructor"
    },
    {
      "anonymous": false,
      "inputs": [
        {
          "indexed": false,
          "name": "id",
          "type": "uint256"
        },
        {
          "indexed": false,
          "name": "minedGemId",
          "type": "uint256"
        },
        {
          "indexed": false,
          "name": "metadataHash",
          "type": "string"
        },
        {
          "indexed": false,
          "name": "forSale",
          "type": "bool"
        },
        {
          "indexed": false,
          "name": "price",
          "type": "uint256"
        },
        {
          "indexed": false,
          "name": "used",
          "type": "bool"
        },
        {
          "indexed": false,
          "name": "replaced",
          "type": "bool"
        },
        {
          "indexed": false,
          "name": "owner",
          "type": "address"
        },
        {
          "indexed": false,
          "name": "gemCutter",
          "type": "address"
        },
        {
          "indexed": false,
          "name": "fileURL",
          "type": "string"
        }
      ],
      "name": "GemSelecting",
      "type": "event",
      "signature": "0x36a851a4a5f3885b9a41c1392a5490d9674cc449f4a0a2e18f9cf8360c518159"
    },
    {
      "anonymous": false,
      "inputs": [
        {
          "indexed": false,
          "name": "id",
          "type": "uint256"
        },
        {
          "indexed": false,
          "name": "owner",
          "type": "address"
        },
        {
          "indexed": false,
          "name": "gemCutter",
          "type": "address"
        }
      ],
      "name": "GemSale",
      "type": "event",
      "signature": "0xc1ed5882d0a7df2b1c74406d920fa68606529352a94c8b5c6565426e9117d063"
    },
    {
      "anonymous": false,
      "inputs": [
        {
          "indexed": false,
          "name": "id",
          "type": "uint256"
        },
        {
          "indexed": false,
          "name": "owner",
          "type": "address"
        },
        {
          "indexed": false,
          "name": "gemCutter",
          "type": "address"
        }
      ],
      "name": "MarkGemAsUsed",
      "type": "event",
      "signature": "0x5713def16fc0f29cecaca692e41bab2f9319d8263aec6af05e6847c7d06c91a4"
    },
    {
      "anonymous": false,
      "inputs": [
        {
          "indexed": false,
          "name": "id",
          "type": "uint256"
        },
        {
          "indexed": false,
          "name": "owner",
          "type": "address"
        },
        {
          "indexed": false,
          "name": "gemCutter",
          "type": "address"
        }
      ],
      "name": "MarkGemAsReplaced",
      "type": "event",
      "signature": "0xbcc1d56483ed920bf7a26911c6f33623b43026231496114d05b84208ab3c9329"
    },
    {
      "anonymous": false,
      "inputs": [
        {
          "indexed": false,
          "name": "id",
          "type": "uint256"
        },
        {
          "indexed": false,
          "name": "owner",
          "type": "address"
        },
        {
          "indexed": false,
          "name": "gemCutter",
          "type": "address"
        }
      ],
      "name": "TransferGemOwnership",
      "type": "event",
      "signature": "0xfd8feede703ba888121683a699ff7bb2d92a89451cded3c812f723d3be5a93e3"
    },
    {
      "constant": false,
      "inputs": [
        {
          "name": "gemId",
          "type": "uint256"
        },
        {
          "name": "previousGemId",
          "type": "uint256"
        }
      ],
      "name": "setPreviousGemId",
      "outputs": [],
      "payable": false,
      "stateMutability": "nonpayable",
      "type": "function",
      "signature": "0xda5eeba9"
    },
    {
      "constant": false,
      "inputs": [
        {
          "name": "_minedGemId",
          "type": "uint256"
        },
        {
          "name": "_metadataHash",
          "type": "string"
        },
        {
          "name": "_price",
          "type": "uint256"
        },
        {
          "name": "_fileURL",
          "type": "string"
        }
      ],
      "name": "gemSelecting",
      "outputs": [],
      "payable": false,
      "stateMutability": "nonpayable",
      "type": "function",
      "signature": "0x9c5e642f"
    },
    {
      "constant": false,
      "inputs": [
        {
          "name": "_id",
          "type": "uint256"
        }
      ],
      "name": "polishGem",
      "outputs": [],
      "payable": false,
      "stateMutability": "nonpayable",
      "type": "function",
      "signature": "0x6056fe7e"
    },
    {
      "constant": false,
      "inputs": [
        {
          "name": "_id",
          "type": "uint256"
        }
      ],
      "name": "markGemAsUsed",
      "outputs": [],
      "payable": false,
      "stateMutability": "nonpayable",
      "type": "function",
      "signature": "0xe85f2238"
    },
    {
      "constant": true,
      "inputs": [
        {
          "name": "_owner",
          "type": "address"
        }
      ],
      "name": "getSelectedGemsCountByOwner",
      "outputs": [
        {
          "name": "",
          "type": "uint256"
        }
      ],
      "payable": false,
      "stateMutability": "view",
      "type": "function",
      "signature": "0x608c1fb4"
    },
    {
      "constant": false,
      "inputs": [
        {
          "name": "_id",
          "type": "uint256"
        }
      ],
      "name": "transferGemOwnership",
      "outputs": [],
      "payable": true,
      "stateMutability": "payable",
      "type": "function",
      "signature": "0xb06e6f58"
    },
    {
      "constant": true,
      "inputs": [
        {
          "name": "_id",
          "type": "uint256"
        }
      ],
      "name": "getSelectedGem",
      "outputs": [
        {
          "name": "id",
          "type": "uint256"
        },
        {
          "name": "minedGemId",
          "type": "uint256"
        },
        {
          "name": "previousGemId",
          "type": "uint256"
        },
        {
          "name": "metadataHash",
          "type": "string"
        },
        {
          "name": "forSale",
          "type": "bool"
        },
        {
          "name": "price",
          "type": "uint256"
        },
        {
          "name": "used",
          "type": "bool"
        },
        {
          "name": "replaced",
          "type": "bool"
        },
        {
          "name": "owner",
          "type": "address"
        },
        {
          "name": "gemCutter",
          "type": "address"
        },
        {
          "name": "fileURL",
          "type": "string"
        }
      ],
      "payable": false,
      "stateMutability": "view",
      "type": "function",
      "signature": "0x61b32e6e"
    },
    {
      "constant": true,
      "inputs": [
        {
          "name": "_id",
          "type": "uint256"
        }
      ],
      "name": "getGemDetails",
      "outputs": [
        {
          "name": "id",
          "type": "uint256"
        },
        {
          "name": "minedGemId",
          "type": "uint256"
        },
        {
          "name": "previousGemId",
          "type": "uint256"
        },
        {
          "name": "metadataHash",
          "type": "string"
        },
        {
          "name": "forSale",
          "type": "bool"
        },
        {
          "name": "price",
          "type": "uint256"
        },
        {
          "name": "used",
          "type": "bool"
        },
        {
          "name": "replaced",
          "type": "bool"
        },
        {
          "name": "owner",
          "type": "address"
        },
        {
          "name": "gemCutter",
          "type": "address"
        },
        {
          "name": "fileURL",
          "type": "string"
        }
      ],
      "payable": false,
      "stateMutability": "view",
      "type": "function",
      "signature": "0x8c632e64"
    },
    {
      "constant": false,
      "inputs": [
        {
          "name": "_id",
          "type": "uint256"
        }
      ],
      "name": "markGemAsReplaced",
      "outputs": [],
      "payable": false,
      "stateMutability": "nonpayable",
      "type": "function",
      "signature": "0x478091d9"
    }
  ],
  "bytecode": "0x60806040526000805534801561001457600080fd5b50604051602080611a458339810180604052602081101561003457600080fd5b810190808051906020019092919050505080600260006101000a81548173ffffffffffffffffffffffffffffffffffffffff021916908373ffffffffffffffffffffffffffffffffffffffff160217905550506119af806100966000396000f3fe6080604052600436106100af576000357c0100000000000000000000000000000000000000000000000000000000900463ffffffff168063478091d9146100b45780635f801c7a146100ef5780636056fe7e1461011a578063608c1fb41461015557806361b32e6e146101ba5780638c632e641461037d5780639c5e642f14610540578063b06e6f58146106b3578063da5eeba9146106e1578063e85f223814610726578063e8e9d04514610761575b600080fd5b3480156100c057600080fd5b506100ed600480360360208110156100d757600080fd5b81019080803590602001909291905050506107b4565b005b3480156100fb57600080fd5b506101046109ee565b6040518082815260200191505060405180910390f35b34801561012657600080fd5b506101536004803603602081101561013d57600080fd5b81019080803590602001909291905050506109f4565b005b34801561016157600080fd5b506101a46004803603602081101561017857600080fd5b81019080803573ffffffffffffffffffffffffffffffffffffffff169060200190929190505050610b28565b6040518082815260200191505060405180910390f35b3480156101c657600080fd5b506101f3600480360360208110156101dd57600080fd5b8101908080359060200190929190505050610bcb565b604051808c81526020018b81526020018a8152602001806020018915151515815260200188815260200187151515158152602001861515151581526020018573ffffffffffffffffffffffffffffffffffffffff1673ffffffffffffffffffffffffffffffffffffffff1681526020018473ffffffffffffffffffffffffffffffffffffffff1673ffffffffffffffffffffffffffffffffffffffff1681526020018060200183810383528b818151815260200191508051906020019080838360005b838110156102d15780820151818401526020810190506102b6565b50505050905090810190601f1680156102fe5780820380516001836020036101000a031916815260200191505b50838103825284818151815260200191508051906020019080838360005b8381101561033757808201518184015260208101905061031c565b50505050905090810190601f1680156103645780820380516001836020036101000a031916815260200191505b509d505050505050505050505050505060405180910390f35b34801561038957600080fd5b506103b6600480360360208110156103a057600080fd5b8101908080359060200190929190505050610df4565b604051808c81526020018b81526020018a8152602001806020018915151515815260200188815260200187151515158152602001861515151581526020018573ffffffffffffffffffffffffffffffffffffffff1673ffffffffffffffffffffffffffffffffffffffff1681526020018473ffffffffffffffffffffffffffffffffffffffff1673ffffffffffffffffffffffffffffffffffffffff1681526020018060200183810383528b818151815260200191508051906020019080838360005b83811015610494578082015181840152602081019050610479565b50505050905090810190601f1680156104c15780820380516001836020036101000a031916815260200191505b50838103825284818151815260200191508051906020019080838360005b838110156104fa5780820151818401526020810190506104df565b50505050905090810190601f1680156105275780820380516001836020036101000a031916815260200191505b509d505050505050505050505050505060405180910390f35b34801561054c57600080fd5b506106b16004803603608081101561056357600080fd5b81019080803590602001909291908035906020019064010000000081111561058a57600080fd5b82018360208201111561059c57600080fd5b803590602001918460018302840111640100000000831117156105be57600080fd5b91908080601f016020809104026020016040519081016040528093929190818152602001838380828437600081840152601f19601f820116905080830192505050505050509192919290803590602001909291908035906020019064010000000081111561062b57600080fd5b82018360208201111561063d57600080fd5b8035906020019184600183028401116401000000008311171561065f57600080fd5b91908080601f016020809104026020016040519081016040528093929190818152602001838380828437600081840152601f19601f820116905080830192505050505050509192919290505050610e34565b005b6106df600480360360208110156106c957600080fd5b8101908080359060200190929190505050611201565b005b3480156106ed57600080fd5b506107246004803603604081101561070457600080fd5b8101908080359060200190929190803590602001909291905050506115a4565b005b34801561073257600080fd5b5061075f6004803603602081101561074957600080fd5b8101908080359060200190929190505050611684565b005b34801561076d57600080fd5b5061079a6004803603602081101561078457600080fd5b81019080803590602001909291905050506118be565b604051808215151515815260200191505060405180910390f35b6000600160008381526020019081526020016000209050600081600001541180156107e55750600054816000015411155b1515610859576040517f08c379a000000000000000000000000000000000000000000000000000000000815260040180806020018281038252600e8152602001807f496e76616c69642067656d20494400000000000000000000000000000000000081525060200191505060405180910390fd5b600015158160060160019054906101000a900460ff1615151415156108e6576040517f08c379a00000000000000000000000000000000000000000000000000000000081526004018080602001828103825260108152602001807f47656d20616c726561647920757365640000000000000000000000000000000081525060200191505060405180910390fd5b60018160060160016101000a81548160ff0219169083151502179055507fbcc1d56483ed920bf7a26911c6f33623b43026231496114d05b84208ab3c9329828260060160029054906101000a900473ffffffffffffffffffffffffffffffffffffffff168360070160009054906101000a900473ffffffffffffffffffffffffffffffffffffffff16604051808481526020018373ffffffffffffffffffffffffffffffffffffffff1673ffffffffffffffffffffffffffffffffffffffff1681526020018273ffffffffffffffffffffffffffffffffffffffff1673ffffffffffffffffffffffffffffffffffffffff168152602001935050505060405180910390a15050565b60005481565b60006001600083815260200190815260200160002090508060030160009054906101000a900460ff16158160030160006101000a81548160ff0219169083151502179055507fc1ed5882d0a7df2b1c74406d920fa68606529352a94c8b5c6565426e9117d06381600001548260060160029054906101000a900473ffffffffffffffffffffffffffffffffffffffff168360070160009054906101000a900473ffffffffffffffffffffffffffffffffffffffff16604051808481526020018373ffffffffffffffffffffffffffffffffffffffff1673ffffffffffffffffffffffffffffffffffffffff1681526020018273ffffffffffffffffffffffffffffffffffffffff1673ffffffffffffffffffffffffffffffffffffffff168152602001935050505060405180910390a15050565b600080600090506000600190505b60005481111515610bc1578373ffffffffffffffffffffffffffffffffffffffff166001600083815260200190815260200160002060060160029054906101000a900473ffffffffffffffffffffffffffffffffffffffff1673ffffffffffffffffffffffffffffffffffffffff161415610bb45781806001019250505b8080600101915050610b36565b5080915050919050565b6000806000606060008060008060008060606000600160008e81526020019081526020016000209050806000015481600101548260020154836004018460030160009054906101000a900460ff1685600501548660060160009054906101000a900460ff168760060160019054906101000a900460ff168860060160029054906101000a900473ffffffffffffffffffffffffffffffffffffffff168960070160009054906101000a900473ffffffffffffffffffffffffffffffffffffffff168a600801878054600181600116156101000203166002900480601f016020809104026020016040519081016040528092919081815260200182805460018160011615610100020316600290048015610d255780601f10610cfa57610100808354040283529160200191610d25565b820191906000526020600020905b815481529060010190602001808311610d0857829003601f168201915b50505050509750829250819150808054600181600116156101000203166002900480601f016020809104026020016040519081016040528092919081815260200182805460018160011615610100020316600290048015610dc75780601f10610d9c57610100808354040283529160200191610dc7565b820191906000526020600020905b815481529060010190602001808311610daa57829003601f168201915b505050505090509b509b509b509b509b509b509b509b509b509b509b505091939597999b90929496989a50565b600080600060606000806000806000806060610e0f8c610bcb565b9a509a509a509a509a509a509a509a509a509a509a5091939597999b90929496989a50565b6000808154809291906001019190505550600060016000868152602001908152602001600020905084816000018190555084816001018190555083816004019080519060200190610e869291906118de565b5060008160030160006101000a81548160ff02191690831515021790555082816005018190555060008160060160006101000a81548160ff02191690831515021790555060008160060160016101000a81548160ff021916908315150217905550338160060160026101000a81548173ffffffffffffffffffffffffffffffffffffffff021916908373ffffffffffffffffffffffffffffffffffffffff160217905550338160070160006101000a81548173ffffffffffffffffffffffffffffffffffffffff021916908373ffffffffffffffffffffffffffffffffffffffff16021790555081816008019080519060200190610f859291906118de565b507f36a851a4a5f3885b9a41c1392a5490d9674cc449f4a0a2e18f9cf8360c51815981600001548260010154836004018460030160009054906101000a900460ff1685600501548660060160009054906101000a900460ff168760060160019054906101000a900460ff168860060160029054906101000a900473ffffffffffffffffffffffffffffffffffffffff168960070160009054906101000a900473ffffffffffffffffffffffffffffffffffffffff168a600801604051808b81526020018a8152602001806020018915151515815260200188815260200187151515158152602001861515151581526020018573ffffffffffffffffffffffffffffffffffffffff1673ffffffffffffffffffffffffffffffffffffffff1681526020018473ffffffffffffffffffffffffffffffffffffffff1673ffffffffffffffffffffffffffffffffffffffff1681526020018060200183810383528b81815460018160011615610100020316600290048152602001915080546001816001161561010002031660029004801561115f5780601f106111345761010080835404028352916020019161115f565b820191906000526020600020905b81548152906001019060200180831161114257829003601f168201915b50508381038252848181546001816001161561010002031660029004815260200191508054600181600116156101000203166002900480156111e25780601f106111b7576101008083540402835291602001916111e2565b820191906000526020600020905b8154815290600101906020018083116111c557829003601f168201915b50509c5050505050505050505050505060405180910390a15050505050565b6000600160008381526020019081526020016000209050600081600001541180156112325750600054816000015411155b15156112a6576040517f08c379a000000000000000000000000000000000000000000000000000000000815260040180806020018281038252600e8152602001807f496e76616c69642067656d20494400000000000000000000000000000000000081525060200191505060405180910390fd5b3373ffffffffffffffffffffffffffffffffffffffff168160060160029054906101000a900473ffffffffffffffffffffffffffffffffffffffff1673ffffffffffffffffffffffffffffffffffffffff161415151561136e576040517f08c379a00000000000000000000000000000000000000000000000000000000081526004018080602001828103825260188152602001807f596f7520616c7265616479206f776e20746869732067656d000000000000000081525060200191505060405180910390fd5b806005015434101515156113ea576040517f08c379a00000000000000000000000000000000000000000000000000000000081526004018080602001828103825260128152602001807f496e73756666696369656e742066756e6473000000000000000000000000000081525060200191505060405180910390fd5b8060060160029054906101000a900473ffffffffffffffffffffffffffffffffffffffff1673ffffffffffffffffffffffffffffffffffffffff166108fc349081150290604051600060405180830381858888f19350505050158015611454573d6000803e3d6000fd5b50338160060160026101000a81548173ffffffffffffffffffffffffffffffffffffffff021916908373ffffffffffffffffffffffffffffffffffffffff16021790555060008160030160006101000a81548160ff0219169083151502179055507ffd8feede703ba888121683a699ff7bb2d92a89451cded3c812f723d3be5a93e381600001548260060160029054906101000a900473ffffffffffffffffffffffffffffffffffffffff168360070160009054906101000a900473ffffffffffffffffffffffffffffffffffffffff16604051808481526020018373ffffffffffffffffffffffffffffffffffffffff1673ffffffffffffffffffffffffffffffffffffffff1681526020018273ffffffffffffffffffffffffffffffffffffffff1673ffffffffffffffffffffffffffffffffffffffff168152602001935050505060405180910390a15050565b600060016000848152602001908152602001600020905060008160000154111515611637576040517f08c379a00000000000000000000000000000000000000000000000000000000081526004018080602001828103825260138152602001807f47656d20646f6573206e6f742065786973742e0000000000000000000000000081525060200191505060405180910390fd5b818160020181905550600082111561167f57600060016000848152602001908152602001600020905060018160060160016101000a81548160ff021916908315150217905550505b505050565b6000600160008381526020019081526020016000209050600081600001541180156116b55750600054816000015411155b1515611729576040517f08c379a000000000000000000000000000000000000000000000000000000000815260040180806020018281038252600e8152602001807f496e76616c69642067656d20494400000000000000000000000000000000000081525060200191505060405180910390fd5b600015158160060160009054906101000a900460ff1615151415156117b6576040517f08c379a00000000000000000000000000000000000000000000000000000000081526004018080602001828103825260108152602001807f47656d20616c726561647920757365640000000000000000000000000000000081525060200191505060405180910390fd5b60018160060160006101000a81548160ff0219169083151502179055507f5713def16fc0f29cecaca692e41bab2f9319d8263aec6af05e6847c7d06c91a4828260060160029054906101000a900473ffffffffffffffffffffffffffffffffffffffff168360070160009054906101000a900473ffffffffffffffffffffffffffffffffffffffff16604051808481526020018373ffffffffffffffffffffffffffffffffffffffff1673ffffffffffffffffffffffffffffffffffffffff1681526020018273ffffffffffffffffffffffffffffffffffffffff1673ffffffffffffffffffffffffffffffffffffffff168152602001935050505060405180910390a15050565b60036020528060005260406000206000915054906101000a900460ff1681565b828054600181600116156101000203166002900490600052602060002090601f016020900481019282601f1061191f57805160ff191683800117855561194d565b8280016001018555821561194d579182015b8281111561194c578251825591602001919060010190611931565b5b50905061195a919061195e565b5090565b61198091905b8082111561197c576000816000905550600101611964565b5090565b9056fea165627a7a7230582067dfc6db50f82e6c1906c5d75e8283dd72082321bede268a084728877fab705d0029",
  "source": "pragma solidity >=0.4.21 <0.6.0;\r\n\r\ninterface IGemstoneExtraction {\r\n    function minedGems(uint) external view returns (uint id, string memory gemType, uint weight, uint height, uint width, uint price, string memory miningLocation, uint miningYear, bool selected, string memory extractionMethod, address payable owner, bool purchased);\r\n}\r\n\r\ncontract GemstoneSelecting {\r\n    uint public selectedGemCount = 0;\r\n    mapping(uint => SelectedGem) private selectedGems;\r\n    IGemstoneExtraction gemstoneExtraction;\r\n    mapping(uint => bool) public selectedMinedGems;\r\n\r\n    struct SelectedGem {\r\n        uint id;\r\n        uint minedGemId;\r\n        uint previousGemId;\r\n        bool forSale;\r\n        string metadataHash; \r\n        uint price;\r\n        bool used;\r\n        bool replaced; \r\n        address payable owner;\r\n        address payable gemCutter;\r\n        string fileURL;\r\n    }\r\n\r\n    event GemSelecting(\r\n        uint id,\r\n        uint minedGemId,\r\n        string metadataHash,\r\n        bool forSale,\r\n        uint price,\r\n        bool used,\r\n        bool replaced,\r\n        address payable owner,\r\n        address payable gemCutter,\r\n        string fileURL\r\n    );\r\n\r\n    event GemSale(\r\n        uint id,\r\n        address payable owner,\r\n        address payable gemCutter\r\n    );\r\n\r\n    event MarkGemAsUsed(\r\n        uint id,\r\n        address payable owner,\r\n        address payable gemCutter\r\n    );\r\n\r\n     event MarkGemAsReplaced(\r\n        uint id,\r\n        address payable owner,\r\n        address payable gemCutter\r\n    );\r\n\r\n    event TransferGemOwnership(\r\n        uint id,\r\n        address payable owner,\r\n        address payable gemCutter\r\n    );\r\n\r\n    constructor(address _gemstoneExtractionAddress) public {\r\n        gemstoneExtraction = IGemstoneExtraction(_gemstoneExtractionAddress);\r\n    }\r\n\r\n    function setPreviousGemId(uint gemId, uint previousGemId) public {\r\n        SelectedGem storage gem = selectedGems[gemId];\r\n        require(gem.id > 0, \"Gem does not exist.\");\r\n        gem.previousGemId = previousGemId;\r\n\r\n        if (previousGemId > 0) {\r\n            SelectedGem storage previousGem = selectedGems[previousGemId];\r\n            previousGem.replaced = true;\r\n        }\r\n    }\r\n\r\n    function gemSelecting(\r\n        uint _minedGemId,\r\n        string memory _metadataHash, \r\n        uint _price,\r\n        string memory _fileURL\r\n    ) public {\r\n        selectedGemCount++;\r\n        SelectedGem storage gem = selectedGems[_minedGemId];\r\n        gem.id = _minedGemId;\r\n        gem.minedGemId = _minedGemId;\r\n        gem.metadataHash = _metadataHash; \r\n        gem.forSale = false;\r\n        gem.price = _price;\r\n        gem.used = false;\r\n        gem.replaced = false; \r\n        gem.owner = msg.sender;\r\n        gem.gemCutter = msg.sender;\r\n        gem.fileURL = _fileURL;\r\n\r\n        emit GemSelecting(\r\n            gem.id,\r\n            gem.minedGemId,\r\n            gem.metadataHash, \r\n            gem.forSale,\r\n            gem.price,\r\n            gem.used,\r\n            gem.replaced,\r\n            gem.owner,\r\n            gem.gemCutter,\r\n            gem.fileURL\r\n        );\r\n    }\r\n\r\n    function polishGem(uint _id) public {\r\n        SelectedGem storage _selectedGem = selectedGems[_id];\r\n        _selectedGem.forSale = !_selectedGem.forSale;\r\n\r\n        emit GemSale(\r\n            _selectedGem.id,\r\n            _selectedGem.owner,\r\n            _selectedGem.gemCutter\r\n        );\r\n    }\r\n\r\n    function markGemAsUsed(uint _id) public {\r\n        SelectedGem storage _selectedGem = selectedGems[_id];\r\n        require(_selectedGem.id > 0 && _selectedGem.id <= selectedGemCount, \"Invalid gem ID\");\r\n        require(_selectedGem.used == false, \"Gem already used\");\r\n        _selectedGem.used = true;\r\n\r\n        emit MarkGemAsUsed(\r\n            _id,\r\n            _selectedGem.owner,\r\n            _selectedGem.gemCutter\r\n        );\r\n    }\r\n\r\n    function getSelectedGemsCountByOwner(address _owner) public view returns (uint) {\r\n        uint count = 0;\r\n        for (uint i = 1; i <= selectedGemCount; i++) {\r\n            if (selectedGems[i].owner == _owner) {\r\n                count++;\r\n            }\r\n        }\r\n        return count;\r\n    }\r\n\r\n    function transferGemOwnership(uint _id) public payable {\r\n        SelectedGem storage _selectedGem = selectedGems[_id];\r\n        require(_selectedGem.id > 0 && _selectedGem.id <= selectedGemCount, \"Invalid gem ID\");\r\n        require(_selectedGem.owner != msg.sender, \"You already own this gem\");\r\n        require(msg.value >= _selectedGem.price, \"Insufficient funds\");\r\n\r\n        _selectedGem.owner.transfer(msg.value);\r\n        _selectedGem.owner = msg.sender;\r\n        _selectedGem.forSale = false;\r\n\r\n        emit TransferGemOwnership(\r\n            _selectedGem.id,\r\n            _selectedGem.owner,\r\n            _selectedGem.gemCutter\r\n        );\r\n    }\r\n\r\n    // Public getter for selectedGems\r\n    function getSelectedGem(uint _id) public view returns (\r\n        uint id,\r\n        uint minedGemId,\r\n        uint previousGemId,\r\n        string memory metadataHash,\r\n        bool forSale,\r\n        uint price,\r\n        bool used,\r\n        bool replaced, \r\n        address owner,\r\n        address gemCutter,\r\n        string memory fileURL\r\n    ) {\r\n        SelectedGem storage gem = selectedGems[_id];\r\n        return (\r\n            gem.id,\r\n            gem.minedGemId,\r\n            gem.previousGemId,\r\n            gem.metadataHash, \r\n            gem.forSale,\r\n            gem.price,\r\n            gem.used,\r\n            gem.replaced, \r\n            gem.owner,\r\n            gem.gemCutter,\r\n            gem.fileURL\r\n        );\r\n    }\r\n\r\n    function getGemDetails(uint _id) public view returns (\r\n        uint id,\r\n        uint minedGemId,\r\n        uint previousGemId,\r\n        string memory metadataHash, \r\n        bool forSale,\r\n        uint price,\r\n        bool used,\r\n        bool replaced, \r\n        address owner,\r\n        address gemCutter,\r\n        string memory fileURL\r\n    ) {\r\n        return getSelectedGem(_id);\r\n    }\r\n\r\n      function markGemAsReplaced(uint _id) public {\r\n        SelectedGem storage _selectedGem = selectedGems[_id];\r\n        require(_selectedGem.id > 0 && _selectedGem.id <= selectedGemCount, \"Invalid gem ID\");\r\n        require(_selectedGem.replaced == false, \"Gem already used\");\r\n        _selectedGem.replaced = true;\r\n\r\n        emit MarkGemAsReplaced(\r\n            _id,\r\n            _selectedGem.owner,\r\n            _selectedGem.gemCutter\r\n        );\r\n    }\r\n}\r\n",
  "sourcePath": "C:/Users/berke/asd/jewRoundx/src/contracts/GemstoneSelecting.sol",
  "compiler": {
    "name": "solc",
    "version": "0.5.0+commit.1d4f565a.Emscripten.clang"
  },
  "schemaVersion": "3.0.1",
  "updatedAt": "2024-12-06T13:45:05.999Z",
  "devdoc": {
    "methods": {}
  },
  "userdoc": {
    "methods": {}
  }
}