{
  "contractName": "GemstoneSelecting",
  "abi": [
    {
      "constant": true,
      "inputs": [],
      "name": "selectedGemCount",
      "outputs": [
        {
          "name": "",
          "type": "uint256"
        }
      ],
      "payable": false,
      "stateMutability": "view",
      "type": "function",
      "signature": "0x5f801c7a"
    },
    {
      "constant": true,
      "inputs": [
        {
          "name": "",
          "type": "uint256"
        }
      ],
      "name": "selectedMinedGems",
      "outputs": [
        {
          "name": "",
          "type": "bool"
        }
      ],
      "payable": false,
      "stateMutability": "view",
      "type": "function",
      "signature": "0xe8e9d045"
    },
    {
      "inputs": [
        {
          "name": "_gemstoneExtractionAddress",
          "type": "address"
        }
      ],
      "payable": false,
      "stateMutability": "nonpayable",
      "type": "constructor",
      "signature": "constructor"
    },
    {
      "anonymous": false,
      "inputs": [
        {
          "indexed": false,
          "name": "id",
          "type": "uint256"
        },
        {
          "indexed": false,
          "name": "minedGemId",
          "type": "uint256"
        },
        {
          "components": [
            {
              "name": "size",
              "type": "string"
            },
            {
              "name": "carat",
              "type": "uint256"
            },
            {
              "name": "colorGemType",
              "type": "string"
            }
          ],
          "indexed": false,
          "name": "details",
          "type": "tuple"
        },
        {
          "indexed": false,
          "name": "forSale",
          "type": "bool"
        },
        {
          "indexed": false,
          "name": "fileURL",
          "type": "string"
        },
        {
          "indexed": false,
          "name": "price",
          "type": "uint256"
        },
        {
          "indexed": false,
          "name": "used",
          "type": "bool"
        },
        {
          "indexed": false,
          "name": "replaced",
          "type": "bool"
        },
        {
          "indexed": false,
          "name": "owner",
          "type": "address"
        },
        {
          "indexed": false,
          "name": "gemCutter",
          "type": "address"
        }
      ],
      "name": "GemSelecting",
      "type": "event",
      "signature": "0xfe10ea03d208ae7c4a352183afd6f84594f5a7d2e4db648b2cd8e84887ec0573"
    },
    {
      "anonymous": false,
      "inputs": [
        {
          "indexed": false,
          "name": "id",
          "type": "uint256"
        },
        {
          "indexed": false,
          "name": "minedGemId",
          "type": "uint256"
        },
        {
          "components": [
            {
              "name": "size",
              "type": "string"
            },
            {
              "name": "carat",
              "type": "uint256"
            },
            {
              "name": "colorGemType",
              "type": "string"
            }
          ],
          "indexed": false,
          "name": "details",
          "type": "tuple"
        },
        {
          "indexed": false,
          "name": "forSale",
          "type": "bool"
        },
        {
          "indexed": false,
          "name": "fileURL",
          "type": "string"
        },
        {
          "indexed": false,
          "name": "price",
          "type": "uint256"
        },
        {
          "indexed": false,
          "name": "used",
          "type": "bool"
        },
        {
          "indexed": false,
          "name": "replaced",
          "type": "bool"
        },
        {
          "indexed": false,
          "name": "owner",
          "type": "address"
        },
        {
          "indexed": false,
          "name": "gemCutter",
          "type": "address"
        }
      ],
      "name": "PolishGem",
      "type": "event",
      "signature": "0x91bedfdd01ebb2bf01fc833d78004bfbb3079852c27a5ea3e11240cfbe00669e"
    },
    {
      "anonymous": false,
      "inputs": [
        {
          "indexed": false,
          "name": "id",
          "type": "uint256"
        },
        {
          "indexed": false,
          "name": "minedGemId",
          "type": "uint256"
        },
        {
          "components": [
            {
              "name": "size",
              "type": "string"
            },
            {
              "name": "carat",
              "type": "uint256"
            },
            {
              "name": "colorGemType",
              "type": "string"
            }
          ],
          "indexed": false,
          "name": "details",
          "type": "tuple"
        },
        {
          "indexed": false,
          "name": "forSale",
          "type": "bool"
        },
        {
          "indexed": false,
          "name": "fileURL",
          "type": "string"
        },
        {
          "indexed": false,
          "name": "price",
          "type": "uint256"
        },
        {
          "indexed": false,
          "name": "used",
          "type": "bool"
        },
        {
          "indexed": false,
          "name": "replaced",
          "type": "bool"
        },
        {
          "indexed": false,
          "name": "owner",
          "type": "address"
        },
        {
          "indexed": false,
          "name": "gemCutter",
          "type": "address"
        }
      ],
      "name": "MarkGemAsUsed",
      "type": "event",
      "signature": "0xb7792644fca2b6b192ad8615dc54623c4a8b7ce3294ffcc8b4e0bc98a2cbed2c"
    },
    {
      "anonymous": false,
      "inputs": [
        {
          "indexed": false,
          "name": "id",
          "type": "uint256"
        },
        {
          "indexed": false,
          "name": "minedGemId",
          "type": "uint256"
        },
        {
          "components": [
            {
              "name": "size",
              "type": "string"
            },
            {
              "name": "carat",
              "type": "uint256"
            },
            {
              "name": "colorGemType",
              "type": "string"
            }
          ],
          "indexed": false,
          "name": "details",
          "type": "tuple"
        },
        {
          "indexed": false,
          "name": "forSale",
          "type": "bool"
        },
        {
          "indexed": false,
          "name": "fileURL",
          "type": "string"
        },
        {
          "indexed": false,
          "name": "price",
          "type": "uint256"
        },
        {
          "indexed": false,
          "name": "used",
          "type": "bool"
        },
        {
          "indexed": false,
          "name": "replaced",
          "type": "bool"
        },
        {
          "indexed": false,
          "name": "owner",
          "type": "address"
        },
        {
          "indexed": false,
          "name": "gemCutter",
          "type": "address"
        }
      ],
      "name": "TransferGemOwnership",
      "type": "event",
      "signature": "0xc46ad53a4a957c5cde02265308d38e8ff7898e936085192091929c9aa7e5a2cb"
    },
    {
      "constant": false,
      "inputs": [
        {
          "name": "gemId",
          "type": "uint256"
        },
        {
          "name": "previousGemId",
          "type": "uint256"
        }
      ],
      "name": "setPreviousGemId",
      "outputs": [],
      "payable": false,
      "stateMutability": "nonpayable",
      "type": "function",
      "signature": "0xda5eeba9"
    },
    {
      "constant": false,
      "inputs": [
        {
          "name": "_minedGemId",
          "type": "uint256"
        },
        {
          "components": [
            {
              "name": "size",
              "type": "string"
            },
            {
              "name": "carat",
              "type": "uint256"
            },
            {
              "name": "colorGemType",
              "type": "string"
            }
          ],
          "name": "_details",
          "type": "tuple"
        },
        {
          "name": "_fileURL",
          "type": "string"
        },
        {
          "name": "_price",
          "type": "uint256"
        }
      ],
      "name": "gemSelecting",
      "outputs": [],
      "payable": false,
      "stateMutability": "nonpayable",
      "type": "function",
      "signature": "0x9daf9330"
    },
    {
      "constant": false,
      "inputs": [
        {
          "name": "_id",
          "type": "uint256"
        }
      ],
      "name": "polishGem",
      "outputs": [],
      "payable": true,
      "stateMutability": "payable",
      "type": "function",
      "signature": "0x6056fe7e"
    },
    {
      "constant": false,
      "inputs": [
        {
          "name": "_id",
          "type": "uint256"
        }
      ],
      "name": "markGemAsUsed",
      "outputs": [],
      "payable": false,
      "stateMutability": "nonpayable",
      "type": "function",
      "signature": "0xe85f2238"
    },
    {
      "constant": false,
      "inputs": [
        {
          "name": "_id",
          "type": "uint256"
        }
      ],
      "name": "markGemAsReplaced",
      "outputs": [],
      "payable": false,
      "stateMutability": "nonpayable",
      "type": "function",
      "signature": "0x478091d9"
    },
    {
      "constant": true,
      "inputs": [
        {
          "name": "_owner",
          "type": "address"
        }
      ],
      "name": "getSelectedGemsCountByOwner",
      "outputs": [
        {
          "name": "",
          "type": "uint256"
        }
      ],
      "payable": false,
      "stateMutability": "view",
      "type": "function",
      "signature": "0x608c1fb4"
    },
    {
      "constant": false,
      "inputs": [
        {
          "name": "_id",
          "type": "uint256"
        }
      ],
      "name": "transferGemOwnership",
      "outputs": [],
      "payable": true,
      "stateMutability": "payable",
      "type": "function",
      "signature": "0xb06e6f58"
    },
    {
      "constant": true,
      "inputs": [
        {
          "name": "_id",
          "type": "uint256"
        }
      ],
      "name": "getSelectedGem",
      "outputs": [
        {
          "name": "id",
          "type": "uint256"
        },
        {
          "name": "minedGemId",
          "type": "uint256"
        },
        {
          "name": "previousGemId",
          "type": "uint256"
        },
        {
          "components": [
            {
              "name": "size",
              "type": "string"
            },
            {
              "name": "carat",
              "type": "uint256"
            },
            {
              "name": "colorGemType",
              "type": "string"
            }
          ],
          "name": "details",
          "type": "tuple"
        },
        {
          "name": "forSale",
          "type": "bool"
        },
        {
          "name": "fileURL",
          "type": "string"
        },
        {
          "name": "price",
          "type": "uint256"
        },
        {
          "name": "used",
          "type": "bool"
        },
        {
          "name": "replaced",
          "type": "bool"
        },
        {
          "name": "owner",
          "type": "address"
        },
        {
          "name": "gemCutter",
          "type": "address"
        }
      ],
      "payable": false,
      "stateMutability": "view",
      "type": "function",
      "signature": "0x61b32e6e"
    },
    {
      "constant": true,
      "inputs": [
        {
          "name": "_id",
          "type": "uint256"
        }
      ],
      "name": "getGemDetails",
      "outputs": [
        {
          "name": "id",
          "type": "uint256"
        },
        {
          "name": "minedGemId",
          "type": "uint256"
        },
        {
          "name": "previousGemId",
          "type": "uint256"
        },
        {
          "components": [
            {
              "name": "size",
              "type": "string"
            },
            {
              "name": "carat",
              "type": "uint256"
            },
            {
              "name": "colorGemType",
              "type": "string"
            }
          ],
          "name": "details",
          "type": "tuple"
        },
        {
          "name": "forSale",
          "type": "bool"
        },
        {
          "name": "fileURL",
          "type": "string"
        },
        {
          "name": "price",
          "type": "uint256"
        },
        {
          "name": "used",
          "type": "bool"
        },
        {
          "name": "replaced",
          "type": "bool"
        },
        {
          "name": "owner",
          "type": "address"
        },
        {
          "name": "gemCutter",
          "type": "address"
        }
      ],
      "payable": false,
      "stateMutability": "view",
      "type": "function",
      "signature": "0x8c632e64"
    }
  ],
  "bytecode": "0x6080604052600080553480156200001557600080fd5b5060405160208062001dba833981018060405262000037919081019062000095565b80600260006101000a81548173ffffffffffffffffffffffffffffffffffffffff021916908373ffffffffffffffffffffffffffffffffffffffff16021790555050620000f5565b60006200008d8251620000e1565b905092915050565b600060208284031215620000a857600080fd5b6000620000b8848285016200007f565b91505092915050565b600073ffffffffffffffffffffffffffffffffffffffff82169050919050565b6000620000ee82620000c1565b9050919050565b611cb580620001056000396000f3fe6080604052600436106100af576000357c0100000000000000000000000000000000000000000000000000000000900463ffffffff168063478091d9146100b45780635f801c7a146100dd5780636056fe7e14610108578063608c1fb41461012457806361b32e6e146101615780638c632e64146101a85780639daf9330146101ef578063b06e6f5814610218578063da5eeba914610234578063e85f22381461025d578063e8e9d04514610286575b600080fd5b3480156100c057600080fd5b506100db60048036036100d691908101906113f9565b6102c3565b005b3480156100e957600080fd5b506100f2610482565b6040516100ff919061197a565b60405180910390f35b610122600480360361011d91908101906113f9565b610488565b005b34801561013057600080fd5b5061014b600480360361014691908101906113d0565b6105a7565b604051610158919061197a565b60405180910390f35b34801561016d57600080fd5b50610188600480360361018391908101906113f9565b61064a565b60405161019f9b9a99989796959493929190611a3f565b60405180910390f35b3480156101b457600080fd5b506101cf60048036036101ca91908101906113f9565b61093a565b6040516101e69b9a99989796959493929190611a3f565b60405180910390f35b3480156101fb57600080fd5b5061021660048036036102119190810190611422565b610981565b005b610232600480360361022d91908101906113f9565b610be3565b005b34801561024057600080fd5b5061025b600480360361025691908101906114b5565b610ed8565b005b34801561026957600080fd5b50610284600480360361027f91908101906113f9565b610f46565b005b34801561029257600080fd5b506102ad60048036036102a891908101906113f9565b611105565b6040516102ba919061187f565b60405180910390f35b6000600160008381526020019081526020016000209050600081600001541180156102f45750600054816000015411155b1515610335576040517f08c379a000000000000000000000000000000000000000000000000000000000815260040161032c906118ba565b60405180910390fd5b600015158160090160019054906101000a900460ff16151514151561038f576040517f08c379a0000000000000000000000000000000000000000000000000000000008152600401610386906118fa565b60405180910390fd5b60018160090160016101000a81548160ff0219169083151502179055507fb7792644fca2b6b192ad8615dc54623c4a8b7ce3294ffcc8b4e0bc98a2cbed2c828260010154836003018460060160009054906101000a900460ff168560070186600801548760090160009054906101000a900460ff168860090160019054906101000a900460ff168960090160029054906101000a900473ffffffffffffffffffffffffffffffffffffffff168a600a0160009054906101000a900473ffffffffffffffffffffffffffffffffffffffff166040516104769a99989796959493929190611995565b60405180910390a15050565b60005481565b60006001600083815260200190815260200160002090508060060160009054906101000a900460ff16158160060160006101000a81548160ff0219169083151502179055507f91bedfdd01ebb2bf01fc833d78004bfbb3079852c27a5ea3e11240cfbe00669e81600001548260010154836003018460060160009054906101000a900460ff168560070186600801548760090160009054906101000a900460ff168860090160019054906101000a900460ff168960090160029054906101000a900473ffffffffffffffffffffffffffffffffffffffff168a600a0160009054906101000a900473ffffffffffffffffffffffffffffffffffffffff1660405161059b9a99989796959493929190611995565b60405180910390a15050565b600080600090506000600190505b60005481111515610640578373ffffffffffffffffffffffffffffffffffffffff166001600083815260200190815260200160002060090160029054906101000a900473ffffffffffffffffffffffffffffffffffffffff1673ffffffffffffffffffffffffffffffffffffffff1614156106335781806001019250505b80806001019150506105b5565b5080915050919050565b6000806000610657611125565b60006060600080600080600080600160008e81526020019081526020016000209050806000015481600101548260020154836003018460060160009054906101000a900460ff168560070186600801548760090160009054906101000a900460ff168860090160019054906101000a900460ff168960090160029054906101000a900473ffffffffffffffffffffffffffffffffffffffff168a600a0160009054906101000a900473ffffffffffffffffffffffffffffffffffffffff168760606040519081016040529081600082018054600181600116156101000203166002900480601f0160208091040260200160405190810160405280929190818152602001828054600181600116156101000203166002900480156107bb5780601f10610790576101008083540402835291602001916107bb565b820191906000526020600020905b81548152906001019060200180831161079e57829003601f168201915b5050505050815260200160018201548152602001600282018054600181600116156101000203166002900480601f0160208091040260200160405190810160405280929190818152602001828054600181600116156101000203166002900480156108675780601f1061083c57610100808354040283529160200191610867565b820191906000526020600020905b81548152906001019060200180831161084a57829003601f168201915b5050505050815250509750858054600181600116156101000203166002900480601f0160208091040260200160405190810160405280929190818152602001828054600181600116156101000203166002900480156109075780601f106108dc57610100808354040283529160200191610907565b820191906000526020600020905b8154815290600101906020018083116108ea57829003601f168201915b505050505095508191508090509b509b509b509b509b509b509b509b509b509b509b505091939597999b90929496989a50565b6000806000610947611125565b60006060600080600080600061095c8c61064a565b9a509a509a509a509a509a509a509a509a509a509a5091939597999b90929496989a50565b60008081548092919060010191905055506000600160008681526020019081526020016000209050848160000181905550848160010181905550838160030160008201518160000190805190602001906109dc929190611147565b50602082015181600101556040820151816002019080519060200190610a03929190611147565b5090505060008160060160006101000a81548160ff02191690831515021790555082816007019080519060200190610a3c9291906111c7565b5081816008018190555060008160090160006101000a81548160ff02191690831515021790555060008160090160016101000a81548160ff021916908315150217905550338160090160026101000a81548173ffffffffffffffffffffffffffffffffffffffff021916908373ffffffffffffffffffffffffffffffffffffffff1602179055503381600a0160006101000a81548173ffffffffffffffffffffffffffffffffffffffff021916908373ffffffffffffffffffffffffffffffffffffffff1602179055507ffe10ea03d208ae7c4a352183afd6f84594f5a7d2e4db648b2cd8e84887ec057381600001548260010154836003018460060160009054906101000a900460ff168560070186600801548760090160009054906101000a900460ff168860090160019054906101000a900460ff168960090160029054906101000a900473ffffffffffffffffffffffffffffffffffffffff168a600a0160009054906101000a900473ffffffffffffffffffffffffffffffffffffffff16604051610bd49a99989796959493929190611995565b60405180910390a15050505050565b600060016000838152602001908152602001600020905060008160000154118015610c145750600054816000015411155b1515610c55576040517f08c379a0000000000000000000000000000000000000000000000000000000008152600401610c4c9061189a565b60405180910390fd5b3373ffffffffffffffffffffffffffffffffffffffff168160090160029054906101000a900473ffffffffffffffffffffffffffffffffffffffff1673ffffffffffffffffffffffffffffffffffffffff1614151515610cea576040517f08c379a0000000000000000000000000000000000000000000000000000000008152600401610ce1906118da565b60405180910390fd5b80600801543410151515610d33576040517f08c379a0000000000000000000000000000000000000000000000000000000008152600401610d2a9061195a565b60405180910390fd5b8060090160029054906101000a900473ffffffffffffffffffffffffffffffffffffffff1673ffffffffffffffffffffffffffffffffffffffff166108fc349081150290604051600060405180830381858888f19350505050158015610d9d573d6000803e3d6000fd5b50338160090160026101000a81548173ffffffffffffffffffffffffffffffffffffffff021916908373ffffffffffffffffffffffffffffffffffffffff16021790555060008160060160006101000a81548160ff0219169083151502179055507fc46ad53a4a957c5cde02265308d38e8ff7898e936085192091929c9aa7e5a2cb81600001548260010154836003018460060160009054906101000a900460ff168560070186600801548760090160009054906101000a900460ff168860090160019054906101000a900460ff168960090160029054906101000a900473ffffffffffffffffffffffffffffffffffffffff168a600a0160009054906101000a900473ffffffffffffffffffffffffffffffffffffffff16604051610ecc9a99989796959493929190611995565b60405180910390a15050565b600060016000848152602001908152602001600020905060008160000154111515610f38576040517f08c379a0000000000000000000000000000000000000000000000000000000008152600401610f2f9061191a565b60405180910390fd5b818160020181905550505050565b600060016000838152602001908152602001600020905060008160000154118015610f775750600054816000015411155b1515610fb8576040517f08c379a0000000000000000000000000000000000000000000000000000000008152600401610faf906118ba565b60405180910390fd5b600015158160090160009054906101000a900460ff161515141515611012576040517f08c379a00000000000000000000000000000000000000000000000000000000081526004016110099061193a565b60405180910390fd5b60018160090160006101000a81548160ff0219169083151502179055507fb7792644fca2b6b192ad8615dc54623c4a8b7ce3294ffcc8b4e0bc98a2cbed2c828260010154836003018460060160009054906101000a900460ff168560070186600801548760090160009054906101000a900460ff168860090160019054906101000a900460ff168960090160029054906101000a900473ffffffffffffffffffffffffffffffffffffffff168a600a0160009054906101000a900473ffffffffffffffffffffffffffffffffffffffff166040516110f99a99989796959493929190611995565b60405180910390a15050565b60036020528060005260406000206000915054906101000a900460ff1681565b6060604051908101604052806060815260200160008152602001606081525090565b828054600181600116156101000203166002900490600052602060002090601f016020900481019282601f1061118857805160ff19168380011785556111b6565b828001600101855582156111b6579182015b828111156111b557825182559160200191906001019061119a565b5b5090506111c39190611247565b5090565b828054600181600116156101000203166002900490600052602060002090601f016020900481019282601f1061120857805160ff1916838001178555611236565b82800160010185558215611236579182015b8281111561123557825182559160200191906001019061121a565b5b5090506112439190611247565b5090565b61126991905b8082111561126557600081600090555060010161124d565b5090565b90565b60006112788235611bff565b905092915050565b600082601f830112151561129357600080fd5b81356112a66112a182611b25565b611af8565b915080825260208301602083018583830111156112c257600080fd5b6112cd838284611c1b565b50505092915050565b600082601f83011215156112e957600080fd5b81356112fc6112f782611b51565b611af8565b9150808252602083016020830185838301111561131857600080fd5b611323838284611c1b565b50505092915050565b60006060828403121561133e57600080fd5b6113486060611af8565b9050600082013567ffffffffffffffff81111561136457600080fd5b61137084828501611280565b6000830152506020611384848285016113bc565b602083015250604082013567ffffffffffffffff8111156113a457600080fd5b6113b084828501611280565b60408301525092915050565b60006113c88235611c11565b905092915050565b6000602082840312156113e257600080fd5b60006113f08482850161126c565b91505092915050565b60006020828403121561140b57600080fd5b6000611419848285016113bc565b91505092915050565b6000806000806080858703121561143857600080fd5b6000611446878288016113bc565b945050602085013567ffffffffffffffff81111561146357600080fd5b61146f8782880161132c565b935050604085013567ffffffffffffffff81111561148c57600080fd5b611498878288016112d6565b92505060606114a9878288016113bc565b91505092959194509250565b600080604083850312156114c857600080fd5b60006114d6858286016113bc565b92505060206114e7858286016113bc565b9150509250929050565b6114fa81611bb7565b82525050565b61150981611ba5565b82525050565b61151881611bc9565b82525050565b600061152982611b9a565b80845261153d816020860160208601611c2a565b61154681611c5d565b602085010191505092915050565b600061155f82611b8f565b808452611573816020860160208601611c2a565b61157c81611c5d565b602085010191505092915050565b6000815460018116600081146115a757600181146115c757611608565b607f600283041680865260ff198316602087015260408601935050611608565b600282048086526020860195506115dd85611b7d565b60005b828110156115ff578154818901526001820191506020810190506115e0565b80880195505050505b505092915050565b6000602382527fc3897276c3a96e7974656c656e206472c3a167616bc59120617a6f6e6f73c3ad60208301527f74c3b300000000000000000000000000000000000000000000000000000000006040830152606082019050919050565b6000600e82527f496e76616c69642067656d2049440000000000000000000000000000000000006020830152604082019050919050565b6000601b82527f4dc3a1722061207469c3a96420657a2061206472c3a167616bc59100000000006020830152604082019050919050565b6000601482527f47656d20616c7265616479207265706c616365640000000000000000000000006020830152604082019050919050565b6000601382527f47656d20646f6573206e6f742065786973742e000000000000000000000000006020830152604082019050919050565b6000601082527f47656d20616c72656164792075736564000000000000000000000000000000006020830152604082019050919050565b6000601582527f4e696e637320656c6567656e64c5912070c3a96e7a00000000000000000000006020830152604082019050919050565b600060608301600083015184820360008601526117d48282611554565b91505060208301516117e96020860182611870565b50604083015184820360408601526118018282611554565b9150508091505092915050565b6000606083016000808401858303600087015261182b838261158a565b9250506001840154905061183e81611c6e565b61184b6020870182611870565b50600284018583036040870152611862838261158a565b925050819250505092915050565b61187981611bf5565b82525050565b6000602082019050611894600083018461150f565b92915050565b600060208201905081810360008301526118b381611610565b9050919050565b600060208201905081810360008301526118d38161166d565b9050919050565b600060208201905081810360008301526118f3816116a4565b9050919050565b60006020820190508181036000830152611913816116db565b9050919050565b6000602082019050818103600083015261193381611712565b9050919050565b6000602082019050818103600083015261195381611749565b9050919050565b6000602082019050818103600083015261197381611780565b9050919050565b600060208201905061198f6000830184611870565b92915050565b6000610140820190506119ab600083018d611870565b6119b8602083018c611870565b81810360408301526119ca818b61180e565b90506119d9606083018a61150f565b81810360808301526119eb818961158a565b90506119fa60a0830188611870565b611a0760c083018761150f565b611a1460e083018661150f565b611a226101008301856114f1565b611a306101208301846114f1565b9b9a5050505050505050505050565b600061016082019050611a55600083018e611870565b611a62602083018d611870565b611a6f604083018c611870565b8181036060830152611a81818b6117b7565b9050611a90608083018a61150f565b81810360a0830152611aa2818961151e565b9050611ab160c0830188611870565b611abe60e083018761150f565b611acc61010083018661150f565b611ada610120830185611500565b611ae8610140830184611500565b9c9b505050505050505050505050565b6000604051905081810181811067ffffffffffffffff82111715611b1b57600080fd5b8060405250919050565b600067ffffffffffffffff821115611b3c57600080fd5b601f19601f8301169050602081019050919050565b600067ffffffffffffffff821115611b6857600080fd5b601f19601f8301169050602081019050919050565b60008160005260206000209050919050565b600081519050919050565b600081519050919050565b6000611bb082611bd5565b9050919050565b6000611bc282611bd5565b9050919050565b60008115159050919050565b600073ffffffffffffffffffffffffffffffffffffffff82169050919050565b6000819050919050565b6000611c0a82611bd5565b9050919050565b6000819050919050565b82818337600083830152505050565b60005b83811015611c48578082015181840152602081019050611c2d565b83811115611c57576000848401525b50505050565b6000601f19601f8301169050919050565b600060018204905091905056fea265627a7a72305820487b9ae130064f7bcba801c61e3754ebb1ddebfd201516c1c50ef485095ea6d56c6578706572696d656e74616cf50037",
  "source": "pragma solidity >=0.4.21 <0.6.0;\r\npragma experimental ABIEncoderV2;  // j ABI kdol engedlyezse\r\n\r\n\r\ninterface IGemstoneExtraction {\r\n    function minedGems(uint) external view returns (uint id, string memory gemType, uint weight, uint height, uint width, uint price, string memory miningLocation, uint miningYear, bool selected, string memory extractionMethod, address payable owner, bool purchased);\r\n}\r\n\r\n\r\ncontract GemstoneSelecting {\r\n    uint public selectedGemCount = 0;\r\n    mapping (uint => SelectedGem) private selectedGems;\r\n    IGemstoneExtraction gemstoneExtraction;\r\n    mapping(uint => bool) public selectedMinedGems;\r\n\r\n\r\n    struct GemDetails {\r\n        string size;\r\n        uint carat;\r\n        string colorGemType; // Combined color and gem type\r\n    }\r\n\r\n\r\n    struct SelectedGem {\r\n        uint id;\r\n        uint minedGemId;\r\n        uint previousGemId;\r\n        GemDetails details;\r\n        bool forSale;\r\n        string fileURL;\r\n        uint price;\r\n        bool used;\r\n        bool replaced;\r\n        address payable owner;\r\n        address payable gemCutter;\r\n    }\r\n\r\n\r\n    event GemSelecting(\r\n        uint id,\r\n        uint minedGemId,\r\n        GemDetails details,\r\n        bool forSale,\r\n        string fileURL,\r\n        uint price,\r\n        bool used,\r\n        bool replaced,\r\n        address payable owner,\r\n        address payable gemCutter\r\n    );\r\n\r\n\r\n    event PolishGem(\r\n        uint id,\r\n        uint minedGemId,\r\n        GemDetails details,\r\n        bool forSale,\r\n        string fileURL,\r\n        uint price,\r\n        bool used,\r\n        bool replaced,\r\n        address payable owner,\r\n        address payable gemCutter\r\n    );\r\n\r\n\r\n    event MarkGemAsUsed(\r\n        uint id,\r\n        uint minedGemId,\r\n        GemDetails details,\r\n        bool forSale,\r\n        string fileURL,\r\n        uint price,\r\n        bool used,\r\n        bool replaced,\r\n        address payable owner,\r\n        address payable gemCutter\r\n    );\r\n\r\n\r\n    event TransferGemOwnership(\r\n        uint id,\r\n        uint minedGemId,\r\n        GemDetails details,\r\n        bool forSale,\r\n        string fileURL,\r\n        uint price,\r\n        bool used,\r\n        bool replaced,\r\n        address payable owner,\r\n        address payable gemCutter\r\n    );\r\n\r\n\r\n    constructor(address _gemstoneExtractionAddress) public {\r\n        gemstoneExtraction = IGemstoneExtraction(_gemstoneExtractionAddress);\r\n    }\r\n\r\n\r\n    function setPreviousGemId(uint gemId, uint previousGemId) public {\r\n        SelectedGem storage gem = selectedGems[gemId];\r\n        require(gem.id > 0, \"Gem does not exist.\");\r\n        gem.previousGemId = previousGemId;\r\n    }\r\n\r\n\r\n    function gemSelecting(\r\n        uint _minedGemId,\r\n        GemDetails memory _details,\r\n        string memory _fileURL,\r\n        uint _price\r\n    ) public {\r\n        selectedGemCount++;\r\n        SelectedGem storage gem = selectedGems[_minedGemId];\r\n        gem.id = _minedGemId;\r\n        gem.minedGemId = _minedGemId;\r\n        gem.details = _details;\r\n        gem.forSale = false;\r\n        gem.fileURL = _fileURL;\r\n        gem.price = _price;\r\n        gem.used = false;\r\n        gem.replaced = false;\r\n        gem.owner = msg.sender;\r\n        gem.gemCutter = msg.sender;\r\n\r\n\r\n        emit GemSelecting(\r\n            gem.id,\r\n            gem.minedGemId,\r\n            gem.details,\r\n            gem.forSale,\r\n            gem.fileURL,\r\n            gem.price,\r\n            gem.used,\r\n            gem.replaced,\r\n            gem.owner,\r\n            gem.gemCutter\r\n        );\r\n    }\r\n\r\n\r\n    function polishGem(uint _id) public payable {\r\n        SelectedGem storage _selectedGem = selectedGems[_id];\r\n        _selectedGem.forSale = !_selectedGem.forSale;\r\n\r\n\r\n        emit PolishGem(\r\n            _selectedGem.id,\r\n            _selectedGem.minedGemId,\r\n            _selectedGem.details,\r\n            _selectedGem.forSale,\r\n            _selectedGem.fileURL,\r\n            _selectedGem.price,\r\n            _selectedGem.used,\r\n            _selectedGem.replaced,\r\n            _selectedGem.owner,\r\n            _selectedGem.gemCutter\r\n        );\r\n    }\r\n\r\n\r\n    function markGemAsUsed(uint _id) public {\r\n        SelectedGem storage _selectedGem = selectedGems[_id];\r\n        require(_selectedGem.id > 0 && _selectedGem.id <= selectedGemCount, \"Invalid gem ID\");\r\n        require(_selectedGem.used == false, \"Gem already used\");\r\n        _selectedGem.used = true;\r\n\r\n\r\n        emit MarkGemAsUsed(\r\n            _id,\r\n            _selectedGem.minedGemId,\r\n            _selectedGem.details,\r\n            _selectedGem.forSale,\r\n            _selectedGem.fileURL,\r\n            _selectedGem.price,\r\n            _selectedGem.used,\r\n            _selectedGem.replaced,\r\n            _selectedGem.owner,\r\n            _selectedGem.gemCutter\r\n        );\r\n    }\r\n\r\n\r\n    function markGemAsReplaced(uint _id) public {\r\n        SelectedGem storage _selectedGem = selectedGems[_id];\r\n        require(_selectedGem.id > 0 && _selectedGem.id <= selectedGemCount, \"Invalid gem ID\");\r\n        require(_selectedGem.replaced == false, \"Gem already replaced\");\r\n        _selectedGem.replaced = true;\r\n\r\n\r\n        emit MarkGemAsUsed(\r\n            _id,\r\n            _selectedGem.minedGemId,\r\n            _selectedGem.details,\r\n            _selectedGem.forSale,\r\n            _selectedGem.fileURL,\r\n            _selectedGem.price,\r\n            _selectedGem.used,\r\n            _selectedGem.replaced,\r\n            _selectedGem.owner,\r\n            _selectedGem.gemCutter\r\n        );\r\n    }\r\n\r\n\r\n    function getSelectedGemsCountByOwner(address _owner) public view returns (uint) {\r\n        uint count = 0;\r\n        for (uint i = 1; i <= selectedGemCount; i++) {\r\n            if (selectedGems[i].owner == _owner) {\r\n                count++;\r\n            }\r\n        }\r\n        return count;\r\n    }\r\n\r\n\r\n    function transferGemOwnership(uint _id) public payable {\r\n        SelectedGem storage _selectedGem = selectedGems[_id];\r\n        require(_selectedGem.id > 0 && _selectedGem.id <= selectedGemCount, \"rvnytelen drgak azonost\");\r\n        require(_selectedGem.owner != msg.sender, \"Mr a tid ez a drgak\");\r\n        require(msg.value >= _selectedGem.price, \"Nincs elegend pnz\");\r\n\r\n\r\n        _selectedGem.owner.transfer(msg.value);\r\n\r\n\r\n        _selectedGem.owner = msg.sender;\r\n        _selectedGem.forSale = false;\r\n\r\n\r\n        emit TransferGemOwnership(\r\n            _selectedGem.id,\r\n            _selectedGem.minedGemId,\r\n            _selectedGem.details,\r\n            _selectedGem.forSale,\r\n            _selectedGem.fileURL,\r\n            _selectedGem.price,\r\n            _selectedGem.used,\r\n            _selectedGem.replaced,\r\n            _selectedGem.owner,\r\n            _selectedGem.gemCutter\r\n        );\r\n    }\r\n\r\n\r\n    function getSelectedGem(uint _id) public view returns (\r\n        uint id,\r\n        uint minedGemId,\r\n        uint previousGemId,\r\n        GemDetails memory details,\r\n        bool forSale,\r\n        string memory fileURL,\r\n        uint price,\r\n        bool used,\r\n        bool replaced,\r\n        address owner,\r\n        address gemCutter\r\n    ) {\r\n        SelectedGem storage gem = selectedGems[_id];\r\n        return (\r\n            gem.id,\r\n            gem.minedGemId,\r\n            gem.previousGemId,\r\n            gem.details,\r\n            gem.forSale,\r\n            gem.fileURL,\r\n            gem.price,\r\n            gem.used,\r\n            gem.replaced,\r\n            gem.owner,\r\n            gem.gemCutter\r\n        );\r\n    }\r\n\r\n\r\n    function getGemDetails(uint _id) public view returns (\r\n        uint id,\r\n        uint minedGemId,\r\n        uint previousGemId,\r\n        GemDetails memory details,\r\n        bool forSale,\r\n        string memory fileURL,\r\n        uint price,\r\n        bool used,\r\n        bool replaced,\r\n        address owner,\r\n        address gemCutter\r\n    ) {\r\n        return getSelectedGem(_id);\r\n    }\r\n}\r\n\r\n\r\n",
  "sourcePath": "C:/Users/berke/jewRoundx/src/contracts/GemstoneSelecting.sol",
  "compiler": {
    "name": "solc",
    "version": "0.5.0+commit.1d4f565a.Emscripten.clang"
  },
  "schemaVersion": "3.0.1",
  "updatedAt": "2024-10-18T20:21:02.139Z",
  "devdoc": {
    "methods": {}
  },
  "userdoc": {
    "methods": {}
  }
}