{
  "contractName": "GemstoneSelecting",
  "abi": [
    {
      "constant": true,
      "inputs": [],
      "name": "selectedGemCount",
      "outputs": [
        {
          "name": "",
          "type": "uint256"
        }
      ],
      "payable": false,
      "stateMutability": "view",
      "type": "function",
      "signature": "0x5f801c7a"
    },
    {
      "constant": true,
      "inputs": [
        {
          "name": "",
          "type": "uint256"
        }
      ],
      "name": "selectedMinedGems",
      "outputs": [
        {
          "name": "",
          "type": "bool"
        }
      ],
      "payable": false,
      "stateMutability": "view",
      "type": "function",
      "signature": "0xe8e9d045"
    },
    {
      "inputs": [
        {
          "name": "_gemstoneExtractionAddress",
          "type": "address"
        }
      ],
      "payable": false,
      "stateMutability": "nonpayable",
      "type": "constructor",
      "signature": "constructor"
    },
    {
      "anonymous": false,
      "inputs": [
        {
          "indexed": false,
          "name": "id",
          "type": "uint256"
        },
        {
          "indexed": false,
          "name": "minedGemId",
          "type": "uint256"
        },
        {
          "indexed": false,
          "name": "size",
          "type": "string"
        },
        {
          "indexed": false,
          "name": "carat",
          "type": "uint256"
        },
        {
          "indexed": false,
          "name": "colorGemType",
          "type": "string"
        },
        {
          "indexed": false,
          "name": "forSale",
          "type": "bool"
        },
        {
          "indexed": false,
          "name": "fileURL",
          "type": "string"
        },
        {
          "indexed": false,
          "name": "price",
          "type": "uint256"
        },
        {
          "indexed": false,
          "name": "used",
          "type": "bool"
        },
        {
          "indexed": false,
          "name": "owner",
          "type": "address"
        },
        {
          "indexed": false,
          "name": "gemCutter",
          "type": "address"
        }
      ],
      "name": "GemSelecting",
      "type": "event",
      "signature": "0x445a237480101801c7279126ab9a90d44d27d2a82c99ed070c7fc4ec45a64546"
    },
    {
      "anonymous": false,
      "inputs": [
        {
          "indexed": false,
          "name": "id",
          "type": "uint256"
        },
        {
          "indexed": false,
          "name": "minedGemId",
          "type": "uint256"
        },
        {
          "indexed": false,
          "name": "size",
          "type": "string"
        },
        {
          "indexed": false,
          "name": "carat",
          "type": "uint256"
        },
        {
          "indexed": false,
          "name": "colorGemType",
          "type": "string"
        },
        {
          "indexed": false,
          "name": "forSale",
          "type": "bool"
        },
        {
          "indexed": false,
          "name": "fileURL",
          "type": "string"
        },
        {
          "indexed": false,
          "name": "price",
          "type": "uint256"
        },
        {
          "indexed": false,
          "name": "used",
          "type": "bool"
        },
        {
          "indexed": false,
          "name": "owner",
          "type": "address"
        },
        {
          "indexed": false,
          "name": "gemCutter",
          "type": "address"
        }
      ],
      "name": "PolishGem",
      "type": "event",
      "signature": "0x79d55b20953fb634189d4e3078d5198d10134223dd12f3e735a6aaa901b41fb1"
    },
    {
      "anonymous": false,
      "inputs": [
        {
          "indexed": false,
          "name": "id",
          "type": "uint256"
        },
        {
          "indexed": false,
          "name": "minedGemId",
          "type": "uint256"
        },
        {
          "indexed": false,
          "name": "size",
          "type": "string"
        },
        {
          "indexed": false,
          "name": "carat",
          "type": "uint256"
        },
        {
          "indexed": false,
          "name": "colorGemType",
          "type": "string"
        },
        {
          "indexed": false,
          "name": "forSale",
          "type": "bool"
        },
        {
          "indexed": false,
          "name": "fileURL",
          "type": "string"
        },
        {
          "indexed": false,
          "name": "price",
          "type": "uint256"
        },
        {
          "indexed": false,
          "name": "used",
          "type": "bool"
        },
        {
          "indexed": false,
          "name": "owner",
          "type": "address"
        },
        {
          "indexed": false,
          "name": "gemCutter",
          "type": "address"
        }
      ],
      "name": "MarkGemAsUsed",
      "type": "event",
      "signature": "0xf1de1ab82c98c327ab725830bc926c05de1c2d267bfddf867e9e437690ad8f4e"
    },
    {
      "anonymous": false,
      "inputs": [
        {
          "indexed": false,
          "name": "id",
          "type": "uint256"
        },
        {
          "indexed": false,
          "name": "minedGemId",
          "type": "uint256"
        },
        {
          "indexed": false,
          "name": "size",
          "type": "string"
        },
        {
          "indexed": false,
          "name": "carat",
          "type": "uint256"
        },
        {
          "indexed": false,
          "name": "colorGemType",
          "type": "string"
        },
        {
          "indexed": false,
          "name": "forSale",
          "type": "bool"
        },
        {
          "indexed": false,
          "name": "fileURL",
          "type": "string"
        },
        {
          "indexed": false,
          "name": "price",
          "type": "uint256"
        },
        {
          "indexed": false,
          "name": "used",
          "type": "bool"
        },
        {
          "indexed": false,
          "name": "owner",
          "type": "address"
        },
        {
          "indexed": false,
          "name": "gemCutter",
          "type": "address"
        }
      ],
      "name": "TransferGemOwnership",
      "type": "event",
      "signature": "0x8076106cac5f36db86be6805a7605dbb127d47126ab3f3c0142bde010a06d4a4"
    },
    {
      "constant": false,
      "inputs": [
        {
          "name": "gemId",
          "type": "uint256"
        },
        {
          "name": "previousGemId",
          "type": "uint256"
        }
      ],
      "name": "setPreviousGemId",
      "outputs": [],
      "payable": false,
      "stateMutability": "nonpayable",
      "type": "function",
      "signature": "0xda5eeba9"
    },
    {
      "constant": false,
      "inputs": [
        {
          "name": "_minedGemId",
          "type": "uint256"
        },
        {
          "name": "_size",
          "type": "string"
        },
        {
          "name": "_carat",
          "type": "uint256"
        },
        {
          "name": "_colorGemType",
          "type": "string"
        },
        {
          "name": "_fileURL",
          "type": "string"
        },
        {
          "name": "_price",
          "type": "uint256"
        }
      ],
      "name": "gemSelecting",
      "outputs": [],
      "payable": false,
      "stateMutability": "nonpayable",
      "type": "function",
      "signature": "0x94d8386d"
    },
    {
      "constant": false,
      "inputs": [
        {
          "name": "_id",
          "type": "uint256"
        }
      ],
      "name": "polishGem",
      "outputs": [],
      "payable": true,
      "stateMutability": "payable",
      "type": "function",
      "signature": "0x6056fe7e"
    },
    {
      "constant": false,
      "inputs": [
        {
          "name": "_id",
          "type": "uint256"
        }
      ],
      "name": "markGemAsUsed",
      "outputs": [],
      "payable": false,
      "stateMutability": "nonpayable",
      "type": "function",
      "signature": "0xe85f2238"
    },
    {
      "constant": true,
      "inputs": [
        {
          "name": "_owner",
          "type": "address"
        }
      ],
      "name": "getSelectedGemsCountByOwner",
      "outputs": [
        {
          "name": "",
          "type": "uint256"
        }
      ],
      "payable": false,
      "stateMutability": "view",
      "type": "function",
      "signature": "0x608c1fb4"
    },
    {
      "constant": false,
      "inputs": [
        {
          "name": "_id",
          "type": "uint256"
        }
      ],
      "name": "transferGemOwnership",
      "outputs": [],
      "payable": true,
      "stateMutability": "payable",
      "type": "function",
      "signature": "0xb06e6f58"
    },
    {
      "constant": true,
      "inputs": [
        {
          "name": "_id",
          "type": "uint256"
        }
      ],
      "name": "getSelectedGem",
      "outputs": [
        {
          "name": "id",
          "type": "uint256"
        },
        {
          "name": "minedGemId",
          "type": "uint256"
        },
        {
          "name": "previousGemId",
          "type": "uint256"
        },
        {
          "name": "size",
          "type": "string"
        },
        {
          "name": "carat",
          "type": "uint256"
        },
        {
          "name": "colorGemType",
          "type": "string"
        },
        {
          "name": "forSale",
          "type": "bool"
        },
        {
          "name": "fileURL",
          "type": "string"
        },
        {
          "name": "price",
          "type": "uint256"
        },
        {
          "name": "used",
          "type": "bool"
        },
        {
          "name": "owner",
          "type": "address"
        },
        {
          "name": "gemCutter",
          "type": "address"
        }
      ],
      "payable": false,
      "stateMutability": "view",
      "type": "function",
      "signature": "0x61b32e6e"
    },
    {
      "constant": true,
      "inputs": [
        {
          "name": "_id",
          "type": "uint256"
        }
      ],
      "name": "getGemDetails",
      "outputs": [
        {
          "name": "id",
          "type": "uint256"
        },
        {
          "name": "minedGemId",
          "type": "uint256"
        },
        {
          "name": "previousGemId",
          "type": "uint256"
        },
        {
          "name": "size",
          "type": "string"
        },
        {
          "name": "carat",
          "type": "uint256"
        },
        {
          "name": "colorGemType",
          "type": "string"
        },
        {
          "name": "forSale",
          "type": "bool"
        },
        {
          "name": "fileURL",
          "type": "string"
        },
        {
          "name": "price",
          "type": "uint256"
        },
        {
          "name": "used",
          "type": "bool"
        },
        {
          "name": "owner",
          "type": "address"
        },
        {
          "name": "gemCutter",
          "type": "address"
        }
      ],
      "payable": false,
      "stateMutability": "view",
      "type": "function",
      "signature": "0x8c632e64"
    }
  ],
  "bytecode": "0x60806040526000805534801561001457600080fd5b506040516020806121188339810180604052602081101561003457600080fd5b810190808051906020019092919050505080600260006101000a81548173ffffffffffffffffffffffffffffffffffffffff021916908373ffffffffffffffffffffffffffffffffffffffff16021790555050612082806100966000396000f3fe6080604052600436106100a4576000357c0100000000000000000000000000000000000000000000000000000000900463ffffffff1680635f801c7a146100a95780636056fe7e146100d4578063608c1fb41461010257806361b32e6e146101675780638c632e641461039257806394d8386d146105bd578063b06e6f58146107d1578063da5eeba9146107ff578063e85f223814610844578063e8e9d0451461087f575b600080fd5b3480156100b557600080fd5b506100be6108d2565b6040518082815260200191505060405180910390f35b610100600480360360208110156100ea57600080fd5b81019080803590602001909291905050506108d8565b005b34801561010e57600080fd5b506101516004803603602081101561012557600080fd5b81019080803573ffffffffffffffffffffffffffffffffffffffff169060200190929190505050610c1a565b6040518082815260200191505060405180910390f35b34801561017357600080fd5b506101a06004803603602081101561018a57600080fd5b8101908080359060200190929190505050610cbd565b604051808d81526020018c81526020018b8152602001806020018a8152602001806020018915151515815260200180602001888152602001871515151581526020018673ffffffffffffffffffffffffffffffffffffffff1673ffffffffffffffffffffffffffffffffffffffff1681526020018573ffffffffffffffffffffffffffffffffffffffff1673ffffffffffffffffffffffffffffffffffffffff16815260200184810384528d818151815260200191508051906020019080838360005b8381101561027e578082015181840152602081019050610263565b50505050905090810190601f1680156102ab5780820380516001836020036101000a031916815260200191505b5084810383528b818151815260200191508051906020019080838360005b838110156102e45780820151818401526020810190506102c9565b50505050905090810190601f1680156103115780820380516001836020036101000a031916815260200191505b50848103825289818151815260200191508051906020019080838360005b8381101561034a57808201518184015260208101905061032f565b50505050905090810190601f1680156103775780820380516001836020036101000a031916815260200191505b509f5050505050505050505050505050505060405180910390f35b34801561039e57600080fd5b506103cb600480360360208110156103b557600080fd5b8101908080359060200190929190505050610f87565b604051808d81526020018c81526020018b8152602001806020018a8152602001806020018915151515815260200180602001888152602001871515151581526020018673ffffffffffffffffffffffffffffffffffffffff1673ffffffffffffffffffffffffffffffffffffffff1681526020018573ffffffffffffffffffffffffffffffffffffffff1673ffffffffffffffffffffffffffffffffffffffff16815260200184810384528d818151815260200191508051906020019080838360005b838110156104a957808201518184015260208101905061048e565b50505050905090810190601f1680156104d65780820380516001836020036101000a031916815260200191505b5084810383528b818151815260200191508051906020019080838360005b8381101561050f5780820151818401526020810190506104f4565b50505050905090810190601f16801561053c5780820380516001836020036101000a031916815260200191505b50848103825289818151815260200191508051906020019080838360005b8381101561057557808201518184015260208101905061055a565b50505050905090810190601f1680156105a25780820380516001836020036101000a031916815260200191505b509f5050505050505050505050505050505060405180910390f35b3480156105c957600080fd5b506107cf600480360360c08110156105e057600080fd5b81019080803590602001909291908035906020019064010000000081111561060757600080fd5b82018360208201111561061957600080fd5b8035906020019184600183028401116401000000008311171561063b57600080fd5b91908080601f016020809104026020016040519081016040528093929190818152602001838380828437600081840152601f19601f82011690508083019250505050505050919291929080359060200190929190803590602001906401000000008111156106a857600080fd5b8201836020820111156106ba57600080fd5b803590602001918460018302840111640100000000831117156106dc57600080fd5b91908080601f016020809104026020016040519081016040528093929190818152602001838380828437600081840152601f19601f8201169050808301925050505050505091929192908035906020019064010000000081111561073f57600080fd5b82018360208201111561075157600080fd5b8035906020019184600183028401116401000000008311171561077357600080fd5b91908080601f016020809104026020016040519081016040528093929190818152602001838380828437600081840152601f19601f82011690508083019250505050505050919291929080359060200190929190505050610fcc565b005b6107fd600480360360208110156107e757600080fd5b8101908080359060200190929190505050611451565b005b34801561080b57600080fd5b506108426004803603604081101561082257600080fd5b810190808035906020019092919080359060200190929190505050611a28565b005b34801561085057600080fd5b5061087d6004803603602081101561086757600080fd5b8101908080359060200190929190505050611ac9565b005b34801561088b57600080fd5b506108b8600480360360208110156108a257600080fd5b8101908080359060200190929190505050611f11565b604051808215151515815260200191505060405180910390f35b60005481565b60006001600083815260200190815260200160002090508060060160009054906101000a900460ff16158160060160006101000a81548160ff0219169083151502179055507f79d55b20953fb634189d4e3078d5198d10134223dd12f3e735a6aaa901b41fb181600001548260010154836003016000018460030160010154856003016002018660060160009054906101000a900460ff168760070188600801548960090160009054906101000a900460ff168a60090160019054906101000a900473ffffffffffffffffffffffffffffffffffffffff168b600a0160009054906101000a900473ffffffffffffffffffffffffffffffffffffffff16604051808c81526020018b8152602001806020018a8152602001806020018915151515815260200180602001888152602001871515151581526020018673ffffffffffffffffffffffffffffffffffffffff1673ffffffffffffffffffffffffffffffffffffffff1681526020018573ffffffffffffffffffffffffffffffffffffffff1673ffffffffffffffffffffffffffffffffffffffff16815260200184810384528d818154600181600116156101000203166002900481526020019150805460018160011615610100020316600290048015610af65780601f10610acb57610100808354040283529160200191610af6565b820191906000526020600020905b815481529060010190602001808311610ad957829003601f168201915b505084810383528b818154600181600116156101000203166002900481526020019150805460018160011615610100020316600290048015610b795780601f10610b4e57610100808354040283529160200191610b79565b820191906000526020600020905b815481529060010190602001808311610b5c57829003601f168201915b5050848103825289818154600181600116156101000203166002900481526020019150805460018160011615610100020316600290048015610bfc5780601f10610bd157610100808354040283529160200191610bfc565b820191906000526020600020905b815481529060010190602001808311610bdf57829003601f168201915b50509e50505050505050505050505050505060405180910390a15050565b600080600090506000600190505b60005481111515610cb3578373ffffffffffffffffffffffffffffffffffffffff166001600083815260200190815260200160002060090160019054906101000a900473ffffffffffffffffffffffffffffffffffffffff1673ffffffffffffffffffffffffffffffffffffffff161415610ca65781806001019250505b8080600101915050610c28565b5080915050919050565b6000806000606060006060600060606000806000806000600160008f81526020019081526020016000209050806000015481600101548260020154836003016000018460030160010154856003016002018660060160009054906101000a900460ff168760070188600801548960090160009054906101000a900460ff168a60090160019054906101000a900473ffffffffffffffffffffffffffffffffffffffff168b600a0160009054906101000a900473ffffffffffffffffffffffffffffffffffffffff16888054600181600116156101000203166002900480601f016020809104026020016040519081016040528092919081815260200182805460018160011615610100020316600290048015610e1a5780601f10610def57610100808354040283529160200191610e1a565b820191906000526020600020905b815481529060010190602001808311610dfd57829003601f168201915b50505050509850868054600181600116156101000203166002900480601f016020809104026020016040519081016040528092919081815260200182805460018160011615610100020316600290048015610eb65780601f10610e8b57610100808354040283529160200191610eb6565b820191906000526020600020905b815481529060010190602001808311610e9957829003601f168201915b50505050509650848054600181600116156101000203166002900480601f016020809104026020016040519081016040528092919081815260200182805460018160011615610100020316600290048015610f525780601f10610f2757610100808354040283529160200191610f52565b820191906000526020600020905b815481529060010190602001808311610f3557829003601f168201915b505050505094508191508090509c509c509c509c509c509c509c509c509c509c509c509c505091939597999b5091939597999b565b600080600060606000606060006060600080600080610fa58d610cbd565b9b509b509b509b509b509b509b509b509b509b509b509b5091939597999b5091939597999b565b6000808154809291906001019190505550600060016000888152602001908152602001600020905086816000018190555086816001018190555060606040519081016040528087815260200186815260200185815250816003016000820151816000019080519060200190611042929190611f31565b50602082015181600101556040820151816002019080519060200190611069929190611f31565b5090505060008160060160006101000a81548160ff021916908315150217905550828160070190805190602001906110a2929190611fb1565b5081816008018190555060008160090160006101000a81548160ff021916908315150217905550338160090160016101000a81548173ffffffffffffffffffffffffffffffffffffffff021916908373ffffffffffffffffffffffffffffffffffffffff1602179055503381600a0160006101000a81548173ffffffffffffffffffffffffffffffffffffffff021916908373ffffffffffffffffffffffffffffffffffffffff1602179055507f445a237480101801c7279126ab9a90d44d27d2a82c99ed070c7fc4ec45a6454681600001548260010154836003016000018460030160010154856003016002018660060160009054906101000a900460ff168760070188600801548960090160009054906101000a900460ff168a60090160019054906101000a900473ffffffffffffffffffffffffffffffffffffffff168b600a0160009054906101000a900473ffffffffffffffffffffffffffffffffffffffff16604051808c81526020018b8152602001806020018a8152602001806020018915151515815260200180602001888152602001871515151581526020018673ffffffffffffffffffffffffffffffffffffffff1673ffffffffffffffffffffffffffffffffffffffff1681526020018573ffffffffffffffffffffffffffffffffffffffff1673ffffffffffffffffffffffffffffffffffffffff16815260200184810384528d8181546001816001161561010002031660029004815260200191508054600181600116156101000203166002900480156113285780601f106112fd57610100808354040283529160200191611328565b820191906000526020600020905b81548152906001019060200180831161130b57829003601f168201915b505084810383528b8181546001816001161561010002031660029004815260200191508054600181600116156101000203166002900480156113ab5780601f10611380576101008083540402835291602001916113ab565b820191906000526020600020905b81548152906001019060200180831161138e57829003601f168201915b505084810382528981815460018160011615610100020316600290048152602001915080546001816001161561010002031660029004801561142e5780601f106114035761010080835404028352916020019161142e565b820191906000526020600020905b81548152906001019060200180831161141157829003601f168201915b50509e50505050505050505050505050505060405180910390a150505050505050565b6000600160008381526020019081526020016000209050600081600001541180156114825750600054816000015411155b151561151c576040517f08c379a00000000000000000000000000000000000000000000000000000000081526004018080602001828103825260238152602001807fc3897276c3a96e7974656c656e206472c3a167616bc59120617a6f6e6f73c3ad81526020017f74c3b3000000000000000000000000000000000000000000000000000000000081525060400191505060405180910390fd5b3373ffffffffffffffffffffffffffffffffffffffff168160090160019054906101000a900473ffffffffffffffffffffffffffffffffffffffff1673ffffffffffffffffffffffffffffffffffffffff16141515156115e4576040517f08c379a000000000000000000000000000000000000000000000000000000000815260040180806020018281038252601b8152602001807f4dc3a1722061207469c3a96420657a2061206472c3a167616bc591000000000081525060200191505060405180910390fd5b80600801543410151515611660576040517f08c379a00000000000000000000000000000000000000000000000000000000081526004018080602001828103825260158152602001807f4e696e637320656c6567656e64c5912070c3a96e7a000000000000000000000081525060200191505060405180910390fd5b8060090160019054906101000a900473ffffffffffffffffffffffffffffffffffffffff1673ffffffffffffffffffffffffffffffffffffffff166108fc349081150290604051600060405180830381858888f193505050501580156116ca573d6000803e3d6000fd5b50338160090160016101000a81548173ffffffffffffffffffffffffffffffffffffffff021916908373ffffffffffffffffffffffffffffffffffffffff16021790555060008160060160006101000a81548160ff0219169083151502179055507f8076106cac5f36db86be6805a7605dbb127d47126ab3f3c0142bde010a06d4a481600001548260010154836003016000018460030160010154856003016002018660060160009054906101000a900460ff168760070188600801548960090160009054906101000a900460ff168a60090160019054906101000a900473ffffffffffffffffffffffffffffffffffffffff168b600a0160009054906101000a900473ffffffffffffffffffffffffffffffffffffffff16604051808c81526020018b8152602001806020018a8152602001806020018915151515815260200180602001888152602001871515151581526020018673ffffffffffffffffffffffffffffffffffffffff1673ffffffffffffffffffffffffffffffffffffffff1681526020018573ffffffffffffffffffffffffffffffffffffffff1673ffffffffffffffffffffffffffffffffffffffff16815260200184810384528d8181546001816001161561010002031660029004815260200191508054600181600116156101000203166002900480156119045780601f106118d957610100808354040283529160200191611904565b820191906000526020600020905b8154815290600101906020018083116118e757829003601f168201915b505084810383528b8181546001816001161561010002031660029004815260200191508054600181600116156101000203166002900480156119875780601f1061195c57610100808354040283529160200191611987565b820191906000526020600020905b81548152906001019060200180831161196a57829003601f168201915b5050848103825289818154600181600116156101000203166002900481526020019150805460018160011615610100020316600290048015611a0a5780601f106119df57610100808354040283529160200191611a0a565b820191906000526020600020905b8154815290600101906020018083116119ed57829003601f168201915b50509e50505050505050505050505050505060405180910390a15050565b600060016000848152602001908152602001600020905060008160000154111515611abb576040517f08c379a00000000000000000000000000000000000000000000000000000000081526004018080602001828103825260138152602001807f47656d20646f6573206e6f742065786973742e0000000000000000000000000081525060200191505060405180910390fd5b818160020181905550505050565b600060016000838152602001908152602001600020905060008160000154118015611afa5750600054816000015411155b1515611b6e576040517f08c379a000000000000000000000000000000000000000000000000000000000815260040180806020018281038252600e8152602001807f496e76616c69642067656d20494400000000000000000000000000000000000081525060200191505060405180910390fd5b600015158160090160009054906101000a900460ff161515141515611bfb576040517f08c379a00000000000000000000000000000000000000000000000000000000081526004018080602001828103825260108152602001807f47656d20616c726561647920757365640000000000000000000000000000000081525060200191505060405180910390fd5b60018160090160006101000a81548160ff0219169083151502179055507ff1de1ab82c98c327ab725830bc926c05de1c2d267bfddf867e9e437690ad8f4e828260010154836003016000018460030160010154856003016002018660060160009054906101000a900460ff168760070188600801548960090160009054906101000a900460ff168a60090160019054906101000a900473ffffffffffffffffffffffffffffffffffffffff168b600a0160009054906101000a900473ffffffffffffffffffffffffffffffffffffffff16604051808c81526020018b8152602001806020018a8152602001806020018915151515815260200180602001888152602001871515151581526020018673ffffffffffffffffffffffffffffffffffffffff1673ffffffffffffffffffffffffffffffffffffffff1681526020018573ffffffffffffffffffffffffffffffffffffffff1673ffffffffffffffffffffffffffffffffffffffff16815260200184810384528d818154600181600116156101000203166002900481526020019150805460018160011615610100020316600290048015611ded5780601f10611dc257610100808354040283529160200191611ded565b820191906000526020600020905b815481529060010190602001808311611dd057829003601f168201915b505084810383528b818154600181600116156101000203166002900481526020019150805460018160011615610100020316600290048015611e705780601f10611e4557610100808354040283529160200191611e70565b820191906000526020600020905b815481529060010190602001808311611e5357829003601f168201915b5050848103825289818154600181600116156101000203166002900481526020019150805460018160011615610100020316600290048015611ef35780601f10611ec857610100808354040283529160200191611ef3565b820191906000526020600020905b815481529060010190602001808311611ed657829003601f168201915b50509e50505050505050505050505050505060405180910390a15050565b60036020528060005260406000206000915054906101000a900460ff1681565b828054600181600116156101000203166002900490600052602060002090601f016020900481019282601f10611f7257805160ff1916838001178555611fa0565b82800160010185558215611fa0579182015b82811115611f9f578251825591602001919060010190611f84565b5b509050611fad9190612031565b5090565b828054600181600116156101000203166002900490600052602060002090601f016020900481019282601f10611ff257805160ff1916838001178555612020565b82800160010185558215612020579182015b8281111561201f578251825591602001919060010190612004565b5b50905061202d9190612031565b5090565b61205391905b8082111561204f576000816000905550600101612037565b5090565b9056fea165627a7a723058202d6b2b0b8084a82bf757a4972f93e27c59232012a7465421eec86426312f95390029",
  "source": "pragma solidity >=0.4.21 <0.6.0;\r\n\r\ninterface IGemstoneExtraction {\r\n    function minedGems(uint) external view returns (uint id, string memory gemType, uint weight, uint height, uint width, uint price, string memory miningLocation, uint miningYear, bool selected, string memory extractionMethod, address payable owner, bool purchased);\r\n}\r\n\r\ncontract GemstoneSelecting {\r\n    uint public selectedGemCount = 0;\r\n    mapping (uint => SelectedGem) private selectedGems;\r\n    IGemstoneExtraction gemstoneExtraction;\r\n    mapping(uint => bool) public selectedMinedGems;\r\n\r\n    struct GemDetails {\r\n        string size;\r\n        uint carat;\r\n        string colorGemType; \r\n    }\r\n\r\n    struct SelectedGem {\r\n        uint id;\r\n        uint minedGemId;\r\n        uint previousGemId;\r\n        GemDetails details;\r\n        bool forSale;\r\n        string fileURL;\r\n        uint price;\r\n        bool used;\r\n        address payable owner;\r\n        address payable gemCutter;\r\n    }\r\n\r\n    event GemSelecting(\r\n        uint id,\r\n        uint minedGemId,\r\n        string size,\r\n        uint carat,\r\n        string colorGemType,\r\n        bool forSale,\r\n        string fileURL,\r\n        uint price,\r\n        bool used,\r\n        address payable owner,\r\n        address payable gemCutter\r\n    );\r\n\r\n    event PolishGem(\r\n        uint id,\r\n        uint minedGemId,\r\n        string size,\r\n        uint carat,\r\n        string colorGemType, // Combined color and gem type\r\n        bool forSale,\r\n        string fileURL,\r\n        uint price,\r\n        bool used,\r\n        address payable owner,\r\n        address payable gemCutter\r\n    );\r\n    event MarkGemAsUsed(\r\n        uint id,\r\n        uint minedGemId,\r\n        string size,\r\n        uint carat,\r\n        string colorGemType, // Combined color and gem type\r\n        bool forSale,\r\n        string fileURL,\r\n        uint price,\r\n        bool used,\r\n        address payable owner,\r\n        address payable gemCutter\r\n    );\r\n    event TransferGemOwnership(\r\n        uint id,\r\n        uint minedGemId,\r\n        string size,\r\n        uint carat,\r\n        string colorGemType, // Combined color and gem type\r\n        bool forSale,\r\n        string fileURL,\r\n        uint price,\r\n        bool used,\r\n        address payable owner,\r\n        address payable gemCutter\r\n    );\r\n    constructor(address _gemstoneExtractionAddress) public {\r\n        gemstoneExtraction = IGemstoneExtraction(_gemstoneExtractionAddress);\r\n    }\r\n\r\n    function setPreviousGemId(uint gemId, uint previousGemId) public {\r\n        SelectedGem storage gem = selectedGems[gemId];\r\n        require(gem.id > 0, \"Gem does not exist.\");\r\n        gem.previousGemId = previousGemId;\r\n    }\r\n\r\n    function gemSelecting(\r\n        uint _minedGemId,\r\n        string memory _size,\r\n        uint _carat,\r\n        string memory _colorGemType, // Combined color and gem type\r\n        string memory _fileURL,\r\n        uint _price\r\n    ) public {\r\n        selectedGemCount++;\r\n        SelectedGem storage gem = selectedGems[_minedGemId];\r\n        gem.id = _minedGemId;\r\n        gem.minedGemId = _minedGemId;\r\n        gem.details = GemDetails({\r\n            size: _size,\r\n            carat: _carat,\r\n            colorGemType: _colorGemType // Combined color and gem type\r\n        });\r\n        gem.forSale = false;\r\n        gem.fileURL = _fileURL;\r\n        gem.price = _price;\r\n        gem.used = false;\r\n        gem.owner = msg.sender;\r\n        gem.gemCutter = msg.sender;\r\n\r\n        emit GemSelecting(\r\n            gem.id,\r\n            gem.minedGemId,\r\n            gem.details.size,\r\n            gem.details.carat,\r\n            gem.details.colorGemType, // Combined color and gem type\r\n            gem.forSale,\r\n            gem.fileURL,\r\n            gem.price,\r\n            gem.used,\r\n            gem.owner,\r\n            gem.gemCutter\r\n        );\r\n    }\r\n\r\n    function polishGem(uint _id) public payable {\r\n        SelectedGem storage _selectedGem = selectedGems[_id];\r\n        _selectedGem.forSale = !_selectedGem.forSale;\r\n\r\n        emit PolishGem(\r\n            _selectedGem.id,\r\n            _selectedGem.minedGemId,\r\n            _selectedGem.details.size,\r\n            _selectedGem.details.carat,\r\n            _selectedGem.details.colorGemType, // Combined color and gem type\r\n            _selectedGem.forSale,\r\n            _selectedGem.fileURL,\r\n            _selectedGem.price,\r\n            _selectedGem.used,\r\n            _selectedGem.owner,\r\n            _selectedGem.gemCutter\r\n        );\r\n    }\r\n\r\n    function markGemAsUsed(uint _id) public {\r\n        SelectedGem storage _selectedGem = selectedGems[_id];\r\n        require(_selectedGem.id > 0 && _selectedGem.id <= selectedGemCount, \"Invalid gem ID\");\r\n        require(_selectedGem.used == false, \"Gem already used\");\r\n        _selectedGem.used = true;\r\n\r\n        emit MarkGemAsUsed(\r\n            _id,\r\n            _selectedGem.minedGemId,\r\n            _selectedGem.details.size,\r\n            _selectedGem.details.carat,\r\n            _selectedGem.details.colorGemType, // Combined color and gem type\r\n            _selectedGem.forSale,\r\n            _selectedGem.fileURL,\r\n            _selectedGem.price,\r\n            _selectedGem.used,\r\n            _selectedGem.owner,\r\n            _selectedGem.gemCutter\r\n        );\r\n    }\r\n\r\n    function getSelectedGemsCountByOwner(address _owner) public view returns (uint) {\r\n        uint count = 0;\r\n        for (uint i = 1; i <= selectedGemCount; i++) {\r\n            if (selectedGems[i].owner == _owner) {\r\n                count++;\r\n            }\r\n        }\r\n        return count;\r\n    }\r\n\r\n    function transferGemOwnership(uint _id) public payable {\r\n         SelectedGem storage _selectedGem = selectedGems[_id];\r\n        require(_selectedGem.id > 0 && _selectedGem.id <= selectedGemCount, \"rvnytelen drgak azonost\");\r\n        require(_selectedGem.owner != msg.sender, \"Mr a tid ez a drgak\");\r\n        require(msg.value >= _selectedGem.price, \"Nincs elegend pnz\");\r\n\r\n        _selectedGem.owner.transfer(msg.value);\r\n\r\n        _selectedGem.owner = msg.sender;\r\n        _selectedGem.forSale = false;\r\n\r\n        emit TransferGemOwnership(\r\n            _selectedGem.id,\r\n            _selectedGem.minedGemId,\r\n            _selectedGem.details.size,\r\n            _selectedGem.details.carat,\r\n            _selectedGem.details.colorGemType, \r\n            _selectedGem.forSale,\r\n            _selectedGem.fileURL,\r\n            _selectedGem.price,\r\n            _selectedGem.used,\r\n            _selectedGem.owner,\r\n            _selectedGem.gemCutter\r\n        );\r\n}\r\n\r\n    // Public getter for selectedGems\r\n    function getSelectedGem(uint _id) public view returns (\r\n        uint id,\r\n        uint minedGemId,\r\n        uint previousGemId,\r\n        string memory size,\r\n        uint carat,\r\n        string memory colorGemType, // Combined color and gem type\r\n        bool forSale,\r\n        string memory fileURL,\r\n        uint price,\r\n        bool used,\r\n        address owner,\r\n        address gemCutter\r\n    ) {\r\n        SelectedGem storage gem = selectedGems[_id];\r\n        return (\r\n            gem.id,\r\n            gem.minedGemId,\r\n            gem.previousGemId,\r\n            gem.details.size,\r\n            gem.details.carat,\r\n            gem.details.colorGemType, // Combined color and gem type\r\n            gem.forSale,\r\n            gem.fileURL,\r\n            gem.price,\r\n            gem.used,\r\n            gem.owner,\r\n            gem.gemCutter\r\n        );\r\n    }\r\n\r\n    function getGemDetails(uint _id) public view returns (\r\n        uint id,\r\n        uint minedGemId,\r\n        uint previousGemId,\r\n        string memory size,\r\n        uint carat,\r\n        string memory colorGemType,\r\n        bool forSale,\r\n        string memory fileURL,\r\n        uint price,\r\n        bool used,\r\n        address owner,\r\n        address gemCutter\r\n    ) {\r\n        return getSelectedGem(_id);\r\n    }\r\n}\r\n",
  "sourcePath": "C:/Users/berke/asd/jewRoundx/src/contracts/GemstoneSelecting.sol",
  "compiler": {
    "name": "solc",
    "version": "0.5.0+commit.1d4f565a.Emscripten.clang"
  },
  "schemaVersion": "3.0.1",
  "updatedAt": "2024-11-17T11:43:36.097Z",
  "devdoc": {
    "methods": {}
  },
  "userdoc": {
    "methods": {}
  }
}