{
  "contractName": "GemstoneExtraction",
  "abi": [
    {
      "constant": true,
      "inputs": [],
      "name": "name",
      "outputs": [
        {
          "name": "",
          "type": "string"
        }
      ],
      "payable": false,
      "stateMutability": "view",
      "type": "function"
    },
    {
      "constant": true,
      "inputs": [
        {
          "name": "",
          "type": "uint256"
        }
      ],
      "name": "minedGems",
      "outputs": [
        {
          "name": "id",
          "type": "uint256"
        },
        {
          "name": "gemType",
          "type": "string"
        },
        {
          "name": "details",
          "type": "string"
        },
        {
          "name": "price",
          "type": "uint256"
        },
        {
          "name": "miningLocation",
          "type": "string"
        },
        {
          "name": "miningYear",
          "type": "uint256"
        },
        {
          "name": "selected",
          "type": "bool"
        },
        {
          "name": "miner",
          "type": "address"
        },
        {
          "name": "owner",
          "type": "address"
        },
        {
          "name": "fileURL",
          "type": "string"
        },
        {
          "name": "purchased",
          "type": "bool"
        }
      ],
      "payable": false,
      "stateMutability": "view",
      "type": "function"
    },
    {
      "constant": true,
      "inputs": [],
      "name": "minedGemCount",
      "outputs": [
        {
          "name": "",
          "type": "uint256"
        }
      ],
      "payable": false,
      "stateMutability": "view",
      "type": "function"
    },
    {
      "inputs": [],
      "payable": false,
      "stateMutability": "nonpayable",
      "type": "constructor"
    },
    {
      "anonymous": false,
      "inputs": [
        {
          "indexed": false,
          "name": "id",
          "type": "uint256"
        },
        {
          "indexed": false,
          "name": "gemType",
          "type": "string"
        },
        {
          "indexed": false,
          "name": "details",
          "type": "string"
        },
        {
          "indexed": false,
          "name": "price",
          "type": "uint256"
        },
        {
          "indexed": false,
          "name": "miningLocation",
          "type": "string"
        },
        {
          "indexed": false,
          "name": "miningYear",
          "type": "uint256"
        },
        {
          "indexed": false,
          "name": "selected",
          "type": "bool"
        },
        {
          "indexed": false,
          "name": "miner",
          "type": "address"
        },
        {
          "indexed": false,
          "name": "owner",
          "type": "address"
        },
        {
          "indexed": false,
          "name": "fileURL",
          "type": "string"
        },
        {
          "indexed": false,
          "name": "purchased",
          "type": "bool"
        }
      ],
      "name": "GemMining",
      "type": "event"
    },
    {
      "anonymous": false,
      "inputs": [
        {
          "indexed": false,
          "name": "id",
          "type": "uint256"
        },
        {
          "indexed": false,
          "name": "gemType",
          "type": "string"
        },
        {
          "indexed": false,
          "name": "details",
          "type": "string"
        },
        {
          "indexed": false,
          "name": "price",
          "type": "uint256"
        },
        {
          "indexed": false,
          "name": "miningLocation",
          "type": "string"
        },
        {
          "indexed": false,
          "name": "miningYear",
          "type": "uint256"
        },
        {
          "indexed": false,
          "name": "selected",
          "type": "bool"
        },
        {
          "indexed": false,
          "name": "miner",
          "type": "address"
        },
        {
          "indexed": false,
          "name": "owner",
          "type": "address"
        },
        {
          "indexed": false,
          "name": "fileURL",
          "type": "string"
        },
        {
          "indexed": false,
          "name": "purchased",
          "type": "bool"
        }
      ],
      "name": "GemProcessing",
      "type": "event"
    },
    {
      "anonymous": false,
      "inputs": [
        {
          "indexed": false,
          "name": "id",
          "type": "uint256"
        },
        {
          "indexed": false,
          "name": "gemType",
          "type": "string"
        },
        {
          "indexed": false,
          "name": "details",
          "type": "string"
        },
        {
          "indexed": false,
          "name": "price",
          "type": "uint256"
        },
        {
          "indexed": false,
          "name": "miningLocation",
          "type": "string"
        },
        {
          "indexed": false,
          "name": "miningYear",
          "type": "uint256"
        },
        {
          "indexed": false,
          "name": "selected",
          "type": "bool"
        },
        {
          "indexed": false,
          "name": "miner",
          "type": "address"
        },
        {
          "indexed": false,
          "name": "owner",
          "type": "address"
        },
        {
          "indexed": false,
          "name": "fileURL",
          "type": "string"
        },
        {
          "indexed": false,
          "name": "purchased",
          "type": "bool"
        }
      ],
      "name": "GemPurchased",
      "type": "event"
    },
    {
      "anonymous": false,
      "inputs": [
        {
          "indexed": false,
          "name": "id",
          "type": "uint256"
        },
        {
          "indexed": false,
          "name": "gemType",
          "type": "string"
        },
        {
          "indexed": false,
          "name": "details",
          "type": "string"
        },
        {
          "indexed": false,
          "name": "price",
          "type": "uint256"
        },
        {
          "indexed": false,
          "name": "miningLocation",
          "type": "string"
        },
        {
          "indexed": false,
          "name": "miningYear",
          "type": "uint256"
        },
        {
          "indexed": false,
          "name": "selected",
          "type": "bool"
        },
        {
          "indexed": false,
          "name": "miner",
          "type": "address"
        },
        {
          "indexed": false,
          "name": "owner",
          "type": "address"
        },
        {
          "indexed": false,
          "name": "fileURL",
          "type": "string"
        },
        {
          "indexed": false,
          "name": "purchased",
          "type": "bool"
        }
      ],
      "name": "GemSelected",
      "type": "event"
    },
    {
      "anonymous": false,
      "inputs": [
        {
          "indexed": false,
          "name": "id",
          "type": "uint256"
        },
        {
          "indexed": false,
          "name": "gemType",
          "type": "string"
        },
        {
          "indexed": false,
          "name": "details",
          "type": "string"
        },
        {
          "indexed": false,
          "name": "price",
          "type": "uint256"
        },
        {
          "indexed": false,
          "name": "miningLocation",
          "type": "string"
        },
        {
          "indexed": false,
          "name": "miningYear",
          "type": "uint256"
        },
        {
          "indexed": false,
          "name": "selected",
          "type": "bool"
        },
        {
          "indexed": false,
          "name": "miner",
          "type": "address"
        },
        {
          "indexed": false,
          "name": "owner",
          "type": "address"
        },
        {
          "indexed": false,
          "name": "fileURL",
          "type": "string"
        },
        {
          "indexed": false,
          "name": "purchased",
          "type": "bool"
        }
      ],
      "name": "MarkNewOwner",
      "type": "event"
    },
    {
      "anonymous": false,
      "inputs": [
        {
          "indexed": false,
          "name": "id",
          "type": "uint256"
        },
        {
          "indexed": false,
          "name": "gemType",
          "type": "string"
        },
        {
          "indexed": false,
          "name": "details",
          "type": "string"
        },
        {
          "indexed": false,
          "name": "price",
          "type": "uint256"
        },
        {
          "indexed": false,
          "name": "miningLocation",
          "type": "string"
        },
        {
          "indexed": false,
          "name": "miningYear",
          "type": "uint256"
        },
        {
          "indexed": false,
          "name": "selected",
          "type": "bool"
        },
        {
          "indexed": false,
          "name": "miner",
          "type": "address"
        },
        {
          "indexed": false,
          "name": "owner",
          "type": "address"
        },
        {
          "indexed": false,
          "name": "fileURL",
          "type": "string"
        },
        {
          "indexed": false,
          "name": "purchased",
          "type": "bool"
        }
      ],
      "name": "MarkGemAsSelected",
      "type": "event"
    },
    {
      "anonymous": false,
      "inputs": [
        {
          "indexed": false,
          "name": "id",
          "type": "uint256"
        },
        {
          "indexed": false,
          "name": "gemType",
          "type": "string"
        },
        {
          "indexed": false,
          "name": "details",
          "type": "string"
        },
        {
          "indexed": false,
          "name": "price",
          "type": "uint256"
        },
        {
          "indexed": false,
          "name": "miningLocation",
          "type": "string"
        },
        {
          "indexed": false,
          "name": "miningYear",
          "type": "uint256"
        },
        {
          "indexed": false,
          "name": "selected",
          "type": "bool"
        },
        {
          "indexed": false,
          "name": "miner",
          "type": "address"
        },
        {
          "indexed": false,
          "name": "owner",
          "type": "address"
        },
        {
          "indexed": false,
          "name": "fileURL",
          "type": "string"
        },
        {
          "indexed": false,
          "name": "purchased",
          "type": "bool"
        }
      ],
      "name": "TransferGemOwnership",
      "type": "event"
    },
    {
      "constant": false,
      "inputs": [
        {
          "name": "_gemType",
          "type": "string"
        },
        {
          "name": "_details",
          "type": "string"
        },
        {
          "name": "_price",
          "type": "uint256"
        },
        {
          "name": "_miningLocation",
          "type": "string"
        },
        {
          "name": "_miningYear",
          "type": "uint256"
        },
        {
          "name": "_fileURL",
          "type": "string"
        },
        {
          "name": "_purchased",
          "type": "bool"
        }
      ],
      "name": "gemMining",
      "outputs": [],
      "payable": false,
      "stateMutability": "nonpayable",
      "type": "function"
    },
    {
      "constant": false,
      "inputs": [
        {
          "name": "_id",
          "type": "uint256"
        }
      ],
      "name": "purchaseGem",
      "outputs": [],
      "payable": true,
      "stateMutability": "payable",
      "type": "function"
    },
    {
      "constant": false,
      "inputs": [
        {
          "name": "_id",
          "type": "uint256"
        }
      ],
      "name": "processingGem",
      "outputs": [],
      "payable": false,
      "stateMutability": "nonpayable",
      "type": "function"
    },
    {
      "constant": false,
      "inputs": [
        {
          "name": "_id",
          "type": "uint256"
        }
      ],
      "name": "markNewOwner",
      "outputs": [],
      "payable": true,
      "stateMutability": "payable",
      "type": "function"
    },
    {
      "constant": false,
      "inputs": [
        {
          "name": "_id",
          "type": "uint256"
        }
      ],
      "name": "markGemAsSelected",
      "outputs": [],
      "payable": true,
      "stateMutability": "payable",
      "type": "function"
    },
    {
      "constant": true,
      "inputs": [
        {
          "name": "_owner",
          "type": "address"
        }
      ],
      "name": "getGemstoneCountByOrder",
      "outputs": [
        {
          "name": "",
          "type": "uint256"
        }
      ],
      "payable": false,
      "stateMutability": "view",
      "type": "function"
    }
  ],
  "bytecode": "0x608060405260006001553480156200001657600080fd5b506040805190810160405280600181526020017f780000000000000000000000000000000000000000000000000000000000000081525060009080519060200190620000649291906200006b565b506200011a565b828054600181600116156101000203166002900490600052602060002090601f016020900481019282601f10620000ae57805160ff1916838001178555620000df565b82800160010185558215620000df579182015b82811115620000de578251825591602001919060010190620000c1565b5b509050620000ee9190620000f2565b5090565b6200011791905b8082111562000113576000816000905550600101620000f9565b5090565b90565b612953806200012a6000396000f3fe608060405260043610610099576000357c0100000000000000000000000000000000000000000000000000000000900463ffffffff16806306fdde031461009e5780631e166c4e1461012e57806330d559fa146103b7578063477b18b3146103e557806353cdc2441461044a5780639b8efcd914610478578063b91965f8146104a6578063bf38b7a214610753578063d0cfe11e1461078e575b600080fd5b3480156100aa57600080fd5b506100b36107b9565b6040518080602001828103825283818151815260200191508051906020019080838360005b838110156100f35780820151818401526020810190506100d8565b50505050905090810190601f1680156101205780820380516001836020036101000a031916815260200191505b509250505060405180910390f35b34801561013a57600080fd5b506101676004803603602081101561015157600080fd5b8101908080359060200190929190505050610857565b604051808c815260200180602001806020018b8152602001806020018a8152602001891515151581526020018873ffffffffffffffffffffffffffffffffffffffff1673ffffffffffffffffffffffffffffffffffffffff1681526020018773ffffffffffffffffffffffffffffffffffffffff1673ffffffffffffffffffffffffffffffffffffffff168152602001806020018615151515815260200185810385528f818151815260200191508051906020019080838360005b8381101561023d578082015181840152602081019050610222565b50505050905090810190601f16801561026a5780820380516001836020036101000a031916815260200191505b5085810384528e818151815260200191508051906020019080838360005b838110156102a3578082015181840152602081019050610288565b50505050905090810190601f1680156102d05780820380516001836020036101000a031916815260200191505b5085810383528c818151815260200191508051906020019080838360005b838110156103095780820151818401526020810190506102ee565b50505050905090810190601f1680156103365780820380516001836020036101000a031916815260200191505b50858103825287818151815260200191508051906020019080838360005b8381101561036f578082015181840152602081019050610354565b50505050905090810190601f16801561039c5780820380516001836020036101000a031916815260200191505b509f5050505050505050505050505050505060405180910390f35b6103e3600480360360208110156103cd57600080fd5b8101908080359060200190929190505050610b6b565b005b3480156103f157600080fd5b506104346004803603602081101561040857600080fd5b81019080803573ffffffffffffffffffffffffffffffffffffffff1690602001909291905050506111db565b6040518082815260200191505060405180910390f35b6104766004803603602081101561046057600080fd5b810190808035906020019092919050505061127e565b005b6104a46004803603602081101561048e57600080fd5b81019080803590602001909291905050506117e1565b005b3480156104b257600080fd5b50610751600480360360e08110156104c957600080fd5b81019080803590602001906401000000008111156104e657600080fd5b8201836020820111156104f857600080fd5b8035906020019184600183028401116401000000008311171561051a57600080fd5b91908080601f016020809104026020016040519081016040528093929190818152602001838380828437600081840152601f19601f8201169050808301925050505050505091929192908035906020019064010000000081111561057d57600080fd5b82018360208201111561058f57600080fd5b803590602001918460018302840111640100000000831117156105b157600080fd5b91908080601f016020809104026020016040519081016040528093929190818152602001838380828437600081840152601f19601f820116905080830192505050505050509192919290803590602001909291908035906020019064010000000081111561061e57600080fd5b82018360208201111561063057600080fd5b8035906020019184600183028401116401000000008311171561065257600080fd5b91908080601f016020809104026020016040519081016040528093929190818152602001838380828437600081840152601f19601f82011690508083019250505050505050919291929080359060200190929190803590602001906401000000008111156106bf57600080fd5b8201836020820111156106d157600080fd5b803590602001918460018302840111640100000000831117156106f357600080fd5b91908080601f016020809104026020016040519081016040528093929190818152602001838380828437600081840152601f19601f820116905080830192505050505050509192919290803515159060200190929190505050611bde565b005b34801561075f57600080fd5b5061078c6004803603602081101561077657600080fd5b81019080803590602001909291905050506122f3565b005b34801561079a57600080fd5b506107a361287c565b6040518082815260200191505060405180910390f35b60008054600181600116156101000203166002900480601f01602080910402602001604051908101604052809291908181526020018280546001816001161561010002031660029004801561084f5780601f106108245761010080835404028352916020019161084f565b820191906000526020600020905b81548152906001019060200180831161083257829003601f168201915b505050505081565b6002602052806000526040600020600091509050806000015490806001018054600181600116156101000203166002900480601f0160208091040260200160405190810160405280929190818152602001828054600181600116156101000203166002900480156109095780601f106108de57610100808354040283529160200191610909565b820191906000526020600020905b8154815290600101906020018083116108ec57829003601f168201915b505050505090806002018054600181600116156101000203166002900480601f0160208091040260200160405190810160405280929190818152602001828054600181600116156101000203166002900480156109a75780601f1061097c576101008083540402835291602001916109a7565b820191906000526020600020905b81548152906001019060200180831161098a57829003601f168201915b505050505090806003015490806004018054600181600116156101000203166002900480601f016020809104026020016040519081016040528092919081815260200182805460018160011615610100020316600290048015610a4b5780601f10610a2057610100808354040283529160200191610a4b565b820191906000526020600020905b815481529060010190602001808311610a2e57829003601f168201915b5050505050908060050154908060060160009054906101000a900460ff16908060060160019054906101000a900473ffffffffffffffffffffffffffffffffffffffff16908060070160009054906101000a900473ffffffffffffffffffffffffffffffffffffffff1690806008018054600181600116156101000203166002900480601f016020809104026020016040519081016040528092919081815260200182805460018160011615610100020316600290048015610b4e5780601f10610b2357610100808354040283529160200191610b4e565b820191906000526020600020905b815481529060010190602001808311610b3157829003601f168201915b5050505050908060090160009054906101000a900460ff1690508b565b600060026000838152602001908152602001600020905060008160000154118015610b9c5750600154816000015411155b1515610c10576040517f08c379a000000000000000000000000000000000000000000000000000000000815260040180806020018281038252600e8152602001807f496e76616c69642067656d20494400000000000000000000000000000000000081525060200191505060405180910390fd5b600015158160060160009054906101000a900460ff161515141515610c9d576040517f08c379a00000000000000000000000000000000000000000000000000000000081526004018080602001828103825260148152602001807f47656d20616c72656164792073656c656374656400000000000000000000000081525060200191505060405180910390fd5b600115158160090160009054906101000a900460ff161515141515610d50576040517f08c379a00000000000000000000000000000000000000000000000000000000081526004018080602001828103825260268152602001807f47656d206d75737420626520707572636861736564206265666f72652073656c81526020017f656374696f6e000000000000000000000000000000000000000000000000000081525060400191505060405180910390fd5b80600301543410151515610dcc576040517f08c379a00000000000000000000000000000000000000000000000000000000081526004018080602001828103825260128152602001807f496e73756666696369656e742066756e6473000000000000000000000000000081525060200191505060405180910390fd5b8060060160019054906101000a900473ffffffffffffffffffffffffffffffffffffffff1673ffffffffffffffffffffffffffffffffffffffff166108fc349081150290604051600060405180830381858888f19350505050158015610e36573d6000803e3d6000fd5b50338160070160006101000a81548173ffffffffffffffffffffffffffffffffffffffff021916908373ffffffffffffffffffffffffffffffffffffffff1602179055507fdfa4fe8a7d54119af3849afae3b271040c57a1f8c40c59fe85cae40b4eaa526d828260010183600201846003015485600401866005015460018860060160019054906101000a900473ffffffffffffffffffffffffffffffffffffffff168960070160009054906101000a900473ffffffffffffffffffffffffffffffffffffffff168a6008018b60090160009054906101000a900460ff16604051808c815260200180602001806020018b8152602001806020018a8152602001891515151581526020018873ffffffffffffffffffffffffffffffffffffffff1673ffffffffffffffffffffffffffffffffffffffff1681526020018773ffffffffffffffffffffffffffffffffffffffff1673ffffffffffffffffffffffffffffffffffffffff168152602001806020018615151515815260200185810385528f8181546001816001161561010002031660029004815260200191508054600181600116156101000203166002900480156110335780601f1061100857610100808354040283529160200191611033565b820191906000526020600020905b81548152906001019060200180831161101657829003601f168201915b505085810384528e8181546001816001161561010002031660029004815260200191508054600181600116156101000203166002900480156110b65780601f1061108b576101008083540402835291602001916110b6565b820191906000526020600020905b81548152906001019060200180831161109957829003601f168201915b505085810383528c8181546001816001161561010002031660029004815260200191508054600181600116156101000203166002900480156111395780601f1061110e57610100808354040283529160200191611139565b820191906000526020600020905b81548152906001019060200180831161111c57829003601f168201915b50508581038252878181546001816001161561010002031660029004815260200191508054600181600116156101000203166002900480156111bc5780601f10611191576101008083540402835291602001916111bc565b820191906000526020600020905b81548152906001019060200180831161119f57829003601f168201915b50509f5050505050505050505050505050505060405180910390a15050565b600080600090506000600190505b60015481111515611274578373ffffffffffffffffffffffffffffffffffffffff166002600083815260200190815260200160002060070160009054906101000a900473ffffffffffffffffffffffffffffffffffffffff1673ffffffffffffffffffffffffffffffffffffffff1614156112675781806001019250505b80806001019150506111e9565b5080915050919050565b6000600260008381526020019081526020016000209050600081600001541180156112af5750600154816000015411155b1515611323576040517f08c379a000000000000000000000000000000000000000000000000000000000815260040180806020018281038252600e8152602001807f496e76616c69642067656d20494400000000000000000000000000000000000081525060200191505060405180910390fd5b600015158160060160009054906101000a900460ff1615151415156113b0576040517f08c379a00000000000000000000000000000000000000000000000000000000081526004018080602001828103825260148152602001807f47656d20616c72656164792073656c656374656400000000000000000000000081525060200191505060405180910390fd5b600115158160090160009054906101000a900460ff161515141515611463576040517f08c379a00000000000000000000000000000000000000000000000000000000081526004018080602001828103825260268152602001807f47656d206d75737420626520707572636861736564206265666f72652073656c81526020017f656374696f6e000000000000000000000000000000000000000000000000000081525060400191505060405180910390fd5b60018160060160006101000a81548160ff0219169083151502179055507f1fa57598384ac2421a670a27cde4e2f26c225812dfbcf89dfc2f466836b148f3828260010183600201846003015485600401866005015460018860060160019054906101000a900473ffffffffffffffffffffffffffffffffffffffff168960070160009054906101000a900473ffffffffffffffffffffffffffffffffffffffff168a6008018b60090160009054906101000a900460ff16604051808c815260200180602001806020018b8152602001806020018a8152602001891515151581526020018873ffffffffffffffffffffffffffffffffffffffff1673ffffffffffffffffffffffffffffffffffffffff1681526020018773ffffffffffffffffffffffffffffffffffffffff1673ffffffffffffffffffffffffffffffffffffffff168152602001806020018615151515815260200185810385528f8181546001816001161561010002031660029004815260200191508054600181600116156101000203166002900480156116395780601f1061160e57610100808354040283529160200191611639565b820191906000526020600020905b81548152906001019060200180831161161c57829003601f168201915b505085810384528e8181546001816001161561010002031660029004815260200191508054600181600116156101000203166002900480156116bc5780601f10611691576101008083540402835291602001916116bc565b820191906000526020600020905b81548152906001019060200180831161169f57829003601f168201915b505085810383528c81815460018160011615610100020316600290048152602001915080546001816001161561010002031660029004801561173f5780601f106117145761010080835404028352916020019161173f565b820191906000526020600020905b81548152906001019060200180831161172257829003601f168201915b50508581038252878181546001816001161561010002031660029004815260200191508054600181600116156101000203166002900480156117c25780601f10611797576101008083540402835291602001916117c2565b820191906000526020600020905b8154815290600101906020018083116117a557829003601f168201915b50509f5050505050505050505050505050505060405180910390a15050565b6000600260008381526020019081526020016000209050600081600001541180156118125750600154816000015411155b151561181d57600080fd5b600015158160090160009054906101000a900460ff16151514151561184157600080fd5b338160070160006101000a81548173ffffffffffffffffffffffffffffffffffffffff021916908373ffffffffffffffffffffffffffffffffffffffff16021790555060018160090160006101000a81548160ff0219169083151502179055507ffc807a956e3f68ebbaa343e66e9d8da0d8b7e5f4a3806f970184ea983d992fe1828260010183600201846003015485600401866005015460008860060160019054906101000a900473ffffffffffffffffffffffffffffffffffffffff16338a6008018b60090160009054906101000a900460ff16604051808c815260200180602001806020018b8152602001806020018a8152602001891515151581526020018873ffffffffffffffffffffffffffffffffffffffff1673ffffffffffffffffffffffffffffffffffffffff1681526020018773ffffffffffffffffffffffffffffffffffffffff1673ffffffffffffffffffffffffffffffffffffffff168152602001806020018615151515815260200185810385528f818154600181600116156101000203166002900481526020019150805460018160011615610100020316600290048015611a365780601f10611a0b57610100808354040283529160200191611a36565b820191906000526020600020905b815481529060010190602001808311611a1957829003601f168201915b505085810384528e818154600181600116156101000203166002900481526020019150805460018160011615610100020316600290048015611ab95780601f10611a8e57610100808354040283529160200191611ab9565b820191906000526020600020905b815481529060010190602001808311611a9c57829003601f168201915b505085810383528c818154600181600116156101000203166002900481526020019150805460018160011615610100020316600290048015611b3c5780601f10611b1157610100808354040283529160200191611b3c565b820191906000526020600020905b815481529060010190602001808311611b1f57829003601f168201915b5050858103825287818154600181600116156101000203166002900481526020019150805460018160011615610100020316600290048015611bbf5780601f10611b9457610100808354040283529160200191611bbf565b820191906000526020600020905b815481529060010190602001808311611ba257829003601f168201915b50509f5050505050505050505050505050505060405180910390a15050565b60008751111515611c57576040517f08c379a00000000000000000000000000000000000000000000000000000000081526004018080602001828103825260188152602001807f47656d20747970652063616e6e6f7420626520656d707479000000000000000081525060200191505060405180910390fd5b60008651111515611cd0576040517f08c379a00000000000000000000000000000000000000000000000000000000081526004018080602001828103825260178152602001807f64657461696c732063616e6e6f7420626520656d70747900000000000000000081525060200191505060405180910390fd5b600085111515611d48576040517f08c379a000000000000000000000000000000000000000000000000000000000815260040180806020018281038252601c8152602001807f5072696365206d7573742062652067726561746572207468616e20300000000081525060200191505060405180910390fd5b600083111515611de6576040517f08c379a00000000000000000000000000000000000000000000000000000000081526004018080602001828103825260228152602001807f4d696e696e672079656172206d7573742062652067726561746572207468616e81526020017f203000000000000000000000000000000000000000000000000000000000000081525060400191505060405180910390fd5b60008451111515611e5f576040517f08c379a000000000000000000000000000000000000000000000000000000000815260040180806020018281038252601f8152602001807f4d696e696e67206c6f636174696f6e2063616e6e6f7420626520656d7074790081525060200191505060405180910390fd5b6001600081548092919060010191905055506101606040519081016040528060015481526020018881526020018781526020018681526020018581526020018481526020016000151581526020013373ffffffffffffffffffffffffffffffffffffffff1681526020013373ffffffffffffffffffffffffffffffffffffffff168152602001838152602001821515815250600260006001548152602001908152602001600020600082015181600001556020820151816001019080519060200190611f2c929190612882565b506040820151816002019080519060200190611f49929190612882565b50606082015181600301556080820151816004019080519060200190611f70929190612882565b5060a0820151816005015560c08201518160060160006101000a81548160ff02191690831515021790555060e08201518160060160016101000a81548173ffffffffffffffffffffffffffffffffffffffff021916908373ffffffffffffffffffffffffffffffffffffffff1602179055506101008201518160070160006101000a81548173ffffffffffffffffffffffffffffffffffffffff021916908373ffffffffffffffffffffffffffffffffffffffff160217905550610120820151816008019080519060200190612047929190612882565b506101408201518160090160006101000a81548160ff0219169083151502179055509050507fedb63ea92bd1f2db0ce2c3ae2fa5dbdd59b5c47733daa4e4841dc7155aee5fd46001548888888888600033338b8b604051808c815260200180602001806020018b8152602001806020018a8152602001891515151581526020018873ffffffffffffffffffffffffffffffffffffffff1673ffffffffffffffffffffffffffffffffffffffff1681526020018773ffffffffffffffffffffffffffffffffffffffff1673ffffffffffffffffffffffffffffffffffffffff168152602001806020018615151515815260200185810385528f818151815260200191508051906020019080838360005b83811015612171578082015181840152602081019050612156565b50505050905090810190601f16801561219e5780820380516001836020036101000a031916815260200191505b5085810384528e818151815260200191508051906020019080838360005b838110156121d75780820151818401526020810190506121bc565b50505050905090810190601f1680156122045780820380516001836020036101000a031916815260200191505b5085810383528c818151815260200191508051906020019080838360005b8381101561223d578082015181840152602081019050612222565b50505050905090810190601f16801561226a5780820380516001836020036101000a031916815260200191505b50858103825287818151815260200191508051906020019080838360005b838110156122a3578082015181840152602081019050612288565b50505050905090810190601f1680156122d05780820380516001836020036101000a031916815260200191505b509f5050505050505050505050505050505060405180910390a150505050505050565b6000600260008381526020019081526020016000209050600081600001541180156123245750600154816000015411155b1515612398576040517f08c379a000000000000000000000000000000000000000000000000000000000815260040180806020018281038252600e8152602001807f496e76616c69642067656d20494400000000000000000000000000000000000081525060200191505060405180910390fd5b600115158160090160009054906101000a900460ff16151514151561244b576040517f08c379a00000000000000000000000000000000000000000000000000000000081526004018080602001828103825260278152602001807f47656d206d75737420626520707572636861736564206265666f72652070726f81526020017f63657373696e670000000000000000000000000000000000000000000000000081525060400191505060405180910390fd5b600015158160060160009054906101000a900460ff1615151415156124fe576040517f08c379a00000000000000000000000000000000000000000000000000000000081526004018080602001828103825260248152602001807f47656d20697320616c72656164792070726f636573736564206f722073656c6581526020017f637465640000000000000000000000000000000000000000000000000000000081525060400191505060405180910390fd5b60018160060160006101000a81548160ff0219169083151502179055507fb26ef7db0e0a13b7498f8c0a2e62b10c7bcb6e19508a5c617402e7b6fabd5598828260010183600201846003015485600401866005015460018860060160019054906101000a900473ffffffffffffffffffffffffffffffffffffffff168960070160009054906101000a900473ffffffffffffffffffffffffffffffffffffffff168a6008018b60090160009054906101000a900460ff16604051808c815260200180602001806020018b8152602001806020018a8152602001891515151581526020018873ffffffffffffffffffffffffffffffffffffffff1673ffffffffffffffffffffffffffffffffffffffff1681526020018773ffffffffffffffffffffffffffffffffffffffff1673ffffffffffffffffffffffffffffffffffffffff168152602001806020018615151515815260200185810385528f8181546001816001161561010002031660029004815260200191508054600181600116156101000203166002900480156126d45780601f106126a9576101008083540402835291602001916126d4565b820191906000526020600020905b8154815290600101906020018083116126b757829003601f168201915b505085810384528e8181546001816001161561010002031660029004815260200191508054600181600116156101000203166002900480156127575780601f1061272c57610100808354040283529160200191612757565b820191906000526020600020905b81548152906001019060200180831161273a57829003601f168201915b505085810383528c8181546001816001161561010002031660029004815260200191508054600181600116156101000203166002900480156127da5780601f106127af576101008083540402835291602001916127da565b820191906000526020600020905b8154815290600101906020018083116127bd57829003601f168201915b505085810382528781815460018160011615610100020316600290048152602001915080546001816001161561010002031660029004801561285d5780601f106128325761010080835404028352916020019161285d565b820191906000526020600020905b81548152906001019060200180831161284057829003601f168201915b50509f5050505050505050505050505050505060405180910390a15050565b60015481565b828054600181600116156101000203166002900490600052602060002090601f016020900481019282601f106128c357805160ff19168380011785556128f1565b828001600101855582156128f1579182015b828111156128f05782518255916020019190600101906128d5565b5b5090506128fe9190612902565b5090565b61292491905b80821115612920576000816000905550600101612908565b5090565b9056fea165627a7a723058207b1dac5724fe59fdef586c08dae885816ee2790279a07a1644197daa6803d5850029",
  "source": "pragma solidity >=0.4.21 <0.6.0;\r\n\r\ncontract GemstoneExtraction {\r\n    string public name;\r\n    uint public minedGemCount = 0;\r\n\r\n    mapping(uint => MinedGem) public minedGems;\r\n\r\n    enum PointOfProcessing {MINED, SALEOFMINEDPRODUCT, PREPARATION, PROCESSING}\r\n\r\n    struct MinedGem {\r\n        uint id;\r\n        string gemType;\r\n        string details;\r\n        uint price;\r\n        string miningLocation;\r\n        uint miningYear;\r\n        bool selected;\r\n        address payable miner; // A kibnysz szemly\r\n        address payable owner; // Az j tulajdonos\r\n        string fileURL;\r\n        bool purchased;\r\n    }\r\n\r\n    event GemMining(\r\n        uint id,\r\n        string gemType,\r\n        string details,\r\n        uint price,\r\n        string miningLocation,\r\n        uint miningYear,\r\n        bool selected,\r\n        address payable miner,\r\n        address payable owner,\r\n        string fileURL,\r\n        bool purchased\r\n    );\r\n\r\n    event GemProcessing(\r\n        uint id,\r\n        string gemType,\r\n        string details,\r\n        uint price,\r\n        string miningLocation,\r\n        uint miningYear,\r\n        bool selected,\r\n        address payable miner,\r\n        address payable owner,\r\n        string fileURL,\r\n        bool purchased\r\n    );\r\n\r\n    event GemPurchased(\r\n        uint id,\r\n        string gemType,\r\n        string details,\r\n        uint price,\r\n        string miningLocation,\r\n        uint miningYear,\r\n        bool selected,\r\n        address payable miner,\r\n        address payable owner,\r\n        string fileURL,\r\n        bool purchased\r\n    );\r\n\r\n    event GemSelected(\r\n        uint id,\r\n        string gemType,\r\n        string details,\r\n        uint price,\r\n        string miningLocation,\r\n        uint miningYear,\r\n        bool selected,\r\n        address payable miner,\r\n        address payable owner,\r\n        string fileURL,\r\n        bool purchased\r\n    );\r\n\r\n     event MarkNewOwner(\r\n        uint id,\r\n        string gemType,\r\n        string details,\r\n        uint price,\r\n        string miningLocation,\r\n        uint miningYear,\r\n        bool selected,\r\n        address payable miner,\r\n        address payable owner,\r\n        string fileURL,\r\n        bool purchased\r\n    );\r\n     event MarkGemAsSelected(\r\n        uint id,\r\n        string gemType,\r\n        string details,\r\n        uint price,\r\n        string miningLocation,\r\n        uint miningYear,\r\n        bool selected,\r\n        address payable miner,\r\n        address payable owner,\r\n        string fileURL,\r\n        bool purchased\r\n    );\r\n\r\n    event TransferGemOwnership(\r\n        uint id,\r\n        string gemType,\r\n        string details,\r\n        uint price,\r\n        string miningLocation,\r\n        uint miningYear,\r\n        bool selected,\r\n        address payable miner,\r\n        address payable owner,\r\n        string fileURL,\r\n        bool purchased\r\n    );\r\n\r\n    constructor() public {\r\n        name = \"x\";\r\n    }\r\n\r\n    function gemMining(\r\n        string memory _gemType,\r\n        string memory _details,\r\n        uint _price,\r\n        string memory _miningLocation,\r\n        uint _miningYear,\r\n        string memory _fileURL,\r\n        bool _purchased\r\n    ) public {\r\n        require(bytes(_gemType).length > 0, \"Gem type cannot be empty\");\r\n        require(bytes(_details).length > 0, \"details cannot be empty\");\r\n        require(_price > 0, \"Price must be greater than 0\");\r\n        require(_miningYear > 0, \"Mining year must be greater than 0\");\r\n        require(bytes(_miningLocation).length > 0, \"Mining location cannot be empty\");\r\n\r\n        minedGemCount++;\r\n        minedGems[minedGemCount] = MinedGem(\r\n            minedGemCount,\r\n            _gemType,\r\n            _details,\r\n            _price,\r\n            _miningLocation,\r\n            _miningYear,\r\n            false,\r\n            msg.sender, // Miner lesz az eredeti tulajdonos\r\n            msg.sender, // Az j tulajdonos mg nincs meghatrozva\r\n            _fileURL,\r\n            _purchased\r\n        );\r\n\r\n        emit GemMining(minedGemCount, _gemType, _details, _price, _miningLocation, _miningYear, false, msg.sender, msg.sender, _fileURL, _purchased);\r\n    }\r\n\r\n    function purchaseGem(uint _id) public payable {\r\n        MinedGem storage _minedGem = minedGems[_id];\r\n        require(_minedGem.id > 0 && _minedGem.id <= minedGemCount);\r\n        require(_minedGem.purchased == false);\r\n\r\n        _minedGem.owner = msg.sender; // Az j tulajdonos belltsa\r\n        _minedGem.purchased = true;\r\n\r\n        emit GemPurchased(_id, _minedGem.gemType, _minedGem.details, _minedGem.price, _minedGem.miningLocation, _minedGem.miningYear, false, _minedGem.miner, msg.sender, _minedGem.fileURL, _minedGem.purchased);\r\n    }\r\n\r\n    function processingGem(uint _id) public {\r\n        MinedGem storage _minedGem = minedGems[_id];\r\n        require(_minedGem.id > 0 && _minedGem.id <= minedGemCount, \"Invalid gem ID\");\r\n        require(_minedGem.purchased == true, \"Gem must be purchased before processing\");\r\n        require(_minedGem.selected == false, \"Gem is already processed or selected\");\r\n\r\n        _minedGem.selected = true;\r\n\r\n        emit GemProcessing(_id, _minedGem.gemType,  _minedGem.details, _minedGem.price, _minedGem.miningLocation, _minedGem.miningYear, true, _minedGem.miner, _minedGem.owner, _minedGem.fileURL, _minedGem.purchased);\r\n    }\r\n\r\n    function markNewOwner(uint _id) public payable {\r\n        MinedGem storage _minedGem = minedGems[_id];\r\n        require(_minedGem.id > 0 && _minedGem.id <= minedGemCount, \"Invalid gem ID\");\r\n        require(_minedGem.selected == false, \"Gem already selected\");\r\n        require(_minedGem.purchased == true, \"Gem must be purchased before selection\");\r\n        require(msg.value >= _minedGem.price, \"Insufficient funds\");\r\n\r\n        _minedGem.miner.transfer(msg.value);\r\n\r\n        _minedGem.owner = msg.sender;\r\n\r\n        emit MarkNewOwner(_id, _minedGem.gemType, _minedGem.details, _minedGem.price, _minedGem.miningLocation, _minedGem.miningYear, true, _minedGem.miner, _minedGem.owner, _minedGem.fileURL, _minedGem.purchased);\r\n    }\r\n\r\n     function markGemAsSelected(uint _id) public payable {\r\n        MinedGem storage _minedGem = minedGems[_id];\r\n        require(_minedGem.id > 0 && _minedGem.id <= minedGemCount, \"Invalid gem ID\");\r\n        require(_minedGem.selected == false, \"Gem already selected\");\r\n        require(_minedGem.purchased == true, \"Gem must be purchased before selection\");\r\n\r\n\r\n        _minedGem.selected = true;\r\n\r\n\r\n        emit MarkGemAsSelected(_id, _minedGem.gemType, _minedGem.details, _minedGem.price, _minedGem.miningLocation, _minedGem.miningYear, true, _minedGem.miner, _minedGem.owner, _minedGem.fileURL, _minedGem.purchased);\r\n    }\r\n\r\n    function getGemstoneCountByOrder(address _owner) public view returns (uint) {\r\n        uint count = 0;\r\n        for (uint i = 1; i <= minedGemCount; i++) {\r\n            if (minedGems[i].owner == _owner) {\r\n                count++;\r\n            }\r\n        }\r\n        return count;\r\n    }\r\n}",
  "sourcePath": "C:/Users/berke/jewRoundx/src/contracts/GemstoneExtraction.sol",
  "compiler": {
    "name": "solc",
    "version": "0.5.0+commit.1d4f565a.Emscripten.clang"
  },
  "schemaVersion": "3.0.1",
  "updatedAt": "2024-10-19T14:01:57.651Z",
  "devdoc": {
    "methods": {}
  },
  "userdoc": {
    "methods": {}
  }
}