{
  "contractName": "Jewelry",
  "abi": [
    {
      "constant": true,
      "inputs": [],
      "name": "jewelryCount",
      "outputs": [
        {
          "name": "",
          "type": "uint256"
        }
      ],
      "payable": false,
      "stateMutability": "view",
      "type": "function",
      "signature": "0x590091a2"
    },
    {
      "constant": true,
      "inputs": [
        {
          "name": "",
          "type": "uint256"
        }
      ],
      "name": "jewelry",
      "outputs": [
        {
          "name": "id",
          "type": "uint256"
        },
        {
          "name": "name",
          "type": "string"
        },
        {
          "name": "gemId",
          "type": "uint256"
        },
        {
          "name": "metal",
          "type": "string"
        },
        {
          "name": "size",
          "type": "string"
        },
        {
          "name": "sale",
          "type": "bool"
        },
        {
          "name": "price",
          "type": "uint256"
        },
        {
          "name": "fileURL",
          "type": "string"
        },
        {
          "name": "jeweler",
          "type": "address"
        },
        {
          "name": "owner",
          "type": "address"
        }
      ],
      "payable": false,
      "stateMutability": "view",
      "type": "function",
      "signature": "0xe1474e65"
    },
    {
      "inputs": [
        {
          "name": "_gemstoneSelectingAddress",
          "type": "address"
        }
      ],
      "payable": false,
      "stateMutability": "nonpayable",
      "type": "constructor",
      "signature": "constructor"
    },
    {
      "anonymous": false,
      "inputs": [
        {
          "indexed": false,
          "name": "id",
          "type": "uint256"
        },
        {
          "indexed": false,
          "name": "name",
          "type": "string"
        },
        {
          "indexed": false,
          "name": "gemId",
          "type": "uint256"
        },
        {
          "indexed": false,
          "name": "metal",
          "type": "string"
        },
        {
          "indexed": false,
          "name": "size",
          "type": "string"
        },
        {
          "indexed": false,
          "name": "sale",
          "type": "bool"
        },
        {
          "indexed": false,
          "name": "price",
          "type": "uint256"
        },
        {
          "indexed": false,
          "name": "fileURL",
          "type": "string"
        },
        {
          "indexed": false,
          "name": "jeweler",
          "type": "address"
        },
        {
          "indexed": false,
          "name": "owner",
          "type": "address"
        }
      ],
      "name": "JewelryMaking",
      "type": "event",
      "signature": "0xa8638b1ebcf2e664a660d9292105ba63158cdcef1e91d49678d689c9dca961dd"
    },
    {
      "anonymous": false,
      "inputs": [
        {
          "indexed": false,
          "name": "id",
          "type": "uint256"
        },
        {
          "indexed": false,
          "name": "newOwner",
          "type": "address"
        }
      ],
      "name": "JewelryBought",
      "type": "event",
      "signature": "0x8cf6668963454e0e03344a04e39acce1b18f277dd1c1d93a3c102254a31b5106"
    },
    {
      "constant": false,
      "inputs": [
        {
          "name": "_name",
          "type": "string"
        },
        {
          "name": "_gemId",
          "type": "uint256"
        },
        {
          "name": "_metal",
          "type": "string"
        },
        {
          "name": "_size",
          "type": "string"
        },
        {
          "name": "_sale",
          "type": "bool"
        },
        {
          "name": "_price",
          "type": "uint256"
        },
        {
          "name": "_fileURL",
          "type": "string"
        }
      ],
      "name": "jewelryMaking",
      "outputs": [],
      "payable": false,
      "stateMutability": "nonpayable",
      "type": "function",
      "signature": "0x2221f452"
    },
    {
      "constant": false,
      "inputs": [
        {
          "name": "_id",
          "type": "uint256"
        }
      ],
      "name": "buyJewelry",
      "outputs": [],
      "payable": true,
      "stateMutability": "payable",
      "type": "function",
      "signature": "0x98367139"
    },
    {
      "constant": true,
      "inputs": [
        {
          "name": "_owner",
          "type": "address"
        }
      ],
      "name": "getJewelryCountByOwner",
      "outputs": [
        {
          "name": "",
          "type": "uint256"
        }
      ],
      "payable": false,
      "stateMutability": "view",
      "type": "function",
      "signature": "0xd0f6ae6d"
    },
    {
      "constant": true,
      "inputs": [
        {
          "name": "_jeweler",
          "type": "address"
        }
      ],
      "name": "getJewelryCountByJeweler",
      "outputs": [
        {
          "name": "",
          "type": "uint256"
        }
      ],
      "payable": false,
      "stateMutability": "view",
      "type": "function",
      "signature": "0x4ff26335"
    }
  ],
  "bytecode": "0x6080604052600060015534801561001557600080fd5b5060405160208061132f8339810180604052602081101561003557600080fd5b8101908080519060200190929190505050806000806101000a81548173ffffffffffffffffffffffffffffffffffffffff021916908373ffffffffffffffffffffffffffffffffffffffff16021790555050611299806100966000396000f3fe608060405260043610610078576000357c0100000000000000000000000000000000000000000000000000000000900463ffffffff1680632221f4521461007d5780634ff263351461032a578063590091a21461038f57806398367139146103ba578063d0f6ae6d146103e8578063e1474e651461044d575b600080fd5b34801561008957600080fd5b50610328600480360360e08110156100a057600080fd5b81019080803590602001906401000000008111156100bd57600080fd5b8201836020820111156100cf57600080fd5b803590602001918460018302840111640100000000831117156100f157600080fd5b91908080601f016020809104026020016040519081016040528093929190818152602001838380828437600081840152601f19601f820116905080830192505050505050509192919290803590602001909291908035906020019064010000000081111561015e57600080fd5b82018360208201111561017057600080fd5b8035906020019184600183028401116401000000008311171561019257600080fd5b91908080601f016020809104026020016040519081016040528093929190818152602001838380828437600081840152601f19601f820116905080830192505050505050509192919290803590602001906401000000008111156101f557600080fd5b82018360208201111561020757600080fd5b8035906020019184600183028401116401000000008311171561022957600080fd5b91908080601f016020809104026020016040519081016040528093929190818152602001838380828437600081840152601f19601f82011690508083019250505050505050919291929080351515906020019092919080359060200190929190803590602001906401000000008111156102a257600080fd5b8201836020820111156102b457600080fd5b803590602001918460018302840111640100000000831117156102d657600080fd5b91908080601f016020809104026020016040519081016040528093929190818152602001838380828437600081840152601f19601f8201169050808301925050505050505091929192905050506106cb565b005b34801561033657600080fd5b506103796004803603602081101561034d57600080fd5b81019080803573ffffffffffffffffffffffffffffffffffffffff169060200190929190505050610b28565b6040518082815260200191505060405180910390f35b34801561039b57600080fd5b506103a4610bcb565b6040518082815260200191505060405180910390f35b6103e6600480360360208110156103d057600080fd5b8101908080359060200190929190505050610bd1565b005b3480156103f457600080fd5b506104376004803603602081101561040b57600080fd5b81019080803573ffffffffffffffffffffffffffffffffffffffff169060200190929190505050610e24565b6040518082815260200191505060405180910390f35b34801561045957600080fd5b506104866004803603602081101561047057600080fd5b8101908080359060200190929190505050610ec7565b604051808b8152602001806020018a8152602001806020018060200189151515158152602001888152602001806020018773ffffffffffffffffffffffffffffffffffffffff1673ffffffffffffffffffffffffffffffffffffffff1681526020018673ffffffffffffffffffffffffffffffffffffffff1673ffffffffffffffffffffffffffffffffffffffff16815260200185810385528e818151815260200191508051906020019080838360005b83811015610552578082015181840152602081019050610537565b50505050905090810190601f16801561057f5780820380516001836020036101000a031916815260200191505b5085810384528c818151815260200191508051906020019080838360005b838110156105b857808201518184015260208101905061059d565b50505050905090810190601f1680156105e55780820380516001836020036101000a031916815260200191505b5085810383528b818151815260200191508051906020019080838360005b8381101561061e578082015181840152602081019050610603565b50505050905090810190601f16801561064b5780820380516001836020036101000a031916815260200191505b50858103825288818151815260200191508051906020019080838360005b83811015610684578082015181840152602081019050610669565b50505050905090810190601f1680156106b15780820380516001836020036101000a031916815260200191505b509e50505050505050505050505050505060405180910390f35b60016000815480929190600101919050555061014060405190810160405280600154815260200188815260200187815260200186815260200185815260200184151581526020018381526020018281526020013373ffffffffffffffffffffffffffffffffffffffff1681526020013373ffffffffffffffffffffffffffffffffffffffff1681525060026000600154815260200190815260200160002060008201518160000155602082015181600101908051906020019061078f9291906111c8565b506040820151816002015560608201518160030190805190602001906107b69291906111c8565b5060808201518160040190805190602001906107d39291906111c8565b5060a08201518160050160006101000a81548160ff02191690831515021790555060c0820151816006015560e082015181600701908051906020019061081a9291906111c8565b506101008201518160080160006101000a81548173ffffffffffffffffffffffffffffffffffffffff021916908373ffffffffffffffffffffffffffffffffffffffff1602179055506101208201518160090160006101000a81548173ffffffffffffffffffffffffffffffffffffffff021916908373ffffffffffffffffffffffffffffffffffffffff1602179055509050507fa8638b1ebcf2e664a660d9292105ba63158cdcef1e91d49678d689c9dca961dd600154888888888888883333604051808b8152602001806020018a8152602001806020018060200189151515158152602001888152602001806020018773ffffffffffffffffffffffffffffffffffffffff1673ffffffffffffffffffffffffffffffffffffffff1681526020018673ffffffffffffffffffffffffffffffffffffffff1673ffffffffffffffffffffffffffffffffffffffff16815260200185810385528e818151815260200191508051906020019080838360005b838110156109a757808201518184015260208101905061098c565b50505050905090810190601f1680156109d45780820380516001836020036101000a031916815260200191505b5085810384528c818151815260200191508051906020019080838360005b83811015610a0d5780820151818401526020810190506109f2565b50505050905090810190601f168015610a3a5780820380516001836020036101000a031916815260200191505b5085810383528b818151815260200191508051906020019080838360005b83811015610a73578082015181840152602081019050610a58565b50505050905090810190601f168015610aa05780820380516001836020036101000a031916815260200191505b50858103825288818151815260200191508051906020019080838360005b83811015610ad9578082015181840152602081019050610abe565b50505050905090810190601f168015610b065780820380516001836020036101000a031916815260200191505b509e50505050505050505050505050505060405180910390a150505050505050565b600080600090506000600190505b60015481111515610bc1578373ffffffffffffffffffffffffffffffffffffffff166002600083815260200190815260200160002060080160009054906101000a900473ffffffffffffffffffffffffffffffffffffffff1673ffffffffffffffffffffffffffffffffffffffff161415610bb45781806001019250505b8080600101915050610b36565b5080915050919050565b60015481565b60006002600083815260200190815260200160002090508060050160009054906101000a900460ff161515610c6e576040517f08c379a00000000000000000000000000000000000000000000000000000000081526004018080602001828103825260178152602001807f4a6577656c7279206973206e6f7420666f722073616c6500000000000000000081525060200191505060405180910390fd5b80600601543410151515610cea576040517f08c379a00000000000000000000000000000000000000000000000000000000081526004018080602001828103825260128152602001807f496e73756666696369656e742066756e6473000000000000000000000000000081525060200191505060405180910390fd5b8060090160009054906101000a900473ffffffffffffffffffffffffffffffffffffffff1673ffffffffffffffffffffffffffffffffffffffff166108fc349081150290604051600060405180830381858888f19350505050158015610d54573d6000803e3d6000fd5b50338160090160006101000a81548173ffffffffffffffffffffffffffffffffffffffff021916908373ffffffffffffffffffffffffffffffffffffffff16021790555060008160050160006101000a81548160ff0219169083151502179055507f8cf6668963454e0e03344a04e39acce1b18f277dd1c1d93a3c102254a31b51068233604051808381526020018273ffffffffffffffffffffffffffffffffffffffff1673ffffffffffffffffffffffffffffffffffffffff1681526020019250505060405180910390a15050565b600080600090506000600190505b60015481111515610ebd578373ffffffffffffffffffffffffffffffffffffffff166002600083815260200190815260200160002060090160009054906101000a900473ffffffffffffffffffffffffffffffffffffffff1673ffffffffffffffffffffffffffffffffffffffff161415610eb05781806001019250505b8080600101915050610e32565b5080915050919050565b6002602052806000526040600020600091509050806000015490806001018054600181600116156101000203166002900480601f016020809104026020016040519081016040528092919081815260200182805460018160011615610100020316600290048015610f795780601f10610f4e57610100808354040283529160200191610f79565b820191906000526020600020905b815481529060010190602001808311610f5c57829003601f168201915b505050505090806002015490806003018054600181600116156101000203166002900480601f01602080910402602001604051908101604052809291908181526020018280546001816001161561010002031660029004801561101d5780601f10610ff25761010080835404028352916020019161101d565b820191906000526020600020905b81548152906001019060200180831161100057829003601f168201915b505050505090806004018054600181600116156101000203166002900480601f0160208091040260200160405190810160405280929190818152602001828054600181600116156101000203166002900480156110bb5780601f10611090576101008083540402835291602001916110bb565b820191906000526020600020905b81548152906001019060200180831161109e57829003601f168201915b5050505050908060050160009054906101000a900460ff1690806006015490806007018054600181600116156101000203166002900480601f0160208091040260200160405190810160405280929190818152602001828054600181600116156101000203166002900480156111725780601f1061114757610100808354040283529160200191611172565b820191906000526020600020905b81548152906001019060200180831161115557829003601f168201915b5050505050908060080160009054906101000a900473ffffffffffffffffffffffffffffffffffffffff16908060090160009054906101000a900473ffffffffffffffffffffffffffffffffffffffff1690508a565b828054600181600116156101000203166002900490600052602060002090601f016020900481019282601f1061120957805160ff1916838001178555611237565b82800160010185558215611237579182015b8281111561123657825182559160200191906001019061121b565b5b5090506112449190611248565b5090565b61126a91905b8082111561126657600081600090555060010161124e565b5090565b9056fea165627a7a7230582007c6528ba7707f93aaee2792baccfd1b78434b15591f29769af2cd8e48aef2120029",
  "source": "pragma solidity >=0.4.21 <0.6.0;\n\ninterface IGemstoneSelecting {\n    function selectedGems(uint) external view returns (uint id, uint minedGemId, uint weight, uint height, uint width, uint diameter, uint carat, string memory color, string memory gemType, bool forSale, uint price, bool used, address owner);\n    function markGemAsUsed(uint _id) external;\n}\n\ncontract Jewelry {\n    \n    IGemstoneSelecting gemstoneSelecting;\n\n    uint public jewelryCount = 0;\n    mapping(uint => JewelryData) public jewelry;\n\n    struct JewelryData {\n        uint id;\n        string name;\n        uint gemId;\n        string metal;\n        string size;  // Combined size field\n        bool sale;\n        uint price;\n        string fileURL;\n        address payable jeweler;\n        address payable owner;\n    }\n\n    event JewelryMaking(\n        uint id,\n        string name,\n        uint gemId,\n        string metal,\n        string size,\n        bool sale,\n        uint price,\n        string fileURL,\n        address payable jeweler,\n        address payable owner\n    );\n\n    event JewelryBought(\n        uint id,\n        address payable newOwner\n    );\n\n    constructor(address _gemstoneSelectingAddress) public {\n        gemstoneSelecting = IGemstoneSelecting(_gemstoneSelectingAddress);\n    }\n\n    function jewelryMaking(string memory _name, uint _gemId, string memory _metal, string memory _size, bool _sale, uint _price, string memory _fileURL) public {\n        jewelryCount++;\n        jewelry[jewelryCount] = JewelryData(jewelryCount, _name, _gemId, _metal, _size, _sale, _price, _fileURL, msg.sender, msg.sender);\n\n        emit JewelryMaking(jewelryCount, _name, _gemId, _metal, _size, _sale, _price, _fileURL, msg.sender, msg.sender);\n    }\n\n    function buyJewelry(uint _id) public payable {\n        JewelryData storage jew = jewelry[_id];\n        require(jew.sale, \"Jewelry is not for sale\");\n        require(msg.value >= jew.price, \"Insufficient funds\");\n\n        jew.owner.transfer(msg.value);\n        jew.owner = msg.sender;\n        jew.sale = false;\n\n        emit JewelryBought(_id, msg.sender);\n    }\n\n    function getJewelryCountByOwner(address _owner) public view returns (uint) {\n        uint count = 0;\n        for (uint i = 1; i <= jewelryCount; i++) {\n            if (jewelry[i].owner == _owner) {\n                count++;\n            }\n        }\n        return count;\n    }\n\n    function getJewelryCountByJeweler(address _jeweler) public view returns (uint) {\n        uint count = 0;\n        for (uint i = 1; i <= jewelryCount; i++) {\n            if (jewelry[i].jeweler == _jeweler) {\n                count++;\n            }\n        }\n        return count;\n    }\n}\n",
  "sourcePath": "/home/berkeanna/folder/jewRoundx/src/contracts/Jewelry.sol",
  "compiler": {
    "name": "solc",
    "version": "0.5.0+commit.1d4f565a.Emscripten.clang"
  },
  "schemaVersion": "3.0.1",
  "updatedAt": "2024-07-29T07:42:12.145Z",
  "devdoc": {
    "methods": {}
  },
  "userdoc": {
    "methods": {}
  }
}