{
  "contractName": "Jewelry",
  "abi": [
    {
      "constant": true,
      "inputs": [],
      "name": "jewelryCount",
      "outputs": [
        {
          "name": "",
          "type": "uint256"
        }
      ],
      "payable": false,
      "stateMutability": "view",
      "type": "function",
      "signature": "0x590091a2"
    },
    {
      "constant": true,
      "inputs": [
        {
          "name": "",
          "type": "uint256"
        }
      ],
      "name": "jewelry",
      "outputs": [
        {
          "name": "id",
          "type": "uint256"
        },
        {
          "name": "name",
          "type": "string"
        },
        {
          "name": "gemId",
          "type": "uint256"
        },
        {
          "name": "metal",
          "type": "string"
        },
        {
          "name": "size",
          "type": "string"
        },
        {
          "name": "sale",
          "type": "bool"
        },
        {
          "name": "price",
          "type": "uint256"
        },
        {
          "name": "fileURL",
          "type": "string"
        },
        {
          "name": "jeweler",
          "type": "address"
        },
        {
          "name": "owner",
          "type": "address"
        }
      ],
      "payable": false,
      "stateMutability": "view",
      "type": "function",
      "signature": "0xe1474e65"
    },
    {
      "inputs": [
        {
          "name": "_gemstoneSelectingAddress",
          "type": "address"
        }
      ],
      "payable": false,
      "stateMutability": "nonpayable",
      "type": "constructor",
      "signature": "constructor"
    },
    {
      "anonymous": false,
      "inputs": [
        {
          "indexed": false,
          "name": "id",
          "type": "uint256"
        },
        {
          "indexed": false,
          "name": "name",
          "type": "string"
        },
        {
          "indexed": false,
          "name": "gemId",
          "type": "uint256"
        },
        {
          "indexed": false,
          "name": "metal",
          "type": "string"
        },
        {
          "indexed": false,
          "name": "size",
          "type": "string"
        },
        {
          "indexed": false,
          "name": "sale",
          "type": "bool"
        },
        {
          "indexed": false,
          "name": "price",
          "type": "uint256"
        },
        {
          "indexed": false,
          "name": "fileURL",
          "type": "string"
        },
        {
          "indexed": false,
          "name": "jeweler",
          "type": "address"
        },
        {
          "indexed": false,
          "name": "owner",
          "type": "address"
        }
      ],
      "name": "JewelryMaking",
      "type": "event",
      "signature": "0xa8638b1ebcf2e664a660d9292105ba63158cdcef1e91d49678d689c9dca961dd"
    },
    {
      "anonymous": false,
      "inputs": [
        {
          "indexed": false,
          "name": "id",
          "type": "uint256"
        },
        {
          "indexed": false,
          "name": "newOwner",
          "type": "address"
        }
      ],
      "name": "JewelryBought",
      "type": "event",
      "signature": "0x8cf6668963454e0e03344a04e39acce1b18f277dd1c1d93a3c102254a31b5106"
    },
    {
      "anonymous": false,
      "inputs": [
        {
          "indexed": false,
          "name": "jewelryId",
          "type": "uint256"
        },
        {
          "indexed": false,
          "name": "newGemId",
          "type": "uint256"
        }
      ],
      "name": "GemUpdated",
      "type": "event",
      "signature": "0xa0213487aec5c403f0b758b3bd365a140c241dd4570644d26fa7f23a486f7bde"
    },
    {
      "constant": false,
      "inputs": [
        {
          "name": "_name",
          "type": "string"
        },
        {
          "name": "_gemId",
          "type": "uint256"
        },
        {
          "name": "_metal",
          "type": "string"
        },
        {
          "name": "_size",
          "type": "string"
        },
        {
          "name": "_sale",
          "type": "bool"
        },
        {
          "name": "_price",
          "type": "uint256"
        },
        {
          "name": "_fileURL",
          "type": "string"
        }
      ],
      "name": "jewelryMaking",
      "outputs": [],
      "payable": false,
      "stateMutability": "nonpayable",
      "type": "function",
      "signature": "0x2221f452"
    },
    {
      "constant": false,
      "inputs": [
        {
          "name": "_id",
          "type": "uint256"
        }
      ],
      "name": "buyJewelry",
      "outputs": [],
      "payable": true,
      "stateMutability": "payable",
      "type": "function",
      "signature": "0x98367139"
    },
    {
      "constant": false,
      "inputs": [
        {
          "name": "_jewelryId",
          "type": "uint256"
        },
        {
          "name": "_newGemId",
          "type": "uint256"
        }
      ],
      "name": "updateGem",
      "outputs": [],
      "payable": false,
      "stateMutability": "nonpayable",
      "type": "function",
      "signature": "0x796b264d"
    },
    {
      "constant": true,
      "inputs": [
        {
          "name": "_owner",
          "type": "address"
        }
      ],
      "name": "getJewelryCountByOwner",
      "outputs": [
        {
          "name": "",
          "type": "uint256"
        }
      ],
      "payable": false,
      "stateMutability": "view",
      "type": "function",
      "signature": "0xd0f6ae6d"
    },
    {
      "constant": true,
      "inputs": [
        {
          "name": "_jeweler",
          "type": "address"
        }
      ],
      "name": "getJewelryCountByJeweler",
      "outputs": [
        {
          "name": "",
          "type": "uint256"
        }
      ],
      "payable": false,
      "stateMutability": "view",
      "type": "function",
      "signature": "0x4ff26335"
    }
  ],
  "bytecode": "0x6080604052600060015534801561001557600080fd5b506040516020806115a98339810180604052602081101561003557600080fd5b8101908080519060200190929190505050806000806101000a81548173ffffffffffffffffffffffffffffffffffffffff021916908373ffffffffffffffffffffffffffffffffffffffff16021790555050611513806100966000396000f3fe608060405260043610610083576000357c0100000000000000000000000000000000000000000000000000000000900463ffffffff1680632221f452146100885780634ff2633514610335578063590091a21461039a578063796b264d146103c5578063983671391461040a578063d0f6ae6d14610438578063e1474e651461049d575b600080fd5b34801561009457600080fd5b50610333600480360360e08110156100ab57600080fd5b81019080803590602001906401000000008111156100c857600080fd5b8201836020820111156100da57600080fd5b803590602001918460018302840111640100000000831117156100fc57600080fd5b91908080601f016020809104026020016040519081016040528093929190818152602001838380828437600081840152601f19601f820116905080830192505050505050509192919290803590602001909291908035906020019064010000000081111561016957600080fd5b82018360208201111561017b57600080fd5b8035906020019184600183028401116401000000008311171561019d57600080fd5b91908080601f016020809104026020016040519081016040528093929190818152602001838380828437600081840152601f19601f8201169050808301925050505050505091929192908035906020019064010000000081111561020057600080fd5b82018360208201111561021257600080fd5b8035906020019184600183028401116401000000008311171561023457600080fd5b91908080601f016020809104026020016040519081016040528093929190818152602001838380828437600081840152601f19601f82011690508083019250505050505050919291929080351515906020019092919080359060200190929190803590602001906401000000008111156102ad57600080fd5b8201836020820111156102bf57600080fd5b803590602001918460018302840111640100000000831117156102e157600080fd5b91908080601f016020809104026020016040519081016040528093929190818152602001838380828437600081840152601f19601f82011690508083019250505050505050919291929050505061071b565b005b34801561034157600080fd5b506103846004803603602081101561035857600080fd5b81019080803573ffffffffffffffffffffffffffffffffffffffff169060200190929190505050610bd2565b6040518082815260200191505060405180910390f35b3480156103a657600080fd5b506103af610c75565b6040518082815260200191505060405180910390f35b3480156103d157600080fd5b50610408600480360360408110156103e857600080fd5b810190808035906020019092919080359060200190929190505050610c7b565b005b6104366004803603602081101561042057600080fd5b8101908080359060200190929190505050610dfe565b005b34801561044457600080fd5b506104876004803603602081101561045b57600080fd5b81019080803573ffffffffffffffffffffffffffffffffffffffff169060200190929190505050611051565b6040518082815260200191505060405180910390f35b3480156104a957600080fd5b506104d6600480360360208110156104c057600080fd5b81019080803590602001909291905050506110f4565b604051808b8152602001806020018a8152602001806020018060200189151515158152602001888152602001806020018773ffffffffffffffffffffffffffffffffffffffff1673ffffffffffffffffffffffffffffffffffffffff1681526020018673ffffffffffffffffffffffffffffffffffffffff1673ffffffffffffffffffffffffffffffffffffffff16815260200185810385528e818151815260200191508051906020019080838360005b838110156105a2578082015181840152602081019050610587565b50505050905090810190601f1680156105cf5780820380516001836020036101000a031916815260200191505b5085810384528c818151815260200191508051906020019080838360005b838110156106085780820151818401526020810190506105ed565b50505050905090810190601f1680156106355780820380516001836020036101000a031916815260200191505b5085810383528b818151815260200191508051906020019080838360005b8381101561066e578082015181840152602081019050610653565b50505050905090810190601f16801561069b5780820380516001836020036101000a031916815260200191505b50858103825288818151815260200191508051906020019080838360005b838110156106d45780820151818401526020810190506106b9565b50505050905090810190601f1680156107015780820380516001836020036101000a031916815260200191505b509e50505050505050505050505050505060405180910390f35b6001600081548092919060010191905055506060600060405190808252806020026020018201604052801561075f5781602001602082028038833980820191505090505b50905061016060405190810160405280600154815260200189815260200188815260200182815260200187815260200186815260200185151581526020018481526020018381526020013373ffffffffffffffffffffffffffffffffffffffff1681526020013373ffffffffffffffffffffffffffffffffffffffff1681525060026000600154815260200190815260200160002060008201518160000155602082015181600101908051906020019061081a9291906113f5565b50604082015181600201556060820151816003019080519060200190610841929190611475565b50608082015181600401908051906020019061085e9291906113f5565b5060a082015181600501908051906020019061087b9291906113f5565b5060c08201518160060160006101000a81548160ff02191690831515021790555060e082015181600701556101008201518160080190805190602001906108c39291906113f5565b506101208201518160090160006101000a81548173ffffffffffffffffffffffffffffffffffffffff021916908373ffffffffffffffffffffffffffffffffffffffff16021790555061014082015181600a0160006101000a81548173ffffffffffffffffffffffffffffffffffffffff021916908373ffffffffffffffffffffffffffffffffffffffff1602179055509050507fa8638b1ebcf2e664a660d9292105ba63158cdcef1e91d49678d689c9dca961dd600154898989898989893333604051808b8152602001806020018a8152602001806020018060200189151515158152602001888152602001806020018773ffffffffffffffffffffffffffffffffffffffff1673ffffffffffffffffffffffffffffffffffffffff1681526020018673ffffffffffffffffffffffffffffffffffffffff1673ffffffffffffffffffffffffffffffffffffffff16815260200185810385528e818151815260200191508051906020019080838360005b83811015610a50578082015181840152602081019050610a35565b50505050905090810190601f168015610a7d5780820380516001836020036101000a031916815260200191505b5085810384528c818151815260200191508051906020019080838360005b83811015610ab6578082015181840152602081019050610a9b565b50505050905090810190601f168015610ae35780820380516001836020036101000a031916815260200191505b5085810383528b818151815260200191508051906020019080838360005b83811015610b1c578082015181840152602081019050610b01565b50505050905090810190601f168015610b495780820380516001836020036101000a031916815260200191505b50858103825288818151815260200191508051906020019080838360005b83811015610b82578082015181840152602081019050610b67565b50505050905090810190601f168015610baf5780820380516001836020036101000a031916815260200191505b509e50505050505050505050505050505060405180910390a15050505050505050565b600080600090506000600190505b60015481111515610c6b578373ffffffffffffffffffffffffffffffffffffffff166002600083815260200190815260200160002060090160009054906101000a900473ffffffffffffffffffffffffffffffffffffffff1673ffffffffffffffffffffffffffffffffffffffff161415610c5e5781806001019250505b8080600101915050610be0565b5080915050919050565b60015481565b600060026000848152602001908152602001600020905080600a0160009054906101000a900473ffffffffffffffffffffffffffffffffffffffff1673ffffffffffffffffffffffffffffffffffffffff163373ffffffffffffffffffffffffffffffffffffffff16141515610d7f576040517f08c379a00000000000000000000000000000000000000000000000000000000081526004018080602001828103825260218152602001807f4f6e6c7920746865206f776e65722063616e207570646174652074686520676581526020017f6d0000000000000000000000000000000000000000000000000000000000000081525060400191505060405180910390fd5b80600301816002015490806001815401808255809150509060018203906000526020600020016000909192909190915055508181600201819055507fa0213487aec5c403f0b758b3bd365a140c241dd4570644d26fa7f23a486f7bde8383604051808381526020018281526020019250505060405180910390a1505050565b60006002600083815260200190815260200160002090508060060160009054906101000a900460ff161515610e9b576040517f08c379a00000000000000000000000000000000000000000000000000000000081526004018080602001828103825260178152602001807f4a6577656c7279206973206e6f7420666f722073616c6500000000000000000081525060200191505060405180910390fd5b80600701543410151515610f17576040517f08c379a00000000000000000000000000000000000000000000000000000000081526004018080602001828103825260128152602001807f496e73756666696369656e742066756e6473000000000000000000000000000081525060200191505060405180910390fd5b80600a0160009054906101000a900473ffffffffffffffffffffffffffffffffffffffff1673ffffffffffffffffffffffffffffffffffffffff166108fc349081150290604051600060405180830381858888f19350505050158015610f81573d6000803e3d6000fd5b503381600a0160006101000a81548173ffffffffffffffffffffffffffffffffffffffff021916908373ffffffffffffffffffffffffffffffffffffffff16021790555060008160060160006101000a81548160ff0219169083151502179055507f8cf6668963454e0e03344a04e39acce1b18f277dd1c1d93a3c102254a31b51068233604051808381526020018273ffffffffffffffffffffffffffffffffffffffff1673ffffffffffffffffffffffffffffffffffffffff1681526020019250505060405180910390a15050565b600080600090506000600190505b600154811115156110ea578373ffffffffffffffffffffffffffffffffffffffff1660026000838152602001908152602001600020600a0160009054906101000a900473ffffffffffffffffffffffffffffffffffffffff1673ffffffffffffffffffffffffffffffffffffffff1614156110dd5781806001019250505b808060010191505061105f565b5080915050919050565b6002602052806000526040600020600091509050806000015490806001018054600181600116156101000203166002900480601f0160208091040260200160405190810160405280929190818152602001828054600181600116156101000203166002900480156111a65780601f1061117b576101008083540402835291602001916111a6565b820191906000526020600020905b81548152906001019060200180831161118957829003601f168201915b505050505090806002015490806004018054600181600116156101000203166002900480601f01602080910402602001604051908101604052809291908181526020018280546001816001161561010002031660029004801561124a5780601f1061121f5761010080835404028352916020019161124a565b820191906000526020600020905b81548152906001019060200180831161122d57829003601f168201915b505050505090806005018054600181600116156101000203166002900480601f0160208091040260200160405190810160405280929190818152602001828054600181600116156101000203166002900480156112e85780601f106112bd576101008083540402835291602001916112e8565b820191906000526020600020905b8154815290600101906020018083116112cb57829003601f168201915b5050505050908060060160009054906101000a900460ff1690806007015490806008018054600181600116156101000203166002900480601f01602080910402602001604051908101604052809291908181526020018280546001816001161561010002031660029004801561139f5780601f106113745761010080835404028352916020019161139f565b820191906000526020600020905b81548152906001019060200180831161138257829003601f168201915b5050505050908060090160009054906101000a900473ffffffffffffffffffffffffffffffffffffffff169080600a0160009054906101000a900473ffffffffffffffffffffffffffffffffffffffff1690508a565b828054600181600116156101000203166002900490600052602060002090601f016020900481019282601f1061143657805160ff1916838001178555611464565b82800160010185558215611464579182015b82811115611463578251825591602001919060010190611448565b5b50905061147191906114c2565b5090565b8280548282559060005260206000209081019282156114b1579160200282015b828111156114b0578251825591602001919060010190611495565b5b5090506114be91906114c2565b5090565b6114e491905b808211156114e05760008160009055506001016114c8565b5090565b9056fea165627a7a723058206c16f9a97db85e49b13b0eadb4173aa5e3d7dd8106cf7207b07b8903fb47c28d0029",
  "source": "pragma solidity >=0.4.21 <0.6.0;\n\ninterface IGemstoneSelecting {\n    function selectedGems(uint) external view returns (uint id, uint minedGemId, uint weight, uint height, uint width, uint diameter, uint carat, string memory color, string memory gemType, bool forSale, uint price, bool used, address owner);\n    function markGemAsUsed(uint _id) external;\n}\n\ncontract Jewelry {\n    IGemstoneSelecting gemstoneSelecting;\n    uint public jewelryCount = 0;\n    mapping(uint => JewelryData) public jewelry;\n\n    struct JewelryData {\n        uint id;\n        string name;\n        uint gemId;\n        uint[] previousGemIds; // Array to store the history of previous gem IDs\n        string metal;\n        string size;\n        bool sale;\n        uint price;\n        string fileURL;\n        address payable jeweler;\n        address payable owner;\n    }\n\n    event JewelryMaking(\n        uint id,\n        string name,\n        uint gemId,\n        string metal,\n        string size,\n        bool sale,\n        uint price,\n        string fileURL,\n        address payable jeweler,\n        address payable owner\n    );\n\n    event JewelryBought(uint id, address payable newOwner);\n    event GemUpdated(uint jewelryId, uint newGemId);\n\n    constructor(address _gemstoneSelectingAddress) public {\n        gemstoneSelecting = IGemstoneSelecting(_gemstoneSelectingAddress);\n    }\n\n    function jewelryMaking(\n        string memory _name,\n        uint _gemId,\n        string memory _metal,\n        string memory _size,\n        bool _sale,\n        uint _price,\n        string memory _fileURL\n    ) public {\n        jewelryCount++;\n        uint[] memory initialPreviousGems = new uint[](0);\n\n        jewelry[jewelryCount] = JewelryData(\n            jewelryCount,\n            _name,\n            _gemId,\n            initialPreviousGems,\n            _metal,\n            _size,\n            _sale,\n            _price,\n            _fileURL,\n            msg.sender,\n            msg.sender\n        );\n\n        emit JewelryMaking(\n            jewelryCount,\n            _name,\n            _gemId,\n            _metal,\n            _size,\n            _sale,\n            _price,\n            _fileURL,\n            msg.sender,\n            msg.sender\n        );\n    }\n\n    function buyJewelry(uint _id) public payable {\n        JewelryData storage jew = jewelry[_id];\n        require(jew.sale, \"Jewelry is not for sale\");\n        require(msg.value >= jew.price, \"Insufficient funds\");\n\n        jew.owner.transfer(msg.value);\n        jew.owner = msg.sender;\n        jew.sale = false;\n\n        emit JewelryBought(_id, msg.sender);\n    }\n\n    function updateGem(uint _jewelryId, uint _newGemId) public {\n        JewelryData storage jew = jewelry[_jewelryId];\n        require(msg.sender == jew.owner, \"Only the owner can update the gem\");\n\n        jew.previousGemIds.push(jew.gemId); // Add current gemId to previousGemIds\n        jew.gemId = _newGemId; // Update with the new gemId\n\n        emit GemUpdated(_jewelryId, _newGemId);\n    }\n\n    function getJewelryCountByOwner(address _owner) public view returns (uint) {\n        uint count = 0;\n        for (uint i = 1; i <= jewelryCount; i++) {\n            if (jewelry[i].owner == _owner) {\n                count++;\n            }\n        }\n        return count;\n    }\n\n    function getJewelryCountByJeweler(address _jeweler) public view returns (uint) {\n        uint count = 0;\n        for (uint i = 1; i <= jewelryCount; i++) {\n            if (jewelry[i].jeweler == _jeweler) {\n                count++;\n            }\n        }\n        return count;\n    }\n}\n",
  "sourcePath": "/home/berkeanna/folder/jewRoundx/src/contracts/Jewelry.sol",
  "compiler": {
    "name": "solc",
    "version": "0.5.0+commit.1d4f565a.Emscripten.clang"
  },
  "schemaVersion": "3.0.1",
  "updatedAt": "2024-07-30T09:52:18.533Z",
  "devdoc": {
    "methods": {}
  },
  "userdoc": {
    "methods": {}
  }
}