{
  "contractName": "Jewelry",
  "abi": [
    {
      "constant": true,
      "inputs": [],
      "name": "jewelryCount",
      "outputs": [
        {
          "name": "",
          "type": "uint256"
        }
      ],
      "payable": false,
      "stateMutability": "view",
      "type": "function",
      "signature": "0x590091a2"
    },
    {
      "constant": true,
      "inputs": [
        {
          "name": "",
          "type": "uint256"
        }
      ],
      "name": "jewelry",
      "outputs": [
        {
          "name": "id",
          "type": "uint256"
        },
        {
          "name": "name",
          "type": "string"
        },
        {
          "name": "physicalDetails",
          "type": "string"
        },
        {
          "name": "sale",
          "type": "bool"
        },
        {
          "name": "processing",
          "type": "bool"
        },
        {
          "name": "price",
          "type": "uint256"
        },
        {
          "name": "fileURL",
          "type": "string"
        },
        {
          "name": "jeweler",
          "type": "address"
        },
        {
          "name": "owner",
          "type": "address"
        },
        {
          "name": "jewOwner",
          "type": "address"
        }
      ],
      "payable": false,
      "stateMutability": "view",
      "type": "function",
      "signature": "0xe1474e65"
    },
    {
      "inputs": [
        {
          "name": "_gemstoneSelectingAddress",
          "type": "address"
        }
      ],
      "payable": false,
      "stateMutability": "nonpayable",
      "type": "constructor",
      "signature": "constructor"
    },
    {
      "anonymous": false,
      "inputs": [
        {
          "indexed": false,
          "name": "id",
          "type": "uint256"
        },
        {
          "indexed": false,
          "name": "name",
          "type": "string"
        },
        {
          "indexed": false,
          "name": "physicalDetails",
          "type": "string"
        },
        {
          "indexed": false,
          "name": "sale",
          "type": "bool"
        },
        {
          "indexed": false,
          "name": "processing",
          "type": "bool"
        },
        {
          "indexed": false,
          "name": "price",
          "type": "uint256"
        },
        {
          "indexed": false,
          "name": "fileURL",
          "type": "string"
        },
        {
          "indexed": false,
          "name": "jeweler",
          "type": "address"
        },
        {
          "indexed": false,
          "name": "owner",
          "type": "address"
        },
        {
          "indexed": false,
          "name": "jewOwner",
          "type": "address"
        }
      ],
      "name": "JewelryMaking",
      "type": "event",
      "signature": "0x52a6b52cbd1331b6fb00654ffbd64f83513ec9a76e7a20660ed1a75922c92c4c"
    },
    {
      "anonymous": false,
      "inputs": [
        {
          "indexed": false,
          "name": "id",
          "type": "uint256"
        },
        {
          "indexed": false,
          "name": "newOwner",
          "type": "address"
        }
      ],
      "name": "JewelryBought",
      "type": "event",
      "signature": "0x8cf6668963454e0e03344a04e39acce1b18f277dd1c1d93a3c102254a31b5106"
    },
    {
      "anonymous": false,
      "inputs": [
        {
          "indexed": false,
          "name": "jewelryId",
          "type": "uint256"
        },
        {
          "indexed": false,
          "name": "newGemId",
          "type": "uint256"
        }
      ],
      "name": "GemUpdated",
      "type": "event",
      "signature": "0xa0213487aec5c403f0b758b3bd365a140c241dd4570644d26fa7f23a486f7bde"
    },
    {
      "anonymous": false,
      "inputs": [
        {
          "indexed": false,
          "name": "jewelryId",
          "type": "uint256"
        },
        {
          "indexed": false,
          "name": "newGemId",
          "type": "uint256"
        }
      ],
      "name": "GemReplaced",
      "type": "event",
      "signature": "0xa0515efda397c86c91d380f2e59ed8e5c45faecbae0a35bd79cad66c1b0c4220"
    },
    {
      "anonymous": false,
      "inputs": [
        {
          "indexed": false,
          "name": "id",
          "type": "uint256"
        },
        {
          "indexed": false,
          "name": "owner",
          "type": "address"
        }
      ],
      "name": "JewelryFinished",
      "type": "event",
      "signature": "0x0602407819daab8a181af1f486ef59fab62816c96804e0236cc9597bf0d100b9"
    },
    {
      "anonymous": false,
      "inputs": [
        {
          "indexed": false,
          "name": "id",
          "type": "uint256"
        },
        {
          "indexed": false,
          "name": "owner",
          "type": "address"
        }
      ],
      "name": "JewelrySale",
      "type": "event",
      "signature": "0x00675d7a663495bb5abc0e08ce956028f3ebf74f7ce54370586a811cb493a7e0"
    },
    {
      "anonymous": false,
      "inputs": [
        {
          "indexed": false,
          "name": "id",
          "type": "uint256"
        },
        {
          "indexed": false,
          "name": "jewOwner",
          "type": "address"
        },
        {
          "indexed": false,
          "name": "jeweler",
          "type": "address"
        }
      ],
      "name": "JewelryAddRepair",
      "type": "event",
      "signature": "0xedaf9179b8940a3285ad3e8b3f527108ab55b1b14aa23df712da3d81d1fbcd9d"
    },
    {
      "anonymous": false,
      "inputs": [
        {
          "indexed": false,
          "name": "id",
          "type": "uint256"
        },
        {
          "indexed": false,
          "name": "jewOwner",
          "type": "address"
        },
        {
          "indexed": false,
          "name": "jeweler",
          "type": "address"
        }
      ],
      "name": "ReturnToJewOwner",
      "type": "event",
      "signature": "0xa17e29742ebb29bcbe0da2f0f53996d1084c0124d8c040b588b7fb216d5ecd23"
    },
    {
      "constant": false,
      "inputs": [
        {
          "name": "_name",
          "type": "string"
        },
        {
          "name": "_gemId",
          "type": "uint256"
        },
        {
          "name": "_physicalDetails",
          "type": "string"
        },
        {
          "name": "_sale",
          "type": "bool"
        },
        {
          "name": "_price",
          "type": "uint256"
        },
        {
          "name": "_fileURL",
          "type": "string"
        }
      ],
      "name": "jewelryMaking",
      "outputs": [],
      "payable": false,
      "stateMutability": "nonpayable",
      "type": "function",
      "signature": "0x7fefd3d2"
    },
    {
      "constant": false,
      "inputs": [
        {
          "name": "jewelryId",
          "type": "uint256"
        },
        {
          "name": "oldGemId",
          "type": "uint256"
        },
        {
          "name": "newGemId",
          "type": "uint256"
        }
      ],
      "name": "replaceGem",
      "outputs": [],
      "payable": false,
      "stateMutability": "nonpayable",
      "type": "function",
      "signature": "0xd770664e"
    },
    {
      "constant": true,
      "inputs": [
        {
          "name": "_id",
          "type": "uint256"
        }
      ],
      "name": "getJewelryDetails",
      "outputs": [
        {
          "name": "id",
          "type": "uint256"
        },
        {
          "name": "name",
          "type": "string"
        },
        {
          "name": "previousGemIds",
          "type": "uint256[]"
        },
        {
          "name": "physicalDetails",
          "type": "string"
        },
        {
          "name": "processing",
          "type": "bool"
        },
        {
          "name": "sale",
          "type": "bool"
        },
        {
          "name": "price",
          "type": "uint256"
        },
        {
          "name": "fileURL",
          "type": "string"
        },
        {
          "name": "jeweler",
          "type": "address"
        },
        {
          "name": "owner",
          "type": "address"
        },
        {
          "name": "jewOwner",
          "type": "address"
        }
      ],
      "payable": false,
      "stateMutability": "view",
      "type": "function",
      "signature": "0xc95a7536"
    },
    {
      "constant": false,
      "inputs": [
        {
          "name": "_id",
          "type": "uint256"
        }
      ],
      "name": "buyJewelry",
      "outputs": [],
      "payable": true,
      "stateMutability": "payable",
      "type": "function",
      "signature": "0x98367139"
    },
    {
      "constant": false,
      "inputs": [
        {
          "name": "_jewelryId",
          "type": "uint256"
        },
        {
          "name": "_newGemId",
          "type": "uint256"
        }
      ],
      "name": "updateGem",
      "outputs": [],
      "payable": false,
      "stateMutability": "nonpayable",
      "type": "function",
      "signature": "0x796b264d"
    },
    {
      "constant": true,
      "inputs": [
        {
          "name": "_owner",
          "type": "address"
        }
      ],
      "name": "getJewelryCountByOwner",
      "outputs": [
        {
          "name": "",
          "type": "uint256"
        }
      ],
      "payable": false,
      "stateMutability": "view",
      "type": "function",
      "signature": "0xd0f6ae6d"
    },
    {
      "constant": true,
      "inputs": [
        {
          "name": "_jeweler",
          "type": "address"
        }
      ],
      "name": "getJewelryCountByJeweler",
      "outputs": [
        {
          "name": "",
          "type": "uint256"
        }
      ],
      "payable": false,
      "stateMutability": "view",
      "type": "function",
      "signature": "0x4ff26335"
    },
    {
      "constant": false,
      "inputs": [
        {
          "name": "_id",
          "type": "uint256"
        }
      ],
      "name": "markedAsFinished",
      "outputs": [],
      "payable": true,
      "stateMutability": "payable",
      "type": "function",
      "signature": "0x52124201"
    },
    {
      "constant": false,
      "inputs": [
        {
          "name": "_id",
          "type": "uint256"
        }
      ],
      "name": "markedAsSale",
      "outputs": [],
      "payable": true,
      "stateMutability": "payable",
      "type": "function",
      "signature": "0x52c4b10e"
    },
    {
      "constant": false,
      "inputs": [
        {
          "name": "_id",
          "type": "uint256"
        }
      ],
      "name": "addForRepair",
      "outputs": [],
      "payable": false,
      "stateMutability": "nonpayable",
      "type": "function",
      "signature": "0xbea5d624"
    },
    {
      "constant": false,
      "inputs": [
        {
          "name": "_id",
          "type": "uint256"
        }
      ],
      "name": "returnToJewOwner",
      "outputs": [],
      "payable": false,
      "stateMutability": "nonpayable",
      "type": "function",
      "signature": "0xcaa18e99"
    }
  ],
  "bytecode": "0x6080604052600060015534801561001557600080fd5b506040516020806123d18339810180604052602081101561003557600080fd5b8101908080519060200190929190505050806000806101000a81548173ffffffffffffffffffffffffffffffffffffffff021916908373ffffffffffffffffffffffffffffffffffffffff1602179055505061233b806100966000396000f3fe6080604052600436106100c5576000357c0100000000000000000000000000000000000000000000000000000000900463ffffffff1680634ff26335146100ca578063521242011461012f57806352c4b10e1461015d578063590091a21461018b578063796b264d146101b65780637fefd3d2146101fb5780639836713914610411578063bea5d6241461043f578063c95a75361461047a578063caa18e991461070b578063d0f6ae6d14610746578063d770664e146107ab578063e1474e65146107fa575b600080fd5b3480156100d657600080fd5b50610119600480360360208110156100ed57600080fd5b81019080803573ffffffffffffffffffffffffffffffffffffffff169060200190929190505050610a43565b6040518082815260200191505060405180910390f35b61015b6004803603602081101561014557600080fd5b8101908080359060200190929190505050610ae6565b005b6101896004803603602081101561017357600080fd5b8101908080359060200190929190505050610ce5565b005b34801561019757600080fd5b506101a0610e4a565b6040518082815260200191505060405180910390f35b3480156101c257600080fd5b506101f9600480360360408110156101d957600080fd5b810190808035906020019092919080359060200190929190505050610e50565b005b34801561020757600080fd5b5061040f600480360360c081101561021e57600080fd5b810190808035906020019064010000000081111561023b57600080fd5b82018360208201111561024d57600080fd5b8035906020019184600183028401116401000000008311171561026f57600080fd5b91908080601f016020809104026020016040519081016040528093929190818152602001838380828437600081840152601f19601f82011690508083019250505050505050919291929080359060200190929190803590602001906401000000008111156102dc57600080fd5b8201836020820111156102ee57600080fd5b8035906020019184600183028401116401000000008311171561031057600080fd5b91908080601f016020809104026020016040519081016040528093929190818152602001838380828437600081840152601f19601f820116905080830192505050505050509192919290803515159060200190929190803590602001909291908035906020019064010000000081111561038957600080fd5b82018360208201111561039b57600080fd5b803590602001918460018302840111640100000000831117156103bd57600080fd5b91908080601f016020809104026020016040519081016040528093929190818152602001838380828437600081840152601f19601f820116905080830192505050505050509192919290505050610fc6565b005b61043d6004803603602081101561042757600080fd5b81019080803590602001909291905050506114dd565b005b34801561044b57600080fd5b506104786004803603602081101561046257600080fd5b8101908080359060200190929190505050611773565b005b34801561048657600080fd5b506104b36004803603602081101561049d57600080fd5b81019080803590602001909291905050506118f9565b604051808c81526020018060200180602001806020018b1515151581526020018a151515158152602001898152602001806020018873ffffffffffffffffffffffffffffffffffffffff1673ffffffffffffffffffffffffffffffffffffffff1681526020018773ffffffffffffffffffffffffffffffffffffffff1673ffffffffffffffffffffffffffffffffffffffff1681526020018673ffffffffffffffffffffffffffffffffffffffff1673ffffffffffffffffffffffffffffffffffffffff16815260200185810385528f818151815260200191508051906020019080838360005b838110156105b557808201518184015260208101905061059a565b50505050905090810190601f1680156105e25780820380516001836020036101000a031916815260200191505b5085810384528e818151815260200191508051906020019060200280838360005b8381101561061e578082015181840152602081019050610603565b5050505090500185810383528d818151815260200191508051906020019080838360005b8381101561065d578082015181840152602081019050610642565b50505050905090810190601f16801561068a5780820380516001836020036101000a031916815260200191505b50858103825289818151815260200191508051906020019080838360005b838110156106c35780820151818401526020810190506106a8565b50505050905090810190601f1680156106f05780820380516001836020036101000a031916815260200191505b509f5050505050505050505050505050505060405180910390f35b34801561071757600080fd5b506107446004803603602081101561072e57600080fd5b8101908080359060200190929190505050611c24565b005b34801561075257600080fd5b506107956004803603602081101561076957600080fd5b81019080803573ffffffffffffffffffffffffffffffffffffffff169060200190929190505050611daa565b6040518082815260200191505060405180910390f35b3480156107b757600080fd5b506107f8600480360360608110156107ce57600080fd5b81019080803590602001909291908035906020019092919080359060200190929190505050611e4d565b005b34801561080657600080fd5b506108336004803603602081101561081d57600080fd5b8101908080359060200190929190505050611f87565b604051808b815260200180602001806020018a15151515815260200189151515158152602001888152602001806020018773ffffffffffffffffffffffffffffffffffffffff1673ffffffffffffffffffffffffffffffffffffffff1681526020018673ffffffffffffffffffffffffffffffffffffffff1673ffffffffffffffffffffffffffffffffffffffff1681526020018573ffffffffffffffffffffffffffffffffffffffff1673ffffffffffffffffffffffffffffffffffffffff16815260200184810384528d818151815260200191508051906020019080838360005b83811015610931578082015181840152602081019050610916565b50505050905090810190601f16801561095e5780820380516001836020036101000a031916815260200191505b5084810383528c818151815260200191508051906020019080838360005b8381101561099757808201518184015260208101905061097c565b50505050905090810190601f1680156109c45780820380516001836020036101000a031916815260200191505b50848103825288818151815260200191508051906020019080838360005b838110156109fd5780820151818401526020810190506109e2565b50505050905090810190601f168015610a2a5780820380516001836020036101000a031916815260200191505b509d505050505050505050505050505060405180910390f35b600080600090506000600190505b60015481111515610adc578373ffffffffffffffffffffffffffffffffffffffff166002600083815260200190815260200160002060070160009054906101000a900473ffffffffffffffffffffffffffffffffffffffff1673ffffffffffffffffffffffffffffffffffffffff161415610acf5781806001019250505b8080600101915050610a51565b5080915050919050565b600060026000838152602001908152602001600020905060008160000154118015610b175750600154816000015411155b1515610b8b576040517f08c379a000000000000000000000000000000000000000000000000000000000815260040180806020018281038252600e8152602001807f496e76616c6964206a657720494400000000000000000000000000000000000081525060200191505060405180910390fd5b600115158160040160019054906101000a900460ff161515141515610c18576040517f08c379a00000000000000000000000000000000000000000000000000000000081526004018080602001828103825260188152602001807f4a6577656c727920616c72656164792066696e6973686564000000000000000081525060200191505060405180910390fd5b60008160040160016101000a81548160ff02191690831515021790555060008160040160006101000a81548160ff0219169083151502179055507f0602407819daab8a181af1f486ef59fab62816c96804e0236cc9597bf0d100b9828260080160009054906101000a900473ffffffffffffffffffffffffffffffffffffffff16604051808381526020018273ffffffffffffffffffffffffffffffffffffffff1673ffffffffffffffffffffffffffffffffffffffff1681526020019250505060405180910390a15050565b600060026000838152602001908152602001600020905060008160000154118015610d165750600154816000015411155b1515610d8a576040517f08c379a000000000000000000000000000000000000000000000000000000000815260040180806020018281038252600e8152602001807f496e76616c6964206a657720494400000000000000000000000000000000000081525060200191505060405180910390fd5b8060040160009054906101000a900460ff16158160040160006101000a81548160ff0219169083151502179055507e675d7a663495bb5abc0e08ce956028f3ebf74f7ce54370586a811cb493a7e0828260080160009054906101000a900473ffffffffffffffffffffffffffffffffffffffff16604051808381526020018273ffffffffffffffffffffffffffffffffffffffff1673ffffffffffffffffffffffffffffffffffffffff1681526020019250505060405180910390a15050565b60015481565b60006002600084815260200190815260200160002090508060080160009054906101000a900473ffffffffffffffffffffffffffffffffffffffff1673ffffffffffffffffffffffffffffffffffffffff163373ffffffffffffffffffffffffffffffffffffffff16141515610f54576040517f08c379a00000000000000000000000000000000000000000000000000000000081526004018080602001828103825260218152602001807f4f6e6c7920746865206f776e65722063616e207570646174652074686520676581526020017f6d0000000000000000000000000000000000000000000000000000000000000081525060400191505060405180910390fd5b806002018290806001815401808255809150509060018203906000526020600020016000909192909190915055507fa0213487aec5c403f0b758b3bd365a140c241dd4570644d26fa7f23a486f7bde8383604051808381526020018281526020019250505060405180910390a1505050565b60016000815480929190600101919050555061016060405190810160405280600154815260200187815260200160006040519080825280602002602001820160405280156110235781602001602082028038833980820191505090505b50815260200185815260200184151581526020016001151581526020018381526020018281526020013373ffffffffffffffffffffffffffffffffffffffff1681526020013373ffffffffffffffffffffffffffffffffffffffff1681526020013373ffffffffffffffffffffffffffffffffffffffff168152506002600060015481526020019081526020016000206000820151816000015560208201518160010190805190602001906110d992919061221d565b5060408201518160020190805190602001906110f692919061229d565b50606082015181600301908051906020019061111392919061221d565b5060808201518160040160006101000a81548160ff02191690831515021790555060a08201518160040160016101000a81548160ff02191690831515021790555060c0820151816005015560e082015181600601908051906020019061117a92919061221d565b506101008201518160070160006101000a81548173ffffffffffffffffffffffffffffffffffffffff021916908373ffffffffffffffffffffffffffffffffffffffff1602179055506101208201518160080160006101000a81548173ffffffffffffffffffffffffffffffffffffffff021916908373ffffffffffffffffffffffffffffffffffffffff1602179055506101408201518160090160006101000a81548173ffffffffffffffffffffffffffffffffffffffff021916908373ffffffffffffffffffffffffffffffffffffffff1602179055509050506002600060015481526020019081526020016000206002018590806001815401808255809150509060018203906000526020600020016000909192909190915055507f52a6b52cbd1331b6fb00654ffbd64f83513ec9a76e7a20660ed1a75922c92c4c60015487868660018787333333604051808b815260200180602001806020018a15151515815260200189151515158152602001888152602001806020018773ffffffffffffffffffffffffffffffffffffffff1673ffffffffffffffffffffffffffffffffffffffff1681526020018673ffffffffffffffffffffffffffffffffffffffff1673ffffffffffffffffffffffffffffffffffffffff1681526020018573ffffffffffffffffffffffffffffffffffffffff1673ffffffffffffffffffffffffffffffffffffffff16815260200184810384528d818151815260200191508051906020019080838360005b838110156113c45780820151818401526020810190506113a9565b50505050905090810190601f1680156113f15780820380516001836020036101000a031916815260200191505b5084810383528c818151815260200191508051906020019080838360005b8381101561142a57808201518184015260208101905061140f565b50505050905090810190601f1680156114575780820380516001836020036101000a031916815260200191505b50848103825288818151815260200191508051906020019080838360005b83811015611490578082015181840152602081019050611475565b50505050905090810190601f1680156114bd5780820380516001836020036101000a031916815260200191505b509d505050505050505050505050505060405180910390a1505050505050565b60006002600083815260200190815260200160002090508060040160009054906101000a900460ff16151561157a576040517f08c379a00000000000000000000000000000000000000000000000000000000081526004018080602001828103825260178152602001807f4a6577656c7279206973206e6f7420666f722073616c6500000000000000000081525060200191505060405180910390fd5b806005015434101515156115f6576040517f08c379a00000000000000000000000000000000000000000000000000000000081526004018080602001828103825260128152602001807f496e73756666696369656e742066756e6473000000000000000000000000000081525060200191505060405180910390fd5b8060080160009054906101000a900473ffffffffffffffffffffffffffffffffffffffff1673ffffffffffffffffffffffffffffffffffffffff166108fc349081150290604051600060405180830381858888f19350505050158015611660573d6000803e3d6000fd5b50338160080160006101000a81548173ffffffffffffffffffffffffffffffffffffffff021916908373ffffffffffffffffffffffffffffffffffffffff160217905550338160090160006101000a81548173ffffffffffffffffffffffffffffffffffffffff021916908373ffffffffffffffffffffffffffffffffffffffff16021790555060008160040160006101000a81548160ff0219169083151502179055507f8cf6668963454e0e03344a04e39acce1b18f277dd1c1d93a3c102254a31b51068233604051808381526020018273ffffffffffffffffffffffffffffffffffffffff1673ffffffffffffffffffffffffffffffffffffffff1681526020019250505060405180910390a15050565b60006002600083815260200190815260200160002090508060070160009054906101000a900473ffffffffffffffffffffffffffffffffffffffff168160080160006101000a81548173ffffffffffffffffffffffffffffffffffffffff021916908373ffffffffffffffffffffffffffffffffffffffff16021790555060008160040160006101000a81548160ff0219169083151502179055507fedaf9179b8940a3285ad3e8b3f527108ab55b1b14aa23df712da3d81d1fbcd9d828260090160009054906101000a900473ffffffffffffffffffffffffffffffffffffffff168360070160009054906101000a900473ffffffffffffffffffffffffffffffffffffffff16604051808481526020018373ffffffffffffffffffffffffffffffffffffffff1673ffffffffffffffffffffffffffffffffffffffff1681526020018273ffffffffffffffffffffffffffffffffffffffff1673ffffffffffffffffffffffffffffffffffffffff168152602001935050505060405180910390a15050565b6000606080606060008060006060600080600080600260008e8152602001908152602001600020905080600001548160010182600201836003018460040160019054906101000a900460ff168560040160009054906101000a900460ff168660050154876006018860070160009054906101000a900473ffffffffffffffffffffffffffffffffffffffff168960080160009054906101000a900473ffffffffffffffffffffffffffffffffffffffff168a60090160009054906101000a900473ffffffffffffffffffffffffffffffffffffffff16898054600181600116156101000203166002900480601f016020809104026020016040519081016040528092919081815260200182805460018160011615610100020316600290048015611a645780601f10611a3957610100808354040283529160200191611a64565b820191906000526020600020905b815481529060010190602001808311611a4757829003601f168201915b5050505050995088805480602002602001604051908101604052809291908181526020018280548015611ab657602002820191906000526020600020905b815481526020019060010190808311611aa2575b50505050509850878054600181600116156101000203166002900480601f016020809104026020016040519081016040528092919081815260200182805460018160011615610100020316600290048015611b525780601f10611b2757610100808354040283529160200191611b52565b820191906000526020600020905b815481529060010190602001808311611b3557829003601f168201915b50505050509750838054600181600116156101000203166002900480601f016020809104026020016040519081016040528092919081815260200182805460018160011615610100020316600290048015611bee5780601f10611bc357610100808354040283529160200191611bee565b820191906000526020600020905b815481529060010190602001808311611bd157829003601f168201915b505050505093508292508191508090509b509b509b509b509b509b509b509b509b509b509b505091939597999b90929496989a50565b60006002600083815260200190815260200160002090508060090160009054906101000a900473ffffffffffffffffffffffffffffffffffffffff168160080160006101000a81548173ffffffffffffffffffffffffffffffffffffffff021916908373ffffffffffffffffffffffffffffffffffffffff16021790555060008160040160006101000a81548160ff0219169083151502179055507fa17e29742ebb29bcbe0da2f0f53996d1084c0124d8c040b588b7fb216d5ecd23828260090160009054906101000a900473ffffffffffffffffffffffffffffffffffffffff168360070160009054906101000a900473ffffffffffffffffffffffffffffffffffffffff16604051808481526020018373ffffffffffffffffffffffffffffffffffffffff1673ffffffffffffffffffffffffffffffffffffffff1681526020018273ffffffffffffffffffffffffffffffffffffffff1673ffffffffffffffffffffffffffffffffffffffff168152602001935050505060405180910390a15050565b600080600090506000600190505b60015481111515611e43578373ffffffffffffffffffffffffffffffffffffffff166002600083815260200190815260200160002060080160009054906101000a900473ffffffffffffffffffffffffffffffffffffffff1673ffffffffffffffffffffffffffffffffffffffff161415611e365781806001019250505b8080600101915050611db8565b5080915050919050565b6000809054906101000a900473ffffffffffffffffffffffffffffffffffffffff1673ffffffffffffffffffffffffffffffffffffffff1663da5eeba982846040518363ffffffff167c01000000000000000000000000000000000000000000000000000000000281526004018083815260200182815260200192505050600060405180830381600087803b158015611ee557600080fd5b505af1158015611ef9573d6000803e3d6000fd5b505050506000600260008581526020019081526020016000209050806002018290806001815401808255809150509060018203906000526020600020016000909192909190915055507fa0515efda397c86c91d380f2e59ed8e5c45faecbae0a35bd79cad66c1b0c42208483604051808381526020018281526020019250505060405180910390a150505050565b6002602052806000526040600020600091509050806000015490806001018054600181600116156101000203166002900480601f0160208091040260200160405190810160405280929190818152602001828054600181600116156101000203166002900480156120395780601f1061200e57610100808354040283529160200191612039565b820191906000526020600020905b81548152906001019060200180831161201c57829003601f168201915b505050505090806003018054600181600116156101000203166002900480601f0160208091040260200160405190810160405280929190818152602001828054600181600116156101000203166002900480156120d75780601f106120ac576101008083540402835291602001916120d7565b820191906000526020600020905b8154815290600101906020018083116120ba57829003601f168201915b5050505050908060040160009054906101000a900460ff16908060040160019054906101000a900460ff1690806005015490806006018054600181600116156101000203166002900480601f0160208091040260200160405190810160405280929190818152602001828054600181600116156101000203166002900480156121a15780601f10612176576101008083540402835291602001916121a1565b820191906000526020600020905b81548152906001019060200180831161218457829003601f168201915b5050505050908060070160009054906101000a900473ffffffffffffffffffffffffffffffffffffffff16908060080160009054906101000a900473ffffffffffffffffffffffffffffffffffffffff16908060090160009054906101000a900473ffffffffffffffffffffffffffffffffffffffff1690508a565b828054600181600116156101000203166002900490600052602060002090601f016020900481019282601f1061225e57805160ff191683800117855561228c565b8280016001018555821561228c579182015b8281111561228b578251825591602001919060010190612270565b5b50905061229991906122ea565b5090565b8280548282559060005260206000209081019282156122d9579160200282015b828111156122d85782518255916020019190600101906122bd565b5b5090506122e691906122ea565b5090565b61230c91905b808211156123085760008160009055506001016122f0565b5090565b9056fea165627a7a72305820223018fbc3ed0d9908c30cb7e7f872136ec5be542cedc14ef0be0df06d734ccd0029",
  "source": "pragma solidity >=0.4.21 <0.6.0;\r\n\r\ninterface IGemstoneSelecting {\r\n    function selectedGems(uint) external view returns (\r\n        uint id, \r\n        uint minedGemId, \r\n        uint weight, \r\n        uint height, \r\n        uint width, \r\n        uint diameter, \r\n        uint carat, \r\n        string memory color, \r\n        string memory gemType, \r\n        bool forSale, \r\n        uint price, \r\n        bool used, \r\n        address owner\r\n    );\r\n    function markGemAsUsed(uint _id) external;\r\n    function setPreviousGemId(uint gemId, uint previousGemId) external;\r\n}\r\n\r\ncontract Jewelry {\r\n    IGemstoneSelecting gemstoneSelecting;\r\n    uint public jewelryCount = 0;\r\n    mapping(uint => JewelryData) public jewelry;\r\n\r\n    struct JewelryData {\r\n        uint id;\r\n        string name;\r\n        uint[] previousGemIds;\r\n        string physicalDetails;\r\n        bool sale;\r\n        bool processing;\r\n        uint price;\r\n        string fileURL;\r\n        address payable jeweler;\r\n        address payable owner;\r\n        address payable jewOwner;  \r\n    }\r\n\r\n    event JewelryMaking(\r\n        uint id,\r\n        string name,\r\n        string physicalDetails,\r\n        bool sale,\r\n        bool processing,\r\n        uint price,\r\n        string fileURL,\r\n        address payable jeweler,\r\n        address payable owner,\r\n        address payable jewOwner\r\n    );\r\n\r\n    event JewelryBought(uint id, address payable newOwner);\r\n    event GemUpdated(uint jewelryId, uint newGemId);\r\n    event GemReplaced(uint jewelryId, uint newGemId);\r\n    event JewelryFinished(uint id, address owner);\r\n    event JewelrySale(uint id, address owner);\r\n    event JewelryAddRepair(uint id, address jewOwner, address jeweler);\r\n    event ReturnToJewOwner(uint id, address jewOwner, address jeweler);\r\n\r\n    constructor(address _gemstoneSelectingAddress) public {\r\n        gemstoneSelecting = IGemstoneSelecting(_gemstoneSelectingAddress);\r\n    }\r\n\r\n    function jewelryMaking(\r\n        string memory _name,\r\n        uint _gemId,\r\n        string memory _physicalDetails,\r\n        bool _sale,\r\n        uint _price,\r\n        string memory _fileURL\r\n    ) public {\r\n        jewelryCount++;\r\n\r\n        jewelry[jewelryCount] = JewelryData(\r\n            jewelryCount,\r\n            _name,\r\n            new uint[](0), // Kezdetben res gem ID-k tmbje\r\n            _physicalDetails,    // Trolja a kombinlt fizikai rszleteket\r\n            _sale,\r\n            true,\r\n            _price,\r\n            _fileURL,\r\n            msg.sender,\r\n            msg.sender,\r\n            msg.sender\r\n        );\r\n        jewelry[jewelryCount].previousGemIds.push(_gemId);\r\n\r\n        emit JewelryMaking(\r\n            jewelryCount,\r\n            _name,\r\n            _physicalDetails,\r\n            _sale,\r\n            true,\r\n            _price,\r\n            _fileURL,\r\n            msg.sender,\r\n            msg.sender,\r\n            msg.sender\r\n        );\r\n    }\r\n\r\n    function replaceGem(uint jewelryId, uint oldGemId, uint newGemId) public {\r\n        gemstoneSelecting.setPreviousGemId(newGemId, oldGemId);\r\n\r\n        JewelryData storage jew = jewelry[jewelryId];\r\n        jew.previousGemIds.push(newGemId);\r\n\r\n        emit GemReplaced(jewelryId, newGemId);\r\n    }\r\n\r\n    function getJewelryDetails(uint _id) public view returns (\r\n        uint id,\r\n        string memory name,\r\n        uint[] memory previousGemIds,\r\n        string memory physicalDetails,\r\n        bool processing,\r\n        bool sale,\r\n        uint price,\r\n        string memory fileURL,\r\n        address jeweler,\r\n        address owner,\r\n        address jewOwner \r\n    ) {\r\n        JewelryData storage jew = jewelry[_id];\r\n        return (\r\n            jew.id,\r\n            jew.name,\r\n            jew.previousGemIds,\r\n            jew.physicalDetails,\r\n            jew.processing,\r\n            jew.sale,\r\n            jew.price,\r\n            jew.fileURL,\r\n            jew.jeweler,\r\n            jew.owner,\r\n            jew.jewOwner\r\n        );\r\n    }\r\n\r\n    function buyJewelry(uint _id) public payable {\r\n        JewelryData storage jew = jewelry[_id];\r\n        require(jew.sale, \"Jewelry is not for sale\");\r\n        require(msg.value >= jew.price, \"Insufficient funds\");\r\n\r\n        jew.owner.transfer(msg.value);\r\n        jew.owner = msg.sender;\r\n        jew.jewOwner = msg.sender;\r\n        jew.sale = false;\r\n\r\n        emit JewelryBought(_id, msg.sender);\r\n    }\r\n\r\n    function updateGem(uint _jewelryId, uint _newGemId) public {\r\n        JewelryData storage jew = jewelry[_jewelryId];\r\n        require(msg.sender == jew.owner, \"Only the owner can update the gem\");\r\n\r\n        jew.previousGemIds.push(_newGemId);\r\n\r\n        emit GemUpdated(_jewelryId, _newGemId);\r\n    }\r\n\r\n    function getJewelryCountByOwner(address _owner) public view returns (uint) {\r\n        uint count = 0;\r\n        for (uint i = 1; i <= jewelryCount; i++) {\r\n            if (jewelry[i].owner == _owner) {\r\n                count++;\r\n            }\r\n        }\r\n        return count;\r\n    }\r\n\r\n    function getJewelryCountByJeweler(address _jeweler) public view returns (uint) {\r\n        uint count = 0;\r\n        for (uint i = 1; i <= jewelryCount; i++) {\r\n            if (jewelry[i].jeweler == _jeweler) {\r\n                count++;\r\n            }\r\n        }\r\n        return count;\r\n    }\r\n\r\n    function markedAsFinished(uint _id) public payable {\r\n        JewelryData storage _jewelry = jewelry[_id];\r\n        require(_jewelry.id > 0 && _jewelry.id <= jewelryCount, \"Invalid jew ID\");\r\n        require(_jewelry.processing == true, \"Jewelry already finished\");\r\n\r\n        _jewelry.processing = false;\r\n        _jewelry.sale = false;\r\n\r\n        emit JewelryFinished(_id, _jewelry.owner);\r\n    }\r\n\r\n    function markedAsSale(uint _id) public payable {\r\n        JewelryData storage _jewelry = jewelry[_id];\r\n        require(_jewelry.id > 0 && _jewelry.id <= jewelryCount, \"Invalid jew ID\");\r\n\r\n        _jewelry.sale = !_jewelry.sale ;\r\n\r\n        emit JewelrySale(_id, _jewelry.owner);\r\n    }\r\n\r\n      function addForRepair(uint _id) public{\r\n         JewelryData storage jew = jewelry[_id];\r\n\r\n        jew.owner = jew.jeweler;\r\n        jew.sale = false;\r\n\r\n        emit JewelryAddRepair(_id, jew.jewOwner, jew.jeweler);\r\n    \r\n    }\r\n\r\n     function returnToJewOwner(uint _id) public{\r\n         JewelryData storage jew = jewelry[_id];\r\n\r\n        jew.owner = jew.jewOwner;\r\n        jew.sale = false;\r\n\r\n        emit ReturnToJewOwner(_id, jew.jewOwner, jew.jeweler);\r\n    \r\n    }\r\n\r\n}",
  "sourcePath": "C:/Users/berke/asd/jewRoundx/src/contracts/Jewelry.sol",
  "compiler": {
    "name": "solc",
    "version": "0.5.0+commit.1d4f565a.Emscripten.clang"
  },
  "schemaVersion": "3.0.1",
  "updatedAt": "2024-11-21T13:57:56.021Z",
  "devdoc": {
    "methods": {}
  },
  "userdoc": {
    "methods": {}
  }
}