{
  "contractName": "Jewelry",
  "abi": [
    {
      "constant": true,
      "inputs": [],
      "name": "jewelryCount",
      "outputs": [
        {
          "name": "",
          "type": "uint256"
        }
      ],
      "payable": false,
      "stateMutability": "view",
      "type": "function",
      "signature": "0x590091a2"
    },
    {
      "constant": true,
      "inputs": [
        {
          "name": "",
          "type": "uint256"
        }
      ],
      "name": "jewelry",
      "outputs": [
        {
          "name": "id",
          "type": "uint256"
        },
        {
          "name": "name",
          "type": "string"
        },
        {
          "name": "gemId",
          "type": "uint256"
        },
        {
          "name": "metal",
          "type": "string"
        },
        {
          "name": "depth",
          "type": "uint256"
        },
        {
          "name": "height",
          "type": "uint256"
        },
        {
          "name": "width",
          "type": "uint256"
        },
        {
          "name": "size",
          "type": "uint256"
        },
        {
          "name": "date",
          "type": "uint256"
        },
        {
          "name": "sale",
          "type": "bool"
        },
        {
          "name": "price",
          "type": "uint256"
        },
        {
          "name": "jeweler",
          "type": "address"
        },
        {
          "name": "owner",
          "type": "address"
        }
      ],
      "payable": false,
      "stateMutability": "view",
      "type": "function",
      "signature": "0xe1474e65"
    },
    {
      "inputs": [
        {
          "name": "_gemstoneSelectingAddress",
          "type": "address"
        }
      ],
      "payable": false,
      "stateMutability": "nonpayable",
      "type": "constructor",
      "signature": "constructor"
    },
    {
      "anonymous": false,
      "inputs": [
        {
          "indexed": false,
          "name": "id",
          "type": "uint256"
        },
        {
          "indexed": false,
          "name": "name",
          "type": "string"
        },
        {
          "indexed": false,
          "name": "gemId",
          "type": "uint256"
        },
        {
          "indexed": false,
          "name": "metal",
          "type": "string"
        },
        {
          "indexed": false,
          "name": "depth",
          "type": "uint256"
        },
        {
          "indexed": false,
          "name": "height",
          "type": "uint256"
        },
        {
          "indexed": false,
          "name": "width",
          "type": "uint256"
        },
        {
          "indexed": false,
          "name": "size",
          "type": "uint256"
        },
        {
          "indexed": false,
          "name": "date",
          "type": "uint256"
        },
        {
          "indexed": false,
          "name": "sale",
          "type": "bool"
        },
        {
          "indexed": false,
          "name": "price",
          "type": "uint256"
        },
        {
          "indexed": false,
          "name": "jeweler",
          "type": "address"
        },
        {
          "indexed": false,
          "name": "owner",
          "type": "address"
        }
      ],
      "name": "JewelryMaking",
      "type": "event",
      "signature": "0x625b6fbcb36a958e8d6f1bdab52abf96a8e3a446552f69d83a01a868cba28e97"
    },
    {
      "constant": false,
      "inputs": [
        {
          "name": "_name",
          "type": "string"
        },
        {
          "name": "_gemId",
          "type": "uint256"
        },
        {
          "name": "_metal",
          "type": "string"
        },
        {
          "name": "_depth",
          "type": "uint256"
        },
        {
          "name": "_height",
          "type": "uint256"
        },
        {
          "name": "_width",
          "type": "uint256"
        },
        {
          "name": "_size",
          "type": "uint256"
        },
        {
          "name": "_date",
          "type": "uint256"
        },
        {
          "name": "_sale",
          "type": "bool"
        },
        {
          "name": "_price",
          "type": "uint256"
        }
      ],
      "name": "jewelryMaking",
      "outputs": [],
      "payable": false,
      "stateMutability": "nonpayable",
      "type": "function",
      "signature": "0x063f2e8f"
    }
  ],
  "bytecode": "0x6080604052600060015534801561001557600080fd5b50604051602080610e2b8339810180604052602081101561003557600080fd5b8101908080519060200190929190505050806000806101000a81548173ffffffffffffffffffffffffffffffffffffffff021916908373ffffffffffffffffffffffffffffffffffffffff16021790555050610d95806100966000396000f3fe608060405260043610610057576000357c0100000000000000000000000000000000000000000000000000000000900463ffffffff168063063f2e8f1461005c578063590091a21461020e578063e1474e6514610239575b600080fd5b34801561006857600080fd5b5061020c600480360361014081101561008057600080fd5b810190808035906020019064010000000081111561009d57600080fd5b8201836020820111156100af57600080fd5b803590602001918460018302840111640100000000831117156100d157600080fd5b91908080601f016020809104026020016040519081016040528093929190818152602001838380828437600081840152601f19601f820116905080830192505050505050509192919290803590602001909291908035906020019064010000000081111561013e57600080fd5b82018360208201111561015057600080fd5b8035906020019184600183028401116401000000008311171561017257600080fd5b91908080601f016020809104026020016040519081016040528093929190818152602001838380828437600081840152601f19601f820116905080830192505050505050509192919290803590602001909291908035906020019092919080359060200190929190803590602001909291908035906020019092919080351515906020019092919080359060200190929190505050610402565b005b34801561021a57600080fd5b50610223610adb565b6040518082815260200191505060405180910390f35b34801561024557600080fd5b506102726004803603602081101561025c57600080fd5b8101908080359060200190929190505050610ae1565b604051808e8152602001806020018d8152602001806020018c81526020018b81526020018a8152602001898152602001888152602001871515151581526020018681526020018573ffffffffffffffffffffffffffffffffffffffff1673ffffffffffffffffffffffffffffffffffffffff1681526020018473ffffffffffffffffffffffffffffffffffffffff1673ffffffffffffffffffffffffffffffffffffffff16815260200183810383528f818151815260200191508051906020019080838360005b83811015610354578082015181840152602081019050610339565b50505050905090810190601f1680156103815780820380516001836020036101000a031916815260200191505b5083810382528d818151815260200191508051906020019080838360005b838110156103ba57808201518184015260208101905061039f565b50505050905090810190601f1680156103e75780820380516001836020036101000a031916815260200191505b509f5050505050505050505050505050505060405180910390f35b60008060009054906101000a900473ffffffffffffffffffffffffffffffffffffffff1673ffffffffffffffffffffffffffffffffffffffff1663cee07c4b8b6040518263ffffffff167c01000000000000000000000000000000000000000000000000000000000281526004018082815260200191505060006040518083038186803b15801561049257600080fd5b505afa1580156104a6573d6000803e3d6000fd5b505050506040513d6000823e3d601f19601f820116820180604052506101a08110156104d157600080fd5b8101908080519060200190929190805190602001909291908051906020019092919080519060200190929190805190602001909291908051906020019092919080519060200190929190805164010000000081111561052f57600080fd5b8281019050602081018481111561054557600080fd5b815185600182028301116401000000008211171561056257600080fd5b5050929190602001805164010000000081111561057e57600080fd5b8281019050602081018481111561059457600080fd5b81518560018202830111640100000000821117156105b157600080fd5b505092919060200180519060200190929190805190602001909291908051906020019092919080519060200190929190505050509b50505050505050505050505060008811151561060157600080fd5b60008711151561061057600080fd5b60008611151561061f57600080fd5b60008211151561062e57600080fd5b60008a1115156106a6576040517f08c379a00000000000000000000000000000000000000000000000000000000081526004018080602001828103825260158152602001807f47656d49642063616e6e6f7420626520656d707479000000000000000000000081525060200191505060405180910390fd5b60008b5111151561071f576040517f08c379a00000000000000000000000000000000000000000000000000000000081526004018080602001828103825260148152602001807f4e616d652063616e6e6f7420626520656d70747900000000000000000000000081525060200191505060405180910390fd5b6001600081548092919060010191905055506101a06040519081016040528060015481526020018c81526020018b81526020018a815260200189815260200188815260200187815260200186815260200185815260200184151581526020018381526020013373ffffffffffffffffffffffffffffffffffffffff1681526020013373ffffffffffffffffffffffffffffffffffffffff168152506002600060015481526020019081526020016000206000820151816000015560208201518160010190805190602001906107f5929190610cc4565b5060408201518160020155606082015181600301908051906020019061081c929190610cc4565b506080820151816004015560a0820151816005015560c0820151816006015560e0820151816007015561010082015181600801556101208201518160090160006101000a81548160ff02191690831515021790555061014082015181600a015561016082015181600b0160006101000a81548173ffffffffffffffffffffffffffffffffffffffff021916908373ffffffffffffffffffffffffffffffffffffffff16021790555061018082015181600c0160006101000a81548173ffffffffffffffffffffffffffffffffffffffff021916908373ffffffffffffffffffffffffffffffffffffffff1602179055509050507f625b6fbcb36a958e8d6f1bdab52abf96a8e3a446552f69d83a01a868cba28e976001548c8c8c8c8c8c8c8c8c8c3333604051808e8152602001806020018d8152602001806020018c81526020018b81526020018a8152602001898152602001888152602001871515151581526020018681526020018573ffffffffffffffffffffffffffffffffffffffff1673ffffffffffffffffffffffffffffffffffffffff1681526020018473ffffffffffffffffffffffffffffffffffffffff1673ffffffffffffffffffffffffffffffffffffffff16815260200183810383528f818151815260200191508051906020019080838360005b83811015610a21578082015181840152602081019050610a06565b50505050905090810190601f168015610a4e5780820380516001836020036101000a031916815260200191505b5083810382528d818151815260200191508051906020019080838360005b83811015610a87578082015181840152602081019050610a6c565b50505050905090810190601f168015610ab45780820380516001836020036101000a031916815260200191505b509f5050505050505050505050505050505060405180910390a15050505050505050505050565b60015481565b6002602052806000526040600020600091509050806000015490806001018054600181600116156101000203166002900480601f016020809104026020016040519081016040528092919081815260200182805460018160011615610100020316600290048015610b935780601f10610b6857610100808354040283529160200191610b93565b820191906000526020600020905b815481529060010190602001808311610b7657829003601f168201915b505050505090806002015490806003018054600181600116156101000203166002900480601f016020809104026020016040519081016040528092919081815260200182805460018160011615610100020316600290048015610c375780601f10610c0c57610100808354040283529160200191610c37565b820191906000526020600020905b815481529060010190602001808311610c1a57829003601f168201915b5050505050908060040154908060050154908060060154908060070154908060080154908060090160009054906101000a900460ff169080600a01549080600b0160009054906101000a900473ffffffffffffffffffffffffffffffffffffffff169080600c0160009054906101000a900473ffffffffffffffffffffffffffffffffffffffff1690508d565b828054600181600116156101000203166002900490600052602060002090601f016020900481019282601f10610d0557805160ff1916838001178555610d33565b82800160010185558215610d33579182015b82811115610d32578251825591602001919060010190610d17565b5b509050610d409190610d44565b5090565b610d6691905b80821115610d62576000816000905550600101610d4a565b5090565b9056fea165627a7a7230582030822d81eb92c92bbff69220a4b44ff9dfb6378e10627b67adbfa3371a5a2d390029",
  "source": "pragma solidity >=0.4.21 <0.6.0;\n\ninterface IGemstoneSelecting {\n    function selectedGems(uint) external view returns (uint id, uint minedGemId, uint weight, uint height, uint width, uint diameter, uint carat, string memory color, string memory gemType, bool polishing, uint price, bool used, address owner);\n    function markGemAsUsed(uint _id) external;\n}\n\ncontract Jewelry {\n    \n    IGemstoneSelecting gemstoneSelecting;\n\n    /*struct GoldData{\n        string name;\n        uint gemId;\n        uint goldCarat;\n\n    }\n\n     struct SilverData{\n        string name;\n        uint gemId;\n\n    }\n\n     struct MedicalMetalData{\n        string name;\n        uint gemId;\n\n    }*/\n\n    uint public jewelryCount = 0;\n    mapping( uint => JewelryData) public jewelry;\n\n    struct JewelryData{\n        uint id;\n        string name;\n        uint gemId;\n        string metal;\n        uint depth;\n        uint height;\n        uint width;\n        uint size; //mekkora ujjra valo pl\n        uint date;\n        bool sale;\n        uint price;\n        address payable jeweler;\n        address payable owner;\n    }\n\n    event JewelryMaking(\n        uint id,\n        string name,\n        uint gemId,\n        string metal,\n        uint depth,\n        uint height,\n        uint width,\n        uint size,\n        uint date,\n        bool sale,\n        uint price,\n        address payable jeweler,\n        address payable owner\n    );\n\n     constructor(address _gemstoneSelectingAddress) public {\n        gemstoneSelecting = IGemstoneSelecting(_gemstoneSelectingAddress);\n    }\n\n    function jewelryMaking(string memory _name, uint _gemId, string memory _metal, uint _depth, uint _height, uint _width, uint _size, uint _date, bool _sale, uint _price ) public {\n        (, , , , , , , , , , , bool used, ) = gemstoneSelecting.selectedGems(_gemId);\n        //require(!used, \"Gem already used\");\n        \n        require( _depth > 0);\n        require( _height > 0);\n        require( _width > 0);\n        require( _price > 0);\n        require( _gemId > 0, \"GemId cannot be empty\");\n        require(bytes(_name).length > 0, \"Name cannot be empty\");\n        jewelryCount++;\n       jewelry[jewelryCount] = JewelryData(jewelryCount, _name, _gemId, _metal, _depth, _height, _width, _size, _date, _sale, _price, msg.sender, msg.sender);\n\n       emit JewelryMaking(jewelryCount, _name, _gemId, _metal, _depth, _height, _width, _size, _date, _sale, _price, msg.sender, msg.sender);\n\n    \n    }\n\n \n}",
  "sourcePath": "/home/berkeanna/folder/2/jewRoundx/src/contracts/Jewelry.sol",
  "compiler": {
    "name": "solc",
    "version": "0.5.0+commit.1d4f565a.Emscripten.clang"
  },
  "schemaVersion": "3.0.1",
  "updatedAt": "2024-02-13T11:37:17.316Z",
  "devdoc": {
    "methods": {}
  },
  "userdoc": {
    "methods": {}
  }
}