{
  "contractName": "Jewelry",
  "abi": [
    {
      "constant": true,
      "inputs": [],
      "name": "jewelryCount",
      "outputs": [
        {
          "name": "",
          "type": "uint256"
        }
      ],
      "payable": false,
      "stateMutability": "view",
      "type": "function",
      "signature": "0x590091a2"
    },
    {
      "constant": true,
      "inputs": [
        {
          "name": "",
          "type": "uint256"
        }
      ],
      "name": "jewelry",
      "outputs": [
        {
          "name": "id",
          "type": "uint256"
        },
        {
          "name": "name",
          "type": "string"
        },
        {
          "name": "physicalDetails",
          "type": "string"
        },
        {
          "name": "sale",
          "type": "bool"
        },
        {
          "name": "processing",
          "type": "bool"
        },
        {
          "name": "price",
          "type": "uint256"
        },
        {
          "name": "fileURL",
          "type": "string"
        },
        {
          "name": "jeweler",
          "type": "address"
        },
        {
          "name": "owner",
          "type": "address"
        }
      ],
      "payable": false,
      "stateMutability": "view",
      "type": "function",
      "signature": "0xe1474e65"
    },
    {
      "inputs": [
        {
          "name": "_gemstoneSelectingAddress",
          "type": "address"
        }
      ],
      "payable": false,
      "stateMutability": "nonpayable",
      "type": "constructor",
      "signature": "constructor"
    },
    {
      "anonymous": false,
      "inputs": [
        {
          "indexed": false,
          "name": "id",
          "type": "uint256"
        },
        {
          "indexed": false,
          "name": "name",
          "type": "string"
        },
        {
          "indexed": false,
          "name": "physicalDetails",
          "type": "string"
        },
        {
          "indexed": false,
          "name": "sale",
          "type": "bool"
        },
        {
          "indexed": false,
          "name": "processing",
          "type": "bool"
        },
        {
          "indexed": false,
          "name": "price",
          "type": "uint256"
        },
        {
          "indexed": false,
          "name": "fileURL",
          "type": "string"
        },
        {
          "indexed": false,
          "name": "jeweler",
          "type": "address"
        },
        {
          "indexed": false,
          "name": "owner",
          "type": "address"
        }
      ],
      "name": "JewelryMaking",
      "type": "event",
      "signature": "0x51f9fb75789881aa65d662d10693411658eeed7fb85d800261fb53186b9c604e"
    },
    {
      "anonymous": false,
      "inputs": [
        {
          "indexed": false,
          "name": "id",
          "type": "uint256"
        },
        {
          "indexed": false,
          "name": "newOwner",
          "type": "address"
        }
      ],
      "name": "JewelryBought",
      "type": "event",
      "signature": "0x8cf6668963454e0e03344a04e39acce1b18f277dd1c1d93a3c102254a31b5106"
    },
    {
      "anonymous": false,
      "inputs": [
        {
          "indexed": false,
          "name": "jewelryId",
          "type": "uint256"
        },
        {
          "indexed": false,
          "name": "newGemId",
          "type": "uint256"
        }
      ],
      "name": "GemUpdated",
      "type": "event",
      "signature": "0xa0213487aec5c403f0b758b3bd365a140c241dd4570644d26fa7f23a486f7bde"
    },
    {
      "anonymous": false,
      "inputs": [
        {
          "indexed": false,
          "name": "id",
          "type": "uint256"
        },
        {
          "indexed": false,
          "name": "owner",
          "type": "address"
        }
      ],
      "name": "JewelryFinished",
      "type": "event",
      "signature": "0x0602407819daab8a181af1f486ef59fab62816c96804e0236cc9597bf0d100b9"
    },
    {
      "constant": false,
      "inputs": [
        {
          "name": "_name",
          "type": "string"
        },
        {
          "name": "_gemId",
          "type": "uint256"
        },
        {
          "name": "_physicalDetails",
          "type": "string"
        },
        {
          "name": "_sale",
          "type": "bool"
        },
        {
          "name": "_price",
          "type": "uint256"
        },
        {
          "name": "_fileURL",
          "type": "string"
        }
      ],
      "name": "jewelryMaking",
      "outputs": [],
      "payable": false,
      "stateMutability": "nonpayable",
      "type": "function",
      "signature": "0x7fefd3d2"
    },
    {
      "constant": true,
      "inputs": [
        {
          "name": "_id",
          "type": "uint256"
        }
      ],
      "name": "getJewelryDetails",
      "outputs": [
        {
          "name": "id",
          "type": "uint256"
        },
        {
          "name": "name",
          "type": "string"
        },
        {
          "name": "previousGemIds",
          "type": "uint256[]"
        },
        {
          "name": "physicalDetails",
          "type": "string"
        },
        {
          "name": "processing",
          "type": "bool"
        },
        {
          "name": "sale",
          "type": "bool"
        },
        {
          "name": "price",
          "type": "uint256"
        },
        {
          "name": "fileURL",
          "type": "string"
        },
        {
          "name": "jeweler",
          "type": "address"
        },
        {
          "name": "owner",
          "type": "address"
        }
      ],
      "payable": false,
      "stateMutability": "view",
      "type": "function",
      "signature": "0xc95a7536"
    },
    {
      "constant": false,
      "inputs": [
        {
          "name": "_id",
          "type": "uint256"
        }
      ],
      "name": "buyJewelry",
      "outputs": [],
      "payable": true,
      "stateMutability": "payable",
      "type": "function",
      "signature": "0x98367139"
    },
    {
      "constant": false,
      "inputs": [
        {
          "name": "_jewelryId",
          "type": "uint256"
        },
        {
          "name": "_newGemId",
          "type": "uint256"
        }
      ],
      "name": "updateGem",
      "outputs": [],
      "payable": false,
      "stateMutability": "nonpayable",
      "type": "function",
      "signature": "0x796b264d"
    },
    {
      "constant": true,
      "inputs": [
        {
          "name": "_owner",
          "type": "address"
        }
      ],
      "name": "getJewelryCountByOwner",
      "outputs": [
        {
          "name": "",
          "type": "uint256"
        }
      ],
      "payable": false,
      "stateMutability": "view",
      "type": "function",
      "signature": "0xd0f6ae6d"
    },
    {
      "constant": true,
      "inputs": [
        {
          "name": "_jeweler",
          "type": "address"
        }
      ],
      "name": "getJewelryCountByJeweler",
      "outputs": [
        {
          "name": "",
          "type": "uint256"
        }
      ],
      "payable": false,
      "stateMutability": "view",
      "type": "function",
      "signature": "0x4ff26335"
    },
    {
      "constant": false,
      "inputs": [
        {
          "name": "_id",
          "type": "uint256"
        }
      ],
      "name": "markedAsFinished",
      "outputs": [],
      "payable": true,
      "stateMutability": "payable",
      "type": "function",
      "signature": "0x52124201"
    }
  ],
  "bytecode": "0x6080604052600060015534801561001557600080fd5b50604051602080611b758339810180604052602081101561003557600080fd5b8101908080519060200190929190505050806000806101000a81548173ffffffffffffffffffffffffffffffffffffffff021916908373ffffffffffffffffffffffffffffffffffffffff16021790555050611adf806100966000396000f3fe608060405260043610610099576000357c0100000000000000000000000000000000000000000000000000000000900463ffffffff1680634ff263351461009e5780635212420114610103578063590091a214610131578063796b264d1461015c5780637fefd3d2146101a157806398367139146103b7578063c95a7536146103e5578063d0f6ae6d14610643578063e1474e65146106a8575b600080fd5b3480156100aa57600080fd5b506100ed600480360360208110156100c157600080fd5b81019080803573ffffffffffffffffffffffffffffffffffffffff1690602001909291905050506108be565b6040518082815260200191505060405180910390f35b61012f6004803603602081101561011957600080fd5b8101908080359060200190929190505050610961565b005b34801561013d57600080fd5b50610146610b60565b6040518082815260200191505060405180910390f35b34801561016857600080fd5b5061019f6004803603604081101561017f57600080fd5b810190808035906020019092919080359060200190929190505050610b66565b005b3480156101ad57600080fd5b506103b5600480360360c08110156101c457600080fd5b81019080803590602001906401000000008111156101e157600080fd5b8201836020820111156101f357600080fd5b8035906020019184600183028401116401000000008311171561021557600080fd5b91908080601f016020809104026020016040519081016040528093929190818152602001838380828437600081840152601f19601f820116905080830192505050505050509192919290803590602001909291908035906020019064010000000081111561028257600080fd5b82018360208201111561029457600080fd5b803590602001918460018302840111640100000000831117156102b657600080fd5b91908080601f016020809104026020016040519081016040528093929190818152602001838380828437600081840152601f19601f820116905080830192505050505050509192919290803515159060200190929190803590602001909291908035906020019064010000000081111561032f57600080fd5b82018360208201111561034157600080fd5b8035906020019184600183028401116401000000008311171561036357600080fd5b91908080601f016020809104026020016040519081016040528093929190818152602001838380828437600081840152601f19601f820116905080830192505050505050509192919290505050610cdc565b005b6103e3600480360360208110156103cd57600080fd5b810190808035906020019092919050505061115d565b005b3480156103f157600080fd5b5061041e6004803603602081101561040857600080fd5b81019080803590602001909291905050506113b0565b604051808b81526020018060200180602001806020018a15151515815260200189151515158152602001888152602001806020018773ffffffffffffffffffffffffffffffffffffffff1673ffffffffffffffffffffffffffffffffffffffff1681526020018673ffffffffffffffffffffffffffffffffffffffff1673ffffffffffffffffffffffffffffffffffffffff16815260200185810385528e818151815260200191508051906020019080838360005b838110156104ee5780820151818401526020810190506104d3565b50505050905090810190601f16801561051b5780820380516001836020036101000a031916815260200191505b5085810384528d818151815260200191508051906020019060200280838360005b8381101561055757808201518184015260208101905061053c565b5050505090500185810383528c818151815260200191508051906020019080838360005b8381101561059657808201518184015260208101905061057b565b50505050905090810190601f1680156105c35780820380516001836020036101000a031916815260200191505b50858103825288818151815260200191508051906020019080838360005b838110156105fc5780820151818401526020810190506105e1565b50505050905090810190601f1680156106295780820380516001836020036101000a031916815260200191505b509e50505050505050505050505050505060405180910390f35b34801561064f57600080fd5b506106926004803603602081101561066657600080fd5b81019080803573ffffffffffffffffffffffffffffffffffffffff1690602001909291905050506116ae565b6040518082815260200191505060405180910390f35b3480156106b457600080fd5b506106e1600480360360208110156106cb57600080fd5b8101908080359060200190929190505050611751565b604051808a815260200180602001806020018915151515815260200188151515158152602001878152602001806020018673ffffffffffffffffffffffffffffffffffffffff1673ffffffffffffffffffffffffffffffffffffffff1681526020018573ffffffffffffffffffffffffffffffffffffffff1673ffffffffffffffffffffffffffffffffffffffff16815260200184810384528c818151815260200191508051906020019080838360005b838110156107ad578082015181840152602081019050610792565b50505050905090810190601f1680156107da5780820380516001836020036101000a031916815260200191505b5084810383528b818151815260200191508051906020019080838360005b838110156108135780820151818401526020810190506107f8565b50505050905090810190601f1680156108405780820380516001836020036101000a031916815260200191505b50848103825287818151815260200191508051906020019080838360005b8381101561087957808201518184015260208101905061085e565b50505050905090810190601f1680156108a65780820380516001836020036101000a031916815260200191505b509c5050505050505050505050505060405180910390f35b600080600090506000600190505b60015481111515610957578373ffffffffffffffffffffffffffffffffffffffff166002600083815260200190815260200160002060070160009054906101000a900473ffffffffffffffffffffffffffffffffffffffff1673ffffffffffffffffffffffffffffffffffffffff16141561094a5781806001019250505b80806001019150506108cc565b5080915050919050565b6000600260008381526020019081526020016000209050600081600001541180156109925750600154816000015411155b1515610a06576040517f08c379a000000000000000000000000000000000000000000000000000000000815260040180806020018281038252600e8152602001807f496e76616c6964206a657720494400000000000000000000000000000000000081525060200191505060405180910390fd5b600115158160040160019054906101000a900460ff161515141515610a93576040517f08c379a00000000000000000000000000000000000000000000000000000000081526004018080602001828103825260188152602001807f4a6577656c727920616c72656164792066696e6973686564000000000000000081525060200191505060405180910390fd5b60008160040160016101000a81548160ff02191690831515021790555060018160040160006101000a81548160ff0219169083151502179055507f0602407819daab8a181af1f486ef59fab62816c96804e0236cc9597bf0d100b9828260080160009054906101000a900473ffffffffffffffffffffffffffffffffffffffff16604051808381526020018273ffffffffffffffffffffffffffffffffffffffff1673ffffffffffffffffffffffffffffffffffffffff1681526020019250505060405180910390a15050565b60015481565b60006002600084815260200190815260200160002090508060080160009054906101000a900473ffffffffffffffffffffffffffffffffffffffff1673ffffffffffffffffffffffffffffffffffffffff163373ffffffffffffffffffffffffffffffffffffffff16141515610c6a576040517f08c379a00000000000000000000000000000000000000000000000000000000081526004018080602001828103825260218152602001807f4f6e6c7920746865206f776e65722063616e207570646174652074686520676581526020017f6d0000000000000000000000000000000000000000000000000000000000000081525060400191505060405180910390fd5b806002018290806001815401808255809150509060018203906000526020600020016000909192909190915055507fa0213487aec5c403f0b758b3bd365a140c241dd4570644d26fa7f23a486f7bde8383604051808381526020018281526020019250505060405180910390a1505050565b6001600081548092919060010191905055506101406040519081016040528060015481526020018781526020016000604051908082528060200260200182016040528015610d395781602001602082028038833980820191505090505b5081526020018581526020016000151581526020016001151581526020018381526020018281526020013373ffffffffffffffffffffffffffffffffffffffff1681526020013373ffffffffffffffffffffffffffffffffffffffff16815250600260006001548152602001908152602001600020600082015181600001556020820151816001019080519060200190610dd49291906119c1565b506040820151816002019080519060200190610df1929190611a41565b506060820151816003019080519060200190610e0e9291906119c1565b5060808201518160040160006101000a81548160ff02191690831515021790555060a08201518160040160016101000a81548160ff02191690831515021790555060c0820151816005015560e0820151816006019080519060200190610e759291906119c1565b506101008201518160070160006101000a81548173ffffffffffffffffffffffffffffffffffffffff021916908373ffffffffffffffffffffffffffffffffffffffff1602179055506101208201518160080160006101000a81548173ffffffffffffffffffffffffffffffffffffffff021916908373ffffffffffffffffffffffffffffffffffffffff1602179055509050506002600060015481526020019081526020016000206002018590806001815401808255809150509060018203906000526020600020016000909192909190915055507f51f9fb75789881aa65d662d10693411658eeed7fb85d800261fb53186b9c604e60015487866000600187873333604051808a815260200180602001806020018915151515815260200188151515158152602001878152602001806020018673ffffffffffffffffffffffffffffffffffffffff1673ffffffffffffffffffffffffffffffffffffffff1681526020018573ffffffffffffffffffffffffffffffffffffffff1673ffffffffffffffffffffffffffffffffffffffff16815260200184810384528c818151815260200191508051906020019080838360005b8381101561104557808201518184015260208101905061102a565b50505050905090810190601f1680156110725780820380516001836020036101000a031916815260200191505b5084810383528b818151815260200191508051906020019080838360005b838110156110ab578082015181840152602081019050611090565b50505050905090810190601f1680156110d85780820380516001836020036101000a031916815260200191505b50848103825287818151815260200191508051906020019080838360005b838110156111115780820151818401526020810190506110f6565b50505050905090810190601f16801561113e5780820380516001836020036101000a031916815260200191505b509c5050505050505050505050505060405180910390a1505050505050565b60006002600083815260200190815260200160002090508060040160009054906101000a900460ff1615156111fa576040517f08c379a00000000000000000000000000000000000000000000000000000000081526004018080602001828103825260178152602001807f4a6577656c7279206973206e6f7420666f722073616c6500000000000000000081525060200191505060405180910390fd5b80600501543410151515611276576040517f08c379a00000000000000000000000000000000000000000000000000000000081526004018080602001828103825260128152602001807f496e73756666696369656e742066756e6473000000000000000000000000000081525060200191505060405180910390fd5b8060080160009054906101000a900473ffffffffffffffffffffffffffffffffffffffff1673ffffffffffffffffffffffffffffffffffffffff166108fc349081150290604051600060405180830381858888f193505050501580156112e0573d6000803e3d6000fd5b50338160080160006101000a81548173ffffffffffffffffffffffffffffffffffffffff021916908373ffffffffffffffffffffffffffffffffffffffff16021790555060008160040160006101000a81548160ff0219169083151502179055507f8cf6668963454e0e03344a04e39acce1b18f277dd1c1d93a3c102254a31b51068233604051808381526020018273ffffffffffffffffffffffffffffffffffffffff1673ffffffffffffffffffffffffffffffffffffffff1681526020019250505060405180910390a15050565b60006060806060600080600060606000806000600260008d8152602001908152602001600020905080600001548160010182600201836003018460040160019054906101000a900460ff168560040160009054906101000a900460ff168660050154876006018860070160009054906101000a900473ffffffffffffffffffffffffffffffffffffffff168960080160009054906101000a900473ffffffffffffffffffffffffffffffffffffffff16888054600181600116156101000203166002900480601f0160208091040260200160405190810160405280929190818152602001828054600181600116156101000203166002900480156114f55780601f106114ca576101008083540402835291602001916114f5565b820191906000526020600020905b8154815290600101906020018083116114d857829003601f168201915b505050505098508780548060200260200160405190810160405280929190818152602001828054801561154757602002820191906000526020600020905b815481526020019060010190808311611533575b50505050509750868054600181600116156101000203166002900480601f0160208091040260200160405190810160405280929190818152602001828054600181600116156101000203166002900480156115e35780601f106115b8576101008083540402835291602001916115e3565b820191906000526020600020905b8154815290600101906020018083116115c657829003601f168201915b50505050509650828054600181600116156101000203166002900480601f01602080910402602001604051908101604052809291908181526020018280546001816001161561010002031660029004801561167f5780601f106116545761010080835404028352916020019161167f565b820191906000526020600020905b81548152906001019060200180831161166257829003601f168201915b505050505092508191508090509a509a509a509a509a509a509a509a509a509a50509193959799509193959799565b600080600090506000600190505b60015481111515611747578373ffffffffffffffffffffffffffffffffffffffff166002600083815260200190815260200160002060080160009054906101000a900473ffffffffffffffffffffffffffffffffffffffff1673ffffffffffffffffffffffffffffffffffffffff16141561173a5781806001019250505b80806001019150506116bc565b5080915050919050565b6002602052806000526040600020600091509050806000015490806001018054600181600116156101000203166002900480601f0160208091040260200160405190810160405280929190818152602001828054600181600116156101000203166002900480156118035780601f106117d857610100808354040283529160200191611803565b820191906000526020600020905b8154815290600101906020018083116117e657829003601f168201915b505050505090806003018054600181600116156101000203166002900480601f0160208091040260200160405190810160405280929190818152602001828054600181600116156101000203166002900480156118a15780601f10611876576101008083540402835291602001916118a1565b820191906000526020600020905b81548152906001019060200180831161188457829003601f168201915b5050505050908060040160009054906101000a900460ff16908060040160019054906101000a900460ff1690806005015490806006018054600181600116156101000203166002900480601f01602080910402602001604051908101604052809291908181526020018280546001816001161561010002031660029004801561196b5780601f106119405761010080835404028352916020019161196b565b820191906000526020600020905b81548152906001019060200180831161194e57829003601f168201915b5050505050908060070160009054906101000a900473ffffffffffffffffffffffffffffffffffffffff16908060080160009054906101000a900473ffffffffffffffffffffffffffffffffffffffff16905089565b828054600181600116156101000203166002900490600052602060002090601f016020900481019282601f10611a0257805160ff1916838001178555611a30565b82800160010185558215611a30579182015b82811115611a2f578251825591602001919060010190611a14565b5b509050611a3d9190611a8e565b5090565b828054828255906000526020600020908101928215611a7d579160200282015b82811115611a7c578251825591602001919060010190611a61565b5b509050611a8a9190611a8e565b5090565b611ab091905b80821115611aac576000816000905550600101611a94565b5090565b9056fea165627a7a72305820e7cacba2eba74f4c1f1fad4854ba49d50b254c345768014130820546ff2dc1bb0029",
  "source": "pragma solidity >=0.4.21 <0.6.0;\r\n\r\ninterface IGemstoneSelecting {\r\n    function selectedGems(uint) external view returns (uint id, uint minedGemId, uint weight, uint height, uint width, uint diameter, uint carat, string memory color, string memory gemType, bool forSale, uint price, bool used, address owner);\r\n    function markGemAsUsed(uint _id) external;\r\n}\r\n\r\ncontract Jewelry {\r\n    IGemstoneSelecting gemstoneSelecting;\r\n    uint public jewelryCount = 0;\r\n    mapping(uint => JewelryData) public jewelry;\r\n\r\n    struct JewelryData {\r\n        uint id;\r\n        string name;\r\n        uint[] previousGemIds;\r\n        string physicalDetails;  // Combine metal and size into a single string\r\n        bool sale;                // Separate out the `sale` and `processing` fields\r\n        bool processing;\r\n        uint price;\r\n        string fileURL;\r\n        address payable jeweler;\r\n        address payable owner;\r\n    }\r\n\r\n    event JewelryMaking(\r\n        uint id,\r\n        string name,\r\n        string physicalDetails,\r\n        bool sale,\r\n        bool processing,\r\n        uint price,\r\n        string fileURL,\r\n        address payable jeweler,\r\n        address payable owner\r\n    );\r\n\r\n    event JewelryBought(uint id, address payable newOwner);\r\n    event GemUpdated(uint jewelryId, uint newGemId);\r\n    event JewelryFinished(uint id, address owner);\r\n\r\n\r\n    constructor(address _gemstoneSelectingAddress) public {\r\n        gemstoneSelecting = IGemstoneSelecting(_gemstoneSelectingAddress);\r\n    }\r\n\r\n    function jewelryMaking(\r\n        string memory _name,\r\n        uint _gemId,\r\n        string memory _physicalDetails,  // Accept combined physical details\r\n        bool _sale,\r\n        uint _price,\r\n        string memory _fileURL\r\n    ) public {\r\n        jewelryCount++;\r\n\r\n        jewelry[jewelryCount] = JewelryData(\r\n            jewelryCount,\r\n            _name,\r\n            new uint[](0) ,\r\n            _physicalDetails,    // Store the combined physical details\r\n            false,\r\n            true,               // Initialize processing to false\r\n            _price,\r\n            _fileURL,\r\n            msg.sender,\r\n            msg.sender\r\n        );\r\n        jewelry[jewelryCount].previousGemIds.push(_gemId);\r\n\r\n        emit JewelryMaking(\r\n            jewelryCount,\r\n            _name,\r\n            _physicalDetails,\r\n            false,\r\n            true,\r\n            _price,\r\n            _fileURL,\r\n            msg.sender,\r\n            msg.sender\r\n        );\r\n    }\r\n\r\n\r\n function getJewelryDetails(uint _id) public view returns (\r\n    uint id,\r\n    string memory name,\r\n    uint[] memory previousGemIds, \r\n    string memory physicalDetails, \r\n    bool processing,  // <-- Ez a boolean itt van a sorrendben\r\n    bool sale,        // <-- És ez itt van\r\n    uint price,\r\n    string memory fileURL, \r\n    address jeweler, \r\n    address owner\r\n) {\r\n    JewelryData storage jew = jewelry[_id];\r\n    return (\r\n        jew.id,\r\n        jew.name,\r\n        jew.previousGemIds,\r\n        jew.physicalDetails,\r\n        jew.processing,  // <-- Ez a helyes sorrend szerint\r\n        jew.sale,        // <-- És ez is\r\n        jew.price,\r\n        jew.fileURL,\r\n        jew.jeweler,\r\n        jew.owner\r\n    );\r\n}\r\n\r\n\r\n\r\n    function buyJewelry(uint _id) public payable {\r\n        JewelryData storage jew = jewelry[_id];\r\n        require(jew.sale, \"Jewelry is not for sale\");\r\n        require(msg.value >= jew.price, \"Insufficient funds\");\r\n\r\n        jew.owner.transfer(msg.value);\r\n        jew.owner = msg.sender;\r\n        jew.sale = false;\r\n\r\n        emit JewelryBought(_id, msg.sender);\r\n    }\r\n\r\n    function updateGem(uint _jewelryId, uint _newGemId) public {\r\n        JewelryData storage jew = jewelry[_jewelryId];\r\n        require(msg.sender == jew.owner, \"Only the owner can update the gem\");\r\n\r\n        jew.previousGemIds.push(_newGemId);\r\n\r\n        emit GemUpdated(_jewelryId, _newGemId);\r\n    }\r\n\r\n    function getJewelryCountByOwner(address _owner) public view returns (uint) {\r\n        uint count = 0;\r\n        for (uint i = 1; i <= jewelryCount; i++) {\r\n            if (jewelry[i].owner == _owner) {\r\n                count++;\r\n            }\r\n        }\r\n        return count;\r\n    }\r\n\r\n    function getJewelryCountByJeweler(address _jeweler) public view returns (uint) {\r\n        uint count = 0;\r\n        for (uint i = 1; i <= jewelryCount; i++) {\r\n            if (jewelry[i].jeweler == _jeweler) {\r\n                count++;\r\n            }\r\n        }\r\n        return count;\r\n    }\r\n\r\n    //todo: finish: change processing v. to false.\r\n function markedAsFinished(uint _id) public payable {\r\n    JewelryData storage _jewelry = jewelry[_id];\r\n    require(_jewelry.id > 0 && _jewelry.id <= jewelryCount, \"Invalid jew ID\");\r\n    require(_jewelry.processing == true, \"Jewelry already finished\");\r\n\r\n    _jewelry.processing = false;  // processing set to false when finished\r\n    _jewelry.sale = true;  // sale set to true, making it available for sale\r\n    emit JewelryFinished(_id, _jewelry.owner);\r\n}\r\n\r\n \r\n \r\n\r\n\r\n    //todo: add gem working as repair. \r\n}\r\n",
  "sourcePath": "C:/Users/berke/GitHub/jewRoundx/src/contracts/Jewelry.sol",
  "compiler": {
    "name": "solc",
    "version": "0.5.0+commit.1d4f565a.Emscripten.clang"
  },
  "schemaVersion": "3.0.1",
  "updatedAt": "2024-08-22T14:51:00.099Z",
  "devdoc": {
    "methods": {}
  },
  "userdoc": {
    "methods": {}
  }
}