{
  "contractName": "Jewelry",
  "abi": [
    {
      "constant": true,
      "inputs": [],
      "name": "jewelryCount",
      "outputs": [
        {
          "name": "",
          "type": "uint256"
        }
      ],
      "payable": false,
      "stateMutability": "view",
      "type": "function",
      "signature": "0x590091a2"
    },
    {
      "constant": true,
      "inputs": [
        {
          "name": "",
          "type": "uint256"
        }
      ],
      "name": "jewelry",
      "outputs": [
        {
          "name": "id",
          "type": "uint256"
        },
        {
          "name": "name",
          "type": "string"
        },
        {
          "name": "gemId",
          "type": "uint256"
        },
        {
          "name": "metal",
          "type": "string"
        },
        {
          "name": "depth",
          "type": "uint256"
        },
        {
          "name": "height",
          "type": "uint256"
        },
        {
          "name": "width",
          "type": "uint256"
        },
        {
          "name": "sale",
          "type": "bool"
        },
        {
          "name": "price",
          "type": "uint256"
        },
        {
          "name": "fileURL",
          "type": "string"
        },
        {
          "name": "jeweler",
          "type": "address"
        },
        {
          "name": "owner",
          "type": "address"
        }
      ],
      "payable": false,
      "stateMutability": "view",
      "type": "function",
      "signature": "0xe1474e65"
    },
    {
      "inputs": [
        {
          "name": "_gemstoneSelectingAddress",
          "type": "address"
        }
      ],
      "payable": false,
      "stateMutability": "nonpayable",
      "type": "constructor",
      "signature": "constructor"
    },
    {
      "anonymous": false,
      "inputs": [
        {
          "indexed": false,
          "name": "id",
          "type": "uint256"
        },
        {
          "indexed": false,
          "name": "name",
          "type": "string"
        },
        {
          "indexed": false,
          "name": "gemId",
          "type": "uint256"
        },
        {
          "indexed": false,
          "name": "metal",
          "type": "string"
        },
        {
          "indexed": false,
          "name": "depth",
          "type": "uint256"
        },
        {
          "indexed": false,
          "name": "height",
          "type": "uint256"
        },
        {
          "indexed": false,
          "name": "width",
          "type": "uint256"
        },
        {
          "indexed": false,
          "name": "sale",
          "type": "bool"
        },
        {
          "indexed": false,
          "name": "price",
          "type": "uint256"
        },
        {
          "indexed": false,
          "name": "fileURL",
          "type": "string"
        },
        {
          "indexed": false,
          "name": "jeweler",
          "type": "address"
        },
        {
          "indexed": false,
          "name": "owner",
          "type": "address"
        }
      ],
      "name": "JewelryMaking",
      "type": "event",
      "signature": "0x2422ab6018e72154d1d4b7502a8760e5b9ce6175f16a2d64815115c03a749de3"
    },
    {
      "anonymous": false,
      "inputs": [
        {
          "indexed": false,
          "name": "id",
          "type": "uint256"
        },
        {
          "indexed": false,
          "name": "newOwner",
          "type": "address"
        }
      ],
      "name": "JewelryBought",
      "type": "event",
      "signature": "0x8cf6668963454e0e03344a04e39acce1b18f277dd1c1d93a3c102254a31b5106"
    },
    {
      "constant": false,
      "inputs": [
        {
          "name": "_name",
          "type": "string"
        },
        {
          "name": "_gemId",
          "type": "uint256"
        },
        {
          "name": "_metal",
          "type": "string"
        },
        {
          "name": "_depth",
          "type": "uint256"
        },
        {
          "name": "_height",
          "type": "uint256"
        },
        {
          "name": "_width",
          "type": "uint256"
        },
        {
          "name": "_sale",
          "type": "bool"
        },
        {
          "name": "_price",
          "type": "uint256"
        },
        {
          "name": "_fileURL",
          "type": "string"
        }
      ],
      "name": "jewelryMaking",
      "outputs": [],
      "payable": false,
      "stateMutability": "nonpayable",
      "type": "function",
      "signature": "0x4610be90"
    },
    {
      "constant": false,
      "inputs": [
        {
          "name": "_id",
          "type": "uint256"
        }
      ],
      "name": "buyJewelry",
      "outputs": [],
      "payable": true,
      "stateMutability": "payable",
      "type": "function",
      "signature": "0x98367139"
    }
  ],
  "bytecode": "0x6080604052600060015534801561001557600080fd5b50604051602080610f478339810180604052602081101561003557600080fd5b8101908080519060200190929190505050806000806101000a81548173ffffffffffffffffffffffffffffffffffffffff021916908373ffffffffffffffffffffffffffffffffffffffff16021790555050610eb1806100966000396000f3fe608060405260043610610062576000357c0100000000000000000000000000000000000000000000000000000000900463ffffffff1680634610be9014610067578063590091a21461029c57806398367139146102c7578063e1474e65146102f5575b600080fd5b34801561007357600080fd5b5061029a600480360361012081101561008b57600080fd5b81019080803590602001906401000000008111156100a857600080fd5b8201836020820111156100ba57600080fd5b803590602001918460018302840111640100000000831117156100dc57600080fd5b91908080601f016020809104026020016040519081016040528093929190818152602001838380828437600081840152601f19601f820116905080830192505050505050509192919290803590602001909291908035906020019064010000000081111561014957600080fd5b82018360208201111561015b57600080fd5b8035906020019184600183028401116401000000008311171561017d57600080fd5b91908080601f016020809104026020016040519081016040528093929190818152602001838380828437600081840152601f19601f820116905080830192505050505050509192919290803590602001909291908035906020019092919080359060200190929190803515159060200190929190803590602001909291908035906020019064010000000081111561021457600080fd5b82018360208201111561022657600080fd5b8035906020019184600183028401116401000000008311171561024857600080fd5b91908080601f016020809104026020016040519081016040528093929190818152602001838380828437600081840152601f19601f82011690508083019250505050505050919291929050505061051c565b005b3480156102a857600080fd5b506102b161092f565b6040518082815260200191505060405180910390f35b6102f3600480360360208110156102dd57600080fd5b8101908080359060200190929190505050610935565b005b34801561030157600080fd5b5061032e6004803603602081101561031857600080fd5b8101908080359060200190929190505050610b6b565b604051808d8152602001806020018c8152602001806020018b81526020018a815260200189815260200188151515158152602001878152602001806020018673ffffffffffffffffffffffffffffffffffffffff1673ffffffffffffffffffffffffffffffffffffffff1681526020018573ffffffffffffffffffffffffffffffffffffffff1673ffffffffffffffffffffffffffffffffffffffff16815260200184810384528f818151815260200191508051906020019080838360005b838110156104085780820151818401526020810190506103ed565b50505050905090810190601f1680156104355780820380516001836020036101000a031916815260200191505b5084810383528d818151815260200191508051906020019080838360005b8381101561046e578082015181840152602081019050610453565b50505050905090810190601f16801561049b5780820380516001836020036101000a031916815260200191505b50848103825287818151815260200191508051906020019080838360005b838110156104d45780820151818401526020810190506104b9565b50505050905090810190601f1680156105015780820380516001836020036101000a031916815260200191505b509f5050505050505050505050505050505060405180910390f35b600160008154809291906001019190505550610180604051908101604052808981526020018a815260200189815260200188815260200187815260200186815260200185815260200184151581526020018381526020018281526020013373ffffffffffffffffffffffffffffffffffffffff1681526020013373ffffffffffffffffffffffffffffffffffffffff16815250600260008a81526020019081526020016000206000820151816000015560208201518160010190805190602001906105e8929190610de0565b5060408201518160020155606082015181600301908051906020019061060f929190610de0565b506080820151816004015560a0820151816005015560c0820151816006015560e08201518160070160006101000a81548160ff0219169083151502179055506101008201518160080155610120820151816009019080519060200190610676929190610de0565b5061014082015181600a0160006101000a81548173ffffffffffffffffffffffffffffffffffffffff021916908373ffffffffffffffffffffffffffffffffffffffff16021790555061016082015181600b0160006101000a81548173ffffffffffffffffffffffffffffffffffffffff021916908373ffffffffffffffffffffffffffffffffffffffff1602179055509050507f2422ab6018e72154d1d4b7502a8760e5b9ce6175f16a2d64815115c03a749de3888a8a8a8a8a8a8a8a8a3333604051808d8152602001806020018c8152602001806020018b81526020018a815260200189815260200188151515158152602001878152602001806020018673ffffffffffffffffffffffffffffffffffffffff1673ffffffffffffffffffffffffffffffffffffffff1681526020018573ffffffffffffffffffffffffffffffffffffffff1673ffffffffffffffffffffffffffffffffffffffff16815260200184810384528f818151815260200191508051906020019080838360005b838110156108115780820151818401526020810190506107f6565b50505050905090810190601f16801561083e5780820380516001836020036101000a031916815260200191505b5084810383528d818151815260200191508051906020019080838360005b8381101561087757808201518184015260208101905061085c565b50505050905090810190601f1680156108a45780820380516001836020036101000a031916815260200191505b50848103825287818151815260200191508051906020019080838360005b838110156108dd5780820151818401526020810190506108c2565b50505050905090810190601f16801561090a5780820380516001836020036101000a031916815260200191505b509f5050505050505050505050505050505060405180910390a1505050505050505050565b60015481565b60006002600083815260200190815260200160002090508060070160009054906101000a900460ff1615156109d2576040517f08c379a00000000000000000000000000000000000000000000000000000000081526004018080602001828103825260178152602001807f4a6577656c7279206973206e6f7420666f722073616c6500000000000000000081525060200191505060405180910390fd5b80600801543411151515610a4e576040517f08c379a00000000000000000000000000000000000000000000000000000000081526004018080602001828103825260128152602001807f496e73756666696369656e742066756e6473000000000000000000000000000081525060200191505060405180910390fd5b80600b0160009054906101000a900473ffffffffffffffffffffffffffffffffffffffff1673ffffffffffffffffffffffffffffffffffffffff166108fc349081150290604051600060405180830381858888f19350505050158015610ab8573d6000803e3d6000fd5b503381600b0160006101000a81548173ffffffffffffffffffffffffffffffffffffffff021916908373ffffffffffffffffffffffffffffffffffffffff1602179055507f8cf6668963454e0e03344a04e39acce1b18f277dd1c1d93a3c102254a31b51068233604051808381526020018273ffffffffffffffffffffffffffffffffffffffff1673ffffffffffffffffffffffffffffffffffffffff1681526020019250505060405180910390a15050565b6002602052806000526040600020600091509050806000015490806001018054600181600116156101000203166002900480601f016020809104026020016040519081016040528092919081815260200182805460018160011615610100020316600290048015610c1d5780601f10610bf257610100808354040283529160200191610c1d565b820191906000526020600020905b815481529060010190602001808311610c0057829003601f168201915b505050505090806002015490806003018054600181600116156101000203166002900480601f016020809104026020016040519081016040528092919081815260200182805460018160011615610100020316600290048015610cc15780601f10610c9657610100808354040283529160200191610cc1565b820191906000526020600020905b815481529060010190602001808311610ca457829003601f168201915b5050505050908060040154908060050154908060060154908060070160009054906101000a900460ff1690806008015490806009018054600181600116156101000203166002900480601f016020809104026020016040519081016040528092919081815260200182805460018160011615610100020316600290048015610d8a5780601f10610d5f57610100808354040283529160200191610d8a565b820191906000526020600020905b815481529060010190602001808311610d6d57829003601f168201915b50505050509080600a0160009054906101000a900473ffffffffffffffffffffffffffffffffffffffff169080600b0160009054906101000a900473ffffffffffffffffffffffffffffffffffffffff1690508c565b828054600181600116156101000203166002900490600052602060002090601f016020900481019282601f10610e2157805160ff1916838001178555610e4f565b82800160010185558215610e4f579182015b82811115610e4e578251825591602001919060010190610e33565b5b509050610e5c9190610e60565b5090565b610e8291905b80821115610e7e576000816000905550600101610e66565b5090565b9056fea165627a7a72305820fd3420637708e42b58d8dc1cee98c31d0017f15d2ec6301699be3ae82741566c0029",
  "source": "pragma solidity >=0.4.21 <0.6.0;\n\ninterface IGemstoneSelecting {\n    function selectedGems(uint) external view returns (uint id, uint minedGemId, uint weight, uint height, uint width, uint diameter, uint carat, string memory color, string memory gemType, bool polishing, uint price, bool used, address owner);\n    function markGemAsUsed(uint _id) external;\n}\n\ncontract Jewelry {\n    \n    IGemstoneSelecting gemstoneSelecting;\n\n    /*struct GoldData{\n        string name;\n        uint gemId;\n        uint goldCarat;\n\n    }\n\n     struct SilverData{\n        string name;\n        uint gemId;\n\n    }\n\n     struct MedicalMetalData{\n        string name;\n        uint gemId;\n\n    }*/\n\n    uint public jewelryCount = 0;\n    mapping( uint => JewelryData) public jewelry;\n\n    struct JewelryData{\n        uint id;\n        string name;\n        uint gemId;\n        string metal;\n        uint depth;\n        uint height;\n        uint width;\n        bool sale;\n        uint price;\n        string fileURL;\n        address payable jeweler;\n        address payable owner;\n    }\n\n    event JewelryMaking(\n        uint id,\n        string name,\n        uint gemId,\n        string metal,\n        uint depth,\n        uint height,\n        uint width,\n        bool sale,\n        uint price,\n        string fileURL,\n        address payable jeweler,\n        address payable owner\n    );\n    \n    event JewelryBought(\n        uint id,\n        address payable newOwner\n    );\n\n     constructor(address _gemstoneSelectingAddress) public {\n        gemstoneSelecting = IGemstoneSelecting(_gemstoneSelectingAddress);\n    }\n\n    function jewelryMaking(string memory _name, uint _gemId, string memory _metal, uint _depth, uint _height, uint _width,  bool _sale, uint _price, string memory _fileURL ) public {\n     //  (, , , , , , , , , , , bool used, ) = gemstoneSelecting.selectedGems(_gemId);\n     //   require(!used, \"Gem already used\");\n        \n        jewelryCount++;\n       jewelry[_gemId] = JewelryData(_gemId, _name, _gemId, _metal, _depth, _height, _width, _sale, _price, _fileURL, msg.sender, msg.sender);\n\n       emit JewelryMaking(_gemId, _name, _gemId, _metal, _depth, _height, _width, _sale, _price, _fileURL, msg.sender, msg.sender);\n\n    \n    }\n\n     function buyJewelry(uint _id) public payable {\n        JewelryData storage jew = jewelry[_id];\n        require(jew.sale, \"Jewelry is not for sale\");\n        require(msg.value <= jew.price, \"Insufficient funds\");\n\n        jew.owner.transfer(msg.value);\n        jew.owner = msg.sender;\n\n        emit JewelryBought(_id, msg.sender);\n    }\n\n \n}",
  "sourcePath": "/home/berkeanna/folder/jewRoundx/src/contracts/Jewelry.sol",
  "compiler": {
    "name": "solc",
    "version": "0.5.0+commit.1d4f565a.Emscripten.clang"
  },
  "schemaVersion": "3.0.1",
  "updatedAt": "2024-07-04T20:45:38.766Z",
  "devdoc": {
    "methods": {}
  },
  "userdoc": {
    "methods": {}
  }
}