{
  "contractName": "Jewelry",
  "abi": [
    {
      "constant": true,
      "inputs": [],
      "name": "jewelryCount",
      "outputs": [
        {
          "name": "",
          "type": "uint256"
        }
      ],
      "payable": false,
      "stateMutability": "view",
      "type": "function",
      "signature": "0x590091a2"
    },
    {
      "constant": true,
      "inputs": [
        {
          "name": "",
          "type": "uint256"
        }
      ],
      "name": "jewelry",
      "outputs": [
        {
          "name": "id",
          "type": "uint256"
        },
        {
          "name": "name",
          "type": "string"
        },
        {
          "name": "gemId",
          "type": "uint256"
        },
        {
          "name": "metal",
          "type": "string"
        },
        {
          "name": "depth",
          "type": "uint256"
        },
        {
          "name": "height",
          "type": "uint256"
        },
        {
          "name": "width",
          "type": "uint256"
        },
        {
          "name": "sale",
          "type": "bool"
        },
        {
          "name": "price",
          "type": "uint256"
        },
        {
          "name": "fileURL",
          "type": "string"
        },
        {
          "name": "jeweler",
          "type": "address"
        },
        {
          "name": "owner",
          "type": "address"
        }
      ],
      "payable": false,
      "stateMutability": "view",
      "type": "function",
      "signature": "0xe1474e65"
    },
    {
      "inputs": [
        {
          "name": "_gemstoneSelectingAddress",
          "type": "address"
        }
      ],
      "payable": false,
      "stateMutability": "nonpayable",
      "type": "constructor",
      "signature": "constructor"
    },
    {
      "anonymous": false,
      "inputs": [
        {
          "indexed": false,
          "name": "id",
          "type": "uint256"
        },
        {
          "indexed": false,
          "name": "name",
          "type": "string"
        },
        {
          "indexed": false,
          "name": "gemId",
          "type": "uint256"
        },
        {
          "indexed": false,
          "name": "metal",
          "type": "string"
        },
        {
          "indexed": false,
          "name": "depth",
          "type": "uint256"
        },
        {
          "indexed": false,
          "name": "height",
          "type": "uint256"
        },
        {
          "indexed": false,
          "name": "width",
          "type": "uint256"
        },
        {
          "indexed": false,
          "name": "sale",
          "type": "bool"
        },
        {
          "indexed": false,
          "name": "price",
          "type": "uint256"
        },
        {
          "indexed": false,
          "name": "fileURL",
          "type": "string"
        },
        {
          "indexed": false,
          "name": "jeweler",
          "type": "address"
        },
        {
          "indexed": false,
          "name": "owner",
          "type": "address"
        }
      ],
      "name": "JewelryMaking",
      "type": "event",
      "signature": "0x2422ab6018e72154d1d4b7502a8760e5b9ce6175f16a2d64815115c03a749de3"
    },
    {
      "constant": false,
      "inputs": [
        {
          "name": "_name",
          "type": "string"
        },
        {
          "name": "_gemId",
          "type": "uint256"
        },
        {
          "name": "_metal",
          "type": "string"
        },
        {
          "name": "_depth",
          "type": "uint256"
        },
        {
          "name": "_height",
          "type": "uint256"
        },
        {
          "name": "_width",
          "type": "uint256"
        },
        {
          "name": "_sale",
          "type": "bool"
        },
        {
          "name": "_price",
          "type": "uint256"
        },
        {
          "name": "_fileURL",
          "type": "string"
        }
      ],
      "name": "jewelryMaking",
      "outputs": [],
      "payable": false,
      "stateMutability": "nonpayable",
      "type": "function",
      "signature": "0x4610be90"
    }
  ],
  "bytecode": "0x6080604052600060015534801561001557600080fd5b50604051602080610cd88339810180604052602081101561003557600080fd5b8101908080519060200190929190505050806000806101000a81548173ffffffffffffffffffffffffffffffffffffffff021916908373ffffffffffffffffffffffffffffffffffffffff16021790555050610c42806100966000396000f3fe608060405260043610610057576000357c0100000000000000000000000000000000000000000000000000000000900463ffffffff1680634610be901461005c578063590091a214610291578063e1474e65146102bc575b600080fd5b34801561006857600080fd5b5061028f600480360361012081101561008057600080fd5b810190808035906020019064010000000081111561009d57600080fd5b8201836020820111156100af57600080fd5b803590602001918460018302840111640100000000831117156100d157600080fd5b91908080601f016020809104026020016040519081016040528093929190818152602001838380828437600081840152601f19601f820116905080830192505050505050509192919290803590602001909291908035906020019064010000000081111561013e57600080fd5b82018360208201111561015057600080fd5b8035906020019184600183028401116401000000008311171561017257600080fd5b91908080601f016020809104026020016040519081016040528093929190818152602001838380828437600081840152601f19601f820116905080830192505050505050509192919290803590602001909291908035906020019092919080359060200190929190803515159060200190929190803590602001909291908035906020019064010000000081111561020957600080fd5b82018360208201111561021b57600080fd5b8035906020019184600183028401116401000000008311171561023d57600080fd5b91908080601f016020809104026020016040519081016040528093929190818152602001838380828437600081840152601f19601f8201169050808301925050505050505091929192905050506104e3565b005b34801561029d57600080fd5b506102a66108f6565b6040518082815260200191505060405180910390f35b3480156102c857600080fd5b506102f5600480360360208110156102df57600080fd5b81019080803590602001909291905050506108fc565b604051808d8152602001806020018c8152602001806020018b81526020018a815260200189815260200188151515158152602001878152602001806020018673ffffffffffffffffffffffffffffffffffffffff1673ffffffffffffffffffffffffffffffffffffffff1681526020018573ffffffffffffffffffffffffffffffffffffffff1673ffffffffffffffffffffffffffffffffffffffff16815260200184810384528f818151815260200191508051906020019080838360005b838110156103cf5780820151818401526020810190506103b4565b50505050905090810190601f1680156103fc5780820380516001836020036101000a031916815260200191505b5084810383528d818151815260200191508051906020019080838360005b8381101561043557808201518184015260208101905061041a565b50505050905090810190601f1680156104625780820380516001836020036101000a031916815260200191505b50848103825287818151815260200191508051906020019080838360005b8381101561049b578082015181840152602081019050610480565b50505050905090810190601f1680156104c85780820380516001836020036101000a031916815260200191505b509f5050505050505050505050505050505060405180910390f35b600160008154809291906001019190505550610180604051908101604052808981526020018a815260200189815260200188815260200187815260200186815260200185815260200184151581526020018381526020018281526020013373ffffffffffffffffffffffffffffffffffffffff1681526020013373ffffffffffffffffffffffffffffffffffffffff16815250600260008a81526020019081526020016000206000820151816000015560208201518160010190805190602001906105af929190610b71565b506040820151816002015560608201518160030190805190602001906105d6929190610b71565b506080820151816004015560a0820151816005015560c0820151816006015560e08201518160070160006101000a81548160ff021916908315150217905550610100820151816008015561012082015181600901908051906020019061063d929190610b71565b5061014082015181600a0160006101000a81548173ffffffffffffffffffffffffffffffffffffffff021916908373ffffffffffffffffffffffffffffffffffffffff16021790555061016082015181600b0160006101000a81548173ffffffffffffffffffffffffffffffffffffffff021916908373ffffffffffffffffffffffffffffffffffffffff1602179055509050507f2422ab6018e72154d1d4b7502a8760e5b9ce6175f16a2d64815115c03a749de3888a8a8a8a8a8a8a8a8a3333604051808d8152602001806020018c8152602001806020018b81526020018a815260200189815260200188151515158152602001878152602001806020018673ffffffffffffffffffffffffffffffffffffffff1673ffffffffffffffffffffffffffffffffffffffff1681526020018573ffffffffffffffffffffffffffffffffffffffff1673ffffffffffffffffffffffffffffffffffffffff16815260200184810384528f818151815260200191508051906020019080838360005b838110156107d85780820151818401526020810190506107bd565b50505050905090810190601f1680156108055780820380516001836020036101000a031916815260200191505b5084810383528d818151815260200191508051906020019080838360005b8381101561083e578082015181840152602081019050610823565b50505050905090810190601f16801561086b5780820380516001836020036101000a031916815260200191505b50848103825287818151815260200191508051906020019080838360005b838110156108a4578082015181840152602081019050610889565b50505050905090810190601f1680156108d15780820380516001836020036101000a031916815260200191505b509f5050505050505050505050505050505060405180910390a1505050505050505050565b60015481565b6002602052806000526040600020600091509050806000015490806001018054600181600116156101000203166002900480601f0160208091040260200160405190810160405280929190818152602001828054600181600116156101000203166002900480156109ae5780601f10610983576101008083540402835291602001916109ae565b820191906000526020600020905b81548152906001019060200180831161099157829003601f168201915b505050505090806002015490806003018054600181600116156101000203166002900480601f016020809104026020016040519081016040528092919081815260200182805460018160011615610100020316600290048015610a525780601f10610a2757610100808354040283529160200191610a52565b820191906000526020600020905b815481529060010190602001808311610a3557829003601f168201915b5050505050908060040154908060050154908060060154908060070160009054906101000a900460ff1690806008015490806009018054600181600116156101000203166002900480601f016020809104026020016040519081016040528092919081815260200182805460018160011615610100020316600290048015610b1b5780601f10610af057610100808354040283529160200191610b1b565b820191906000526020600020905b815481529060010190602001808311610afe57829003601f168201915b50505050509080600a0160009054906101000a900473ffffffffffffffffffffffffffffffffffffffff169080600b0160009054906101000a900473ffffffffffffffffffffffffffffffffffffffff1690508c565b828054600181600116156101000203166002900490600052602060002090601f016020900481019282601f10610bb257805160ff1916838001178555610be0565b82800160010185558215610be0579182015b82811115610bdf578251825591602001919060010190610bc4565b5b509050610bed9190610bf1565b5090565b610c1391905b80821115610c0f576000816000905550600101610bf7565b5090565b9056fea165627a7a72305820cac127c4c7ce29dcbac29591ea35319c65ba6e14577a7ade4db949516bd357c40029",
  "source": "pragma solidity >=0.4.21 <0.6.0;\n\ninterface IGemstoneSelecting {\n    function selectedGems(uint) external view returns (uint id, uint minedGemId, uint weight, uint height, uint width, uint diameter, uint carat, string memory color, string memory gemType, bool polishing, uint price, bool used, address owner);\n    function markGemAsUsed(uint _id) external;\n}\n\ncontract Jewelry {\n    \n    IGemstoneSelecting gemstoneSelecting;\n\n    /*struct GoldData{\n        string name;\n        uint gemId;\n        uint goldCarat;\n\n    }\n\n     struct SilverData{\n        string name;\n        uint gemId;\n\n    }\n\n     struct MedicalMetalData{\n        string name;\n        uint gemId;\n\n    }*/\n\n    uint public jewelryCount = 0;\n    mapping( uint => JewelryData) public jewelry;\n\n    struct JewelryData{\n        uint id;\n        string name;\n        uint gemId;\n        string metal;\n        uint depth;\n        uint height;\n        uint width;\n        bool sale;\n        uint price;\n        string fileURL;\n        address payable jeweler;\n        address payable owner;\n    }\n\n    event JewelryMaking(\n        uint id,\n        string name,\n        uint gemId,\n        string metal,\n        uint depth,\n        uint height,\n        uint width,\n        bool sale,\n        uint price,\n        string fileURL,\n        address payable jeweler,\n        address payable owner\n    );\n\n     constructor(address _gemstoneSelectingAddress) public {\n        gemstoneSelecting = IGemstoneSelecting(_gemstoneSelectingAddress);\n    }\n\n    function jewelryMaking(string memory _name, uint _gemId, string memory _metal, uint _depth, uint _height, uint _width,  bool _sale, uint _price, string memory _fileURL ) public {\n     //  (, , , , , , , , , , , bool used, ) = gemstoneSelecting.selectedGems(_gemId);\n     //   require(!used, \"Gem already used\");\n        \n        jewelryCount++;\n       jewelry[_gemId] = JewelryData(_gemId, _name, _gemId, _metal, _depth, _height, _width, _sale, _price, _fileURL, msg.sender, msg.sender);\n\n       emit JewelryMaking(_gemId, _name, _gemId, _metal, _depth, _height, _width, _sale, _price, _fileURL, msg.sender, msg.sender);\n\n    \n    }\n\n \n}",
  "sourcePath": "/home/berkeanna/folder/2/jewRoundx/src/contracts/Jewelry.sol",
  "compiler": {
    "name": "solc",
    "version": "0.5.0+commit.1d4f565a.Emscripten.clang"
  },
  "schemaVersion": "3.0.1",
  "updatedAt": "2024-03-19T14:13:16.098Z",
  "devdoc": {
    "methods": {}
  },
  "userdoc": {
    "methods": {}
  }
}