{
  "contractName": "Jewelry",
  "abi": [
    {
      "constant": true,
      "inputs": [],
      "name": "jewelryCount",
      "outputs": [
        {
          "name": "",
          "type": "uint256"
        }
      ],
      "payable": false,
      "stateMutability": "view",
      "type": "function",
      "signature": "0x590091a2"
    },
    {
      "constant": true,
      "inputs": [
        {
          "name": "",
          "type": "uint256"
        }
      ],
      "name": "jewelry",
      "outputs": [
        {
          "name": "id",
          "type": "uint256"
        },
        {
          "name": "name",
          "type": "string"
        },
        {
          "name": "metadataHash",
          "type": "string"
        },
        {
          "name": "sale",
          "type": "bool"
        },
        {
          "name": "processing",
          "type": "bool"
        },
        {
          "name": "price",
          "type": "uint256"
        },
        {
          "name": "jeweler",
          "type": "address"
        },
        {
          "name": "owner",
          "type": "address"
        },
        {
          "name": "jewOwner",
          "type": "address"
        }
      ],
      "payable": false,
      "stateMutability": "view",
      "type": "function",
      "signature": "0xe1474e65"
    },
    {
      "inputs": [
        {
          "name": "_gemstoneSelectingAddress",
          "type": "address"
        }
      ],
      "payable": false,
      "stateMutability": "nonpayable",
      "type": "constructor",
      "signature": "constructor"
    },
    {
      "anonymous": false,
      "inputs": [
        {
          "indexed": false,
          "name": "id",
          "type": "uint256"
        },
        {
          "indexed": false,
          "name": "name",
          "type": "string"
        },
        {
          "indexed": false,
          "name": "metadataHash",
          "type": "string"
        },
        {
          "indexed": false,
          "name": "sale",
          "type": "bool"
        },
        {
          "indexed": false,
          "name": "processing",
          "type": "bool"
        },
        {
          "indexed": false,
          "name": "price",
          "type": "uint256"
        },
        {
          "indexed": false,
          "name": "jeweler",
          "type": "address"
        },
        {
          "indexed": false,
          "name": "owner",
          "type": "address"
        },
        {
          "indexed": false,
          "name": "jewOwner",
          "type": "address"
        }
      ],
      "name": "JewelryMaking",
      "type": "event",
      "signature": "0x207332f1dd3ffb1ebaad0d2cbac5dfe5d8799d7f2bd4944b0dcf161bb12908c5"
    },
    {
      "anonymous": false,
      "inputs": [
        {
          "indexed": false,
          "name": "id",
          "type": "uint256"
        },
        {
          "indexed": false,
          "name": "newOwner",
          "type": "address"
        }
      ],
      "name": "JewelryBought",
      "type": "event",
      "signature": "0x8cf6668963454e0e03344a04e39acce1b18f277dd1c1d93a3c102254a31b5106"
    },
    {
      "anonymous": false,
      "inputs": [
        {
          "indexed": false,
          "name": "jewelryId",
          "type": "uint256"
        },
        {
          "indexed": false,
          "name": "newGemId",
          "type": "uint256"
        }
      ],
      "name": "GemUpdated",
      "type": "event",
      "signature": "0xa0213487aec5c403f0b758b3bd365a140c241dd4570644d26fa7f23a486f7bde"
    },
    {
      "anonymous": false,
      "inputs": [
        {
          "indexed": false,
          "name": "jewelryId",
          "type": "uint256"
        },
        {
          "indexed": false,
          "name": "newGemId",
          "type": "uint256"
        }
      ],
      "name": "GemReplaced",
      "type": "event",
      "signature": "0xa0515efda397c86c91d380f2e59ed8e5c45faecbae0a35bd79cad66c1b0c4220"
    },
    {
      "anonymous": false,
      "inputs": [
        {
          "indexed": false,
          "name": "id",
          "type": "uint256"
        },
        {
          "indexed": false,
          "name": "owner",
          "type": "address"
        }
      ],
      "name": "JewelryFinished",
      "type": "event",
      "signature": "0x0602407819daab8a181af1f486ef59fab62816c96804e0236cc9597bf0d100b9"
    },
    {
      "anonymous": false,
      "inputs": [
        {
          "indexed": false,
          "name": "id",
          "type": "uint256"
        },
        {
          "indexed": false,
          "name": "owner",
          "type": "address"
        }
      ],
      "name": "JewelrySale",
      "type": "event",
      "signature": "0x00675d7a663495bb5abc0e08ce956028f3ebf74f7ce54370586a811cb493a7e0"
    },
    {
      "anonymous": false,
      "inputs": [
        {
          "indexed": false,
          "name": "id",
          "type": "uint256"
        },
        {
          "indexed": false,
          "name": "jewOwner",
          "type": "address"
        },
        {
          "indexed": false,
          "name": "jeweler",
          "type": "address"
        }
      ],
      "name": "JewelryAddRepair",
      "type": "event",
      "signature": "0xedaf9179b8940a3285ad3e8b3f527108ab55b1b14aa23df712da3d81d1fbcd9d"
    },
    {
      "anonymous": false,
      "inputs": [
        {
          "indexed": false,
          "name": "id",
          "type": "uint256"
        },
        {
          "indexed": false,
          "name": "jewOwner",
          "type": "address"
        },
        {
          "indexed": false,
          "name": "jeweler",
          "type": "address"
        }
      ],
      "name": "ReturnToJewOwner",
      "type": "event",
      "signature": "0xa17e29742ebb29bcbe0da2f0f53996d1084c0124d8c040b588b7fb216d5ecd23"
    },
    {
      "constant": false,
      "inputs": [
        {
          "name": "_name",
          "type": "string"
        },
        {
          "name": "_gemId",
          "type": "uint256"
        },
        {
          "name": "_metadataHash",
          "type": "string"
        },
        {
          "name": "_sale",
          "type": "bool"
        },
        {
          "name": "_price",
          "type": "uint256"
        }
      ],
      "name": "jewelryMaking",
      "outputs": [],
      "payable": false,
      "stateMutability": "nonpayable",
      "type": "function",
      "signature": "0xa619031c"
    },
    {
      "constant": false,
      "inputs": [
        {
          "name": "jewelryId",
          "type": "uint256"
        },
        {
          "name": "oldGemId",
          "type": "uint256"
        },
        {
          "name": "newGemId",
          "type": "uint256"
        }
      ],
      "name": "replaceGem",
      "outputs": [],
      "payable": false,
      "stateMutability": "nonpayable",
      "type": "function",
      "signature": "0xd770664e"
    },
    {
      "constant": true,
      "inputs": [
        {
          "name": "_id",
          "type": "uint256"
        }
      ],
      "name": "getJewelryDetails",
      "outputs": [
        {
          "name": "id",
          "type": "uint256"
        },
        {
          "name": "name",
          "type": "string"
        },
        {
          "name": "previousGemIds",
          "type": "uint256[]"
        },
        {
          "name": "metadataHash",
          "type": "string"
        },
        {
          "name": "processing",
          "type": "bool"
        },
        {
          "name": "sale",
          "type": "bool"
        },
        {
          "name": "price",
          "type": "uint256"
        },
        {
          "name": "jeweler",
          "type": "address"
        },
        {
          "name": "owner",
          "type": "address"
        },
        {
          "name": "jewOwner",
          "type": "address"
        }
      ],
      "payable": false,
      "stateMutability": "view",
      "type": "function",
      "signature": "0xc95a7536"
    },
    {
      "constant": false,
      "inputs": [
        {
          "name": "_id",
          "type": "uint256"
        }
      ],
      "name": "buyJewelry",
      "outputs": [],
      "payable": true,
      "stateMutability": "payable",
      "type": "function",
      "signature": "0x98367139"
    },
    {
      "constant": false,
      "inputs": [
        {
          "name": "_jewelryId",
          "type": "uint256"
        },
        {
          "name": "_newGemId",
          "type": "uint256"
        }
      ],
      "name": "updateGem",
      "outputs": [],
      "payable": false,
      "stateMutability": "nonpayable",
      "type": "function",
      "signature": "0x796b264d"
    },
    {
      "constant": true,
      "inputs": [
        {
          "name": "_owner",
          "type": "address"
        }
      ],
      "name": "getJewelryCountByOwner",
      "outputs": [
        {
          "name": "",
          "type": "uint256"
        }
      ],
      "payable": false,
      "stateMutability": "view",
      "type": "function",
      "signature": "0xd0f6ae6d"
    },
    {
      "constant": true,
      "inputs": [
        {
          "name": "_jeweler",
          "type": "address"
        }
      ],
      "name": "getJewelryCountByJeweler",
      "outputs": [
        {
          "name": "",
          "type": "uint256"
        }
      ],
      "payable": false,
      "stateMutability": "view",
      "type": "function",
      "signature": "0x4ff26335"
    },
    {
      "constant": false,
      "inputs": [
        {
          "name": "_id",
          "type": "uint256"
        }
      ],
      "name": "markedAsFinished",
      "outputs": [],
      "payable": true,
      "stateMutability": "payable",
      "type": "function",
      "signature": "0x52124201"
    },
    {
      "constant": false,
      "inputs": [
        {
          "name": "_id",
          "type": "uint256"
        }
      ],
      "name": "markedAsSale",
      "outputs": [],
      "payable": true,
      "stateMutability": "payable",
      "type": "function",
      "signature": "0x52c4b10e"
    },
    {
      "constant": false,
      "inputs": [
        {
          "name": "_id",
          "type": "uint256"
        }
      ],
      "name": "addForRepair",
      "outputs": [],
      "payable": false,
      "stateMutability": "nonpayable",
      "type": "function",
      "signature": "0xbea5d624"
    },
    {
      "constant": false,
      "inputs": [
        {
          "name": "_id",
          "type": "uint256"
        }
      ],
      "name": "returnToJewOwner",
      "outputs": [],
      "payable": false,
      "stateMutability": "nonpayable",
      "type": "function",
      "signature": "0xcaa18e99"
    }
  ],
  "bytecode": "0x6080604052600060015534801561001557600080fd5b5060405160208061208c8339810180604052602081101561003557600080fd5b8101908080519060200190929190505050806000806101000a81548173ffffffffffffffffffffffffffffffffffffffff021916908373ffffffffffffffffffffffffffffffffffffffff16021790555050611ff6806100966000396000f3fe6080604052600436106100c5576000357c0100000000000000000000000000000000000000000000000000000000900463ffffffff1680634ff26335146100ca578063521242011461012f57806352c4b10e1461015d578063590091a21461018b578063796b264d146101b657806398367139146101fb578063a619031c14610229578063bea5d624146103a8578063c95a7536146103e3578063caa18e9914610608578063d0f6ae6d14610643578063d770664e146106a8578063e1474e65146106f7575b600080fd5b3480156100d657600080fd5b50610119600480360360208110156100ed57600080fd5b81019080803573ffffffffffffffffffffffffffffffffffffffff1690602001909291905050506108d4565b6040518082815260200191505060405180910390f35b61015b6004803603602081101561014557600080fd5b8101908080359060200190929190505050610977565b005b6101896004803603602081101561017357600080fd5b8101908080359060200190929190505050610b76565b005b34801561019757600080fd5b506101a0610cdb565b6040518082815260200191505060405180910390f35b3480156101c257600080fd5b506101f9600480360360408110156101d957600080fd5b810190808035906020019092919080359060200190929190505050610ce1565b005b6102276004803603602081101561021157600080fd5b8101908080359060200190929190505050610e57565b005b34801561023557600080fd5b506103a6600480360360a081101561024c57600080fd5b810190808035906020019064010000000081111561026957600080fd5b82018360208201111561027b57600080fd5b8035906020019184600183028401116401000000008311171561029d57600080fd5b91908080601f016020809104026020016040519081016040528093929190818152602001838380828437600081840152601f19601f820116905080830192505050505050509192919290803590602001909291908035906020019064010000000081111561030a57600080fd5b82018360208201111561031c57600080fd5b8035906020019184600183028401116401000000008311171561033e57600080fd5b91908080601f016020809104026020016040519081016040528093929190818152602001838380828437600081840152601f19601f820116905080830192505050505050509192919290803515159060200190929190803590602001909291905050506110ed565b005b3480156103b457600080fd5b506103e1600480360360208110156103cb57600080fd5b8101908080359060200190929190505050611572565b005b3480156103ef57600080fd5b5061041c6004803603602081101561040657600080fd5b81019080803590602001909291905050506116f8565b604051808b81526020018060200180602001806020018a151515158152602001891515151581526020018881526020018773ffffffffffffffffffffffffffffffffffffffff1673ffffffffffffffffffffffffffffffffffffffff1681526020018673ffffffffffffffffffffffffffffffffffffffff1673ffffffffffffffffffffffffffffffffffffffff1681526020018573ffffffffffffffffffffffffffffffffffffffff1673ffffffffffffffffffffffffffffffffffffffff16815260200184810384528d818151815260200191508051906020019080838360005b8381101561051a5780820151818401526020810190506104ff565b50505050905090810190601f1680156105475780820380516001836020036101000a031916815260200191505b5084810383528c818151815260200191508051906020019060200280838360005b83811015610583578082015181840152602081019050610568565b5050505090500184810382528b818151815260200191508051906020019080838360005b838110156105c25780820151818401526020810190506105a7565b50505050905090810190601f1680156105ef5780820380516001836020036101000a031916815260200191505b509d505050505050505050505050505060405180910390f35b34801561061457600080fd5b506106416004803603602081101561062b57600080fd5b810190808035906020019092919050505061197d565b005b34801561064f57600080fd5b506106926004803603602081101561066657600080fd5b81019080803573ffffffffffffffffffffffffffffffffffffffff169060200190929190505050611b03565b6040518082815260200191505060405180910390f35b3480156106b457600080fd5b506106f5600480360360608110156106cb57600080fd5b81019080803590602001909291908035906020019092919080359060200190929190505050611ba6565b005b34801561070357600080fd5b506107306004803603602081101561071a57600080fd5b8101908080359060200190929190505050611ce0565b604051808a8152602001806020018060200189151515158152602001881515151581526020018781526020018673ffffffffffffffffffffffffffffffffffffffff1673ffffffffffffffffffffffffffffffffffffffff1681526020018573ffffffffffffffffffffffffffffffffffffffff1673ffffffffffffffffffffffffffffffffffffffff1681526020018473ffffffffffffffffffffffffffffffffffffffff1673ffffffffffffffffffffffffffffffffffffffff16815260200183810383528b818151815260200191508051906020019080838360005b8381101561082a57808201518184015260208101905061080f565b50505050905090810190601f1680156108575780820380516001836020036101000a031916815260200191505b5083810382528a818151815260200191508051906020019080838360005b83811015610890578082015181840152602081019050610875565b50505050905090810190601f1680156108bd5780820380516001836020036101000a031916815260200191505b509b50505050505050505050505060405180910390f35b600080600090506000600190505b6001548111151561096d578373ffffffffffffffffffffffffffffffffffffffff166002600083815260200190815260200160002060060160009054906101000a900473ffffffffffffffffffffffffffffffffffffffff1673ffffffffffffffffffffffffffffffffffffffff1614156109605781806001019250505b80806001019150506108e2565b5080915050919050565b6000600260008381526020019081526020016000209050600081600001541180156109a85750600154816000015411155b1515610a1c576040517f08c379a000000000000000000000000000000000000000000000000000000000815260040180806020018281038252600e8152602001807f496e76616c6964206a657720494400000000000000000000000000000000000081525060200191505060405180910390fd5b600115158160040160019054906101000a900460ff161515141515610aa9576040517f08c379a00000000000000000000000000000000000000000000000000000000081526004018080602001828103825260188152602001807f4a6577656c727920616c72656164792066696e6973686564000000000000000081525060200191505060405180910390fd5b60008160040160016101000a81548160ff02191690831515021790555060008160040160006101000a81548160ff0219169083151502179055507f0602407819daab8a181af1f486ef59fab62816c96804e0236cc9597bf0d100b9828260070160009054906101000a900473ffffffffffffffffffffffffffffffffffffffff16604051808381526020018273ffffffffffffffffffffffffffffffffffffffff1673ffffffffffffffffffffffffffffffffffffffff1681526020019250505060405180910390a15050565b600060026000838152602001908152602001600020905060008160000154118015610ba75750600154816000015411155b1515610c1b576040517f08c379a000000000000000000000000000000000000000000000000000000000815260040180806020018281038252600e8152602001807f496e76616c6964206a657720494400000000000000000000000000000000000081525060200191505060405180910390fd5b8060040160009054906101000a900460ff16158160040160006101000a81548160ff0219169083151502179055507e675d7a663495bb5abc0e08ce956028f3ebf74f7ce54370586a811cb493a7e0828260070160009054906101000a900473ffffffffffffffffffffffffffffffffffffffff16604051808381526020018273ffffffffffffffffffffffffffffffffffffffff1673ffffffffffffffffffffffffffffffffffffffff1681526020019250505060405180910390a15050565b60015481565b60006002600084815260200190815260200160002090508060060160009054906101000a900473ffffffffffffffffffffffffffffffffffffffff1673ffffffffffffffffffffffffffffffffffffffff163373ffffffffffffffffffffffffffffffffffffffff16141515610de5576040517f08c379a00000000000000000000000000000000000000000000000000000000081526004018080602001828103825260218152602001807f4f6e6c7920746865206f776e65722063616e207570646174652074686520676581526020017f6d0000000000000000000000000000000000000000000000000000000000000081525060400191505060405180910390fd5b806002018290806001815401808255809150509060018203906000526020600020016000909192909190915055507fa0213487aec5c403f0b758b3bd365a140c241dd4570644d26fa7f23a486f7bde8383604051808381526020018281526020019250505060405180910390a1505050565b60006002600083815260200190815260200160002090508060040160009054906101000a900460ff161515610ef4576040517f08c379a00000000000000000000000000000000000000000000000000000000081526004018080602001828103825260178152602001807f4a6577656c7279206973206e6f7420666f722073616c6500000000000000000081525060200191505060405180910390fd5b80600501543410151515610f70576040517f08c379a00000000000000000000000000000000000000000000000000000000081526004018080602001828103825260128152602001807f496e73756666696369656e742066756e6473000000000000000000000000000081525060200191505060405180910390fd5b8060070160009054906101000a900473ffffffffffffffffffffffffffffffffffffffff1673ffffffffffffffffffffffffffffffffffffffff166108fc349081150290604051600060405180830381858888f19350505050158015610fda573d6000803e3d6000fd5b50338160070160006101000a81548173ffffffffffffffffffffffffffffffffffffffff021916908373ffffffffffffffffffffffffffffffffffffffff160217905550338160080160006101000a81548173ffffffffffffffffffffffffffffffffffffffff021916908373ffffffffffffffffffffffffffffffffffffffff16021790555060008160040160006101000a81548160ff0219169083151502179055507f8cf6668963454e0e03344a04e39acce1b18f277dd1c1d93a3c102254a31b51068233604051808381526020018273ffffffffffffffffffffffffffffffffffffffff1673ffffffffffffffffffffffffffffffffffffffff1681526020019250505060405180910390a15050565b600160008154809291906001019190505550610140604051908101604052806001548152602001868152602001600060405190808252806020026020018201604052801561114a5781602001602082028038833980820191505090505b50815260200184815260200183151581526020016001151581526020018281526020013373ffffffffffffffffffffffffffffffffffffffff1681526020013373ffffffffffffffffffffffffffffffffffffffff1681526020013373ffffffffffffffffffffffffffffffffffffffff168152506002600060015481526020019081526020016000206000820151816000015560208201518160010190805190602001906111fa929190611ed8565b506040820151816002019080519060200190611217929190611f58565b506060820151816003019080519060200190611234929190611ed8565b5060808201518160040160006101000a81548160ff02191690831515021790555060a08201518160040160016101000a81548160ff02191690831515021790555060c0820151816005015560e08201518160060160006101000a81548173ffffffffffffffffffffffffffffffffffffffff021916908373ffffffffffffffffffffffffffffffffffffffff1602179055506101008201518160070160006101000a81548173ffffffffffffffffffffffffffffffffffffffff021916908373ffffffffffffffffffffffffffffffffffffffff1602179055506101208201518160080160006101000a81548173ffffffffffffffffffffffffffffffffffffffff021916908373ffffffffffffffffffffffffffffffffffffffff1602179055509050506002600060015481526020019081526020016000206002018490806001815401808255809150509060018203906000526020600020016000909192909190915055507f207332f1dd3ffb1ebaad0d2cbac5dfe5d8799d7f2bd4944b0dcf161bb12908c5600154868585600186333333604051808a8152602001806020018060200189151515158152602001881515151581526020018781526020018673ffffffffffffffffffffffffffffffffffffffff1673ffffffffffffffffffffffffffffffffffffffff1681526020018573ffffffffffffffffffffffffffffffffffffffff1673ffffffffffffffffffffffffffffffffffffffff1681526020018473ffffffffffffffffffffffffffffffffffffffff1673ffffffffffffffffffffffffffffffffffffffff16815260200183810383528b818151815260200191508051906020019080838360005b838110156114c25780820151818401526020810190506114a7565b50505050905090810190601f1680156114ef5780820380516001836020036101000a031916815260200191505b5083810382528a818151815260200191508051906020019080838360005b8381101561152857808201518184015260208101905061150d565b50505050905090810190601f1680156115555780820380516001836020036101000a031916815260200191505b509b50505050505050505050505060405180910390a15050505050565b60006002600083815260200190815260200160002090508060060160009054906101000a900473ffffffffffffffffffffffffffffffffffffffff168160070160006101000a81548173ffffffffffffffffffffffffffffffffffffffff021916908373ffffffffffffffffffffffffffffffffffffffff16021790555060008160040160006101000a81548160ff0219169083151502179055507fedaf9179b8940a3285ad3e8b3f527108ab55b1b14aa23df712da3d81d1fbcd9d828260080160009054906101000a900473ffffffffffffffffffffffffffffffffffffffff168360060160009054906101000a900473ffffffffffffffffffffffffffffffffffffffff16604051808481526020018373ffffffffffffffffffffffffffffffffffffffff1673ffffffffffffffffffffffffffffffffffffffff1681526020018273ffffffffffffffffffffffffffffffffffffffff1673ffffffffffffffffffffffffffffffffffffffff168152602001935050505060405180910390a15050565b600060608060606000806000806000806000600260008d8152602001908152602001600020905080600001548160010182600201836003018460040160019054906101000a900460ff168560040160009054906101000a900460ff1686600501548760060160009054906101000a900473ffffffffffffffffffffffffffffffffffffffff168860070160009054906101000a900473ffffffffffffffffffffffffffffffffffffffff168960080160009054906101000a900473ffffffffffffffffffffffffffffffffffffffff16888054600181600116156101000203166002900480601f01602080910402602001604051908101604052809291908181526020018280546001816001161561010002031660029004801561185d5780601f106118325761010080835404028352916020019161185d565b820191906000526020600020905b81548152906001019060200180831161184057829003601f168201915b50505050509850878054806020026020016040519081016040528092919081815260200182805480156118af57602002820191906000526020600020905b81548152602001906001019080831161189b575b50505050509750868054600181600116156101000203166002900480601f01602080910402602001604051908101604052809291908181526020018280546001816001161561010002031660029004801561194b5780601f106119205761010080835404028352916020019161194b565b820191906000526020600020905b81548152906001019060200180831161192e57829003601f168201915b505050505096508292508191508090509a509a509a509a509a509a509a509a509a509a50509193959799509193959799565b60006002600083815260200190815260200160002090508060080160009054906101000a900473ffffffffffffffffffffffffffffffffffffffff168160070160006101000a81548173ffffffffffffffffffffffffffffffffffffffff021916908373ffffffffffffffffffffffffffffffffffffffff16021790555060008160040160006101000a81548160ff0219169083151502179055507fa17e29742ebb29bcbe0da2f0f53996d1084c0124d8c040b588b7fb216d5ecd23828260080160009054906101000a900473ffffffffffffffffffffffffffffffffffffffff168360060160009054906101000a900473ffffffffffffffffffffffffffffffffffffffff16604051808481526020018373ffffffffffffffffffffffffffffffffffffffff1673ffffffffffffffffffffffffffffffffffffffff1681526020018273ffffffffffffffffffffffffffffffffffffffff1673ffffffffffffffffffffffffffffffffffffffff168152602001935050505060405180910390a15050565b600080600090506000600190505b60015481111515611b9c578373ffffffffffffffffffffffffffffffffffffffff166002600083815260200190815260200160002060070160009054906101000a900473ffffffffffffffffffffffffffffffffffffffff1673ffffffffffffffffffffffffffffffffffffffff161415611b8f5781806001019250505b8080600101915050611b11565b5080915050919050565b6000809054906101000a900473ffffffffffffffffffffffffffffffffffffffff1673ffffffffffffffffffffffffffffffffffffffff1663da5eeba982846040518363ffffffff167c01000000000000000000000000000000000000000000000000000000000281526004018083815260200182815260200192505050600060405180830381600087803b158015611c3e57600080fd5b505af1158015611c52573d6000803e3d6000fd5b505050506000600260008581526020019081526020016000209050806002018290806001815401808255809150509060018203906000526020600020016000909192909190915055507fa0515efda397c86c91d380f2e59ed8e5c45faecbae0a35bd79cad66c1b0c42208483604051808381526020018281526020019250505060405180910390a150505050565b6002602052806000526040600020600091509050806000015490806001018054600181600116156101000203166002900480601f016020809104026020016040519081016040528092919081815260200182805460018160011615610100020316600290048015611d925780601f10611d6757610100808354040283529160200191611d92565b820191906000526020600020905b815481529060010190602001808311611d7557829003601f168201915b505050505090806003018054600181600116156101000203166002900480601f016020809104026020016040519081016040528092919081815260200182805460018160011615610100020316600290048015611e305780601f10611e0557610100808354040283529160200191611e30565b820191906000526020600020905b815481529060010190602001808311611e1357829003601f168201915b5050505050908060040160009054906101000a900460ff16908060040160019054906101000a900460ff16908060050154908060060160009054906101000a900473ffffffffffffffffffffffffffffffffffffffff16908060070160009054906101000a900473ffffffffffffffffffffffffffffffffffffffff16908060080160009054906101000a900473ffffffffffffffffffffffffffffffffffffffff16905089565b828054600181600116156101000203166002900490600052602060002090601f016020900481019282601f10611f1957805160ff1916838001178555611f47565b82800160010185558215611f47579182015b82811115611f46578251825591602001919060010190611f2b565b5b509050611f549190611fa5565b5090565b828054828255906000526020600020908101928215611f94579160200282015b82811115611f93578251825591602001919060010190611f78565b5b509050611fa19190611fa5565b5090565b611fc791905b80821115611fc3576000816000905550600101611fab565b5090565b9056fea165627a7a7230582060eef5644acc99adbd35f255fe8190f3b696bdb0743fbe87e156dca6102a5c050029",
  "source": "pragma solidity >=0.4.21 <0.6.0;\r\n\r\ninterface IGemstoneSelecting {\r\n    function selectedGems(uint) external view returns (\r\n        uint id, \r\n        uint minedGemId, \r\n        uint weight, \r\n        uint height, \r\n        uint width, \r\n        uint diameter, \r\n        uint carat, \r\n        string memory color, \r\n        string memory gemType, \r\n        bool forSale, \r\n        uint price, \r\n        bool used, \r\n        address owner\r\n    );\r\n    function markGemAsUsed(uint _id) external;\r\n    function setPreviousGemId(uint gemId, uint previousGemId) external;\r\n    function markGemAsReplaced(uint _id) external;\r\n}\r\n\r\ncontract Jewelry {\r\n    IGemstoneSelecting gemstoneSelecting;\r\n    uint public jewelryCount = 0;\r\n    mapping(uint => JewelryData) public jewelry;\r\n\r\n    struct JewelryData {\r\n        uint id;\r\n        string name;\r\n        uint[] previousGemIds;\r\n        string metadataHash; \r\n        bool sale;\r\n        bool processing;\r\n        uint price;\r\n        address payable jeweler;\r\n        address payable owner;\r\n        address payable jewOwner;  \r\n    }\r\n\r\n    event JewelryMaking(\r\n        uint id,\r\n        string name,\r\n        string metadataHash,\r\n        bool sale,\r\n        bool processing,\r\n        uint price,\r\n        address payable jeweler,\r\n        address payable owner,\r\n        address payable jewOwner\r\n    );\r\n\r\n    event JewelryBought(uint id, address payable newOwner);\r\n    event GemUpdated(uint jewelryId, uint newGemId);\r\n    event GemReplaced(uint jewelryId, uint newGemId);\r\n    event JewelryFinished(uint id, address owner);\r\n    event JewelrySale(uint id, address owner);\r\n    event JewelryAddRepair(uint id, address jewOwner, address jeweler);\r\n    event ReturnToJewOwner(uint id, address jewOwner, address jeweler);\r\n\r\n    constructor(address _gemstoneSelectingAddress) public {\r\n        gemstoneSelecting = IGemstoneSelecting(_gemstoneSelectingAddress);\r\n    }\r\n\r\n    function jewelryMaking(\r\n        string memory _name,\r\n        uint _gemId,\r\n        string memory _metadataHash, // Off-chain trolt fizikai rszletek hash-e\r\n        bool _sale,\r\n        uint _price\r\n    ) public {\r\n        jewelryCount++;\r\n\r\n        jewelry[jewelryCount] = JewelryData(\r\n            jewelryCount,\r\n            _name,\r\n            new uint[](0), //Kezdetben res gem ID-k tmbje\r\n            _metadataHash,    // Off-chain trolt fizikai rszletek hash-e\r\n            _sale,\r\n            true,\r\n            _price,\r\n            msg.sender,\r\n            msg.sender,\r\n            msg.sender   // j jewOwner mez belltva\r\n        );\r\n        jewelry[jewelryCount].previousGemIds.push(_gemId);\r\n\r\n        emit JewelryMaking(\r\n            jewelryCount,\r\n            _name,\r\n            _metadataHash, // Off-chain trolt fizikai rszletek hash-e\r\n            _sale,\r\n            true,\r\n            _price,\r\n            msg.sender,\r\n            msg.sender,\r\n            msg.sender  // j jewOwner mez belltva\r\n        );\r\n    }\r\n\r\n    function replaceGem(uint jewelryId, uint oldGemId, uint newGemId) public {\r\n        gemstoneSelecting.setPreviousGemId(newGemId, oldGemId);\r\n\r\n        JewelryData storage jew = jewelry[jewelryId];\r\n        jew.previousGemIds.push(newGemId);\r\n\r\n        emit GemReplaced(jewelryId, newGemId);\r\n    }\r\n\r\n    function getJewelryDetails(uint _id) public view returns (\r\n        uint id,\r\n        string memory name,\r\n        uint[] memory previousGemIds,\r\n        string memory metadataHash, // Off-chain trolt fizikai rszletek hash-e\r\n        bool processing,\r\n        bool sale,\r\n        uint price,\r\n        address jeweler,\r\n        address owner,\r\n        address jewOwner   // j mez hozzadva\r\n    ) {\r\n        JewelryData storage jew = jewelry[_id];\r\n        return (\r\n            jew.id,\r\n            jew.name,\r\n            jew.previousGemIds,\r\n            jew.metadataHash, // Off-chain trolt fizikai rszletek hash-e\r\n            jew.processing,\r\n            jew.sale,\r\n            jew.price,\r\n            jew.jeweler,\r\n            jew.owner,\r\n            jew.jewOwner   // j mez hozzadva\r\n        );\r\n    }\r\n\r\n    function buyJewelry(uint _id) public payable {\r\n        JewelryData storage jew = jewelry[_id];\r\n        require(jew.sale, \"Jewelry is not for sale\");\r\n        require(msg.value >= jew.price, \"Insufficient funds\");\r\n\r\n        jew.owner.transfer(msg.value);\r\n        jew.owner = msg.sender;\r\n        jew.jewOwner = msg.sender;\r\n        jew.sale = false;\r\n\r\n        emit JewelryBought(_id, msg.sender);\r\n    }\r\n\r\n    function updateGem(uint _jewelryId, uint _newGemId) public {\r\n        JewelryData storage jew = jewelry[_jewelryId];\r\n        require(msg.sender == jew.jeweler, \"Only the owner can update the gem\");\r\n\r\n        jew.previousGemIds.push(_newGemId);\r\n\r\n        emit GemUpdated(_jewelryId, _newGemId);\r\n    }\r\n\r\n    function getJewelryCountByOwner(address _owner) public view returns (uint) {\r\n        uint count = 0;\r\n        for (uint i = 1; i <= jewelryCount; i++) {\r\n            if (jewelry[i].owner == _owner) {\r\n                count++;\r\n            }\r\n        }\r\n        return count;\r\n    }\r\n\r\n    function getJewelryCountByJeweler(address _jeweler) public view returns (uint) {\r\n        uint count = 0;\r\n        for (uint i = 1; i <= jewelryCount; i++) {\r\n            if (jewelry[i].jeweler == _jeweler) {\r\n                count++;\r\n            }\r\n        }\r\n        return count;\r\n    }\r\n\r\n    function markedAsFinished(uint _id) public payable {\r\n        JewelryData storage _jewelry = jewelry[_id];\r\n        require(_jewelry.id > 0 && _jewelry.id <= jewelryCount, \"Invalid jew ID\");\r\n        require(_jewelry.processing == true, \"Jewelry already finished\");\r\n\r\n        _jewelry.processing = false;\r\n        _jewelry.sale = false;\r\n\r\n        emit JewelryFinished(_id, _jewelry.owner);\r\n    }\r\n\r\n    function markedAsSale(uint _id) public payable {\r\n        JewelryData storage _jewelry = jewelry[_id];\r\n        require(_jewelry.id > 0 && _jewelry.id <= jewelryCount, \"Invalid jew ID\");\r\n\r\n        _jewelry.sale = !_jewelry.sale;\r\n\r\n        emit JewelrySale(_id, _jewelry.owner);\r\n    }\r\n\r\n    function addForRepair(uint _id) public{\r\n         JewelryData storage jew = jewelry[_id];\r\n\r\n        jew.owner = jew.jeweler;\r\n        jew.sale = false;\r\n\r\n        emit JewelryAddRepair(_id, jew.jewOwner, jew.jeweler);\r\n    \r\n    }\r\n\r\n     function returnToJewOwner(uint _id) public{\r\n         JewelryData storage jew = jewelry[_id];\r\n\r\n        jew.owner = jew.jewOwner;\r\n        jew.sale = false;\r\n\r\n        emit ReturnToJewOwner(_id, jew.jewOwner, jew.jeweler);\r\n    \r\n    }\r\n\r\n}",
  "sourcePath": "C:/Users/berke/asd/jewRoundx/src/contracts/Jewelry.sol",
  "compiler": {
    "name": "solc",
    "version": "0.5.0+commit.1d4f565a.Emscripten.clang"
  },
  "schemaVersion": "3.0.1",
  "updatedAt": "2024-12-12T13:47:52.666Z",
  "devdoc": {
    "methods": {}
  },
  "userdoc": {
    "methods": {}
  }
}