{
  "contractName": "Jewelry",
  "abi": [
    {
      "constant": true,
      "inputs": [],
      "name": "jewelryCount",
      "outputs": [
        {
          "name": "",
          "type": "uint256"
        }
      ],
      "payable": false,
      "stateMutability": "view",
      "type": "function",
      "signature": "0x590091a2"
    },
    {
      "constant": true,
      "inputs": [
        {
          "name": "",
          "type": "uint256"
        }
      ],
      "name": "jewelry",
      "outputs": [
        {
          "name": "id",
          "type": "uint256"
        },
        {
          "name": "name",
          "type": "string"
        },
        {
          "name": "gemId",
          "type": "uint256"
        },
        {
          "name": "metal",
          "type": "string"
        },
        {
          "name": "depth",
          "type": "uint256"
        },
        {
          "name": "height",
          "type": "uint256"
        },
        {
          "name": "width",
          "type": "uint256"
        },
        {
          "name": "size",
          "type": "uint256"
        },
        {
          "name": "date",
          "type": "uint256"
        },
        {
          "name": "sale",
          "type": "bool"
        },
        {
          "name": "price",
          "type": "uint256"
        },
        {
          "name": "jeweler",
          "type": "address"
        },
        {
          "name": "owner",
          "type": "address"
        }
      ],
      "payable": false,
      "stateMutability": "view",
      "type": "function",
      "signature": "0xe1474e65"
    },
    {
      "anonymous": false,
      "inputs": [
        {
          "indexed": false,
          "name": "id",
          "type": "uint256"
        },
        {
          "indexed": false,
          "name": "name",
          "type": "string"
        },
        {
          "indexed": false,
          "name": "gemId",
          "type": "uint256"
        },
        {
          "indexed": false,
          "name": "metal",
          "type": "string"
        },
        {
          "indexed": false,
          "name": "depth",
          "type": "uint256"
        },
        {
          "indexed": false,
          "name": "height",
          "type": "uint256"
        },
        {
          "indexed": false,
          "name": "width",
          "type": "uint256"
        },
        {
          "indexed": false,
          "name": "size",
          "type": "uint256"
        },
        {
          "indexed": false,
          "name": "date",
          "type": "uint256"
        },
        {
          "indexed": false,
          "name": "sale",
          "type": "bool"
        },
        {
          "indexed": false,
          "name": "price",
          "type": "uint256"
        },
        {
          "indexed": false,
          "name": "jeweler",
          "type": "address"
        },
        {
          "indexed": false,
          "name": "owner",
          "type": "address"
        }
      ],
      "name": "JewelryMaking",
      "type": "event",
      "signature": "0x625b6fbcb36a958e8d6f1bdab52abf96a8e3a446552f69d83a01a868cba28e97"
    },
    {
      "constant": false,
      "inputs": [
        {
          "name": "_name",
          "type": "string"
        },
        {
          "name": "_gemId",
          "type": "uint256"
        },
        {
          "name": "_metal",
          "type": "string"
        },
        {
          "name": "_depth",
          "type": "uint256"
        },
        {
          "name": "_height",
          "type": "uint256"
        },
        {
          "name": "_width",
          "type": "uint256"
        },
        {
          "name": "_size",
          "type": "uint256"
        },
        {
          "name": "_date",
          "type": "uint256"
        },
        {
          "name": "_sale",
          "type": "bool"
        },
        {
          "name": "_price",
          "type": "uint256"
        }
      ],
      "name": "jewelryMaking",
      "outputs": [],
      "payable": false,
      "stateMutability": "nonpayable",
      "type": "function",
      "signature": "0x063f2e8f"
    }
  ],
  "bytecode": "0x60806040526000805534801561001457600080fd5b50610ba2806100246000396000f3fe608060405260043610610057576000357c0100000000000000000000000000000000000000000000000000000000900463ffffffff168063063f2e8f1461005c578063590091a21461020e578063e1474e6514610239575b600080fd5b34801561006857600080fd5b5061020c600480360361014081101561008057600080fd5b810190808035906020019064010000000081111561009d57600080fd5b8201836020820111156100af57600080fd5b803590602001918460018302840111640100000000831117156100d157600080fd5b91908080601f016020809104026020016040519081016040528093929190818152602001838380828437600081840152601f19601f820116905080830192505050505050509192919290803590602001909291908035906020019064010000000081111561013e57600080fd5b82018360208201111561015057600080fd5b8035906020019184600183028401116401000000008311171561017257600080fd5b91908080601f016020809104026020016040519081016040528093929190818152602001838380828437600081840152601f19601f820116905080830192505050505050509192919290803590602001909291908035906020019092919080359060200190929190803590602001909291908035906020019092919080351515906020019092919080359060200190929190505050610402565b005b34801561021a57600080fd5b506102236108e8565b6040518082815260200191505060405180910390f35b34801561024557600080fd5b506102726004803603602081101561025c57600080fd5b81019080803590602001909291905050506108ee565b604051808e8152602001806020018d8152602001806020018c81526020018b81526020018a8152602001898152602001888152602001871515151581526020018681526020018573ffffffffffffffffffffffffffffffffffffffff1673ffffffffffffffffffffffffffffffffffffffff1681526020018473ffffffffffffffffffffffffffffffffffffffff1673ffffffffffffffffffffffffffffffffffffffff16815260200183810383528f818151815260200191508051906020019080838360005b83811015610354578082015181840152602081019050610339565b50505050905090810190601f1680156103815780820380516001836020036101000a031916815260200191505b5083810382528d818151815260200191508051906020019080838360005b838110156103ba57808201518184015260208101905061039f565b50505050905090810190601f1680156103e75780820380516001836020036101000a031916815260200191505b509f5050505050505050505050505050505060405180910390f35b60008711151561041157600080fd5b60008611151561042057600080fd5b60008511151561042f57600080fd5b60008111151561043e57600080fd5b6000891115156104b6576040517f08c379a00000000000000000000000000000000000000000000000000000000081526004018080602001828103825260158152602001807f47656d49642063616e6e6f7420626520656d707479000000000000000000000081525060200191505060405180910390fd5b60008a5111151561052f576040517f08c379a00000000000000000000000000000000000000000000000000000000081526004018080602001828103825260148152602001807f4e616d652063616e6e6f7420626520656d70747900000000000000000000000081525060200191505060405180910390fd5b60008081548092919060010191905055506101a06040519081016040528060005481526020018b81526020018a815260200189815260200188815260200187815260200186815260200185815260200184815260200183151581526020018281526020013373ffffffffffffffffffffffffffffffffffffffff1681526020013373ffffffffffffffffffffffffffffffffffffffff168152506001600080548152602001908152602001600020600082015181600001556020820151816001019080519060200190610603929190610ad1565b5060408201518160020155606082015181600301908051906020019061062a929190610ad1565b506080820151816004015560a0820151816005015560c0820151816006015560e0820151816007015561010082015181600801556101208201518160090160006101000a81548160ff02191690831515021790555061014082015181600a015561016082015181600b0160006101000a81548173ffffffffffffffffffffffffffffffffffffffff021916908373ffffffffffffffffffffffffffffffffffffffff16021790555061018082015181600c0160006101000a81548173ffffffffffffffffffffffffffffffffffffffff021916908373ffffffffffffffffffffffffffffffffffffffff1602179055509050507f625b6fbcb36a958e8d6f1bdab52abf96a8e3a446552f69d83a01a868cba28e976000548b8b8b8b8b8b8b8b8b8b3333604051808e8152602001806020018d8152602001806020018c81526020018b81526020018a8152602001898152602001888152602001871515151581526020018681526020018573ffffffffffffffffffffffffffffffffffffffff1673ffffffffffffffffffffffffffffffffffffffff1681526020018473ffffffffffffffffffffffffffffffffffffffff1673ffffffffffffffffffffffffffffffffffffffff16815260200183810383528f818151815260200191508051906020019080838360005b8381101561082f578082015181840152602081019050610814565b50505050905090810190601f16801561085c5780820380516001836020036101000a031916815260200191505b5083810382528d818151815260200191508051906020019080838360005b8381101561089557808201518184015260208101905061087a565b50505050905090810190601f1680156108c25780820380516001836020036101000a031916815260200191505b509f5050505050505050505050505050505060405180910390a150505050505050505050565b60005481565b6001602052806000526040600020600091509050806000015490806001018054600181600116156101000203166002900480601f0160208091040260200160405190810160405280929190818152602001828054600181600116156101000203166002900480156109a05780601f10610975576101008083540402835291602001916109a0565b820191906000526020600020905b81548152906001019060200180831161098357829003601f168201915b505050505090806002015490806003018054600181600116156101000203166002900480601f016020809104026020016040519081016040528092919081815260200182805460018160011615610100020316600290048015610a445780601f10610a1957610100808354040283529160200191610a44565b820191906000526020600020905b815481529060010190602001808311610a2757829003601f168201915b5050505050908060040154908060050154908060060154908060070154908060080154908060090160009054906101000a900460ff169080600a01549080600b0160009054906101000a900473ffffffffffffffffffffffffffffffffffffffff169080600c0160009054906101000a900473ffffffffffffffffffffffffffffffffffffffff1690508d565b828054600181600116156101000203166002900490600052602060002090601f016020900481019282601f10610b1257805160ff1916838001178555610b40565b82800160010185558215610b40579182015b82811115610b3f578251825591602001919060010190610b24565b5b509050610b4d9190610b51565b5090565b610b7391905b80821115610b6f576000816000905550600101610b57565b5090565b9056fea165627a7a723058208f115914d700a4075fdcaf539161ce00c4ce31501d496f8a7390763d8251cb7e0029",
  "source": "pragma solidity >=0.4.21 <0.6.0;\n\ncontract Jewelry {\n\n    /*struct GoldData{\n        string name;\n        uint gemId;\n        uint goldCarat;\n\n    }\n\n     struct SilverData{\n        string name;\n        uint gemId;\n\n    }\n\n     struct MedicalMetalData{\n        string name;\n        uint gemId;\n\n    }*/\n\n    uint public jewelryCount = 0;\n    mapping( uint => JewelryData) public jewelry;\n\n    struct JewelryData{\n        uint id;\n        string name;\n        uint gemId;\n        string metal;\n        uint depth;\n        uint height;\n        uint width;\n        uint size; //mekkora ujjra valo pl\n        uint date;\n        bool sale;\n        uint price;\n        address payable jeweler;\n        address payable owner;\n    }\n\n    event JewelryMaking(\n        uint id,\n        string name,\n        uint gemId,\n        string metal,\n        uint depth,\n        uint height,\n        uint width,\n        uint size,\n        uint date,\n        bool sale,\n        uint price,\n        address payable jeweler,\n        address payable owner\n    );\n\n    function jewelryMaking(string memory _name, uint _gemId, string memory _metal, uint _depth, uint _height, uint _width, uint _size, uint _date, bool _sale, uint _price ) public {\n        require( _depth > 0);\n        require( _height > 0);\n        require( _width > 0);\n        require( _price > 0);\n        require( _gemId > 0, \"GemId cannot be empty\");\n        require(bytes(_name).length > 0, \"Name cannot be empty\");\n        jewelryCount++;\n       jewelry[jewelryCount] = JewelryData(jewelryCount, _name, _gemId, _metal, _depth, _height, _width, _size, _date, _sale, _price, msg.sender, msg.sender);\n\n       emit JewelryMaking(jewelryCount, _name, _gemId, _metal, _depth, _height, _width, _size, _date, _sale, _price, msg.sender, msg.sender);\n\n    \n    }\n\n \n}",
  "sourcePath": "/home/berkeanna/folder/2/jewRoundx/src/contracts/Jewelry.sol",
  "compiler": {
    "name": "solc",
    "version": "0.5.0+commit.1d4f565a.Emscripten.clang"
  },
  "schemaVersion": "3.0.1",
  "updatedAt": "2024-02-01T09:06:02.714Z",
  "devdoc": {
    "methods": {}
  },
  "userdoc": {
    "methods": {}
  }
}