{
  "_format": "hh-sol-artifact-1",
  "contractName": "GemstoneExtraction",
  "sourceName": "contracts/GemstoneExtraction.sol",
  "abi": [
    {
      "inputs": [],
      "payable": false,
      "stateMutability": "nonpayable",
      "type": "constructor"
    },
    {
      "anonymous": false,
      "inputs": [
        {
          "indexed": false,
          "internalType": "uint256",
          "name": "id",
          "type": "uint256"
        },
        {
          "indexed": false,
          "internalType": "string",
          "name": "gemType",
          "type": "string"
        },
        {
          "indexed": false,
          "internalType": "string",
          "name": "details",
          "type": "string"
        },
        {
          "indexed": false,
          "internalType": "uint256",
          "name": "price",
          "type": "uint256"
        },
        {
          "indexed": false,
          "internalType": "string",
          "name": "miningLocation",
          "type": "string"
        },
        {
          "indexed": false,
          "internalType": "uint256",
          "name": "miningYear",
          "type": "uint256"
        },
        {
          "indexed": false,
          "internalType": "bool",
          "name": "selected",
          "type": "bool"
        },
        {
          "indexed": false,
          "internalType": "address payable",
          "name": "miner",
          "type": "address"
        },
        {
          "indexed": false,
          "internalType": "address payable",
          "name": "owner",
          "type": "address"
        },
        {
          "indexed": false,
          "internalType": "string",
          "name": "fileURL",
          "type": "string"
        },
        {
          "indexed": false,
          "internalType": "bool",
          "name": "purchased",
          "type": "bool"
        }
      ],
      "name": "GemMining",
      "type": "event"
    },
    {
      "anonymous": false,
      "inputs": [
        {
          "indexed": false,
          "internalType": "uint256",
          "name": "id",
          "type": "uint256"
        },
        {
          "indexed": false,
          "internalType": "string",
          "name": "gemType",
          "type": "string"
        },
        {
          "indexed": false,
          "internalType": "string",
          "name": "details",
          "type": "string"
        },
        {
          "indexed": false,
          "internalType": "uint256",
          "name": "price",
          "type": "uint256"
        },
        {
          "indexed": false,
          "internalType": "string",
          "name": "miningLocation",
          "type": "string"
        },
        {
          "indexed": false,
          "internalType": "uint256",
          "name": "miningYear",
          "type": "uint256"
        },
        {
          "indexed": false,
          "internalType": "bool",
          "name": "selected",
          "type": "bool"
        },
        {
          "indexed": false,
          "internalType": "address payable",
          "name": "miner",
          "type": "address"
        },
        {
          "indexed": false,
          "internalType": "address payable",
          "name": "owner",
          "type": "address"
        },
        {
          "indexed": false,
          "internalType": "string",
          "name": "fileURL",
          "type": "string"
        },
        {
          "indexed": false,
          "internalType": "bool",
          "name": "purchased",
          "type": "bool"
        }
      ],
      "name": "GemProcessing",
      "type": "event"
    },
    {
      "anonymous": false,
      "inputs": [
        {
          "indexed": false,
          "internalType": "uint256",
          "name": "id",
          "type": "uint256"
        },
        {
          "indexed": false,
          "internalType": "string",
          "name": "gemType",
          "type": "string"
        },
        {
          "indexed": false,
          "internalType": "string",
          "name": "details",
          "type": "string"
        },
        {
          "indexed": false,
          "internalType": "uint256",
          "name": "price",
          "type": "uint256"
        },
        {
          "indexed": false,
          "internalType": "string",
          "name": "miningLocation",
          "type": "string"
        },
        {
          "indexed": false,
          "internalType": "uint256",
          "name": "miningYear",
          "type": "uint256"
        },
        {
          "indexed": false,
          "internalType": "bool",
          "name": "selected",
          "type": "bool"
        },
        {
          "indexed": false,
          "internalType": "address payable",
          "name": "miner",
          "type": "address"
        },
        {
          "indexed": false,
          "internalType": "address payable",
          "name": "owner",
          "type": "address"
        },
        {
          "indexed": false,
          "internalType": "string",
          "name": "fileURL",
          "type": "string"
        },
        {
          "indexed": false,
          "internalType": "bool",
          "name": "purchased",
          "type": "bool"
        }
      ],
      "name": "GemPurchased",
      "type": "event"
    },
    {
      "anonymous": false,
      "inputs": [
        {
          "indexed": false,
          "internalType": "uint256",
          "name": "id",
          "type": "uint256"
        },
        {
          "indexed": false,
          "internalType": "string",
          "name": "gemType",
          "type": "string"
        },
        {
          "indexed": false,
          "internalType": "string",
          "name": "details",
          "type": "string"
        },
        {
          "indexed": false,
          "internalType": "uint256",
          "name": "price",
          "type": "uint256"
        },
        {
          "indexed": false,
          "internalType": "string",
          "name": "miningLocation",
          "type": "string"
        },
        {
          "indexed": false,
          "internalType": "uint256",
          "name": "miningYear",
          "type": "uint256"
        },
        {
          "indexed": false,
          "internalType": "bool",
          "name": "selected",
          "type": "bool"
        },
        {
          "indexed": false,
          "internalType": "address payable",
          "name": "miner",
          "type": "address"
        },
        {
          "indexed": false,
          "internalType": "address payable",
          "name": "owner",
          "type": "address"
        },
        {
          "indexed": false,
          "internalType": "string",
          "name": "fileURL",
          "type": "string"
        },
        {
          "indexed": false,
          "internalType": "bool",
          "name": "purchased",
          "type": "bool"
        }
      ],
      "name": "GemSelected",
      "type": "event"
    },
    {
      "anonymous": false,
      "inputs": [
        {
          "indexed": false,
          "internalType": "uint256",
          "name": "id",
          "type": "uint256"
        },
        {
          "indexed": false,
          "internalType": "string",
          "name": "gemType",
          "type": "string"
        },
        {
          "indexed": false,
          "internalType": "string",
          "name": "details",
          "type": "string"
        },
        {
          "indexed": false,
          "internalType": "uint256",
          "name": "price",
          "type": "uint256"
        },
        {
          "indexed": false,
          "internalType": "string",
          "name": "miningLocation",
          "type": "string"
        },
        {
          "indexed": false,
          "internalType": "uint256",
          "name": "miningYear",
          "type": "uint256"
        },
        {
          "indexed": false,
          "internalType": "bool",
          "name": "selected",
          "type": "bool"
        },
        {
          "indexed": false,
          "internalType": "address payable",
          "name": "miner",
          "type": "address"
        },
        {
          "indexed": false,
          "internalType": "address payable",
          "name": "owner",
          "type": "address"
        },
        {
          "indexed": false,
          "internalType": "string",
          "name": "fileURL",
          "type": "string"
        },
        {
          "indexed": false,
          "internalType": "bool",
          "name": "purchased",
          "type": "bool"
        }
      ],
      "name": "MarkGemAsSelected",
      "type": "event"
    },
    {
      "anonymous": false,
      "inputs": [
        {
          "indexed": false,
          "internalType": "uint256",
          "name": "id",
          "type": "uint256"
        },
        {
          "indexed": false,
          "internalType": "string",
          "name": "gemType",
          "type": "string"
        },
        {
          "indexed": false,
          "internalType": "string",
          "name": "details",
          "type": "string"
        },
        {
          "indexed": false,
          "internalType": "uint256",
          "name": "price",
          "type": "uint256"
        },
        {
          "indexed": false,
          "internalType": "string",
          "name": "miningLocation",
          "type": "string"
        },
        {
          "indexed": false,
          "internalType": "uint256",
          "name": "miningYear",
          "type": "uint256"
        },
        {
          "indexed": false,
          "internalType": "bool",
          "name": "selected",
          "type": "bool"
        },
        {
          "indexed": false,
          "internalType": "address payable",
          "name": "miner",
          "type": "address"
        },
        {
          "indexed": false,
          "internalType": "address payable",
          "name": "owner",
          "type": "address"
        },
        {
          "indexed": false,
          "internalType": "string",
          "name": "fileURL",
          "type": "string"
        },
        {
          "indexed": false,
          "internalType": "bool",
          "name": "purchased",
          "type": "bool"
        }
      ],
      "name": "MarkNewOwner",
      "type": "event"
    },
    {
      "anonymous": false,
      "inputs": [
        {
          "indexed": false,
          "internalType": "uint256",
          "name": "id",
          "type": "uint256"
        },
        {
          "indexed": false,
          "internalType": "string",
          "name": "gemType",
          "type": "string"
        },
        {
          "indexed": false,
          "internalType": "string",
          "name": "details",
          "type": "string"
        },
        {
          "indexed": false,
          "internalType": "uint256",
          "name": "price",
          "type": "uint256"
        },
        {
          "indexed": false,
          "internalType": "string",
          "name": "miningLocation",
          "type": "string"
        },
        {
          "indexed": false,
          "internalType": "uint256",
          "name": "miningYear",
          "type": "uint256"
        },
        {
          "indexed": false,
          "internalType": "bool",
          "name": "selected",
          "type": "bool"
        },
        {
          "indexed": false,
          "internalType": "address payable",
          "name": "miner",
          "type": "address"
        },
        {
          "indexed": false,
          "internalType": "address payable",
          "name": "owner",
          "type": "address"
        },
        {
          "indexed": false,
          "internalType": "string",
          "name": "fileURL",
          "type": "string"
        },
        {
          "indexed": false,
          "internalType": "bool",
          "name": "purchased",
          "type": "bool"
        }
      ],
      "name": "TransferGemOwnership",
      "type": "event"
    },
    {
      "constant": false,
      "inputs": [
        {
          "internalType": "string",
          "name": "_gemType",
          "type": "string"
        },
        {
          "internalType": "string",
          "name": "_details",
          "type": "string"
        },
        {
          "internalType": "uint256",
          "name": "_price",
          "type": "uint256"
        },
        {
          "internalType": "string",
          "name": "_miningLocation",
          "type": "string"
        },
        {
          "internalType": "uint256",
          "name": "_miningYear",
          "type": "uint256"
        },
        {
          "internalType": "string",
          "name": "_fileURL",
          "type": "string"
        },
        {
          "internalType": "bool",
          "name": "_purchased",
          "type": "bool"
        }
      ],
      "name": "gemMining",
      "outputs": [],
      "payable": false,
      "stateMutability": "nonpayable",
      "type": "function"
    },
    {
      "constant": true,
      "inputs": [
        {
          "internalType": "address",
          "name": "_owner",
          "type": "address"
        }
      ],
      "name": "getGemstoneCountByOrder",
      "outputs": [
        {
          "internalType": "uint256",
          "name": "",
          "type": "uint256"
        }
      ],
      "payable": false,
      "stateMutability": "view",
      "type": "function"
    },
    {
      "constant": false,
      "inputs": [
        {
          "internalType": "uint256",
          "name": "_id",
          "type": "uint256"
        }
      ],
      "name": "markGemAsSelected",
      "outputs": [],
      "payable": true,
      "stateMutability": "payable",
      "type": "function"
    },
    {
      "constant": false,
      "inputs": [
        {
          "internalType": "uint256",
          "name": "_id",
          "type": "uint256"
        }
      ],
      "name": "markNewOwner",
      "outputs": [],
      "payable": true,
      "stateMutability": "payable",
      "type": "function"
    },
    {
      "constant": true,
      "inputs": [],
      "name": "minedGemCount",
      "outputs": [
        {
          "internalType": "uint256",
          "name": "",
          "type": "uint256"
        }
      ],
      "payable": false,
      "stateMutability": "view",
      "type": "function"
    },
    {
      "constant": true,
      "inputs": [
        {
          "internalType": "uint256",
          "name": "",
          "type": "uint256"
        }
      ],
      "name": "minedGems",
      "outputs": [
        {
          "internalType": "uint256",
          "name": "id",
          "type": "uint256"
        },
        {
          "internalType": "string",
          "name": "gemType",
          "type": "string"
        },
        {
          "internalType": "string",
          "name": "details",
          "type": "string"
        },
        {
          "internalType": "uint256",
          "name": "price",
          "type": "uint256"
        },
        {
          "internalType": "string",
          "name": "miningLocation",
          "type": "string"
        },
        {
          "internalType": "uint256",
          "name": "miningYear",
          "type": "uint256"
        },
        {
          "internalType": "bool",
          "name": "selected",
          "type": "bool"
        },
        {
          "internalType": "address payable",
          "name": "miner",
          "type": "address"
        },
        {
          "internalType": "address payable",
          "name": "owner",
          "type": "address"
        },
        {
          "internalType": "string",
          "name": "fileURL",
          "type": "string"
        },
        {
          "internalType": "bool",
          "name": "purchased",
          "type": "bool"
        }
      ],
      "payable": false,
      "stateMutability": "view",
      "type": "function"
    },
    {
      "constant": true,
      "inputs": [],
      "name": "name",
      "outputs": [
        {
          "internalType": "string",
          "name": "",
          "type": "string"
        }
      ],
      "payable": false,
      "stateMutability": "view",
      "type": "function"
    },
    {
      "constant": false,
      "inputs": [
        {
          "internalType": "uint256",
          "name": "_id",
          "type": "uint256"
        }
      ],
      "name": "processingGem",
      "outputs": [],
      "payable": false,
      "stateMutability": "nonpayable",
      "type": "function"
    },
    {
      "constant": false,
      "inputs": [
        {
          "internalType": "uint256",
          "name": "_id",
          "type": "uint256"
        }
      ],
      "name": "purchaseGem",
      "outputs": [],
      "payable": true,
      "stateMutability": "payable",
      "type": "function"
    }
  ],
  "bytecode": "0x608060405260006001553480156200001657600080fd5b506040518060400160405280600181526020017f780000000000000000000000000000000000000000000000000000000000000081525060009080519060200190620000649291906200006b565b506200011a565b828054600181600116156101000203166002900490600052602060002090601f016020900481019282601f10620000ae57805160ff1916838001178555620000df565b82800160010185558215620000df579182015b82811115620000de578251825591602001919060010190620000c1565b5b509050620000ee9190620000f2565b5090565b6200011791905b8082111562000113576000816000905550600101620000f9565b5090565b90565b612868806200012a6000396000f3fe6080604052600436106100865760003560e01c806353cdc2441161005957806353cdc244146104375780639b8efcd914610465578063b91965f814610493578063bf38b7a214610740578063d0cfe11e1461077b57610086565b806306fdde031461008b5780631e166c4e1461011b57806330d559fa146103a4578063477b18b3146103d2575b600080fd5b34801561009757600080fd5b506100a06107a6565b6040518080602001828103825283818151815260200191508051906020019080838360005b838110156100e05780820151818401526020810190506100c5565b50505050905090810190601f16801561010d5780820380516001836020036101000a031916815260200191505b509250505060405180910390f35b34801561012757600080fd5b506101546004803603602081101561013e57600080fd5b8101908080359060200190929190505050610844565b604051808c815260200180602001806020018b8152602001806020018a8152602001891515151581526020018873ffffffffffffffffffffffffffffffffffffffff1673ffffffffffffffffffffffffffffffffffffffff1681526020018773ffffffffffffffffffffffffffffffffffffffff1673ffffffffffffffffffffffffffffffffffffffff168152602001806020018615151515815260200185810385528f818151815260200191508051906020019080838360005b8381101561022a57808201518184015260208101905061020f565b50505050905090810190601f1680156102575780820380516001836020036101000a031916815260200191505b5085810384528e818151815260200191508051906020019080838360005b83811015610290578082015181840152602081019050610275565b50505050905090810190601f1680156102bd5780820380516001836020036101000a031916815260200191505b5085810383528c818151815260200191508051906020019080838360005b838110156102f65780820151818401526020810190506102db565b50505050905090810190601f1680156103235780820380516001836020036101000a031916815260200191505b50858103825287818151815260200191508051906020019080838360005b8381101561035c578082015181840152602081019050610341565b50505050905090810190601f1680156103895780820380516001836020036101000a031916815260200191505b509f5050505050505050505050505050505060405180910390f35b6103d0600480360360208110156103ba57600080fd5b8101908080359060200190929190505050610b58565b005b3480156103de57600080fd5b50610421600480360360208110156103f557600080fd5b81019080803573ffffffffffffffffffffffffffffffffffffffff16906020019092919050505061117d565b6040518082815260200191505060405180910390f35b6104636004803603602081101561044d57600080fd5b810190808035906020019092919050505061121e565b005b6104916004803603602081101561047b57600080fd5b8101908080359060200190929190505050611738565b005b34801561049f57600080fd5b5061073e600480360360e08110156104b657600080fd5b81019080803590602001906401000000008111156104d357600080fd5b8201836020820111156104e557600080fd5b8035906020019184600183028401116401000000008311171561050757600080fd5b91908080601f016020809104026020016040519081016040528093929190818152602001838380828437600081840152601f19601f8201169050808301925050505050505091929192908035906020019064010000000081111561056a57600080fd5b82018360208201111561057c57600080fd5b8035906020019184600183028401116401000000008311171561059e57600080fd5b91908080601f016020809104026020016040519081016040528093929190818152602001838380828437600081840152601f19601f820116905080830192505050505050509192919290803590602001909291908035906020019064010000000081111561060b57600080fd5b82018360208201111561061d57600080fd5b8035906020019184600183028401116401000000008311171561063f57600080fd5b91908080601f016020809104026020016040519081016040528093929190818152602001838380828437600081840152601f19601f82011690508083019250505050505050919291929080359060200190929190803590602001906401000000008111156106ac57600080fd5b8201836020820111156106be57600080fd5b803590602001918460018302840111640100000000831117156106e057600080fd5b91908080601f016020809104026020016040519081016040528093929190818152602001838380828437600081840152601f19601f820116905080830192505050505050509192919290803515159060200190929190505050611b31565b005b34801561074c57600080fd5b506107796004803603602081101561076357600080fd5b81019080803590602001909291905050506121f8565b005b34801561078757600080fd5b506107906126f5565b6040518082815260200191505060405180910390f35b60008054600181600116156101000203166002900480601f01602080910402602001604051908101604052809291908181526020018280546001816001161561010002031660029004801561083c5780601f106108115761010080835404028352916020019161083c565b820191906000526020600020905b81548152906001019060200180831161081f57829003601f168201915b505050505081565b6002602052806000526040600020600091509050806000015490806001018054600181600116156101000203166002900480601f0160208091040260200160405190810160405280929190818152602001828054600181600116156101000203166002900480156108f65780601f106108cb576101008083540402835291602001916108f6565b820191906000526020600020905b8154815290600101906020018083116108d957829003601f168201915b505050505090806002018054600181600116156101000203166002900480601f0160208091040260200160405190810160405280929190818152602001828054600181600116156101000203166002900480156109945780601f1061096957610100808354040283529160200191610994565b820191906000526020600020905b81548152906001019060200180831161097757829003601f168201915b505050505090806003015490806004018054600181600116156101000203166002900480601f016020809104026020016040519081016040528092919081815260200182805460018160011615610100020316600290048015610a385780601f10610a0d57610100808354040283529160200191610a38565b820191906000526020600020905b815481529060010190602001808311610a1b57829003601f168201915b5050505050908060050154908060060160009054906101000a900460ff16908060060160019054906101000a900473ffffffffffffffffffffffffffffffffffffffff16908060070160009054906101000a900473ffffffffffffffffffffffffffffffffffffffff1690806008018054600181600116156101000203166002900480601f016020809104026020016040519081016040528092919081815260200182805460018160011615610100020316600290048015610b3b5780601f10610b1057610100808354040283529160200191610b3b565b820191906000526020600020905b815481529060010190602001808311610b1e57829003601f168201915b5050505050908060090160009054906101000a900460ff1690508b565b600060026000838152602001908152602001600020905060008160000154118015610b895750600154816000015411155b610bfb576040517f08c379a000000000000000000000000000000000000000000000000000000000815260040180806020018281038252600e8152602001807f496e76616c69642067656d20494400000000000000000000000000000000000081525060200191505060405180910390fd5b600015158160060160009054906101000a900460ff16151514610c86576040517f08c379a00000000000000000000000000000000000000000000000000000000081526004018080602001828103825260148152602001807f47656d20616c72656164792073656c656374656400000000000000000000000081525060200191505060405180910390fd5b600115158160090160009054906101000a900460ff16151514610cf4576040517f08c379a00000000000000000000000000000000000000000000000000000000081526004018080602001828103825260268152602001806127a16026913960400191505060405180910390fd5b8060030154341015610d6e576040517f08c379a00000000000000000000000000000000000000000000000000000000081526004018080602001828103825260128152602001807f496e73756666696369656e742066756e6473000000000000000000000000000081525060200191505060405180910390fd5b8060060160019054906101000a900473ffffffffffffffffffffffffffffffffffffffff1673ffffffffffffffffffffffffffffffffffffffff166108fc349081150290604051600060405180830381858888f19350505050158015610dd8573d6000803e3d6000fd5b50338160070160006101000a81548173ffffffffffffffffffffffffffffffffffffffff021916908373ffffffffffffffffffffffffffffffffffffffff1602179055507fdfa4fe8a7d54119af3849afae3b271040c57a1f8c40c59fe85cae40b4eaa526d828260010183600201846003015485600401866005015460018860060160019054906101000a900473ffffffffffffffffffffffffffffffffffffffff168960070160009054906101000a900473ffffffffffffffffffffffffffffffffffffffff168a6008018b60090160009054906101000a900460ff16604051808c815260200180602001806020018b8152602001806020018a8152602001891515151581526020018873ffffffffffffffffffffffffffffffffffffffff1673ffffffffffffffffffffffffffffffffffffffff1681526020018773ffffffffffffffffffffffffffffffffffffffff1673ffffffffffffffffffffffffffffffffffffffff168152602001806020018615151515815260200185810385528f818154600181600116156101000203166002900481526020019150805460018160011615610100020316600290048015610fd55780601f10610faa57610100808354040283529160200191610fd5565b820191906000526020600020905b815481529060010190602001808311610fb857829003601f168201915b505085810384528e8181546001816001161561010002031660029004815260200191508054600181600116156101000203166002900480156110585780601f1061102d57610100808354040283529160200191611058565b820191906000526020600020905b81548152906001019060200180831161103b57829003601f168201915b505085810383528c8181546001816001161561010002031660029004815260200191508054600181600116156101000203166002900480156110db5780601f106110b0576101008083540402835291602001916110db565b820191906000526020600020905b8154815290600101906020018083116110be57829003601f168201915b505085810382528781815460018160011615610100020316600290048152602001915080546001816001161561010002031660029004801561115e5780601f106111335761010080835404028352916020019161115e565b820191906000526020600020905b81548152906001019060200180831161114157829003601f168201915b50509f5050505050505050505050505050505060405180910390a15050565b600080600090506000600190505b6001548111611214578373ffffffffffffffffffffffffffffffffffffffff166002600083815260200190815260200160002060070160009054906101000a900473ffffffffffffffffffffffffffffffffffffffff1673ffffffffffffffffffffffffffffffffffffffff1614156112075781806001019250505b808060010191505061118b565b5080915050919050565b60006002600083815260200190815260200160002090506000816000015411801561124f5750600154816000015411155b6112c1576040517f08c379a000000000000000000000000000000000000000000000000000000000815260040180806020018281038252600e8152602001807f496e76616c69642067656d20494400000000000000000000000000000000000081525060200191505060405180910390fd5b600015158160060160009054906101000a900460ff1615151461134c576040517f08c379a00000000000000000000000000000000000000000000000000000000081526004018080602001828103825260148152602001807f47656d20616c72656164792073656c656374656400000000000000000000000081525060200191505060405180910390fd5b600115158160090160009054906101000a900460ff161515146113ba576040517f08c379a00000000000000000000000000000000000000000000000000000000081526004018080602001828103825260268152602001806127a16026913960400191505060405180910390fd5b60018160060160006101000a81548160ff0219169083151502179055507f1fa57598384ac2421a670a27cde4e2f26c225812dfbcf89dfc2f466836b148f3828260010183600201846003015485600401866005015460018860060160019054906101000a900473ffffffffffffffffffffffffffffffffffffffff168960070160009054906101000a900473ffffffffffffffffffffffffffffffffffffffff168a6008018b60090160009054906101000a900460ff16604051808c815260200180602001806020018b8152602001806020018a8152602001891515151581526020018873ffffffffffffffffffffffffffffffffffffffff1673ffffffffffffffffffffffffffffffffffffffff1681526020018773ffffffffffffffffffffffffffffffffffffffff1673ffffffffffffffffffffffffffffffffffffffff168152602001806020018615151515815260200185810385528f8181546001816001161561010002031660029004815260200191508054600181600116156101000203166002900480156115905780601f1061156557610100808354040283529160200191611590565b820191906000526020600020905b81548152906001019060200180831161157357829003601f168201915b505085810384528e8181546001816001161561010002031660029004815260200191508054600181600116156101000203166002900480156116135780601f106115e857610100808354040283529160200191611613565b820191906000526020600020905b8154815290600101906020018083116115f657829003601f168201915b505085810383528c8181546001816001161561010002031660029004815260200191508054600181600116156101000203166002900480156116965780601f1061166b57610100808354040283529160200191611696565b820191906000526020600020905b81548152906001019060200180831161167957829003601f168201915b50508581038252878181546001816001161561010002031660029004815260200191508054600181600116156101000203166002900480156117195780601f106116ee57610100808354040283529160200191611719565b820191906000526020600020905b8154815290600101906020018083116116fc57829003601f168201915b50509f5050505050505050505050505050505060405180910390a15050565b6000600260008381526020019081526020016000209050600081600001541180156117695750600154816000015411155b61177257600080fd5b600015158160090160009054906101000a900460ff1615151461179457600080fd5b338160070160006101000a81548173ffffffffffffffffffffffffffffffffffffffff021916908373ffffffffffffffffffffffffffffffffffffffff16021790555060018160090160006101000a81548160ff0219169083151502179055507ffc807a956e3f68ebbaa343e66e9d8da0d8b7e5f4a3806f970184ea983d992fe1828260010183600201846003015485600401866005015460008860060160019054906101000a900473ffffffffffffffffffffffffffffffffffffffff16338a6008018b60090160009054906101000a900460ff16604051808c815260200180602001806020018b8152602001806020018a8152602001891515151581526020018873ffffffffffffffffffffffffffffffffffffffff1673ffffffffffffffffffffffffffffffffffffffff1681526020018773ffffffffffffffffffffffffffffffffffffffff1673ffffffffffffffffffffffffffffffffffffffff168152602001806020018615151515815260200185810385528f8181546001816001161561010002031660029004815260200191508054600181600116156101000203166002900480156119895780601f1061195e57610100808354040283529160200191611989565b820191906000526020600020905b81548152906001019060200180831161196c57829003601f168201915b505085810384528e818154600181600116156101000203166002900481526020019150805460018160011615610100020316600290048015611a0c5780601f106119e157610100808354040283529160200191611a0c565b820191906000526020600020905b8154815290600101906020018083116119ef57829003601f168201915b505085810383528c818154600181600116156101000203166002900481526020019150805460018160011615610100020316600290048015611a8f5780601f10611a6457610100808354040283529160200191611a8f565b820191906000526020600020905b815481529060010190602001808311611a7257829003601f168201915b5050858103825287818154600181600116156101000203166002900481526020019150805460018160011615610100020316600290048015611b125780601f10611ae757610100808354040283529160200191611b12565b820191906000526020600020905b815481529060010190602001808311611af557829003601f168201915b50509f5050505050505050505050505050505060405180910390a15050565b6000875111611ba8576040517f08c379a00000000000000000000000000000000000000000000000000000000081526004018080602001828103825260188152602001807f47656d20747970652063616e6e6f7420626520656d707479000000000000000081525060200191505060405180910390fd5b6000865111611c1f576040517f08c379a00000000000000000000000000000000000000000000000000000000081526004018080602001828103825260178152602001807f64657461696c732063616e6e6f7420626520656d70747900000000000000000081525060200191505060405180910390fd5b60008511611c95576040517f08c379a000000000000000000000000000000000000000000000000000000000815260040180806020018281038252601c8152602001807f5072696365206d7573742062652067726561746572207468616e20300000000081525060200191505060405180910390fd5b60008311611cee576040517f08c379a00000000000000000000000000000000000000000000000000000000081526004018080602001828103825260228152602001806127c76022913960400191505060405180910390fd5b6000845111611d65576040517f08c379a000000000000000000000000000000000000000000000000000000000815260040180806020018281038252601f8152602001807f4d696e696e67206c6f636174696f6e2063616e6e6f7420626520656d7074790081525060200191505060405180910390fd5b60016000815480929190600101919050555060405180610160016040528060015481526020018881526020018781526020018681526020018581526020018481526020016000151581526020013373ffffffffffffffffffffffffffffffffffffffff1681526020013373ffffffffffffffffffffffffffffffffffffffff168152602001838152602001821515815250600260006001548152602001908152602001600020600082015181600001556020820151816001019080519060200190611e319291906126fb565b506040820151816002019080519060200190611e4e9291906126fb565b50606082015181600301556080820151816004019080519060200190611e759291906126fb565b5060a0820151816005015560c08201518160060160006101000a81548160ff02191690831515021790555060e08201518160060160016101000a81548173ffffffffffffffffffffffffffffffffffffffff021916908373ffffffffffffffffffffffffffffffffffffffff1602179055506101008201518160070160006101000a81548173ffffffffffffffffffffffffffffffffffffffff021916908373ffffffffffffffffffffffffffffffffffffffff160217905550610120820151816008019080519060200190611f4c9291906126fb565b506101408201518160090160006101000a81548160ff0219169083151502179055509050507fedb63ea92bd1f2db0ce2c3ae2fa5dbdd59b5c47733daa4e4841dc7155aee5fd46001548888888888600033338b8b604051808c815260200180602001806020018b8152602001806020018a8152602001891515151581526020018873ffffffffffffffffffffffffffffffffffffffff1673ffffffffffffffffffffffffffffffffffffffff1681526020018773ffffffffffffffffffffffffffffffffffffffff1673ffffffffffffffffffffffffffffffffffffffff168152602001806020018615151515815260200185810385528f818151815260200191508051906020019080838360005b8381101561207657808201518184015260208101905061205b565b50505050905090810190601f1680156120a35780820380516001836020036101000a031916815260200191505b5085810384528e818151815260200191508051906020019080838360005b838110156120dc5780820151818401526020810190506120c1565b50505050905090810190601f1680156121095780820380516001836020036101000a031916815260200191505b5085810383528c818151815260200191508051906020019080838360005b83811015612142578082015181840152602081019050612127565b50505050905090810190601f16801561216f5780820380516001836020036101000a031916815260200191505b50858103825287818151815260200191508051906020019080838360005b838110156121a857808201518184015260208101905061218d565b50505050905090810190601f1680156121d55780820380516001836020036101000a031916815260200191505b509f5050505050505050505050505050505060405180910390a150505050505050565b6000600260008381526020019081526020016000209050600081600001541180156122295750600154816000015411155b61229b576040517f08c379a000000000000000000000000000000000000000000000000000000000815260040180806020018281038252600e8152602001807f496e76616c69642067656d20494400000000000000000000000000000000000081525060200191505060405180910390fd5b600115158160090160009054906101000a900460ff16151514612309576040517f08c379a000000000000000000000000000000000000000000000000000000000815260040180806020018281038252602781526020018061280d6027913960400191505060405180910390fd5b600015158160060160009054906101000a900460ff16151514612377576040517f08c379a00000000000000000000000000000000000000000000000000000000081526004018080602001828103825260248152602001806127e96024913960400191505060405180910390fd5b60018160060160006101000a81548160ff0219169083151502179055507fb26ef7db0e0a13b7498f8c0a2e62b10c7bcb6e19508a5c617402e7b6fabd5598828260010183600201846003015485600401866005015460018860060160019054906101000a900473ffffffffffffffffffffffffffffffffffffffff168960070160009054906101000a900473ffffffffffffffffffffffffffffffffffffffff168a6008018b60090160009054906101000a900460ff16604051808c815260200180602001806020018b8152602001806020018a8152602001891515151581526020018873ffffffffffffffffffffffffffffffffffffffff1673ffffffffffffffffffffffffffffffffffffffff1681526020018773ffffffffffffffffffffffffffffffffffffffff1673ffffffffffffffffffffffffffffffffffffffff168152602001806020018615151515815260200185810385528f81815460018160011615610100020316600290048152602001915080546001816001161561010002031660029004801561254d5780601f106125225761010080835404028352916020019161254d565b820191906000526020600020905b81548152906001019060200180831161253057829003601f168201915b505085810384528e8181546001816001161561010002031660029004815260200191508054600181600116156101000203166002900480156125d05780601f106125a5576101008083540402835291602001916125d0565b820191906000526020600020905b8154815290600101906020018083116125b357829003601f168201915b505085810383528c8181546001816001161561010002031660029004815260200191508054600181600116156101000203166002900480156126535780601f1061262857610100808354040283529160200191612653565b820191906000526020600020905b81548152906001019060200180831161263657829003601f168201915b50508581038252878181546001816001161561010002031660029004815260200191508054600181600116156101000203166002900480156126d65780601f106126ab576101008083540402835291602001916126d6565b820191906000526020600020905b8154815290600101906020018083116126b957829003601f168201915b50509f5050505050505050505050505050505060405180910390a15050565b60015481565b828054600181600116156101000203166002900490600052602060002090601f016020900481019282601f1061273c57805160ff191683800117855561276a565b8280016001018555821561276a579182015b8281111561276957825182559160200191906001019061274e565b5b509050612777919061277b565b5090565b61279d91905b80821115612799576000816000905550600101612781565b5090565b9056fe47656d206d75737420626520707572636861736564206265666f72652073656c656374696f6e4d696e696e672079656172206d7573742062652067726561746572207468616e203047656d20697320616c72656164792070726f636573736564206f722073656c656374656447656d206d75737420626520707572636861736564206265666f72652070726f63657373696e67a265627a7a7231582085814f5533a9ed03dbedb42b158b632c08aa53d8e2d5db89230db4d141621e8c64736f6c63430005100032",
  "linkReferences": {},
  "deployedLinkReferences": {}
}